:020000040800F2
:10000000005000200D010008B5050008B7050008E4
:10001000B9050008BB050008BD0500080000000088
:10002000000000000000000000000000BF05000804
:10003000C105000800000000C3050008C505000850
:100040005901000859010008590100085901000828
:100050005901000859010008590100085901000818
:10006000D505000859010008590100085901000888
:1000700059010008590100085901000859010008F8
:1000800059010008590100085901000859010008E8
:1000900051060008590100085901000859010008DB
:1000A0005901000859010008590100080906000813
:1000B00059010008590100085901000859010008B8
:1000C00059010008590100085901000859010008A8
:1000D0005901000859010008590100085901000898
:1000E00059010008590100085901000800000000EA
:1000F0000000000000000000000000000000000000
:0C01000000000000000000005FF808F1A3
:10010C00002100F004B80C4B5B58435004310B48F1
:10011C000B4B42189A42FFF4F6AF0A4A00F003B8B0
:10012C00002342F8043B084B9A42FFF4F9AF01F06C
:10013C0091FB00F0B1F87047F42E0008000000208D
:10014C00940200209402002070070020FFF7FEBFED
:10015C0008B500F061F800F005FA002008BD0000B9
:10016C0008B510F07C4304D0B3F1006F08D1054AF8
:10017C0000E0054A0549054B0A601A68904708BD1E
:10018C00012008BD290200087B050008F4060020A8
:10019C0008B510F07C4304D0B3F1006F08D1054AC8
:1001AC0000E0054A054B1A60044A1368984708BDDD
:1001BC00012008BD3502000885050008FC0600205A
:1001CC0008B510F07C4304D0B3F1006F08D1054A98
:1001DC0000E0054A054B1A60044A1368984708BDAD
:1001EC00002008BD790200089D050008F8060020D3
:1001FC0010F07C4F0CBF0223002301F001015818B2
:10020C00044931F81030180A907000205370D070E7
:10021C00704700BF882E00080020704708B501F019
:10022C004DFD002008BD00008B0770B506460D463D
:10023C0001D00B4601E000240AE04FF6FC722A4084
:10024C00101D8342F7D2084CFF2119550133F4E7F6
:10025C00AC4204EB060005D2034BE15801F004FD5F
:10026C000434F5E7002070BDF0020020704710B593
:10027C000131002393420ED0040F092C01D83034E5
:10028C0000E0373401F8014C01330024000101F87F
:10029C00024BDBB2EEE710BD37B500F013FF00F0F8
:1002AC001FFD764B01251D7001F040F8282001F050
:1002BC0017FCB0F5A04F04D0714C2088B0F5A04FBE
:1002CC0003D1704C704B1C601CE0282001F008FC22
:1002DC00052802D02188052903D16C4A012111700F
:1002EC0010E0282001F0FCFB45F255529042674B80
:1002FC0002D02488944204D1002501201D7058702E
:10030C0000E09D70042001F0EBFBADF80600BDF899
:10031C0006504FF6FF74A8B2A04231D07D2001F0F8
:10032C00A5FDB0B3BDF80600584B81B200250229DB
:10033C005D701D709D70DD7008D003290FD00129F0
:10034C0013D1BDF806405970601C04E00125DD7026
:10035C00BDF80630581981B2ADF8061005E001223F
:10036C009A7001F049F8ADF80640BDF8064004203B
:10037C00A1B201F0A7FB01F0EBF801F08BFD08E056
:10038C000121ADF80610BDF80620042091B201F051
:10039C0099FB41F2883000F0BFFC002000F0CCFE4D
:1003AC0020BB3B4D42F210722A60002000F0C4FECC
:1003BC00E0B93748354C03683BB923706370A370C0
:1003CC000123E370334C238010E0A578002DECD191
:1003DC00016841F658329142E7D82F4800F068FD89
:1003EC00012025706570E570A070DEE7274D297837
:1003FC00012906D14FF0FF1000F05AFD01F0C4F8AE
:10040C001FE0EA78012A06D16FF07F4000F050FD22
:10041C0001F0DDF815E0A87898B96B78012B05D1BF
:10042C004FF47F0000F044FD01F0CAF8164C1B4954
:10043C0025681B4A6868086010602B6883F308887D
:10044C008047154800F034FD104D164A16490A2015
:10045C000124087010701071AC7001F0A9FB00F051
:10046C000FFF002000F054FFFFF772FE204600F053
:10047C004FFF00F01BFF02F037FBFEE7C802002025
:10048C0070020020005000080C070020940200208D
:10049C00180700206E02002000FFFF000407002058
:1004AC000807002010070020000700201B4B10B588
:1004BC001A6812B11868411E1960194C236813B1DF
:1004CC002268501E2060174C216811B123685A1EF7
:1004DC0013E0154BDA781AB9587808B9197831B194
:1004EC00E72000F031FD0F493220086006E09B78D0
:1004FC0023B1E72000F028FD642222600B4802683B
:10050C00B2F57A7F05D300220260BDE8104001F0FD
:10051C0079BC01684B1C036010BD00BF2407002090
:10052C001807002020070020940200202807002034
:10053C00094B10B593E814000833186810180AD04A
:10054C0008220649FFF793FE054920460422BDE820
:10055C001040FFF78CBE10BDE8F7FF1FC60000204F
:10056C00D600002008B501F045F9002008BD08B5FB
:10057C0001F08DF8002008BD08B503468AB2034887
:10058C00194601F09EF8002008BD00BFF0020020C3
:10059C0010B5044C03468AB22046194601F0EFF818
:1005AC00204610BDF00200207047FEE7FEE7FEE794
:1005BC00FEE770477047704708B501F00FF8BDE8CB
:1005CC000840FFF773BF000008B5042001F0DAFA09
:1005DC0078B1042001F0E6FA0020064B01461880A1
:1005EC0000F0FEFC044810210122BDE8084001F097
:1005FC0004BE08BDC4020020002C014008B50F4801
:10060C00102101F033FEC0B10C48102101F039FE6D
:10061C00002000F091FD28B9094B1A880A3290B2DB
:10062C00188008BD10210548002201F0E6FD0020CD
:10063C000121BDE8084000F0D3BC08BD002C0140EE
:10064C00C402002000F000B838B5394B394C1A6898
:10065C00394B90B2208025881988294001F400423A
:10066C0090B225461C4608B102F05AFA2988238814
:10067C000B4003F4806290B230B12D4B2F4A4FF6F1
:10068C00FF311960506880472A4A2B4B11881B8810
:10069C00194001F4005081B219B125494DF6FF7093
:1006AC0008601288134003F4805398B230B1204A8A
:1006BC004EF6FF711160002001F082F91D4B1E49AE
:1006CC0018880A88024002F4006398B260B11C4991
:1006DC000A7812B101F054F902E0022001F070F92D
:1006EC00134B4FF2FF701860124913480A880388A5
:1006FC001A4002F400718AB242B10D494FF6FF5014
:10070C00104A08601078411CC8B21070094A118850
:10071C000B4003F4807398B240B105494FF6FF6269
:10072C0007200A60BDE8384001F04AB938BD00BF67
:10073C00445C00401607002068070020D001002010
:10074C009002002098020020034B987A10B10349C4
:10075C0005220A60704700BF44070020E802002011
:10076C00014B04221A607047E80200207047000019
:10077C0010B5174B1A68117801F07F03212B24D187
:10078C00022806D113490B78022B14D0092B12D056
:10079C0010BD012809D10F480378022B01D0052B7D
:1007AC0013D1032404700C4908E0052805D0032854
:1007BC000BD10A4902E00A4900E00A49002420460C
:1007CC00916154828847204610BD022010BD00BFA5
:1007DC006407002000070020050800086D080008C9
:1007EC001109000855080008032901D90220704797
:1007FC000228FBD80020704710B50D4B0D49DA7854
:10080C009C7802EB04240C609A79DC795B8A02EB0D
:10081C000422094C4A6003212170084C217120B933
:10082C000749D21A09680A8210BD0648181810BD6B
:10083C00440700209C020020000700201007002025
:10084C0064070020F002002020B9034B0122196834
:10085C000A82704701487047640700200007002097
:10086C0010B5224904460B78032B02D0062B33D14A
:10087C0018E01F481F4A43688BB104230B700168B2
:10088C0013711D4B29B91D480078412801D11868F6
:10089C0002E01868174A0121FFF7AAFC1CE00520AA
:1008AC00087015E012488368012B06D1114A072005
:1008BC0053700870107100230CE06BB90E4A50682D
:1008CC00027D02F00400C2B232B10220094A087063
:1008DC00107153709370D3702CB9094906220B68B0
:1008EC0020461A8210BD034810BD00BF000700202F
:1008FC009C020020100700208C010020F002002038
:10090C00640700202DE9F041294BDFF8C080DA782C
:10091C009D78D97904469879264ED8F800C002EB18
:10092C00052500EB012135607160BCF81270224A7C
:10093C00224BB5B9032901D9022000E0092010701F
:10094C00127800211E481A7159709970D970412281
:10095C0021230170437082703CBB0320ACF8100063
:10096C0016E0012D1AD009201070187100221548BC
:10097C005A709A70DA70144B0268EB1802EB8320F1
:10098C00FFF71EFC716834B9D8F80030CF1B1F82FA
:10099C002046BDE8F081C019BDE8F08100200F2190
:1009AC001170197158709870D870BDE8F08100BF43
:1009BC00440700209C0200200007002010070020A4
:1009CC00F00200208C010020FEFF3F006407002095
:1009DC00054B1968CA78082A04D8044B03EBC201EA
:1009EC0001F01EBE00207047640700209801002013
:1009FC00014901F015BE00BF90010020014901F032
:100A0C000FBE00BFC801002070B52248224A016801
:100A1C00D579224B4D72224D0024224E9C722C60B3
:100A2C00336848F68F10184040F400713160336819
:100A3C0048F6BF721A4082F0200040F4004141F0A9
:100A4C00800333602E681848B2B211184B00102680
:100A5C001E60164E204696F8701002F0DBF92A68DC
:100A6C0090B200F1005101F5405358005022026041
:100A7C0096F87010204602F0BFF9204602F06DF98E
:100A8C00204602F059F9204601F0DCFF084B012109
:100A9C00196070BD640700201C0100204407002071
:100AAC00505C0040005C0040043000208C010020B1
:100ABC00E802002010B5FFF73BFD064B00249C72AA
:100ACC0000F046FF02F0CAF900F010FC0248046086
:100ADC0010BD00BF44070020E80200202E4B19680F
:100AEC000A7802F07F03212B54D1012812D12B4814
:100AFC0002780146052A01D0022A4BD10622284B46
:100B0C0001200A7027499860002048708870C870CE
:100B1C000A717047022808D12249204A002310701C
:100B2C004B708B70CB70087132E0042814D11B48C9
:100B3C001C4B02780A2A04D1022101700020187083
:100B4C0004E00A2101700E20187000205870987073
:100B5C00D87019715871704706281BD10F4802784C
:100B6C000346911E012905D9052A03D0062A01D076
:100B7C00092A0DD102220B491A70094B002008706A
:100B8C0048708870C8700A71487118605860704756
:100B9C0000207047022070476407002000070020E7
:100BAC009C020020100700200C480D4B41680022CD
:100BBC009A600B7D0B4813F004010B4B06D00621F9
:100BCC00017019715A709A70DA70704708220270AD
:100BDC001A7159709970D97000F0C2BC8C01002048
:100BEC009C020020000700201007002008B52A4BAB
:100BFC00587803284ED129490A78042A44D1284A26
:100C0C0013684BBB274B1978002930D021290FD101
:100C1C00506805282BD1DA789978100400EB012262
:100C2C0059781B795018204900EB03620A601EE0CA
:100C3C0041291CD15268052A19D1D8789978020417
:100C4C00587802EB01211B790A18174902EB036053
:100C5C000860FFF785FA0AE0012B08D91348191828
:100C6C00114B186800EB81205168FFF791FA0C4882
:100C7C00002303604360094A0D4803211170017180
:100C8C0043708370C37008BD072A03D1BDE80840C8
:100C9C00FFF78ABF08BD00BF4407002000070020F3
:100CAC009C020020F00200208C010020FEFF3F007F
:100CBC0010070020BFF34F8F054A064BD16801F493
:100CCC00E06040EA0301D160BFF34F8FFEE700BF45
:100CDC0000ED00E00400FA054FF4407000F0B4BEE3
:100CEC000A4B4FF47A701A68094BB2FBF0F10948C1
:100CFC004A1EF0215A6080F82310002207219A60C6
:100D0C001960D02380F82330704700BF7C0200208C
:100D1C0010E000E000ED00E010B5044645F255503F
:100D2C0001F05EF8062001F061F842F21070844286
:100D3C0028BF044628216143C1F30F2001F05CF861
:100D4C0001F060F8BDE8104001F064B8082814D830
:100D5C00012908D10B490C4A01EB8003596832F880
:100D6C00100008610BE051B9064B074A03EB8001F8
:100D7C004B6832F81000586101E0FF2300E00023BB
:100D8C0058B2704728020020902E000873B50E4E02
:100D9C008500731904460121186901F04FF80B4BBB
:100DAC0036F8140010215D19ADF804008DF8071009
:100DBC000322686801A98DF8062000F09DFF2046EB
:100DCC000021FFF7C3FF7CBD902E000828020020F5
:100DDC0070B5012188B04FF4006001F02FF8314B51
:100DEC0031481C686026B4FBF0F1304C01A88DB280
:100DFC0001F0D6F901A801F0D3F942F20F7201A962
:100E0C00ADF8045020460025ADF80820ADF80A5086
:100E1C00ADF8065001F07CF804A801F0CAF90223E1
:100E2C00ADF810602046012604A9ADF81830ADF8D5
:100E3C001260ADF81650ADF81C5001F0B3F8204616
:100E4C00294601F0EFF9204604A901F0EFF82046FD
:100E5C00294601F0EFF9204604A901F02BF92046B0
:100E6C00294601F0F1F9204604A9ADF81050ADF86F
:100E7C001260ADF81650ADF8185001F05DF920462F
:100E8C00294601F0E9F92046314601F0BFF9204628
:100E9C00314601F098F92046314601F0A0F908B02E
:100EAC0070BD00BF7C02002040420F00002C0140AE
:100EBC0030B51049104A8C8D92F82420A5B26C1CC8
:100ECC005443C0F307456C430C4B240CDC808D8DD4
:100EDC005861ACB201345443C0F307256C43240C65
:100EEC001C81898DC0B289B2013148434243120C36
:100EFC009A8030BD002C014028020020A80200205E
:100F0C0037B50F4D044605EB8003186B012105EB3B
:100F1C00440500F093FFB5F84000ADF804000CB99F
:100F2C00102100E01821074B8DF8071003EB840407
:100F3C000322A06A01A98DF8062000F0DDFE3EBD5B
:100F4C00902E00082802002010B1E72840D106E0BE
:100F5C0020498B6ADA6882F40050D86070471E4AC8
:100F6C001E4B1178C1B9188F80B208B1198702E0F5
:100F7C00D1888AB21A879B8F184899B209B100217F
:100F8C0002E0154A138999B281871449888E82B27E
:100F9C00C2B9114B988819E0188F81B209B10020A1
:100FAC0001E0D28990B218879B8F0C499AB20AB192
:100FBC00002202E00848038A9AB28A870749888E81
:100FCC0083B20BB1002002E0034A908980B288867C
:100FDC00704700BF28020020A8020020002C01400E
:100FEC0073B5104C0E4604EB400494F84C100546B7
:100FFC0094F8480000F0DAFEB4F85040204600F0B7
:10100C00BBFD09480023451995F838106846009433
:10101C008DF804308DF805108DF8066000F070FD29
:10102C007CBD00BF902E000828020020F7B5224E90
:10103C008700F3190546586D0C4640F0010001215C
:10104C0000F0FCFE1D4B06EB45065A1992F83A10BF
:10105C00B6F85C0002AADF198DF8031022F8080D0F
:10106C006946F86B00F048FE012C24D110210022B7
:10107C0013481B2701F0C1F805238DF8047001A853
:10108C0000278DF805308DF806708DF8074000F0BC
:10109C00E5FCB6F8601006208DF8050001A88DF867
:1010AC0004108DF806708DF8074000F0D7FC284628
:1010BC002146FFF795FFFEBD902E00082802002068
:1010CC00002C01401A4B1B49DA6810B542F08070B5
:1010DC000024D8604C600B684FF0C05043F0010204
:1010EC000A60012100F0B6FE012000F09BFEFFF724
:1010FC00F3FD0120014600F0A1FEE0B20134FFF740
:10110C0045FE082CF9D1FFF763FE0020FFF7F8FE2F
:10111C000120FFF7F5FE0220FFF7F2FE0320FFF798
:10112C00EFFE00200121BDE81040FFF77FBF00BF9C
:10113C00F0ED00E0001000E0054A064B02EB8001E8
:10114C0003EB4002C86BB2F85C1000F025BE00BF88
:10115C0028020020902E000802484FF4805100F025
:10116C0021BE00BF000C014010B50B4C238823F0AE
:10117C00400001040A0C2280FFF7EEFF074B188891
:10118C0081B2074841F040024FF400712280BDE863
:10119C00104000F009BE00BF0038004030070020AE
:1011AC00000C014002484FF4007100F0FBBD00BF81
:1011BC00000C014070B5082086B0012100F03EFE05
:1011CC002D4C01214FF4804000F044FE18204FF4C8
:1011DC00005303268DF8030069462046ADF8003015
:1011EC008DF8026000F088FD4FF40041ADF800105E
:1011FC002046694600F080FD04254FF480422046CD
:10120C006946ADF800208DF8035000F075FD4FF4E1
:10121C0000751023204669468DF80330A4F554441C
:10122C00ADF800508DF8026000F066FDFFF7BAFFD4
:10123C0000204FF48271ADF80400ADF80610ADF843
:10124C000800ADF80A00ADF80C00ADF81000ADF8D0
:10125C0012000722204601A9ADF80E50ADF814205B
:10126C0000F020FE2388054998B208802046012111
:10127C0000F037FE06B070BD000C014030070020B6
:10128C0007B50820012100F0D9FD032014214FF4EB
:10129C0080638DF806008DF80710034801A9ADF89E
:1012AC00043000F029FD0EBD000C0140002008B5F3
:1012BC0000F0BEFD4FF400000121BDE8084000F035
:1012CC00C9BD0000014B03221A607047E8020020E0
:1012DC00044B05489A7A0AB1052100E0012101600E
:1012EC00704700BF44070020E802002007B5022029
:1012FC0014238DF805000021012201A88DF804307B
:10130C008DF806108DF8072000F0A8FB0EBD00002C
:10131C0020B105484FF4806100F046BD02484FF4FF
:10132C00806100F03FBD00BF000C01400A4B93F8F8
:10133C00200080B109490A4B0A880A48A3F84420C6
:10134C000188094AA3F8461010880849A3F84800F8
:10135C000A88A3F84A207047A8020020004C000815
:10136C0028020020024C0008044C0008064C00081F
:10137C0010B51B4B93F8200000282FD000F018FC60
:10138C00342000F029FC174800F098FC042824D1E4
:10139C00154C1448B4F8441000F04AFC04281BD136
:1013AC001248B4F8461000F043FC042813D110483E
:1013BC00B4F8481000F03CFC04280BD10D48B4F8EC
:1013CC004A1000F035FC042803D1BDE8104000F0B1
:1013DC00FBBBFEE7FEE7FEE7FEE7FEE710BD00BF46
:1013EC00A8020020004C000828020020024C000833
:1013FC00044C0008064C000838B5144B0422144C5D
:10140C0083F8502000F0D4FB6C20A062342000F054
:10141C00E3FB0023E3620E4CE16AA26A914210D214
:10142C000A4D95F85030042B0BD101F5003000F12A
:10143C001401880200F042FCE26A85F85000531C4B
:10144C00E8E7BDE8384000F0BFBB00BF2802002031
:10145C00A802002038B5054600F0CCF9184B202224
:10146C0000209A62D862164CE16AA36A994207D2AC
:10147C0005EB013000F00BF9E16A4B1CE362F2E77B
:10148C00104A656322630E4C0F49206B884215D8B5
:10149C0050F8043B20630D48C3F30722C3F3074104
:1014AC00037042708170A36304221B0E616BC370C6
:1014BC0000F007F9606B021D6263E4E738BD00BF02
:1014CC00A802002000500008FFFF01082C07002094
:1014DC0070B5044600F08EF9FFF78EFF174B184AD3
:1014EC005C631A6300F064FB144C1649206B884251
:1014FC0020D8154E96F85020042A1BD1134D616B41
:10150C00284600F03CF9636BA97868781A1D0B0427
:10151C00626343EA00222878E978024342EA0161D7
:10152C00206BA16300F0A0FB236B86F850001A1D02
:10153C002263D9E7BDE8704000F046BBA80200204A
:10154C0000500008FFFF0108280200202C07002093
:10155C00024B0022A3F84A20FFF70ABF2802002002
:10156C0008B5084B4FF4A044A3F84840FFF700FF20
:10157C002820214600F0A6FA0020FFF7C9FEFFF74D
:10158C0099FB00BF280200200C4C08B54FF48020BA
:10159C0045F25555FFF75EFFA4F84850FFF7E8FEFB
:1015AC002820294600F08EFA4FF4C020FFF790FF58
:1015BC000123A4F84A30FFF7D3FF00BF2802002014
:1015CC0008B54FF48020FFF783FFFFF7C9FF08B57C
:1015DC004FF40030FFF77CFFFFF7C2FF024BDA6BD2
:1015EC00501CD863704700BFA802002010B50446F9
:1015FC000A48022100F086FC0028F9D00748214651
:10160C0000F07BFC0548012100F07CFC0028F9D09F
:10161C00024800F074FCC0B210BD00BF003800409E
:10162C0008B5FFF7A1FD0620FFF7E0FFBDE8084075
:10163C00FFF7B8BD08B5FFF797FD0520FFF7D6FFFC
:10164C00FF20FFF7D3FFC307FAD4BDE80840FFF72C
:10165C00A9BD38B50D460446FFF7E2FFFFF784FD40
:10166C000220FFF7C3FFC4F30740FFF7BFFFC4F32B
:10167C000720FFF7BBFFE0B2FFF7B8FF2846FFF7E4
:10168C00B5FFFFF78FFDBDE83840FFF7D3BF10B5AE
:10169C000446FFF7C5FFFFF767FD2020FFF7A6FF05
:1016AC00C4F30740FFF7A2FFC4F30720FFF79EFF28
:1016BC00E0B2FFF79BFFFFF775FDBDE81040FFF7A9
:1016CC00B9BF2DE9F8431546CA0706460C4606D5A0
:1016DC00084616F8011BFFF7BCFF0134013D35F03D
:1016EC00010841D0FFF79CFFFFF73EFDAD20FFF74F
:1016FC007DFFC4F30740FFF779FFC4F30720FFF722
:10170C0075FFE0B2FFF772FF3078FFF76FFF70786C
:10171C00FFF76CFFFFF746FDFFF78CFF06F10209A0
:10172C004F460237C7EB090303EB080088B1FFF7FC
:10173C001BFDAD20FFF75AFF17F8020CFFF756FF01
:10174C0017F8010CFFF752FFFFF72CFDFFF772FFA4
:10175C00E7E7FFF727FDFFF707FD0420FFF746FF3C
:10176C00FFF720FDC8EB05053DB116F8081008EB96
:10177C000400BDE8F843FFF76CBFBDE8F88370B513
:10178C000D4616460446FFF7EFFC0320FFF72EFF2D
:10179C00C5F30740FFF72AFFC5F30720FFF726FF25
:1017AC00E8B2FFF723FFA519AC4205D0FF20FFF7E5
:1017BC001DFF04F8010BF7E7BDE87040FFF7F2BC22
:1017CC0070B5FFF7D1FC9F20FFF710FFFF20FFF74C
:1017DC000DFF0446FF20FFF709FF0546FF20FFF72A
:1017EC0005FF2D020646FFF7DDFC45EA04403043B9
:1017FC0070BD000008B5FFF7DDFCFFF7B5FC042059
:10180C00FFF7F4FEFFF7CEFCFFF7DAFF104B984220
:10181C0002D04C3B984219D1FFF7A6FC8020FFF771
:10182C00E5FEFFF7BFFCFFF79FFC5020FFF7DEFE45
:10183C00FFF7B8FCFFF798FC0120FFF7D7FE00205C
:10184C00FFF7D4FEBDE80840FFF7ACBC08BD00BFF5
:10185C008D25BF003A4B82B01A6842F00100186027
:10186C005968384A0A405A60186820F0847121F48B
:10187C0080321A60186820F4802119605A684FF47D
:10188C001F0122F4FE000022586099600092019220
:10189C00186840F480311960294B1A6802F4003042
:1018AC00019000994A1C0092019818B90099B1F561
:1018BC00A06FF1D11B6813F4003218BF0122019202
:1018CC000198012805D0204B4FF000629A6002B0BD
:1018DC0070471E490B6843F010020A60086820F03C
:1018EC0003030B600A68A1F5805342F00200086004
:1018FC00596859605A685A60586840F48061596058
:10190C005A6822F47C105860596841F4E8125A6005
:10191C00186840F0807119601868094A8101FBD57C
:10192C00536823F003015160506840F00203536088
:10193C00034A516801F00C000828F9D1C3E700BF35
:10194C00001002400000FFF800ED00E00020024013
:10195C0008B50120FFF7DCFC064B074901220020EB
:10196C001A601860086005494FF4E0520A801A604A
:10197C0008BD00BF405C0040445C0040680700208C
:10198C00064B1A6890B240F0080119601A6890B2C0
:10199C0040F004011960FFF795BC00BF405C0040AB
:1019AC0010B5064C4FF6FB73226813402360FFF70B
:1019BC008FFC4FF43F40206010BD00BF405C0040E6
:1019CC001F4B072810B518BF18701A781C4C052A25
:1019DC0033D8DFE802F003070C101823FFF7E0FF01
:1019EC00062202E0FFF7DCFF0422227010BD022168
:1019FC005970032022E059784A1ED0B258705B7897
:101A0C00EBB9042017E00F4B186881B241F01002BB
:101A1C001A600A2005232370607010BD5878411E8F
:101A2C00CAB25A705B7853B906484FF6EF72016828
:101A3C000A4002600620024B00E00620187010BD20
:101A4C0034070020405C004040F0BF60024B40F483
:101A5C000031D960704700BF00ED00E0C37810B5CD
:101A6C0003B3164CE168CB43C3F302244178C4F1B1
:101A7C00040201FA02F10F2222FA04F284780378AC
:101A8C0022400A43110103F16043CAB203F56141DC
:101A9C0081F800230078012200F01F03410902FAAB
:101AAC0003F007E00078012200F01F03410902FA5D
:101ABC0003F02031024B43F8210010BD00ED00E093
:101ACC0000E100E0054A82B0002301930192019BE2
:101ADC00C0180190019A116002B07047006C004070
:101AEC00064982B0002301930191019A801801905C
:101AFC00019B198888B202B0704700BF006C00408F
:101B0C00837910B5002B29D01A4B01681C68CA4385
:101B1C0014401C605C6822405A60027902F18044D7
:101B2C0004F5823214682143116002689C68D14329
:101B3C000C409C60DC68407921401028D96006D1AB
:101B4C00986810439860D9680A43DA6010BD00F1B8
:101B5C00804303F5823319680A4308E00179006871
:101B6C0001F1804202F582331A6822EA00021A60FF
:101B7C0010BD00BF00040140014B5861704700BF0D
:101B8C0000040140064B1A68596910EA010304D09D
:101B9C0010420CBF0020012070471846704700BF50
:101BAC0000040140014B5861704700BF0004014024
:101BBC00034A044B02F188305A605860704700BFEA
:101BCC002301674500200240024B1A6942F0800055
:101BDC001861704700200240014BD860704700BF6D
:101BEC0000200240084BDA68D20709D4D8684007B5
:101BFC0008D4D96811F0100F0CBF042003207047D3
:101C0C0001207047022070470020024010B50446A6
:101C1C00FFF7E8FF012806D11CB1FFF7E3FF013CF9
:101C2C00F8E7052010BD002C08BF052010BD0000F2
:101C3C0070B505464FF400500E46FFF7E7FF042839
:101C4C000ED1084C236943F0010020612E804FF423
:101C5C000050FFF7DBFF226941F6FE711140216154
:101C6C0070BD00BF0020024073B5002306464FF440
:101C7C0000500D460193FFF7C9FF04281AD10E4CF2
:101C8C00AAB2206940F0010121614FF4005032806A
:101C9C00FFF7BCFF042808D102360196019B2D0CDE
:101CAC001D804FF40050FFF7B1FF216941F6FE7221
:101CBC000A4022617CBD00BF0020024038B50546B9
:101CCC004FF43020FFF7A2FF042812D1094C2369EE
:101CDC0043F002002061656121694FF4302041F02E
:101CEC0040022261FFF792FF216941F6FD730B4020
:101CFC00236138BD00200240CB78F0B5DA0648BF2E
:101D0C008A78098803F00F0548BF154311F0FF0FBF
:101D1C001ED004680022012707FA02F707EA010621
:101D2C00BE4211D197004FF00F0C0CFA07FC05FACC
:101D3C0007F724EA0C04282B44EA070401D1466176
:101D4C0002E0482B08BF06610132082AE3D1046087
:101D5C00FF2920D94468002202F10806012707FA5E
:101D6C0006F707EA0106BE4211D197004FF00F0C9F
:101D7C000CFA07FC05FA07F724EA0C04282B44EAB2
:101D8C00070401D1466102E0482B08BF066101320D
:101D9C00082AE1D14460F0BD836819420CBF0020D1
:101DAC0001207047016170474161704701F00302E7
:101DBC0030B592000F2404FA02F400FA02F0074B3B
:101DCC008908023153F8215025EA040443F82140D4
:101DDC0053F82140044343F8214030BD000001403A
:101DEC00014B1860704700BF00300040014B586039
:101DFC00704700BF00300040014B9860704700BF37
:101E0C0000300040024B4AF6AA221A60704700BF0D
:101E1C0000300040024B4CF6CC421A60704700BFB9
:101E2C0000300040014B1860704700BF20000E428C
:101E3C00014B1860704700BFD8004242044B9A69AE
:101E4C0009B1104301E022EA00009861704700BF1D
:101E5C0000100240044BDA6909B1104301E022EA98
:101E6C000000D861704700BF001002404309012BED
:101E7C00074A01D1136803E0022B0CBF136A536AA3
:101E8C0000F01F0023FA00F101F00100704700BFC1
:101E9C0000100240024B5A6A42F080705862704740
:101EAC00001002400B8810B54C88028823438C88A4
:101EBC0002F441522343CC8823430C8923434C899D
:101ECC0023438C892343CC89098A23431A4393B235
:101EDC000380828B22F400631A04130C8383018227
:101EEC0010BD038819B199B241F0400303E023F00F
:101EFC0040010A04130C038070478181704780896C
:101F0C0080B27047038919420CBF00200120704732
:101F1C00224A038890429BB212D002F50062904292
:101F2C000ED0B0F1804F0BD0A2F59832904207D072
:101F3C0002F58062904203D002F58062904203D198
:101F4C004A8823F070031343154A904208D002F5D7
:101F5C008062904204D023F44073CA889BB213432E
:101F6C0003808B880A8883850C4B028598420FD09E
:101F7C0003F5006290420BD002F54063984207D003
:101F8C0003F58062904203D002F58063984201D140
:101F9C00097A018601228282704700BF002C014021
:101FAC0000100040038C70B523F001021404250CC2
:101FBC000584068C8388028B9CB222F073052B045B
:101FCC000D881A0C26F0020633042A434E880D891C
:101FDC001B0C3543ADB22B43134DA8420FD005F566
:101FEC000065A8420BD005F54065A84207D005F561
:101FFC008065A84203D005F58065A8420ED123F078
:10200C0008064B898D881E4326F004032B43CE898A
:10201C008D8924F440743543ADB22C43C988848037
:10202C0002838186038470BD002C0140038C30B583
:10203C0023F010021404250C0584038C8288048B75
:10204C0023F0200324F4E6452C040D88240C44EAE8
:10205C0005241D042B0C0D8992B243EA05134D88FF
:10206C00A4B243EA0513124D9BB2A84203D005F566
:10207C000065A84215D14D8923F080039BB243EA39
:10208C0005134FF6BF751D408B8822F4406245EA5C
:10209C000315ABB28D8942EA8502CD8942EA8502ED
:1020AC0092B2C988828004830187038430BD00BF4B
:1020BC00002C0140038C30B523F480721404250CE1
:1020CC000584038C8288848B23F4007324F07305BD
:1020DC002C040D88240C2C431D042B0C0D8992B25E
:1020EC0043EA05234D8843EA0523124D9BB2A842CF
:1020FC0003D005F50065A84215D14D8923F4006382
:10210C009BB243EA05234FF6FF351D408B8822F422
:10211C00405245EA0325ABB28D8942EA0512CD89BE
:10212C0042EA051292B2C988828084838187038433
:10213C0030BD00BF002C0140038C30B523F480521D
:10214C001404250C0584038C8288858B94B225F4A9
:10215C00E64215042A0C0D8823F4005342EA0522AA
:10216C001D042B0C0D8992B243EA05334D8843EACA
:10217C0005330A4D9BB2A84203D005F50065A84271
:10218C0005D18D8924F4804444EA8514A4B2C9880D
:10219C0084808283A0F84010038430BD002C014061
:1021AC0000214FF6FF7383800180C1804180017252
:1021BC0070470023038043808380C3800381438165
:1021CC008381C3817047038819B199B241F001032F
:1021DC0003E023F001010A04130C03807047B0F8EC
:1021EC00443029B16FEA43436FEA53418AB201E0AC
:1021FC0059044A0CA0F84420704783899BB20AB159
:10220C00194301E023EA010181817047038819B168
:10221C0099B241F0800303E023F080010A04130C0F
:10222C0003807047038B23F0080213041A0C11432C
:10223C0001837047038B23F4006213041A0C42EAE7
:10224C0001218BB203837047838B23F008021304A4
:10225C001A0C114381837047838B23F4006213049F
:10226C001A0C42EA01218BB283837047038A82895C
:10227C0011EA030092B203D011420CBF00200120DE
:10228C007047C9438AB202827047000010B5064CF1
:10229C0018B9236801221A8210BD044B1868016812
:1022AC00884720680A3010BD6407002060070020B2
:1022BC0010B5064C18B9236801221A8210BD044BC4
:1022CC0018688168884720680C3010BD64070020AE
:1022DC006007002008B5234A18B9136802221A8235
:1022EC0008BD214B002012681880117811F07F0175
:1022FC0013D1507A00F02002D1B209B102221A7027
:10230C0000F04003D8B2184B18B11A7842F0010112
:10231C001EE0197821F001011AE001291FD00229D1
:10232C001ED1507900F00F024FEA820110F0800F9D
:10233C0001F1804000F5B842116803D001F0300281
:10234C00102A03E001F44050B0F5805F01D1012167
:10235C001970064B186801698847034808BD184670
:10236C0008BD00BF6407002036070020600700206E
:10237C00F8B5224B1C68238A267AABB9042E13D1EC
:10238C001F48017801291F490AD11F4C226894B2B9
:10239C001E4AA2185200136030220A80037028E0F3
:1023AC0010260E80072624E0A58AA169AB428CBFBB
:1023BC00022604269D4228BF1D462846884707460C
:1023CC00002000F0FDFC2A460146384600F06EFC69
:1023DC002946002000F010FD208A638A421BED186C
:1023EC0008480B4B228230214FF440520180658209
:1023FC001A80024B18680672F8BD00BF64070020F3
:10240C00EC0200206C070020505C004002300020E1
:10241C006A07002010B50A4B0A4918684B78C27835
:10242C0093420AD3817841B9848834B982720648C0
:10243C00026853689847204610BD022010BD00BFAB
:10244C0064070020240200206007002038B50E4AE3
:10245C000E4C106823688269D978587990472168A6
:10246C008B7A7BB170B9087960B98D7855B9084A07
:10247C001168CB68984720684279C178C2720173A1
:10248C00284638BD022038BD3C07002064070020D8
:10249C006007002010B5324B1B68187810F07F00D5
:1024AC0004D15A7A22F02001597210BD022855D15C
:1024BC005A88002A53D11979002950D15A7922F01F
:1024CC0080004FEA800404F1804101F5B844216892
:1024DC00244C12F0800F247814BF01F0300101F469
:1024EC004051A0423AD2002938D09B7A002B35D0EB
:1024FC00840002F0800204F18043D1B203F5B844A9
:10250C00226861B102F03002102A21D1C4B22046F7
:10251C0000F044FC2046302100F0F1FB18E002F4FE
:10252C004051B1F5805F13D128B90F4B93F82C10A3
:10253C0000F070FC01E000F01FFC20684BF68F727D
:10254C00024082F4405141F4004343F0800020608B
:10255C0006490B6858698047002010BD022010BD49
:10256C006407002024020020D00100206007002016
:10257C0010B51F4B19684A7922F080034FEA83008B
:10258C0000F1804404F5B8401A4C0068247812F02D
:10259C00800F14BF00F0300000F44050A34224D24E
:1025AC004C8814BB08B3897AF9B19B0003F18041C4
:1025BC0002F0800201F5B843D0B2196828B148F690
:1025CC00BF720A4082F0100004E04BF68F720A4092
:1025DC0082F4805040F4004141F080001860064BBA
:1025EC001A6891698847002010BD022010BD00BFF9
:1025FC0064070020240200206007002008B5064B69
:10260C001868064B427A42F0200141721868C26980
:10261C009047002008BD00BF640700206007002021
:10262C00054B1A68538A18B98988CB1A13827047DC
:10263C000868C018704700BF6407002008B50B4B32
:10264C00002093F82C1000F0E5FB09480168087A8B
:10265C00082806D1074B4FF480521A80064A1021E5
:10266C001180B0F109035842584108BDD001002037
:10267C00640700206A0700206C07002070B52E4B01
:10268C001C68207A02284FD004284DD0032801D092
:10269C00052843D1A169208AA9B1A0B1A58A854298
:1026AC0028BF054628468847228A0646608A531B5F
:1026BC00291861822382002000F090FB2A460146F3
:1026CC00304600F00AFB228A52B11C4B4FF44050AA
:1026DC0018800020014600F08FFB194A3021118030
:1026EC00208AA38A1449834202D80B68032202E091
:1026FC0018B10B6805221A720CE00A6806231149FE
:10270C0013720A68104993B25A1853000C49186096
:10271C0030200880084801680B7A06E0072803D1AE
:10272C000A490A68D36898470823034A1068037259
:10273C00BDE87040FFF782BF640700206A070020E5
:10274C006C070020505C0040023000203C07002049
:10275C00944B73B51A68944990B24418934E650023
:10276C002A6835682B7A092B15D090B2410001F1FB
:10277C00804404F5C04422782A7063786B70A0887A
:10278C0000F066FB68802089356800F061FBA8804A
:10279C00A0893168C880854D01242B68DA881C72A9
:1027AC005C78002A64D1187810F07F0238D1092C9B
:1027BC0002D1FFF72FFE45E0052C0FD193F9032032
:1027CC00002A01DA08214FE099780029FAD198887B
:1027DC000028F7D19B7A002B38D0F3E7032C10D1CB
:1027EC00D878012807D0724A204611684B6998475F
:1027FC00032829D137E09B88002BF4D1FFF7FEFE8C
:10280C0020E0012CEFD1D9780129ECD1988800284F
:10281C00E9D15B7A03F02002D1B20029E3D00AE0BF
:10282C00012A04D10B2CDED1FFF710FE0AE0022A9C
:10283C00D9D1012C02D1FFF72DFE03E0032CD2D10C
:10284C00FFF796FE10B1CEE70028BBD15548594B87
:10285C00026891B2C818584B4100002230200A601F
:10286C001880062100E00921504A10680172D3E05B
:10287C00062C13D11C7861067AD19A784C4B012A1C
:10288C0002D11C68E36969E0022A02D11868036A64
:10289C0064E0032A6CD119684B6A5FE0002C3ED1CE
:1028AC005988002964D1586820F47F42B2F5003F62
:1028BC005ED11C7814F07F0004D19888002800F0B9
:1028CC00AE8055E001280CD1394A58791468A269B8
:1028DC00904700284CD12B68997A002940F09F80B2
:1028EC0046E0022844D15B7903F00F014FEA8102E4
:1028FC0002F1804404F5B840304C0268207813F0A3
:10290C00800F14BF02F0300202F4405281422FD2E9
:10291C0013F0700F2CD1002A40F0818028E0082C95
:10292C0003D119784A067CD022E00A2C20D11878E1
:10293C0000F07F0101291BD19C7ACCB15988B9B91F
:10294C005A6822F47F40B0F5803F11D1184C587969
:10295C0022689469A047002865D009E043B1134868
:10296C000024016820464C828B61984720460AE07F
:10297C000F4A0E4C116823680A695878904703284F
:10298C0001D1236806E0094B4FF6FF711B681A8AC8
:10299C008A4201D1092103E0022800D082B9082122
:1029AC00197239E0505C00400430002064070020AC
:1029BC003C070020023000206C070020240200207D
:1029CC0093F90000002821DAD988019101988242FC
:1029DC0002D9019A1A8211E08A420FD2134908686F
:1029EC0090F82C108A4201D2002105E092FBF1F004
:1029FC0001FB102212B901210D4801700B49086826
:102A0C0090F82C209A82FFF7B3FC05E003221A728F
:102A1C00084B4FF440511980FFF710FE7CBD064B5C
:102A2C009DE7064B9BE7064B99E700BF3C07002050
:102A3C00EC0200206A070020E1220008992200081D
:102A4C00BD22000870B50D4B1C780023A34210D298
:102A5C0003F1805202F5B855A90043F400420E6808
:102A6C0042F0800540F60F7232402A430A6001336F
:102A7C00ECE7034940F08000086070BD24020020A0
:102A8C004C5C004010B514490B680C461A7A022AAB
:102A9C0001D0042A04D1FFF76BFC2168087A13E0FB
:102AAC00062A10D15878052809D11978480606D17C
:102ABC00D878FFF7C7FF094B1A68106A8047084996
:102ACC000B689A6890470820034B1A681072BDE88F
:102ADC001040FFF7B3BD00BF640700206007002063
:102AEC003C0700207047000008B5074A074B02203E
:102AFC00136018720649074B0748084A0B601060B0
:102B0C001B68984708BD00BF6407002044070020DD
:102B1C003C070020D00100200002002060070020AC
:102B2C0037B50023ADF806305848594B026891B2BE
:102B3C001204198040F1A8801888564900F00F0241
:102B4C000A70002A6ED1544C2568AAB2534D2A80C3
:102B5C002988534A01F03000108029884BF6BF7247
:102B6C0001F44050288021680A4082F4005080F023
:102B7C00200141F4004242F0800020601B8803F0E9
:102B8C0010018AB23AB9226848F60F7010402060E2
:102B9C00FFF778FF1DE0206883B2ADF80630BDF872
:102BAC00061001F4006290B238B1216840F68F73C0
:102BBC000B402360FFF7CCFD0BE0BDF8063019B2DB
:102BCC000029B1DA226840F68F7010402060FFF7C0
:102BDC0055FD21682A884BF6BF7302F480500B40D8
:102BEC0081B209B183F480532C4A108800F400514F
:102BFC008AB20AB183F400532948018801F010020B
:102C0C0091B209B183F01003008800F0200291B258
:102C1C0009B183F0200343F400401F4A40F08001C7
:102C2C00116031E0930003F1804000F5B84319685E
:102C3C0088B2ADF80600BDF8061008B2002809DA13
:102C4C00186840F68F7101401960164B013A53F821
:102C5C0022008047BDF8061001F0800293B2002BD1
:102C6C003FF462AF0B480278910001F1804303F509
:102C7C00B841086848F60F7303400B600A49013AE3
:102C8C0051F8220080474FE73EBD00BF445C004036
:102C9C001607002040070020005C00406A07002057
:102CAC006C070020540100207001002030B501F1A8
:102CBC00005101F5405301325900521000230230EB
:102CCC00934209D010F8015C10F8024C44EA052438
:102CDC0021F823400133F2E730BD01F1005110B56A
:102CEC00013201F54054521064000023934205D088
:102CFC0054F8231020F813100133F7E710BD8000AF
:102D0C0000F1804202F5B842106848F6BF730340E8
:102D1C0001F0100080B208B99BB201E083F01003FF
:102D2C0001F0200188B208B183F0200343F4004184
:102D3C0041F0800010607047800000F1804202F585
:102D4C00B84001684BF68F730B4083F4405242F449
:102D5C00004141F0800303607047800000F1804225
:102D6C0002F5B840016840F60F630B4043F4004293
:102D7C0042F0800101607047800000F1804303F550
:102D8C00B8400268510408D5016840F60F730B4037
:102D9C0043F4404242F0800101607047800000F132
:102DAC00804303F5B8431A68500608D5196840F6F5
:102DBC000F70084040F4004242F0C00119607047A7
:102DCC00054B19688AB202EBC00000F1005303F501
:102DDC0040514A0010887047505C0040044B196801
:102DEC00044B8AB202EBC000C1184A00108870472D
:102DFC00505C004004300020044B1A6893B2044A23
:102E0C0003EBC0008318580001607047505C004011
:102E1C00023000200C4B1A6893B20C4A03EBC00032
:102E2C0083185A003E2908D94B09C90601D1581EEE
:102E3C0083B2990241F4004104E04B08C80748BF33
:102E4C000133990211607047505C0040063000203D
:102E5C00C3B2000A40EA032070470000044B002074
:102E6C001860044A044B4FF43F41118019607047BD
:102E7C00445C004068070020405C00403200320097
:102E8C0014001E008000400020001000080000808C
:102E9C0000400020080000000800000008000000AE
:102EAC0008000000080000000400000004000000FE
:102EBC0004000000040000000400000004000000F6
:102ECC0004000000002000010002000401000000CA
:102EDC0002000000040000000800000000000000D8
:082EEC000400000008000000D2
:102EF40062034000530050004900200046006C006B
:102F040061007300680020003A0020005300530061
:102F140054003200350078002F0030007800300073
:102F240030003000300030003000300030002F001E
:102F34003500310032002A00300034004B006700B5
:102F4400000000000000000000000000000000007D
:102F540000006203400049006E00740065007200C6
:102F64006E0061006C00200046006C00610073007C
:102F74006800200020002F00300078003000380066
:102F84003000300030003000300030002F003200BC
:102F940030002A003000300031004B0061002C006A
:102FA4003100300038002A003000300031004B007E
:102FB400670000001A0343004F0052004500200040
:102FC4003100330000000000000000000000140382
:102FD40043004F00520045002000440046005500C5
:102FE4002000260353007000610072006B00200073
:102FF40044006500760069006300650073002000EA
:1030040020002000200020000403090409022400F9
:10301400010100C0320904000000FE010204090499
:10302400000100FE01020509210BFF0000041A0142
:103034001201000100000040501D7F6000020102E7
:1030440003010000F12A0008F12A0008F12A00080F
:10305400F12A0008F12A0008F12A0008F12A0008E0
:10306400F12A0008F12A0008F12A0008F12A0008D0
:10307400F12A0008F12A0008F12A0008005000088B
:103084001C0100202400000018010020040000009E
:10309400F200002026000000DE00002014000000E2
:1030A400C40000201A00000062000020620000003A
:1030B4000000002062000000400100201200000017
:1030C400C10A0008150A000879070008F90B00086E
:1030D4007D070008E90A0008F5070008090A000846
:1030E400FD090008DD0900080000000040000000A0
:1030F400F12A000855070008F12A0008F12A0008FF
:10310400F12A0008F12A0008F12A0008F12A00082F
:103114006D0700080101000063FF0000000C01407E
:10312400000C0140000C0140000C0140000C014067
:103134000008014000080140000801406000000050
:103144000008014000080140000801400008014057
:103154000C004800000C014000000000FFFFFFFFCE
:10316400FFFFFFFFFFFFFFFF0400000000A24A046F
:103174000000000000000000010203040607080923
:043184000100000046
:040000050800010CE2
:00000001FF
