:020000040800F2
:10000000005000200D010008290500082B050008FC
:100010002D0500082F05000831050008000000002C
:100020000000000000000000000000003305000890
:1000300035050008000000003705000839050008F4
:100040005901000859010008590100085901000828
:100050005901000859010008590100085901000818
:100060003D05000859010008590100085901000820
:1000700059010008590100085901000859010008F8
:1000800059010008590100085901000859010008E8
:10009000BD05000859010008590100085901000870
:1000A00059010008590100085901000875050008A8
:1000B00059010008590100085901000859010008B8
:1000C00059010008590100085901000859010008A8
:1000D0005901000859010008590100085901000898
:1000E00071050008590100085901000800000000CE
:1000F0000000000000000000000000000000000000
:0C01000000000000000000005FF808F1A3
:10010C00002100F004B80C4B5B58435004310B48F1
:10011C000B4B42189A42FFF4F6AF0A4A00F003B8B0
:10012C00002342F8043B084B9A42FFF4F9AF02F06B
:10013C00DDFB00F0B1F87047342D00080000002002
:10014C00840200208402002054070020FFF7FEBF29
:10015C0008B500F061F800F0BFF9002008BD000000
:10016C0008B510F07C4304D0B3F1006F08D1054AF8
:10017C0000E0054A0549054B0A601A68904708BD1E
:10018C00012008BD29020008EF040008CC0600205D
:10019C0008B510F07C4304D0B3F1006F08D1054AC8
:1001AC0000E0054A054B1A60044A1368984708BDDD
:1001BC00012008BD35020008F9040008D40600200F
:1001CC0008B510F07C4304D0B3F1006F08D1054A98
:1001DC0000E0054A054B1A60044A1368984708BDAD
:1001EC00002008BD7902000811050008D006002087
:1001FC0010F07C4F0CBF0223002301F001015818B2
:10020C00044931F81030180A907000205370D070E7
:10021C00704700BFC82C00080020704708B501F0DB
:10022C00F3FB002008BD00008B0770B506460D4699
:10023C0001D00B4601E000240AE04FF6FC722A4084
:10024C00101D8342F7D2084CFF2119550133F4E7F6
:10025C00AC4204EB060005D2034BE15801F0AAFBBB
:10026C000434F5E7002070BDC8020020704710B5BB
:10027C000131002393420ED0040F092C01D83034E5
:10028C0000E0373401F8014C01330024000101F87F
:10029C00024BDBB2EEE710BD38B501F061FF5C4BF1
:1002AC0001251D7002F0AAF8282001F0BFFAB0F564
:1002BC00A04F04D0574C2088B0F5A04F03D1564A1C
:1002CC00564B1A601AE0282001F0B0FA052802D02B
:1002DC002188052903D15249012008700EE02820FD
:1002EC0001F0A4FA45F2555398424D4A02D02488A5
:1002FC009C4202D1FF25157000E05570002001F0E2
:10030C0071FF20BB474D42F210742C60002001F0AD
:10031C0069FFE0B94348424C016841B96FF07F4036
:10032C002170617001F02EFE0121A1700FE0637845
:10033C00002BEBD1056841F658329542E6D83A4885
:10034C002370A37001F01EFE01206070DEE7344CB8
:10035C0094F90050012D06D14FF0FF1001F012FE60
:10036C0002F04EF926E0A278012A06D12F490A8024
:10037C0002F05EF802F04DF91CE06378D3B96A1C08
:10038C0007D14FF47F0001F0FDFD4FF4802002F007
:10039C00D7F82248264D046821680D40B5F1005F5E
:1003AC0008D16268234B24481A600260246884F3E5
:1003BC00088890471C4801F0E5FD204C184A20485D
:1003CC000A230125037055702370237101F096FAEE
:1003DC0001F0BEFF002002F003F8FFF7B9FE28463B
:1003EC0001F0FEFF01F0CAFF01F048F8002001F017
:1003FC0009FFB0F57A7FF9D3002001F00BFF10490B
:10040C000D78022D01D00A2DF0D102F085F8EDE720
:10041C00AE0200206802002000500008E406002014
:10042C00840200203007002000FFFF00660200203D
:10043C000000FE2FDC060020E0060020E80600206D
:10044C00D8060020134B10B51A6812B11868411E5B
:10045C001960114C236813B12268501E20600F4C98
:10046C00216811B121684B1E12E00D4B9A7812B91C
:10047C0093F9000030B1E72001F0CEFD074832229D
:10048C00026010BD597821B1E72001F0C5FD64234D
:10049C00236010BD400700203007002038070020E3
:1004AC0084020020094B10B593E814000833186837
:1004BC0010180AD008220649FFF7D9FE0549204634
:1004CC000422BDE81040FFF7D2BE10BDE8F7FF1FB5
:1004DC00C6000020D600002008B502F00BF9002061
:1004EC0008BD08B502F0E7F9002008BD08B50346C1
:1004FC008AB20348194602F075F9002008BD00BF06
:10050C00C802002010B5044C03468AB22046194696
:10051C0002F0BBF8204610BDC80200207047FEE771
:10052C00FEE7FEE7FEE7704770477047FFF78ABFAC
:10053C0008B5042001F0CCF978B1042001F0D8F909
:10054C000020064B0146188001F098FD044810214C
:10055C000122BDE8084001F008BC08BDAA02002039
:10056C00002C01407047000008B50F48102101F025
:10057C0035FCC0B10C48102101F03BFC002001F00F
:10058C0031FE28B9094B1A880A3290B2188008BD7E
:10059C0010210548002201F0E8FB00200121BDE8F4
:1005AC00084001F06BBD08BD002C0140AA020020E0
:1005BC0000F000B838B5394B394C1A68394B90B249
:1005CC00208025881988294001F4004290B22546E4
:1005DC001C4608B100F06EFF298823880B4003F4F9
:1005EC00806290B230B12D4B2F4A4FF6FF3119601B
:1005FC00506880472A4A2B4B11881B88194001F4FC
:10060C00005081B219B125494DF6FF70086012886F
:10061C00134003F4805398B230B1204A4EF6FF7168
:10062C001160002002F018FA1D4B1E4918880A8828
:10063C00024002F4006398B260B11C490A7812B10E
:10064C0002F0EAF902E0022002F006FA134B4FF234
:10065C00FF701860124913480A8803881A4002F484
:10066C0000718AB242B10D494FF6FF50104A086032
:10067C001078411CC8B21070094A11880B4003F461
:10068C00807398B240B105494FF6FF6207200A60AB
:10069C00BDE8384002F0E0B938BD00BF445C004012
:1006AC00EE06002024070020D0010020800200204C
:1006BC0087020020034B987A10B1034905220A6087
:1006CC00704700BF00070020C4020020014B042229
:1006DC001A607047C40200207047000010B5174B19
:1006EC001A68117801F07F03212B24D1022806D13E
:1006FC0013490B78022B14D0092B12D010BD0128F2
:10070C0009D10F480378022B01D0052B13D10324F8
:10071C0004700C4908E0052805D003280BD10A49C0
:10072C0002E00A4900E00A49002420469161548203
:10073C008847204610BD022010BD00BF20070020B6
:10074C00D806002071070008D90700087D080008AA
:10075C00C1070008032901D9022070470228FBD8E1
:10076C000020704710B50D4B0D49DA789C7802EBE0
:10077C0004240C609A79DC795B8A02EB0422094C24
:10078C004A6003212170084C217120B90749D21A03
:10079C0009680A8210BD0648181810BD0007002011
:1007AC0088020020D8060020E80600202007002040
:1007BC00C802002020B9034B012219680A82704735
:1007CC000148704720070020D806002010B52249A8
:1007DC0004460B78032B02D0062B33D118E01F48AC
:1007EC001F4A43688BB104230B70016813711D4BB6
:1007FC0029B91D480078412801D1186802E0186811
:10080C00174A0121FFF7F4FC1CE00520087015E0E5
:10081C0012488368012B06D1114A072053700870C7
:10082C00107100230CE06BB90E4A5068027D02F087
:10083C000400C2B232B10220094A08701071537020
:10084C009370D3702CB9094906220B6820461A8282
:10085C0010BD034810BD00BFD80600208802002040
:10086C00E80600208C010020C80200202007002090
:10087C002DE9F041294BDFF8C080DA789D78D979E1
:10088C0004469879264ED8F800C002EB052500EBFB
:10089C00012135607160BCF81270224A224BB5B947
:1008AC00032901D9022000E00920107012780021E0
:1008BC001E481A7159709970D97041222123017008
:1008CC00437082703CBB0320ACF8100016E0012D85
:1008DC001AD0092010701871002215485A709A709D
:1008EC00DA70144B0268EB1802EB8320FFF768FCFC
:1008FC00716834B9D8F80030CF1B1F822046BDE890
:10090C00F081C019BDE8F08100200F211170197120
:10091C0058709870D870BDE8F08100BF00070020B7
:10092C0088020020D8060020E8060020C80200201B
:10093C008C010020FEFF3F0020070020054B1968AA
:10094C00CA78082A04D8044B03EBC20100F032BB6E
:10095C00002070472007002098010020014900F07A
:10096C0029BB00BF90010020014900F023BB00BF50
:10097C00C801002070B52248224A0168D579224B63
:10098C004D72224D0024224E9C722C60336848F626
:10099C008F10184040F400713160336848F6BF7214
:1009AC001A4082F0200040F4004141F08003336093
:1009BC002E681848B2B211184B0010261E60164E45
:1009CC00204696F8701000F0EFFE2A6890B200F105
:1009DC00005101F5405358005022026096F87010F7
:1009EC00204600F0D3FE204600F081FE204600F0A9
:1009FC006DFE204600F0F0FC084B0121196070BD23
:100A0C00200700201C01002000070020505C004043
:100A1C00005C0040043000208C010020C402002047
:100A2C0010B5FFF73FFD064B00249C7201F0DCFF74
:100A3C0000F0DEFE01F0C2FC0248046010BD00BFF5
:100A4C0000070020C40200202E4B19680A7802F01F
:100A5C007F03212B54D1012812D12B480278014657
:100A6C00052A01D0022A4BD10622284B01200A70FC
:100A7C0027499860002048708870C8700A717047C8
:100A8C00022808D12249204A002310704B708B7029
:100A9C00CB70087132E0042814D11B481C4B02782F
:100AAC000A2A04D1022101700020187004E00A21E6
:100ABC0001700E201870002058709870D870197141
:100ACC005871704706281BD10F4802780346911EB7
:100ADC00012905D9052A03D0062A01D0092A0DD1EE
:100AEC0002220B491A70094B00200870487088705C
:100AFC00C8700A71487118605860704700207047C0
:100B0C000220704720070020D80600208802002011
:100B1C00E80600200C480D4B416800229A600B7DC2
:100B2C000B4813F004010B4B06D006210170197110
:100B3C005A709A70DA707047082202701A715970E4
:100B4C009970D97001F0E8BC8C010020880200205B
:100B5C00D8060020E806002008B52A4B5878032850
:100B6C004ED129490A78042A44D1284A13684BBB30
:100B7C00274B1978002930D021290FD1506805282E
:100B8C002BD1DA789978100400EB012259781B7973
:100B9C005018204900EB03620A601EE041291CD169
:100BAC005268052A19D1D87899780204587802EB42
:100BBC0001211B790A18174902EB03600860FFF743
:100BCC00CFFA0AE0012B08D913481918114B1868F1
:100BDC0000EB81205168FFF7DBFA0C48002303601F
:100BEC004360094A0D4803211170017143708370F1
:100BFC00C37008BD072A03D1BDE80840FFF78ABFC0
:100C0C0008BD00BF00070020D80600208802002085
:100C1C00C80200208C010020FEFF3F00E8060020E7
:100C2C0010B5064C18B9236801221A8210BD044B6A
:100C3C0018680168884720680A3010BD200700201A
:100C4C001C07002010B5064C18B9236801221A8223
:100C5C0010BD044B18688168884720680C3010BDA3
:100C6C00200700201C07002008B5234A18B9136878
:100C7C0002221A8208BD214B0020126818801178BC
:100C8C0011F07F0113D1507A00F02002D1B209B1DA
:100C9C0002221A7000F04003D8B2184B18B11A781F
:100CAC0042F001011EE0197821F001011AE001293E
:100CBC001FD002291ED1507900F00F024FEA820199
:100CCC0010F0800F01F1804000F5B842116803D09C
:100CDC0001F03002102A03E001F44050B0F5805FBF
:100CEC0001D101211970064B186801698847034826
:100CFC0008BD184608BD00BF20070020F0060020E4
:100D0C001C070020F8B5224B1C68238A267AABB945
:100D1C00042E13D11F48017801291F490AD11F4CF9
:100D2C00226894B21E4AA2185200136030220A8024
:100D3C00037028E010260E80072624E0A58AA169FE
:100D4C00AB428CBF022604269D4228BF1D46284676
:100D5C0088470746002000F0FDFC2A46014638462D
:100D6C0000F06EFC2946002000F010FD208A638AFA
:100D7C00421BED1808480B4B228230214FF4405295
:100D8C00018065821A80024B18680672F8BD00BF9C
:100D9C00200700209402002028070020505C00400F
:100DAC00023000202607002010B50A4B0A491868AB
:100DBC004B78C27893420AD3817841B9848834B98C
:100DCC0082720648026853689847204610BD02207C
:100DDC0010BD00BF20070020240200201C070020AB
:100DEC0038B50E4A0E4C106823688269D978587948
:100DFC00904721688B7A7BB170B9087960B98D788E
:100E0C0055B9084A1168CB68984720684279C1786F
:100E1C00C2720173284638BD022038BDF806002086
:100E2C00200700201C07002010B5324B1B681878D7
:100E3C0010F07F0004D15A7A22F02001597210BDB3
:100E4C00022855D15A88002A53D11979002950D13A
:100E5C005A7922F080004FEA800404F1804101F5B8
:100E6C00B8442168244C12F0800F247814BF01F090
:100E7C00300101F44051A0423AD2002938D09B7A7B
:100E8C00002B35D0840002F0800204F18043D1B2F3
:100E9C0003F5B844226861B102F03002102A21D166
:100EAC00C4B2204600F044FC2046302100F0F1FB97
:100EBC0018E002F44051B1F5805F13D128B90F4B03
:100ECC0093F82C1000F070FC01E000F01FFC20687F
:100EDC004BF68F72024082F4405141F4004343F0D0
:100EEC008000206006490B6858698047002010BDBF
:100EFC00022010BD2007002024020020D001002079
:100F0C001C07002010B51F4B19684A7922F080038A
:100F1C004FEA830000F1804404F5B8401A4C006895
:100F2C00247812F0800F14BF00F0300000F4405011
:100F3C00A34224D24C8814BB08B3897AF9B19B0024
:100F4C0003F1804102F0800201F5B843D0B2196878
:100F5C0028B148F6BF720A4082F0100004E04BF64C
:100F6C008F720A4082F4805040F4004141F08000BE
:100F7C001860064B1A6891698847002010BD022042
:100F8C0010BD00BF20070020240200201C070020F9
:100F9C0008B5064B1868064B427A42F020014172A4
:100FAC001868C2699047002008BD00BF20070020C8
:100FBC001C070020054B1A68538A18B98988CB1A6C
:100FCC00138270470868C018704700BF20070020C4
:100FDC0008B50B4B002093F82C1000F0E5FB0948EA
:100FEC000168087A082806D1074B4FF480521A8002
:100FFC00064A10211180B0F109035842584108BD2E
:10100C00D001002020070020260700202807002000
:10101C0070B52E4B1C68207A02284FD004284DD076
:10102C00032801D0052843D1A169208AA9B1A0B118
:10103C00A58A854228BF054628468847228A064647
:10104C00608A531B291861822382002000F090FBD8
:10105C002A460146304600F00AFB228A52B11C4B4C
:10106C004FF4405018800020014600F08FFB194AC5
:10107C0030211180208AA38A1449834202D80B683C
:10108C00032202E018B10B6805221A720CE00A6800
:10109C000623114913720A68104993B25A18530067
:1010AC000C49186030200880084801680B7A06E06B
:1010BC00072803D10A490A68D36898470823034ACA
:1010CC0010680372BDE87040FFF782BF2007002054
:1010DC002607002028070020505C0040023000202A
:1010EC00F8060020944B73B51A68944990B24418D2
:1010FC00934E65002A6835682B7A092B15D090B26F
:10110C00410001F1804404F5C04422782A706378D0
:10111C006B70A08800F066FB68802089356800F051
:10112C0061FBA880A0893168C880854D01242B689B
:10113C00DA881C725C78002A64D1187810F07F026F
:10114C0038D1092C02D1FFF72FFE45E0052C0FD129
:10115C0093F90320002A01DA08214FE0997800293D
:10116C00FAD198880028F7D19B7A002B38D0F3E776
:10117C00032C10D1D878012807D0724A2046116868
:10118C004B699847032829D137E09B88002BF4D171
:10119C00FFF7FEFE20E0012CEFD1D9780129ECD12C
:1011AC0098880028E9D15B7A03F02002D1B200299B
:1011BC00E3D00AE0012A04D10B2CDED1FFF710FE9C
:1011CC000AE0022AD9D1012C02D1FFF72DFE03E04F
:1011DC00032CD2D1FFF796FE10B1CEE70028BBD17D
:1011EC005548594B026891B2C818584B410000221F
:1011FC0030200A601880062100E00921504A10684E
:10120C000172D3E0062C13D11C7861067AD19A783E
:10121C004C4B012A02D11C68E36969E0022A02D115
:10122C001868036A64E0032A6CD119684B6A5FE0A2
:10123C00002C3ED15988002964D1586820F47F4293
:10124C00B2F5003F5ED11C7814F07F0004D1988871
:10125C00002800F0AE8055E001280CD1394A5879AD
:10126C001468A269904700284CD12B68997A002900
:10127C0040F09F8046E0022844D15B7903F00F01D7
:10128C004FEA810202F1804404F5B840304C026808
:10129C00207813F0800F14BF02F0300202F4405299
:1012AC0081422FD213F0700F2CD1002A40F0818094
:1012BC0028E0082C03D119784A067CD022E00A2CAD
:1012CC0020D1187800F07F0101291BD19C7ACCB178
:1012DC005988B9B95A6822F47F40B0F5803F11D1D2
:1012EC00184C587922689469A047002865D009E009
:1012FC0043B113480024016820464C828B61984707
:10130C0020460AE00F4A0E4C116823680A69587887
:10131C009047032801D1236806E0094B4FF6FF7173
:10132C001B681A8A8A4201D1092103E0022800D0E5
:10133C0082B90821197239E0505C00400430002059
:10134C0020070020F806002002300020280700208B
:10135C002402002093F90000002821DAD988019199
:10136C000198824202D9019A1A8211E08A420FD264
:10137C001349086890F82C108A4201D2002105E02C
:10138C0092FBF1F001FB102212B901210D48017002
:10139C000B49086890F82C209A82FFF7B3FC05E003
:1013AC0003221A72084B4FF440511980FFF710FEBC
:1013BC007CBD064B9DE7064B9BE7064B99E700BFB0
:1013CC00F80600209402002026070020750C000867
:1013DC002D0C0008510C000870B50D4B1C78002327
:1013EC00A34210D203F1805202F5B855A90043F480
:1013FC0000420E6842F0800540F60F7232402A43DC
:10140C000A600133ECE7034940F08000086070BDCE
:10141C00240200204C5C004010B514490B680C46AB
:10142C001A7A022A01D0042A04D1FFF76BFC216836
:10143C00087A13E0062A10D15878052809D11978B2
:10144C00480606D1D878FFF7C7FF094B1A68106A0F
:10145C00804708490B689A6890470820034B1A6824
:10146C001072BDE81040FFF7B3BD00BF200700208D
:10147C001C070020F80600207047000008B5074A3A
:10148C00074B0220136018720649074B0748084A9D
:10149C000B6010601B68984708BD00BF2007002038
:1014AC0000070020F8060020D001002000020020D8
:1014BC001C07002037B50023ADF806305848594BAF
:1014CC00026891B21204198040F1A880188856491C
:1014DC0000F00F020A70002A6ED1544C2568AAB293
:1014EC00534D2A802988534A01F0300010802988F6
:1014FC004BF6BF7201F44050288021680A4082F4F8
:10150C00005080F0200141F4004242F08000206045
:10151C001B8803F010018AB23AB9226848F60F70A2
:10152C0010402060FFF778FF1DE0206883B2ADF813
:10153C000630BDF8061001F4006290B238B1216893
:10154C0040F68F730B402360FFF7CCFD0BE0BDF82A
:10155C00063019B20029B1DA226840F68F701040BB
:10156C002060FFF755FD21682A884BF6BF7302F403
:10157C0080500B4081B209B183F480532C4A1088FF
:10158C0000F400518AB20AB183F40053294801884F
:10159C0001F0100291B209B183F01003008800F041
:1015AC00200291B209B183F0200343F400401F4A9A
:1015BC0040F08001116031E0930003F1804000F5B0
:1015CC00B843196888B2ADF80600BDF8061008B229
:1015DC00002809DA186840F68F7101401960164B23
:1015EC00013A53F822008047BDF8061001F0800242
:1015FC0093B2002B3FF462AF0B480278910001F1DB
:10160C00804303F5B841086848F60F7303400B603C
:10161C000A49013A51F8220080474FE73EBD00BF0E
:10162C00445C0040EE060020FC060020005C0040FC
:10163C0026070020280700205401002070010020FC
:10164C0030B501F1005101F54053013259005210EF
:10165C0000230230934209D010F8015C10F8024CC0
:10166C0044EA052421F823400133F2E730BD01F1AF
:10167C00005110B5013201F54054521064000023A2
:10168C00934205D054F8231020F813100133F7E7D8
:10169C0010BD800000F1804202F5B842106848F697
:1016AC00BF73034001F0100080B208B99BB201E097
:1016BC0083F0100301F0200188B208B183F02003FD
:1016CC0043F4004141F0800010607047800000F14D
:1016DC00804202F5B84001684BF68F730B4083F4DF
:1016EC00405242F4004141F0800303607047800097
:1016FC0000F1804202F5B840016840F60F630B40E0
:10170C0043F4004242F0800101607047800000F118
:10171C00804303F5B8400268510408D5016840F6CF
:10172C000F730B4043F4404242F08001016070475C
:10173C00800000F1804303F5B8431A68500608D5C1
:10174C00196840F60F70084040F4004242F0C001A6
:10175C0019607047054B19688AB202EBC00000F1A2
:10176C00005303F540514A0010887047505C00400C
:10177C00044B1968044B8AB202EBC000C1184A0032
:10178C0010887047505C004004300020044B1A68ED
:10179C0093B2044A03EBC0008318580001607047F1
:1017AC00505C0040023000200C4B1A6893B20C4A7B
:1017BC0003EBC00083185A003E2908D94B09C9060F
:1017CC0001D1581E83B2990241F4004104E04B0848
:1017DC00C80748BF0133990211607047505C004044
:1017EC0006300020C3B2000A40EA03207047000014
:1017FC00044B00201860044A044B4FF43F41118005
:10180C0019607047445C004024070020405C004095
:10181C00054A82B0002301930192019BC0180190EC
:10182C00019A116002B07047006C0040064982B00A
:10183C00002301930191019A80180190019B198852
:10184C0088B202B0704700BF006C0040837910B5BD
:10185C00002B29D01A4B01681C68CA4314401C6029
:10186C005C6822405A60027902F1804404F58232AD
:10187C0014682143116002689C68D1430C409C6041
:10188C00DC68407921401028D96006D19868104353
:10189C009860D9680A43DA6010BD00F1804303F503
:1018AC00823319680A4308E00179006801F180422B
:1018BC0002F582331A6822EA00021A6010BD00BFDA
:1018CC0000040140014B5861704700BF0004014007
:1018DC00064B1A68596910EA010304D010420CBF78
:1018EC000020012070471846704700BF00040140DB
:1018FC00014B5861704700BF00040140034A044B80
:10190C0002F188305A605860704700BF2301674568
:10191C0000200240024B1A6942F0800018617047A7
:10192C0000200240014BD860704700BF00200240ED
:10193C00084BDA68D20709D4D868400708D4D968AC
:10194C0011F0100F0CBF04200320704701207047CA
:10195C00022070470020024010B50446FFF7E8FF54
:10196C00012806D11CB1FFF7E3FF013CF8E7052085
:10197C0010BD002C08BF052010BD000070B5054639
:10198C004FF400500E46FFF7E7FF04280ED1084C29
:10199C00236943F0010020612E804FF40050FFF7C3
:1019AC00DBFF226941F6FE711140216170BD00BF61
:1019BC000020024073B5002306464FF400500D463C
:1019CC000193FFF7C9FF04281AD10E4CAAB2206963
:1019DC0040F0010121614FF400503280FFF7BCFF51
:1019EC00042808D102360196019B2D0C1D804FF462
:1019FC000050FFF7B1FF216941F6FE720A402261E7
:101A0C007CBD00BF0020024038B505464FF43020A5
:101A1C00FFF7A2FF042812D1094C236943F00200FE
:101A2C002061656121694FF4302041F04002226150
:101A3C00FFF792FF216941F6FD730B40236138BD1E
:101A4C0000200240014B1860704700BFD800424292
:101A5C00044B9A6909B1104301E022EA0000986135
:101A6C00704700BF00100240044BDA6909B1104303
:101A7C0001E022EA0000D861704700BF001002406C
:101A8C00224A038890429BB212D002F50062904227
:101A9C000ED0B0F1804F0BD0A2F59832904207D007
:101AAC0002F58062904203D002F58062904203D12D
:101ABC004A8823F070031343154A904208D002F56C
:101ACC008062904204D023F44073CA889BB21343C3
:101ADC0003808B880A8883850C4B028598420FD033
:101AEC0003F5006290420BD002F54063984207D098
:101AFC0003F58062904203D002F58063984201D1D5
:101B0C00097A018601228282704700BF002C0140B5
:101B1C0000100040038C70B523F001021404250C56
:101B2C000584068C8388028B9CB222F073052B04EF
:101B3C000D881A0C26F0020633042A434E880D89B0
:101B4C001B0C3543ADB22B43134DA8420FD005F5FA
:101B5C000065A8420BD005F54065A84207D005F5F5
:101B6C008065A84203D005F58065A8420ED123F00C
:101B7C0008064B898D881E4326F004032B43CE891F
:101B8C008D8924F440743543ADB22C43C9888480CC
:101B9C0002838186038470BD002C0140038C30B518
:101BAC0023F010021404250C0584038C8288048B0A
:101BBC0023F0200324F4E6452C040D88240C44EA7D
:101BCC0005241D042B0C0D8992B243EA05134D8894
:101BDC00A4B243EA0513124D9BB2A84203D005F5FB
:101BEC000065A84215D14D8923F080039BB243EACE
:101BFC0005134FF6BF751D408B8822F4406245EAF1
:101C0C000315ABB28D8942EA8502CD8942EA850281
:101C1C0092B2C988828004830187038430BD00BFDF
:101C2C00002C0140038C30B523F480721404250C75
:101C3C000584038C8288848B23F4007324F0730551
:101C4C002C040D88240C2C431D042B0C0D8992B2F2
:101C5C0043EA05234D8843EA0523124D9BB2A84263
:101C6C0003D005F50065A84215D14D8923F4006316
:101C7C009BB243EA05234FF6FF351D408B8822F4B7
:101C8C00405245EA0325ABB28D8942EA0512CD8953
:101C9C0042EA051292B2C9888280848381870384C8
:101CAC0030BD00BF002C0140038C30B523F48052B2
:101CBC001404250C0584038C8288858B94B225F43E
:101CCC00E64215042A0C0D8823F4005342EA05223F
:101CDC001D042B0C0D8992B243EA05334D8843EA5F
:101CEC0005330A4D9BB2A84203D005F50065A84206
:101CFC0005D18D8924F4804444EA8514A4B2C988A2
:101D0C0084808283A0F84010038430BD002C0140F5
:101D1C0000214FF6FF7383800180C18041800172E6
:101D2C0070470023038043808380C38003814381F9
:101D3C008381C3817047038819B199B241F00103C3
:101D4C0003E023F001010A04130C03807047B0F880
:101D5C00443029B16FEA43436FEA53418AB201E040
:101D6C0059044A0CA0F84420704783899BB20AB1ED
:101D7C00194301E023EA010181817047038819B1FD
:101D8C0099B241F0800303E023F080010A04130CA4
:101D9C0003807047038B23F0080213041A0C1143C1
:101DAC0001837047038B23F4006213041A0C42EA7C
:101DBC0001218BB203837047838B23F00802130439
:101DCC001A0C114381837047838B23F40062130434
:101DDC001A0C42EA01218BB283837047038A8289F1
:101DEC0011EA030092B203D011420CBF0020012073
:101DFC007047C9438AB2028270470000BFF34F8F0D
:101E0C00054A064BD16801F4E06040EA0301D16059
:101E1C00BFF34F8FFEE700BF00ED00E00400FA05B2
:101E2C004FF4407000F05CBE082812D8012907D18D
:101E3C000A4B0B4A53F8201032F8100008610AE0E4
:101E4C0049B9064B064A53F8201032F81000486185
:101E5C0001E0FF2300E0002358B270472802002065
:101E6C00D02C000837B50E4D044605EB80031869DD
:101E7C000121FFF7EDFD35F814000A4B1021ADF8E8
:101E8C0004008DF80710032253F8240001A98DF8E3
:101E9C00062000F063FE20460021FFF7C5FF3EBD83
:101EAC00D02C00082802002070B5012188B04FF416
:101EBC000060FFF7CDFD314B42F210701C686326B9
:101ECC00B4FBF0F14A1E2E4C01A895B2FFF720FF8F
:101EDC0001A8FFF71DFF01A9ADF80450204600250D
:101EEC00ADF80860ADF80A50ADF80650FFF7C8FD24
:101EFC0004A8FFF716FF022060230126ADF8180096
:101F0C0004A92046ADF81030ADF81260ADF81650AB
:101F1C00ADF81C50FFF7FEFD20462946FFF73AFFAF
:101F2C00204604A9FFF73AFE20462946FFF73AFF60
:101F3C00204604A9FFF776FE20462946FFF73CFF12
:101F4C00204604A9ADF81050ADF81260ADF816504B
:101F5C00ADF81850FFF7A8FE20462946FFF734FFCE
:101F6C0020463146FFF70AFF20463146FFF7E3FED5
:101F7C0020463146FFF7EBFE08B070BD6C02002026
:101F8C00002C0140104930B58C8DC0F30743A2B230
:101F9C00551C5D43FF22B5FBF2F40C4BA5B29D80A2
:101FAC008C8DC0F30725A4B201346C43B4FBF2F45E
:101FBC00A4B2DC80898DC0B289B201314843B0FB38
:101FCC00F2F291B2598030BD002C014098020020F1
:101FDC0037B50F4D044605EB8003186B012105EB5B
:101FEC004405FFF735FDB5F84000ADF804000CB919
:101FFC00102100E01821074B8DF8071003EB840427
:10200C000322206A01A98DF8062000F0A7FD3EBD31
:10201C00D02C00082802002010B1E72827D106E0B8
:10202C00134B196AC86880F40052CA607047114A91
:10203C00114B117C61B9198F9088414088B2188777
:10204C00998FD088414088B29887998E52880BE03E
:10205C00198F9089414088B21887998FD089414057
:10206C0088B29887998E52894A4092B29A86704764
:10207C002802002098020020002C014073B5104C5F
:10208C000E4604EB400494F84C10054694F84800B6
:10209C0000F0BEFDB4F850402046FFF713FC094891
:1020AC000023451995F83010684600948DF80430DB
:1020BC008DF805108DF80660FFF7C8FB7CBD00BFDE
:1020CC00D02C000828020020F7B5224E8700F31907
:1020DC000546586D0C4640F001000121FFF7B8FC95
:1020EC001D4B06EB45065A1992F83210B6F85C00F7
:1020FC0002AADF198DF8031022F8080D6946786BD7
:10210C0000F02CFD012C24D11021002213481B2798
:10211C00FFF72BFE05238DF8047001A800278DF81E
:10212C0005308DF806708DF8074000F0E3FCB6F82A
:10213C00601006208DF8050001A88DF804108DF8AC
:10214C0006708DF8074000F0D5FC28462146FFF7B5
:10215C0095FFFEBDD02C000828020020002C014069
:10216C0010B501214FF0C050FFF77EFC012000F0AC
:10217C0069FDFFF755FE01200146FFF769FC0024BD
:10218C00E0B20134FFF76EFE082CF9D1FFF78CFE9C
:10219C000020FFF71DFF0120FFF71AFF0220FFF7B9
:1021AC0017FF0320FFF714FF00200121FFF78CFF1E
:1021BC00094B4FF47A701A68084BB2FBF0F14A1EC7
:1021CC005A60074AF021002082F8231098600720FB
:1021DC00186082F8231010BD6C02002010E000E0A3
:1021EC0000ED00E0054A064B02EB800103EB4002D8
:1021FC00486BB2F85C1000F001BD00BF2802002053
:10220C00D02C0008024B03EB4000418A88B2704787
:10221C0098020020024B002203EB400042827047E0
:10222C009802002002484FF4805100F0EDBC00BF32
:10223C00000C014010B50B4C238823F04000010426
:10224C000A0C2280FFF7EEFF074B188881B2074873
:10225C0041F040024FF400712280BDE8104000F0C4
:10226C00D5BC00BF003800404E070020000C0140D8
:10227C0002484FF4007100F0C7BC00BF000C0140D5
:10228C0070B5082086B00121FFF7E2FB2E4C01212E
:10229C004FF48040FFF7E8FB18204FF40053012562
:1022AC008DF8030069462046ADF800308DF80250D9
:1022BC0000F054FC4FF40041ADF800102046694684
:1022CC0000F04CFC04264FF4804220466946ADF8E1
:1022DC0000208DF8036000F041FC102003236946B8
:1022EC004FF400768DF8030020468DF80230A4F5EB
:1022FC005444ADF8006000F031FCFFF7B9FF002149
:10230C0007202023ADF804104FF48272ADF80810AA
:10231C00ADF80A10ADF80C10ADF81210ADF81400B1
:10232C0001A92046ADF80620ADF81030ADF80E60CE
:10233C0000F08EFC2188054B8AB2204629461A8073
:10234C0000F0A5FC06B070BD000C01404E0700204B
:10235C0007B508200121FFF77BFB032014214FF464
:10236C0080638DF806008DF80710034801A9ADF8BD
:10237C00043000F0F3FB0EBD000C0140002008B54A
:10238C00FFF760FB4FF400000121BDE80840FFF7A8
:10239C006BBB0000014B03221A607047C402002083
:1023AC00044B05489A7A0AB1052100E0012101602D
:1023BC00704700BF00070020C402002007B50220B0
:1023CC0014238DF805000021012201A88DF804309A
:1023DC008DF806108DF8072000F08CFB0EBD000068
:1023EC0020B105484FF4806100F010BC02484FF456
:1023FC00806100F009BC00BF000C0140074B987DC8
:10240C0050B10749074B0A8807489A870188074A41
:10241C00D9871088A3F84000704700BF98020020AD
:10242C00004C000828020020024C0008044C000854
:10243C0010B5154B987D002825D0FFF75FFA342096
:10244C00FFF770FA1148FFF7DFFA04281AD1104C85
:10245C000E48A18FFFF792FA042812D10D48E18F94
:10246C00FFF78CFA04280BD10B48B4F84010FFF797
:10247C0085FA042803D1BDE81040FFF74BBAFEE7FC
:10248C00FEE7FEE7FEE710BD98020020004C0008B6
:10249C0028020020024C0008044C000838B5054600
:1024AC0000F028F9184B202200209A61D861164CB4
:1024BC00E169A369994207D205EB013000F0FBF901
:1024CC00E1694B1CE361F2E7104A656222620E4C33
:1024DC000F49206A884215D850F8043B20620D48F9
:1024EC00C3F30722C3F30741037042708170A362E8
:1024FC0004221B0E616AC37000F074F9606A021D3D
:10250C006262E4E738BD00BF98020020005000086A
:10251C00FFFF01084807002008B5084B4FF4A04402
:10252C00A3F84040FFF784FF28202146FFF770F9FD
:10253C000020FFF755FFFFF761FC00BF28020020C9
:10254C0070B5064600F0D6F8284B0422284C83F8C8
:10255C004220FFF7D3F96C20A0613420FFF7E2F999
:10256C000025E561224CE269A16923468A4210D21A
:10257C001E4D95F8420004280BD102F5003101F1F3
:10258C0014008002FFF740FAE36985F842005D1CF5
:10259C00E7E7184C5E621C62154C174A266A964295
:1025AC0020D8124E96F84220042A1BD1134D616A92
:1025BC00284600F06AF8616AAA780B1D6878110445
:1025CC0063622B7841EA0020ED78184340EA0561FC
:1025DC00206AA162FFF7EEF986F84200266A321DE6
:1025EC002262D9E7FFF796F9FFF796FF2802002041
:1025FC009802002000500008FFFF01084807002047
:10260C004FF4802008B5FFF749FF4FF4C020FFF7C7
:10261C0097FF4FF4802008B5FFF740FF4FF40030D0
:10262C00FFF78EFF10B504460A48022100F040FB6C
:10263C000028F9D00748214600F035FB0548012158
:10264C0000F036FB0028F9D0024800F02EFBC0B297
:10265C0010BD00BF0038004070B5FFF7EBFD9F20A8
:10266C00FFF7E0FFFF20FFF7DDFF0446FF20FFF739
:10267C00D9FF0546FF20FFF7D5FF2D020646FFF7D1
:10268C00F7FD45EA0440304370BD70B50C46154665
:10269C000646FFF7CFFD0320FFF7C4FFC4F3074046
:1026AC00FFF7C0FFC4F30720FFF7BCFFE0B2FFF752
:1026BC00B9FF3DB1FF20FFF7B5FF013D06F8010B57
:1026CC00ADB2F6E7BDE87040FFF7D2BD08B5FFF735
:1026DC00B1FD0620FFF7A6FFBDE80840FFF7C8BD17
:1026EC0008B5FFF7A7FD0420FFF79CFFBDE80840E5
:1026FC00FFF7BEBD08B5FFF7C3FDFFF7F1FFFFF70E
:10270C00ABFF104B984202D04C3B984219D1FFF7CB
:10271C0091FD8020FFF786FFFFF7AAFDFFF78AFDEA
:10272C005020FFF77FFFFFF7A3FDFFF783FD01208C
:10273C00FFF778FF0020FFF775FFBDE80840FFF7B3
:10274C0097BD08BD8D25BF0008B5FFF773FD0520AB
:10275C00FFF768FFFF20FFF765FFC307FAD4BDE85A
:10276C000840FFF785BD70B50D4616460446FFF7C9
:10277C00ADFFFFF75FFDAD20FFF754FFC5F307403A
:10278C00FFF750FFC5F30720FFF74CFFE8B2FFF748
:10279C0049FF2078FFF746FF6078FFF743FFFFF70C
:1027AC0067FDFFF7D1FFA51C2C4602342B1BF0183C
:1027BC0081B289B1FFF73EFDAD20FFF733FF14F86E
:1027CC00020CFFF72FFF14F8010CFFF72BFFFFF79C
:1027DC004FFDFFF7B9FFE8E7FFF74AFDBDE8704092
:1027EC00FFF77EBF2DE9F84F11F0FF0906460D46A5
:1027FC0017464FEA12381DD1B8F1000F03D13046FD
:10280C0029463A4651E004465FFA89F2A81B9045E6
:10281C0004EB000109D020464FF48052FFF7A3FFD0
:10282C0004F5805409F10109EEE74FEA08317018FC
:10283C00491939E0C9F10004E4B2B8F1000F0DD127
:10284C00D2B2A242DBD902EB09035FFA83F922462A
:10285C00FFF789FF301961194A4626E0171B2246FB
:10286C00FFF781FFBFB24FEA1739651934195FFAC8
:10287C0089FB5FFA87FAA0460026F3B2291B9B4519
:10288C00414408D040464FF48052FFF76CFF08F5E6
:10289C0080580136F1E74FEA093904EB090009EBDE
:1028AC000501BAF1000F04D0FAB2BDE8F84FFFF7FA
:1028BC005ABFBDE8F88F10B50446FFF707FFFFF7C6
:1028CC00B9FC2020FFF7AEFEC4F30740FFF7AAFEC9
:1028DC00C4F30720FFF7A6FEE0B2FFF7A3FEFFF755
:1028EC00C7FCBDE81040FFF72FBF00003A4B82B089
:1028FC001A6842F0010018605968384A0A405A6058
:10290C00186820F0847121F480321A60186820F461
:10291C00802119605A684FF41F0122F4FE00002236
:10292C005860996000920192186840F480311960E7
:10293C00294B1A6802F40030019000994A1C00924D
:10294C00019818B90099B1F5A06FF1D11B6813F477
:10295C00003218BF012201920198012805D0204BAA
:10296C004FF000629A6002B070471E490B6843F04A
:10297C0010020A60086820F003030B600A68A1F5D6
:10298C00805342F002000860596859605A685A60D6
:10299C00586840F4806159605A6822F47C10586081
:1029AC00596841F4E8125A60186840F08071196057
:1029BC001868094A8101FBD5536823F00301516063
:1029CC00506840F002035360034A516801F00C0058
:1029DC000828F9D1C3E700BF001002400000FFF83F
:1029EC0000ED00E00020024008B50120FFF7F8FCE4
:1029FC00064B0749012200201A601860086005493F
:102A0C004FF4E0520A801A6008BD00BF405C0040E1
:102A1C00445C004024070020064B1A6890B240F03A
:102A2C00080119601A6890B240F004011960FFF7B0
:102A3C00B1BC00BF405C004010B5064C4FF6FB73B8
:102A4C00226813402360FFF7ABFC4FF43F4020603B
:102A5C0010BD00BF405C00401F4B072810B518BFCD
:102A6C0018701A781C4C052A33D8DFE802F00307DB
:102A7C000C101823FFF7E0FF062202E0FFF7DCFF43
:102A8C000422227010BD02215970032022E05978D3
:102A9C004A1ED0B258705B78EBB9042017E00F4B8C
:102AAC00186881B241F010021A600A2005232370C5
:102ABC00607010BD5878411ECAB25A705B7853B919
:102ACC0006484FF6EF7201680A4002600620024B7E
:102ADC0000E00620187010BD52070020405C00403A
:102AEC0040F0BF60024B40F40031D960704700BF2A
:102AFC0000ED00E0C37810B503B3164CE168CB438E
:102B0C00C3F302244178C4F1040201FA02F10F224A
:102B1C0022FA04F28478037822400A43110103F16B
:102B2C006043CAB203F5614181F8002300780122A9
:102B3C0000F01F03410902FA03F007E000780122BC
:102B4C0000F01F03410902FA03F02031024B43F855
:102B5C00210010BD00ED00E000E100E0CB78F0B505
:102B6C00DA0648BF8A78098803F00F0548BF154379
:102B7C0011F0FF0F1ED004680022012707FA02F79C
:102B8C0007EA0106BE4211D197004FF00F0C0CFA68
:102B9C0007FC05FA07F724EA0C04282B44EA07047F
:102BAC0001D1466102E0482B08BF06610132082AB8
:102BBC00E3D10460FF2920D94468002202F1080601
:102BCC00012707FA06F707EA0106BE4211D1970062
:102BDC004FF00F0C0CFA07FC05FA07F724EA0C046B
:102BEC00282B44EA070401D1466102E0482B08BFB8
:102BFC0006610132082AE1D14460F0BD83681942B4
:102C0C000CBF002001207047016170474161704783
:102C1C0001F0030230B592000F2404FA02F400FA1A
:102C2C0002F0074B8908023153F8215025EA0404BD
:102C3C0043F8214053F82140044343F8214030BD70
:102C4C0000000140014B1860704700BF20000E428D
:102C5C000B8810B54C88028823438C8802F44152AF
:102C6C002343CC8823430C8923434C8923438C89ED
:102C7C002343CC89098A23431A4393B20380828B62
:102C8C0022F400631A04130C8383018210BD0388A1
:102C9C0019B199B241F0400303E023F040010A045A
:102CAC00130C0380704781817047808980B2704714
:102CBC00038919420CBF00200120704732003200FA
:102CCC0014001E008000400020001000080000804E
:102CDC000040002008000000080000000800000070
:102CEC0008000000080000000400000004000000C0
:102CFC0004000000040000000400000004000000B8
:102D0C00040000000020000100020004010000008B
:102D1C000200000004000000080000000000000099
:082D2C00040000000800000093
:102D340062034000530050004900200046006C002C
:102D440061007300680020003A0020005300530023
:102D540054003200350078002F0030007800300035
:102D640030003000300030003000300030002F00E0
:102D74003500310032002A00300034004B00670077
:102D8400000000000000000000000000000000003F
:102D940000006203400049006E0074006500720088
:102DA4006E0061006C00200046006C00610073003E
:102DB4006800200020002F00300078003000380028
:102DC4003000300030003000300030002F0032007E
:102DD40030002A003000300031004B0061002C002C
:102DE4003100300038002A003000300031004B0040
:102DF400670000001A0343004F0052004500200002
:102E04003100330000000000000000000000140343
:102E140043004F0052004500200044004600550086
:102E24002000260353007000610072006B00200034
:102E340044006500760069006300650073002000AB
:102E440020002000200020000403090409022400BB
:102E5400010100C0320904000000FE01020409045B
:102E6400000100FE01020509210BFF0000041A0104
:102E74001201000100000040501D7F6000020102A9
:102E84000301000085140008851400088514000857
:102E940085140008851400088514000885140008AA
:102EA400851400088514000885140008851400089A
:102EB40085140008851400088514000800500008D3
:102EC4001C01002024000000180100200400000060
:102ED400F200002026000000DE00002014000000A4
:102EE400C40000201A0000006200002062000000FC
:102EF40000000020620000004001002012000000D9
:102F04002D0A000881090008E5060008650B000881
:102F1400E9060008550A0008610700087509000859
:102F24006909000849090008000000004000000089
:102F340085140008C10600088514000885140008DB
:102F440085140008851400088514000885140008F9
:102F5400D906000801010000000C0140000C0140EA
:102F6400000C0140000C0140000C0140000801402D
:102F74000008014000080140000801400008014029
:102F840000080140000801400C004800000C01400A
:102F940000000000FFFFFFFFFFFF040000A24A043F
:102FA40000000000000000000102030406070809F5
:042FB4000100000018
:040000050800010CE2
:00000001FF
