:020000040800F2
:1050000000500020C5D8000875CF000879CF0008EF
:105010009DCF0008C1CF0008E5CF000800000000C8
:1050200000000000000000000000000009D000089F
:105030000BD00008000000000DD000080FD00008C1
:105040000DD900080DD900080DD900082DD200088F
:105050000DD900080DD9000865D0000885D00008DA
:10506000A5D00008D9D00008F9D000080DD9000853
:105070000DD900080DD900080DD9000889D2000803
:105080000DD900080DD9000815D000080DD9000869
:105090008DD200080DD900080DD9000819D10008DB
:1050A0000DD900080DD900080DD90008E1D100087C
:1050B0000DD900080DD900080DD9000835D0000819
:1050C00045D000080DD900080DD9000855D00008BA
:1050D0000DD900080DD9000825D000080DD9000809
:1050E00069D1000849D200080DD90008000000006D
:1050F00000000000000000000000000000000000B0
:0C51000000000000000000005FF808F153
:1051100081F0004102E000BF83F0004330B54FEA68
:1051200041044FEA430594EA050F08BF90EA020FD5
:105130001FBF54EA000C55EA020C7FEA645C7FEA68
:10514000655C00F0E2804FEA5454D4EB5555B8BF8B
:105150006D420CDD2C4480EA020281EA030382EAFC
:10516000000083EA010180EA020281EA0303362D8E
:1051700088BF30BD11F0004F4FEA01314FF4801C61
:105180004CEA113102D0404261EB410113F0004F73
:105190004FEA03334CEA133302D0524263EB43032A
:1051A00094EA050F00F0A780A4F10104D5F1200EC8
:1051B0000DDB02FA0EFC22FA05F2801841F1000123
:1051C00003FA0EF2801843FA05F359410EE0A5F1F7
:1051D00020050EF1200E012A03FA0EFC28BF4CF028
:1051E000020C43FA05F3C01851EBE37101F00045DE
:1051F00007D54FF0000EDCF1000C7EEB00006EEBEB
:105200000101B1F5801F1BD3B1F5001F0CD3490874
:105210005FEA30004FEA3C0C04F101044FEA4452CB
:1052200012F5800F80F09A80BCF1004F08BF5FEA52
:10523000500C50F1000041EB045141EA050130BD32
:105240005FEA4C0C404141EB010111F4801FA4F1D5
:105250000104E9D191F0000F04BF01460020B1FA2A
:1052600081F308BF2033A3F10B03B3F120020CDA62
:105270000C3208DD02F1140CC2F10C0201FA0CF040
:1052800021FA02F10CE002F11402D8BFC2F1200CA5
:1052900001FA02F120FA0CFCDCBF41EA0C0190405B
:1052A000E41AA2BF01EB0451294330BD6FEA0404A4
:1052B0001F3C1CDA0C340EDC04F11404C4F120028F
:1052C00020FA04F001FA02F340EA030021FA04F3A1
:1052D00045EA030130BDC4F10C04C4F1200220FAF8
:1052E00002F001FA04F340EA0300294630BD21FA36
:1052F00004F0294630BD94F0000F83F4801306BFFC
:1053000081F480110134013D4EE77FEA645C18BFEF
:105310007FEA655C29D094EA050F08BF90EA020F86
:1053200005D054EA000C04BF1946104630BD91EA7E
:10533000030F1EBF0021002030BD5FEA545C05D181
:105340004000494128BF41F0004130BD14F58004C0
:105350003CBF01F5801130BD01F0004545F0FE4134
:1053600041F470014FF0000030BD7FEA645C1ABF69
:10537000194610467FEA655C1CBF0B46024650EAA0
:10538000013406BF52EA033591EA030F41F40021CC
:1053900030BD00BF90F0000F04BF0021704730B552
:1053A0004FF4806404F132044FF000054FF0000127
:1053B00050E700BF90F0000F04BF0021704730B5E8
:1053C0004FF4806404F1320410F0004548BF4042BD
:1053D0004FF000013EE700BF42004FEAE2014FEA12
:1053E00031014FEA02701FBF12F07F4393F07F4FED
:1053F00081F06051704792F0000F14BF93F07F4F1F
:10540000704730B54FF4607401F0004521F0004161
:1054100020E700BF50EA010208BF704730B54FF0E7
:1054200000050AE050EA010208BF704730B511F0EC
:10543000004502D5404261EB41014FF4806404F124
:1054400032045FEA915C3FF4DCAE4FF003025FEAA6
:10545000DC0C18BF03325FEADC0C18BF033202EB2E
:10546000DC02C2F1200300FA03FC20FA02F001FA88
:1054700003FE40EA0E0021FA02F11444C1E600BF27
:1054800070B54FF0FF0C4CF4E06C1CEA11541DBFDA
:105490001CEA135594EA0C0F95EA0C0F00F0DEF8A5
:1054A0002C4481EA030621EA4C5123EA4C5350EA8A
:1054B000013518BF52EA033541F4801143F48013DB
:1054C00038D0A0FB02CE4FF00005E1FB02E506F06C
:1054D0000042E0FB03E54FF00006E1FB03569CF0C1
:1054E000000F18BF4EF0010EA4F1FF04B6F5007FC7
:1054F00064F5407404D25FEA4E0E6D4146EB060639
:1055000042EAC62141EA55514FEAC52040EA5E50C1
:105510004FEACE2EB4F1FD0C88BFBCF5E06F1ED86B
:10552000BEF1004F08BF5FEA500E50F1000041EBA2
:10553000045170BD06F0004646EA010140EA02004F
:1055400081EA0301B4EB5C04C2BFD4EB0C0541EA71
:10555000045170BD41F480114FF0000E013C00F386
:10556000AB8014F1360FDEBF002001F0004170BDAA
:10557000C4F10004203C35DA0C341BDC04F11404C3
:10558000C4F1200500FA05F320FA04F001FA05F24F
:1055900040EA020001F0004221F0004110EBD3701C
:1055A00021FA04F642EB06015EEA430E08BF20EA48
:1055B000D37070BDC4F10C04C4F1200500FA04F3EB
:1055C00020FA05F001FA04F240EA020001F000417D
:1055D00010EBD37041F100015EEA430E08BF20EAF0
:1055E000D37070BDC4F1200500FA05F24EEA020E38
:1055F00020FA04F301FA05F243EA020321FA04F067
:1056000001F0004121FA04F220EA020000EBD3701D
:105610005EEA430E08BF20EAD37070BD94F0000F1D
:105620000FD101F00046400041EB010111F4801F51
:1056300008BF013CF7D041EA060195F0000F18BF02
:10564000704703F00046520043EB030313F4801F3E
:1056500008BF013DF7D043EA0603704794EA0C0FF8
:105660000CEA135518BF95EA0C0F0CD050EA41060E
:1056700018BF52EA4306D1D181EA030101F000418B
:105680004FF0000070BD50EA410606BF10461946B3
:1056900052EA430619D094EA0C0F02D150EA0136BF
:1056A00013D195EA0C0F05D152EA03361CBF104600
:1056B00019460AD181EA030101F0004141F0FE419F
:1056C00041F470014FF0000070BD41F0FE4141F423
:1056D000780170BD70B54FF0FF0C4CF4E06C1CEA23
:1056E00011541DBF1CEA135594EA0C0F95EA0C0FD8
:1056F00000F0A7F8A4EB050481EA030E52EA033593
:105700004FEA013100F088804FEA03334FF08055B3
:1057100045EA131343EA12634FEA022245EA1115E0
:1057200045EA10654FEA00260EF000419D4208BF91
:10573000964244F1FD0404F5407402D25B084FEA3E
:105740003202B61A65EB03055B084FEA32024FF4EA
:1057500080104FF4002CB6EB020E75EB030E22BF47
:10576000B61A754640EA0C005B084FEA3202B6EB07
:10577000020E75EB030E22BFB61A754640EA5C00B6
:105780005B084FEA3202B6EB020E75EB030E22BF46
:10579000B61A754640EA9C005B084FEA3202B6EB47
:1057A000020E75EB030E22BFB61A754640EADC0006
:1057B00055EA060E18D04FEA051545EA16754FEA68
:1057C00006164FEAC30343EA52734FEAC2025FEA86
:1057D0001C1CC0D111F4801F0BD141EA00014FF015
:1057E00000004FF0004CB6E711F4801F04BF0143E6
:1057F0000020B4F1FD0C88BFBCF5E06F3FF6AFAE02
:10580000B5EB030C04BFB6EB020C5FEA500C50F191
:10581000000041EB045170BD0EF0004E4EEA113114
:1058200014EB5C04C2BFD4EB0C0541EA045170BD1B
:1058300041F480114FF0000E013C90E645EA060E5F
:105840008DE60CEA135594EA0C0F08BF95EA0C0F8D
:105850003FF43BAF94EA0C0F0AD150EA01347FF4D5
:1058600034AF95EA0C0F7FF425AF104619462CE7AC
:1058700095EA0C0F06D152EA03353FF4FDAE10460F
:10588000194622E750EA410618BF52EA43067FF460
:10589000C5AE50EA41047FF40DAF52EA43057FF4F0
:1058A000EBAE12E74FF0FF3C06E000BF4FF0010CFB
:1058B00002E000BF4FF0010C4DF804CD4FEA410C5F
:1058C0007FEA6C5C4FEA430C18BF7FEA6C5C1BD02C
:1058D00001B050EA410C0CBF52EA430C91EA030FAD
:1058E00002BF90EA020F0020704710F1000F91EA0A
:1058F000030F58BF994208BF90422CBFD8176FEAD8
:10590000E37040F0010070474FEA410C7FEA6C5CA5
:1059100002D150EA013C07D14FEA430C7FEA6C5CAC
:10592000D6D152EA033CD3D05DF8040B704700BFD8
:105930008446104662468C461946634600E000BF26
:1059400001B5FFF7B7FF002848BF10F1000F01BDF8
:105950004DF808EDFFF7F4FF0CBF012000205DF8C3
:1059600008FB00BF4DF808EDFFF7EAFF34BF012048
:1059700000205DF808FB00BF4DF808EDFFF7E0FFE1
:1059800094BF012000205DF808FB00BF4DF808ED32
:10599000FFF7CEFF94BF012000205DF808FB00BF99
:1059A0004DF808EDFFF7C4FF34BF012000205DF87B
:1059B00008FB00BF4FEA410212F5001215D211D5C3
:1059C0006FF47873B3EB625212D94FEAC12343F0FC
:1059D000004343EA505311F0004F23FA02F018BF7E
:1059E000404270474FF00000704750EA013005D147
:1059F00011F0004008BF6FF0004070474FF000000A
:105A0000704700BF2DE9114087B0042AC0F04F81D4
:105A1000C1F1000313F0030311D05FEAC37CA2EBD2
:105A2000030244BF11F8013B00F8013B21BF11F80C
:105A3000014B11F801CB00F8014B00F801CB80EAD3
:105A4000010C1CF0030F4ED18DE8E00FC0F10003F4
:105A500013F01C0316D0934288BF02F01C035FEAC8
:105A6000037C24BFF0C9F0C044BFB1E80003A0E844
:105A7000000313F0040F1CBF51F804AB40F804AB53
:105A8000A2EB0302203A0BD321F01F0C0CF1400CC7
:105A9000B1E8F00F203AA0E8F00FF9D202F12002AD
:105AA00012F01F0F1AD05FEA027C24BFF0C9F0C0C9
:105AB00044BFB1E80003A0E800035FEA827C24BF92
:105AC00051F8043B40F8043B44BF31F8024B20F846
:105AD000024B12F0010F1CBF0B780370BDE8E00F02
:105AE000BDE811407047042AC0F0E1808DE8E00F66
:105AF000C0F1000505F003054FEAC50CCCF1200EFE
:105B000051F8043BA2F10402ED0744BF00F8013B49
:105B10001B0A21BF00F8013B1B0A00F8013B1B0ACE
:105B2000042AC0F0B68010F01C0F0FD051F8045BAF
:105B3000A2F1040205FA0EF443EA040425FA0CF378
:105B400040F8044B042AEED2C0F0A380203AC0F003
:105B50008C80BCF1180F5CD0BCF1080F2CD051F830
:105B600004CB6446B1E8E00F203A28BF51F804CBDB
:105B700043EA04434FEA144444EA05444FEA154516
:105B800045EA06454FEA164646EA07464FEA1747F2
:105B900047EA08474FEA184848EA09484FEA1949CE
:105BA00049EA0A494FEA1A4A4AEA0B4AA0E8F807C2
:105BB0004FEA1B43D5D258E051F804CB6446B1E814
:105BC000E00F203A28BF51F804CB43EA04634FEAC0
:105BD000142444EA05644FEA152545EA06654FEAB0
:105BE000162646EA07664FEA172747EA08674FEA8C
:105BF000182848EA09684FEA192949EA0A694FEA68
:105C00001A2A4AEA0B6AA0E8F8074FEA1B23D5D202
:105C10002BE051F804CB6446B1E8E00F203A28BFEE
:105C200051F804CB43EA04234FEA146444EA052400
:105C30004FEA156545EA06254FEA166646EA072645
:105C40004FEA176747EA08274FEA186848EA092821
:105C50004FEA196949EA0A294FEA1A6A4AEA0B2AFD
:105C6000A0E8F8074FEA1B63D5D2CEF1200C02F171
:105C70002002042A0DD351F8045BA2F1040205FAB4
:105C80000EF443EA040425FA0CF340F8044B042A0A
:105C9000F1D25FEA0E7544BF00F8013B1B0A22BF38
:105CA00000F8013B1B0A00F8013B9DE8E00FD2071A
:105CB00044BF11F8012B00F8012B21BF11F8013B63
:105CC00091F800C000F8013B80F800C007B0BDE8C3
:105CD0001140704700210A2201F03EBB30B5054655
:105CE0000C461346294622460220BDE8304002F009
:105CF00011BB00000048704730250020014B186898
:105D0000704700BF30250020024B1A68186010460B
:105D1000704700BF30250020024B0146186800F094
:105D20000BB800BF00030020024B0146186803F0C7
:105D3000F3BA00BF000300202DE9F74F01F10B0477
:105D4000162C074603D934F0070401D502E01024CD
:105D50008C4203D2A74B0C221A60DBE1384600F0DC
:105D60004FFBB4F5FC7FA44D14D2E20805EBC2034F
:105D7000DE689E4206D106F1080376699E4208BF9E
:105D8000023243D07368F268B16823F00303CA603B
:105D900091605DE0620A1AD0042A02D8A209383262
:105DA00018E0142A01D85B3214E0542A02D8220BDE
:105DB0006E320FE0B2F5AA7F02D8E20B773209E02B
:105DC00040F254539A4204D8A20C7C3202E03F22A3
:105DD00000E07E2205EBC203DE689E4215D07168AA
:105DE00021F00301081B0F2801DD013A0DE0002816
:105DF00009DBF368B268D3609A6073185A6842F09E
:105E000001025A6091E1F668E7E701327A492E69AA
:105E100001F10800864286466DD0736823F00303C3
:105E2000C4EB030CBCF10F0F0DDD33194CF0010274
:105E300044F0010474604B610B61D86098605A6053
:105E400043F80CC071E1BCF1000F4861086101DB4F
:105E50003344D3E7B3F5007F11D2DB0898104FF03D
:105E6000010C0CFA00FC48684CEA0000486001EBA9
:105E7000C3018B68F160B3608E60DE603BE0580A5E
:105E8000042802D89809383015E0142801D85B306E
:105E900011E0542802D8180B6E300CE0B0F5AA7F40
:105EA00002D8D80B773006E040F2545188429ABFAE
:105EB000980C7C307E2005EBC00CDCF80810DFF875
:105EC000388161450DD10123801003FA00F0D8F824
:105ED00004300343C8F804300B4608E08968614584
:105EE00004D0486820F003008342F7D3CB68F36006
:105EF000B1609E60CE600121931001FA03F36968DE
:105F00008B425DD80B4206D122F003025B000B42AC
:105F100002F10402FAD005EBC20080469446D8F89C
:105F20000C6046452DD0716821F00309C4EB0901CE
:105F30000F2913DD331944F00104F268746056F838
:105F4000080FC260906041F001026B612B61C3F8E1
:105F50000CE0C3F808E05A6059500CE000290EDB51
:105F600006EB09014B6843F001034B60F36856F8F8
:105F7000082FD3609A60384600F043FAD9E0F668FB
:105F8000CFE70CF1010C1CF0030F08F10808C6D193
:105F9000910704D16A6822EA03026A6005E0A0F171
:105FA00008010068013A8842F2D069685B008B42C0
:105FB00006D82BB162460B42ADD104325B00FAE742
:105FC000D5F80880D8F8043023F0030BA34504D398
:105FD000C4EB0B030F2B00F39F80084E08EB0B0262
:105FE000336804EB030AD5F80834013308D10AF109
:105FF000100A0DE030250020F40300203425002095
:106000000AF5805A0AF10F0A2AF47F6A2AF00F0A69
:106010005046019204F0BAFF421C8146019A6CD0AE
:10602000904201D2A84568D1736890420AEB0301FF
:10603000716008D1C0F30B032BB9AB68DA444AF0A6
:1060400001025A604EE0D5F80834013303D13B4BCE
:10605000C3F8080402E0821A1144716010F00703CB
:106060001CBFC3F1080300EB0309CA4403F58053C6
:10607000CAF30B0ACAEB030A504604F087FF431C1D
:1060800004BF48464FF0000A7368C9EB0000504453
:10609000534440F00100A845C5F808907360C9F862
:1060A00004001FD0BBF10F0F03D80123C9F804303F
:1060B00023E0D8F80430ABF10C0B2BF0070B03F006
:1060C00001034BEA0303C8F80430052208EB0B0375
:1060D000BBF10F0F5A609A6004D9384608F10801E5
:1060E00003F01AF97368F26A934284BF144AD362C8
:1060F000326B934284BF124A1363AB685A6822F032
:106100000302A242C4EB020301D30F2B04DC384686
:1061100000F077F900260CE0AE6844F0010243F08D
:10612000010334447260AC606360384600F069F982
:106130000836304603B0BDE8F08F00BFF4030020FE
:1061400034250020830770B4C9B240D0541E2AB34E
:1061500003788B4223D0431C04E0FCB1057814463D
:106160008D421CD013F0030F184604F1FF3203F1E7
:106170000103F2D1032C14D8651E54B303788B426B
:106180000DD0421C002302E004788C4207D0AB42C1
:10619000104603F1010302F10102F5D1002070BCA9
:1061A000704741EA0126034646EA06461A68184641
:1061B0007240A2F1013525EA020212F0803F03F19C
:1061C0000403D9D1043C032C1846EFD8D4E7144675
:1061D000D0E72046E3E700BF032A70B414D940EAB1
:1061E00001039B0711D10C46034625681E68214612
:1061F000AE42184604F1040403F1040304D1043A46
:10620000032A18462146F0D8C2B105780C78A54279
:1062100004BF02F1FF32002306D00CE010F8015F4A
:1062200011F8014FA54206D1934203F10103F5D1C4
:10623000002070BC7047281B70BC70471046F8E700
:106240008842F0B410D98C18A0420DD28518531E84
:1062500042B121462A4611F8014D013B02F8014D99
:106260005C1CF8D1F0BC70470F2A44D940EA010306
:106270009B0744D1A2F110073F0900EB0716103627
:106280000C4603462568103343F8105C65681034EB
:1062900043F80C5C54F8085C43F8085C54F8045C60
:1062A00043F8045CB342EDD17B1C02F00F0C1B01E0
:1062B000BCF1030F1944034423D90E461D4664461E
:1062C00056F8047B043C032C45F8047BF8D8ACF169
:1062D000040424F00304043402F0030223442144A0
:1062E000002ABFD01A4411F8014B03F8014B934226
:1062F000F9D1F0BC70470346002AF3D1B2E7034658
:10630000F0E76246002AEDD1ACE700BF032AF0B403
:10631000C9B208D82AB10244034603F8011B9342CC
:10632000FBD1F0BC704784070244034603D003F856
:10633000011B9F07FBD10C02D51A6718072D07EB2D
:10634000074710DC032DC8BF1C4605DD44F8047B5D
:10635000151B032D2346F9DC9342E2D203F8011BFF
:106360009342FBD1DDE75E0718BF1D4606D02B46E2
:1063700043F8047B5E071D46F9D1D51A0C447F2DE6
:1063800004EB044423DD1C605C609C60DC601C61E9
:106390005C619C61DC611C625C629C62DC621C630F
:1063A0005C639C63DC631C645C649C64DC641C65EF
:1063B0005C659C65DC651C665C669C66DC661C67CF
:1063C0005C679C67DC678033D51A7F2DDBDC1F2D73
:1063D0000ADD1C605C609C60DC601C615C619C612F
:1063E000DC612033D51AF2E7072DABDD1E463460A1
:1063F00074600836951B072D3346F8DCA2E700BF12
:106400007047704770B5144C06462568AB6BE3B90E
:106410001820FFF781FC2368A863996B43F20E33C1
:106420000B804AF6CD334B8041F234238B804EF201
:106430006D63CB804DF6EC630B8105234B810B2301
:106440008B8101220023C1E90423236830469B6B22
:106450000021C3E9040170BD0003002038B51A4CC7
:106460002568AB6BE3B91820FFF756FC2368A863D7
:10647000996B43F20E330B804AF6CD334B8041F2D9
:1064800034238B804EF26D63CB804DF6EC630B8131
:1064900005234B810B238B8101220023C1E90423B7
:1064A00023680A4C996B0A4B0A694869544303FBF9
:1064B0000040A2FB03230132034443F10003C1E97E
:1064C000042323F0004038BD000300202DF4515870
:1064D0002D7F954C0A46034903460868194600F08B
:1064E00003B800BF000300202DE9F74F81460C469A
:1064F00029B9114603B0BDE8F04FFFF71DBC01926A
:10650000FFF77EFF019A54F8045C02F10B07162F87
:10651000A4F1080825F0030603D937F0070701D5D1
:1065200002E01027974204D2A34B0C221A600020ED
:1065300083E1BE4280F25981A04908EB0603D1F8FD
:1065400008E08B467345586805D020F001011944D6
:106550004968C90725D420F00300734500EB060104
:1065600017D107F1100C61451DDBC91B08EB0705AE
:1065700041F00101CBF80850696054F8043C4846EA
:1065800003F001031F4344F8047CFFF73AFF204661
:1065900053E1B94207DBDA689B680E46DA60936024
:1065A00023E100200346E90700F1CB8054F8085CA2
:1065B000C5EB0805696821F0030101EB060A002B11
:1065C00000F08A8073454DD10AEB000307F11001FA
:1065D0008B42C0F28180A846EA6858F8081FCA605A
:1065E0009160321F242A26D8132A1CD921681B2A1D
:1065F000A9606168E96003D805F11002083413E06E
:10660000A168242A2961E168696103D005F11802B3
:10661000103409E022691834AA6154F8041C05F109
:106620002002E96100E04246216811606168516022
:10663000A168916005E0404621460193FFF700FE06
:10664000019BDB1BEA1943F00103CBF808205360E0
:106650006B68484603F001031F436F60FFF7D1FEEC
:106660004046EAE00AEB000BBB4535DBDA689B6885
:106670002846DA60936050F8082FEB68D3609A6080
:10668000321F242A23D8132A1AD923681B2AAB6065
:106690006368EB6003D805F11000083410E0A368CC
:1066A000242A2B61E3686B6103D005F118001034D4
:1066B00006E0236905F12000AB6163691834EB61E2
:1066C0002368036063684360A368836002E0214637
:1066D000FFF7B6FD5E462EE0BA4532DB284650F89D
:1066E000082FEB68D3609A60321F242A25D8132A1A
:1066F0001AD923681B2AAB606368EB6003D805F1E5
:106700001000083410E0A368242A2B61E3686B6151
:1067100003D005F11800103406E0236905F12000CC
:10672000AB6163691834EB6123680360636843609D
:10673000A36883605646A84657E02146FFF780FDD0
:10674000F8E748461146FFF7F7FA0546002847D014
:1067500054F8043CA0F1080223F0010343449A4298
:1067600005D150F8043C23F003031E443DE0321FE2
:10677000242A2ED8132A23D923681B2A036063688E
:10678000436004D800F1080304F108021AE0A3688A
:10679000242A8360E368C36004D000F1100304F18D
:1067A00010020FE0236904F118020361616900F12E
:1067B0001803416106E000BF30250020F4030020EB
:1067C00003462246116819605168596092689A60C0
:1067D00002E02146FFF734FD4846214602F09CFDC9
:1067E0004846FFF70EFE284627E0F31B0F2BD8F88C
:1067F000042013D902F0010208EB0701174343F00C
:106800000102C8F804700B444A605A68484642F0D6
:1068100001025A60083102F07FFD09E002F0010236
:106820003243C8F804204644736843F001037360A0
:106830004846FFF7E6FD08F1080003B0BDE8F08F19
:106840000CB410B5174A0C1E03469CB0106805DA4C
:10685000154B8B221A604FF0FF301EE00293069317
:1068600014BF04F1FF3323464FF4027204930793DD
:106870004FF6FF73ADF81420ADF8163002A91FAB28
:106880001E9A019300F0EAFD431C02DA064B8B22AC
:106890001A6014B1029B00221A701CB0BDE81040AF
:1068A00002B07047000300203025002010B5B1F978
:1068B0000E000C4611461A4604F091FB002803DB3B
:1068C000636D0344636510BDA38923F48053A381E2
:1068D00010BD10B5B1F90E000C4611461A4604F071
:1068E0007CFB431CA38903D123F48053A38110BDF7
:1068F00043F48053A381606510BD70B51E468B893B
:106900001546DA050C4605D5B1F90E000222002124
:1069100004F063FBA389B4F90E0023F48053A38130
:1069200029463246BDE8704004F010BBB1F90E00B4
:1069300004F050BB002310B504460360436083603D
:1069400081814366C28103614361836119465C3082
:106950000822FFF7DBFC054B24626362044BA36251
:10696000044BE362044B236310BD00BFAD68000815
:10697000FB680008D36800082D690008C9B2F0B4AC
:10698000002947D085070FD00278002A3FD09142D6
:106990003ED0431C05E013F8012B002A37D091426A
:1069A00036D09A071846F6D1036841EA012747EA2C
:1069B000074783EA0702A2F10135A3F1013425EA72
:1069C000020224EA0303134313F0803F11D1021D96
:1069D000104652F8043B83EA0704A4F10136A3F100
:1069E000013526EA040425EA0303234313F0803F1C
:1069F000EED00378002B39D0994209D0431C01E036
:106A0000914205D0184613F8012B002AF8D1104600
:106A1000F0BC704784070BD00378002BF8D0431CE0
:106A200003E002780133002AF2D099071846F8D122
:106A30000368A3F1013222EA030313F0803F0AD175
:106A4000031D184653F8042BA2F1013121EA02027A
:106A500012F0803FF5D00378002BD9D0431C1A7870
:106A600018460133002AFAD1F0BC70471846CFE728
:106A700010F8012B11F8013B012A28BF9A421CBFD4
:106A8000D01A704780EA010212F0030F3AD110F0D9
:106A9000030220F0030021F0030150F804CB08BFEB
:106AA00051F8043B0DD082F003024FEAC2026FF0AE
:106AB0007F4323FA02F251F8043B4CEA020C43EA0A
:106AC000020300BFACF101329C4501BF22EA0C0277
:106AD00012F0803F50F804CB51F8043BF2D04FEA5B
:106AE0000C604FEA1C2C012828BFB0EB036F08BFD5
:106AF0001B0AF4D003F0FF034FEA1060A0EB030081
:106B0000704700BF10F0030F0AD010F8012B11F8E6
:106B1000013B012A28BF9A42F4D0A2EB0300704740
:106B20004DF8045D4DF8044D4FF0010242EA022297
:106B300042EA024201F0030C21F0030150F8044B39
:106B400051F8045BBCF1020F26D04BD824F07F4CE7
:106B5000BCEB152FA4EB020323EA04030DD113EAC7
:106B6000C21308BF51F8045B0AD18CEA040CBCEBD9
:106B7000056F0CD150F8044BE8E74FEA15255CE0AF
:106B800033F07F4352D10D784FEA146C55E04FEA51
:106B9000146C05F0FF0550E04FEA044CA4EB02032F
:106BA0004FEA1C4C23EA0403BCEB154F17D113EA40
:106BB000C21308BF51F8045B07D18CEA040CBCEB8C
:106BC000054F08D150F8044BE6E71B042ED10D8881
:106BD0004FEA144C31E04FEA05454FEA144C4FEAB6
:106BE00015452AE004F0FF0CBCEB156FA4EB020383
:106BF00023EA04030DD113EAC21308BF51F8045B62
:106C00000AD18CEA040CBCEB052F0AD150F8044BD6
:106C1000E8E74FEA156510E014F0FF0F06D051F8D1
:106C2000045B4FEA142C25F07F4506E04FF000008E
:106C30005DF8044B5DF8045B70470CF0FF0205F053
:106C4000FF00012828BF904204BF4FEA1C2C2D0AE8
:106C5000F3D0A2EB00005DF8044B5DF8045B7047D5
:106C600080EA0102844612F0030F4FD111F0030FA6
:106C700032D14DF8044D11F0040F51F8043B0BD004
:106C8000A3F101329A4312F0803F04BF4CF8043B59
:106C900051F8043B16D100BF51F8044BA3F1013267
:106CA0009A4312F0803FA4F101320BD14CF8043B1F
:106CB000A24312F0803F04BF51F8043B4CF8044B50
:106CC000EAD023460CF8013B13F0FF0F4FEA3323C1
:106CD000F8D15DF8044B704711F0010F06D011F8A0
:106CE000012B0CF8012B002A08BF704711F0020F8E
:106CF000BFD031F8022B12F0FF0F16BF2CF8022B79
:106D00008CF8002012F47F4FB3D1704711F8012B9B
:106D10000CF8012B002AF9D1704700BF20F00301C5
:106D200010F00300C0F1000051F8043B00F1040C26
:106D30004FEACC0C6FF000021CBF22FA0CF2134396
:106D400040F2011C4CEA0C4CA3EB0C0222EA0302B9
:106D500012EACC1204BF51F8043B043002BFA3EB8B
:106D60000C029A4312EACC1204BF51F8043B0430DF
:106D7000EAD092FAA2F2B2FA82F200EBD2007047A5
:106D800030B4002A4AD040EA010313F003032DD1A6
:106D9000032A2BD904680D68AC4227D1043A3DD0B0
:106DA000A4F1013525EA040414F0803F3CD10C46DF
:106DB00003460EE05B686468A3F10135A34225EA4F
:106DC000030513D1043A29D015F0803F29D1034699
:106DD0000C46032A00F1040001F10401EAD8551E13
:106DE0002AB918792279801A30BC7047551E037869
:106DF0000A7893421AD1DDB1B3B16C1C0C448B1CE0
:106E0000014604E0A3420CD001330028ECD011F875
:106E1000010F13F8012C9042F4D0E4E7104630BC87
:106E20007047002030BC70471846DDE71846DAE7A7
:106E30002846D9E738B502460C46002511B909E0C5
:106E4000421C054610462146FFF798FD0028F7D161
:106E5000284638BDBDE83840FFF790BD4FF0010C23
:106E60002DE9F003644600254FF0FF3663198B428D
:106E700000EB06070DD23F5D10F80380B8452FD216
:106E80001D460124C6EB030C63198B4200EB060779
:106E9000F1D34FF00109C2F800C04C4600254FF075
:106EA000FF376319994200EB070C0ED91CF804C098
:106EB00010F80380E0451AD91D460124C7EB0309E9
:106EC0006319994200EB070CF0D801370136B7423D
:106ED0002ABF38463046C2F80090BDE8F00370473C
:106EE0000CD04FF0010C2E4664466544BEE70CD032
:106EF0004FF001092F464C464D44D2E7644518BF78
:106F00000134B3D11D460124B0E74C4518BF01340C
:106F1000C7D11D460124C4E72DE9F04FADF2244D41
:106F2000164680460C461046194607AA1D46FFF72E
:106F300095FF07AB03900DF21C4243F8045F9342A8
:106F4000FBD16F1E002308A835B1F25CF91A01339A
:106F5000AB4240F82210F8D1079930463144039AE9
:106F6000FFF73AF900287FD1DDF80CC003460CF199
:106F7000FF3CCDF808C0B444CDF810C0DDF80CC01B
:106F80008246CCF1010C20466F1ECDF814C01C4681
:106F900001960AEB0506321A00214044FFF7D2F8A9
:106FA00000285CD1002E5AD008EB060313F8013CF0
:106FB00008A951F823304BB12CB1079A93423CBF3A
:106FC000C2EB050304469A443046E2E7039A944232
:106FD00028BF2246BA4212D2019908EB0A0311F8DF
:106FE00002C0985C1144844506D032E011F8010FCC
:106FF00013F802C084452CD10132BA42F6D3039B68
:1070000002989C4228BF18461CD2DDF808C008EB45
:107010000A0313F80C20DDF810C09CF80010914210
:1070200040F08680DDF804B06246A34406E012F822
:10703000019D13F801C0E14504D108465A4500F10D
:10704000FF31F4D10134844274D8079CA2442C1B34
:10705000BAE7DDF814C00024E2449244B4E700200B
:107060000DF2244DBDE8F08FDDF80CC0DDF80CB05A
:10707000CCEB0503634538BF6346013307930CF13E
:10708000FF33B444CDF808C0DDF80CC04FF0000A5F
:10709000CCF1010C0DF120096F1E0193CDF810C049
:1070A00020460AEB0504221A00214044FFF74AF863
:1070B0000028D4D1002CD2D008EB040313F8013CF3
:1070C00059F8233063BBBB4508EB0A0015D2DDF845
:1070D00008C010F80B309CF800209A4218BF5B469D
:1070E00021D1029A5B4605E012F8011F10F803C097
:1070F0008C4518D10133BB42F6D3019B5A1CAFD04B
:10710000DDF804C016F80C1010F80C20914206D1DE
:1071100013F1FF33A4D3F15CC25C9142F8D0079B1A
:107120009A442046BDE7DDF810C0E2449A44F8E7EF
:10713000039887E708EB0A0092E700BF2DE9F04FBC
:10714000037887B082460D46002B00F0FD800A7858
:107150009AB184460131012702E011F8012B5AB19E
:10716000934214BF002707F001071CF8013F0C46AB
:10717000002BF2D1237813BB1FB1504607B0BDE8F6
:10718000F08F0AF101002978FFF7F8FB641B012C4E
:1071900018BF0028804608BF0046EFD0A244D04563
:1071A00094BFC8EB0A0601261F2C0CD94046314675
:1071B0002A462346FFF7B0FE07B0BDE8F08F002057
:1071C00007B0BDE8F08F214605AA2846FFF746FE26
:1071D00005998146024629442846FEF7FDFF00280E
:1071E00057D1034609F1FF30C9F10101019028444C
:1071F0000290CDF800909A460391304699460AEBEA
:1072000004073A1A00214044FEF79CFF0028D6D11B
:10721000002FD4D0009B994528BF4B469C4213D9E0
:1072200008EB030212F80A10E85CEA18884240F002
:10723000858008EB0A0604E012F8011FF05C884222
:107240007CD101339C42F7D8009B01994B457ED9F4
:10725000029808EB0A0C1CF8013002789A4276D1A9
:10726000034605EB090B06E013F8016D1CF802005C
:10727000864204D111465B4501F1FF32F4D109F198
:107280000109894565D8059B9A44C3EB0409384632
:10729000B5E7C9EB04034B4538BF4B4601330593B3
:1072A00008EB09030093C9F10103019309F1FF33CE
:1072B0004FF0000A05EB090B30461F460AEB0406A7
:1072C000321A00214044FEF73DFF00287FF477AFDB
:1072D000002E3FF474AF4C4598BF08EB0A0014D958
:1072E00000989BF8002010F80A309A4221D15A46A3
:1072F0004B4608EB0A0005E012F8011F10F803C026
:107300008C4517D101339C42F6D8791C3B463FF49B
:1073100035AFE95DC25D914207D113F1FF33FFF450
:107320002DAFE95CC25C9142F7D0059B9A44304690
:10733000C4E74B46019A92449A44F8E703994FF008
:1073400000098A449A44A2E70C46012712E70099F3
:1073500095E708EB0A0011E73E4B2DE9F047D3F81B
:10736000008005462B4613F8014B08EB040676789F
:1073700006F0080606F0FF070EB11D46F2E72D2CB9
:1073800003D1AB1C6C78012703E02B2C04BF6C7875
:10739000AB1C32F010050DD1302C08D11D7805F052
:1073A000DF05582D4FD15C781022023302E0002A0D
:1073B00008BF0A22002F0CBF6FF000454FF00045B8
:1073C000B5FBF2F9002602FB195A354608EB040C0E
:1073D0009CF801C01CF0040F01D0303C0BE01CF005
:1073E000030C1BD0BCF1010F14BF4FF0570C4FF032
:1073F000370CCCEB0404944210DAB6F1FF3F0AD00C
:107400004D4506D801D1544503DC02FB0545012654
:1074100001E04FF0FF3613F8014BD7E7721C0BD198
:107420000D4A002F4FF022000CBF6FF000454FF0C7
:107430000045106021B90AE007B16D4239B106B1CB
:10744000581E086003E0002A08BF0822B2E7284659
:10745000BDE8F08704080020302500202DE9F04F1A
:107460001F468B89B9B01D0681468846144613D441
:10747000002328AE4FF0FF320A9423AC07960993FD
:1074800008930C930F930E938DF834301092119350
:1074900004930393059418E00B69002BE8D1AFF334
:1074A00000800028E4DA4FF0FF3000F0ACBE0C9B07
:1074B000391D13F0200F00F0BF81039C3868E517D9
:1074C00022462B46C0E900230F460A9A0A9B1978E8
:1074D00011B99C1A05D11CE02529FAD001330A9371
:1074E000F4E7099B86E8140023440993089B0133C1
:1074F000072B089301DC083608E04846414607AAF6
:1075000000F0C4FE002840F0788628AE039D254494
:1075100003950A9B1A78002A00F0688601330A93C3
:107520004FF0FF3400230C938DF834300293109405
:107530000A232B2120200A9A551C0A9512780B92B7
:107540000B9AA2F12005582D00F29C820FF2040C38
:107550005CF825F0B9760008857A0008857A00087D
:10756000C9760008857A0008857A0008857A0008BF
:10757000857A0008857A0008857A0008D1760008A7
:10758000ED760008857A0008E5760008F3760008B5
:10759000857A0008377700083F7700083F770008B2
:1075A0003F7700083F7700083F7700083F770008E3
:1075B0003F7700083F7700083F770008857A00088A
:1075C000857A0008857A0008857A0008857A00089F
:1075D000857A0008857A0008857A0008857A00088F
:1075E000857A0008AB770008FD770008857A0008E7
:1075F000FD770008857A0008857A0008857A0008FA
:10760000857A000861770008857A0008857A000885
:107610005D780008857A0008857A0008857A000878
:10762000857A0008857A0008F5780008857A0008D0
:10763000857A000835790008857A0008857A00087F
:10764000857A0008857A0008857A0008857A00081E
:10765000857A0008857A0008857A0008857A00080E
:1076600091770008B3770008FD770008FD770008E0
:10767000FD77000869770008B3770008857A00086D
:10768000857A000871770008857A0008AF740008D1
:10769000657800089F78000887770008857A0008D9
:1076A000BB780008857A0008FD780008857A000814
:1076B000857A00082F7900089DF83420002A7FF48D
:1076C0003AAF8DF8340036E70C9A42F001025DE0E3
:1076D0003A1D3F68002F029701DB17462BE77D42DA
:1076E000029517460C9A42F004024FE08DF83410D0
:1076F00021E70A9A551C0A9512782A2A0B9201D082
:10770000002506E03D683A1D002D1095E5DA10943D
:10771000E3E70B9A303A092A09D803FB05250A9AB0
:1077200002F1010CCDF828C012780B92F1E745EA7E
:10773000E575109504E70C9A42F0800226E00025DA
:1077400002950B9A029D303A03FB05250A9A029591
:10775000551C0A9512780B92303A092AF1D9EFE6B6
:107760000C9A42F0080211E00C9A42F040020DE03F
:107770000A9D2A786C2A0C9A02D101350A9503E0F9
:1077800042F0100202E00C9A42F020020C92D2E683
:1077900012AB0E933B684FF0000A8DF8483001237E
:1077A0000F938DF834A0043787E10C9B43F010034E
:1077B0000C930C9A910607D5073727F0070303F1BE
:1077C0000807D3E900450DE012F0100F07F104039C
:1077D00001D03C6804E03C6812F0400F18BF24B2AE
:1077E000E5171F46002C75F1000C80F2D0802D2388
:1077F000644265EB45058DF83430C8E0073727F063
:10780000070303F10807D3E90023CDE92023A54BA3
:10781000002B00F0458148460AA91CAA12AB00F0D3
:10782000D5FD002800F04881B8F80C3043F0400343
:10783000A8F80C3000F0E1BCDA0603D53B68039DE4
:107840001D6041E613F0400F18BFDDF80CC03B6827
:107850000ABF039CA3F800C01C6035E60C9B43F0F4
:1078600010030C930C9A12F0200008D0073727F071
:10787000070303F10807D3E90045002383E012F072
:10788000100307F1040106D112F0400203D03C8836
:1078900000250F4677E03C6800250F46EDE70C9B7E
:1078A000814943F002030C93804B3C681193782389
:1078B00000250B930437049164E0109A4FF0000AFE
:1078C000386852458DF834A007F104070E900DDB9F
:1078D0005146FEF737FC109B30B10E9A801A984241
:1078E0000F9040F3EA80CBE00F93E5E0FFF716FA44
:1078F0000F90E2E00C9B43F010030C930C9A93065C
:1079000007D5073727F0070303F10807D3E9004538
:107910000BE012F0100F07F1040303D1550601D557
:107920003C8800E03C6800251F4601232BE05E4CAC
:10793000049401E05E4D04950C9B9C0607D5073727
:1079400027F0070101F10807D1E900450BE013F02A
:10795000100F07F1040103D1580601D53C8800E05F
:107960003C6800250F46D9070CD554EA050C09D010
:107970004E49504843F00203782A14BF02460A4693
:1079800011920C93022300228DF8342000E0012391
:10799000DDF840A0BAF1000F06DA012B2AD0022B45
:1079A0004BD00DF16F030AE00C9A22F080010C918C
:1079B00054EA0501F1D1BAF1000FEED150E0E2082E
:1079C00042EA4572E80804F00701054614463031E2
:1079D00054EA05029C46197003F1FF33EFD10C9A6B
:1079E0006046D40747D5302945D09C46302300F85F
:1079F000013C40E0002D08BF0A2C03D230348DF842
:107A00006F4033E00DF16F0B204629460A22002318
:107A1000CDF804B002F0D2F930320BF8012920463B
:107A200029460A22002302F0C9F904460D4654EA09
:107A30000501DDF804C0E7D11DE00DF16F020499E6
:107A400004F00F03CB5C944602F80139230943EAA2
:107A5000057329091C460D4654EA0503EFD10AE0D7
:107A60003BB9D00705D530238DF86F300DF16F0C81
:107A700001E00DF1700C1CABCDF838C0CCEB03036A
:107A80000F931AE0002A00F0B18312AB0E934FF06F
:107A9000000A01238DF848200F938DF834A00CE0E4
:107AA0009A460AE0CD83000819A70108C2A0010880
:107AB00008A701082AA7010882460F9C9DF83430C8
:107AC000A245A8BF544603B101340C9B990748BF97
:107AD000023413F0840F35D1029D2B1B002B31DDB6
:107AE000A04D4FF0100B102B0999089A16DD0132AA
:107AF0001031072A86E820080991089201DC08362F
:107B00000AE04846414607AA019300F0BFFB019BEB
:107B1000002840F0728328AE103BE4E7914886E8E5
:107B200009000B440993531C072B089301DC08360A
:107B300008E04846414607AA00F0A8FB002840F0AC
:107B40005C8328AE9DF83420C2B138AB03F8C52D54
:107B5000336001237360099B01330993089B013350
:107B6000072B089301DC083608E04846414607AA7F
:107B700000F08CFB002840F0408328AE0C9B9A0755
:107B800016D5119B336002237360099B023309935E
:107B9000089B0133072B089301DC083608E04846B0
:107BA000414607AA00F072FB002840F0268328AE69
:107BB0000C9B03F08403802B35D1029D2B1B002BE3
:107BC00031DD694D4FF0100B102B0999089A16DD25
:107BD00001321031072A86E820080991089201DC59
:107BE00008360AE04846414607AA019300F04EFBDA
:107BF000019B002840F0018328AE103BE4E75A487F
:107C000086E809000B440993531C072B089301DCF9
:107C1000083608E04846414607AA00F037FB00282E
:107C200040F0EB8228AE0F9BC3EB0A0ABAF1000FBB
:107C300031DD4D4D4FF0100BBAF1100F099A089B32
:107C400015DD01331032072B86E8200809920893CE
:107C500001DC083608E04846414607AA00F016FB5A
:107C6000002840F0CA8228AEAAF1100AE4E70133E6
:107C70003D495244072B86E802040992089301DC2F
:107C8000083608E04846414607AA00F0FFFA0028F7
:107C900040F0B38228AE0C9A099D12F4807F06D181
:107CA0000E9B33600F9B1D447360099550E20B9B44
:107CB000652B40F3C581DDE9200100220023FDF79B
:107CC00047FE002860D0294B336001231D447360B8
:107CD000089B09950133072B089301DC083608E05F
:107CE0004846414607AA00F0D1FA002840F08582B4
:107CF00028AE279B229A9A4203DB0C9BDB0740F1BC
:107D000029821C9B099A33601E9B7360134409935C
:107D1000089B0133072B089301DC083608E048462E
:107D2000414607AA00F0B2FA002840F0668228AE69
:107D3000279B03F1FF3BBBF1000F40F30B820A4D81
:107D40004FF0100ABBF1100F099A089B40F36C81A9
:107D500001331032072B86E820040992089307DCD0
:107D600008360EE0149D0108249D01082DA7010886
:107D70004846414607AA00F089FA002840F03D82B3
:107D800028AEABF1100BDDE7229B002B00F38680C1
:107D9000A34B336001231D447360089B0995013395
:107DA000072B089301DC083608E04846414607AA3D
:107DB00000F06CFA002840F0208228AE229B2BB9FC
:107DC000279B1BB90C9BDD0740F1C4811C9B099AC2
:107DD00033601E9B736013440993089B0133072B88
:107DE000089302DC06F1080308E04846414607AA6A
:107DF00000F04CFA002840F0008228AB229AC2F131
:107E0000000ABAF1000F30DD864D1026BAF1100FCE
:107E10000999089A15DD01321031072A83E86000BC
:107E20000991089201DC083308E04846414607AA58
:107E300000F02CFA002840F0E08128ABAAF1100AEB
:107E4000E4E7013277485144072A83E801040991A5
:107E5000089201DC083308E04846414607AA00F0D2
:107E600015FA002840F0C98128AB0E9A09991A60CA
:107E7000279A5A600A440992089A0132072A0892FE
:107E800009DD4846414607AA00F000FA002840F004
:107E9000B48128AE5EE103F108065BE1269B279AD8
:107EA000DDF838A09A42B4BF93469B46BBF1000F61
:107EB00013DD089B5D440133072B86E8000C099510
:107EC000089301DC083608E04846414607AA00F05E
:107ED000DDF9002840F0918128AE269A2BEAEB7359
:107EE000D31A002B31DD4F4D4FF0100B102B099999
:107EF000089A16DD01321031072A86E82008099118
:107F0000089201DC08360AE04846414607AA019378
:107F100000F0BCF9019B002840F06F8128AE103BB7
:107F2000E4E7404886E809000B440993531C072BFB
:107F3000089301DC083608E04846414607AA00F0ED
:107F4000A5F9002840F0598128AE279B229A269D4A
:107F50009A42554402DB0C9BD80716D51C9B099A04
:107F600033601E9B736013440993089B0133072BF6
:107F7000089301DC083608E04846414607AA00F0AD
:107F800085F9002840F0398128AE279B229A9A442F
:107F9000C5EB0A0AC2EB030BDA45B8BFD346BBF107
:107FA000000F14DD099B86E820085B440993089BB9
:107FB0000133072B089301DC083608E048464146A8
:107FC00007AA00F063F9002840F0178128AE229B31
:107FD000279A2BEAEB7BD31ACBEB030BBBF1000FF9
:107FE00040F3B8800F4D4FF0100ABBF1100F099A03
:107FF000089B19DD01331032072B86E82004099213
:10800000089301DC083608E04846414607AA00F01C
:108010003DF9002840F0F18028AEABF1100BE4E709
:108020002DA70108249D010878495A4486E80208D2
:1080300009920133072B08933FF723AF083689E0F5
:10804000279BDDF838A0012BC6F800A0089B01DCB7
:10805000D1076FD5012213441544072B726009958F
:10806000089301DC083608E04846414607AA00F0BC
:108070000DF9002840F0C18028AE1C9B099A33609E
:108080001E9B736013440993089B0133072B0893CD
:1080900001DC083608E04846414607AA00F0F6F839
:1080A000002840F0AA8028AE0023DDE9200100224C
:1080B000FDF74EFC279B48B90AF101023260099A8C
:1080C000013B736013440993089B26E003F1FF3BD7
:1080D000BBF1000F35DD4D4D4FF0100ABBF1100F15
:1080E000099A089B14DD01331032072B86E820041F
:1080F0000992089301DC083607E04846414607AA82
:1081000000F0C4F8002878D128AEABF1100BE5E7F9
:108110003E495A4486E8020809920133072B089326
:108120000EDD4846414607AA00F0B0F8002864D1A9
:1081300028AE06E001221544726009951344EDE76C
:108140000836259B099A059D736013443560099391
:10815000089B6EE70C9B5A070AD4039D0299099B62
:108160008C42ACBF2D196D180395002B39D032E02D
:10817000029DC4EB050BBBF1000FEEDD244D4FF06B
:10818000100ABBF1100F099A089B13DD013310325E
:10819000072B86E820040992089301DC083606E0E4
:1081A0004846414607AA00F071F830BB28AEABF153
:1081B000100BE6E7013316495A44072B86E80208FC
:1081C00009920893C9DD4846414607AA00F05EF8C7
:1081D0000028C2D011E04846414607AA00F056F8F0
:1081E00058B90023089328AEFFF76FB9099B23B154
:1081F0004846414607AA00F049F8B8F80C305B063B
:108200003FF551A9039839B0BDE8F08F249D0108CE
:10821000149D010810B5141E9AB005DA124B8B227A
:108220001A604FF0FF301DE04FF40272009104918C
:10823000ADF80C2014BF04F1FF3121464FF6FF7258
:1082400002910591ADF80E2069461A461C9BFFF776
:1082500005F9431C02DA044B8B221A6014B1009B0F
:1082600000221A701AB010BD3025002073B500939B
:10827000054B06460D461446186831462A462346E5
:10828000FFF7C8FF02B070BD000300202DE9F047E2
:10829000824690680C461546D2F8008060B34FF0D5
:1082A00000094E4636B9D8F80090D8F8046008F1B5
:1082B0000808F7E7A768BE420DD3A38903F49063CB
:1082C0003BB1504621463246AFF300800028374686
:1082D00015DBBE4200D237463A4620684946FDF7D4
:1082E000AFFFA368DB1BA36023681F44AB68276054
:1082F000981BA8600028D6D16860BDE8F087A389E4
:108300004FF0FF3043F04003A3810023AB606B606C
:10831000BDE8F0872DE9F843294D06462C680F4645
:10832000914698460CB9274C2C6063681F2B12DDD0
:10833000254B1BB94FF0FF30BDE8F8838C20FDF7CB
:10834000EBFC04460028F5D02A6800230260436055
:108350002860C0F888304EB3D4F8880078B91A4B3A
:10836000002BE7D04FF48470FDF7D6FC0028E1D055
:108370000023C0F80031C0F80431C4F888006568F3
:10838000012340F8259000EB850203FA05F5D0F8AB
:108390000031022E43EA0503C0F80031C2F88080A4
:1083A00004D1D0F804311D43C0F8045163680020A3
:1083B0005A1C0233626044F82370BDE8F88300BFA2
:1083C0007C260020F0250020195D00082DE9F04FE3
:1083D0008BB015460C4601F089F800682860FEF75E
:1083E0009DFC0023A860AB616B62AB62D5E9040120
:1083F00001F090FCA8B1D5E9040100220023FDF7AB
:10840000B1FA08B12D2323736368472BD4BF844B83
:10841000844B236103236361A36823F08003A3607B
:10842000F9E0D5E9040101F084FC6368A26850B169
:10843000472BD4BF7C4B7D4B22F08002236103236A
:108440006361A260E7E0A169481C01D1062105E053
:1084500023F02000472802D109B90121A16142F48B
:108460008072A2606E6923F02003002E3246B6BFF0
:108470002D22002206F10046462BD5F81090D4F8A4
:1084800018A0059204D0452B04D10AF1010A01E09D
:10849000032200E00222A9690AAB43F80C1D0093F5
:1084A0000DF1200B06AB0193CDF808B053464846BA
:1084B000314600F04CF9079B0746AB61636823F037
:1084C0002003472B0DD1A268D2070AD46168089A0D
:1084D00021F02003D21B472B2761AB69EA622DD123
:1084E00023E0462B07EB0A080ED13B78302B09D14D
:1084F0004846314600220023FDF72AFA10B9CAF196
:108500000103AB61AB699844484631460022002321
:10851000FDF71EFA08B1CDF820803022089B4345B4
:10852000D4D2591C08911A70F8E7DE1C02DBA0694E
:10853000834201DD023900E06721616061686529DD
:1085400040DC013B002BAB61297705F11E0003DA0B
:108550005B4201462D2601E001462B26092B6E7752
:108560001CDD0BF106064FF00A0C93FBFCF70CFB2D
:108570001733092F03F13003304606F801393B4623
:10858000F3DC07F1300300F8013D0DF127039842B9
:108590000AD210F8016B01F8016BF8E730260146AA
:1085A000334401F8026B437005F11C03C91A696278
:1085B000012A1144616102DCA368DD0727D501317E
:1085C000616124E0662912D1002BA26907DD636195
:1085D00012B9A168C80719D51A44013215E012B9B9
:1085E000A168C90701D502320FE001220DE09342D4
:1085F00005DBA2686361D20708D55A1C05E0002B91
:10860000D4BFC3F1020101210A446261AB62059B40
:108610000BB12D23237300200BB0BDE8F08F00BFFA
:108620002FA7010833A7010837A701083BA70108B6
:108630002DE9F74F03690C698046A342C0F283809D
:10864000013CA20001F1140700F1140591460092CB
:1086500057F824602A44019255F824200136B2FBD1
:10866000F6F6B944002E3BD04FF0000E3A462846AD
:10867000F34652F804CB03681FFA8CFA4FEA1C4CFD
:108680000AFB06EA0CFB06FC0CEB1A4C1FFA8AFAF2
:10869000CAEB0B0B4FEA1C4E1FFA83FA1FFA8CFC35
:1086A000DA44CCEB134C0CEB2A4C1FFA8AFA4AEA58
:1086B0000C4A4A454FEA2C4B40F804ABD9D9009AF2
:1086C000AB586BB9019A131FAB421A4602D8C8F8CF
:1086D000104005E01268043B002AF8D1013CF3E7A2
:1086E000404601F05CF900282BDB01362B460020C8
:1086F00057F804CB1A681FFA8CF1411A1FFA82FA54
:108700004FEA1C4C5144CCEB124202EB214289B29D
:1087100010144F4541EA024243F8042BE8D955F8BA
:10872000242005EB840362B9043BAB421A4602D80D
:10873000C8F8104005E01268043B002AF8D1013C5B
:10874000F3E7304600E0002003B0BDE8F08F2DE9EC
:10875000F04F9BB00F93A24B0E92D3F800A0259C34
:10876000DAF82450CDE9040145B91020FDF7D4FA18
:10877000CAF82400456085600560C560DAF82430D9
:10878000196861B15B6801224B6002FA03F350463D
:108790008B6000F0E2FEDAF8243000221A600599BE
:1087A000002905DA012321F000422360059201E04F
:1087B00000232360059F8B4A27F000431B0D1B05F8
:1087C00093421DD12499049A42F20F730B6042B96F
:1087D000854B864AC7F3130000280CBF1046184685
:1087E00000E08148269F002F00F04285C37813B136
:1087F00000F1080300E0C31C269F3B6000F038BD79
:10880000DDE904450022204629460023FDF7A0F8B3
:10881000804658B1249F01233B60269F002F00F023
:10882000248573483860013800F022BD19AB0093ED
:1088300018AB0193504622462B4601F09BF9C7F333
:108840000A5683465EB1C5F3130343F07F532046B7
:1088500043F44011A6F2FF36CDF854801CE0199B7A
:10886000189E1E446FF482639E4209DB04991F33F5
:1088700006F212409B1B21FA00F09F40384304E0AF
:108880005C48049A801B02FA00F0FCF783FD012784
:10889000A1F1F871013E15970022574BFCF73CFC03
:1088A00049A3D3E90023FCF7EBFD49A3D3E9002357
:1088B000FCF734FC044630460D46FCF77BFD46A32E
:1088C000D3E90023FCF7DCFD02460B46204629468F
:1088D000FCF724FC04460D46FDF76CF8294681465A
:1088E000002220460023FDF73DF858B14846FCF72A
:1088F00061FD02460B4620462946FDF729F808B9D6
:1089000009F1FF39B9F1160F0DD83C4B03EBC90340
:10891000D3E90001DDE90423FDF742F830B109F1A4
:10892000FF39002700E00127149700E01490189BFE
:108930009E1B013E099604D57742089700270997A8
:1089400001E000270897B9F1000F07DB099FCDF878
:1089500044904F44099700270C9708E0089FC9EB03
:1089600007070897C9F100070C97002711970E9F7A
:10897000092F45D8052FC4BF043F0E970E9FC8BFCF
:108980000025A7F10203D8BF0125032B3DD8DFE85E
:1089900003F0060F0204012702E0012709E0002787
:1089A0000D970F9F002F3ADD0B9707973B463BE053
:1089B00000270D970F9F4F440B9701373B460797B2
:1089C000012BB8BF01232FE061436F63A787D23F1C
:1089D000B3C8608B288AC63FFB799F501344D33FAE
:1089E000000300200000F07F48A701083FA701080E
:1089F0002EA70108EEFBFFFF0000F83FE09E0108F4
:108A0000012500270E970D9501E001270D974FF0E6
:108A1000FF370B970797002712230F9704E00127D2
:108A20000B9707973B460F97DAF8244000226260C5
:108A3000042101F114029A4204D86268490001320B
:108A40006260F6E75046616800F054FDDAF82430C1
:108A50002060079F1B680E2F0A9300F25981002D9A
:108A600000F05681B9F1000FDDE90423CDE91223AE
:108A700031DD9E4A09F00F034FEA291602EBC303CA
:108A8000F206D3E900450CD5DDE91201984B06F05A
:108A90000F06D3E90823FCF71DFE0327CDE90401E7
:108AA00000E00227DFF8488276B1F30708D5D8E95D
:108AB000002320462946FCF7E3FC013704460D4617
:108AC000761008F10808EFE7DDE9040122462B469D
:108AD000FCF700FE1BE0C9F10005DDB1834B05F09A
:108AE0000F0203EBC203DDE91201D3E90023FCF717
:108AF000C7FC7F4C2D1102274DB1EE0704D5D4E9F8
:108B000000230137FCF7BCFC6D100834F4E7CDE915
:108B1000040100E00227149BE3B1DDE904450022D3
:108B200020462946734BFCF71DFF98B1079989B180
:108B30000B9A002A40F3E88009F1FF33109329468D
:108B4000204600226C4BFCF79BFC0137CDE9040169
:108B50000B9D02E0079DCDF840903846FCF72AFCBB
:108B6000DDE90423FCF78CFC0022644BFCF7D6FA09
:108B70000646A1F15078CDB9DDE904010022604B31
:108B8000FCF7CAFA32464346CDE90401FCF708FF78
:108B9000002840F04482DDE90401324608F1004338
:108BA000FCF7E0FE002840F03382ADE04F4B0D991A
:108BB0006A1E03EBC20300294BD0D3E90023002037
:108BC0005049FCF787FD32464346FCF7A5FADDE93C
:108BD0000467CDE90401DDF8288039463046FCF70A
:108BE000E9FE0446FCF7E6FB02460B4630463946F2
:108BF000FCF792FADDE90423303408F8014B06460D
:108C00000F46FCF7AFFE002840F01D8332463B467E
:108C100000203849FCF780FADDE90423FCF7A2FEC6
:108C2000002840F0D4800A9AC2EB0803AB426BDA0A
:108C3000DDE904010022304BFCF722FC0022CDE9E3
:108C400004012D4B30463946FCF71AFC06460F4608
:108C5000C3E7D3E9000132464346FCF711FCDDE9E6
:108C60000467DDF82880CDE916010A9CA84439463E
:108C70003046FCF79FFE0546FCF79CFB02460B4680
:108C800030463946FCF748FA303504F8015B444574
:108C900006460F4622D100221A4BDDE91601FCF7E9
:108CA0003DFA02460B4630463946FCF779FE00286D
:108CB00040F08D80DDE9162300201249FCF72CFAE4
:108CC00002460B4630463946FCF74CFEE0B1A04662
:108CD00018F8013C013C302BF9D0B4E20022064BDD
:108CE000FCF7CEFB06460F46C1E700BFE09E010839
:108CF000D09F01080000F03F0000244000001C400D
:108D0000000014400000E03FDDE91223CDE9042318
:108D1000199B002B7CDBB9F10E0F79DC914B0F9F77
:108D200003EBC903002FD3E9004514DA079F002F96
:108D300011DC40F06C812046294600228A4BFCF76A
:108D40009FFBDDE90423FCF721FE079D2C4600284C
:108D500040F05F8166E1DDF82880DDE904672246A6
:108D60002B4630463946FCF7B5FCFCF723FE049051
:108D7000FCF720FB22462B46FCF782FB02460B4603
:108D800030463946FCF7C8F9049F024607F1300621
:108D90000A9F08F8016BC7EB0806079F0B46BE4207
:108DA00029D1FCF7BBF922462B4606460F46FCF7B5
:108DB000F7FD70B93046394622462B46FCF7C8FD10
:108DC000002800F04282049FF90702D43DE2DDF85A
:108DD00040904346984618F8012C013B392A06D1A9
:108DE0000A9F9F42F6D1302209F101093A701A78A0
:108DF00001321A7029E200225C4BFCF741FB002291
:108E0000002306460F46FCF7A3FD0028A7D01CE26E
:108E10000D9F002F30D00E9F012F0ADC159F17B138
:108E200003F2334302E0189BC3F136030C9D089E06
:108E300016E0079F7D1E0C9FAF4201DB7D1B06E005
:108E40000C9F0C95EB1B119F00251F441197079F4A
:108E5000002F03DA08990023CE1B01E0089E079B30
:108E6000089F50461F440897099F01211F440997F6
:108E700000F051FC044602E00C9D089E0D9C6EB172
:108E8000099F002F0ADD3B46089FB342A8BF334627
:108E9000FF1A0897099FF61AFF1A09970C9F002FCF
:108EA00020DD0D9FC7B1002D10DD21462A4650461A
:108EB00000F0D3FC04465A462146504600F034FCEC
:108EC00059460746504600F048FBBB460C9F7A1BAC
:108ED00008D05046594602E00C9A5046594600F0D8
:108EE000BCFC83465046012100F015FC119F05464D
:108EF000002F05DD294650463A4600F0AEFC0546F7
:108F00000E9F012F12DC049981B9059AC2F3130355
:108F100073B922F000473F0D3F0557B1089F013755
:108F20000897099F01370997012702E0002700E011
:108F3000049F119941B12B6905EB8303186900F077
:108F40009DFBC0F1200000E00120099B034413F0C9
:108F50001F030FD0C3F12002042A09DDC3F11C0353
:108F600009E000BFE09E010800001440000024401A
:108F700008D013461C33089A09991A4419440892D8
:108F80001E440991089A002A04DD5946504600F013
:108F9000B3FC8346099B002B05DD294650461A4643
:108FA00000F0AAFC05461499E1B15846294600F0A4
:108FB000F6FC002816DA59460A225046002300F033
:108FC000E3FA0D9A09F1FF3983464AB1214600239D
:108FD00050460A2200F0D8FA0B9B0446079301E0A2
:108FE0000B990791079A002A26DC0E9B022B23DDA2
:108FF0007AB929460522079B504600F0C5FA054676
:109000002946584600F0CBFC00280BDC01E0002587
:109010002C460F9FDDF828806FEA070909E0DDF88C
:1090200040902C460A9F312307F101083B7009F15B
:10903000010927460024F5E00D99002900F0AD80D4
:10904000002E05DD21465046324600F055FC044610
:109050009FB16168504600F04DFA2269064602321F
:1090600004F10C0192000C30FCF7CCFC5046314668
:10907000012200F041FC074600E02746049A0A9EC0
:1090800002F00102089229465846FFF7D1FA21461C
:1090900000F1300380465846029300F080FC3A46C7
:1090A00004902946504600F097FCC2688446029B13
:1090B00052B961465846CDF80CC000F070FC029BD6
:1090C0000246DDF80CC000E00122504661460392E2
:1090D000029300F042FA039A029B4AB90E9939B9F9
:1090E000089929B9392B2CD0049A002A1EDC1FE0DC
:1090F0000499002902DA002A06DC19E01BD10E9936
:10910000C9B90899B9B9F6E7594601225046029300
:1091100000F0F2FB2946834600F041FC0028029B48
:1091200002DC05D1DA0703D5392B0AD008F1310367
:1091300006F101086EE0002A06F1010805DD392B71
:1091400067D139233370013654E00A994646C1EBA2
:109150000802079906F8013C8A423BD059460A2288
:109160000023504600F010FABC4283462146504688
:109170004FF00A024FF0000304D100F005FA044654
:10918000074680E700F000FA394604460A225046B6
:10919000002300F0F9F9074675E70D9E5846294669
:1091A000FFF746FA0A9F00F13003BB55079F0136CF
:1091B000BE4207DB0A9E012FACBFF61901362746D7
:1091C000002407E0594650460A22002300F0DCF94B
:1091D0008346E3E7594601225046029300F08CFB98
:1091E0002946834600F0DBFB0028029B02DC13D1FA
:1091F000DB0711D516F8013CB046392B06F1FF36D6
:1092000007D10A99B142F5D1312309F101090B7057
:1092100008E00133337005E0B04618F8013C013E28
:10922000302BF9D05046294600F097F96FB12CB198
:10923000BC4203D05046214600F08FF950463946D3
:1092400000F08BF901E0DDF840905046594600F0FF
:1092500084F90023249F88F8003009F101033B6062
:10926000269F27B1C7F8008001E0034800E00A9874
:109270001BB0BDE8F08F00BF2DA70108AFF3008041
:10928000F8B5224C0D460746FDF7BAF8A3685E68AC
:1092900026F00306751B05F6EF7525F47F6525F0AE
:1092A0000F05A5F58055B5F5805F04DA3846FDF762
:1092B000A8F80020F8BD002001F068FEA368334440
:1092C0009842F3D1684201F061FE01300FD10020D5
:1092D00001F05CFEA368C21A0F2AE7DD0C4942F0D8
:1092E000010209685A60401A0A490860DEE7A3686B
:1092F000761B46F001065E60064B38461A68551B21
:109300001D60FDF77EF80120F8BD00BFF4030020CA
:10931000FC07002038250020F8B506460D46002938
:1093200000F0A980FDF76CF855F804CC524CA5F17B
:1093300008032CF001029818A1684768884227F0BA
:1093400003070CF001011BD13A4439B955F8081C48
:109350005B1A98680A44D968C160886042F00101CC
:109360005960A360454B1B689A4204D3444B304676
:109370001968FFF785FF3046BDE8F840FDF741B8B2
:10938000476079B955F8085C04F1080C5B1B2A4466
:109390009D68654508D0D3F80CC0C5F80CC0CCF862
:1093A000085002E0002100E00121C5196D68ED07B9
:1093B0000ED43A44856841B9324FBD4205D163614C
:1093C00023610121DD609D6002E0C068E860856086
:1093D00042F0010058609A500029CCD1B2F5007FCC
:1093E0000ED2D2089110012088406168014361606B
:1093F00004EBC204A268DC609A60A360D360BAE7A1
:10940000510A042902D89109383115E0142901D8EC
:109410005B3111E0542902D8110B6E310CE0B1F52B
:10942000AA7F02D8D10B773106E040F25450814236
:109430009ABF910C7C317E2104EBC104A5680E48D3
:10944000A54201D029460BE00122891002FA01F160
:1094500042680A434260294608E08968A14204D074
:10946000486820F003008242F7D3CD68DD60996040
:10947000AB60CB607FE7F8BDF4030020000800205C
:1094800034250020FC03002010B50C4609B90C4817
:1094900010BD08460B49FDF7EBFA0028F7D020462F
:1094A0000749FDF7E5FA0028F1D020460649FDF707
:1094B000DFFA034B00280CBF1846002010BD00BF88
:1094C000D0A601084CA7010832A501080048704742
:1094D00052A70108014B1868704700BF0808002018
:1094E0000048704752A701080020704700487047A5
:1094F000989E010870B5456A04460E463DB9102095
:10950000FCF70AFC6062456085600560C560656ABD
:10951000EB6843B1636ADB6853F8260070B10268F8
:1095200043F8262015E00420212100F00FFC636A97
:10953000E860DB68002BEDD1002070BD012000FA4F
:1095400006F4611D890000F001FC0028F4D046609B
:10955000846000230361C36070BD70B5446A064631
:109560000D463CB91020FCF7D7FB70624460846064
:109570000460C4603DB1736A6A68DB6853F8221006
:10958000296043F8225070BD2DE9F0410C461E467B
:109590000D69074614310023086801331FFA80FC67
:1095A000000C02FB0C6C504300EB1C401FFA8CFCBF
:1095B000060CAB420CEB004041F8040BECDBD6B1DF
:1095C000A3689D4212DB616838460131FFF792FFC4
:1095D000226904F10C010232804692000C30FCF743
:1095E00011FA21463846FFF7B8FF444604EB8503DD
:1095F00001355E6125612046BDE8F0812DE9F84323
:109600001446984603F1080209230E4692FBF3F232
:109610000546012300219A4202DD5B000131FAE791
:109620002846FFF767FF089B092C43614FF00103B1
:109630000146036111DD06F109094F46264417F87A
:10964000013B28460A22303BFFF79EFFB742014606
:10965000F5D109EB0406083E01E00A360924361B61
:10966000444508DA335D28460A22303BFFF78CFF79
:1096700001340146F4E70846BDE8F883030C1B04F7
:1096800013B90004102300E0002310F07F4F04BF43
:109690000002083310F0704F04BF0001043310F0D3
:1096A000404F04BF80000233002803DB420003D593
:1096B000581C70471846704720207047036813F005
:1096C00007020BD0D90722D49A0703D55B080360A1
:1096D000012070479B0803600220704799B209B9C6
:1096E0001B0C102213F0FF0F04BF1B0A08321907CE
:1096F00004BF1B090432990704BF9B080232D90733
:1097000002D45B0805D00132036010467047002088
:1097100070472020704710B50C460121FFF7EAFE84
:1097200001224461026110BD2DE9F04F16463369F4
:109730000A6985B09A420D4601DA35460E46D5F8DB
:1097400010803769AB68696808EB07049C42C8BFA2
:109750000131FFF7CFFE00F1140303EB8402019205
:1097600000211A46DDF804A0524502D242F8041B3B
:10977000F8E705F1140106F1140201EB880802EB89
:109780008707CDF808800397DDF80CC015466245C1
:1097900056D2B5F800C00432BCF1000F25D00F46F8
:1097A0001D46002657F8049BD5F800801FFA89FB58
:1097B0001FFA88FA0CFB0BAA4FEA19494FEA18481E
:1097C0000CFB0988B24408EB1A481FFA8AFA4AEAE5
:1097D000084A4FEA1846DDF80880AB46B8454BF812
:1097E00004AB01D95D46DDE76E6032F8028CB8F15A
:1097F000000F23D01E680F461D464FF00009B7F832
:1098000000A0B5F802C0B6B208FB0ACCE14446EAB3
:109810000946AC464CF8046B57F8046BB5F804A045
:10982000360C08FB06A6DDF808A006EB19465745DE
:109830004FEA164901D26546E1E76E600433A3E7BB
:10984000019B002C03DC046105B0BDE8F08F53F8E8
:10985000042D002AF7D1013CF3E72DE9F84312F07B
:10986000030305460E46174607D0224A013B52F82D
:1098700023200023FFF788FE0646BF1036D06C6A0F
:109880003CB91020FCF748FA6862446084600460C8
:10989000C460D5F82480D8F808404CB9284640F276
:1098A0007121FFF738FF0023C8F808000446036061
:1098B0004FF00008F8070AD5314622462846FFF740
:1098C00033FF314681462846FFF747FE4E467F105C
:1098D0000CD0206808B10446ECE728462146224611
:1098E000FFF722FF2060C0F80080F4E73046BDE8B3
:1098F000F88300BFD09E01082DE9F0470C4623698C
:109900004FEA621A0AEB03094968A36880461546C4
:1099100009F101079F4202DD01315B00FAE7404691
:10992000FFF7E8FD0023064600F1140219465345EF
:1099300003DA42F823100133F9E720692AEAEA71D1
:1099400004F1140315F01F0C02EB810103EB800EF0
:1099500016D0CCF1200A002518680A4600FA0CF04F
:10996000054342F8045B53F8045B734525FA0AF596
:1099700001D21146F0E74D6045B109F1020705E05B
:1099800053F8042B734541F8042BF9D3013F4046AB
:1099900037612146FFF7E1FD3046BDE8F0870269F7
:1099A0000B6910B5D21A13D19C00143001F11402C6
:1099B0000319224453F8044D52F8041D8C4203D07D
:1099C00008D24FF0FF3010BD9842F3D3002010BDF5
:1099D000104610BD012010BD2DE9F04706460C468B
:1099E000084611461546FFF7DAFF071E08D1304634
:1099F0003946FFF77FFD012303614761BDE8F0872A
:109A000001DB002703E0234601272C461D46616841
:109A10003046FFF76FFD22692B69143405F11406F7
:109A200006EB830AC76004EB820C00F114030021EB
:109A300054F8047B56F8049B1FFA87F81FFA89F53F
:109A400041444FEA1949C5EB0108C9EB174707EB39
:109A500028471FFA88F83914B24548EA07472546CF
:109A600043F8047BE4D865450DD255F8044BA6B203
:109A70000E44240C04EB2644B6B2211446EA0444F6
:109A800043F8044BEFE753F8041D09B9013AFAE72C
:109A90000261BDE8F0870F4B0B40A3F15073002B20
:109AA00001DD194609E05B421B15132B4FF0000145
:109AB00005DC4FF4002242FA03F100207047322BFC
:109AC0004FF00102DABFC3F1330302FA03F3134686
:109AD000184670470000F07FF8B5066900F11407DA
:109AE00007EB860656F8044C351F2046FFF7C6FDE7
:109AF000C0F120030A280B6014DCBD42C0F10B0149
:109B000088BF56F8085C24FA01FC98BF0025153080
:109B100025FA01F184404CF07F5C4CF4401341EA9B
:109B2000040224E0BD4286BFA6F1080556F8081CD1
:109B30000021B0F10B0615D0B440C0F12B0021FA82
:109B400000FC44F07F5444F44014BD4244EA0C034A
:109B50008CBF55F8044C002424FA00F0B14040EAD0
:109B6000010204E044F07F5444F440130A461046D6
:109B70001946F8BD2DE9F74301211D46DDF828906F
:109B8000DDF82C801446FFF7B5FCC5F30A570646EE
:109B9000C5F313030FB143F480130193D4B102A8AA
:109BA00040F8084D6846FFF789FD009B48B1019ACF
:109BB000C0F1200102FA01F1C2400B43736101922E
:109BC00000E073610199B16100290CBF01210221FC
:109BD000316107E001A8FFF771FD019B012173616D
:109BE000316120303FB1A7F233470744C9F8007014
:109BF000C0F135000AE006EB8103A0F23240C9F85B
:109C000000001869FFF73AFD4901081AC8F800007A
:109C1000304603B0BDE8F0832DE9F3410E466946B6
:109C20008046FFF759FF0D46044601A93046FFF76D
:109C300053FF009F0B46019902467F1AD8F8100087
:109C40003169411A07EB41110029D6BFA3EB01513D
:109C500005EB01550B4620462946FBF73BFD02B0BC
:109C6000BDE8F081172810B5044605DC074B03EB6F
:109C7000C004D4E9040110BD054900200022054BB1
:109C8000FBF7FEFB013CF9D110BD00BFD09E0108DF
:109C90000000F03F0000244010B5013902F1140328
:109CA00049111269013100EB810103EB82029342F9
:109CB00004D253F8044B40F8044BF8E700238842E1
:109CC00002D240F8043BFAE710BD00F1140200692B
:109CD0004B11834210B50CDC0CDA11F01F0109D0D6
:109CE00052F8230020FA01F404FA01F181420ED166
:109CF00000E0034602EB83039342194605D951F86D
:109D0000041C043B0029F7D001E0002010BD012015
:109D100010BD00BF4342034321F0004242EAD37327
:109D2000C3F1FF4303F5E00358420343D817013062
:109D300070474342184321F0004343EAD070C0F11A
:109D4000FF4000F5E000C00F704700000A460349DD
:109D500003460868194600F003B800BF000300205E
:109D600010B55143FBF7E8FF044620B350F8042C2C
:109D700022F00302043A242A1AD8132A12D9002105
:109D80001B2A0160416002D800F108030BE0242A7D
:109D90008160C16011BF00F11003016100F118037F
:109DA000416100E0034600221A605A609A6002E0B6
:109DB0000021FCF7ABFA204610BD00004BB942B9B8
:109DC000002908BF002802D04FF0FF31084600F0FC
:109DD0003BB882B0EC462DE9005000F01DF8DDF8EC
:109DE00004E002B00CBC70472DE9F843089C15460E
:109DF000984606460F4600F029F805FB01F9A5FB39
:109E0000002300FB089C6344B21A67EB0303C4E918
:109E10000023BDE8F88300BF2DE9F843089E1746EC
:109E2000804689461D4600F06FF900FB05F3A0FB54
:109E3000074507FB01373D44B8EB040469EB050512
:109E4000C6E90045BDE8F883704700BF00292DE949
:109E5000F00FA8BF0026C0F2AB80002BC0F2A38099
:109E6000894690469C46144605460F46002B48D12D
:109E70008A425CD9B2FA82F353B1C3F1200201FAEB
:109E800003F720FA02F208FA03F400FA03F5174385
:109E9000210CB7FBF1F201FB1277A0B200FB02F339
:109EA0004FEA154C4CEA0747BB4209D93F1902F16A
:109EB000FF3C04D2BB4284BF023A3F1900D862463D
:109EC000FF1AB7FBF1F301FB137100FB03F0ADB216
:109ED00045EA0141884208D9091903F1FF3703D245
:109EE000884288BF023B00D83B4643EA0243002237
:109EF0001846114616B1404261EB4101BDE8F00F32
:109F000070478B4284BF00221346F1D8BCFA8CF113
:109F1000002940F09580CC4528BF80458CBF0022A9
:109F200001229CBF01230A46E2D91346E0E712B999
:109F30000123B3FBF2F4B4FA84F3002B3ED13F1BB0
:109F4000200C1FFA84FC0122B7FBF0F100FB117713
:109F50000CFB01F34FEA154848EA0747BB420AD910
:109F60003F1901F1FF3880F0C780BB4284BF02393E
:109F70003F1940F2C180FF1AB7FBF0F300FB1370EA
:109F80000CFB03FCADB245EA0040844508D900193A
:109F900003F1FF3703D2844588BF023B00D83B461C
:109FA00043EA0143A4E7F643524263EB430357E716
:109FB000404261EB41014FF0FF364EE79C40C3F158
:109FC000200927FA09F125FA09F99F40200CB1FB75
:109FD000F0F200FB12111FFA84FC0CFB02F849EAB4
:109FE00007094FEA194747EA0141884505FA03F591
:109FF00009D9091902F1FF3380F08480884584BFB4
:10A00000023A09197ED9C8EB0101B1FBF0F300FB5C
:10A0100013170CFB03F81FFA89F949EA0747B845FB
:10A0200009D93F1903F1FF3104D2B84584BF023B7F
:10A030003F1900D80B46C8EB070743EA024283E703
:10A04000C1F1200328FA03F20CFA01FC29FA03F407
:10A0500020FA03F309FA01F942EA0C0C4FEA1C4A10
:10A06000B4FBFAF70AFB17441FFA8CFB0BFB07F053
:10A0700043EA09094FEA194343EA0444A04208FAB3
:10A0800001F209D914EB0C0407F1FF3338D2A042D6
:10A0900084BF023F644433D9201AB0FBFAF30AFBB1
:10A0A00013000BFB03FB1FFA89F949EA00408345C3
:10A0B00009D910EB0C0003F1FF341FD2834584BF94
:10A0C000023B60441AD943EA0747A7FB0223CBEBC4
:10A0D000000098420DD305FA01F114BF00230123BB
:10A0E00091422CBF002203F001023B46002A3FF4BC
:10A0F000FFAE7B1E0022FBE641463CE72346E2E73B
:10A100001F46C9E71A467EE72DE9F00314460546C7
:10A110000E46002B42D18A4255D9B2FA82F34BB196
:10A12000C3F12006994020FA06F602FA03F400FA79
:10A1300003F50E43220CB6FBF2F002FB1066A7B249
:10A1400007FB00F34FEA154C4CEA0646B34209D927
:10A15000361900F1FF3104D2B34284BF02383619F8
:10A1600000D80846F61AB6FBF2F302FB136207FBAF
:10A1700003F7ADB245EA0242974209D9121903F139
:10A18000FF3180F0ED80974288BF023B40F2E880CB
:10A1900043EA00400021BDE8F00370478B4284BFD2
:10A1A00000210846F7D8B3FA83F4002C4AD18B4239
:10A1B00028BF82428CBF002101219CBF0120214683
:10A1C000E9D90846E7E712B90124B4FBF2F4B4FA7E
:10A1D00084F7002F40F084800B1B260CA7B20121CE
:10A1E000B3FBF6F006FB103307FB00F24FEA154C09
:10A1F0004CEA03439A420AD91B1900F1FF3C80F054
:10A20000B1809A4284BF02381B1940F2AB809B1A7E
:10A21000B3FBF6F206FB123307FB02F7ADB245EAD9
:10A220000345AF4209D92C1902F1FF3380F09C801D
:10A23000A74288BF023A40F29780BDE8F00342EAA5
:10A2400000407047C4F1200522FA05F7A34021FA27
:10A2500005F620FA05F5A1403B434FEA1348B6FB4B
:10A26000F8FC08FB1C661FFA83F909FB0CF729436D
:10A270000D0C45EA0646B74202FA04F204D9F61874
:10A280000CF1FF3578D3AC46F61BB6FBF8F708FBAC
:10A29000176609FB07F989B241EA0645A94504D9C1
:10A2A000ED1807F1FF3161D30F4647EA0C47A7FBD2
:10A2B0000223C9EB05059D420DD300FA04F114BF3A
:10A2C0000025012591422CBF002105F001013846EF
:10A2D00000293FF460AF781E0021BDE8F00370470D
:10A2E000BC40C7F1200321FA03FC20FA03F3B94074
:10A2F000260CBCFBF6F806FB18CC1FFA84F909FB08
:10A3000008F219430B0C43EA0C4C624500FA07F5BE
:10A310000AD91CEB040C08F1FF3334D2624584BF28
:10A32000A8F10208A4442ED9C2EB0C0CBCFBF6F237
:10A3300006FB12C309FB02F089B241EA03439842CB
:10A3400009D91B1902F1FF3104D2984284BF023AA5
:10A350001B1900D80A461B1A42EA08414F463FE73C
:10A360000B4615E7604652E71A4666E7A94584BFE3
:10A37000023FED1899D897E7B74284BFACF1020CC1
:10A38000F61881D87FE79846CEE700BF014B0360FF
:10A39000704700BF80710108014B0360704700BF28
:10A3A0009871010810B5034B0446036000F0CCFD22
:10A3B000204610BD8071010810B5034B04460360B0
:10A3C00000F0C2FD204610BD987101087FB5012143
:10A3D000054601F05FFFA0F13004072C23D8154992
:10A3E000684601F0DDFE2846694601F041FF064659
:10A3F000684601F093FE6EB90F49684601F0D0FE41
:10A400002846694601F034FF0546684601F086FE9D
:10A4100065B10A34A4B22046032101F005FA2046B2
:10A4200001F0BEFA04E04FF0FF3001E06FF00100F0
:10A4300004B070BDF89F0108FA9F0108F0B5012132
:10A4400085B0044601F026FFA0F13006072E49D85A
:10A45000684621460322072301F01EFF684626496D
:10A4600001F0DCFE0546684601F058FE7DB96846FD
:10A4700021460322062301F00FFF68461F4901F021
:10A48000CDFE0746684601F049FE0FB92DE00125D3
:10A490001B49684601F084FE2046694601F0E8FE4B
:10A4A0000746684601F03AFE1FB1B6B230460021B9
:10A4B00010E01449684601F073FE2046694601F039
:10A4C000D7FE0446684601F029FE8CB10A36B6B2C2
:10A4D0003046394601F0A8F93046294601F01EFA07
:10A4E000012007E04FF0FF3004E06FF0010001E0D1
:10A4F0006FF0020005B0F0BDFC9F010801A001084B
:10A50000F89F0108FA9F01087FB50121054601F077
:10A51000C1FEA0F13004072C23D81549684601F08C
:10A520003FFE2846694601F0A3FE0646684601F054
:10A53000F5FD6EB90F49684601F032FE28466946BE
:10A5400001F096FE0546684601F0E8FD65B10A3463
:10A55000A4B22046012101F067F9204601F092FAE9
:10A5600004E04FF0FF3001E06FF0010004B070BD77
:10A57000F89F0108FA9F010870B5012188B00446D0
:10A5800001F088FEA0F13005072D37D80322684678
:10A59000214601F0A7FE1C4904A801F001FE204657
:10A5A00004A901F065FE064604A801F0B7FD1EB13E
:10A5B000ADB22846002110E0144904A801F0F0FDD6
:10A5C000204604A901F054FE044604A801F0A6FDAB
:10A5D00074B10A35ADB22846314601F025F9684616
:10A5E00001F087FEC1B2284601F0A6FA012401E07D
:10A5F0006FF00104684601F091FD01E04FF0FF3477
:10A60000204608B070BD00BFF89F0108FA9F0108FE
:10A610007FB5294E294B2A4C00933368224601937B
:10A6200002203A21002306F0B7FB264B264D00936B
:10A63000224601203B21002306F0AEFB2B68234A73
:10A6400001208DE80C003C212246002306F0A4FBEB
:10A650001F4A2B6800921F4A029301920320224650
:10A660003D21002306F098FB2B681B4A02208DE851
:10A670000C003E212246002306F08EFB2B68174A71
:10A6800004208DE80C003F212246002306F084FBC5
:10A69000134B2246009301200023402106F07CFB4F
:10A6A000B088002101F0C0F800236B6041F28833CC
:10A6B000AB6004B070BD00BF0000002005A0010821
:10A6C000A470010822A001080C08002059A001086C
:10A6D0006CA0010892A0010896A00108ABA0010897
:10A6E000C5A0010808B5FFF793FF0948094900F024
:10A6F000EFFD0948094900F0EBFD0948094900F060
:10A70000E7FDBDE808400848084900F0E1BD00BF8A
:10A71000D6A00108CDA30008E2A001083DA40008CE
:10A72000EFA0010809A50008FAA0010879A5000812
:10A73000084B10B51A7B044632B9012206484FF483
:10A74000E1311A7302F00EF821460348BDE81040CB
:10A7500001F011BC0C080020941A00202DE9F341EF
:10A76000AB4C012001F0A2FA63680333072B00F21F
:10A770004C81DFE813F0960075004A0108001400D0
:10A780003900A8001301A268A14B0A3AA260A2688E
:10A79000002A80F23A8100229A6001227FE0236938
:10A7A0009B4D013323619B4B022000935D219A4A0C
:10A7B000002306F0F1FA002305F118009749502212
:10A7C000636101F0DFFD044608B10223D7E0944B3A
:10A7D00002200093622123468F4A06F0DDFA41F2FF
:10A7E0008833AB606C6010E1894C04F1180001F013
:10A7F000F9FD054678B38B4B874A0093022000236E
:10A800006A2106F0C9FA884904F1180001F0C8FB72
:10A81000864A2369126893FBF2F102FB113363B994
:10A82000834A022000926E217B4A06F0B5FA44F278
:10A830005063A3606FF00103D9E07E4B02200093C8
:10A8400072210023744A06F0A7FA41F28833A3600C
:10A850006FF00203CBE0784B022000937821CCE02C
:10A86000A2684FF4FA7392FBF3F503FB15255DB96B
:10A87000724801F0E1FE724B0190009302208021AA
:10A88000654A2B4606F088FAA268614B013AA2603D
:10A89000A268002A80F2B98000229A6004225A60DD
:10A8A000B3E05B4D05F1180001F04EFE0028EBD03F
:10A8B000644B0220009392210023574A06F06CFA61
:10A8C00003236B60E0E7524D05F1180001F08AFDAB
:10A8D0000646002855D005F1180001F035FE5A4B08
:10A8E00006468DE8480002209F214B4A002306F0CF
:10A8F00053FA002E36DD002705F11800C5F8307236
:10A9000001F01FFD514B0190009302203B46A42112
:10A91000414A05F50D7606F03FFA314605F118007B
:10A9200040F2012201F068FD49492B18804630466B
:10A9300083F83472FCF702FC08B1361A6E61636961
:10A94000AE2143446361434B334A8DE80801022042
:10A95000002306F021FA4048FFF7EAFE3F48FFF7E0
:10A96000E7FE52E0642001F0A1F9D5F8303201335E
:10A97000022BC5F8303248DD0123AB6004236B6045
:10A9800043E0374B02200093BA213346224A06F0B7
:10A9900003FA41F28833AB606E6036E01C4C04F180
:10A9A000180001F01FFD054618B32E4B022000933E
:10A9B000C221194A002306F0EFF92B4BC321009363
:10A9C0006369154A01930220002306F0E5F904F1BA
:10A9D000180001F037FD254B02200093C52100230C
:10A9E0000D4A06F0D9F941F28833A3600023636071
:10A9F0000BE01F4B02200093C9212B46064A06F0AC
:10AA0000CBF941F28833A360656002B0BDE8F08104
:10AA10000C08002006A10108B270010808000020FF
:10AA200011A101082BA1010831A10108000000209B
:10AA300049A1010863A1010874A1010824080020AC
:10AA40008CA10108A7A10108ADA10108C3A10108BB
:10AA5000D2A10108DAA10108400A002030A50108AE
:10AA6000EBA101082EA5010803A201081BA2010801
:10AA700035A2010813B50F4CD4F83814A1B101F573
:10AA80009C5108310A220C48C4F8381401F0CEFA5F
:10AA9000D4F8380401F00AF9084B02200093FF2192
:10AAA000074A002306F078F902B0BDE81040FFF72E
:10AAB00055BE00BF0C080020941A00202DA10108EB
:10AAC000BF70010837B50D4C00210B4600910A46B6
:10AAD0000B4D204601F0E6F920460A4C2A460A4969
