:020000040800F2
:105000000050002059780008816F0008836F000865
:10501000856F0008876F0008896F00080000000096
:105020000000000000000000000000008B6F00087E
:105030008D6F0008000000008F6F0008916F00085E
:10504000A9780008A9780008A9780008A9710008C3
:10505000A9780008A9780008E56F00080570000825
:10506000257000085970000879700008A9780008B8
:10507000A9780008A9780008A97800080572000836
:10508000A9780008A9780008956F0008A978000899
:1050900009720008A9780008A9780008997000082A
:1050A000A9780008A9780008A978000861710008AB
:1050B000A9780008A9780008A9780008B56F000849
:1050C000C56F0008A9780008A9780008D56F000806
:1050D000A9780008A9780008A56F0008A978000839
:1050E000E9700008C5710008A978000800000000F8
:1050F00000000000000000000000000000000000B0
:0C51000000000000000000005FF808F153
:1051100070B5012188B0044601F02AFBA0F13005EA
:10512000072D37D803226846214601F049FB1C4968
:1051300004A801F0A3FA204604A901F007FB0646E3
:1051400004A801F059FA1EB1ADB22846002110E0C2
:10515000144904A801F092FA204604A901F0F6FAD5
:10516000044604A801F048FA74B10A35ADB22846E5
:10517000314600F06FFE684601F029FBC1B22846B7
:1051800001F004F8012401E06FF00104684601F029
:1051900033FA01E04FF0FF34204608B070BD00BF85
:1051A000C84B0108CA4B01087FB50121054601F033
:1051B000DFFAA0F13004072C23D81549684601F026
:1051C0005DFA2846694601F0C1FA0646684601F0D4
:1051D00013FA6EB90F49684601F050FA284669463D
:1051E00001F0B4FA0546684601F006FA65B10A34E2
:1051F000A4B22046012100F02DFE204600F06CFFF5
:1052000004E04FF0FF3001E06FF0010004B070BD2A
:10521000C84B0108CA4B0108F0B5012185B004460E
:1052200001F0A6FAA0F13006072E49D868462146BB
:105230000322072301F09EFA6846264901F05CFA32
:105240000546684601F0D8F97DB968462146032233
:10525000062301F08FFA68461F4901F04DFA074610
:10526000684601F0C9F90FB92DE001251B496846D0
:1052700001F004FA2046694601F068FA07466846DC
:1052800001F0BAF91FB1B6B23046002110E014495E
:10529000684601F0F3F92046694601F057FA0446E2
:1052A000684601F0A9F98CB10A36B6B230463946E3
:1052B00000F0D0FD3046294600F050FE012007E006
:1052C0004FF0FF3004E06FF0010001E06FF00200EA
:1052D00005B0F0BDCC4B0108D14B0108C84B01080B
:1052E000CA4B01087FB50121054601F041FAA0F142
:1052F0003004072C23D81549684601F0BFF9284629
:10530000694601F023FA0646684601F075F96EB960
:105310000F49684601F0B2F92846694601F016FACD
:105320000546684601F068F965B10A34A4B2204622
:10533000032100F08FFD204600F058FE04E04FF0FE
:10534000FF3001E06FF0010004B070BDC84B0108F0
:10535000CA4B010808B50948094900F091FB094802
:10536000094900F08DFB0948094900F089FB09480B
:105370000949BDE8084000F083BB00BFD54B0108D8
:10538000E5520008E14B010819520008EE4B0108F4
:10539000A9510008F94B010811510008704700009D
:1053A00007B5002100910A460B46024801F070F84B
:1053B0000EBD00BF200B002010B501310023934229
:1053C0000ED0040F092C01D8303400E0373401F836
:1053D000014C01330024000101F8024BDBB2EEE77F
:1053E00010BD000010B54FF000604FF4A04105F073
:1053F00017FC0124284B294821461C7005F0FCFEAF
:1054000004F07EFD04F060FA2146402005F0BCFF68
:105410006FF07F4004F0CAFBE72004F043FC204813
:10542000047004F08FFA7D2005F0DEFF18B11D49ED
:105430000C7005F0EDFF40F6B83004F0EBFA1A4CB2
:1054400005F028F805F0B8F9184801F0C7FB01226B
:10545000227001F04DFC164B187818B915490A78DE
:10546000002AF6D0144C2378002BF2D10D48017895
:105470000029EED10F4C2278012A01D00F4B33B90D
:105480000F4909B1FFF78AFF00F0CAFCE1E7FFF717
:1054900061FF01202070F3E7121A002000043000A1
:1054A0008F190020A8270020A4190020F15B000814
:1054B0008D190020280B00208E190020555300085C
:1054C0009D5300084C4B4D495A6870B5501C5860AC
:1054D0000C6814B10B685A1E0A604948017829B15A
:1054E00048480178E1B1484C34BB19E0474C236887
:1054F00013B12268511E12E0454A107880B945491F
:105500000B786BB9444A107850B9444E444D317809
:10551000B9B1E72004F040FC2B7883B1142121605D
:105520003B4B1C78002C34D1204604F033FD40F670
:10553000B73290421BD82CE000F0A2FBF0E701212B
:10554000EDE72B784BB14FF6FF7004F02FFB0124F1
:10555000E72004F0A7FB3470E2E7E72004F0D0FB7B
:10556000304A107808B13221D9E76421D7E72046C4
:1055700004F018FD2C4A1178C1B92C4803782BB1DE
:10558000284A2748117803780B422DD00120204B60
:105590000BE0002004F0FEFC41F65731884205D9AB
:1055A000002004F0FFFC224B012018701E4A1278E4
:1055B0005AB91B49087840B11E4B47F22F51186861
:1055C000884214D91A6000F0EDFB1B4B1968B1F545
:1055D0007A7F05D300211960BDE8704005F06ABEEE
:1055E0001A68501C186070BD00F0DCFBCEE71A682A
:1055F000501C1860E9E700BF280B0020B0270020EE
:10560000FC190020B80E0020815C0008AC270020A7
:105610008A1900208E190020901900208F1900206F
:105620008D1900208C190020A31900208B1900204F
:105630009919002094190020B427002008B5094BBF
:10564000186004F0D1FE002004F016FF064804F0B4
:1056500063F904F0DFFE04F0FDFEBDE8084006F04B
:1056600081BD00BFD4010020A0860100074B18684F
:10567000052808D106490A7A012A04D1887A0B7BC9
:10568000C11AC8B270470020704700BF2C1A002012
:10569000280B00200D4B10B51868052813D10C4CB1
:1056A000217A01290FD16289A389D01A012804D156
:1056B00000210320217206F0C0FEA389E218591CC4
:1056C000907BA18110BD4FF0FF3010BD2C1A00203F
:1056D000280B0020084B196805290BD1074B1A6DC0
:1056E000991881F85400501CB0F5807F186501D1DD
:1056F00000221A65704700BF2C1A0020280B0020DA
:1057000070B5234A92F85431012B3FD0D2F858019A
:10571000B0F5807F02D10021C2F85811D2F858317B
:10572000126D1B48934203D1002180F8541170BDC3
:105730008CBFC3F58072C3EB0202154CC0F85C212C
:10574000D4F85C5199B2402D07D94033403DC4F89C
:105750005831C4F85C51402606E0E8180023AEB288
:10576000C4F85801C4F85C310A4A01255018C02118
:10577000324684F8545106F0D7FD2846314606F0EB
:10578000DDFE2846BDE8704006F046BE70BD00BF95
:10579000280B00207C0B0020094B10B593E8140067
:1057A0000833186810180AD008220649FFF704FECB
:1057B000054920460422BDE81040FFF7FDBD10BD9D
:1057C000E8F7FF1F830100209301002038B50D4644
:1057D0000446AC4203D254F8043B9847F9E738BD7D
:1057E00008B507480749FFF7F1FF07480749FFF7E2
:1057F000EDFF07480749BDE80840FFF7E7BF00BFD6
:10580000784F0108784F0108784F0108C04F010810
:10581000C04F0108C04F0108FEE70000054A08B567
:105820001368054918188842106001D90BF05EF919
:10583000184608BD00000020004800204FF0FF304F
:105840007047012070470000014B1868704700BF87
:10585000880C0020064B0246582000FB013101F164
:10586000080303CB1060516018689060704700BF58
:10587000880C0020014BD3F864017047880C00208D
:10588000064B0246142000FB013101F5B67303CB31
:105890001060516018689060704700BF880C00204D
:1058A0000E4B2DE9F041D3F8647180460024BC42D0
:1058B00011DA14256543094E4146701900F5B6709A
:1058C0000C220CF05DFB20B97519D5F86801BDE814
:1058D000F0810134EBE70020BDE8F081880C002066
:1058E0002DE9F04788B0814668460D4600F0C6FEB7
:1058F0001E4B0024D3F800A054452DDA55B358268A
:1059000066431A4F494607F1040808EB06000430C5
:105910000C220CF035FBE8B928460CF001FB06F12F
:105920001001402834BF0246402208EB01002946FE
:105930000BF008FDBE19012286F85820694604A81C
:10594000746800F0BDFE04A8A047044604A800F057
:1059500053FE03E00134CFE74FF0FF34684600F018
:105960004BFE204608B0BDE8F08700BF880C002041
:1059700038B50546064C28B104F0BAF9012384F87D
:10598000303238BD04F062F984F8305238BD00BFBF
:10599000880C0020024B00221A7004F043BE00BFA6
:1059A0008E190020034B01224FF4C0201A7004F01E
:1059B000D5BD00BF8E1900202DE9F341264B0746C7
:1059C0001878884618B925490D782E4615B14FF03C
:1059D000FF303FE0224C0120D4F8343284F83852B2
:1059E00003F01F0100FA01F05A0984F8395284F8D3
:1059F0003A5284F83B5204EB8202D2F83812C4F8CF
:105A00003C520143C2F8381204F50F7041F288325B
:105A1000C4F8402204F50E7100902A46581C2B460B
:105A200003F0B6F8002815DDD4F83432590904EB38
:105A30008104D4F8384203F01F0244FA02F414F04F
:105A4000010007D0184639463346424603F038F97C
:105A5000044B1E60BDE8FC81A2190020A3190020A0
:105A6000880C0020941900200A4604490346D1F806
:105A700034021946002303F09BB900BF880C0020B4
:105A80002DE9F84F04468946002941D000283FD02F
:105A9000204B1D68042D3BD00027AF421E4E4FF017
:105AA00058080FDA08FB07F856F80810494507D1DF
:105AB00006EB0802101D21460C220CF061FA38B3E7
:105AC0000137EAE708FB05F8A6F1040A0AEB080724
:105AD00008F11000C7F804900021402230180BF0A4
:105AE000B7FD06EB0801081D0C2200210BF0B0FDEC
:105AF0002068616807F1080203C2A368002001352D
:105B000007F1040B87F858001360543746F8045C1B
:105B1000BDE8F88F880C00208C0C002030B51E48A2
:105B2000ADF5797D06F09CFD002832D11B4B1C4859
:105B30001C4D04931C491D4A1D4B059009951D4899
:105B40001D4D069107920A931C491D4A1D4B0B904F
:105B50000E951D481D4D1E4C0C910D921D491E4A5F
:105B60000F931E4B1090139515A85FAD11911292D3
:105B70001493089403900CAC029504F065FD28463C
:105B800004F068FD00940448154902AA04AB06F02D
:105B90006EFD0DF5797D30BDC80F0020695A0008F3
:105BA000B9590008A9A50008A55900089559000889
:105BB0007159000805630008E158000849580008B9
:105BC00055580008755800088158000861A600085B
:105BD00085A60008055E0008A158000875A6000803
:105BE000E8F7FF1F014807F039BB00BFC80F0020CE
:105BF00030B5022011228DB0014602F049FF051E8A
:105C000028DB154907A806F03DFE022316200024D4
:105C1000ADF80C308DF80E003321E0220123BB20BB
:105C20008DF811408DF80F108DF810208DF812307E
:105C30008DF813000324102203A900910192002380
:105C40001322284607A903F0BDF8013CF3D12846EA
:105C500002F04CFF0DB030BDE8F7FF1F10B5074C48
:105C6000FFF75CFF204606F0FEFC204607F052F8E6
:105C70000446FFF7BDFF204610BD00BFC80F00203F
:105C800038B5114CD4F8505B2DB1D4F8501B4B1ED5
:105C9000C4F8503B38BDD4F8543B0C4A52F82300AA
:105CA00003F0ACFFE72003F0FDFF094A6420D4F8BD
:105CB000541BC4F8500B10684B1C8342C4F8543B6F
:105CC000A8BFC4F8545B38BD880C0020EC21010843
:105CD0000400002030B502200121062285B002F028
:105CE000D7FE051E1ADB00213522082402238DF879
:105CF00002108DF80320694610228DF804408DF8BB
:105D000005408DF806408DF80740ADF8003002F0F0
:105D100013FF0446284602F0E9FE01E04FF0FF348D
:105D2000204605B030BD000010B5054CD4F8340253
:105D300002F0DCFE18B94FF0FF33C4F8343210BD66
:105D4000880C002008B5FFF7EFFF02200121062292
:105D500002F09EFE114B0028C3F834021ADB022128
:105D6000A3F8581B3321162283F85B1BD02183F83C
:105D70005A2B83F85D1B3622042183F85C2B83F8B1
:105D80005F1BE522064983F85E2B1022BDE8084020
:105D900002F0D2BE4FF0FF3008BD00BF880C0020DB
:105DA000E0170020044B012200205A801880D8867A
:105DB000024B1A70704700BF5C1B0020A219002024
:105DC0000F4B2DE9F041D3F8647180460024BC42AA
:105DD00011DA142565430A4E4146701900F5B67074
:105DE0000C220CF0CDF820B9751995F87801BDE8B2
:105DF000F0810134EBE74FF0FF30BDE8F08100BFE8
:105E0000880C002008B5FFF7DBFF0138082803D80D
:105E1000024B1918087F08BD022008BDEC210108BB
:105E2000084B0022D3F8481203F513738A4208DAAC
:105E300093F8500010B1002083F850000132513324
:105E4000F4E77047880C0020014806F0F9BB00BF5A
:105E5000C80F002014282DE9F34104460E4675D8DA
:105E6000FF2973D000F0A8FB28B10D2C6ED00F2CA9
:105E70006CD00E2C6AD000F0BDFA08B1012C65D9A7
:105E800000F0FEFC18B1A4F11203012B5ED9304DD5
:105E900020012F582F492A188F42B2F8048001D1CF
:105EA000042003E02C4B9F4203D10820012105F080
:105EB00077FAADF80480062E44D8DFE806F0041126
:105EC000181F26313C00224A102302EB0414032041
:105ED0000021A1738DF807308DF80600083431E0F9
:105EE00004218DF8071005EB0414012229E0482253
:105EF0008DF8072005EB0414022222E028208DF8FB
:105F0000070005EB041403221BE0114B18220321A8
:105F10008DF807208DF8061003EB0414042210E01E
:105F20000B481C2103238DF807108DF8063000EB79
:105F30000414052205E000208DF8070005EB041489
:105F40000622A273384601A905F0FCF8BDE8FC81E1
:105F50001400002000080140000C0140142870B516
:105F600004460E463ED8204B03EB0010817B0129EE
:105F700038D0022936D0032934D0062932D0FF295F
:105F800030D000F019FB30B10D2C2BD00F2C29D0C4
:105F90000E2C00D170BD00F02DFA10B1012C00D8EC
:105FA00070BD00F06DFC20B1A4F11202012A00D8EE
:105FB00070BD0D4D05EB0413987B042803D12046DA
:105FC0000021FFF747FF012E05D124012819295987
:105FD00083880B6170BD2EB9240129192B598A8839
:105FE0005A6170BD70BD00BF14000020142810B5A8
:105FF000044602D94FF0FF3010BD1A4B03EB0010DE
:10600000817B0029F6D0FF29F4D000F0D5FA28B121
:106010000D2CEFD00F2CEDD00E2CEBD000F0EAF9C8
:1060200008B1012CE6D900F02BFC18B1A4F1120242
:10603000012ADFD90B4B03EB0410817B062908D121
:1060400093F850114A1ED3B2FD2BD3D82046FFF748
:1060500001FF0448240101198988005905F0C2F89C
:1060600010BD00BF1400002010B54FF4004086B0F2
:1060700005F062F901214FF4007005F091F915481F
:1060800004F0D8FD012400234FF46022114801A937
:1060900001938DF808308DF80930039204938DF840
:1060A000144004F0F5FD0B48214604F015FE0948A4
:1060B00004F01BFE074804F01DFE0028FAD1054835
:1060C00004F01CFE034804F01EFE0028FAD106B0BE
:1060D00010BD00BF00240140092838B5044601D88E
:1060E0000A34A4B200F068FA40B10D2C02D14FF08E
:1060F000FF3038BD0F2CFAD00E2CF8D000F07AF912
:1061000000F0BEFB18B1A4F11203012BEFD9142C3F
:10611000EDD81C4D05EB04108279FF2AE7D095F8E5
:106120005111914206D0837B0621204685F85031DB
:10613000FFF790FE95F85251012D05D1FFF794FF1E
:10614000104A002082F852010E4D05EB0414A1798B
:1061500095F851318B4207D00B480122002304F0FF
:10616000DFFDA17985F851110748012104F0CFFD29
:106170000548022104F024FE0028F9D0024804F06A
:106180001CFE38BD14000020002401402DE9F04120
:10619000142888B004460D4600F2A780544B03EB48
:1061A00000108168002900F0A08000F005FA40B1DD
:1061B0000D2C00F09A800F2C00F097800E2C00F030
:1061C000948000F017F910B1012C40F28E8000F09D
:1061D00057FB20B1A4F11202012A40F28680444B01
:1061E00003EB0410817B09B104297ED1414E424A60
:1061F00037684BF680316943B7FBF2F3581EFF2531
:1062000086B2012091FBF5F7014605F0C9F804219B
:106210002046FFF71FFE364ABFB202EB041399680F
:10622000B1F1804F02D10120014608E0334D022038
:10623000A94203D03248814203D10420012105F054
:10624000BBF82B4B4BF67F3203EB0415ADF8046023
:10625000A868002601A9ADF80A60ADF80660ADF89F
:10626000082005F085F9ADF81860AE89602101209D
:1062700005F10808ADF81010ADF81200ADF8167071
:1062800046B9A86804A905F0BDF9A868082105F079
:10629000F9FA1FE0042E08D1A86804A905F0F6F960
:1062A000A868082105F0F6FA14E0082E08D1A868BD
:1062B00004A905F02FFAA868314605F0F5FA09E0BF
:1062C0000C2E07D1A86804A905F066FAA868082171
:1062D00005F0F2FA064A012102EB0414A06805F069
:1062E000C5FAA068012105F09EFA08B0BDE8F0816A
:1062F00014000020C402002000366E01000400409B
:1063000000080040014B1868704700BF2C0B0020AC
:1063100007B5002100910A460B46024800F0B8F884
:106320000EBD00BFFC170020024B18785978401AA8
:10633000704700BF04180020064B5A781978914224
:1063400004D99818013280785A7070474FF0FF30A6
:10635000704700BF04180020054B5A781978914205
:1063600002D99818807870474FF0FF30704700BF0F
:106370000418002070470000F8B5094B054693F853
:106380002200164650B10C468F18BC4206D0296830
:1063900028460A6814F8011B9047F6E73046F8BD16
:1063A0000418002010B50C4B012293F822408CB148
:1063B00093F823401F2C02D94260002010BD93F8AF
:1063C00024001C1884F82510411CC8B283F824004E
:1063D00083F82300104610BD0418002000224260FC
:1063E000024A4FF47A7181600260704720220108EE
:1063F00070477047014B93F859007047041800200C
:1064000013B5084C0021009104F164000A460B46C4
:1064100000F03EF804F16C0002B0BDE81040FFF758
:10642000DDBF00BF0418002008B5034B53F820005F
:1064300000B1804708BD00BF8018002007B50021CB
:1064400000910A460B46024800F022F80EBD00BF3C
:10645000C01800202DE9F041002407460E462546CD
:106460003B1919790A22304600F08CF82E2180461B
:10647000304600F055F801344044032C0544EFD178
:106480003046F9790A2200F07DF82818BDE8F0813D
:1064900030B58371044D9DF80C30044605600171E0
:1064A0004271C37130BD00BF40220108044B054A50
:1064B00000201A60187158719871D871704700BF28
:1064C000C81800204022010807B5002100910A46A3
:1064D0000B460248FFF7DCFF0EBD00BFD0180020BE
:1064E000F8B506460C468F180025BC4207D0336825
:1064F00030461A6814F8011B90472D18F5E7284616
:10650000F8BD38B505460C46084641B10BF008FD0C
:106510002B6802465B6828462146984738BD38BD3F
:1065200008B503681A68904708BD70B500238AB0A3
:106530008DF82430012A98BF0A220DF12303B1FB04
:10654000F2F505FB1211CCB2092C1E4601D83034ED
:1065500000E03734E4B203F801492946002DEED1BA
:106560003146FFF7CEFF0AB070BD10B5044622B920
:106570000268C9B21268904710BDD2B2BDE810409F
:10658000FFF7D3BFFFF7F1BF07B5002100910A461F
:106590000B460248FFF77CFF0EBD00BFDC18002051
:1065A00007B5002100910A460B460248FFF770FF2D
:1065B0000EBD00BFE4180020014B587D704700BF9E
:1065C000EC1800207047000007B5002100910A4632
:1065D0000B460248FFF75CFF0EBD00BF0419002008
:1065E00007B5002100910A460B460248FFF750FF0D
:1065F0000EBD00BF1019002010B5044600680AF057
:10660000A5FB204610BD10B50446006808B10AF08D
:106610009DFB00232360A360636010BD38B5044672
:106620000D46006801310BF0D1F810B184E821006B
:10663000012038BD036810B5044613B14068884294
:1066400007D22046FFF7EAFF20B1A16809B9226806
:106650001170012010BD70B50E4611460446154656
:10666000FFF7E8FF18B92046FFF7CDFF04E0A5606B
:10667000206831460BF0F6FB204670BD38B500238C
:10668000044603604360836003730D4639B10846D6
:106690000BF046FC294602462046FFF7DCFF204669
:1066A00038BD884210B50B46044607D0096819B1B9
:1066B0009A68FFF7D0FF01E0FFF7A5FF204610BD65
:1066C000002310B504460360436083600373FFF743
:1066D000E8FF204610BD38B505460C4641B10846D6
:1066E0000BF01EFC214602462846FFF7B4FF01E0EE
:1066F000FFF789FF284638BD826808B50B4612B9F6
:1067000019B9012008BD11B90368187802E00068C2
:106710000BF0BAFAD0F1010038BF002008BD10B567
:106720008B688468E41AA2420CD8006868B10968D2
:1067300051B180181A460BF023FCD0F1010038BF8C
:10674000002010BD002010BD084610BD82688B6877
:106750009A4202D30022FFF7E2BF0020704783680D
:10676000994203D2006810B1405C70470020704726
:10677000FFF7F5BF9A422DE9F04107460D46144652
:106780001E4601D93446164638460C49FFF776FFB7
:10679000A86884420FD82968864228BF064600228E
:1067A00011F806808A552B6838461919FFF793FFB0
:1067B000286800F806803846BDE8F081BC4D010825
:1067C00010B58B680446FFF7D5FF204610BD006862
:1067D00008B10AF093B9704707B5002100910A4645
:1067E0000B460248FFF754FE0EBD00BF18190020EB
:1067F00007B5002100910A460B460248FFF748FE04
:106800000EBD00BF2019002007B5002100910A46E7
:106810000B460248FFF73CFE0EBD00BF28190020C2
:106820004FF0FF307047704708B5054805F05DF838
:106830000348802105F061F80028F9D0012008BD47
:1068400000440040202108B5034805F056F8003008
:1068500018BF012008BD00BF0044004008B5024831
:1068600005F047F808BD00BF004400400022426028
:10687000024A4FF47A718160026070475022010829
:10688000014B187C704700BF3019002013B5084C2D
:106890000021009104F114000A460B46FFF7F8FDB1
:1068A00004F11C0002B0BDE81040FFF7DFBF00BFDD
:1068B0003019002070474FF0FF307047084608B588
:1068C000FEF708FF012008BD08B5FEF7CFFE08BDA2
:1068D000FEF7E0BE00224260024A4FF47A71816006
:1068E00002607047702201080846FEF7A7BE00004C
:1068F00013B5074C0021009120460A460B46FFF7CE
:10690000C7FD04F1080002B0BDE81040FFF7E2BF88
:106910005C190020002303601846704700230360C1
:106920001846704700230360184670472DE9F04170
:1069300091F8008086B00C46B8F1000F14BF904665
:106940004FF0000806460BF0EBFA074620460BF026
:10695000E7FA012518231E210222019302910392D6
:106960000590002300950494404631463A4602F0D3
:1069700069FB034B18705D7006B0BDE8F08100BF85
:106980007419002048F20203984210B517D008DCB1
:10699000992844D0591E884245D12348012242718A
:1069A00010BD48F21002904228D0703290423AD185
:1069B0001D48012100238170C170037110BD1A4C64
:1069C000627952B11948002202704FF47F4003F0FF
:1069D000EDF8E72003F066F906E0A07910B1431E58
:1069E000A37101E00121A175002121766171617619
:1069F000E175A176E1762177216210BD0A7D0A4812
:106A000052B90123C3754FF47F4003F0CFF8E7205C
:106A1000BDE8104003F046B90021C17510BD024B1E
:106A2000012183F8241010BD74190020FC190020E6
:106A30001FB54FF03C0C0A234FF461514FF46162D3
:106A40008DE80E10684601A902AA03AB01F05EFBB7
:106A500005B000BD1FB5002300930193029303937B
:106A600001A8694602AA03AB01F018FB05B000BDFE
:106A700030B5564D002497B0FF202C76AC706C7664
:106A8000EC70AC766C70EC766C71EC7585F824402B
:106A90002C6203F08BF8E72003F004F9214622462C
:106AA000204602F0ABFA2B46012103F8074F0E20D7
:106AB0000A4601F0AFFB6B79012B05D1642002F08F
:106AC0001FFF01F04DF8F6E710210C2001F0EEFB5E
:106AD0003F4801F0B5FF3F4802F004FC012002F0FE
:106AE000E5FB68463C4900F08FFD384D6A78A87890
:106AF00052EA00031ED195F82540002C5CD0FF20FF
:106B000002F088FB002857D11A24013C06D0E72068
:106B100003F0F6F8322002F0F3FEF6E72B4D0E20DC
:106B20002B4603F8064F0121224601F073FB85F83E
:106B30002540DAE7E72003F0B5F801210E20002216
:106B4000AB1D01F039FBA97811B102F0E9FB287007
:106B50001E4C0121237800225D1C234603F8065FAA
:106B60000E2001F057FB00200146012202F046FAF8
:106B7000012523462A4603F8075F29460E2001F027
:106B800049FB02F0C1F9642002F0BAFE002002F0D5
:106B90006FF948F2442084F8265002F055FB4FF478
:106BA0007F4003F003F8E72003F07CF8FFF740FF95
:106BB0000022A27517B030BDE72003F0A1F8FA203B
:106BC00002F09EFE684600F073FD8EE77419002007
:106BD00088220108680100202D69000830B5384C72
:106BE00085B0A06203F030FB03F070FA354B3648F5
:106BF0003649374A00930190364B02910392364949
:106C0000364A374802F020F9642002F079FE00206D
:106C100002F02EF90025012348F24420E57684F89D
:106C2000263002F011FB2F480188012906D00E20E2
:106C300010212A46A31D01F0BFFAA8B1FF2002F0DF
:106C4000E9FA10210E2001F031FB0021264B00242F
:106C5000CC5401311029F9D122460E2001F0DAFA84
:106C6000204A148003F038FC154C237993B9A0799D
:106C700010B90121A1750DE0E07958B90146012252
:106C800002F0BCF90121234603F8071F0E200A4633
:106C900001F0C0FA0A4B1A790AB9987D30B94FF45D
:106CA0007F4002F083FFE72002F0FCFF0F4801F075
:106CB000E3FAFFF7CFFE05B0BDE83040FFF7B8BEFE
:106CC0007419002085A1000899A1000805A20008F8
:106CD0002DA2000825690008156900081D69000833
:106CE00085690008B60200207A190020A01900204A
:106CF000F7B5974C94F82E202346002A40F0B9802F
:106D000094F82F00002840F0B48094F8260020B9B1
:106D100002F0AEF8012184F826108D4DA97D11B145
:106D2000FFF7A6FE19E02A79BAB1EC7DACB921468D
:106D30002246204602F062F986480BF0F1F8864EB2
:106D4000074630460BF0ECF800960190711F0320C7
:106D50003A46234602F0EEF82C717D4BD878012894
:106D600014D1D97D012911D15A79012A0ED10324D8
:106D70007A480BF0D5F8013C82B27849012002F044
:106D80002DF814F0FF04F3D1714BDC70704C94F8C3
:106D9000300040B9227E002A40F09B80607E0028AF
:106DA00040F09780D2E0E17DA1B394F82F208ABB18
:106DB000237E002B00F09F802CE0234603F8090F70
:106DC00001210E20032201F025FA4FF6FF7002F098
:106DD000EDFEE72002F066FFFEF7B4FF00285C4CF2
:106DE00080F2B28094F82E20002A40F0AF80FEF7A7
:106DF00071FF002880F2A68002232377544C0121E2
:106E0000207F234603F8090F03220E2001F002FA27
:106E1000002121764E4C217E002900F09780627E71
:106E2000BAB9FEF71BFF002811D002DA4FF47F0039
:106E300007E0012801D14A4803E0022803D14FF0BE
:106E4000FF1002F0B3FEE72002F02CFF01E0012367
:106E50006376FEF7C7FE002878D14248017809B171
:106E600002F0F4FE3A4B00229A76DA765A761A76D7
:106E70006CE093F82650002D3FF44FAF394C227848
:106E80000AB102F0E3FE324C0025284684F82E5069
:106E9000657184F82650E57525766576A576E576E4
:106EA0002577256203F0C2F9642002F029FDA37D55
:106EB0003BB1284601F0DCFF012084F82600FFF7F3
:106EC000D7FD4FF47F4002F071FEE72002F0EAFEAA
:106ED00023E7FEF729FF1E4900234FF47F408B76FE
:106EE000CB764B760B7602F061FEE72003B0BDE86F
:106EF000F04002F0D7BE642002F002FD04F1310040
:106F000001F048F9247F002C3FF45FAF4FF47F007D
:106F100002F04CFE0E4C207F00283FF44EAFE720DD
:106F200002F0C0FE4FF4FA7002F0EAFCE72002F033
:106F3000C7FE4FF4FA7002F0E3FC207F411ECBB293
:106F40002377E7E7032358E7012162E703B0F0BDA9
:106F5000741900206B0100207001002079010020CD
:106F60000060FF00FC19002007B5002100910A46CF
:106F70000B460248FFF78CFA0EBD00BFE019002057
:106F80007047FEE7FEE7FEE7FEE770477047704791
:106F9000FEF798BA08B5024B0BB1AFF3008008BDFD
:106FA0000000000008B5024B0BB1AFF3008008BD34
:106FB0000000000008B5024B0BB1FFF719FA08BD3D
:106FC000F163000808B5024B0BB1FFF712FA08BDD8
:106FD000F363000808B5024B0BB1FFF7F3FA08BDE5
:106FE000C565000808B5012004F01CF838B101207F
:106FF00004F028F8024B13B10020FFF715FA08BD82
:107000002964000808B5022004F00CF838B1022009
:1070100004F018F8024B13B10120FFF705FA08BD80
:107020002964000808B5042003F0FCFF78B10420AF
:1070300004F008F80020064B0146188002F0EEFE2E
:10704000044810210122BDE8084004F006BC08BD38
:107050000E1A0020002C014008B5082003F0E2FFC2
:1070600038B1082003F0EEFF024B13B10320FFF705
:10707000DBF908BD2964000808B5102003F0D2FF31
:1070800038B1102003F0DEFF024B13B10420FFF7EC
:10709000CBF908BD2964000808B5202003F0C2FF21
:1070A00038B1202003F0CEFF0E4B13B10520FFF7BF
:1070B000BBF9402003F0B6FF38B1402003F0C2FF17
:1070C000084810B10620FFF7AFF9802003F0AAFFAF
:1070D00038B1802003F0B6FF024911B10720FFF755
:1070E000A3F908BD2964000808B54FF4005003F067
:1070F00099FF40B14FF4005003F0A4FF174B13B1B8
:107100000D20FFF791F94FF4804003F08BFF40B161
:107110004FF4804003F096FF104810B10E20FFF7A7
:1071200083F94FF4004003F07DFF40B14FF400407D
:1071300003F088FF094911B10F20FFF775F94FF4EB
:10714000006003F06FFF38B14FF4006003F07AFF86
:10715000BDE8084002F04CBB08BD00BF2964000830
:1071600008B50F48102104F0B1FBC0B10C48102144
:1071700004F0B7FB002002F0FDFE28B9094B1A8885
:107180000A3290B2188008BD10210548002204F090
:1071900064FB00200121BDE8084002F03FBE08BDAD
:1071A000002C01400E1A002008B5012004F084F9DB
:1071B00030B1012004F092F9BDE8084004F060B954
:1071C00008BD000008B5022004F076F9B0B10C4B00
:1071D00000224FF400301A7003F034FF012004F055
:1071E00093F810B1012004F099F804F049F9022055
:1071F00004F074F9BDE8084004F042B908BD00BFCE
:10720000A319002002F082BA00F062B838B5144920
:107210000B78012B23D1134A13680BB90B7038BDBF
:10722000114C402B206881B205D94030403B206092
:107230001360402504E09DB2C31800202360106055
:107240000A4A5018C0212A4605F06EF80120294646
:1072500005F074F90120BDE8384005F0DDB838BD0F
:107260007C0C0020840C0020800C00207C0B002073
:10727000094908B50020094B0122088003201A7033
:1072800005F088F9064B0246188006484FF48871CD
:10729000BDE8084005F05FB8340B0020300B00203B
:1072A000320B0020360B0020074B1868052809D147
:1072B000064B1A68511C052A196003D1002018607A
:1072C000FEF71EBA704700BF2C1A0020E8190020F4
:1072D0003A4A38B511683A4B88B23A4D18801C8842
:1072E0002988214001F4007084B244B14FF6FF5563
:1072F00015609A78511CC8B29870FFF7D5FF304CD2
:10730000304B25881A882A4002F4004188B225466D
:107310001C4608B104F042FF2A882388134003F476
:10732000806188B230B1254B27494FF6FF321A6091
:1073300048688047224A234B11881B88194001F472
:10734000005081B219B11D494DF6FF7008601288D6
:10735000134003F4805398B230B1184A4EF6FF71CF
:107360001160002003F0DAFB154B164918880A88D3
:10737000024002F4006398B260B114490A7812B175
:1073800003F0ACFB02E0022003F0C8FB0B4B4FF212
:10739000FF7018600A490B480A880388134003F4F9
:1073A00080718AB242B1054B4FF6FF60186007202A
:1073B000BDE8384003F0B2BB38BD00BF445C0040BC
:1073C000EC190020F42700200C020020D802002035
:1073D000034B987A10B1034905220A60704700BF39
:1073E000D02700202C1A0020014B04221A6070477D
:1073F0002C1A0020034B1A78202A01D10020187083
:10740000704700BFF019002070470000212810B518
:1074100008D111480368197801F07F02212A11D0A0
:10742000022010BD2028FBD10B4B19680A780B49AC
:1074300002F07F030A4A212B0CBF0B460023107079
:107440000BB9EDE7074B044C2068002483614482AC
:1074500020469847204610BDF0270020B57400084C
:10746000F01900209D740008074B19680A7802F093
:107470007F03212B05D1022801D10020704722284B
:10748000FBD00220704700BFF027002009B1022086
:1074900070470128FBD808467047000020B9034B0D
:1074A000082219680A82704701487047F0270020B7
:1074B000D401002020B9034B082219680A827047C2
:1074C00001487047F0270020D4010020054B1968BF
:1074D000CA78042A04D8044B03EBC20104F0DEBBD3
:1074E00000207047F0270020DC010020014904F053
:1074F000D5BB00BFFC010020014904F0CFBB00BF99
:1075000004020020334A344BD179186810B50024A6
:1075100041728472C472204604F030FF20464FF45A
:10752000007104F033FF1021204604F03BFF40219E
:10753000204604F0D7FF8021204604F0C3FF2046F8
:1075400004F08CFF254B204693F8641005F004F8F6
:10755000204604F072FF0120214604F017FF0120AD
:10756000C02104F0AFFF0120202104F01BFF012007
:10757000214604F034FF02204FF4C06104F006FFFE
:1075800002204FF4807104F09DFF0220214604F098
:1075900026FF0220202104F005FF0320214604F0ED
:1075A000F5FE03204FF4887104F09CFF0320402176
:1075B00004F0D2FF03204FF4405104F010FF0320E9
:1075C000214604F0EFFE204604F07AFD044A012033
:1075D000106010BDF5220108F0270020D401002022
:1075E0002C1A002010B5FEF7D7F8054B00241868B8
:1075F000847203F05BFA04F0E3FF02490C6010BDF3
:10760000F02700202C1A002038B504460D46FFF75D
:1076100061F9204625614FF41651FFF765F92046C0
:1076200038BD70B506460D46002428460AF078FCA1
:10763000844208D2295D3046FFF740F9012002F06C
:107640005FF90134F1E770BD2DE9F84304460F46B8
:1076500090460D46C7EB05095FFA89F92046FFF70A
:1076600033F90028FADD2046FFF732F9C145C6B2EA
:1076700006D100232B7020460C49FFF7D2FF0AE009
:107680000D2EF6D00A2EF4D020463146FFF716F91B
:1076900005F8016BDEE72046FFF716F9002803DD49
:1076A0002046FFF715F9F6E7BDE8F883BA4D010863
:1076B000F0B585B00446FFF707F9002840F39D8038
:1076C0002046FFF705F9C0B2772867D104F1140608
:1076D00000212122304604F1350509F0B9FF0021CF
:1076E0002122284609F0B4FF04F15607002284F84D
:1076F000562020467A704249FFF793FF20463146D4
:107700002022FFF7A1FF20463E49FFF78AFF3946B6
:1077100001222046FFF798FF94F85630A3F130017C
:107720000329F0D8312B0BD120463749FFF779FFD9
:1077300020463649FFF775FF20463549FFF771FFB0
:1077400094F85600B0F1300708D020463149FFF7D1
:1077500068FF204629462022FFF776FF20462E4963
:10776000FFF75FFF23693A4630462946984720468F
:107770002A49FFF756FF20462949FFF752FF2046C6
:107780002849FFF74EFF20462749FFF74AFF2046CA
:107790002649FFF746FF2046254929E069282CD1D4
:1077A000244A01AB10685168002503C39168204644
:1077B00019602149FFF735FF01AEAE5D300900F1D8
:1077C0003001392988BF00F1570106F00F06204625
:1077D000FFF774F806F13001392988BF06F1570127
:1077E00020460135FFF76AF80C2DE5D113492046F4
:1077F00005B0BDE8F040FFF714BF05B0F0BD00BF15
:107800000E4C0108154C0108424C0108784C010847
:10781000A34C0108E94C0108F44C0108374D01085C
:10782000574D01088A4D0108BD4D0108FC4D010866
:107830002D4E0108E8F7FF1F434E0108BA4D01081D
:1078400007B5002100910A460B460248FEF720FECC
:107850000EBD00BFF4190020002100F004B80D4B4C
:107860005B58435004310C480C4B42189A42FFF4C9
:10787000F6AF0B4A00F003B8002342F8043B094B73
:107880009A42FFF4F9AF03F093F8FDF7A9FFFDF773
:10789000A9FD7047C04F010800000020200B002008
:1078A000200B002000280020FFF7FEBF73B54479AD
:1078B0000023022C01930FD0032C19D0012C2BD1C3
:1078C000164D28692E4620B1296901A8884702462D
:1078D000B8B9B16801201BE0104DE8682E4620B110
:1078E000E96801A88847024658B9B16802200FE04C
:1078F0000A4D6A692E464AB16B6901A8984702464B
:1079000020B1A9682046BDF8043003E0B168032027
:107910000022134600F05EFB7CBD00BF5C1B002014
:10792000072810B50CD801290AD8012404FA00F45C
:1079300001FA00F0034B1A6822EA040202431A60BB
:1079400010BD00BF64020020F0B5012187B00546DC
:1079500004F054FE00F48043044698B250B3B4F5EA
:10796000824F27D12846052104F048FE002607460D
:1079700007353446BE4208D02846022104F03EFEB8
:10798000013624180435B6B2F4E7744B188E21186A
:107990008AB21A86D86B2418DC63D96B9A6B914231
:1079A00040F0CE8093F84000002800F0C9809B6929
:1079B000992033E024F4FF4121F07F0290B20028A7
:1079C00000F09B8048F2100294422AD00CD8B4F503
:1079D000004F40F2C08048F202039C4217D9991C24
:1079E0008C4240F0B88012E048F2800084420ED011
:1079F00005D848F24002944240F0AD8051E0B4F521
:107A0000024F04D0B4F5084F40F0A5806CE0534914
:107A10008869002800F094808B69204600210A467E
:107A200069E00023EA1851790DF803100133042BA3
:107A3000F8D1687A2B7BAA7AE97A8DF804008DF860
:107A400007308DF805208DF8061005F10D00002394
:107A500006AAD218C15C0133042B02F8101CF7D11E
:107A600005F11100002306AAD218C15C0133042BD2
:107A700002F80C1CF7D105F11500002300AAD2185A
:107A8000C15C0133042B1174F8D1344928798A6917
:107A90008DF81400002A53D08B69204669461522C0
:107AA00029E005350021284604F0AFFD04210090AF
:107AB000284604F0AAFD08210190284604F0A5FDFF
:107AC0000C210290284604F0A0FD102103902846C6
:107AD00004F09BFD214B04909969002930D09B69EB
:107AE00020466946142206E01C48826942B3836935
:107AF000691D20460122984722E041F203039C427F
:107B000005D00C339C4202D0591E8C421AD16C1DF8
:107B10000421204604F079FD39301CD12D790F481D
:107B20000021C562204604F070FD04210546204670
:107B300004F06BFD393003D128460121FFF7F0FE38
:107B4000012009E0054A138899B28C4204D0B4F5AB
:107B5000805FF5D100E0002007B0F0BD5C1B002085
:107B600038B50A4C638898B208B9002038BD6068FF
:107B700001780429F9D1FFF7E7FE01280546F4D181
:107B80000022628001F062FC284638BD5C1B0020A8
:107B90002DE9F0470446884691460025BC4B5A889B
:107BA00090B20028FAD05E683178042940F07281E2
:107BB0003046012104F022FD05463046FFF7C4FEA1
:107BC000002840F05C8141F20703771D9D4253D8A5
:107BD0005A1E954280F0AC8040F20220854200F0AF
:107BE000A78014D80C2D09D8082D80F0A180002D75
:107BF00000F04581062D40F29B80DDE00D2D00F068
:107C0000948040F20127BD4240F039818DE041F27D
:107C10000202954218D8B5F5805F00F28980B5F56B
:107C2000017F40F2828040F207218D4240F027819F
:107C30003379002104F8013B384604F0E6FC0146A4
:107C4000204604F0CDFC1AE141F20400854200F028
:107C5000898040F2A0803846002104F0D6FC04213F
:107C60002060384604F0D1FC6060083406F10D074E
:107C7000224606F11D016EE041F21100854254D00A
:107C80002CD841F20B02954252D01CD841F2090186
:107C90008D424DD000F28B800021384604F0B5FCB7
:107CA00004212060384604F0B0FC082160603846AA
:107CB00004F0ABFC0C21A060384604F0A6FC04F1F3
:107CC0000C0AE060DAE041F20F00854263D035D85B
:107CD00041F20D02954240F0D28043E042F20601AB
:107CE0008D4222D008D8B5F5005F40F2C88042F23C
:107CF00004039D4219D983E042F208039D42C0F07B
:107D0000BE80581C854210D944F20B02954240F0C7
:107D1000B6807179DFF878A13846AAF830100121D1
:107D200004F06CFCAAF83200A9E037792770A6E0CD
:107D30003846002104F069FC2060A0E000213846AC
:107D400004F063FCA2464AF8040B0421384604F010
:107D50005CFC606092E057F8043B8F4242F8043BC1
:107D6000F9D18CE00021384604F04FFC042120605A
:107D7000384604F04AFC08216060384604F045FCAF
:107D800004F1080AA060E46814F1390376D10121F6
:107D9000FFF7C6FD72E00021384604F036FC0421EE
:107DA0002060384604F031FC6060083467E03379C5
:107DB00023713F68276062E03846002104F025FC0B
:107DC00004212060384604F020FC08216060384619
:107DD00004F014FC0A21A060384604F00FFCC4F83B
:107DE0000A000C3406F11107224606F1350157F856
:107DF000043B8F4242F8043BF9D1388810803EE0C2
:107E00000022B7187879A0540132042AF9D106F17A
:107E100009070023F95CE0180133042B0171F9D143
:107E200006F10D070020395C221801300428117278
:107E3000F9D106F111070023F95CE2180133042B94
:107E40001173F9D106F115000022875CA1180132E7
:107E5000042A0F74F9D106F119000023C75CE11858
:107E60000133062B0F75F9D106F11F000021475C85
:107E70006218013120299776F9D100E05446044B6D
:107E8000188882B2954225D10021198022E000BFD6
:107E90005C1B002030460321B77804F0AFFB82461C
:107EA000B8F1000F0CD00421701D04F0AEFB0346A6
:107EB000C9F8000006F115014046DAB209F042FAAD
:107EC0007A1DB1182046C7EB0A0209F03BFA0F49A8
:107ED0000020C8860D4F00237B8001F0B7FA307870
:107EE000042805D1B5F5805F02D13046FFF7DEFCEE
:107EF0003A8891B200297FF451AE044BD88E80B2FB
:107F000000287FF44BAEBDE8F08700BF5C1B00206B
:107F100007284FF0010308D803FA00F004490A6863
:107F200010420CBF0020012070471846704700BF68
:107F300064020020034B1880084600210A46FFF720
:107F400027BE00BF5C1B002010B5034B0124DC865C
:107F5000BDE81040FFF71CBE5C1B002038B503468F
:107F6000154601224A710C46881D194604F041FB52
:107F7000291D0570204601F031FB002038BD38B5C1
:107F8000BDF814500C469B18A071E81885B2022168
:107F90006171E271294604F1080004F02AFB6A1DB0
:107FA000204691B201F01AFB002038BD38B59B186D
:107FB0000C469DB202216171A071E271294604F163
:107FC000080004F016FB6A1D204691B2BDE8384057
:107FD00001F004BB2DE9F0471D4605F1020A032319
:107FE00001F107091FFA8AFA88714B710C4648465D
:107FF0005146174604F0FDFAB5F57A7F804613D84E
:10800000294604F0F6FA2946404604F0F2FA3946C9
:1080100004F10B002A4609F095F9A91D204689B202
:10802000BDE8F04701F0DABA4FF47A76B5FBF6F125
:108030000AEB410291B204F0DCFA3146404604F00A
:10804000D8FA394604F10B00324609F07BF9A5F560
:108050007A75204640F2EE31ADB2BF1901F0BEFA9A
:10806000B5F57A7F05D9A5F57A7085B24FF47A76A1
:1080700001E02E460025A046394628F8056F4846FF
:10808000324609F05FF9B31C404699B2BF1901F0BE
:10809000A5FA002DE4D1BDE8F0870000F7B51A4C31
:1080A0001E46A468FF238DF807300025475D63193D
:1080B0000135042D5F72F9D100200D5C23180130C9
:1080C00004285D73F9D10021505C63180131042943
:1080D0005874F9D104F11500002104F081FA00224E
:1080E000B35C83540132042AFAD12146142242F2AD
:1080F0000100FFF733FF42F201000DF10701FFF726
:1081000019FF9DF90700FEBD5C1B00202DE9F3411E
:1081100006460C461E4831681546D0F808804A1EAF
:108120001F46FF23122A8DF8073008F1090001D8F5
:108130001423336021684A1E122A01D814232360B5
:1081400029684A1E122A01D814232B6039684A1E56
:10815000122A01D814233B60316804F041FA2168E7
:1081600004F03EFA296804F03BFA396804F038FA62
:108170004146142242F20900FFF7F0FE42F20900E4
:108180000DF10701FFF7D6FE9DF90700BDE8FC8160
:108190005C1B002038B5074B42F205040546996880
:1081A00020460022FFF7DAFE20462946BDE8384087
:1081B000FFF7C0BE5C1B00202DE9F3418646144842
:1081C0000D46866871461F4602ACFF2306F1090082
:1081D00004F8013D904604F003FA294604F000FA41
:1081E00040F20125414604F0FBF90C2231462846B5
:1081F000FFF7B4FE28462146FFF79CFE00213846D3
:108200000A46FFF7A1FE9DF80700BDE8FC8100BF0C
:108210005C1B00202DE9F341864616480C46866813
:108220007146984602AD4FF0FF3306F10A0045F85B
:10823000043D174604F0D4F90C2104F0D1F921468D
:1082400004F0CEF9394604F0CBF94146224606F156
:108250001A0009F077F8902031461022A3B2FFF7F8
:10826000A5FE40F202202946FFF764FE0198BDE812
:10827000FC8100BF5C1B002037B50B4B40F207258B
:108280000446996800222846FFF768FE284669469A
:10829000FFF750FE9DF803009DF8041020706170F8
:1082A0009DF800003EBD00BF5C1B002037B50D4AA5
:1082B000034695680C4605F10900194604F090F94B
:1082C000214640F2032404F08BF929460822204677
:1082D000FFF744FE20460DF10601FFF72BFEBDF827
:1082E00006003EBD5C1B00202DE9F0430023CA5C64
:1082F000C2540133102BFAD10022334B467B99181C
:1083000091F8018004789F19F97A88EA0405847B42
:1083100085EA01081D194178EF7A90F80CC04F40AA
:10832000C17B80F810805D1895F80B9085786344C8
:1083300089EA050593F80B90C378477489EA03032B
:1083400090F80490FFB288EA090890F805908574C7
:1083500087EA090790F80690EDB285EA090590F8DA
:108360000790C374DBB283EA090390F8089080F8A1
:1083700014805FFA88F888EA090890F80990477530
:10838000FFB287EA090790F80A908575EDB285EA91
:10839000090590F80B90C375DBB283EA090388EAFC
:1083A0000C0C7E406C405940013280F818804776B2
:1083B0008576C37680F81CC046778477C177103005
:1083C0000A2A9AD1BDE8F0834A23010810F0800FF1
:1083D0004FEA400018BF80F01B00C0B27047000099
:1083E0002DE9F04F037891F8A0A004468AEA030A29
:1083F00080F800A091F8A1204078A77882EA0005D3
:10840000657091F8A260E07886EA0703A37091F89E
:10841000A32097B0059582EA0005E57091F8A49035
:108420002679069389EA060984F8049091F8A570E4
:108430006379079587EA0302627191F8A600A5792E
:10844000E37980EA0506A67191F8A7700C9287EA95
:10845000030B84F807B0227A91F8A880607A88EA42
:10846000020884F8088091F8A9700896474067725E
:1084700091F8AA50A67AE07A85EA0603A37291F8E9
:10848000AB20267B82EA0005E57291F8ACC0099327
:108490008CEA060C84F80CC091F8ADE0637BA27BFB
:1084A0008EEA030E84F80DE00D9591F8AE50E07B56
:1084B0005540A57391F8AF204B4B4240E2739A446C
:1084C00091F890009AF80B6199444640267091F813
:1084D000940099F80BA198448AEA0006267191F855
:1084E000980098F80B919C4489EA000626729CF843
:1084F0000BA191F89C009E448AEA00062673DF19BE
:108500009EF80B8197F80BC191F8910091F89D604E
:1085100088EA00098CEA060060730C9FDDF814A05D
:10852000DE1996F80B0191F89970DDF8208080EA49
:108530000706667203EB0A0091F8956090F80B71DC
:1085400084F8019087EA0600607103EB0800DDF80B
:1085500018E090F80B91099803EB0E0703EB000E5F
:108560009EF80BC191F8920091F89A6097F80B7100
:108570008CEA000A77405D1991F89E6084F802A0A9
:1085800091F8960095F80B81A772079F88EA00057D
:1085900089EA0606A673A571DE1996F80B0191F813
:1085A0009F5003EB0B0791F89360454097F80B0140
:1085B0009A1880EA06070D98E7701E1896F80B7156
:1085C00091F897004FF0090B87EA0006E67191F8E1
:1085D0009B3092F80B71E57387EA0300E0720D4659
:1085E000CDF840B002E000BF4A23010894F80090A3
:1085F000A77887EA0900FFF7E9FEFFF7E7FE94F89E
:108600000180E678824686EA0800FFF7DFFEFFF782
:10861000DDFE8AEA070380EA080227797040A6791E
:108620008AEA09015FFA80F886EA07005FFA82FBAE
:108630005FFA83FA5FFA81F903970296FFF7C6FEA5
:10864000FFF7C4FEE6796779014686EA07000491E0
:10865000FFF7BCFEFFF7BAFE039B049A94F808C02C
:1086600082EA0301CBB2029947404A40A17A7040A6
:10867000C6B2059381EA0C00D3B20291CDF804C0D2
:1086800006930796FFF7A2FEFFF7A0FE637AE67A4D
:10869000024686EA030003930492FFF797FEFFF772
:1086A00095FE049ADDF804C0039B82EA0C015FFA90
:1086B00081FC80EA0301CBB2029909934A40D3B20C
:1086C000CDF820C00A9394F80CC0A17B7040C6B2CC
:1086D00081EA0C000291CDF804C00B96FFF776FEFC
:1086E000FFF774FE637BE67B024686EA0300039392
:1086F0000492FFF76BFEFFF769FEDDF804C0049AF1
:10870000039B82EA0C015FFA81FC80EA0301CBB291
:10871000029970404A40C6B288EA0A018BEA090011
:108720000D93D3B20E930291CDF830C00F9681EA2B
:108730000006FFF74BFE89EA000286EA020C5FFAA8
:108740008CFC8AEA0B0084F800C0CDF804C0FFF767
:108750003DFE8BEA000386EA030B02995FFA8BFC6D
:1087600084F801C00846CDF844C0FFF72FFE8AEA1E
:10877000000286EA020A5FFA8AFB88EA090084F8A6
:1087800002B0CDF848B0FFF721FE88EA0000DDF81E
:1087900018900599079A4640FFB2F6B282EA090896
:1087A00087EA0100E670139688EA0006FFF70EFEDE
:1087B000059B584086EA0001CAB2484622717840BB
:1087C0001492FFF703FE474086EA0703D8B21590DC
:1087D00060714046FFF7FAFD89EA0001059B86EAD1
:1087E00001020798D7B25840A7710697FFF7EEFD30
:1087F0000799089A48404640F6B20A9F0596E671E6
:1088000009980B9E50407E4086EA0007FFF7DEFD88
:10881000DDF820A08AEA000387EA030C5FFA8CF8EF
:1088200084F8088009990A984840FFF7CFFD099A13
:10883000504087EA000B5FFA8BF9304684F80990C4
:10884000FFF7C4FD0A9E524686EA000387EA030149
:108850000B985FFA81FB504084F80AB0FFF7B6FD31
:10886000DDF82CA00E998AEA00000C9E47400F9B71
:108870000D98FFB24B407040E77283EA000A029302
:10888000FFF7A4FD0C9A0D9B50408AEA00060E9853
:10889000F6B226735840FFF799FD0D99029B81EAC5
:1088A00000028AEA0200C1B2617318460391FFF721
:1088B0008DFD0E9A0C9B50408AEA00010F98CAB2B7
:1088C000A27358400492FFF781FD0F99514B484025
:1088D0008AEA000C5FFA8CFADDF804C084F80FA075
:1088E00003EB0C0295F8800092F80B11DDF850C0F4
:1088F00081EA0002227003EB0C0195F8840091F8E4
:108900000B219E1982EA000103EB0802217195F800
:10891000880092F80BC196F80B218CEA00012172B5
:1089200095F88C00039E82EA000121739A1995F84C
:10893000811092F80B0103EB090680EA010295F819
:108940008D0096F80B11DDF844C081EA00061599F8
:108950006673581890F80B6195F88910DF1986EA4C
:108960000100607203EB0C0695F8850096F80B1178
:108970006270129A81EA000666719918DDF818C0D3
:1089800095F88A6091F80B0103EB0C0295F88E10B4
:10899000704092F80B6103EB0B02714092F80BC12F
:1089A00095F882608CEA0602049EA2709A1992F8E9
:1089B0000B6195F886205640A671A0721398A1739A
:1089C000191895F88F2091F80B61DDF814C07240EA
:1089D00003EB0C0695F8831096F80B0153444840BE
:1089E000E07095F8871097F80B014840E07195F812
:1089F0008B0093F80B11E273109A81EA0003511E69
:108A0000103D11F0FF00E37210907FF4EFAD17B04E
:108A1000BDE8F08F4A23010838B5054C05462046CD
:108A2000FFF762FC28462146BDE83840FFF7D8BC76
:108A3000681A0020034610210C200022FFF7BCBB5F
:108A4000034610210C200022FFF7E4BB38B5054691
:108A50000E4CE36A4BB108F055F8E36A036000205E
:108A6000E06208F04FF8006838BD2846FFF750FA7A
:108A700040B9228E91B20029EAD0238E5A1E91B2BB
:108A8000218638BD4FF0FF3038BD00BF5C1B002091
:108A9000F7B5034614480D4686681946174602ACDA
:108AA0004FF0FF3206F1090044F8042D03F098FD61
:108AB000294603F095FD41F20105394603F090FD8A
:108AC0000C2231462846FFF749FA21462846FFF78F
:108AD00031FA08F017F80199016008460021FEF705
:108AE0001FFF0198FEBD00BF5C1B0020F7B50546C7
:108AF00010484FF0FF33876802AC294641F20B065D
:108B000007F1090044F8043D03F06AFD04223946E8
:108B10003046FFF723FA21463046FFF70BFA07F0FD
:108B2000F1FF0199016028460121FEF7F9FE019845
:108B3000FEBD00BF5C1B002037B5034613484FF055
:108B4000FF3284680D4604F109001946019203F0D2
:108B500047FD082103F044FD082103F041FD0023F7
:108B6000E95CC1540133082BFAD11422214641F2A9
:108B70000700FFF7F3F901A941F20700FFF7DAF95F
:108B800007F0C0FF019A026010463EBD5C1B00204A
:108B90002DE9FF411D46314B8646D3F808800F462C
:108BA00008F10900714616460A9C03F019FD1421CC
:108BB00003F016FD142103F013FD142103F010FD42
:108BC000142103F00DFDD4F1010138BF002103F0A1
:108BD00007FD0FB1396800E0394603F001FD0EB121
:108BE000316800E0314603F0FBFC0DB1296800E07C
:108BF000294603F0F5FC74B1216839B9636841F284
:108C000087329342DCBF41F28833636003F0E8FCB3
:108C1000616803F0E5FC2C22414641F20800FFF7B1
:108C20009DF941F208006946FFF784F9009B002B8B
:108C300009DB0FB1019838600EB1029A326045B17C
:108C40000399296005E007F05DFF00994FF0FF33BD
:108C50000160184604B0BDE8F08100BF5C1B002035
:108C60002DE9FF419846154B07469D6814460E4670
:108C700005F10900394603F0B3FC214603F0B0FCCE
:108C8000414603F0ADFCBDF830400C222946204699
:108C9000FFF764F9204601A9FFF74CF90298002874
:108CA00004DD30460A990B9AFFF74EF907F02AFFC8
:108CB00002990160084604B0BDE8F0815C1B002009
:108CC0001FB500240094019441F204040294FFF7BC
:108CD000C7FF04B010BD00002DE9F04F89B003912B
:108CE00014469B46139E149D0290FFF7AFFEDDF8DD
:108CF00008C0002857D12D4B9A6B511C9963D3F8AB
:108D00000890812D09F10A0307D0832D0AD104F1BF
:108D1000080A09F12208182704E009F11A081027A7
:108D2000064612906146184603F05AFC391F03F0BC
:108D300057FC214603F054FC594603F051FC832DA7
:108D400005D1514603F04CFC082103F049FC0022F8
:108D5000A24205DA0398815C08F802100132F7E7B5
:108D6000002CA8BFA044832D0ED0129AB6B2009258
:108D70000196E8B249463A46A3B2FFF700F9832DBF
:108D80000BD141F20F000AE00020B042EDDA129957
:108D90000B5C08F800300130F7E741F2030005A949
:108DA000FFF7C8F8204609B0BDE8F08F5C1B002033
:108DB0001FB500240094019481240294FFF78CFFD6
:108DC00004B010BD1FB5069C0094079C0194832439
:108DD0000294FFF781FF04B010BD0000202A73B594
:108DE00003460E46144622D8124A1946956805F1E4
:108DF000090003F0F5FB082103F0F2FB214603F024
:108E0000EFFB0022A24203DAB15C81540132F9E7A0
:108E100004F10C032946DAB241F21100FFF79EF883
:108E200041F2110001A9FFF785F8019801E04FF028
:108E3000FF307CBD5C1B0020024B01225A80586031
:108E4000FEF78EBE5C1B002010B5084CE16022616D
:108E50006361029B0399E361049A059B216262624C
:108E6000A362A061012084F8400010BD5C1B0020BB
:108E700070B5224C054622480023A363E363238098
:108E800023866386A386E386E36263806360A060D3
:108E90001C4800F0B1FAE1698847A26A0646012041
:108EA00090470EB3E16988470028FBD1134C002D91
:108EB00014BF02250025A16801224D724FF48040A5
:108EC000FFF74CF800214FF48040FFF733F8A1681A
:108ED000002244F20B00FFF741F844F20B0000219E
:108EE000BDE87040FFF726B8E36998470028FBD03B
:108EF000E06980470028FBD1D8E700BF5C1B002059
:108F0000C41B0020398E000838B5094C0020A36A24
:108F100098472546E869064C80470028FAD0A168A2
:108F200009B10022A260BDE8384000F081BA00BF5C
:108F30005C1B00202DE9F04F83462F4885B0D0F808
:108F40000890144600259A4688464FF0FF331C21AE
:108F500009F1090001930F9E0E9F0295ADF80C5088
:108F600003F03EFB214603F03BFB594603F038FB80
:108F700004F1100103F034FB314603F031FB2946C4
:108F800003F037FBBAF1000F08D01AF8052042555C
:108F90000135062DF9D10630002207E0534602AA1A
:108FA000995CC1540133062BF9D1F4E7A24204DAEB
:108FB00018F8021081540132F8E7002CA8BF0019FC
:108FC0003EB100232FB1B34203DAFA5CC25401333D
:108FD000F9E71C34A319DAB249460120FEF7BEFFB7
:108FE00001A90120FEF7A6FF07F08CFD01990160A1
:108FF000084605B0BDE8F08F5C1B0020F7B50346BE
:109000000F480E4685681946174602AC4FF0FF32EE
:1090100005F1090044F8042D03F0E2FA314603F0AB
:10902000DFFA394603F0DCFA29460C220420FEF769
:1090300095FF04202146FEF77DFF0198FEBD00BF8D
:109040005C1B00202DE9F04F8346714885B0D0F8B5
:1090500008900D4614465946002209F109009A4627
:109060000E9F0F9E0292ADF80C2003F0B9FABBF1EF
:10907000030F00F2BE80DFE80BF0022F767614219A
:1090800003F0AEFA214603F0ABFA002103F0B1FA87
:10909000BAF1000F07D000221AF8021081540132F1
:1090A000062AF9D106E0534602A95A5CC25401339C
:1090B000062BF9D10630394603F092FA4FF000083A
:1090C000A04506D015F8083000F8083008F101086E
:1090D000F6E708F118008AE0202103F081FA214622
:1090E00003F07EFA002103F084FABAF1000F07D0F2
:1090F00000221AF8021081540132062AF9D106E042
:10910000534602AA995CC1540133062BF9D1394662
:10911000063003F065FA04F10C0103F061FA314600
:1091200003F05EFA109903F05BFA0022A24203D02A
:10913000AF5C87540132F9E7001900220421129D27
:109140008718AD180023B34205D015F803E007F8DF
:1091500003E00133F7E701391A44F0D104F1240C9C
:109160000CEB830043E0282103F03AFA214603F098
:1091700037FA002103F03DFABAF1000F07D00022C0
:109180001AF8021081540132062AF9D106E053463A
:1091900002A95A5CC2540133062BF9D13946063074
:1091A00003F01EFA314603F01BFA109903F018FA87
:1091B000119903F015FA04F1080103F011FA13995B
:1091C00003F00EFA0021A14203D06A5C425401313F
:1091D000F9E70019002313998B4204D0129AD15C4D
:1091E000C1540133F7E704F12C0808EB03001FFA20
:1091F00080F849465FFA88F20520FEF7AFFE0520A9
:1092000001A9FEF797FE019805B0BDE8F08F00BFF9
:109210005C1B002037B50B4B01469D6802AC05F185
:10922000090003F0DDF94FF0FF3044F8040D294642
:1092300004220620FEF792FE06202146FEF77AFE63
:1092400001983EBD5C1B002037B548F2080248F289
:10925000080102408A42034613490BD10020934281
:1092600081F840001FD023F4004424F0080545F4A1
:10927000004302E0012081F840000B494FF0FF322B
:109280008D6802AC194605F1090044F8042D03F07D
:10929000A7F9294604220820FEF760FE082021468F
:1092A000FEF748FE01983EBD5C1B002073B50C4BD9
:1092B00001469D684FF0FF3602AC05F109000196AA
:1092C00003F08EF944F8046D294604220A20FEF7C3
:1092D00045FE0A202146FEF72DFE01987CBD00BF09
:1092E0005C1B002007B50D4A4FF0FF3301939168D6
:1092F00090B154234370037083704B7242788A722A
:1093000080780322C8720C20FEF728FE0C2001A9E9
:10931000FEF710FE019800E018460EBD5C1B002011
:109320002DE9F041314886B0FFF784FB054600285F
:1093300058D12F4E2A460D2043213346FEF73CFFDD
:10934000054600284ED13778284907F1030808EB75
:1093500006042046FFF760FB3378F6187078102873
:1093600004D904F110002149FFF756FBE17F204AA0
:1093700021B112F808301F2B04D101E012F8083097
:10938000013400E02023107811188A78032A29D8A4
:10939000DFE802F0020E1919002001250095019066
:1093A000029003900490059012493A46034616E055
:1093B00001208DE809000023029303930494059390
:1093C0000C493A460BE0012018211E2202258DE8A7
:1093D000270008490593049403203A460023FFF729
:1093E00031FE0546284606B0BDE8F081A01B0020EE
:1093F000181B0020191B002008B50949094B002241
:109400009A6018601961DA80DA609A80064B074A20
:10941000DE2081F8EF0583F8EF05116A884708BD63
:10942000B4210020B01B0020C41B00205C1B0020C6
:1094300008B5044B1A690AB10020186102494B6A49
:10944000984708BDB01B00205C1B0020024B4FF466
:1094500080725A60704700BF00E100E008B50A4B17
:109460004FF48072C3F8842000F084FE0749086935
:1094700090F8EF25DE2A00D0FEE702238B6005304E
:109480000968884708BD00BF00E100E0B01B00206C
:1094900070B50646002014460D4600F05BFE012E16
:1094A000A4B207D130462946224600F0DBFD002059
:1094B000124907E0124B01201969224600F0D2FD43
:1094C00000202946224600F0CDFD0E48022101224F
:1094D00001F043FD012000F03DFE0A4801F045FD8A
:1094E0000028FAD1084801F040FD0028FAD10748C9
:1094F000802102F036F80028F9D170BD6802002002
:10950000B01B0020580002404400024000380040D8
:1095100003460A4601201946FFF7BABF70B5064652
:10952000002014460D4600F015FE012EA4B207D10E
:1095300030462946224600F095FD0020104907E0FC
:10954000104B01201969224600F08CFD00202946AD
:10955000224600F087FD012000F0FCFD0A4801F0E2
:1095600004FD0028FAD1094801F0FFFC0028FAD1D7
:109570000748802101F0F5FF0028F9D170BD00BF38
:1095800068020020B01B0020580002404400024046
:109590000038004003460A4600201946FFF7BEBFC8
:1095A00038B504460D4600F001FF322000F0B4F952
:1095B000214604220020FFF7B1FF322000F0ACF971
:1095C0000020211D2A1FFFF7A9FF034B02229A60EA
:1095D00000F0D0FD002038BDB01B0020F8B501F030
:1095E0000106044686F0010001230D1800262370B1
:1095F000C5F307221E4B6270A570E670267193F8C2
:10960000EF55DE2D00D0FEE71A4EB26812B9B368EE
:10961000012BFCD1174D0531AA680818012A86B222
:1096200007D120463146FFF7BBFFAB68022BFCD1C8
:109630001CE0AF68022FFCD10F48802101F091FFA0
:109640000028F9D10D4DEB6998472F460028F9D035
:10965000084D0321A960EC60AE8000F0A7FEF86918
:1096600080470028FBD0AA68022AFCD10020F8BD60
:10967000C41B0020B01B0020003800405C1B0020F1
:1096800070B5184E35696B79022B08D0042B25D1A3
:10969000287A441E14F0010F18BF044614E0681D18
:1096A000032102F0ABFFB0F5806F044608DB05F143
:1096B0000A004FF480610724FFF72AFFB4600EE030
:1096C000C30701D4441C00E024B105F10A00A1B293
:1096D000FFF71EFF034908228A6000E000242046AD
:1096E00070BD00BFB01B0020024B012019690A2287
:1096F000FFF7CEBEB01B002008B5FFF7C1FF18B9B9
:10970000BDE80840FFF7AABE08BD000070B5364CA2
:109710004FF40030266901F02BFC05464FF4005051
:1097200001F026FCA368062B0BD1002D5BD000288E
:1097300059D04FF4083001F029FCBDE87040FFF724
:10974000DBBFA16807291BD100284CD04FF408309B
:1097500001F01CFC0321701D02F050FFA0F5806495
:10976000A1B2214CCA0758BFA0F2FF31206958BFEF
:1097700089B200F20A40FFF7CBFE0823A36070BD58
:10978000A268082A09D100282DD04FF4083001F032
:10979000FDFBBDE87040FFF761BEA068052811D150
:1097A000002D20D01148802101F0DBFE0028F9D1E6
:1097B0004FF4083001F0EAFB00F0DCFC0A4A022119
:1097C000916070BDA368042B0DD165B1A088E268DB
:1097D0000521A0F58063A16002F5806099B2BDE823
:1097E0007040FFF7D7BE70BDB01B002000380040AE
:1097F00008B5174BD8698047002827D1154B9A68C0
:1098000012B90120986008BD9968022907D1062283
:109810009A6000F0CBFDBDE80840FFF765BF9A688D
:10982000032A13D19A88B2F5806F06D80521996072
:10983000D968BDE80840FFF72BBE04209860D868BF
:109840004FF48061BDE80840FFF7A4BE08BD00BF2B
:109850005C1B0020B01B0020BFF34F8F054A064B56
:10986000D16801F4E06040EA0301D160BFF34F8F9B
:10987000FEE700BF00ED00E00400FA050D4B0E4AC4
:10988000197839B9D88881B21187188981B291873E
:109890009B8806E0D88981B21187188A81B29187A6
:1098A0009B8906489BB29386FF2163220270417018
:1098B000704700BFFC190020002C014070020020FE
:1098C0004FF4407001F06EB90A4B4FF47A701A6889
:1098D000094BB2FBF0F109484A1EF0215A6080F8AA
:1098E0002310002207219A601960D02380F82330CA
:1098F000704700BFC402002010E000E000ED00E06F
:1099000082B00190019A034B1A6018680028FCD1BC
:1099100002B07047B027002013B50749074B0190EC
:109920000C68074901985A68B4FBF1F100FB01206B
:109930005A689042FCD81CBDC4020020001000E010
:1099400040420F0030B54FF4003085B001F07AFB93
:1099500008204FF40033002501248DF80D006844E1
:1099600002938DF80C508DF80E4001F019FB032185
:1099700001A88DF804108DF805108DF806508DF8AB
:10998000074001F019F9042329220DEB03008DF89B
:1099900004208DF805308DF806508DF8074001F051
:1099A0000BF9022001F0B0FC50B1022001F0B6FC2E
:1099B00001F070FD24204FF6FF7101F007FA27E057
:1099C000242001F011FA4AF2A551884201D101F098
:1099D00087FC012001F0BAFC412001F005FD0028C0
:1099E000FAD04FF4807001F0C1FC012001F0C6FCF8
:1099F00001F050FD01F044FD0320012101F010FDB4
:109A000001F03EFD47F6FF7001F02AFD01F038FD40
:109A100005B030BD10B5044645F2555001F038FC94
:109A2000062001F03BFC42F21070844228BF04463D
:109A300028216143C1F30F2001F036FC01F03AFC0C
:109A4000BDE8104001F03EBC082814D8012908D117
:109A50000B490C4A01EB8003596832F81000086189
:109A60000BE051B9064B074A03EB80014B6832F813
:109A70001000586101E0FF2300E0002358B2704756
:109A8000700200205825010873B50E4E8500731929
:109A900004460121186901F083FC0B4B36F81400D1
:109AA00010215D19ADF804008DF8071003226868D5
:109AB00001A98DF8062001F045FB20460021FFF7A3
:109AC000C3FF7CBD582501087002002070B501213C
:109AD00088B04FF4006001F063FC314B31481C68E2
:109AE00042F20F76B4FBF0F14A1E2F4C01A895B25A
:109AF00001F086FE01A801F083FE01A9ADF8045033
:109B000020460025ADF80860ADF80A50ADF80650C3
:109B100001F02EFD04A801F07CFE02206023012646
:109B2000ADF8180004A92046ADF81030ADF8126069
:109B3000ADF81650ADF81C5001F064FD20462946E2
:109B400001F0A0FE204604A901F0A0FD2046294610
:109B500001F0A0FE204604A901F0DCFD20462946C4
:109B600001F0A2FE204604A9ADF81050ADF8126035
:109B7000ADF81650ADF8185001F00EFE20462946FB
:109B800001F09AFE2046314601F070FE2046314633
:109B900001F049FE2046314601F051FE08B070BD8B
:109BA000C402002040420F00002C014030B5104993
:109BB000104B8C8D93F82420A5B26C1C5443C0F339
:109BC00007435C430C4B250CDD808C8DA5B26C1CCF
:109BD0005443C0F307256C43240C1C81898DC0B20B
:109BE00089B2013148434243120C9A8030BD00BF14
:109BF000002C014070020020FC19002030B51049F3
:109C0000104B8C8D93F82420A5B26C1C5443C0F3E8
:109C100007435C430C4B250CDD818C8DA5B26C1C7D
:109C20005443C0F307256C43240C1C82898DC0B2B9
:109C300089B2013148434243120C9A8130BD00BFC2
:109C4000002C014070020020FC190020024B002271
:109C50001A70FFF713BE00BFFC19002037B50F4D77
:109C6000044605EB8003186B012105EB440501F068
:109C700097FBB5F84000ADF804000CB9102100E0E6
:109C80001821074B8DF8071003EB84040322A06A08
:109C900001A98DF8062001F055FA3EBD58250108AE
:109CA0007002002018B1E72807D1FFF7E7BD034B8A
:109CB0004FF40052986A02617047704770020020AA
:109CC00058B1E7280FD1084A002308481387938723
:109CD000938601220370427005E0044B4FF400505C
:109CE000996A486170477047002C0140700200205B
:109CF000024B0122E7201A70FFF7E2BFFC19002097
:109D000010B1E72840D106E020498B6ADA6882F476
:109D10000050D86070471E4A1E4B1178C1B9188F89
:109D200080B208B1198702E0D1888AB21A879B8F66
:109D3000184899B209B1002102E0154A138999B275
:109D400081871449888E82B2C2B9114B988819E074
:109D5000188F81B209B1002001E0D28990B2188732
:109D60009B8F0C499AB20AB1002202E00848038A8C
:109D70009AB28A870749888E83B20BB1002002E02D
:109D8000034A908980B28886704700BF7002002025
:109D9000FC190020002C014010B51D4A13780BB9A6
:109DA000012102E0632B01D1FF2151705178E72896
:109DB0000B44DBB2137029D1164A6320147816497C
:109DC0007CB9D488A4B25C43B4FBF0F4A4B20C8791
:109DD0001489A4B25C43B4FBF0F4A4B28C879288DB
:109DE0000EE0D489A4B25C43B4FBF0F4A4B20C87B7
:109DF000148AA4B25C43B4FBF0F4A4B28C879289B9
:109E000092B25343B3FBF0F398B2888610BD00BF03
:109E100070020020FC190020002C014073B5104C8A
:109E20000E4604EB400494F84C10054694F84800A4
:109E300001F014FAB4F85040204601F0EDF809485A
:109E40000023451995F83810684600948DF80430C1
:109E50008DF805108DF8066001F0A2F87CBD00BFFA
:109E60005825010870020020F7B5224E8700F3192B
:109E70000546586D0C4640F00100012101F090FAB2
:109E80001D4B06EB45065A1992F83A10B6F85C00DD
:109E900002AADF198DF8031022F8080D6946F86B45
:109EA00001F050F9012C24D11021002213481B2766
:109EB00001F0D3FC05238DF8047001A800278DF86C
:109EC00005308DF806708DF8074000F075FEB6F885
:109ED000601006208DF8050001A88DF804108DF89B
:109EE00006708DF8074000F067FE28462146FFF710
:109EF00095FFFEBD5825010870020020002C01408E
:109F00001A4B1B49DA6810B542F080700024D86003
:109F10004C600B684FF0C05043F001020A60012111
:109F200001F04AFA012001F0D5F9FFF7C9FC012040
:109F3000014601F035FAE0B20134FFF7A5FD082C27
:109F4000F9D1FFF7C3FD0020FFF788FE0120FFF7DE
:109F500085FE0220FFF782FE0320FFF77FFE002030
:109F60000121BDE81040FFF77FBF00BFF0ED00E02A
:109F7000001000E0054A064B02EB800103EB4002B3
:109F8000C86BB2F85C1001F02DB900BF7002002060
:109F900058250108024B03EB4000418A88B2704704
:109FA000FC190020024B002203EB40004282704764
:109FB000FC19002010B5082086B0012101F0F0F94D
:109FC000264C4FF48040012101F0F6F903201821BE
:109FD0004FF400538DF802008DF8031020466946B7
:109FE000ADF8003001F0AEF84FF40042204669466B
:109FF000ADF8002001F0A6F804204FF480438DF85E
:10A00000030069462046ADF8003001F09BF80021BE
:10A01000ADF804104FF48272ADF80810ADF80A10D4
:10A020004FF40070ADF81210A4F554440721012339
:10A03000ADF80620ADF80E000822ADF81410204649
:10A0400001A9ADF80C30ADF8102001F051FA2388C9
:10A05000034A98B2108006B010BD00BF000C01404A
:10A06000BE27002070B5044601208CB00E46014684
:10A07000154601F089F9124B002080224FF440511F
:10A08000012C019302960590069207900890099082
:10A090000A910B9006D103900A48049500F0BAFE8D
:10A0A000084807E04CB9102307480393049500F0D3
:10A0B000B1FE054801A900F025FF0CB070BD00BF3E
:10A0C0000C380040440002405800024073B50F2392
:10A0D0000124002501A88DF804308DF805508DF875
:10A0E0000650174E8DF8074000F066FDFFF762FF3F
:10A0F00020462A461349FFF7B5FF28462A4612494B
:10A10000124DFFF7AFFF30460221224600F025FF37
:10A1100028462146224601F016FA22462846022108
:10A1200001F011FA2846214601F001FA21460848BB
:10A1300000F008FF3046214600F004FF7CBD00BF60
:10A1400058000240B4210020C41B00200038004009
:10A150004400024010B504462146044800F0F2FED7
:10A1600003482146BDE8104000F0ECBE4400024028
:10A170005800024002484FF4805101F039B800BF46
:10A18000000C014008B54FF40061024801F02AF8C4
:10A1900008BD00BF000C014030B5092085B0012189
:10A1A00001F0FEF84FF400644823694614488DF826
:10A1B0000330ADF8004000F0C5FF0B21012001F095
:10A1C0004DF8204600F028FF0C20029400250124C1
:10A1D0008DF80D0002A88DF80C508DF80E4000F09F
:10A1E000DFFE282101A88DF804108DF805408DF8B8
:10A1F00006508DF8074000F0DFFC05B030BD00BF11
:10A20000000C01401FB52823002401A88DF804305C
:10A210008DF8074000F0D0FC4FF40060029002A8D7
:10A220008DF80E4000F0BCFE1FBD000020B10548B7
:10A230004FF4807100F0DCBF02484FF4807100F0F1
:10A24000D9BF00BF000C014013B5082001210F4CFD
:10A2500001F0A6F8032010214FF480538DF806007A
:10A260008DF80710204601A9ADF8043000F06AFF10
:10A27000FFF780FF4FF48072204601A9ADF804205B
:10A2800000F060FF0020FFF7D1FF1CBD000C014073
:10A2900010B50B4C238823F0400001040A0C2280E7
:10A2A000FFF768FF074B188881B2074841F040026A
:10A2B0004FF400712280BDE8104000F09BBF00BF4A
:10A2C00000380040BC270020000C014002484FF439
:10A2D000007100F08DBF00BF000C014070B5082078
:10A2E00086B0012101F05CF82E4C01214FF4804032
:10A2F00001F062F818204FF4005303268DF8030094
:10A3000069462046ADF800308DF8026000F01AFF73
:10A310004FF40041ADF800102046694600F012FFEE
:10A3200004254FF4804220466946ADF800208DF8A0
:10A33000035000F007FF4FF40075102320466946D4
:10A340008DF80330A4F55444ADF800508DF8026048
:10A3500000F0F8FEFFF7BAFF00204FF482710822E8
:10A36000ADF80400ADF80610ADF80800ADF80A002D
:10A37000ADF80C00ADF812000723204601A9ADF896
:10A380001020ADF80E50ADF8143001F0B1F820886F
:10A39000054A81B211802046012101F0C8F806B0BB
:10A3A00070BD00BF000C0140BC27002010B50B4C55
:10A3B000238823F0400001040A0C2280FFF786FF67
:10A3C000074B188881B2074841F040024FF4805192
:10A3D0002280BDE8104000F00DBF00BF00380040F3
:10A3E000BE270020000C014007B50820012100F025
:10A3F000D7FF032014214FF480638DF806008DF8F9
:10A400000710034801A9ADF8043000F09BFE0EBD13
:10A41000000C0140002008B500F088FF4FF4000058
:10A420000121BDE8084000F0C7BF0000014B032236
:10A430001A6070472C1A0020044B05489A7A0AB11A
:10A44000052100E001210160704700BFD0270020F6
:10A450002C1A002007B5022014238DF805000021D6
:10A46000012201A88DF804308DF806108DF8072020
:10A4700000F0A2FB0EBD000020B105484FF4806142
:10A4800000F0B8BE02484FF4806100F0B1BE00BFDA
:10A49000000C01400A4B987D80B10A490A4B0A889A
:10A4A0000A48A3F844200188094AA3F846101088F6
:10A4B0000849A3F848000A88A3F84A20704700BF5B
:10A4C000FC190020004C000870020020024C00081B
:10A4D000044C0008064C000810B51A4B987D002863
:10A4E0002FD000F0B5FD342000F0C6FD164800F076
:10A4F0000BFE042824D1154C1348B4F8441000F086
:10A50000E7FD04281BD11248B4F8461000F0E0FD26
:10A51000042813D10F48B4F8481000F0D9FD0428DE
:10A520000BD10D48B4F84A1000F0D2FD042803D135
:10A53000BDE8104000F098BDFEE7FEE7FEE7FEE74D
:10A54000FEE710BDFC190020004C0008700200203E
:10A55000024C0008044C0008064C000838B50546BB
:10A560004FF0FF10FFF722FBFFF788F90C4B002498
:10A57000A3F84A40FFF7B0FF0A4820228562C26173
:10A580000462084C216AE369994207D205EB013065
:10A5900000F0F3F9206A421C2262F2E738BD00BFE6
:10A5A00070020020FC1900202DE9F04106460F46FC
:10A5B0004FEA91080024444516D056F82420174845
:10A5C000174D0270C2F30721C2F30743EA62120E6D
:10A5D0004170C270A96A0422837000F065F9A86A0C
:10A5E0000134011DA962E6E7BB0711D056F82430FB
:10A5F0000A480B4AC3F307214170C3F30741D362F2
:10A60000037081701B0E916A0422C37000F04CF934
:10A61000E720BDE8F041FFF773BB00BFB82700207B
:10A62000FC19002008B5074B0524A3F84840FFF7A4
:10A6300053FF2820214600F0C9FB0020FFF71CFF34
:10A64000FFF70AF9700200204FF480514FF4937223
:10A6500000F07DB84FF400514FF4197200F077B854
:10A66000034BB3F84A00421E514251EB02007047BF
:10A6700070020020024B0022A3F84A20FFF72CBFF3
:10A680007002002070B50E46054600F0BDFBB30811
:10A690002C461A46013A0434511C114905D054F88D
:10A6A000040C90FAA0F00860F4E705EB8303086857
:10A6B00090FAA0F106F003069E19B3420ED013F8EB
:10A6C000014B0822614011F0010F4FEA510416BFFF
:10A6D000044921466140013AF5D1EEE7C84370BD17
:10A6E000003002402083B8ED10B504460A4802212C
:10A6F00000F037FF0028F9D00748214600F02CFF72
:10A700000548012100F02DFF0028F9D0024800F093
:10A7100025FFC0B210BD00BF0038004070B5FFF784
:10A72000B7FD9F20FFF7E0FFFF20FFF7DDFF0446A6
:10A73000FF20FFF7D9FF0546FF20FFF7D5FF2D02C9
:10A740000646FFF7C3FD45EA0440304370BD70B5CF
:10A750000C4615460646FFF79BFD0320FFF7C4FF96
:10A76000C4F30740FFF7C0FFC4F30720FFF7BCFFA7
:10A77000E0B2FFF7B9FF3DB1FF20FFF7B5FF013DA4
:10A7800006F8010BADB2F6E7BDE87040FFF79EBDDD
:10A7900008B5FFF77DFD0620FFF7A6FFBDE80840DE
:10A7A000FFF794BD08B5FFF773FD0420FFF79CFF8A
:10A7B000BDE80840FFF78ABD08B5FFF78FFDFFF73A
:10A7C000F1FFFFF7ABFF104B984202D04C3B984291
:10A7D00019D1FFF75DFD8020FFF786FFFFF776FDBB
:10A7E000FFF756FD5020FFF77FFFFFF76FFDFFF7E4
:10A7F0004FFD0120FFF778FF0020FFF775FFBDE850
:10A800000840FFF763BD08BD8D25BF0008B5FFF701
:10A810003FFD0520FFF768FFFF20FFF765FFC30737
:10A82000FAD4BDE80840FFF751BD70B50D46164695
:10A830000446FFF7ADFFFFF72BFDAD20FFF754FFF8
:10A84000C5F30740FFF750FFC5F30720FFF74CFFA4
:10A85000E8B2FFF749FF2078FFF746FF6078FFF77F
:10A8600043FFFFF733FDFFF7D1FFA51C2C46023451
:10A870002B1BF01881B289B1FFF70AFDAD20FFF75D
:10A8800033FF14F8020CFFF72FFF14F8010CFFF749
:10A890002BFFFFF71BFDFFF7B9FFE8E7FFF716FDFA
:10A8A000BDE87040FFF77EBF2DE9F84F11F0FF09BA
:10A8B00006460D4617464FEA12381DD1B8F1000F73
:10A8C00003D1304629463A4651E004465FFA89F200
:10A8D000A81B904504EB000109D020464FF480529C
:10A8E000FFF7A3FF04F5805409F10109EEE74FEAF1
:10A8F00008317018491939E0C9F10004E4B2B8F11F
:10A90000000F0DD1D2B2A242DBD902EB09035FFAEC
:10A9100083F92246FFF789FF301961194A4626E07C
:10A92000171B2246FFF781FFBFB24FEA173965199F
:10A9300034195FFA89FB5FFA87FAA0460026F3B262
:10A94000291B9B45414408D040464FF48052FFF7F5
:10A950006CFF08F580580136F1E74FEA093904EB3E
:10A96000090009EB0501BAF1000F04D0FAB2BDE805
:10A97000F84FFFF75ABFBDE8F88F10B50446FFF750
:10A9800007FFFFF785FC2020FFF7AEFEC4F307406A
:10A99000FFF7AAFEC4F30720FFF7A6FEE0B2FFF719
:10A9A000A3FEFFF793FCBDE81040FFF72FBF0000A8
:10A9B0003A4B82B01A6842F0010018605968384A70
:10A9C0000A405A60186820F0847121F480321A60BD
:10A9D000186820F4802119605A684FF41F0122F48E
:10A9E000FE0000225860996000920192186840F4BD
:10A9F00080311960294B1A6802F4003001900099E7
:10AA00004A1C0092019818B90099B1F5A06FF1D1D4
:10AA10001B6813F4003218BF01220192019801282B
:10AA200005D0204B4FF000629A6002B070471E497B
:10AA30000B6843F010020A60086820F003030B6003
:10AA40000A68A1F5805342F0020008605968596015
:10AA50005A685A60586840F4806159605A6822F414
:10AA60007C105860596841F4E8125A60186840F048
:10AA7000807119601868094A8101FBD5536823F079
:10AA800003015160506840F002035360034A51686B
:10AA900001F00C000828F9D1C3E700BF0010024004
:10AAA0000000FFF800ED00E00020024008B50120A2
:10AAB000FFF7E2FC064B0749012200201A601860EC
:10AAC000086005494FF4E0520A801A6008BD00BFD3
:10AAD000405C0040445C0040F4270020064B1A68AC
