:020000040800F2
:105000000050002011510008656200086762000826
:10501000696200086B6200086D6200080000000011
:105020000000000000000000000000006F620008A7
:1050300071620008000000007362000875620008D9
:105040005D5100085D5100085D5100088D64000845
:105050005D5100085D510008C9620008E96200085E
:10506000096300083D6300085D6300085D510008A6
:105070005D5100085D5100085D510008E9640008B9
:105080005D5100085D510008796200085D5100081B
:10509000ED6400085D5100085D5100087D63000863
:1050A0005D5100085D5100085D510008456400082D
:1050B0005D5100085D5100085D51000899620008CB
:1050C000A96200085D5100085D510008B96200083E
:1050D0005D5100085D510008896200085D510008BB
:1050E000CD630008A96400085D51000800000000BD
:1050F00000000000000000000000000000000000B0
:0C51000000000000000000005FF808F153
:10511000002100F004B80C4B5B58435004310B489D
:105120000B4B42189A42FFF4F6AF0A4A00F003B85C
:10513000002342F8043B084B9A42FFF4F9AF04F015
:10514000BBFA00F03DF87047043001080000002071
:10515000140B0020140B002088230020FFF7FEBF53
:1051600008B505480549022200F0D8FA0A200121B5
:10517000BDE8084000F014BC302F0108140B0020DB
:1051800008B50A2000F0C8FC014B186008BD00BF3C
:10519000140B002010B50131002393420ED0040FF0
:1051A000092C01D8303400E0373401F8014C0133C8
:1051B0000024000101F8024BDBB2EEE710BD000055
:1051C00038B54FF000604FF4A04102F0C5FA012459
:1051D000344B354821461C7002F046FC03F046FD76
:1051E00003F006FA2146402002F006FD6FF07F40F2
:1051F00003F050FBE72003F0BDFB2C482C4D04705E
:1052000003F018FA7D2002F027FD10B12C7002F097
:1052100037FD40F6B83003F075FA03F0DFFF04F015
:105220004FF92978012902D0224A002A30D1224898
:1052300000F08EFE214C257800F04AFF2378DBB188
:105240009DB900F0EDFA68B1012801D11C4803E0D6
:10525000022803D14FF0FF1003F01CFBE72003F0FE
:1052600089FB02E017490120087000F0E3FA18B941
:10527000124A0E4C10702070124D2B78002BD9D092
:10528000114801780029D5D1094A14781CB1D1E719
:10529000FFF766FFCBE70D4D0DB1FFF771FF00F093
:1052A0006BFBC7E772190020000430003A19002098
:1052B0001C220020615100084158000836190020C6
:1052C0000060FF00381900203919002081510008C2
:1052D000364B37491A6870B5501C18600C6814B109
:1052E0000B685A1E0A603348017821B13248E0B198
:1052F00000F0DCFA19E0314C236813B12268511E2A
:1053000012E02F4A107880B92E490B786BB92E4ADB
:10531000107850B92D4E2E4D317891B1E72003F021
:10532000A5FB2B785BB114212160254C2078F0B9C6
:1053300003F0D6FC40F6B731884234D817E001219B
:10534000F2E72B784BB14FF6FF7003F0A3FA01247C
:10535000E72003F00FFB3470E7E7E72003F054FB8E
:105360001C4A107808B13221DEE76421DCE7002016
:1053700003F0B6FC42F20F73984205D9002003F007
:10538000B7FC154801220270144B1A68B2F57A7FF7
:1053900005D300221A60BDE8704002F0C3BB186854
:1053A000411C196070BD01212170EDE7180B002030
:1053B000282200206C190020AD580008202200206F
:1053C00034190020391900203B1900203A19002017
:1053D0003819002036190020451900202C22002001
:1053E00008B5064B186003F0A3FE03F0B7FE03F008
:1053F000D5FEBDE8084001F033BF00BFD401002056
:10540000074B1868052808D106490A79012A04D1F2
:1054100088790B7AC11AC8B270470020704700BF64
:105420008C190020180B00200D4B10B518680528AA
:1054300013D10C4C217901290FD1E2882389D01A8C
:10544000012804D100210320217102F074F823897E
:10545000E218591C907A218110BD4FF0FF3010BD29
:105460008C190020180B0020084B196805290BD156
:10547000074BDA6C991881F85000501CB0F5807F0A
:10548000D86401D10022DA64704700BF8C19002073
:10549000180B002070B5234A92F85031012B3FD0F1
:1054A000D2F85401B0F5807F02D10021C2F8541126
:1054B000D2F85431D26C1B48934203D1002180F8BA
:1054C000501170BD8CBFC3F58072C3EB0202154C46
:1054D000C0F85821D4F8585199B2402D07D940331B
:1054E000403DC4F85431C4F85851402606E0E8184D
:1054F0000023AEB2C4F85401C4F858310A4A012559
:105500005018C021324684F8505101F08BFF2846D4
:10551000314602F091F82846BDE8704001F0FABF2C
:1055200070BD00BF180B0020680B0020094B10B5A0
:1055300093E814000833186810180AD008220649A6
:10554000FFF728FE054920460422BDE81040FFF77A
:1055500021BE10BDE8F7FF1F83010020930100204A
:10556000FEE70000054A08B5136805491818884287
:10557000106001D90AF06EF9184608BD000000203D
:10558000004800204FF0FF307047012070470000B6
:105590000D4B2DE9F0411F6880460024BC420FDA14
:1055A00014256543084E4146701908300C220AF054
:1055B00071FF18B975196868BDE8F0810134EDE72D
:1055C0000020BDE8F08100BF740C00201A4B2DE9CB
:1055D000F047D3F8CC9082460E4600244C4527DA9B
:1055E00026B358256543144F514607F1D00808EB00
:1055F000050004300C220AF04DFFB8B930460AF01D
:1056000019FF05F110018844402834BF02464022AA
:10561000314640460AF046FD7D19012285F82421D5
:10562000D5F8D03040469847BDE8F0870134D5E73B
:105630004FF0FF30BDE8F087740C002008B103F094
:10564000DBB903F0BDB90000024B00221A7003F071
:105650007FBE00BF39190020034B01224FF4C02048
:105660001A7003F00BBE00BF391900202DE9F34179
:10567000234C8046D4F834020F4600F01F0201216B
:1056800001FA02F10025460984F8305284F83152BB
:1056900084F8325284F8335204EB8606D6F830325E
:1056A00041F288320B4304F50E71C6F83032C4F86B
:1056B0003C22C4F83852013000912A4604F50C719E
:1056C0002B4605F075FA002816DDD4F83432580957
:1056D00004EB8004D4F8304203F01F0244FA02F4D1
:1056E00014F0010008D0184641463A462B4602B055
:1056F000BDE8F04105F0F4BA02B0BDE8F08100BFAA
:10570000740C00200A4604490346D1F834021946B5
:10571000002305F05DBB00BF740C00202DE9F047AD
:10572000044691460F4689B380B3194B1D680A2D74
:105730002CD00026AE4217494FF014000CDA70430B
:105740000A58BA4206D10818043021460C220AF041
:10575000A1FED8B10136EDE76843A1F1040808EBDA
:1057600000060A18101D0021776086F814900C229C
:105770000AF046FD2068616806F1080303C3A168CA
:10578000013506F1040A1960C8F80050BDE8F08739
:10579000740C0020780C002030B51648ADF5737DF0
:1057A00005F0ACFF10BB1448144B15490990154D7A
:1057B0001548164A08930A91154B1649164C0D9533
:1057C000069059AD0FA80B920E9307910C9403907D
:1057D00004AC029503F0CEFD284603F0D1FD009401
:1057E00004480E4902AA08AB05F08BFF0DF5737D46
:1057F00030BD00BFAC0F00206D56000805570008F3
:1058000059560008D5920008CD55000849560008A1
:105810003D560008915500088D930008E8F7FF1FDA
:1058200008B5FFF7B9FF0248BDE8084006F0C0B967
:10583000AC0F0020014806F035BA00BFAC0F0020C5
:1058400030B5022011228DB0014605F031F9051E58
:1058500028DB154907A806F01FF8022316200024AC
:10586000ADF80C308DF80E003321E0220123BB206F
:105870008DF811408DF80F108DF810208DF8123032
:105880008DF813000324102203A900910192002334
:105890001322284607A905F0A5FA013CF3D12846B2
:1058A00005F034F90DB030BDE8F7FF1F38B5114CE5
:1058B000D4F8E85A2DB1D4F8E81A4B1EC4F8E83AE7
:1058C00038BDD4F8EC3A0C4A52F8230003F008F83B
:1058D000E72003F04FF8094A6420D4F8EC1AC4F822
:1058E000E80A10684B1C8342C4F8EC3AA8BFC4F81D
:1058F000EC5A38BD740C0020B405010804000020E7
:1059000010B5054CD4F8340205F000F918B94FF081
:10591000FF33C4F8343210BD740C002008B5FFF713
:10592000EFFF01210220062205F0C2F811490028EC
:10593000C1F834021BDB0222A1F8F02A162333221D
:1059400081F8F23A81F8F32A0A23692281F8F43ABD
:1059500081F8F52A0523122281F8F72A81F8F63A10
:10596000102201F52F61BDE8084005F0F5B84FF0B1
:10597000FF3008BD740C0020084B0022D3F8401201
:1059800003F511738A4208DA93F8500010B1002031
:1059900083F8500001325133F4E77047740C002053
:1059A00014282DE9F34104460E4675D8FF2973D01B
:1059B00000F056F928B10D2C6ED00F2C6CD00E2CA7
:1059C0006AD000F02BF908B1012C65D900F050F92C
:1059D00018B1A4F11203012B5ED9304D20012F58CC
:1059E0002F492A188F42B2F8048001D1042003E025
:1059F0002C4B9F4203D10820012102F009F9ADF898
:105A00000480062E44D8DFE806F00411181F263162
:105A10003C00224A102302EB041403200021A1734E
:105A20008DF807308DF80600083431E004218DF838
:105A3000071005EB0414012229E048228DF8072005
:105A400005EB0414022222E028208DF8070005EB64
:105A5000041403221BE0114B182203218DF80720A8
:105A60008DF8061003EB0414042210E00B481C21EF
:105A700003238DF807108DF8063000EB041405227F
:105A800005E000208DF8070005EB04140622A27340
:105A9000384601A901F08EFFBDE8FC81140000200A
:105AA00000080140000C014010B54FF4004086B0E2
:105AB00002F07AF801214FF4007002F0A9F81548BD
:105AC00001F054FE012400234FF46022114801A983
:105AD00001938DF808308DF80930039204938DF806
:105AE000144001F071FE0B48214601F091FE094877
:105AF00001F097FE074801F099FE0028FAD1054809
:105B000001F098FE034801F09AFE0028FAD106B091
:105B100010BD00BF00240140092838B5044601D853
:105B20000A34A4B200F09CF840B10D2C02D14FF021
:105B3000FF3038BD0F2CFAD00E2CF8D000F06EF8E4
:105B400000F096F818B1A4F11203012BEFD9142C30
:105B5000EDD81C4D05EB04108279FF2AE7D095F8AB
:105B60005111914206D0837B0621204685F85031A1
:105B7000FFF716FF95F85251012D05D1FFF794FF5D
:105B8000104A002082F852010E4D05EB0414A17951
:105B900095F851318B4207D00B480122002301F0C8
:105BA0005BFEA17985F851110748012101F04BFEF8
:105BB0000548022101F0A0FE0028F9D0024801F0BA
:105BC00098FE38BD140000200024014008B510489C
:105BD00040F2255102F0C5FAA0B140F225510C481F
:105BE00002F0DFFA0A4802F0B8FA0A4BC0B21A6CA7
:105BF000511C01F03F02596C8A4208D0196C1A649A
:105C0000585408BD0248BDE8084002F0A6BA08BDD5
:105C1000004400408417002070477047014B93F800
:105C2000590070473018002008B5034B53F8200086
:105C300000B1804708BD00BFA4180020F8B5064693
:105C40000C468F180025BC4207D0336830461A68CE
:105C500014F8011B90472D18F5E72846F8BD000001
:105C6000014B587D704700BFE418002070470000CA
:105C7000014B187C704700BFFC18002070474FF0A4
:105C8000FF307047084608B5FFF7EEFB012008BD5E
:105C900008B5FFF7B5FB08BDFFF7C6BB00224260A1
:105CA000024A4FF47A71816002607047D80501089A
:105CB0000846FFF795BB0023036018467047002392
:105CC00003601846704700230360184670470000C1
:105CD00073B50446002002460D46014605F09EF9C4
:105CE00020460AF0A7FB064628460AF0A3FB3246E8
:105CF0000190002300950320214605F02BF9024B6B
:105D000001221A705A707CBD2019002048F202034B
:105D1000984210B517D008DC992843D0591E884204
:105D200044D123480122C27010BD48F210029042B3
:105D300027D07032904239D11D48012100230170D3
:105D40004170837010BD1A4CE2783AB14FF47F4035
:105D500002F0A0FDE72002F00DFE06E0207910B170
:105D6000431E237101E0012121750022A275E2701A
:105D7000E275627522766276A276E276E26122624E
:105D800010BD0A7D0A4852B9012343754FF47F4084
:105D900002F080FDE720BDE8104002F0EBBD0021DD
:105DA000417510BD024B012183F8241010BD00BFC6
:105DB000201900201FB50A223C234FF461504FF4F4
:105DC00061618DE80F00684601A902AA03AB04F0E7
:105DD000BFF905B000BD1FB50023009301930293E6
:105DE000039301A8694602AA03AB04F079F905B050
:105DF00000BD000030B5524D002497B0FF20AC75B7
:105E00002C70EC756C702C76EC706C766C75AC76D6
:105E100085F82440EC612C6202F03CFDE72002F0A2
:105E2000A9FD21462246204605F0F8F82B4601211F
:105E300003F8054F0E200A4604F0FCF9EB78012B1D
:105E400005D1642002F0EEFB03F0ACFEF6E7102172
:105E50000C2004F03BFA3B4804F002FE3A4805F0FF
:105E600051FA012005F032FA6846384900F03EFD4B
:105E7000334C2078F0B994F82550002D55D0FF20F0
:105E800005F0D8F9002850D11A24013C06D0E720AB
:105E900002F0BAFD322002F0C5FBF6E7284D0E20D5
:105EA0002B4603F8044F0121224604F0C3F985F87C
:105EB0002540DDE7E72002F05DFD01210022231DE2
:105EC0000E2004F089F905F03BFA2346411C03F843
:105ED000041F002201210E2004F0ACF9002001462D
:105EE000012205F09BF8012523462A4603F8055FA9
:105EF00029460E2004F09EF905F016F8642002F001
:105F000091FB002004F0C4FF48F2442084F826509E
:105F100005F0AAF94FF47F4002F0BCFCE72002F044
:105F200029FD0022227517B030BDE72002F06CFD7C
:105F3000FA2002F077FB684600F02AFD98E700BFE0
:105F400020190020F005010868010020D15C00083C
:105F500030B53E4C85B0A06203F01AF802F05AFF4B
:105F60003B4B3C483C493D4A009301903C4B0291DD
:105F700003923C493C4A3D4804F076FF642002F01D
:105F800051FB002004F084FF0025012348F2442047
:105F9000A57684F8263005F067F93548018801298F
:105FA00006D00E2010212A46231D04F015F9A8B1B1
:105FB000FF2005F03FF910210E2004F087F90021A1
:105FC0002C4B0024CC5401311029F9D122460E204B
:105FD00004F030F9264A148003F01AF91B4CA37917
:105FE0004BB9FFF7E7FE0121234603F8061F0E20F9
:105FF000022204F01FF9154CA07890B9217911B94B
:10600000012222750DE0607958B90146012205F0A0
:1060100005F80121234603F8051F0E200A4604F067
:1060200009F90A4B987808B9197D31B94FF47F40C6
:1060300002F030FCE72002F09DFC0F4804F02CF940
:1060400005B0BDE83040FFF7C6BE00BF20190020F4
:10605000CD8E0008E18E00084D8F0008758F000876
:10606000C75C0008B75C0008BF5C00080D5D000855
:10607000AA020020241900204C19002030B502206B
:106080000121062285B004F013FD051E02DA4FF04F
:10609000FF341AE000213522082402238DF8021073
:1060A0008DF80320694610228DF804408DF80540D4
:1060B0008DF806408DF80740ADF8003004F04CFD37
:1060C000041EE4DB284604F021FD204605B030BD67
:1060D000F7B55F4C94F82E302246002B51D194F83E
:1060E0002F0000284DD194F8260020B904F0D0FEEE
:1060F000012184F82610564D2A7D12B1FFF77AFE51
:1061000019E0A878B8B16C7DACB92146224620468A
:1061100004F084FF4F480AF08DF94F4E0746304691
:106120000AF088F900960190711F03203A46234631
:1061300004F010FFAC7046494B78012B16D14A7D14
:10614000012A13D1C878012810D1032443480AF04A
:1061500071F9013C82B24149012004F04FFE14F074
:10616000FF04F3D13A4DA96A88476C70384B5A7DC9
:10617000002A6BD093F82F00002867D1997D09B3CE
:1061800064E092F82630324D002BB4D0002085F820
:106190002E00E87085F826006875A875E8752876E1
:1061A0006876A876E876E861286202F0E3FE64206B
:1061B00002F038FA4FF47F4002F06CFBE72002F067
:1061C000D9FB98E7DC7E0CB34FF47F0002F062FB52
:1061D0001F4CE27E92B1E72002F0CCFB4FF4FA7044
:1061E00002F020FAE72002F0F3FB4FF4FA7002F01D
:1061F00019FAE27E531ED8B2E076E9E7234603F8A7
:10620000072F0E200121032204F014F84FF6FF702F
:1062100002F040FBE72002F0ADFBFFF77FFB002818
:106220000B4C11DAFFF72AFF002801DA022000E008
:106230000320E076E17E0A4BE1710E20012103226A
:1062400003F0F8FF002300E00123A375FEBD00BFAB
:10625000201900206B01002070010020790100202E
:10626000271900207047FEE7FEE7FEE7FEE77047CC
:1062700070477047FFF72CB808B5024B0BB1AFF36E
:10628000008008BD0000000008B5024B0BB1FFF70D
:106290009DFC08BDCD5B000808B5024B0BB1FFF7B4
:1062A000BBFC08BD195C000808B5024B0BB1FFF739
:1062B000B4FC08BD1B5C000808B5024B0BB1FFF72E
:1062C000D5FC08BD6D5C000808B5012001F05CFB41
:1062D00038B1012001F068FB024B13B10020FFF739
:1062E000A3FC08BD295C000808B5022001F04CFBA6
:1062F00038B1022001F058FB024B13B10120FFF727
:1063000093FC08BD295C000808B5042001F03CFBA3
:1063100078B1042001F048FB0020064B01461880AC
:1063200002F032FC044810210122BDE8084001F0CF
:10633000CCBE08BD6E190020002C014008B5082015
:1063400001F022FB38B1082001F02EFB024B13B103
:106350000320FFF769FC08BD295C000808B5102080
:1063600001F012FB38B1102001F01EFB024B13B1FB
:106370000420FFF759FC08BD295C000808B520205F
:1063800001F002FB38B1202001F00EFB0E4B13B1DF
:106390000520FFF749FC402001F0F6FA38B1402013
:1063A00001F002FB084810B10620FFF73DFC8020F9
:1063B00001F0EAFA38B1802001F0F6FA024911B191
:1063C0000720FFF731FC08BD295C000808B54FF431
:1063D000005001F0D9FA40B14FF4005001F0E4FA56
:1063E000174B13B10D20FFF71FFC4FF4804001F055
:1063F000CBFA40B14FF4804001F0D6FA104810B10A
:106400000E20FFF711FC4FF4004001F0BDFA40B13F
:106410004FF4004001F0C8FA094911B10F20FFF70D
:1064200003FC4FF4006001F0AFFA38B14FF40060A4
:1064300001F0BAFABDE8084002F090B808BD00BF0C
:10644000295C000808B50F48102101F077FEC0B1A3
:106450000C48102101F07DFE002002F031FC28B92B
:10646000094B1A880A3290B2188008BD10210548DD
:10647000002201F02AFE00200121BDE8084002F0C0
:1064800083BB08BD002C01406E19002008B5012017
:1064900001F04AFC30B1012001F058FCBDE8084091
:1064A00001F026BC08BD000008B5022001F03CFC4C
:1064B000B0B10C4B00224FF400301A7001F074FAA6
:1064C000012001F059FB10B1012001F05FFB01F048
:1064D0000FFC022001F03AFCBDE8084001F008BCC6
:1064E00008BD00BF4F19002001F0C6BF00F062B820
:1064F00038B514490B78012B23D1134A13680BB913
:106500000B7038BD114C402B206881B205D940304A
:10651000403B20601360402504E09DB2C31800207A
:10652000236010600A4A5018C0212A4600F07AFF02
:106530000120294601F080F80120BDE8384000F034
:10654000E9BF38BD680C0020700C00206C0C0020E6
:10655000680B0020094908B50020094B012208807A
:1065600003201A7001F094F8064B02461880064882
:106570004FF48871BDE8084000F06BBF200B00208D
:106580001C0B00201E0B0020220B0020074B18685C
:10659000052809D1064B1A68511C052A196003D138
:1065A00000201860FEF776BF704700BF8C190020EE
:1065B000501900203A4A38B511683A4B88B23A4D22
:1065C00018801C882988214001F4007084B244B1ED
:1065D0004FF6FF5515609A78511CC8B29870FFF7B6
:1065E000D5FF304C304B25881A882A4002F40041F0
:1065F00088B225461C4608B100F04EFE2A88238842
:10660000134003F4806188B230B1254B27494FF61F
:10661000FF321A6048688047224A234B11881B8842
:10662000194001F4005081B219B11D494DF6FF70B7
:1066300008601288134003F4805398B230B1184AAE
:106640004EF6FF711160002003F0ECF8154B16496F
:1066500018880A88024002F4006398B260B11449B5
:106660000A7812B103F0BEF802E0022003F0DAF873
:106670000B4B4FF2FF7018600A490B480A880388D9
:10668000134003F480718AB242B1054B4FF6FF60AC
:1066900018600720BDE8384003F0C4B838BD00BF1B
:1066A000445C004054190020F81900200C0200201E
:1066B000CC020020034B987A10B1034905220A60EE
:1066C000704700BFD41900208C190020014B042210
:1066D0001A6070478C190020034B1A78202A01D1C8
:1066E00000201870704700BF581900207047000044
:1066F000212810B508D111480368197801F07F02EC
:10670000212A11D0022010BD2028FBD10B4B196883
:106710000A780B4902F07F030A4A212B0CBF0B4673
:10672000002310700BB9EDE7074B044C20680024E0
:106730008361448220469847204610BDF41900200A
:10674000996700085819002081670008074B1968ED
:106750000A7802F07F03212B05D1022801D1002005
:1067600070472228FBD00220704700BFF419002098
:1067700009B1022070470128FBD808467047000085
:1067800020B9034B082219680A82704701487047F4
:10679000F4190020D401002020B9034B0822196805
:1067A0000A82704701487047F4190020D401002084
:1067B000054B1968CA78042A04D8044B03EBC201BC
:1067C00000F0EABA00207047F4190020DC01002034
:1067D000014900F0E1BA00BFFC010020014900F0CE
:1067E000DBBA00BF04020020334A344BD179186869
:1067F00010B5002441728472C472204600F03CFE41
:1068000020464FF4007100F03FFE1021204600F0BA
:1068100047FE4021204600F0E3FE8021204600F0A4
:10682000CFFE204600F098FE254B204693F86410DA
:1068300000F010FF204600F07EFE0120214600F00F
:1068400023FE0120C02100F0BBFE0120202100F02A
:1068500027FE0120214600F040FE02204FF4C061D7
:1068600000F012FE02204FF4807100F0A9FE022019
:10687000214600F032FE0220202100F011FE03200C
:10688000214600F001FE03204FF4887100F0A8FEBD
:106890000320402100F0DEFE03204FF4405100F0C1
:1068A0001CFE0320214600F0FBFD204600F086FC84
:1068B000044A0120106010BD5D060108F419002093
:1068C000D40100208C19002010B5FEF72FFE054BD7
:1068D00000241868847202F06DFF00F0EFFE024998
:1068E0000C6010BDF41900208C19002070B504460E
:1068F00021250E46FFF7D2F900212A4604F11400A3
:1069000009F07EFC00212A4604F1350009F078FCEC
:10691000204626614FF41651FFF7CAF9204670BD94
:1069200070B504460E462046FFF7B2F90028FADD9E
:106930002046FFF7B1F9C5B20A2D07D00D2D05D0BD
:1069400020462946FFF79EF93570ECE70D212046D9
:10695000FFF798F920460A21FFF794F92046FFF740
:1069600097F918B12046FFF797F9F7E770BD70B5B2
:1069700006460D460024284609F05CFD844205D2F7
:10698000295D3046FFF77EF90134F4E770BD000061
:1069900070B50446FFF77CF9002828DD2046FFF794
:1069A0007BF9772823D12046114904F11406FFF71B
:1069B000DEFF20463146FFF7B3FF04F135052046E0
:1069C0000C49FFF7D4FF20462946FFF7A9FF2046D0
:1069D0000949FFF7CCFF23693046294698472046EE
:1069E0000649FFF7C4FF20460549FFF7C0FF70BD09
:1069F000372F01083E2F0108492F01087D2F01087C
:106A0000C92F010810B5064C18B9236801221A8253
:106A100010BD044B18680168884720680A3010BD13
:106A2000F4190020F019002010B5064C18B923689D
:106A300001221A8210BD044B1868816888472068BB
:106A40000C3010BDF4190020F019002008B5234ABD
:106A500018B9136802221A8208BD214B002012685F
:106A60001880117811F07F0113D1507A00F02002C4
:106A7000D1B209B102221A7000F04003D8B2184B0B
:106A800018B11A7842F001011EE0197821F00101D5
:106A90001AE001291FD002291ED1507900F00F02FF
:106AA0004FEA820110F0800F01F1804000F5B842FA
:106AB000116803D001F03002102A03E001F44050C5
:106AC000B0F5805F01D101211970064B186801698A
:106AD0008847034808BD184608BD00BFF4190020C8
:106AE000C4190020F0190020F8B5224B1C68238A35
:106AF000267AABB9042E13D11F48017801291F490A
:106B00000AD11F4C226894B21E4AA2185200136088
:106B100030220A80037028E010260E80072624E029
:106B2000A58AA169AB428CBF022604269D4228BFDC
:106B30001D46284688470746002000F061FD2A468A
:106B40000146384600F06EFC2946002000F074FD36
:106B5000208A638A421BED1808480B4B22823021A1
:106B60004FF44052018065821A80024B1868067209
:106B7000F8BD00BFF419002059190020FC190020AD
:106B8000505C004002300020FA19002010B50A4B7A
:106B90000A4918684B78C27893420AD3817841B980
:106BA000848834B982720648026853689847204640
:106BB00010BD022010BD00BFF419002060020020AB
:106BC000F019002038B50E4A0E4C1068236882690F
:106BD000D9785879904721688B7A7BB170B9087958
:106BE00060B98D7855B9084A1168CB689847206814
:106BF0004279C178C2720173284638BD022038BD7F
:106C0000CC190020F4190020F019002010B5324BE7
:106C10001B68187810F07F0004D15A7A22F0200106
:106C2000597210BD022855D15A88002A53D11979BA
:106C3000002950D15A7922F080004FEA800404F1F3
:106C4000804101F5B8442168244C12F0800F24786B
:106C500014BF01F0300101F44051A0423AD20029A2
:106C600038D09B7A002B35D0840002F0800204F1EA
:106C70008043D1B203F5B844226861B102F030021A
:106C8000102A21D1C4B2204600F087FC20463021D2
:106C900000F006FC18E002F44051B1F5805F13D11A
:106CA00028B90F4B93F82C1000F0D4FC01E000F051
:106CB00062FC20684BF68F72024082F4405141F42E
:106CC000004343F08000206006490B685869804704
:106CD000002010BD022010BDF41900206002002029
:106CE0000C020020F019002010B51F4B19684A79DA
:106CF00022F080034FEA830000F1804404F5B8409D
:106D00001A4C0068247812F0800F14BF00F0300095
:106D100000F44050A34224D24C8814BB08B3897AB3
:106D2000F9B19B0003F1804102F0800201F5B84304
:106D3000D0B2196828B148F6BF720A4082F010003C
:106D400004E04BF68F720A4082F4805040F4004118
:106D500041F080001860064B1A689169884700204E
:106D600010BD022010BD00BFF419002060020020F9
:106D7000F019002008B5064B1868064B427A42F01D
:106D8000200141721868C2699047002008BD00BF09
:106D9000F4190020F0190020054B1A68538A18B91D
:106DA0008988CB1A138270470868C018704700BFE3
:106DB000F419002008B50B4B002093F82C1000F0BC
:106DC00049FC09480168087A082806D1074B4FF4A6
:106DD00080521A80064A10211180B0F109035842EE
:106DE000584108BD0C020020F4190020FA190020B7
:106DF000FC19002070B52E4B1C68207A02284FD059
:106E000004284DD0032801D0052843D1A169208A48
:106E1000A9B1A0B1A58A854228BF05462846884762
:106E2000228A0646608A531B291861822382002029
:106E300000F0F4FB2A460146304600F00AFB228AA5
:106E400052B11C4B4FF4405018800020014600F016
:106E5000F3FB194A30211180208AA38A1449834206
:106E600002D80B68032202E018B10B6805221A72DF
:106E70000CE00A680623114913720A68104993B29C
:106E80005A1853000C4918603020088008480168DF
:106E90000B7A06E0072803D10A490A68D3689847A5
:106EA0000823034A10680372BDE87040FFF782BFF1
:106EB000F4190020FA190020FC190020505C004051
:106EC00002300020CC190020944B73B51A68944905
:106ED00090B24418934E65002A6835682B7A092BC6
:106EE00015D090B2410001F1804404F5C0442278ED
:106EF0002A7063786B70A08800F0DAFB68802089C4
:106F0000356800F0D5FBA880A0893168C880854D20
:106F100001242B68DA881C725C78002A64D1187806
:106F200010F07F0238D1092C02D1FFF72FFE45E087
:106F3000052C0FD193F90320002A01DA08214FE034
:106F400099780029FAD198880028F7D19B7A002BEC
:106F500038D0F3E7032C10D1D878012807D0724A33
:106F6000204611684B699847032829D137E09B8850
:106F7000002BF4D1FFF7FEFE20E0012CEFD1D978F1
:106F80000129ECD198880028E9D15B7A03F020022E
:106F9000D1B20029E3D00AE0012A04D10B2CDED1C2
:106FA000FFF710FE0AE0022AD9D1012C02D1FFF727
:106FB0002DFE03E0032CD2D1FFF796FE10B1CEE7F1
:106FC0000028BBD15548594B026891B2C818584B9C
:106FD0004100002230200A601880062100E00921CB
:106FE000504A10680172D3E0062C13D11C78610658
:106FF0007AD19A784C4B012A02D11C68E36969E086
:10700000022A02D11868036A64E0032A6CD1196865
:107010004B6A5FE0002C3ED15988002964D1586842
:1070200020F47F42B2F5003F5ED11C7814F07F005F
:1070300004D19888002800F0AE8055E001280CD1DA
:10704000394A58791468A269904700284CD12B68B6
:10705000997A002940F09F8046E0022844D15B796C
:1070600003F00F014FEA810202F1804404F5B840B9
:10707000304C0268207813F0800F14BF02F0300209
:1070800002F4405281422FD213F0700F2CD1002A0B
:1070900040F0818028E0082C03D119784A067CD082
:1070A00022E00A2C20D1187800F07F0101291BD1A1
:1070B0009C7ACCB15988B9B95A6822F47F40B0F5AE
:1070C000803F11D1184C587922689469A047002854
:1070D00065D009E043B113480024016820464C8282
:1070E0008B61984720460AE00F4A0E4C11682368CE
:1070F0000A6958789047032801D1236806E0094BB4
:107100004FF6FF711B681A8A8A4201D1092103E0F8
:10711000022800D082B90821197239E0505C004081
:1071200004300020F4190020CC1900200230002087
:10713000FC1900206002002093F90000002821DAE9
:10714000D98801910198824202D9019A1A8211E0EC
:107150008A420FD21349086890F82C108A4201D253
:10716000002105E092FBF1F001FB102212B9012190
:107170000D4801700B49086890F82C209A82FFF79F
:10718000B3FC05E003221A72084B4FF440511980FA
:10719000FFF710FE7CBD064B9DE7064B9BE7064BB9
:1071A00099E700BFCC19002059190020FA190020D6
:1071B0004D6A0008056A0008296A000870B50D4B81
:1071C0001C780023A34210D203F1805202F5B85577
:1071D000A90043F400420E6842F0800540F60F72A9
:1071E00032402A430A600133ECE7034940F0800053
:1071F000086070BD600200204C5C004010B514496E
:107200000B680C461A7A022A01D0042A04D1FFF72F
:107210006BFC2168087A13E0062A10D158780528FB
:1072200009D11978480606D1D878FFF7C7FF094B6E
:107230001A68106A804708490B689A6890470820C6
:10724000034B1A681072BDE81040FFF7B3BD00BFD2
:10725000F4190020F0190020CC190020704700001C
:1072600008B5074A074B0220136018720649074BFE
:107270000748084A0B6010601B68984708BD00BFAC
:10728000F4190020D4190020CC1900200C02002091
:107290003C020020F019002037B50023ADF806307D
:1072A0005848594B026891B21204198040F1A880E5
:1072B0001888564900F00F020A70002A6ED1544C0B
:1072C0002568AAB2534D2A802988534A01F030001C
:1072D000108029884BF6BF7201F440502880216845
:1072E0000A4082F4005080F0200141F4004242F054
:1072F000800020601B8803F010018AB23AB922682E
:1073000048F60F7010402060FFF778FF1DE02068FE
:1073100083B2ADF80630BDF8061001F4006290B2F9
:1073200038B1216840F68F730B402360FFF7CCFD26
:107330000BE0BDF8063019B20029B1DA226840F638
:107340008F7010402060FFF755FD21682A884BF6AA
:10735000BF7302F480500B4081B209B183F48053B3
:107360002C4A108800F400518AB20AB183F4005309
:107370002948018801F0100291B209B183F010038D
:10738000008800F0200291B209B183F0200343F499
:1073900000401F4A40F08001116031E0930003F18A
:1073A000804000F5B843196888B2ADF80600BDF812
:1073B000061008B2002809DA186840F68F710140FB
:1073C0001960164B013A53F822008047BDF80610A9
:1073D00001F0800293B2002B3FF462AF0B480278B9
:1073E000910001F1804303F5B841086848F60F7336
:1073F00003400B600A49013A51F8220080474FE7E9
:107400003EBD00BF445C004054190020D01900204C
:10741000005C0040FA190020FC1900209C010020AB
:10742000B801002030B501F1005101F5405301329F
:107430005900521000230230934209D010F8015C29
:1074400010F8024C44EA052421F823400133F2E706
:1074500030BD01F1005110B5013201F54054521018
:1074600064000023934205D054F8231020F8131031
:107470000133F7E710BD00004FF6F873014A0340EF
:1074800013607047505C0040800000F1804202F5BC
:10749000B842106848F68F130340194311607047D3
:1074A000800000F1804202F5B842106848F6BF73D0
:1074B000034001F0100080B208B99BB201E083F0F4
:1074C000100301F0200188B208B183F0200343F4D7
:1074D000004141F0800010607047800000F1804260
:1074E00002F5B84210684BF68F73034001F48050E8
:1074F00080B208B99BB201E083F4805301F40051DB
:1075000088B208B183F4005343F4004141F0800095
:1075100010607047800000F1804202F5B8400168B9
:1075200048F6BF730B4083F0300242F4004141F053
:10753000800303607047800000F1804202F5B8408C
:1075400001684BF68F730B4083F4405242F40041C4
:1075500041F0800303607047800000F1804202F533
:10756000B840016840F60F630B4043F4004242F01C
:10757000800101607047800000F1804303F5B8404E
:107580000268510408D5016840F60F730B4043F4BC
:10759000404242F0800101607047800000F180436A
:1075A00003F5B8431A68500608D5196840F60F70FD
:1075B000084040F4004242F0C001196070470000EA
:1075C000064B49081A6893B203EBC00000F1005261
:1075D00002F5405358004A0002607047505C00407A
:1075E000054B49081A6893B2044A03EBC00083189C
:1075F00058004A0002607047505C00400430002090
:10760000054B19688AB202EBC00000F1005303F584
:1076100040514A0010887047505C0040044B196884
:10762000044B8AB202EBC000C1184A0010887047B0
:10763000505C004004300020044B1A6893B2044AA6
:1076400003EBC0008318580001607047505C004095
:10765000023000200C4B1A6893B20C4A03EBC000B6
:1076600083185A003E2908D94B09C90601D1581E72
:1076700083B2990241F4004104E04B08C80748BFB7
:107680000133990211607047505C004006300020C1
:10769000054B1968054B8AB202EBC000C1184A00BD
:1076A00010688305980D7047505C0040063000203C
:1076B000C3B2000A40EA032070470000044B0020D8
:1076C0001860044A044B4FF43F4111801960704721
:1076D000445C0040F8190020405C004040F0BF606E
:1076E000024B40F40031D960704700BF00ED00E06C
:1076F000C37810B503B3164CE168CB43C3F302243F
:107700004178C4F1040201FA02F10F2222FA04F2D4
:107710008478037822400A43110103F16043CAB21E
:1077200003F5614181F800230078012200F01F0376
:10773000410902FA03F007E00078012200F01F037C
:10774000410902FA03F02031024B43F8210010BD39
:1077500000ED00E000E100E021F0604121F07F0257
:10776000014B10439860704700ED00E008B5134BE3
:10777000984207D14FF40070012100F061FA4FF4F4
:10778000007014E00E49884207D14FF48060012157
:1077900000F056FA4FF4806009E00A4A90420BD19B
:1077A0004FF40040012100F04BFA4FF4004000215B
:1077B000BDE8084000F044BA08BD00BF0024014005
:1077C00000280140003C0140426810B522F47023BB
:1077D0000A6823F4807444EA02030C7943EA042221
:1077E0004260CB688A6884681A43084B234013437D
:1077F0004A7943EA42038360097CC26A4B1E22F441
:107800007002D9B242EA0152C26210BDFDF7F1FF27
:10781000836811B143F0010101E023F001018160AF
:107820007047836843F00801816070478068C0F347
:10783000C0007047836843F004018160704780682E
:10784000C0F380007047836811B143F4A00101E0E8
:1078500023F4A00181607047092970B54FF003043B
:107860000CD94C4307251E3C05FA04F503FA04F332
:10787000C66826EA05052B43C3600BE04C43072589
:1078800005FA04F503FA04F3066926EA050545EA54
:1078900003040461062A4FF005030DD8013A53434F
:1078A0001F2202FA03F201FA03F1446B24EA0202F6
:1078B00042EA0103436370BD0C2A0DD853431F22D3
:1078C000233B02FA03F201FA03F1046B24EA0202F9
:1078D00042EA0103036370BD53431F22413B02FA96
:1078E00003F201FA03F1C46A24EA02021143C162FD
:1078F00070BDC06C80B27047036819420CBF002095
:1079000001207047837910B5002B29D01A4B0168EC
:107910001C68CA4314401C605C6822405A600279AB
:1079200002F1804404F58232146821431160026838
:107930009C68D1430C409C60DC6840792140102851
:10794000D96006D1986810439860D9680A43DA6014
:1079500010BD00F1804303F5823319680A4308E043
:107960000179006801F1804202F582331A6822EA47
:1079700000021A6010BD00BF00040140014B5861B5
:10798000704700BF00040140064B1A68596910EAAD
:10799000010304D010420CBF00200120704718469C
:1079A000704700BF00040140014B5861704700BFA1
:1079B00000040140CB78F0B5DA0648BF8A78098820
:1079C00003F00F0548BF154311F0FF0F1ED00468E8
:1079D0000022012707FA02F707EA0106BE4211D189
:1079E00097004FF00F0C0CFA07FC05FA07F724EA92
:1079F0000C04282B44EA070401D1466102E0482B1D
:107A000008BF06610132082AE3D10460FF2920D9AA
:107A10004468002202F10806012707FA06F707EA80
:107A20000106BE4211D197004FF00F0C0CFA07FC73
:107A300005FA07F724EA0C04282B44EA070401D1CD
:107A4000466102E0482B08BF06610132082AE1D1F5
:107A50004460F0BD836819420CBF002001207047CC
:107A600001617047416170470028174B30B500F441
:107A70004014B4BFDB695B68B4F5401F82B207D124
:107A8000114C23F07063656825F0706565600FE048
:107A9000C40205D5C0F30344032505FA04F403E04A
:107AA000440D240102FA04F423EA040343F0706352
:107AB00021B1410D090102FA01F2134300280248E5
:107AC000B4BFC361436030BD0000014001F0030258
:107AD00030B592000F2404FA02F400FA02F0074BCA
:107AE0008908023153F8215025EA040443F8214063
:107AF00053F82140044343F8214030BD00000140C9
:107B0000014B1860704700BF00300040014B5860C7
:107B1000704700BF00300040014B9860704700BFC5
:107B200000300040024B4AF6AA221A60704700BF9C
:107B300000300040024B4CF6CC421A60704700BF48
:107B400000300040014B1860704700BF20000E421B
:107B5000074B1A6842F004001860196841F00202ED
:107B60001A60044B186940F00401196130BF704776
:107B70000070004000ED00E0034B596808420CBF64
:107B800000200120704700BF00700040024B1A68BF
:107B900042EA80001860704700700040014B186096
:107BA000704700BFD8004242034B5A6822F440415C
:107BB00008435860704700BF00100240064B002287
:107BC00001281A701A7004D0042804D105201870F6
:107BD00001E018707047704720100240024B1A6A8B
:107BE00010431862704700BF00100240014B18603C
:107BF000704700BF3C044242044B5A6909B110432C
:107C000001E022EA00005861704700BF0010024006
:107C1000044B9A6909B1104301E022EA000098611F
:107C2000704700BF00100240044BDA6909B11043ED
:107C300001E022EA0000D861704700BF0010024056
:107C4000044BDA6809B1104301E022EA0000D86071
:107C5000704700BF001002404309012B074A01D1C1
:107C6000136803E0022B0CBF136A536A00F01F0075
:107C700023FA00F101F00100704700BF001002403C
:107C8000024B5A6A42F080705862704700100240FE
:107C9000044B1A8892B209B1104301E022EA0000B5
:107CA0001880704700280040034B9A8890B240F03B
:107CB00010019980704700BF00280040034A938854
:107CC00023F0100001040B0C938070470028004043
:107CD00010B50446FFF7E8FF044BC4F30342A4B217
:107CE0001A819C81BDE81040FFF7E8BF00280040E2
:107CF000034B988800F020018AB2002AF8D0704720
:107D000000280040074A938823F0080001040B0C68
:107D10009380044A908800F008018BB2002BF8D0C1
:107D2000704700BF00280040074B9A881B8891B21B
:107D300010EA030206D0084010F0FF0F0CBF00202D
:107D4000012070471046704700280040034B9A8876
:107D500091B221EA00009880704700BF00280040DF
:107D60000B8810B54C88028823438C8802F441525A
:107D70002343CC8823430C8923434C8923438C8998
:107D80002343CC89098A23431A4393B20380828B0D
:107D900022F400631A04130C8383018210BD03884C
:107DA00019B199B241F0400303E023F040010A0405
:107DB000130C0380704783889BB20AB1194301E01A
:107DC00023EA01018180704781817047808980B2F8
:107DD0007047038919420CBF002001207047000042
:107DE000224A038890429BB212D002F50062904270
:107DF0000ED0B0F1804F0BD0A2F59832904207D050
:107E000002F58062904203D002F58062904203D175
:107E10004A8823F070031343154A904208D002F5B4
:107E20008062904204D023F44073CA889BB213430B
:107E300003808B880A8883850C4B028598420FD07B
:107E400003F5006290420BD002F54063984207D0E0
:107E500003F58062904203D002F58063984201D11D
:107E6000097A018601228282704700BF002C0140FE
:107E700000100040038C70B523F001021404250C9F
:107E80000584068C8388028B9CB222F073052B0438
:107E90000D881A0C26F0020633042A434E880D89F9
:107EA0001B0C3543ADB22B43134DA8420FD005F543
:107EB0000065A8420BD005F54065A84207D005F53E
:107EC0008065A84203D005F58065A8420ED123F055
:107ED00008064B898D881E4326F004032B43CE8968
:107EE0008D8924F440743543ADB22C43C988848015
:107EF00002838186038470BD002C0140038C30B561
:107F000023F010021404250C0584038C8288048B52
:107F100023F0200324F4E6452C040D88240C44EAC5
:107F200005241D042B0C0D8992B243EA05134D88DC
:107F3000A4B243EA0513124D9BB2A84203D005F543
:107F40000065A84215D14D8923F080039BB243EA16
:107F500005134FF6BF751D408B8822F4406245EA39
:107F60000315ABB28D8942EA8502CD8942EA8502CA
:107F700092B2C988828004830187038430BD00BF28
:107F8000002C0140038C30B523F480721404250CBE
:107F90000584038C8288848B23F4007324F073059A
:107FA0002C040D88240C2C431D042B0C0D8992B23B
:107FB00043EA05234D8843EA0523124D9BB2A842AC
:107FC00003D005F50065A84215D14D8923F400635F
:107FD0009BB243EA05234FF6FF351D408B8822F400
:107FE000405245EA0325ABB28D8942EA0512CD899C
:107FF00042EA051292B2C988828084838187038411
:1080000030BD00BF002C0140038C30B523F48052FA
:108010001404250C0584038C8288858B94B225F486
:10802000E64215042A0C0D8823F4005342EA052287
:108030001D042B0C0D8992B243EA05334D8843EAA7
:1080400005330A4D9BB2A84203D005F50065A8424E
:1080500005D18D8924F4804444EA8514A4B2C988EA
:1080600084808283A0F84010038430BD002C01403E
:1080700000214FF6FF7383800180C180418001722F
:1080800070470023038043808380C3800381438142
:108090008381C3817047038819B199B241F001030C
:1080A00003E023F001010A04130C03807047B0F8C9
:1080B000443029B16FEA43436FEA53418AB201E089
:1080C00059044A0CA0F84420704783899BB20AB136
:1080D000194301E023EA010181817047038819B146
:1080E00099B241F0800303E023F080010A04130CED
:1080F00003807047038B23F0080213041A0C11430A
:1081000001837047038B23F4006213041A0C42EAC4
:1081100001218BB203837047838B23F00802130481
:108120001A0C114381837047838B23F4006213047C
:108130001A0C42EA01218BB283837047038A828939
:1081400011EA030092B203D011420CBF00200120BB
:108150007047C9438AB2028270478088C105C80D42
:10816000704710B5C1F34214012201F01F03012C26
:1081700002FA03F201D1838903E0022C0CBF038AC7
:10818000838A9BB20088134082B243B1090A01235B
:1081900003FA01F010420CBF0020012010BD184668
:1081A00010BD090A012303FA01F3DA4391B20180F9
:1081B0007047000008B5064B0022186005490648C4
:1081C0009A601961DA80DA609A80036A984708BD7C
:1081D000001A0020141E00203023002008B5044B94
:1081E0001A690AB10020186102494B6A984708BD14
:1081F000001A00203023002062B6704708B572B61E
:1082000000F05CFE034B022218699A601968053081
:10821000884708BD001A002070B5064600201446A5
:108220000D4600F03BFE012EA4B207D13046294690
:10823000224600F0BBFD0020124907E0124B01204E
:108240001969224600F0B2FD00202946224600F0BE
:10825000ADFD0E480221012203F0A5F9012000F036
:108260001DFE0A4803F0A7F90028FAD1084803F0D8
:10827000A2F90028FAD107488021FFF7AAFD0028BB
:10828000F9D170BD64020020001A0020580002409D
:10829000440002400038004003460A4601201946C7
:1082A000FFF7BABF70B50646002014460D4600F031
:1082B000F5FD012EA4B207D130462946224600F032
:1082C00075FD0020104907E0104B01201969224676
:1082D00000F06CFD00202946224600F067FD0120D9
:1082E00000F0DCFD0A4803F066F90028FAD10948DD
:1082F00003F061F90028FAD107488021FFF769FDF2
:108300000028F9D170BD00BF64020020001A0020CF
:1083100058000240440002400038004003460A462C
:1083200000201946FFF7BEBF38B504460D4600F0E1
:10833000E1FE002021460422FFF7B4FF0020211DAA
:108340002A1FFFF7AFFF034B02229A6000F0B6FD31
:10835000002038BD001A0020F8B501F001060446DF
:1083600086F001000D18012300262370C5F30722B3
:108370001B4BE67026716270A57005319D68081868
:1083800086B215B99A68012AFCD19968144D012961
:1083900007D120463146FFF7C7FFA8680228FCD165
:1083A0001CE0AF68022FFCD10E488021FFF711FDC1
:1083B0000028F9D10C4DE86980472F460028F9D0F4
:1083C000074D0323AB60EC60AE8000F093FEFA69CA
:1083D00090470028FBD0A9680229FCD10020F8BDF5
:1083E000001A0020003800403023002070B5184EDD
:1083F00035696B79022B08D0042B25D1287A441ECD
:1084000014F0010F18BF044614E0681D032101F0A9
:108410005BFAB0F5806F044608DB05F10A004FF403
:1084200080610724FFF738FFB4600EE0C30701D472
:10843000441C00E024B105F10A00A1B2FFF72CFFB3
:10844000034908228A6000E00024204670BD00BF76
:10845000001A0020024B012019690A22FFF7DCBE36
:10846000001A002008B5FFF7C1FF18B9BDE80840A1
:10847000FFF7C4BE08BD000070B5364C4FF40030A5
:10848000266903F09BF805464FF4005003F096F878
:10849000A368062B0BD1002D5BD0002859D04FF4D8
:1084A000083003F099F8BDE87040FFF7DBBFA16822
:1084B00007291BD100284CD04FF4083003F08CF86A
:1084C0000321701D01F000FAA0F58064A1B2214CD7
:1084D000CA0758BFA0F2FF31206958BF89B200F225
:1084E0000A40FFF7D9FE0823A36070BDA268082ADE
:1084F00009D100282DD04FF4083003F06DF8BDE805
:108500007040FFF77BBEA068052811D1002D20D058
:1085100011488021FFF75DFC0028F9D14FF40830A5
:1085200003F05AF800F0CAFC0A4A0221916070BDBB
:10853000A368042B0DD165B1A088E2680521A0F5E0
:108540008063A16002F5806099B2BDE87040FFF7DA
:10855000E5BE70BD001A00200038004008B5174B7A
:10856000D8698047002827D1154B9A6812B9012095
:10857000986008BD9968022907D106229A6000F028
:10858000B9FDBDE80840FFF765BF9A68032A13D11B
:108590009A88B2F5806F06D805219960D968BDE840
:1085A0000840FFF739BE04209860D8684FF4806116
:1085B000BDE80840FFF7B2BE08BD00BF3023002071
:1085C000001A0020BFF34F8F054A064BD16801F413
:1085D000E06040EA0301D160BFF34F8FFEE700BFC8
:1085E00000ED00E00400FA054FF44070FFF776B8A4
:1085F000094B4FF47A701A68084BB2FBF0F14A1E2F
:108600005A60074AF021002082F823109860072062
:10861000186082F823107047B802002010E000E0D4
:1086200000ED00E0024B18601A68002AFCD1704788
:108630002822002030B54FF4003085B0FFF7B4F9A0
:1086400008204FF40033002501248DF80D00684404
:1086500002938DF80C508DF80E40FFF753F903216B
:1086600001A88DF804108DF805108DF806508DF8CE
:108670000740FFF73DF8042329220DEB03008DF896
:1086800004208DF805308DF806508DF80740FFF76F
:108690002FF80220FFF770FA50B10220FFF776FAA8
:1086A000FFF730FB24204FF6FF7102F0B5FE27E004
:1086B000242002F0BFFE4AF2A551884201D1FFF703
:1086C00047FA0120FFF77AFA4120FFF7C5FA0028A0
:1086D000FAD04FF48070FFF781FA0120FFF786FA95
:1086E000FFF710FBFFF704FB03200121FFF7D0FA8F
:1086F000FFF7FEFA47F6FF70FFF7EAFAFFF7F8FA1E
:1087000005B030BD10B5044645F25550FFF7F8F9F5
:108710000620FFF7FBF942F21070844228BF04469E
:1087200028216143C1F30F20FFF7F6F9FFF7FAF9AB
:10873000BDE81040FFF7FEB9082812D8012907D17B
:108740000A4B0B4A53F8201032F8100008610AE077
:1087500049B9064B064A53F8201032F81000486118
:1087600001E0FF2300E0002358B270476C020020B4
:10877000B406010837B50E4D044605EB80031869B1
:108780000121FFF745FA35F814000A4B1021ADF826
:1087900004008DF80710032253F8240001A98DF876
:1087A0000620FFF707F920460021FFF7C5FF3EBD71
:1087B000B40601086C02002070B5012188B04FF4A6
:1087C0000060FFF725FA314B42F210701C686326F7
:1087D000B4FBF0F14A1E2E4C01A895B2FFF748FCFD
:1087E00001A8FFF745FC01A9ADF80450204600257B
:1087F000ADF80860ADF80A50ADF80650FFF7F0FA92
:1088000004A8FFF73EFC022060230126ADF8180003
:1088100004A92046ADF81030ADF81260ADF816503E
:10882000ADF81C50FFF726FB20462946FFF762FCF7
:10883000204604A9FFF762FB20462946FFF762FCA9
:10884000204604A9FFF79EFB20462946FFF764FC5B
:10885000204604A9ADF81050ADF81260ADF81650DE
:10886000ADF81850FFF7D0FB20462946FFF75CFC17
:1088700020463146FFF732FC20463146FFF70BFC1D
:1088800020463146FFF713FC08B070BDB802002047
:10889000002C0140104930B58C8DC0F30743A2B2C3
:1088A000551C5D43FF22B5FBF2F40C4BA5B29D8035
:1088B0008C8DC0F30725A4B201346C43B4FBF2F4F1
:1088C000A4B2DC80898DC0B289B201314843B0FBCB
:1088D000F2F291B2598030BD002C01405C190020A9
:1088E000104930B58C8DC0F30743A2B2551C5D43CF
:1088F000FF22B5FBF2F40C4BA5B29D818C8DC0F329
:108900000725A4B201346C43B4FBF2F4A4B2DC81B9
:10891000898DC0B289B201314843B0FBF2F291B205
:10892000598130BD002C01405C19002037B50F4D36
:10893000044605EB8003186B012105EB4405FFF7A6
:1089400067F9B5F84000ADF804000CB9102100E05B
:108950001821074B8DF8071003EB84040322206ACB
:1089600001A98DF80620FFF725F83EBDB4060108E1
:108970006C02002010B1E7281BD105E00D4A4FF42E
:108980000051106A016170470B4B0C4A197C39B9D0
:10899000988881B21187D88881B291875B8806E078
:1089A000988981B21187D88981B291875B899BB2FE
:1089B000938670476C0200205C190020002C014057
:1089C000024B0022E7201A74FFF7D4BF5C19002085
:1089D00038B1E7280BD1064B00221A879A879A866E
:1089E00005E004484FF40053016A4B61704770473B
:1089F000002C01406C020020024B0122E7201A7477
:108A0000FFF7E6BF5C19002010B1E72827D106E088
:108A1000134B196AC86880F40052CA607047114A43
:108A2000114B117C61B9198F9088414088B2188729
:108A3000998FD088414088B29887998E52880BE0F0
:108A4000198F9089414088B21887998FD089414009
:108A500088B29887998E52894A4092B29A86704716
:108A60006C0200205C190020002C0140E7287FD117
:108A70004049414B087C414A48BB898888B208B9C3
:108A800018700DE0118F88B208B9012007E0118F2E
:108A9000928D88B291B24A1C904201D1FF20187089
:108AA000344B3748D98889B269B1344A938F99B227
:108AB00009B9012107E0938F928D99B293B25A1CA4
:108AC000914201D1FF2101702A48438828E0898919
:108AD00088B208B918700DE0118F88B208B901206A
:108AE00007E0118F928D88B291B24A1C904201D159
:108AF000FF2018701F4B2248D98989B269B11F4ADB
:108B0000938F99B209B9012107E0938F928D99B2A1
:108B100093B25A1C914201D1FF210170154843893B
:108B200098B2184B68B1154A918E88B208B90120E5
:108B300007E0918E928D88B291B24A1C904201D189
:108B4000FF2018700D4B0C491A8F91F90000821804
:108B500091B20B4A198792F90010988F081882B2C7
:108B600008499A8791F90020988E101881B2998649
:108B7000704700BF5C19002034220020002C014007
:108B8000242200201422002073B5104C0E4604EB62
:108B9000400494F84C10054694F84800FEF796FF00
:108BA000B4F850402046FEF7E9FE09480023451975
:108BB00095F83010684600948DF804308DF8051053
:108BC0008DF80660FEF79EFE7CBD00BFB40601086E
:108BD0006C020020F7B5224E8700F3190546586D48
:108BE0000C4640F001000121FFF712F81D4B06EB87
:108BF00045065A1992F83210B6F85C0002AADF193D
:108C00008DF8031022F8080D6946786BFEF7D2FE46
:108C1000012C24D11021002213481B27FFF755FAFD
:108C200005238DF8047001A800278DF805308DF814
:108C300006708DF80740FEF75BFDB6F86010062061
:108C40008DF8050001A88DF804108DF806708DF8D8
:108C50000740FEF74DFD28462146FFF795FFFEBD74
:108C6000B40601086C020020002C014010B501215F
:108C70004FF0C050FEF7D8FF0120FEF763FFFFF76B
:108C8000B3FC01200146FEF7C3FF0024E0B201342B
:108C9000FFF770FD082CF9D1FFF78EFD0020FFF7DC
:108CA00045FE0120FFF742FE0220FFF73FFE0320B2
:108CB000FFF73CFE00200121BDE81040FFF78ABF0E
:108CC000054A064B02EB800103EB4002486BB2F809
:108CD0005C10FEF7BFBE00BF6C020020B4060108A6
:108CE000024B03EB4000418A88B270475C190020B8
:108CF000024B002203EB4000428270475C190020C7
:108D000030B5082087B00121FEF782FF254C4FF4D3
:108D100080400121FEF788FF18204FF40053012501
:108D20008DF8030069462046ADF800308DF80250FA
:108D3000FEF740FE4FF400412046ADF800106946B2
:108D4000FEF738FE4FF48042042320466946ADF812
:108D500000208DF80330FEF72DFE0020ADF8040052
:108D60004FF48271ADF80800ADF80A00ADF81200BA
:108D7000A4F5544407204FF400722023ADF80610E8
:108D8000ADF8140001A92046ADF80E20ADF8103062
:108D9000ADF80C50FEF7E4FF2188034B8AB21A802D
:108DA00007B030BD000C01403822002070B50446E9
:108DB00001208CB00E4601461546FEF71DFF124BF2
:108DC000002080224FF44051012C0193029605901F
:108DD00006920790089009900A910B9006D1039093
:108DE0000A48049502F03CFB084807E04CB9102300
:108DF00007480393049502F033FB054801A902F0EC
:108E0000A7FB0CB070BD00BF0C380040440002400E
:108E10005800024073B50F230124002501A88DF8E6
:108E200004308DF805508DF80650174E8DF8074028
:108E3000FEF75EFCFFF764FF20462A461349FFF762
:108E4000B5FF28462A461249124DFFF7AFFF3046BC
:108E50000221224602F0A7FB284621462246FEF7C1
:108E6000AAFF224628460221FEF7A5FF28462146F2
:108E7000FEF795FF2146084802F08AFB304621465E
:108E800002F086FB7CBD00BF58000240141E00208B
:108E9000141A0020003800404400024010B5044677
:108EA0002146044802F074FB03482146BDE8104007
:108EB00002F06EBB440002405800024002484FF4EA
:108EC0008051FEF7CDBD00BF000C014008B54FF446
:108ED00000610248FEF7BEFD08BD00BF000C014066
:108EE00030B5092085B00121FEF792FE4FF40064F1
:108EF0004823694614488DF80330ADF80040FEF76A
:108F000059FD0B210120FEF7E1FD2046FEF736FD5D
:108F10000C200294002501248DF80D0002A88DF884
:108F20000C508DF80E40FEF7EDFC282101A88DF8BD
:108F300004108DF805408DF806508DF80740FEF7B7
:108F4000D7FB05B030BD00BF000C01401FB5282382
:108F5000002401A88DF804308DF80740FEF7C8FB07
:108F60004FF40060029002A88DF80E40FEF7CAFC94
:108F70001FBD000020B105484FF48071FEF770BDA1
:108F800002484FF48071FEF76DBD00BF000C014038
:108F900013B5082001210F4CFEF73AFE03201021E3
:108FA0004FF480538DF806008DF80710204601A974
:108FB000ADF80430FEF7FEFCFFF780FF4FF480723F
:108FC000204601A9ADF80420FEF7F4FC0020FFF7CD
:108FD000D1FF1CBD000C014010B50B4C238823F0C1
:108FE000400001040A0C2280FFF768FF074B188835
:108FF00081B2074841F040024FF400712280BDE881
:109000001040FEF72FBD00BF003800403622002080
:10901000000C014002484FF40071FEF721BD00BF73
:10902000000C014070B5082086B00121FEF7F0FD6C
:109030002E4C01214FF48040FEF7F6FD18204FF42E
:10904000005301258DF8030069462046ADF8003035
:109050008DF80250FEF7AEFC4FF40041ADF8001061
:1090600020466946FEF7A6FC04264FF480422046BF
:109070006946ADF800208DF80360FEF79BFC1020D8
:10908000032369464FF400768DF8030020468DF8DF
:109090000230A4F55444ADF80060FEF78BFCFFF7F6
:1090A000B9FF002107202023ADF804104FF482728D
:1090B000ADF80810ADF80A10ADF80C10ADF81210AC
:1090C000ADF8140001A92046ADF80620ADF8103027
:1090D000ADF80E60FEF744FE2188054B8AB22046AB
:1090E00029461A80FEF75BFE06B070BD000C0140F9
:1090F0003622002010B50B4C238823F040000104D9
:109100000A0C2280FFF786FF074B188881B20748B8
:1091100041F040024FF480512280BDE81040FEF73C
:10912000A1BC00BF0038004038220020000C0140E4
:1091300007B508200121FEF76BFD032014214FF431
:1091400080638DF806008DF80710034801A9ADF87B
:109150000430FEF72FFC0EBD000C0140002008B5C6
:10916000FEF71CFD4FF400000121BDE80840FEF7AA
:109170005BBD0000014B03221A6070478C19002070
:10918000044B05489A7A0AB1052100E001210160EB
:10919000704700BFD41900208C19002007B50220A9
:1091A00014238DF805000021012201A88DF8043058
:1091B0008DF806108DF80720FEF79AFA0EBD000014
:1091C00020B105484FF48061FEF74CBC02484FF4D3
:1091D0008061FEF745BC00BF000C0140074B987D45
:1091E00050B10749074B0A8807489A870188074A00
:1091F000D9871088A3F84000704700BF5C19002091
:10920000004C00086C020020024C0008044C0008CE
:1092100010B5154B987D002825D002F0E7F93420D1
:1092200002F0F8F9114802F03DFA04281AD1104C66
:109230000E48A18F02F01AFA042812D10D48E18FCE
:1092400002F014FA04280BD10B48B4F8401002F0D5
:109250000DFA042803D1BDE8104002F0D3B9FEE7AF
:10926000FEE7FEE7FEE710BD5C190020004C000899
:109270006C020020024C0008044C000838B505467A
:109280004FF0FF10FFF706FBE720FFF773FB0F4BD4
:1092900045F25554A3F84040FFF7BAFF2820214675
:1092A00002F0BAF80A48202200218562C2610162F8
:1092B000074C206AE369984207D205EB003000F0C2
:1092C000E0F9226A511C2162F2E738BD6C020020ED
:1092D0005C1900202DE9F04106460F464FEA91083F
:1092E0000024444516D056F824201748174D027024
:1092F000C2F30721C2F30743EA62120E4170C27043
:10930000A96A0422837000F053F9A86A0134011D90
:10931000A962E6E7BB0711D056F824300A480B4A89
:10932000C3F307214170C3F30741D3620370817017
:109330001B0E916A0422C37000F03AF9E720BDE8E1
:10934000F041FFF761BB00BF302200205C19002014
:1093500008B5074B0524A3F84040FFF759FF282024
:10936000214602F059F80020FFF72AFFFFF72AF9FB
:109370006C0200204FF480514FF4937200F06BB8F0
:109380004FF400514FF4197200F065B870B50E46F5
:10939000054602F05FF8B3082C461A46013A043439
:1093A000511C114905D054F8040C90FAA0F0086043
:1093B000F4E705EB8303086890FAA0F106F00306D2
:1093C0009E19B3420ED013F8014B0822614011F0F0
:1093D000010F4FEA510416BF044921466140013A8A
:1093E000F5D1EEE7C84370BD003002402083B8EDF0
:1093F00010B504460A480221FEF7EBFC0028F9D01C
:1094000007482146FEF7E0FC05480121FEF7E1FC94
:109410000028F9D00248FEF7D9FCC0B210BD00BF49
:109420000038004070B5FFF7D7FD9F20FFF7E0FF41
:10943000FF20FFF7DDFF0446FF20FFF7D9FF0546B9
:10944000FF20FFF7D5FF2D020646FFF7E3FD45EAB3
:109450000440304370BD70B50C4615460646FFF714
:10946000BBFD0320FFF7C4FFC4F30740FFF7C0FFB5
:10947000C4F30720FFF7BCFFE0B2FFF7B9FF3DB12F
:10948000FF20FFF7B5FF013D06F8010BADB2F6E78F
:10949000BDE87040FFF7BEBD08B5FFF79DFD062093
:1094A000FFF7A6FFBDE80840FFF7B4BD08B5FFF71A
:1094B00093FD0420FFF79CFFBDE80840FFF7AABD1D
:1094C00008B5FFF7AFFDFFF7F1FFFFF7ABFF104B5C
:1094D000984202D04C3B984219D1FFF77DFD802085
:1094E000FFF786FFFFF796FDFFF776FD5020FFF7A9
:1094F0007FFFFFF78FFDFFF76FFD0120FFF778FF7C
:109500000020FFF775FFBDE80840FFF783BD08BDE9
:109510008D25BF0008B5FFF75FFD0520FFF768FF49
:10952000FF20FFF765FFC307FAD4BDE80840FFF747
:1095300071BD70B50D4616460446FFF7ADFFFFF747
:109540004BFDAD20FFF754FFC5F30740FFF750FF79
:10955000C5F30720FFF74CFFE8B2FFF749FF20787B
:10956000FFF746FF6078FFF743FFFFF753FDFFF774
:10957000D1FFA51C2C4602342B1BF01881B289B1F7
:10958000FFF72AFDAD20FFF733FF14F8020CFFF7B9
:109590002FFF14F8010CFFF72BFFFFF73BFDFFF740
:1095A000B9FFE8E7FFF736FDBDE87040FFF77EBF83
:1095B0002DE9F84F11F0FF0906460D4617464FEA10
:1095C00012381DD1B8F1000F03D1304629463A4672
:1095D00051E004465FFA89F2A81B904504EB0001B4
:1095E00009D020464FF48052FFF7A3FF04F58054C2
:1095F00009F10109EEE74FEA08317018491939E01D
:10960000C9F10004E4B2B8F1000F0DD1D2B2A24208
:10961000DBD902EB09035FFA83F92246FFF789FFE2
:10962000301961194A4626E0171B2246FFF781FFD1
:10963000BFB24FEA1739651934195FFA89FB5FFA2F
:1096400087FAA0460026F3B2291B9B45414408D067
:1096500040464FF48052FFF76CFF08F58058013602
:10966000F1E74FEA093904EB090009EB0501BAF10A
:10967000000F04D0FAB2BDE8F84FFFF75ABFBDE8BB
:10968000F88F10B50446FFF707FFFFF7A5FC202071
:10969000FFF7AEFEC4F30740FFF7AAFEC4F30720AE
:1096A000FFF7A6FEE0B2FFF7A3FEFFF7B3FCBDE8AD
:1096B0001040FFF72FBF00003A4B82B01A6842F00B
:1096C000010018605968384A0A405A60186820F04A
:1096D000847121F480321A60186820F480211960A6
:1096E0005A684FF41F0122F4FE000022586099606E
:1096F00000920192186840F480311960294B1A6871
:1097000002F40030019000994A1C0092019818B9A7
:109710000099B1F5A06FF1D11B6813F4003218BFA6
:10972000012201920198012805D0204B4FF00062E0
:109730009A6002B070471E490B6843F010020A603D
:10974000086820F003030B600A68A1F5805342F01B
:1097500002000860596859605A685A60586840F4B5
:10976000806159605A6822F47C105860596841F44D
:10977000E8125A60186840F0807119601868094A48
:109780008101FBD5536823F003015160506840F01C
:1097900002035360034A516801F00C000828F9D114
:1097A000C3E700BF001002400000FFF800ED00E03A
:1097B0000020024008B50120FFF702FD064B0749D3
:1097C000012200201A601860086005494FF4E05239
:1097D0000A801A6008BD00BF405C0040445C004045
:1097E000F8190020064B1A6890B240F00801196081
:1097F0001A6890B240F004011960FFF7BBBC00BFCB
:10980000405C004010B5064C4FF6FB7322681340D5
:109810002360FFF7B5FC4FF43F40206010BD00BF50
:10982000405C00401F4B072810B518BF18701A780D
:109830001C4C052A33D8DFE802F003070C1018236C
:10984000FFF7E0FF062202E0FFF7DCFF04222270B0
:1098500010BD02215970032022E059784A1ED0B26F
:1098600058705B78EBB9042017E00F4B186881B291
:1098700041F010021A600A2005232370607010BDA9
:109880005878411ECAB25A705B7853B906484FF6F1
:10989000EF7201680A4002600620024B00E00620D9
:1098A000187010BD3A220020405C004001700B0A85
:1098B0000A0C090E43708270C17004307047017049
:1098C000090A41700230704743185A78405C00EB37
:1098D000022188B2704710B543189A78DC78415C51
:1098E000120402EB04625878521802EB002010BDFB
:1098F00073B544790023022C01930FD0032C19D0A7
:10990000012C2BD1164D28692E4620B1296901A8BA
:1099100088470246B8B9B16801201BE0104DE868DD
:109920002E4620B1E96801A88847024658B9B168B7
:1099300002200FE00A4D6A692E464AB16B6901A800
:109940009847024620B1A9682046BDF8043003E0DC
:10995000B16803200022134600F05EFB7CBD00BF0F
:1099600030230020072810B50CD801290AD801247B
:1099700004FA00F401FA00F0034B1A6822EA040228
:1099800002431A6010BD00BFD0020020F0B50121D3
:1099900087B00546FFF798FF00F48043044698B26D
:1099A00050B3B4F5824F27D128460521FFF78CFF2D
:1099B0000026074607353446BE4208D02846022115
:1099C000FFF782FF013624180435B6B2F4E7744B72
:1099D000188E21188AB21A86D86B2418DC63D96BCA
:1099E0009A6B914240F0CE8093F84000002800F03E
:1099F000C9809B69992033E024F4FF4121F07F0264
:109A000090B2002800F09B8048F2100294422AD0C5
:109A10000CD8B4F5004F40F2C08048F202039C42DB
:109A200017D9991C8C4240F0B88012E048F28000AF
:109A300084420ED005D848F24002944240F0AD80F6
:109A400051E0B4F5024F04D0B4F5084F40F0A580C2
:109A50006CE053498869002800F094808B692046A7
:109A600000210A4669E00023EA1851790DF8031035
:109A70000133042BF8D1687A2B7BAA7AE97A8DF826
:109A800004008DF807308DF805208DF8061005F1DB
:109A90000D00002306AAD218C15C0133042B02F882
:109AA000101CF7D105F11100002306AAD218C15CE1
:109AB0000133042B02F80C1CF7D105F1150000232B
:109AC00000AAD218C15C0133042B1174F8D13449B7
:109AD00028798A698DF81400002A53D08B692046B2
:109AE0006946152229E0053500212846FFF7F3FED7
:109AF000042100902846FFF7EEFE08210190284639
:109B0000FFF7E9FE0C2102902846FFF7E4FE102142
:109B100003902846FFF7DFFE214B04909969002946
:109B200030D09B6920466946142206E01C488269B1
:109B300042B38369691D20460122984722E041F221
:109B400003039C4205D00C339C4202D0591E8C4228
:109B50001AD16C1D04212046FFF7BDFE39301CD1FF
:109B60002D790F480021C5622046FFF7B4FE04217D
:109B700005462046FFF7AFFE393003D128460121C4
:109B8000FFF7F0FE012009E0054A138899B28C42E4
:109B900004D0B4F5805FF5D100E0002007B0F0BD3F
:109BA0003023002038B50A4C638898B208B90020E9
:109BB00038BD606801780429F9D1FFF7E7FE012874
:109BC0000546F4D100226280FEF716FB284638BD18
:109BD000302300202DE9F0470446884691460025B1
:109BE000BC4B5A8890B20028FAD05E6831780429BC
:109BF00040F0728130460121FFF766FE054630468F
:109C0000FFF7C4FE002840F05C8141F20703771D96
:109C10009D4253D85A1E954280F0AC8040F20220FB
:109C2000854200F0A78014D80C2D09D8082D80F0AB
:109C3000A180002D00F04581062D40F29B80DDE0E3
:109C40000D2D00F0948040F20127BD4240F0398193
:109C50008DE041F20202954218D8B5F5805F00F21E
:109C60008980B5F5017F40F2828040F207218D4264
:109C700040F027813379002104F8013B3846FFF793
:109C80002AFE01462046FFF711FE1AE141F20400C8
:109C9000854200F0898040F2A08038460021FFF71D
:109CA0001AFE042120603846FFF715FE6060083474
:109CB00006F10D07224606F11D016EE041F211008A
:109CC000854254D02CD841F20B02954252D01CD878
:109CD00041F209018D424DD000F28B8000213846BF
:109CE000FFF7F9FD042120603846FFF7F4FD082155
:109CF00060603846FFF7EFFD0C21A0603846FFF7A3
:109D0000EAFD04F10C0AE060DAE041F20F0085425E
:109D100063D035D841F20D02954240F0D28043E045
:109D200042F206018D4222D008D8B5F5005F40F21C
:109D3000C88042F204039D4219D983E042F208032D
:109D40009D42C0F0BE80581C854210D944F20B02DF
:109D5000954240F0B6807179DFF878A13846AAF8CC
:109D600030100121FFF7B0FDAAF83200A9E03779E1
:109D70002770A6E038460021FFF7ADFD2060A0E087
:109D800000213846FFF7A7FDA2464AF8040B04213C
:109D90003846FFF7A0FD606092E057F8043B8F4221
:109DA00042F8043BF9D18CE000213846FFF793FDDF
:109DB000042120603846FFF78EFD08216060384698
:109DC000FFF789FD04F1080AA060E46814F1390383
:109DD00076D10121FFF7C6FD72E000213846FFF77A
:109DE0007AFD042120603846FFF775FD6060083475
:109DF00067E0337923713F68276062E038460021CD
:109E0000FFF769FD042120603846FFF764FD082153
:109E100060603846FFF758FD0A21A0603846FFF71A
:109E200053FDC4F80A000C3406F11107224606F16E
:109E3000350157F8043B8F4242F8043BF9D138888A
:109E400010803EE00022B7187879A0540132042A2D
:109E5000F9D106F109070023F95CE0180133042B5E
:109E60000171F9D106F10D070020395C221801308B
:109E700004281172F9D106F111070023F95CE218E8
:109E80000133042B1173F9D106F115000022875C10
:109E9000A1180132042A0F74F9D106F11900002328
:109EA000C75CE1180133062B0F75F9D106F11F00CD
:109EB0000021475C6218013120299776F9D100E032
:109EC0005446044B188882B2954225D1002119804E
:109ED00022E000BF3023002030460321B778FFF78F
:109EE000F3FC8246B8F1000F0CD00421701DFFF77F
:109EF000F2FC0346C9F8000006F115014046DAB24B
:109F000006F0D0F87A1DB1182046C7EB0A0206F019
:109F1000C9F80F490020C8860D4F00237B80FEF74B
:109F20006BF93078042805D1B5F5805F02D1304651
:109F3000FFF7DEFC3A8891B200297FF451AE044B62
:109F4000D88E80B200287FF44BAEBDE8F08700BF0A
:109F50003023002007284FF0010308D803FA00F04F
:109F600004490A6810420CBF0020012070471846BF
:109F7000704700BFD0020020034B18800846002124
:109F80000A46FFF727BE00BF3023002010B5034B61
:109F90000124DC86BDE81040FFF71CBE3023002002
:109FA00038B50346154601224A710C46881D1946EC
:109FB000FFF785FC291D05702046FEF7CDF900202E
:109FC00038BD38B5BDF814500C469B18A071E81880
:109FD00085B202216171E271294604F10800FFF7A0
:109FE0006EFC6A1D204691B2FEF7B6F9002038BD1E
:109FF00038B59B180C469DB202216171A071E271C7
:10A00000294604F10800FFF75AFC6A1D204691B268
:10A01000BDE83840FEF7A0B92DE9F0471D4605F12F
:10A02000020A032301F107091FFA8AFA88714B71AA
:10A030000C46484651461746FFF741FCB5F57A7F76
:10A04000804613D82946FFF73AFC29464046FFF7D9
:10A0500036FC394604F10B002A4606F023F8A91D08
:10A06000204689B2BDE8F047FEF776B94FF47A761C
:10A07000B5FBF6F10AEB410291B2FFF720FC314645
:10A080004046FFF71CFC394604F10B00324606F04F
:10A0900009F8A5F57A75204640F2EE31ADB2BF1948
:10A0A000FEF75AF9B5F57A7F05D9A5F57A7085B22C
:10A0B0004FF47A7601E02E460025A046394628F86E
:10A0C000056F4846324605F0EDFFB31C404699B295
:10A0D000BF19FEF741F9002DE4D1BDE8F08700007B
:10A0E000F7B51A4C1E46A468FF238DF807300025EB
:10A0F000475D63190135042D5F72F9D100200D5CB5
:10A100002318013004285D73F9D10021505C6318D5
:10A11000013104295874F9D104F115000021FFF729
:10A12000C5FB0022B35C83540132042AFAD12146D4
:10A13000142242F20100FFF733FF42F201000DF159
:10A140000701FFF719FF9DF90700FEBD302300202E
:10A150002DE9F34106460C461E4831681546D0F8F5
:10A1600008804A1E1F46FF23122A8DF8073008F187
:10A17000090001D81423336021684A1E122A01D82D
:10A180001423236029684A1E122A01D814232B6045
:10A1900039684A1E122A01D814233B603168FFF740
:10A1A00085FB2168FFF782FB2968FFF77FFB396891
:10A1B000FFF77CFB4146142242F20900FFF7F0FE54
:10A1C00042F209000DF10701FFF7D6FE9DF90700E5
:10A1D000BDE8FC81302300202DE9F3418646144878
:10A1E0000D46866871461F4602ACFF2306F1090042
:10A1F00004F8013D9046FFF759FB2946FFF756FB4F
:10A2000040F201254146FFF751FB0C22314628461A
:10A21000FFF7C6FE28462146FFF7AEFE002138466E
:10A220000A46FFF7B3FE9DF80700BDE8FC8100BFBA
:10A23000302300202DE9F341864616480C468668F7
:10A240007146984602AD4FF0FF3306F10A0045F81B
:10A25000043D1746FFF72AFB0C21FFF727FB214699
:10A26000FFF724FB3946FFF721FB4146224606F162
:10A270001A0005F017FF902031461022A3B2FFF715
:10A28000B7FE40F202202946FFF776FE0198BDE8AE
:10A29000FC8100BF3023002037B50B4B40F207256F
:10A2A0000446996800222846FFF77AFE2846694648
:10A2B000FFF762FE9DF803009DF8041020706170A6
:10A2C0009DF800003EBD00BF3023002037B50D4A89
:10A2D000034695680C4605F109001946FFF7E6FAB2
:10A2E000214640F20324FFF7E1FA294608222046DE
:10A2F000FFF756FE20460DF10601FFF73DFEBDF8C3
:10A3000006003EBD302300202DE9F0430023CA5C47
:10A31000C2540133102BFAD10022334B467B9918DB
:10A3200091F8018004789F19F97A88EA0405847B02
:10A3300085EA01081D194178EF7A90F80CC04F406A
:10A34000C17B80F810805D1895F80B908578634488
:10A3500089EA050593F80B90C378477489EA0303EB
:10A3600090F80490FFB288EA090890F80590857487
:10A3700087EA090790F80690EDB285EA090590F89A
:10A380000790C374DBB283EA090390F8089080F861
:10A3900014805FFA88F888EA090890F809904775F0
:10A3A000FFB287EA090790F80A908575EDB285EA51
:10A3B000090590F80B90C375DBB283EA090388EABC
:10A3C0000C0C7E406C405940013280F81880477672
:10A3D0008576C37680F81CC046778477C1771030C5
:10A3E0000A2A9AD1BDE8F0831807010810F0800FFF
:10A3F0004FEA400018BF80F01B00C0B27047000059
:10A400002DE9F04F037891F8A0A004468AEA030AE8
:10A4100080F800A091F8A1204078A77882EA000592
:10A42000657091F8A260E07886EA0703A37091F85E
:10A43000A32097B0059582EA0005E57091F8A490F5
:10A440002679069389EA060984F8049091F8A570A4
:10A450006379079587EA0302627191F8A600A579EE
:10A46000E37980EA0506A67191F8A7700C9287EA55
:10A47000030B84F807B0227A91F8A880607A88EA02
:10A48000020884F8088091F8A9700896474067721E
:10A4900091F8AA50A67AE07A85EA0603A37291F8A9
:10A4A000AB20267B82EA0005E57291F8ACC00993E7
:10A4B0008CEA060C84F80CC091F8ADE0637BA27BBB
:10A4C0008EEA030E84F80DE00D9591F8AE50E07B16
:10A4D0005540A57391F8AF204B4B4240E2739A442C
:10A4E00091F890009AF80B6199444640267091F8D3
:10A4F000940099F80BA198448AEA0006267191F815
:10A50000980098F80B919C4489EA000626729CF802
:10A510000BA191F89C009E448AEA00062673DF197D
:10A520009EF80B8197F80BC191F8910091F89D600E
:10A5300088EA00098CEA060060730C9FDDF814A01D
:10A54000DE1996F80B0191F89970DDF8208080EA09
:10A550000706667203EB0A0091F8956090F80B719C
:10A5600084F8019087EA0600607103EB0800DDF8CB
:10A5700018E090F80B91099803EB0E0703EB000E1F
:10A580009EF80BC191F8920091F89A6097F80B71C0
:10A590008CEA000A77405D1991F89E6084F802A069
:10A5A00091F8960095F80B81A772079F88EA00053D
:10A5B00089EA0606A673A571DE1996F80B0191F8D3
:10A5C0009F5003EB0B0791F89360454097F80B0100
:10A5D0009A1880EA06070D98E7701E1896F80B7116
:10A5E00091F897004FF0090B87EA0006E67191F8A1
:10A5F0009B3092F80B71E57387EA0300E0720D4619
:10A60000CDF840B002E000BF1807010894F80090B0
:10A61000A77887EA0900FFF7E9FEFFF7E7FE94F85D
:10A620000180E678824686EA0800FFF7DFFEFFF742
:10A63000DDFE8AEA070380EA080227797040A679DE
:10A640008AEA09015FFA80F886EA07005FFA82FB6E
:10A650005FFA83FA5FFA81F903970296FFF7C6FE65
:10A66000FFF7C4FEE6796779014686EA07000491A0
:10A67000FFF7BCFEFFF7BAFE039B049A94F808C0EC
:10A6800082EA0301CBB2029947404A40A17A704066
:10A69000C6B2059381EA0C00D3B20291CDF804C092
:10A6A00006930796FFF7A2FEFFF7A0FE637AE67A0D
:10A6B000024686EA030003930492FFF797FEFFF732
:10A6C00095FE049ADDF804C0039B82EA0C015FFA50
:10A6D00081FC80EA0301CBB2029909934A40D3B2CC
:10A6E000CDF820C00A9394F80CC0A17B7040C6B28C
:10A6F00081EA0C000291CDF804C00B96FFF776FEBC
:10A70000FFF774FE637BE67B024686EA0300039351
:10A710000492FFF76BFEFFF769FEDDF804C0049AB0
:10A72000039B82EA0C015FFA81FC80EA0301CBB251
:10A73000029970404A40C6B288EA0A018BEA0900D1
:10A740000D93D3B20E930291CDF830C00F9681EAEB
:10A750000006FFF74BFE89EA000286EA020C5FFA68
:10A760008CFC8AEA0B0084F800C0CDF804C0FFF727
:10A770003DFE8BEA000386EA030B02995FFA8BFC2D
:10A7800084F801C00846CDF844C0FFF72FFE8AEADE
:10A79000000286EA020A5FFA8AFB88EA090084F866
:10A7A00002B0CDF848B0FFF721FE88EA0000DDF8DE
:10A7B00018900599079A4640FFB2F6B282EA090856
:10A7C00087EA0100E670139688EA0006FFF70EFE9E
:10A7D000059B584086EA0001CAB24846227178407B
:10A7E0001492FFF703FE474086EA0703D8B215909C
:10A7F00060714046FFF7FAFD89EA0001059B86EA91
:10A8000001020798D7B25840A7710697FFF7EEFDEF
:10A810000799089A48404640F6B20A9F0596E671A5
:10A8200009980B9E50407E4086EA0007FFF7DEFD48
:10A83000DDF820A08AEA000387EA030C5FFA8CF8AF
:10A8400084F8088009990A984840FFF7CFFD099AD3
:10A85000504087EA000B5FFA8BF9304684F8099084
:10A86000FFF7C4FD0A9E524686EA000387EA030109
:10A870000B985FFA81FB504084F80AB0FFF7B6FDF1
:10A88000DDF82CA00E998AEA00000C9E47400F9B31
:10A890000D98FFB24B407040E77283EA000A0293C2
:10A8A000FFF7A4FD0C9A0D9B50408AEA00060E9813
:10A8B000F6B226735840FFF799FD0D99029B81EA85
:10A8C00000028AEA0200C1B2617318460391FFF7E1
:10A8D0008DFD0E9A0C9B50408AEA00010F98CAB277
:10A8E000A27358400492FFF781FD0F99514B4840E5
:10A8F0008AEA000C5FFA8CFADDF804C084F80FA035
:10A9000003EB0C0295F8800092F80B11DDF850C0B3
:10A9100081EA0002227003EB0C0195F8840091F8A3
:10A920000B219E1982EA000103EB0802217195F8C0
:10A93000880092F80BC196F80B218CEA0001217275
:10A9400095F88C00039E82EA000121739A1995F80C
:10A95000811092F80B0103EB090680EA010295F8D9
:10A960008D0096F80B11DDF844C081EA00061599B8
:10A970006673581890F80B6195F88910DF1986EA0C
:10A980000100607203EB0C0695F8850096F80B1138
:10A990006270129A81EA000666719918DDF818C093
:10A9A00095F88A6091F80B0103EB0C0295F88E1074
:10A9B000704092F80B6103EB0B02714092F80BC1EF
:10A9C00095F882608CEA0602049EA2709A1992F8A9
:10A9D0000B6195F886205640A671A0721398A1735A
:10A9E000191895F88F2091F80B61DDF814C07240AA
:10A9F00003EB0C0695F8831096F80B01534448407E
:10AA0000E07095F8871097F80B014840E07195F8D1
:10AA10008B0093F80B11E273109A81EA0003511E28
:10AA2000103D11F0FF00E37210907FF4EFAD17B00E
:10AA3000BDE8F08F1807010838B5054C05462046DB
:10AA4000FFF762FC28462146BDE83840FFF7D8BC36
:10AA50003C220020034610210C200022FFF7BCBB43
:10AA6000034610210C200022FFF7E4BB38B5054651
:10AA70000E4CE36A4BB104F0F5FEE36A036000207C
:10AA8000E06204F0EFFE006838BD2846FFF762FA86
:10AA900040B9228E91B20029EAD0238E5A1E91B27B
:10AAA000218638BD4FF0FF3038BD00BF3023002075
:10AAB000F7B5034614480D4686681946174602AC9A
:10AAC0004FF0FF3206F1090044F8042DFEF7EEFEC8
:10AAD0002946FEF7EBFE41F201053946FEF7E6FE98
