:020000040800F2
:105000000050002011510008B56D0008B76D000870
:10501000B96D0008BB6D0008BD6D00080000000000
:10502000000000000000000000000000BF6D00084C
:10503000C16D000800000000C36D0008C56D0008C8
:10504000615100086151000861510008DD6F0008DE
:105050006151000861510008196E0008396E00089E
:10506000596E00088D6E0008AD6E00086151000891
:105070006151000861510008615100083970000851
:105080006151000861510008C96D000861510008B4
:105090003D7000086151000861510008CD6E0008A4
:1050A000615100086151000861510008956F0008C6
:1050B000615100086151000861510008E96D000864
:1050C000F96D00086151000861510008096E00087F
:1050D0006151000861510008D96D00086151000854
:1050E0001D6F0008F96F0008615100080000000002
:1050F00000000000000000000000000000000000B0
:0C51000000000000000000005FF808F153
:10511000002100F004B80D4B5B58435004310C489B
:105120000C4B42189A42FFF4F6AF0B4A00F003B85A
:10513000002342F8043B094B9A42FFF4F9AF05F013
:10514000C3F800F08BFB00F06FF97047884A010844
:1051500000000020180B0020180B0020382300202E
:10516000FFF7FEBF70B5012188B0044601F05CFA7C
:10517000A0F13005072D37D803226846214601F0FB
:105180007BFA1C4904A801F0D5F9204604A901F0D6
:1051900039FA064604A801F08BF91EB1ADB22846D3
:1051A000002110E0144904A801F0C4F9204604A924
:1051B00001F028FA044604A801F07AF974B10A351E
:1051C000ADB22846314600F01FFE684601F05BFA9A
:1051D000C1B2284600F0B4FF012401E04FF0FF34D3
:1051E000684601F065F901E04FF0FF34204608B051
:1051F00070BD00BF70470108724701087FB50121EB
:10520000054601F011FAA0F13004072C02D94FF045
:10521000FF3023E01249684601F08CF928466946C0
:1052200001F0F0F90646684601F042F976B90D49F9
:10523000684601F07FF92846694601F0E3F9054622
:10524000684601F035F9002DE1D00A34A4B22046B9
:10525000012100F0D9FD204600F018FF04B070BD18
:105260007047010872470108F0B5012185B0044676
:1052700001F0DAF9A0F13006072E02D94FF0FF3025
:1052800049E0684621460322072301F0CFF968462A
:10529000224901F08DF90546684601F009F97DB90A
:1052A000684621460322062301F0C0F968461C49DE
:1052B00001F07EF90746684601F0FAF80FB9DDE71C
:1052C00001251849684601F035F92046694601F084
:1052D00099F90746684601F0EBF81FB1B6B23046BF
:1052E000002111E01049684601F024F92046694682
:1052F00001F088F90446684601F0DAF8002CBDD0C8
:105300000A36B6B23046394600F07EFD30462946B0
:1053100000F0FEFD012005B0F0BD00BF744701089C
:105320007947010870470108724701087FB50121DC
:10533000054601F079F9A0F13004072C02D94FF0AD
:10534000FF3023E01249684601F0F4F82846694628
:1053500001F058F90646684601F0AAF876B90D49F9
:10536000684601F0E7F82846694601F04BF9054622
:10537000684601F09DF8002DE1D00A34A4B2204621
:10538000032100F041FD204600F00AFE04B070BD8C
:10539000704701087247010808B50948094900F03B
:1053A000ADFB0948094900F0A9FB0948094900F08B
:1053B000A5FB09480949BDE8084000F09FBB00BFB4
:1053C0007D4701082D5300088947010869520008EC
:1053D00096470108FD510008A147010865510008E2
:1053E0007047000007B5002100910A460B460248AD
:1053F00001F00CF80EBD00BF180B002010B50131F4
:10540000002393420ED0040F092C01D8303400E061
:10541000373401F8014C01330024000101F8024B3C
:10542000DBB2EEE710BD000038B54FF000604FF47E
:10543000A04102F09BFF01243A4B3B4821461C70DF
:1054400003F01CF904F0FEF903F0BEFE21464020F3
:1054500003F0DCF96FF07F4004F008F8E72004F077
:1054600075F83248047003F0D1FE7D2003F0FEF998
:1054700018B12F490C7003F00DFA40F6B83003F064
:105480002DFF04F097FC04F023FE2A4801F0F2FA05
:1054900001F0B0FB284A157845B3284C2378A3B90E
:1054A00000F012FC68B1012801D1254803E0022870
:1054B00003D14FF0FF1003F0D9FFE72004F046F8C6
:1054C00003E0204901202070087000F0C1FB68B99A
:1054D0001D4A15780DB104F05FF81C4B13481749AD
:1054E000154A00241C7004700C701470134D2C7835
:1054F000002CCDD0154B18780028C9D10C490D7857
:10550000002DC5D10F4C227822B1114B13B1FFF7FA
:1055100043FF25700F4808B1FFF762FF00F05AFC07
:10552000B6E700BF2219002000043000E318002075
:10553000CC2100205D5C0008E0180020E11800206C
:105540000060FF001C0B00201C190020E218002046
:1055500099530008E15300084B4B4C495A6870B509
:10556000501C58600C6814B10B685A1E0A604848F9
:10557000017821B14748E0B100F0B8FB19E0464C92
:10558000236813B12268511E12E0444A107880B992
:1055900043490B786BB9434A107850B9424E434D9A
:1055A000317899B1E72004F04DF82B7863B11421DC
:1055B00021603A490C78FCB9204604F07DF940F6A8
:1055C000B733984246D817E00121F1E72B784BB169
:1055D0004FF6FF7003F04AFF0124E72003F0B6FF07
:1055E0003470E6E7E72003F0FBFF314A107808B19A
:1055F0003221DDE76421DBE7002004F05DF941F6AC
:105600005732904205D9002004F05EF92949012063
:105610000870294B1A7872B92448017859B1274B80
:1056200047F22F51186888422AD91A60164B197808
:1056300009B900F0C1FB22480268B2F57A7F05D3B0
:1056400000220260BDE8704003F076B80368591C80
:10565000016070BD204604F037F9174B1A78002A14
:10566000D7D11848017829B1114B104A1878117810
:10567000014202D001200949CAE700F09DFBF9E789
:105680001A68501C1860D6E71C0B0020D821002097
:105690001C190020ED5C0008D0210020DE1800203D
:1056A000E2180020E4180020E3180020E118002090
:1056B000E0180020ED180020F7180020E81800205E
:1056C000DC210020DF18002008B5064B186004F02C
:1056D0001BFB04F02FFB04F04DFBBDE8084002F07B
:1056E000C9BB00BFD4010020074B1868052808D1AA
:1056F00006490A7A012A04D1887A0B7BC11AC8B2FA
:1057000070470020704700BF3C1900201C0B002090
:105710000D4B10B51868052813D10C4C217A0129BE
:105720000FD16289A389D01A012804D10021032056
:10573000217202F00AFDA389E218591C907BA18115
:1057400010BD4FF0FF3010BD3C1900201C0B002095
:10575000084B196805290BD1074B1A6D991881F868
:105760005400501CB0F5807F186501D100221A65E5
:10577000704700BF3C1900201C0B002070B5234A65
:1057800092F85431012B3FD0D2F85801B0F5807F08
:1057900002D10021C2F85811D2F85831126D1B48BD
:1057A000934203D1002180F8541170BD8CBFC3F522
:1057B0008072C3EB0202154CC0F85C21D4F85C5136
:1057C00099B2402D07D94033403DC4F85831C4F850
:1057D0005C51402606E0E8180023AEB2C4F8580138
:1057E000C4F85C310A4A01255018C021324684F8B9
:1057F000545102F021FC2846314602F027FD28468C
:10580000BDE8704002F090BC70BD00BF1C0B0020D2
:10581000700B0020094B10B593E81400083318688A
:1058200010180AD008220649FFF7E8FD054920466E
:105830000422BDE81040FFF7E1BD10BDE8F7FF1FEF
:10584000830100209301002038B50D460446AC4288
:1058500003D254F8043B9847F9E738BD08B5074828
:105860000749FFF7F1FF07480749FFF7EDFF074832
:105870000749BDE80840FFF7E7BF00BF484A0108F5
:10588000484A0108484A0108884A0108884A01082C
:10589000884A0108FEE70000054A08B51368054973
:1058A00018188842106001D90AF004FF184608BD94
:1058B00000000020004800204FF0FF30704701201A
:1058C00070470000014B1868704700BF7C0C002037
:1058D000064B0246582000FB013101F1080303CBBF
:1058E0001060516018689060704700BF7C0C002009
:1058F0000E4B2DE9F041D3F8647180460024BC4280
:1059000011DA14256543094E4146701900F5B67049
:105910000C220CF019F920B97519D5F86801BDE809
:10592000F0810134EBE70020BDE8F0817C0C002021
:105930000F4B2DE9F041D3F8647180460024BC423E
:1059400011DA142565430A4E4146701900F5B67008
:105950000C220CF0F9F820B9751995F87801BDE81A
:10596000F0810134EBE74FF0FF30BDE8F08100BF7C
:105970007C0C00202DE9F04788B0814668460D4632
:1059800000F0D8FD1E4B0024D3F800A054452DDABA
:1059900055B3582666431A4F494607F1040808EBE9
:1059A000060004300C220CF0CFF8E8B928460CF0C1
:1059B0009BF806F11001402834BF0246402208EB54
:1059C000010029460BF0A2FABE19012286F85820E0
:1059D000694604A8746800F0CFFD04A8A0470446F7
:1059E00004A800F065FD03E00134CFE74FF0FF3479
:1059F000684600F05DFD204608B0BDE8F08700BFB6
:105A00007C0C002008B103F0E3BD03F0C5BD00002D
:105A1000024B00221A7004F091BA00BFE218002075
:105A2000034B01224FF4C0201A7004F023BA00BFC8
:105A3000E21800202DE9F341264B074618788846E6
:105A400018B925490D782E4615B14FF0FF303FE0CB
:105A5000224C0120D4F8303284F8345203F01F0174
:105A600000FA01F05A0984F8355284F8365284F865
:105A7000375204EB8202D2F83412C4F83852014390
:105A8000C2F8341204F50E7041F28832C4F83C2298
:105A900004F50D7100902A46581C2B4605F090FE27
:105AA000002815DDD4F83032590904EB8104D4F80C
:105AB000344203F01F0244FA02F414F0010007D04C
:105AC000184639463346424605F012FF044B1E6025
:105AD000BDE8FC81F6180020F71800207C0C00209F
:105AE000E81800200A4604490346D1F83002194656
:105AF000002305F075BF00BF7C0C00202DE9F84F96
:105B000004468946002941D000283FD0204B1D681B
:105B1000042D3BD00027AF421E4E4FF058080FDA3D
:105B200008FB07F856F80810494507D106EB0802AC
:105B3000101D21460C220CF007F838B30137EAE7B4
:105B400008FB05F8A6F1040A0AEB080708F11000A3
:105B5000C7F804900021402230180BF05DFB06EBE3
:105B60000801081D0C2200210BF056FB206861681B
:105B700007F1080203C2A3680020013507F1040BF6
:105B800087F858001360543746F8045CBDE8F88F76
:105B90007C0C0020800C002030B51C48ADF5777DD2
:105BA00006F0C4FB00282ED119481A4B1A491B4A8B
:105BB0000C901B4D1B480B930D910E921A4B1B49D9
:105BC0001B4A109512901B4D1B481C4C11930491BD
:105BD0001B4B1C4905921C4A069508905DAD13A805
:105BE000079309910A920F94039004AC029504F074
:105BF000B7F9284604F0BAF900940448134902AAF8
:105C00000BAB06F09AFB0DF5777D30BDB40F00208D
:105C1000355A0008E55A0008215A0008115A0008B0
:105C2000C19E0008BD620008055A0008C55800085A
:105C3000D158000875590008F15800089D9F0008C8
:105C400031590008799F00088D9F0008E8F7FF1F71
:105C5000014806F0C6BE00BFB40F002030B50220D8
:105C600011228DB0014605F02BFD051E28DB1549DC
:105C700007A806F03DFC022316200024ADF80C30E6
:105C80008DF80E003321E0220123BB208DF8114056
:105C90008DF80F108DF810208DF812308DF813004C
:105CA0000324102203A90091019200231322284605
:105CB00007A905F09FFE013CF3D1284605F02EFD13
:105CC0000DB030BDE8F7FF1F10B5074CFFF764FFBC
:105CD000204606F02EFB204606F006FE0446FFF79F
:105CE000BDFF204610BD00BFB40F002038B5114CD9
:105CF000D4F8F85A2DB1D4F8F81A4B1EC4F8F83A73
:105D000038BDD4F8FC3A0C4A52F8230003F0D4FB17
:105D1000E72003F01BFC094A6420D4F8FC1AC4F8FD
:105D2000F80A10684B1C8342C4F8FC3AA8BFC4F8B8
:105D3000FC5A38BD7C0C0020B41D01080400002072
:105D400010B5054CD4F8300205F0E8FC18B94FF056
:105D5000FF33C4F8303210BD7C0C002008B5FFF7CB
:105D6000EFFF01210220062205F0AAFC11490028BC
:105D7000C1F830021BDB0222A1F8002B16233322CC
:105D800081F8023B81F8032B3623D02281F8043BB3
:105D900081F8052BE523042281F8072B81F8063BC7
:105DA000102201F53061BDE8084005F0DDBC4FF080
:105DB000FF3008BD7C0C0020044B012200205A80DB
:105DC0001880D886024B1A70704700BFE02200206E
:105DD000F6180020084B0022D3F8401203F5117387
:105DE0008A4208DA93F8500010B1002083F850007E
:105DF00001325133F4E770477C0C0020014806F073
:105E000085BA00BFB40F002014282DE9F3410446E1
:105E10000E4675D8FF2973D000F02AFB28B10D2C4F
:105E20006ED00F2C6CD00E2C6AD000F0BFFA08B1E7
:105E3000012C65D900F080FC18B1A4F11203012BEC
:105E40005ED9304D20012F582F492A188F42B2F8C1
:105E5000048001D1042003E02C4B9F4203D1082091
:105E6000012102F0DFFCADF80480062E44D8DFE803
:105E700006F00411181F26313C00224A102302EBC1
:105E8000041403200021A1738DF807308DF806005B
:105E9000083431E004218DF8071005EB04140122C9
:105EA00029E048228DF8072005EB0414022222E0A5
:105EB00028208DF8070005EB041403221BE0114B8A
:105EC000182203218DF807208DF8061003EB041427
:105ED000042210E00B481C2103238DF807108DF8D5
:105EE000063000EB0414052205E000208DF80700C1
:105EF00005EB04140622A273384601A902F064FBE4
:105F0000BDE8FC811400002000080140000C0140A5
:105F1000142870B504460E463ED8204B03EB001003
:105F2000817B012938D0022936D0032934D00629B3
:105F300032D0FF2930D000F09BFA30B10D2C2BD09D
:105F40000F2C29D00E2C00D170BD00F02FFA10B10B
:105F5000012C00D870BD00F0EFFB20B1A4F11202BB
:105F6000012A00D870BD0D4D05EB0413987B042861
:105F700003D120460021FFF747FF012E05D1240160
:105F80002819295983880B6170BD2EB9240129195C
:105F90002B598A885A6170BD70BD00BF1400002063
:105FA000142810B5044602D94FF0FF3010BD1A4B2B
:105FB00003EB0010817B0029F6D0FF29F4D000F01C
:105FC00057FA28B10D2CEFD00F2CEDD00E2CEBD0C2
:105FD00000F0ECF908B1012CE6D900F0ADFB18B1E6
:105FE000A4F11202012ADFD90B4B03EB0410817BD1
:105FF000062908D193F850114A1ED3B2FD2BD3D8ED
:106000002046FFF701FF044824010119898800593F
:1060100002F02AFB10BD00BF1400002010B54FF4A1
:10602000004086B002F0CAFB01214FF4007002F07C
:10603000F9FB154802F0A4F9012400234FF4602273
:10604000114801A901938DF808308DF809300392A9
:1060500004938DF8144002F0C1F90B48214602F078
:10606000E1F9094802F0E7F9074802F0E9F90028E8
:10607000FAD1054802F0E8F9034802F0EAF90028ED
:10608000FAD106B010BD00BF00240140092838B580
:10609000044601D80A34A4B200F0EAF940B10D2C4C
:1060A00002D14FF0FF3038BD0F2CFAD00E2CF8D0B3
:1060B00000F07CF900F040FB18B1A4F11203012BB1
:1060C000EFD9142CEDD81C4D05EB04108279FF2A72
:1060D000E7D095F85111914206D0837B06212046E6
:1060E00085F85031FFF790FE95F85251012D05D1FA
:1060F000FFF794FF104A002082F852010E4D05EB85
:106100000414A17995F851318B4207D00B48012234
:10611000002302F0ABF9A17985F85111074801215C
:1061200002F09BF90548022102F0F0F90028F9D0AD
:10613000024802F0E8F938BD1400002000240140B4
:106140002DE9F041142888B004460D4600F2AB80DA
:10615000564B03EB00108168002900F0A48000F08A
:1061600087F940B10D2C00F09E800F2C00F09B8031
:106170000E2C00F0988000F019F910B1012C40F2BB
:10618000928000F0D9FA20B1A4F11202012A40F263
:106190008A80464B03EB0410817B11B1042940F047
:1061A00082806421424E4D43376842F21072B7FB41
:1061B000F2F3FF2795FBF7F514226A43581E86B2C7
:1061C000012092FBF1F301469FB202F02BFB042168
:1061D0002046FFF719FE354800EB04118D68B5F134
:1061E000804F02D10120014608E0324A0220954248
:1061F00003D0314B9D4203D10420012102F01EFB4C
:106200002A49132001EB0415ADF80800ADF804602D
:10621000A868002601A9ADF80A60ADF8066002F092
:10622000E9FBADF81860AE896022012305F108088A
:10623000ADF81020ADF81230ADF8167046B9A86868
:1062400004A902F021FCA868082102F05DFD1FE00E
:10625000042E08D1A86804A902F05AFCA8680821F5
:1062600002F05AFD14E0082E08D1A86804A902F033
:1062700093FCA868314602F059FD09E00C2E07D1C5
:10628000A86804A902F0CAFCA868082102F056FD1B
:106290000648012100EB0414A06802F029FDA06863
:1062A000012102F002FD08B0BDE8F08114000020D9
:1062B000B80200200004004000080040014B1868AC
:1062C000704700BF200B002007B5002100910A464F
:1062D0000B46024800F09AF80EBD00BF9817002048
:1062E000024B18785978401A704700BF9C1700205D
:1062F000064B5A781978914204D99818013280785F
:106300005A7070474FF0FF30704700BF9C17002055
:10631000054B5A781978914202D9981880787047BD
:106320004FF0FF30704700BF9C17002070470000FF
:10633000F8B5094B054693F82200164650B10C46B5
:106340008F18BC4206D0296828460A6814F8011B39
:106350009047F6E73046F8BD9C17002010B50C4B6F
:10636000012293F822408CB193F823401F2C02D9CC
:106370004260002010BD93F824001C1884F82510FA
:10638000411CC8B283F8240083F82300104610BDD6
:106390009C17002000224260024A4FF47A7181600B
:1063A00002607047D81D010870477047014B93F891
:1063B000590070479C17002013B5084C002100912C
:1063C00004F164000A460B4600F020F804F168006E
:1063D00002B0BDE81040FFF7DDBF00BF9C170020F2
:1063E00008B5034B53F8200000B1804708BD00BF3B
:1063F0001418002007B5002100910A460B460248F8
:1064000000F004F80EBD00BF5418002010B58370D2
:106410009DF80830044601704270C37010BD000042
:10642000034B00221A705A709A70DA70704700BFDE
:1064300058180020F8B506460C468F180025BC42B7
:1064400007D0336830461A6814F8011B90472D189E
:10645000F5E72846F8BD000007B5002100910A467F
:106460000B460248FFF7D2FF0EBD00BF5C180020AC
:10647000014B587D704700BF601800207047000036
:1064800007B5002100910A460B460248FFF7BEFF00
:106490000EBD00BF7618002007B5002100910A4606
:1064A0000B460248FFF7B2FF0EBD00BF7C1800206C
:1064B00010B5044600680AF02DFA204610BD10B54C
:1064C0000446006808B10AF025FA00232360A3609F
:1064D000636010BD38B504460D46006801310AF00E
:1064E00059FF10B184E82100012038BD036810B5C0
:1064F000044613B14068884207D22046FFF7EAFFFE
:1065000020B1A16809B922681170012010BD70B5D1
:106510000E46114604461546FFF7E8FF18B9204617
:10652000FFF7CDFF04E0A560206831460BF07EFA4E
:10653000204670BD38B50023044603604360836085
:1065400003730D4639B108460BF0CEFA29460246D0
:106550002046FFF7DCFF204638BD884210B50B46C9
:10656000044607D0096819B19A68FFF7D0FF01E027
:10657000FFF7A5FF204610BD002310B504460360B9
:10658000436083600373FFF7E8FF204610BD38B512
:1065900005460C4641B108460BF0A6FA21460246D4
:1065A0002846FFF7B4FF01E0FFF789FF284638BD12
:1065B000826808B50B4612B919B9012008BD11B996
:1065C0000368187802E000680BF042F9D0F101008E
:1065D00038BF002008BD10B58B688468E41AA24259
:1065E0000CD8006868B1096851B180181A460BF0E0
:1065F000ABFAD0F1010038BF002010BD002010BD63
:10660000084610BD82688B689A4202D30022FFF7C9
:10661000E2BF002070478368994203D2006810B13E
:10662000405C704700207047FFF7F5BF9A422DE9A4
:10663000F04107460D4614461E4601D9344616461B
:1066400038460C49FFF776FFA86884420FD82968BE
:10665000864228BF0646002211F806808A552B681C
:1066600038461919FFF793FF286800F80680384666
:10667000BDE8F0819048010810B58B680446FFF72B
:10668000D5FF204610BD006808B10AF01BB870475E
:1066900007B5002100910A460B460248FFF7B6FEF7
:1066A0000EBD00BF8018002007B5002100910A46EA
:1066B0000B460248FFF7AAFE0EBD00BF841800205B
:1066C00007B5002100910A460B460248FFF79EFEDF
:1066D0000EBD00BF881800204FF0FF307047704794
:1066E00008B5054802F043FB0348802102F047FB50
:1066F0000028F9D0012008BD00440040202108B541
:10670000034802F03CFB003018BF012008BD00BF69
:106710000044004008B5024802F02DFB08BD00BF50
:106720000044004000224260024A4FF47A718160C6
:1067300002607047F81D0108014B187C704700BFCC
:106740008C18002013B5084C0021009104F11100B1
:106750000A460B46FFF75AFE04F1180002B0BDE8E6
:106760001040FFF7DFBF00BF8C18002070474FF0CC
:10677000FF307047084608B5FEF7EAFF012008BD64
:1067800008B5FEF7B1FF08BDFEF7C2BF00224260A8
:10679000024A4FF47A71816002607047181E010846
:1067A0000846FEF791BF000013B5074C0021009189
:1067B00020460A460B46FFF729FE201D02B0BDE821
:1067C0001040FFF7E3BF00BFB418002000230360B0
:1067D0001846704700230360184670470023036083
:1067E00018467047F0B587B00C4607460BF07CF9A9
:1067F000064620460BF078F9012518231E210222B7
:1068000001930291039205900023009504940320C4
:106810003946324605F02EFA024B18705D7007B00B
:10682000F0BD00BFC818002048F20203984210B51E
:1068300017D008DC992841D0591E884242D12248FD
:106840000122427110BD48F21002904225D07032F0
:10685000904237D11C48012100238170C17003711F
:1068600010BD194C62793AB14FF47F4002F0FEFD41
:10687000E72002F06BFE06E0A07910B1431EA37181
:1068800001E00121A1750022227662716276E27533
:10689000A276E2762277226210BD0A7D0A4852B9BA
:1068A0000123C3754FF47F4002F0E0FDE720BDE80F
:1068B000104002F04BBE0021C17510BD024B0121FA
:1068C00083F8241010BD00BFC81800201FB54FF07A
:1068D0003C0C0A234FF461514FF461628DE80E10B5
:1068E000684601A902AA03AB04F03AFA05B000BD5C
:1068F0001FB50023009301930293039301A86946F7
:1069000002AA03AB04F0F4F905B000BD30B5554D53
:10691000002497B0FF202C76AC706C76EC70AC76CF
:106920006C70EC766C71EC7585F824402C6202F08A
:106930009DFDE72002F00AFE21462246204605F092
:1069400075F92B46012103F8074F0E200A4604F083
:1069500079FA6B79012B05D1642002F04FFC03F02A
:1069600029FFF6E710210C2004F0B8FA3E4804F0A5
:106970007FFE3E4805F0CEFA012005F0AFFA6846EA
:106980003B4900F05BFD374D6A78A87852EA000376
:106990001ED195F82540002C5AD0FF2005F052FA60
:1069A000002855D11A24013C06D0E72002F018FE39
:1069B000322002F023FCF6E72A4D0E202B4603F886
:1069C000064F0121224604F03DFA85F82540DAE71A
:1069D000E72002F0BBFD01210E200022AB1D04F0D8
:1069E00003FAA97811B105F0B3FA28701D4C012102
:1069F000237800225D1C234603F8065F0E2004F076
:106A000021FA00200146012205F010F90125234654
:106A10002A4603F8075F29460E2004F013FA05F012
:106A20008BF8642002F0EAFB002005F039F848F208
:106A3000442084F8265005F01FFA4FF47F4002F0FE
:106A400015FDE72002F082FD0022A27517B030BDCF
:106A5000E72002F0C5FDFA2002F0D0FB684600F006
:106A600049FD90E7C8180020301E01086801002089
:106A7000E567000830B53E4C85B0A06203F074F8BD
:106A800002F0B4FF3B4B3C483C493D4A0093019027
:106A90003C4B029103923C493C4A3D4804F0ECFFD8
:106AA000642002F0ABFB002004F0FAFF0025012374
:106AB00048F24420E57684F8263005F0DDF93548C3
:106AC0000188012906D00E2010212A46A31D04F0BA
:106AD0008BF9A8B1FF2005F0B5F910210E2004F0C4
:106AE000FDF900212C4B0024CC5401311029F9D19F
:106AF00022460E2004F0A6F9264A148003F07AF903
:106B00001B4C237A4BB9FFF7E1FE0121234603F822
:106B1000081F0E20022204F095F9154C207990B937
:106B2000A17911B90122A2750DE0E07958B90146A9
:106B3000012205F07BF80121234603F8071F0E20F0
:106B40000A4604F07FF90A4B187908B9997D31B9E2
:106B50004FF47F4002F08AFCE72002F0F7FC0F4878
:106B600004F0A2F905B0BDE83040FFF7C1BE00BF98
:106B7000C8180020A59A0008B99A0008259B0008AB
:106B80004D9B0008DD670008CD670008D567000849
:106B900029680008AA020020CE180020F41800205E
:106BA00030B502200121062285B004F089FD051EC2
:106BB00002DA4FF0FF341AE00021352208240223C4
:106BC0008DF802108DF80320694610228DF80440DC
:106BD0008DF805408DF806408DF80740ADF800307F
:106BE00004F0C2FD041EE4DB284604F097FD2046B5
:106BF00005B030BDF7B5654C94F82E202346002A29
:106C00004FD194F82F0000284BD194F8260020B9DA
:106C100004F046FF012184F826105C4DA87D10B1D8
:106C2000FFF774FE19E02979B9B1EC7DACB92146C2
:106C30002246204604F0FAFF55480AF055FF554E0B
:106C4000074630460AF050FF00960190711F03205E
:106C50003A46234604F086FF2C714C4BDA78012A21
:106C600014D1D87D012811D1597901290ED10324DD
:106C700049480AF039FF013C82B24749012004F03B
:106C8000C5FE14F0FF04F3D1404BDC703F48C27DD9
:106C9000002A79D090F82F10002975D1037E53B3C4
:106CA00072E093F82650394C002DB6D000252846C6
:106CB00084F82E50657184F82650E5752576657642
:106CC000A576E5762577256202F040FF642002F084
:106CD00095FAA27D3AB1284604F0E2FE012384F839
:106CE0002630FFF713FE4FF47F4002F0BFFBE72092
:106CF00002F02CFC91E7047F0CB34FF47F0002F00C
:106D0000B5FB224C207F90B1E72002F01FFC4FF42E
:106D1000FA7002F073FAE72002F046FC4FF4FA70C2
:106D200002F06CFA227F511ECBB22377E9E72346AB
:106D300003F8090F01210E20032204F083F84FF617
:106D4000FF7002F093FBE72002F000FCFFF706F86B
:106D500000280E4C16DA94F82E10A9B9FFF720FF80
:106D6000002801DA022300E003232377074C0322E3
:106D7000207F234603F8090F01210E2004F062F85A
:106D8000002200E001222276FEBD00BFC8180020CC
:106D90006B010020700100207901002007B500215F
:106DA00000910A460B460248FFF730FB0EBD00BFBC
:106DB000F81800207047FEE7FEE7FEE7FEE77047A1
:106DC00070477047FEF7C8BB08B5024B0BB1AFF375
:106DD000008008BD0000000008B5024B0BB1AFF306
:106DE000008008BD0000000008B5024B0BB1FFF7A2
:106DF000DBFA08BDA963000808B5024B0BB1FFF729
:106E0000D4FA08BDAB63000808B5024B0BB1FFF71D
:106E100035FB08BD7D64000808B5012001F0BEFB0C
:106E200038B1012001F0CAFB024B13B10020FFF77B
:106E3000D7FA08BDE163000808B5022001F0AEFBF7
:106E400038B1022001F0BAFB024B13B10120FFF769
:106E5000C7FA08BDE163000808B5042001F09EFBF5
:106E600078B1042001F0AAFB0020064B01461880EF
:106E700002F076FC044810210122BDE8084001F030
:106E80002EBF08BD1E190020002C014008B50820A7
:106E900001F084FB38B1082001F090FB024B13B1E4
:106EA0000320FFF79DFA08BDE163000808B5102034
:106EB00001F074FB38B1102001F080FB024B13B1DC
:106EC0000420FFF78DFA08BDE163000808B5202013
:106ED00001F064FB38B1202001F070FB0E4B13B1C0
:106EE0000520FFF77DFA402001F058FB38B1402023
:106EF00001F064FB084810B10620FFF771FA80200A
:106F000001F04CFB38B1802001F058FB024911B16F
:106F10000720FFF765FA08BDE163000808B54FF4E4
:106F2000005001F03BFB40B14FF4005001F046FB34
:106F3000174B13B10D20FFF753FA4FF4804001F0C7
:106F40002DFB40B14FF4804001F038FB104810B1E8
:106F50000E20FFF745FA4FF4004001F01FFB40B14F
:106F60004FF4004001F02AFB094911B10F20FFF74F
:106F700037FA4FF4006001F011FB38B14FF40060B4
:106F800001F01CFBBDE8084002F0D4B808BD00BF0A
:106F9000E163000808B50F48102101F0D9FEC0B127
:106FA0000C48102101F0DFFE002002F075FC28B92A
:106FB000094B1A880A3290B2188008BD1021054882
:106FC000002201F08CFE00200121BDE8084002F003
:106FD000C7BB08BD002C01401E19002008B50120C8
:106FE00001F0ACFC30B1012001F0BAFCBDE8084072
:106FF00001F088BC08BD000008B5022001F09EFC2D
:10700000B0B10C4B00224FF400301A7001F0D6FAE8
:10701000012001F0BBFB10B1012001F0C1FB01F028
:1070200071FC022001F09CFCBDE8084001F06ABC44
:1070300008BD00BFF718002002F00AB800F062B8DF
:1070400038B514490B78012B23D1134A13680BB9B7
:107050000B7038BD114C402B206881B205D94030EF
:10706000403B20601360402504E09DB2C31800201F
:10707000236010600A4A5018C0212A4600F0DCFF45
:107080000120294601F0E2F80120BDE8384001F076
:107090004BB838BD700C0020780C0020740C002018
:1070A000700B0020094908B50020094B0122088017
:1070B00003201A7001F0F6F8064B024618800648C5
:1070C0004FF48871BDE8084000F0CDBF280B0020C8
:1070D000240B0020260B00202A0B0020074B1868E9
:1070E000052809D1064B1A68511C052A196003D1DD
:1070F00000201860FEF742BB704700BF3C1900201B
:10710000FC1800203A4A38B511683A4B88B23A4D1B
:1071100018801C882988214001F4007084B244B191
:107120004FF6FF5515609A78511CC8B29870FFF75A
:10713000D5FF304C304B25881A882A4002F4004194
:1071400088B225461C4608B100F0B0FE2A88238884
:10715000134003F4806188B230B1254B27494FF6C4
:10716000FF321A6048688047224A234B11881B88E7
:10717000194001F4005081B219B11D494DF6FF705C
:1071800008601288134003F4805398B230B1184A53
:107190004EF6FF711160002003F04CF9154B1649B3
:1071A00018880A88024002F4006398B260B114495A
:1071B0000A7812B103F01EF902E0022003F03AF956
:1071C0000B4B4FF2FF7018600A490B480A8803887E
:1071D000134003F480718AB242B1054B4FF6FF6051
:1071E00018600720BDE8384003F024B938BD00BF5F
:1071F000445C004000190020A81900200C02002067
:10720000CC020020034B987A10B1034905220A6092
:10721000704700BF841900203C190020014B042254
:107220001A6070473C190020034B1A78202A01D1BC
:1072300000201870704700BF04190020704700003C
:10724000212810B508D111480368197801F07F0290
:10725000212A11D0022010BD2028FBD10B4B196828
:107260000A780B4902F07F030A4A212B0CBF0B4618
:10727000002310700BB9EDE7074B044C2068002485
:107280008361448220469847204610BDA4190020FF
:10729000E972000804190020D1720008074B196830
:1072A0000A7802F07F03212B05D1022801D10020AA
:1072B00070472228FBD00220704700BFA41900208D
:1072C00009B1022070470128FBD80846704700002A
:1072D00020B9034B082219680A8270470148704799
:1072E000A4190020D401002020B9034B08221968FA
:1072F0000A82704701487047A4190020D401002079
:10730000054B1968CA78042A04D8044B03EBC20160
:1073100000F04CBB00207047A4190020DC010020C5
:10732000014900F043BB00BFFC010020014900F00F
:107330003DBB00BF04020020334A344BD1791868AA
:1073400010B5002441728472C472204600F09EFE83
:1073500020464FF4007100F0A1FE1021204600F0FD
:10736000A9FE4021204600F045FF8021204600F084
:1073700031FF204600F0FAFE254B204693F86410BA
:1073800000F072FF204600F0E0FE0120214600F0F0
:1073900085FE0120C02100F01DFF0120202100F00A
:1073A00089FE0120214600F0A2FE02204FF4C061B8
:1073B00000F074FE02204FF4807100F00BFF0220F9
:1073C000214600F094FE0220202100F073FE0320ED
:1073D000214600F063FE03204FF4887100F00AFF9D
:1073E0000320402100F040FF03204FF4405100F003
:1073F0007EFE0320214600F05DFE204600F0E8FC02
:10740000044A0120106010BD9D1E0108A41900202F
:10741000D40100203C19002010B5FEF7FBF9054B04
:1074200000241868847202F0CDFF00F051FF024979
:107430000C6010BDA41900203C19002038B504468A
:107440000D46FFF7A3F9204625614FF41651FFF7CB
:10745000A7F9204638BD000007B5002100910A4673
:107460000B460248FEF7D2FF0EBD00BF05190020F3
:1074700070B506460D46002428460AF035FB8442C6
:1074800008D2295D3046FFF775F9012001F0B6FEFC
:107490000134F1E770BD0000F8B504460D4601F176
:1074A00020072046FFF76CF90028FADD2046FFF799
:1074B0006BF9BD42C6B206D100232B7020460C49A1
:1074C000FFF7D6FF0AE00D2EF6D00A2EF4D02046A4
:1074D0003146FFF74FF905F8016BE2E72046FFF769
:1074E0004FF9002803DD2046FFF74EF9F6E7F8BD17
:1074F0008E4801087FB50446FFF742F9002871DD88
:107500002046FFF741F9C0B277283CD104F11406B8
:1075100004F1350500212122304609F07DFE2122AB
:107520000021284609F078FE20462F49FFF7A0FFEA
:1075300020463146FFF7B0FF20462C49FFF798FF61
:1075400020462946FFF7A8FF20462949FFF790FF6C
:10755000226930462946904720462649FFF788FF92
:1075600020462549FFF784FF20462449FFF780FF86
:1075700020462349FFF77CFF20462249FFF778FF8A
:107580002046214929E069282CD1204A01AB106806
:107590005168002503C39168204619601C49FFF714
:1075A00067FF01AEAE5D300900F13001392988BFB7
:1075B00000F1570106F00F062046FFF7DBF806F151
:1075C0003001392988BF06F1570120460135FFF700
:1075D000D1F80C2DE5D10F49204604B0BDE870402C
:1075E000FFF746BF04B070BDB6470108BD470108AC
:1075F000C84701080B4801082B4801085E480108EC
:1076000091480108D048010801490108E8F7FF1F27
:10761000174901088E48010810B5064C18B92368AF
:1076200001221A8210BD044B18680168884720683F
:107630000A3010BDA4190020A019002010B5064C76
:1076400018B9236801221A8210BD044B186881689A
:10765000884720680C3010BDA4190020A019002014
:1076600008B5234A18B9136802221A8208BD214BB3
:10767000002012681880117811F07F0113D1507A20
:1076800000F02002D1B209B102221A7000F04003CA
:10769000D8B2184B18B11A7842F001011EE01978DF
:1076A00021F001011AE001291FD002291ED15079D1
:1076B00000F00F024FEA820110F0800F01F18040CC
:1076C00000F5B842116803D001F03002102A03E03F
:1076D00001F44050B0F5805F01D101211970064BD3
:1076E000186801698847034808BD184608BD00BFEF
:1076F000A419002074190020A0190020F8B5224B0D
:107700001C68238A267AABB9042E13D11F4801784E
:1077100001291F490AD11F4C226894B21E4AA2189F
:107720005200136030220A80037028E010260E8079
:10773000072624E0A58AA169AB428CBF0226042655
:107740009D4228BF1D46284688470746002000F076
:1077500061FD2A460146384600F06EFC29460020AD
:1077600000F074FD208A638A421BED1808480B4B19
:10777000228230214FF44052018065821A80024BF0
:1077800018680672F8BD00BFA4190020091900206E
:10779000AC190020505C004002300020AA190020E3
:1077A00010B50A4B0A4918684B78C27893420AD33D
:1077B000817841B9848834B9827206480268536876
:1077C0009847204610BD022010BD00BFA41900201C
:1077D00060020020A019002038B50E4A0E4C106837
:1077E00023688269D9785879904721688B7A7BB170
:1077F00070B9087960B98D7855B9084A1168CB68B5
:10780000984720684279C178C2720173284638BD12
:10781000022038BD7C190020A4190020A0190020E6
:1078200010B5324B1B68187810F07F0004D15A7ADB
:1078300022F02001597210BD022855D15A88002A21
:1078400053D11979002950D15A7922F080004FEA9A
:10785000800404F1804101F5B8442168244C12F001
:10786000800F247814BF01F0300101F44051A04290
:107870003AD2002938D09B7A002B35D0840002F010
:10788000800204F18043D1B203F5B844226861B1AB
:1078900002F03002102A21D1C4B2204600F087FC49
:1078A0002046302100F006FC18E002F44051B1F50A
:1078B000805F13D128B90F4B93F82C1000F0D4FC43
:1078C00001E000F062FC20684BF68F72024082F407
:1078D000405141F4004343F08000206006490B68AA
:1078E00058698047002010BD022010BDA419002057
:1078F000600200200C020020A019002010B51F4BD0
:1079000019684A7922F080034FEA830000F180442D
:1079100004F5B8401A4C0068247812F0800F14BFA8
:1079200000F0300000F44050A34224D24C8814BB35
:1079300008B3897AF9B19B0003F1804102F080021B
:1079400001F5B843D0B2196828B148F6BF720A40B1
:1079500082F0100004E04BF68F720A4082F48050EF
:1079600040F4004141F080001860064B1A689169AC
:107970008847002010BD022010BD00BFA4190020C0
:1079800060020020A019002008B5064B1868064BBD
:10799000427A42F0200141721868C2699047002083
:1079A00008BD00BFA4190020A0190020054B1A68CB
:1079B000538A18B98988CB1A138270470868C0188F
:1079C000704700BFA419002008B50B4B002093F8A6
:1079D0002C1000F049FC09480168087A082806D1F3
:1079E000074B4FF480521A80064A10211180B0F1E3
:1079F00009035842584108BD0C020020A419002078
:107A0000AA190020AC19002070B52E4B1C68207AF2
:107A100002284FD004284DD0032801D0052843D197
:107A2000A169208AA9B1A0B1A58A854228BF0546CF
:107A300028468847228A0646608A531B2918618295
:107A40002382002000F0F4FB2A460146304600F075
:107A50000AFB228A52B11C4B4FF440501880002080
:107A6000014600F0F3FB194A30211180208AA38AD5
:107A70001449834202D80B68032202E018B10B6854
:107A800005221A720CE00A680623114913720A686B
:107A9000104993B25A1853000C49186030200880DE
:107AA000084801680B7A06E0072803D10A490A68EA
:107AB000D36898470823034A10680372BDE87040F2
:107AC000FFF782BFA4190020AA190020AC190020DA
:107AD000505C0040023000207C190020944B73B5AC
:107AE0001A68944990B24418934E65002A68356824
:107AF0002B7A092B15D090B2410001F1804404F596
:107B0000C04422782A7063786B70A08800F0DAFB9A
:107B100068802089356800F0D5FBA880A08931688D
:107B2000C880854D01242B68DA881C725C78002A95
:107B300064D1187810F07F0238D1092C02D1FFF7F8
:107B40002FFE45E0052C0FD193F90320002A01DA1E
:107B500008214FE099780029FAD198880028F7D1B8
:107B60009B7A002B38D0F3E7032C10D1D87801286A
:107B700007D0724A204611684B699847032829D1DB
:107B800037E09B88002BF4D1FFF7FEFE20E0012CAC
:107B9000EFD1D9780129ECD198880028E9D15B7A16
:107BA00003F02002D1B20029E3D00AE0012A04D177
:107BB0000B2CDED1FFF710FE0AE0022AD9D1012CEE
:107BC00002D1FFF72DFE03E0032CD2D1FFF796FE82
:107BD00010B1CEE70028BBD15548594B026891B28D
:107BE000C818584B4100002230200A601880062136
:107BF00000E00921504A10680172D3E0062C13D12D
:107C00001C7861067AD19A784C4B012A02D11C6803
:107C1000E36969E0022A02D11868036A64E0032A72
:107C20006CD119684B6A5FE0002C3ED1598800295D
:107C300064D1586820F47F42B2F5003F5ED11C78D1
:107C400014F07F0004D19888002800F0AE8055E041
:107C500001280CD1394A58791468A2699047002844
:107C60004CD12B68997A002940F09F8046E0022889
:107C700044D15B7903F00F014FEA810202F18044A5
:107C800004F5B840304C0268207813F0800F14BF20
:107C900002F0300202F4405281422FD213F0700FF2
:107CA0002CD1002A40F0818028E0082C03D11978DB
:107CB0004A067CD022E00A2C20D1187800F07F01FF
:107CC00001291BD19C7ACCB15988B9B95A6822F4E0
:107CD0007F40B0F5803F11D1184C587922689469E3
:107CE000A047002865D009E043B11348002401688B
:107CF00020464C828B61984720460AE00F4A0E4C82
:107D0000116823680A6958789047032801D12368CD
:107D100006E0094B4FF6FF711B681A8A8A4201D1AF
:107D2000092103E0022800D082B90821197239E044
:107D3000505C004004300020A41900207C19002071
:107D400002300020AC1900206002002093F90000EE
:107D5000002821DAD98801910198824202D9019A3A
:107D60001A8211E08A420FD21349086890F82C1049
:107D70008A4201D2002105E092FBF1F001FB1022C2
:107D800012B901210D4801700B49086890F82C20A8
:107D90009A82FFF7B3FC05E003221A72084B4FF4F6
:107DA00040511980FFF710FE7CBD064B9DE7064B46
:107DB0009BE7064B99E700BF7C19002009190020BA
:107DC000AA19002061760008197600083D7600089F
:107DD00070B50D4B1C780023A34210D203F18052E2
:107DE00002F5B855A90043F400420E6842F0800540
:107DF00040F60F7232402A430A600133ECE7034930
:107E000040F08000086070BD600200204C5C0040C3
:107E100010B514490B680C461A7A022A01D0042ABC
:107E200004D1FFF76BFC2168087A13E0062A10D111
:107E30005878052809D11978480606D1D878FFF76F
:107E4000C7FF094B1A68106A804708490B689A688F
:107E500090470820034B1A681072BDE81040FFF7E6
:107E6000B3BD00BFA4190020A01900207C19002078
:107E70007047000008B5074A074B022013601872CC
:107E80000649074B0748084A0B6010601B68984773
:107E900008BD00BFA4190020841900207C1900200F
:107EA0000C0200203C020020A019002037B500235E
:107EB000ADF806305848594B026891B21204198047
:107EC00040F1A8801888564900F00F020A70002A75
:107ED0006ED1544C2568AAB2534D2A802988534A42
:107EE00001F03000108029884BF6BF7201F4405039
:107EF000288021680A4082F4005080F0200141F47B
:107F0000004242F0800020601B8803F010018AB21A
:107F10003AB9226848F60F7010402060FFF778FFEA
:107F20001DE0206883B2ADF80630BDF8061001F4FC
:107F3000006290B238B1216840F68F730B40236025
:107F4000FFF7CCFD0BE0BDF8063019B20029B1DA1D
:107F5000226840F68F7010402060FFF755FD2168C1
:107F60002A884BF6BF7302F480500B4081B209B1EE
:107F700083F480532C4A108800F400518AB20AB16D
:107F800083F400532948018801F0100291B209B12D
:107F900083F01003008800F0200291B209B183F051
:107FA000200343F400401F4A40F08001116031E09B
:107FB000930003F1804000F5B843196888B2ADF82A
:107FC0000600BDF8061008B2002809DA186840F665
:107FD0008F7101401960164B013A53F82200804717
:107FE000BDF8061001F0800293B2002B3FF462AF9F
:107FF0000B480278910001F1804303F5B84108680D
:1080000048F60F7303400B600A49013A51F8220009
:1080100080474FE73EBD00BF445C00400019002090
:1080200080190020005C0040AA190020AC19002033
:108030009C010020B801002030B501F1005101F58C
:10804000405301325900521000230230934209D0AC
:1080500010F8015C10F8024C44EA052421F8234092
:108060000133F2E730BD01F1005110B5013201F5E5
:108070004054521064000023934205D054F823105A
:1080800020F813100133F7E710BD00004FF6F87326
:10809000014A034013607047505C0040800000F1CB
:1080A000804202F5B842106848F68F130340194326
:1080B00011607047800000F1804202F5B8421068FC
:1080C00048F6BF73034001F0100080B208B99BB2BC
:1080D00001E083F0100301F0200188B208B183F0C1
:1080E000200343F4004141F080001060704780009D
:1080F00000F1804202F5B84210684BF68F730340DE
:1081000001F4805080B208B99BB201E083F480533F
:1081100001F4005188B208B183F4005343F40041E4
:1081200041F0800010607047800000F1804202F54D
:10813000B840016848F6BF730B4083F0300242F448
:10814000004141F0800303607047800000F18042ED
:1081500002F5B84001684BF68F730B4083F4405230
:1081600042F4004141F0800303607047800000F159
:10817000804202F5B840016840F60F630B4043F4BB
:10818000004242F0800101607047800000F18043AE
:1081900003F5B8400268510408D5016840F60F7332
:1081A0000B4043F4404242F0800101607047800080
:1081B00000F1804303F5B8431A68500608D51968E2
:1081C00040F60F70084040F4004242F0C0011960D0
:1081D00070470000064B49081A6893B203EBC000D1
:1081E00000F1005202F5405358004A000260704707
:1081F000505C0040054B49081A6893B2044A03EBEF
:10820000C000831858004A0002607047505C00406C
:1082100004300020054B19688AB202EBC00000F15F
:10822000005303F540514A0010887047505C0040ED
:10823000044B1968044B8AB202EBC000C1184A0013
:1082400010887047505C004004300020044B1A68CE
:1082500093B2044A03EBC0008318580001607047D2
:10826000505C0040023000200C4B1A6893B20C4A5C
:1082700003EBC00083185A003E2908D94B09C906F0
:1082800001D1581E83B2990241F4004104E04B0829
:10829000C80748BF0133990211607047505C004025
:1082A00006300020054B1968054B8AB202EBC0006E
:1082B000C1184A0010688305980D7047505C004053
:1082C00006300020C3B2000A40EA032070470000D5
:1082D000044B00201860044A044B4FF43F411180C6
:1082E00019607047445C0040A8190020405C0040C1
:1082F00040F0BF60024B40F40031D960704700BFCE
:1083000000ED00E0C37810B503B3164CE168CB4331
:10831000C3F302244178C4F1040201FA02F10F22EE
:1083200022FA04F28478037822400A43110103F10F
:108330006043CAB203F5614181F80023007801224D
:1083400000F01F03410902FA03F007E00078012260
:1083500000F01F03410902FA03F02031024B43F8F9
:10836000210010BD00ED00E000E100E021F06041DF
:1083700021F07F02014B10439860704700ED00E050
:1083800008B5134B984207D14FF40070012100F05B
:1083900061FA4FF4007014E00E49884207D14FF49F
:1083A0008060012100F056FA4FF4806009E00A4A2B
:1083B00090420BD14FF40040012100F04BFA4FF4F2
:1083C00000400021BDE8084000F044BA08BD00BFED
:1083D0000024014000280140003C0140426810B5E3
:1083E00022F470230A6823F4807444EA02030C79AF
:1083F00043EA04224260CB688A6884681A43084BC7
:10840000234013434A7943EA42038360097CC26AEA
:108410004B1E22F47002D9B242EA0152C26210BD70
:10842000FDF7F1FF836811B143F0010101E023F092
:10843000010181607047836843F0080181607047E3
:108440008068C0F3C0007047836843F00401816016
:1084500070478068C0F380007047836811B143F4AF
:10846000A00101E023F4A00181607047092970B5E3
:108470004FF003040CD94C4307251E3C05FA04F5C4
:1084800003FA04F3C66826EA05052B43C3600BE034
:108490004C43072505FA04F503FA04F3066926EAB6
:1084A000050545EA03040461062A4FF005030DD8CB
:1084B000013A53431F2202FA03F201FA03F1446B1B
:1084C00024EA020242EA0103436370BD0C2A0DD87C
:1084D00053431F22233B02FA03F201FA03F1046B18
:1084E00024EA020242EA0103036370BD53431F22E0
:1084F000413B02FA03F201FA03F1C46A24EA0202E0
:108500001143C16270BDC06C80B2704703681942EC
:108510000CBF002001207047837910B5002B29D0B3
:108520001A4B01681C68CA4314401C605C682240F6
:108530005A60027902F1804404F5823214682143C2
:10854000116002689C68D1430C409C60DC684079F3
:1085500021401028D96006D1986810439860D968E6
:108560000A43DA6010BD00F1804303F582331968D5
:108570000A4308E00179006801F1804202F5823384
:108580001A6822EA00021A6010BD00BF0004014010
:10859000014B5861704700BF00040140064B1A6848
:1085A000596910EA010304D010420CBF00200120D9
:1085B00070471846704700BF00040140014B5861E6
:1085C000704700BF00040140CB78F0B5DA0648BF21
:1085D0008A78098803F00F0548BF154311F0FF0F93
:1085E0001ED004680022012707FA02F707EA0106F5
:1085F000BE4211D197004FF00F0C0CFA07FC05FAA0
:1086000007F724EA0C04282B44EA070401D1466149
:1086100002E0482B08BF06610132082AE3D104605A
:10862000FF2920D94468002202F10806012707FA31
:1086300006F707EA0106BE4211D197004FF00F0C72
:108640000CFA07FC05FA07F724EA0C04282B44EA85
:10865000070401D1466102E0482B08BF06610132E0
:10866000082AE1D14460F0BD836819420CBF0020A4
:108670000120704701617047416170470028174B26
:1086800030B500F44014B4BFDB695B68B4F5401F3B
:1086900082B207D1114C23F07063656825F07065D4
:1086A00065600FE0C40205D5C0F30344032505FA55
:1086B00004F403E0440D240102FA04F423EA040361
:1086C00043F0706321B1410D090102FA01F2134335
:1086D00000280248B4BFC361436030BD00000140C0
:1086E00001F0030230B592000F2404FA02F400FAFC
:1086F00002F0074B8908023153F8215025EA04049F
:1087000043F8214053F82140044343F8214030BD51
:1087100000000140014B1860704700BF003000406E
:10872000014B5860704700BF00300040014B98601B
:10873000704700BF00300040024B4AF6AA221A6080
:10874000704700BF00300040024B4CF6CC421A602C
:10875000704700BF00300040014B1860704700BFF9
:1087600020000E42074B1A6842F004001860196896
:1087700041F002021A60044B186940F004011961CB
:1087800030BF70470070004000ED00E0034B5968B7
:1087900008420CBF00200120704700BF007000405D
:1087A000024B1A6842EA800018607047007000406F
:1087B000014B1860704700BFD8004242034B5A6813
:1087C00022F4404108435860704700BF0010024047
:1087D000064B002201281A701A7004D0042804D114
:1087E0000520187001E01870704770472010024093
:1087F000024B1A6A10431862704700BF0010024013
:10880000014B1860704700BF3C044242044B5A6958
:1088100009B1104301E022EA00005861704700BF2F
:1088200000100240044B9A6909B1104301E022EAAA
:1088300000009861704700BF00100240044BDA69E5
:1088400009B1104301E022EA0000D861704700BF7F
:1088500000100240044BDA6809B1104301E022EA3B
:108860000000D860704700BF001002404309012B90
:10887000074A01D1136803E0022B0CBF136A536A45
:1088800000F01F0023FA00F101F00100704700BF63
:1088900000100240024B5A6A42F0807058627047E2
:1088A00000100240044B1A8892B209B1104301E053
:1088B00022EA00001880704700280040034B9A8885
:1088C00090B240F010019980704700BF002800402E
:1088D000034A938823F0100001040B0C9380704727
:1088E0000028004010B50446FFF7E8FF044BC4F32E
:1088F0000342A4B21A819C81BDE81040FFF7E8BF93
:1089000000280040034B988800F020018AB2002A1A
:10891000F8D0704700280040074A938823F00800E9
:1089200001040B0C9380044A908800F008018BB27C
:10893000002BF8D0704700BF00280040074B9A88F2
:108940001B8891B210EA030206D0084010F0FF0F16
:108950000CBF0020012070471046704700280040DF
:10896000034B9A8891B221EA00009880704700BFBB
:10897000002800400B8810B54C88028823438C885F
:1089800002F441522343CC8823430C8923434C896E
:1089900023438C892343CC89098A23431A4393B206
:1089A0000380828B22F400631A04130C83830182F8
:1089B00010BD038819B199B241F0400303E023F0E0
:1089C00040010A04130C0380704783889BB20AB1EC
:1089D000194301E023EA01018180704781817047DA
:1089E000808980B27047038919420CBF00200120A2
:1089F00070470000224A038890429BB212D002F5D1
:108A0000006290420ED0B0F1804F0BD0A2F59832A8
:108A1000904207D002F58062904203D002F5806256
:108A2000904203D14A8823F070031343154A9042C1
:108A300008D002F58062904204D023F44073CA88C3
:108A40009BB2134303808B880A8883850C4B028575
:108A500098420FD003F5006290420BD002F54063BC
:108A6000984207D003F58062904203D002F58063FC
:108A7000984201D1097A018601228282704700BFA3
:108A8000002C014000100040038C70B523F001025F
:108A90001404250C0584068C8388028B9CB222F07A
:108AA00073052B040D881A0C26F0020633042A43A2
:108AB0004E880D891B0C3543ADB22B43134DA84294
:108AC0000FD005F50065A8420BD005F54065A8421A
:108AD00007D005F58065A84203D005F58065A8425A
:108AE0000ED123F008064B898D881E4326F004031F
:108AF0002B43CE898D8924F440743543ADB22C4389
:108B0000C988848002838186038470BD002C014063
:108B1000038C30B523F010021404250C0584038C5B
:108B20008288048B23F0200324F4E6452C040D886E
:108B3000240C44EA05241D042B0C0D8992B243EA4F
:108B400005134D88A4B243EA0513124D9BB2A84207
:108B500003D005F50065A84215D14D8923F08003A7
:108B60009BB243EA05134FF6BF751D408B8822F474
:108B7000406245EA0315ABB28D8942EA8502CD8990
:108B800042EA850292B2C988828004830187038405
:108B900030BD00BF002C0140038C30B523F480723F
:108BA0001404250C0584038C8288848B23F40073C1
:108BB00024F073052C040D88240C2C431D042B0C6D
:108BC0000D8992B243EA05234D8843EA0523124DED
:108BD0009BB2A84203D005F50065A84215D14D8986
:108BE00023F400639BB243EA05234FF6FF351D4093
:108BF0008B8822F4405245EA0325ABB28D8942EAC4
:108C00000512CD8942EA051292B2C9888280848316
:108C10008187038430BD00BF002C0140038C30B538
:108C200023F480521404250C0584038C8288858BE0
:108C300094B225F4E64215042A0C0D8823F400535F
:108C400042EA05221D042B0C0D8992B243EA05333A
:108C50004D8843EA05330A4D9BB2A84203D005F57F
:108C60000065A84205D18D8924F4804444EA851426
:108C7000A4B2C98884808283A0F84010038430BDE8
:108C8000002C014000214FF6FF7383800180C180DA
:108C90004180017270470023038043808380C3803A
:108CA000038143818381C3817047038819B199B2DD
:108CB00041F0010303E023F001010A04130C0380D7
:108CC0007047B0F8443029B16FEA43436FEA53412B
:108CD0008AB201E059044A0CA0F844207047838905
:108CE0009BB20AB1194301E023EA01018181704777
:108CF000038819B199B241F0800303E023F08001A9
:108D00000A04130C03807047038B23F0080213043A
:108D10001A0C114301837047038B23F40062130480
:108D20001A0C42EA01218BB203837047838B23F034
:108D3000080213041A0C114381837047838B23F4B8
:108D4000006213041A0C42EA01218BB2838370473C
:108D5000038A828911EA030092B203D011420CBF48
:108D6000002001207047C9438AB202827047C905BA
:108D7000CA0D828070478088C105C80D704703887E
:108D800019420CBF002001207047000008B5064BB7
:108D900000221860054906489A601961DA80DA6095
:108DA0009A80036A984708BDB0190020C41D0020AE
:108DB000E022002008B5044B1A690AB100201861AE
:108DC00002494B6A984708BDB0190020E0220020F4
:108DD00062B6704708B572B600F05CFE034B022223
:108DE00018699A6019680530884708BDB0190020D5
:108DF00070B50646002014460D4600F03BFE012EDD
:108E0000A4B207D130462946224600F0BBFD00201F
:108E1000124907E0124B01201969224600F0B2FD09
:108E200000202946224600F0ADFD0E480221012215
:108E300003F0C1F9012000F01DFE0A4803F0C3F958
:108E40000028FAD1084803F0BEF90028FAD10748F3
:108E50008021FFF7C8FD0028F9D170BD6402002011
:108E6000B019002058000240440002400038004081
:108E700003460A4601201946FFF7BABF70B50646F9
:108E8000002014460D4600F0F5FD012EA4B207D1D6
:108E900030462946224600F075FD0020104907E0C3
:108EA000104B01201969224600F06CFD0020294674
:108EB000224600F067FD012000F0DCFD0A4803F0C7
:108EC00082F90028FAD1094803F07DF90028FAD187
:108ED00007488021FFF787FD0028F9D170BD00BF4A
:108EE00064020020B01900205800024044000240F3
:108EF0000038004003460A4600201946FFF7BEBF6F
:108F000038B504460D4600F0E1FE0020214604225B
:108F1000FFF7B4FF0020211D2A1FFFF7AFFF034B0F
:108F200002229A6000F0B6FD002038BDB019002082
:108F3000F8B501F00106044686F001000D18012382
:108F400000262370C5F307221B4BE6702671627062
:108F5000A57005319D68081886B215B99A68012A6E
:108F6000FCD19968144D012907D120463146FFF7FD
:108F7000C7FFA8680228FCD11CE0AF68022FFCD113
:108F80000E488021FFF72FFD0028F9D10C4DE8692C
:108F900080472F460028F9D0074D0323AB60EC60D3
:108FA000AE8000F093FEFA6990470028FBD0A968D4
:108FB0000229FCD10020F8BDB01900200038004083
:108FC000E022002070B5184E35696B79022B08D06D
:108FD000042B25D1287A441E14F0010F18BF044633
:108FE00014E0681D032101F077FAB0F5806F0446A4
:108FF00008DB05F10A004FF480610724FFF738FF12
:10900000B4600EE0C30701D4441C00E024B105F1B4
:109010000A00A1B2FFF72CFF034908228A6000E092
:109020000024204670BD00BFB0190020024B012073
:1090300019690A22FFF7DCBEB019002008B5FFF756
:10904000C1FF18B9BDE80840FFF7C4BE08BD000065
:1090500070B5364C4FF40030266903F0B7F805467A
:109060004FF4005003F0B2F8A368062B0BD1002D8B
:109070005BD0002859D04FF4083003F0B5F8BDE8B4
:109080007040FFF7DBBFA16807291BD100284CD037
:109090004FF4083003F0A8F80321701D01F01CFA0A
:1090A000A0F58064A1B2214CCA0758BFA0F2FF31DD
:1090B000206958BF89B200F20A40FFF7D9FE0823A1
:1090C000A36070BDA268082A09D100282DD04FF4F2
:1090D000083003F089F8BDE87040FFF77BBEA06858
:1090E000052811D1002D20D011488021FFF77BFCED
:1090F0000028F9D14FF4083003F076F800F0CAFCEC
:109100000A4A0221916070BDA368042B0DD165B19C
:10911000A088E2680521A0F58063A16002F5806067
:1091200099B2BDE87040FFF7E5BE70BDB0190020F0
:109130000038004008B5174BD8698047002827D170
:10914000154B9A6812B90120986008BD99680229E8
:1091500007D106229A6000F0B9FDBDE80840FFF78C
:1091600065BF9A68032A13D19A88B2F5806F06D832
:1091700005219960D968BDE80840FFF739BE042091
:109180009860D8684FF48061BDE80840FFF7B2BE30
:1091900008BD00BFE0220020B0190020BFF34F8FB0
:1091A000054A064BD16801F4E06040EA0301D16052
:1091B000BFF34F8FFEE700BF00ED00E00400FA05AB
:1091C0004FF44070FFF794B8094B4FF47A701A6867
:1091D000084BB2FBF0F14A1E5A60074AF02100200A
:1091E00082F8231098600720186082F823107047D7
:1091F000B802002010E000E000ED00E0024B186033
:109200001A68002AFCD17047D821002030B54FF4ED
:10921000003085B0FFF7D2F908204FF40033002565
:1092200001248DF80D00684402938DF80C508DF8E0
:109230000E40FFF771F9032101A88DF804108DF895
:1092400005108DF806508DF80740FFF75BF80423F2
:1092500029220DEB03008DF804208DF805308DF8E0
:1092600006508DF80740FFF74DF80220FFF78EFA01
:1092700050B10220FFF794FAFFF74EFB24204FF67F
:10928000FF7102F0D1FE27E0242002F0DBFE4AF25B
:10929000A551884201D1FFF765FA0120FFF798FA3E
:1092A0004120FFF7E3FA0028FAD04FF48070FFF76F
:1092B0009FFA0120FFF7A4FAFFF72EFBFFF722FB2E
:1092C00003200121FFF7EEFAFFF71CFB47F6FF70C2
:1092D000FFF708FBFFF716FB05B030BD10B50446DD
:1092E00045F25550FFF716FA0620FFF719FA42F239
:1092F0001070844228BF044628216143C1F30F2027
:10930000FFF714FAFFF718FABDE81040FFF71CBA90
:10931000082812D8012907D10A4B0B4A53F820100C
:1093200032F8100008610AE049B9064B064A53F8C2
:10933000201032F81000486101E0FF2300E0002314
:1093400058B270476C020020F41E010837B50E4D6C
:10935000044605EB800318690121FFF763FA35F82D
:1093600014000A4B1021ADF804008DF807100322F9
:1093700053F8240001A98DF80620FFF725F92046AF
:109380000021FFF7C5FF3EBDF41E01086C0200205E
:1093900070B5012188B04FF40060FFF743FA314BFC
:1093A00042F210701C686326B4FBF0F14A1E2E4C8A
:1093B00001A895B2FFF766FC01A8FFF763FC01A9BD
:1093C000ADF8045020460025ADF80860ADF80A500D
:1093D000ADF80650FFF70EFB04A8FFF75CFC022077
:1093E00060230126ADF8180004A92046ADF810301E
:1093F000ADF81260ADF81650ADF81C50FFF744FB05
:1094000020462946FFF780FC204604A9FFF780FB91
:1094100020462946FFF780FC204604A9FFF7BCFB45
:1094200020462946FFF782FC204604A9ADF81050DB
:10943000ADF81260ADF81650ADF81850FFF7EEFB1E
:1094400020462946FFF77AFC20463146FFF750FCBC
:1094500020463146FFF729FC20463146FFF731FC14
:1094600008B070BDB8020020002C0140104930B592
:109470008C8DC0F30743A2B2551C5D43FF22B5FBA0
:10948000F2F40C4BA5B29D808C8DC0F30725A4B2DD
:1094900001346C43B4FBF2F4A4B2DC80898DC0B219
:1094A00089B201314843B0FBF2F291B2598030BD2C
:1094B000002C01400C190020104930B58C8DC0F3F0
:1094C0000743A2B2551C5D43FF22B5FBF2F40C4BDF
:1094D000A5B29D818C8DC0F30725A4B201346C43E5
:1094E000B4FBF2F4A4B2DC81898DC0B289B201313F
:1094F0004843B0FBF2F291B2598130BD002C0140DB
:109500000C19002037B50F4D044605EB8003186B8E
:10951000012105EB4405FFF785F9B5F84000ADF8EA
:1095200004000CB9102100E01821074B8DF807103A
:1095300003EB84040322206A01A98DF80620FFF7BB
:1095400043F83EBDF41E01086C02002010B1E7286C
:109550001BD105E00D4A4FF40051106A01617047BC
:109560000B4B0C4A197C39B9988881B21187D8887D
:1095700081B291875B8806E0988981B21187D8898A
:1095800081B291875B899BB2938670476C02002001
:109590000C190020002C0140024B0022E7201A7415
:1095A000FFF7D4BF0C19002038B1E7280BD1064BC8
:1095B00000221A879A879A8605E004484FF40053E0
:1095C000016A4B6170477047002C01406C0200201B
:1095D000024B0122E7201A74FFF7E6BF0C190020A6
:1095E00010B1E72827D106E0134B196AC86880F448
:1095F0000052CA607047114A114B117C61B9198F32
:109600009088414088B21887998FD088414088B2AD
:109610009887998E52880BE0198F9089414088B2C3
:109620001887998FD089414088B29887998E52893E
:109630004A4092B29A8670476C0200200C190020B2
:10964000002C0140E7287FD14049414B087C414A2A
:1096500048BB898888B208B918700DE0118F88B2AC
:1096600008B9012007E0118F928D88B291B24A1C8F
:10967000904201D1FF201870344B3748D98889B205
:1096800069B1344A938F99B209B9012107E0938FE8
:10969000928D99B293B25A1C914201D1FF2101706F
:1096A0002A48438828E0898988B208B918700DE0F3
:1096B000118F88B208B9012007E0118F928D88B20E
:1096C00091B24A1C904201D1FF2018701F4B2248D2
:1096D000D98989B269B11F4A938F99B209B9012119
:1096E00007E0938F928D99B293B25A1C914201D1A7
:1096F000FF2101701548438998B2184B68B1154A8B
:10970000918E88B208B9012007E0918E928D88B2BF
:1097100091B24A1C904201D1FF2018700D4B0C49A8
:109720001A8F91F90000821891B20B4A198792F9A9
:109730000010988F081882B208499A8791F9002082
:10974000988E101881B29986704700BF0C190020BE
:10975000E4210020002C0140D4210020C42100205D
:1097600073B5104C0E4604EB400494F84C100546BB
:1097700094F84800FEF7B4FFB4F850402046FEF7D6
:1097800007FF09480023451995F8301068460094F2
:109790008DF804308DF805108DF80660FEF7BCFEDC
:1097A0007CBD00BFF41E01086C020020F7B5224EFC
:1097B0008700F3190546586D0C4640F00100012161
:1097C000FFF730F81D4B06EB45065A1992F8321098
:1097D000B6F85C0002AADF198DF8031022F8080D14
:1097E0006946786BFEF7F0FE012C24D1102100228F
:1097F00013481B27FFF773FA05238DF8047001A89F
:1098000000278DF805308DF806708DF80740FEF7BB
:1098100079FDB6F8601006208DF8050001A88DF8D6
:1098200004108DF806708DF80740FEF76BFD284692
:109830002146FFF795FFFEBDF41E01086C020020D3
:10984000002C014010B501214FF0C050FEF7F6FF8B
:109850000120FEF781FFFFF7B3FC01200146FEF770
:10986000E1FF0024E0B20134FFF770FD082CF9D1CC
:10987000FFF78EFD0020FFF745FE0120FFF742FEB7
:109880000220FFF73FFE0320FFF73CFE00200121EE
:10989000BDE81040FFF78ABF054A064B02EB800186
:1098A00003EB4002486BB2F85C10FEF7DDBE00BF70
:1098B0006C020020F41E0108024B03EB4000418AB9
:1098C00088B270470C190020024B002203EB4000C5
:1098D000428270470C19002030B5082087B0012162
:1098E000FEF7A0FF254C4FF480400121FEF7A6FFB4
:1098F00018204FF4005301258DF8030069462046D7
:10990000ADF800308DF80250FEF75EFE4FF40041D6
:109910002046ADF800106946FEF756FE4FF480422F
:10992000042320466946ADF800208DF80330FEF789
:109930004BFE0020ADF804004FF48271ADF8080032
:10994000ADF80A00ADF81200A4F5544407204FF416
:1099500000722023ADF80610ADF8140001A92046CE
:10996000ADF80E20ADF81030ADF80C50FFF702F84E
:109970002188034B8AB21A8007B030BD000C014029
:10998000E821002070B5044601208CB00E46014647
:109990001546FEF73BFF124B002080224FF440514A
:1099A000012C019302960590069207900890099069
:1099B0000A910B9006D103900A48049502F058FBD7
:1099C000084807E04CB9102307480393049502F0B8
:1099D0004FFB054801A902F0C3FB0CB070BD00BFEE
:1099E0000C380040440002405800024073B50F2379
:1099F0000124002501A88DF804308DF805508DF85C
:109A00000650174E8DF80740FEF77CFCFFF764FF09
:109A100020462A461349FFF7B5FF28462A46124931
:109A2000124DFFF7AFFF30460221224602F0C3FB82
:109A3000284621462246FEF7C8FF22462846022134
:109A4000FEF7C3FF28462146FEF7B3FF214608482C
:109A500002F0A6FB3046214602F0A2FB7CBD00BF0F
:109A600058000240C41D0020C419002000380040E6
:109A70004400024010B504462146044802F090FB21
:109A800003482146BDE8104002F08ABB4400024072
:109A90005800024002484FF48051FEF7EBBD00BF72
:109AA000000C014008B54FF400610248FEF7DCFDF0
:109AB00008BD00BF000C014030B5092085B0012170
:109AC000FEF7B0FE4FF400644823694614488DF851
:109AD0000330ADF80040FEF777FD0B210120FEF7C3
:109AE000FFFD2046FEF754FD0C20029400250124C2
:109AF0008DF80D0002A88DF80C508DF80E40FEF781
:109B00000BFD282101A88DF804108DF805408DF873
:109B100006508DF80740FEF7F5FB05B030BD00BFDD
:109B2000000C01401FB52823002401A88DF8043043
:109B30008DF80740FEF7E6FB4FF40060029002A8A4
:109B40008DF80E40FEF7E8FC1FBD000020B105486F
:109B50004FF48071FEF78EBD02484FF48071FEF71E
:109B60008BBD00BF000C014013B5082001210F4C34
:109B7000FEF758FE032010214FF480538DF80600A5
:109B80008DF80710204601A9ADF80430FEF71CFD42
:109B9000FFF780FF4FF48072204601A9ADF8042042
:109BA000FEF712FD0020FFF7D1FF1CBD000C0140A5
:109BB00010B50B4C238823F0400001040A0C2280CE
:109BC000FFF768FF074B188881B2074841F0400251
:109BD0004FF400712280BDE81040FEF74DBD00BF7C
:109BE00000380040E6210020000C014002484FF4FC
:109BF0000071FEF73FBD00BF000C014070B50820AA
:109C000086B00121FEF70EFE2E4C01214FF480405C
:109C1000FEF714FE18204FF4005301258DF80300C1
:109C200069462046ADF800308DF80250FEF7CCFCB6
:109C30004FF40041ADF8001020466946FEF7C4FC21
:109C400004264FF4804220466946ADF800208DF886
:109C50000360FEF7B9FC1020032369464FF4007639
:109C60008DF8030020468DF80230A4F55444ADF879
:109C70000060FEF7A9FCFFF7B9FF002107202023B1
:109C8000ADF804104FF48272ADF80810ADF80A1068
:109C9000ADF80C10ADF81210ADF8140001A9204673
:109CA000ADF80620ADF81030ADF80E60FEF762FE9C
:109CB0002188054B8AB2204629461A80FEF779FE94
:109CC00006B070BD000C0140E621002010B50B4C21
:109CD000238823F0400001040A0C2280FFF786FF4E
:109CE000074B188881B2074841F040024FF4805179
:109CF0002280BDE81040FEF7BFBC00BF0038004026
:109D0000E8210020000C014007B508200121FEF7E2
:109D100089FD032014214FF480638DF806008DF82F
:109D20000710034801A9ADF80430FEF74DFC0EBD45
:109D3000000C0140002008B5FEF73AFD4FF400008A
:109D40000121BDE80840FEF779BD0000014B032268
:109D50001A6070473C190020044B05489A7A0AB1F2
:109D6000052100E001210160704700BF8419002037
:109D70003C19002007B5022014238DF805000021AE
:109D8000012201A88DF804308DF806108DF8072007
:109D9000FEF7B8FA0EBD000020B105484FF480610F
:109DA000FEF76ABC02484FF48061FEF763BC00BF57
:109DB000000C0140094B987D70B10949094B0A8894
:109DC00009489A870188094AD98710880849A3F861
:109DD00040000A88A3F84220704700BF0C190020F9
:109DE000004C00086C020020024C0008044C0008E3
:109DF000064C000810B5194B987D00282DD002F0B4
:109E0000FDF9342002F00EFA154802F053FA042846
:109E100022D1144C1248A18F02F030FA04281AD132
:109E20001148E18F02F02AFA042813D10F48B4F840
:109E3000401002F023FA04280BD10D48B4F8421068
:109E400002F01CFA042803D1BDE8104002F0E2B988
:109E5000FEE7FEE7FEE7FEE7FEE710BD0C19002077
:109E6000004C00086C020020024C0008044C000862
:109E7000064C000838B505464FF0FF10FFF7F6FA1C
:109E8000E720FFF763FB0C4B0024A3F84240FFF7E9
:109E9000B1FF0A4820228562C2610462074C216A30
:109EA000E369994207D205EB013000F0F2F9206A2C
:109EB000421C2262F2E738BD6C0200200C1900201F
:109EC0002DE9F04106460F464FEA9108002444452B
:109ED00016D056F824201748174D0270C2F30721F8
:109EE000C2F30743EA62120E4170C270A96A0422EB
:109EF000837000F065F9A86A0134011DA962E6E7E4
:109F0000BB0711D056F824300A480B4AC3F3072187
:109F10004170C3F30741D362037081701B0E916AD5
:109F20000422C37000F04CF9E720BDE8F041FFF7D0
:109F300057BB00BFE02100200C19002008B5074BDB
:109F40000524A3F84040FFF755FF2820214602F0E2
:109F50006BF80020FFF720FFFFF720F96C020020CC
:109F60004FF480514FF4937200F07DB84FF40051DC
:109F70004FF4197200F077B8034BB3F84200421E59
:109F8000514251EB020070476C020020024B00224C
:109F9000A3F84220FFF72EBF6C02002070B50E46DA
:109FA000054602F05FF8B3082C461A46013A04341D
:109FB000511C114905D054F8040C90FAA0F0086027
:109FC000F4E705EB8303086890FAA0F106F00306B6
:109FD0009E19B3420ED013F8014B0822614011F0D4
:109FE000010F4FEA510416BF044921466140013A6E
:109FF000F5D1EEE7C84370BD003002402083B8EDD4
:10A0000010B504460A480221FEF7EDFC0028F9D0FD
:10A0100007482146FEF7E2FC05480121FEF7E3FC74
:10A020000028F9D00248FEF7DBFCC0B210BD00BF2B
:10A030000038004070B5FFF7BBFD9F20FFF7E0FF41
:10A04000FF20FFF7DDFF0446FF20FFF7D9FF05469D
:10A05000FF20FFF7D5FF2D020646FFF7C7FD45EAB3
:10A060000440304370BD70B50C4615460646FFF7F8
:10A070009FFD0320FFF7C4FFC4F30740FFF7C0FFB5
:10A08000C4F30720FFF7BCFFE0B2FFF7B9FF3DB113
:10A09000FF20FFF7B5FF013D06F8010BADB2F6E773
:10A0A000BDE87040FFF7A2BD08B5FFF781FD0620AF
:10A0B000FFF7A6FFBDE80840FFF798BD08B5FFF71A
:10A0C00077FD0420FFF79CFFBDE80840FFF78EBD39
:10A0D00008B5FFF793FDFFF7F1FFFFF7ABFF104B5C
:10A0E000984202D04C3B984219D1FFF761FD802085
:10A0F000FFF786FFFFF77AFDFFF75AFD5020FFF7C5
:10A100007FFFFFF773FDFFF753FD0120FFF778FF97
:10A110000020FFF775FFBDE80840FFF767BD08BDE9
:10A120008D25BF0008B5FFF743FD0520FFF768FF49
:10A13000FF20FFF765FFC307FAD4BDE80840FFF72B
:10A1400055BD70B50D4616460446FFF7ADFFFFF747
:10A150002FFDAD20FFF754FFC5F30740FFF750FF79
:10A16000C5F30720FFF74CFFE8B2FFF749FF20785F
:10A17000FFF746FF6078FFF743FFFFF737FDFFF774
:10A18000D1FFA51C2C4602342B1BF01881B289B1DB
:10A19000FFF70EFDAD20FFF733FF14F8020CFFF7B9
:10A1A0002FFF14F8010CFFF72BFFFFF71FFDFFF740
:10A1B000B9FFE8E7FFF71AFDBDE87040FFF77EBF83
:10A1C0002DE9F84F11F0FF0906460D4617464FEAF4
:10A1D00012381DD1B8F1000F03D1304629463A4656
:10A1E00051E004465FFA89F2A81B904504EB000198
:10A1F00009D020464FF48052FFF7A3FF04F58054A6
:10A2000009F10109EEE74FEA08317018491939E000
:10A21000C9F10004E4B2B8F1000F0DD1D2B2A242EC
:10A22000DBD902EB09035FFA83F92246FFF789FFC6
:10A23000301961194A4626E0171B2246FFF781FFB5
:10A24000BFB24FEA1739651934195FFA89FB5FFA13
:10A2500087FAA0460026F3B2291B9B45414408D04B
:10A2600040464FF48052FFF76CFF08F580580136E6
:10A27000F1E74FEA093904EB090009EB0501BAF1EE
:10A28000000F04D0FAB2BDE8F84FFFF75ABFBDE89F
:10A29000F88F10B50446FFF707FFFFF789FC202071
:10A2A000FFF7AEFEC4F30740FFF7AAFEC4F3072092
:10A2B000FFF7A6FEE0B2FFF7A3FEFFF797FCBDE8AD
:10A2C0001040FFF72FBF00003A4B82B01A6842F0EF
:10A2D000010018605968384A0A405A60186820F02E
:10A2E000847121F480321A60186820F4802119608A
:10A2F0005A684FF41F0122F4FE0000225860996052
:10A3000000920192186840F480311960294B1A6854
:10A3100002F40030019000994A1C0092019818B98B
:10A320000099B1F5A06FF1D11B6813F4003218BF8A
:10A33000012201920198012805D0204B4FF00062C4
:10A340009A6002B070471E490B6843F010020A6021
:10A35000086820F003030B600A68A1F5805342F0FF
:10A3600002000860596859605A685A60586840F499
:10A37000806159605A6822F47C105860596841F431
:10A38000E8125A60186840F0807119601868094A2C
:10A390008101FBD5536823F003015160506840F000
:10A3A00002035360034A516801F00C000828F9D1F8
:10A3B000C3E700BF001002400000FFF800ED00E01E
:10A3C0000020024008B50120FFF7E6FC064B0749D4
:10A3D000012200201A601860086005494FF4E0521D
:10A3E0000A801A6008BD00BF405C0040445C004029
:10A3F000A8190020064B1A6890B240F008011960B5
:10A400001A6890B240F004011960FFF79FBC00BFCA
:10A41000405C004010B5064C4FF6FB7322681340B9
:10A420002360FFF799FC4FF43F40206010BD00BF50
:10A43000405C00401F4B072810B518BF18701A78F1
:10A440001C4C052A33D8DFE802F003070C10182350
:10A45000FFF7E0FF062202E0FFF7DCFF0422227094
:10A4600010BD02215970032022E059784A1ED0B253
:10A4700058705B78EBB9042017E00F4B186881B275
:10A4800041F010021A600A2005232370607010BD8D
:10A490005878411ECAB25A705B7853B906484FF6D5
:10A4A000EF7201680A4002600620024B00E00620BD
:10A4B000187010BDEA210020405C004001700B0ABA
:10A4C0000A0C090E43708270C1700430704701702D
:10A4D000090A41700230704743185A78405C00EB1B
:10A4E000022188B2704710B543189A78DC78415C35
:10A4F000120402EB04625878521802EB002010BDDF
:10A5000073B544790023022C01930FD0032C19D08A
:10A51000012C2BD1164D28692E4620B1296901A89E
:10A5200088470246B8B9B16801201BE0104DE868C1
:10A530002E4620B1E96801A88847024658B9B1689B
:10A5400002200FE00A4D6A692E464AB16B6901A8E4
:10A550009847024620B1A9682046BDF8043003E0C0
:10A56000B16803200022134600F05EFB7CBD00BFF3
:10A57000E0220020072810B50CD801290AD80124B0
:10A5800004FA00F401FA00F0034B1A6822EA04020C
:10A5900002431A6010BD00BFD0020020F0B50121B7
:10A5A00087B00546FFF798FF00F48043044698B251
:10A5B00050B3B4F5824F27D128460521FFF78CFF11
:10A5C0000026074607353446BE4208D028460221F9
:10A5D000FFF782FF013624180435B6B2F4E7744B56
:10A5E000188E21188AB21A86D86B2418DC63D96BAE
:10A5F0009A6B914240F0CE8093F84000002800F022
:10A60000C9809B69992033E024F4FF4121F07F0247
:10A6100090B2002800F09B8048F2100294422AD0A9
:10A620000CD8B4F5004F40F2C08048F202039C42BF
:10A6300017D9991C8C4240F0B88012E048F2800093
:10A6400084420ED005D848F24002944240F0AD80DA
:10A6500051E0B4F5024F04D0B4F5084F40F0A580A6
:10A660006CE053498869002800F094808B6920468B
:10A6700000210A4669E00023EA1851790DF8031019
:10A680000133042BF8D1687A2B7BAA7AE97A8DF80A
:10A6900004008DF807308DF805208DF8061005F1BF
:10A6A0000D00002306AAD218C15C0133042B02F866
:10A6B000101CF7D105F11100002306AAD218C15CC5
:10A6C0000133042B02F80C1CF7D105F1150000230F
:10A6D00000AAD218C15C0133042B1174F8D134499B
:10A6E00028798A698DF81400002A53D08B69204696
:10A6F0006946152229E0053500212846FFF7F3FEBB
:10A70000042100902846FFF7EEFE0821019028461C
:10A71000FFF7E9FE0C2102902846FFF7E4FE102126
:10A7200003902846FFF7DFFE214B0490996900292A
:10A7300030D09B6920466946142206E01C48826995
:10A7400042B38369691D20460122984722E041F205
:10A7500003039C4205D00C339C4202D0591E8C420C
:10A760001AD16C1D04212046FFF7BDFE39301CD1E3
:10A770002D790F480021C5622046FFF7B4FE042161
:10A7800005462046FFF7AFFE393003D128460121A8
:10A79000FFF7F0FE012009E0054A138899B28C42C8
:10A7A00004D0B4F5805FF5D100E0002007B0F0BD23
:10A7B000E022002038B50A4C638898B208B900201E
:10A7C00038BD606801780429F9D1FFF7E7FE012858
:10A7D0000546F4D100226280FEF7FAFA284638BD19
:10A7E000E02200202DE9F0470446884691460025E6
:10A7F000BC4B5A8890B20028FAD05E6831780429A0
:10A8000040F0728130460121FFF766FE0546304672
:10A81000FFF7C4FE002840F05C8141F20703771D7A
:10A820009D4253D85A1E954280F0AC8040F20220DF
:10A83000854200F0A78014D80C2D09D8082D80F08F
:10A84000A180002D00F04581062D40F29B80DDE0C7
:10A850000D2D00F0948040F20127BD4240F0398177
:10A860008DE041F20202954218D8B5F5805F00F202
:10A870008980B5F5017F40F2828040F207218D4248
:10A8800040F027813379002104F8013B3846FFF777
:10A890002AFE01462046FFF711FE1AE141F20400AC
:10A8A000854200F0898040F2A08038460021FFF701
:10A8B0001AFE042120603846FFF715FE6060083458
:10A8C00006F10D07224606F11D016EE041F211006E
:10A8D000854254D02CD841F20B02954252D01CD85C
:10A8E00041F209018D424DD000F28B8000213846A3
:10A8F000FFF7F9FD042120603846FFF7F4FD082139
:10A9000060603846FFF7EFFD0C21A0603846FFF786
:10A91000EAFD04F10C0AE060DAE041F20F00854242
:10A9200063D035D841F20D02954240F0D28043E029
:10A9300042F206018D4222D008D8B5F5005F40F200
:10A94000C88042F204039D4219D983E042F2080311
:10A950009D42C0F0BE80581C854210D944F20B02C3
:10A96000954240F0B6807179DFF878A13846AAF8B0
:10A9700030100121FFF7B0FDAAF83200A9E03779C5
:10A980002770A6E038460021FFF7ADFD2060A0E06B
:10A9900000213846FFF7A7FDA2464AF8040B042120
:10A9A0003846FFF7A0FD606092E057F8043B8F4205
:10A9B00042F8043BF9D18CE000213846FFF793FDC3
:10A9C000042120603846FFF78EFD0821606038467C
:10A9D000FFF789FD04F1080AA060E46814F1390367
:10A9E00076D10121FFF7C6FD72E000213846FFF75E
:10A9F0007AFD042120603846FFF775FD6060083459
:10AA000067E0337923713F68276062E038460021B0
:10AA1000FFF769FD042120603846FFF764FD082137
:10AA200060603846FFF758FD0A21A0603846FFF7FE
:10AA300053FDC4F80A000C3406F11107224606F152
:10AA4000350157F8043B8F4242F8043BF9D138886E
:10AA500010803EE00022B7187879A0540132042A11
:10AA6000F9D106F109070023F95CE0180133042B42
:10AA70000171F9D106F10D070020395C221801306F
:10AA800004281172F9D106F111070023F95CE218CC
:10AA90000133042B1173F9D106F115000022875CF4
:10AAA000A1180132042A0F74F9D106F1190000230C
:10AAB000C75CE1180133062B0F75F9D106F11F00B1
:10AAC0000021475C6218013120299776F9D100E016
:10AAD0005446044B188882B2954225D10021198032
