:020000040800F2
:10500000005000200D5100081F5C0008215C0008C2
:10501000235C0008255C0008275C000800000000F5
:10502000000000000000000000000000295C0008F3
:105030002B5C0008000000002D5C00082F5C0008BD
:10504000595100085951000859510008495E00089B
:105050005951000859510008855C0008A55C0008FA
:10506000C55C0008F95C0008195D0008595100088A
:10507000595100085951000859510008A55E00080F
:105080005951000859510008355C00085951000871
:10509000A95E00085951000859510008395D0008FF
:1050A000595100085951000859510008015E000883
:1050B000595100085951000859510008555C000821
:1050C000655C00085951000859510008755C0008DA
:1050D0005951000859510008455C00085951000811
:1050E000895D0008655E0008595100080000000055
:1050F00000000000000000000000000000000000B0
:0C51000000000000000000005FF808F153
:10510C00002100F004B80C4B5B58435004310B48A1
:10511C000B4B42189A42FFF4F6AF0A4A00F003B860
:10512C00002342F8043B084B9A42FFF4F9AF03F01A
:10513C0001FB00F089F870473C900008000000204B
:10514C00E8020020E8020020982A0020FFF7FEBFAA
:10515C0010B5044603F018FE21460246084803F039
:10516C0043FE50B9074B0720196881F00102D1B2F8
:10517C001A6000F0F1FB012010BD002010BD00BF33
:10518C002C900008E802002008B50A4B4FF416508A
:10519C001968884708484FF4165100F095FC072011
:1051AC00002100F021FB05480549BDE8084000F04E
:1051BC00DBB900BF70010020382000202F900008C0
:1051CC005D51000810B5104800F012FC002816DDE7
:1051DC000D4800F017FC0D4C0D4BC0B21969207135
:1051EC0088470A220848217900F00AFDA06020793E
:1051FC00612804D10748C321074A00F021FA322064
:10520C00BDE8104000F0F2BB38200020E80200207E
:10521C00700100202F9000082C90000810B501316F
:10522C00002393420ED0040F092C01D8303400E037
:10523C00373401F8014C01330024000101F8024B12
:10524C00DBB2EEE710BD000038B54FF000604FF454
:10525C00A04101F0CDFE01241F4B204821461C70BB
:10526C0001F082FF03F04CF802F056FD214640207D
:10527C0002F07CF86FF07F4002F0A0FEE72002F015
:10528C00E7FE1748174D047002F068FD7D2002F010
:10529C0091F810B12C7002F0A1F840F6B83002F081
:1052AC00C5FD03F0C5F903F01BFA2978012901D0DB
:1052BC000D4A72B90D4C0CB1FFF784FF0C4B1868FA
:1052CC0000B1804700F0F6F900F09EF900F014FAF6
:1052DC00F0E7FFF759FFEDE76E21002000043000E6
:1052EC003A210020E029002095510008D1510008F6
:1052FC0054040020304B31491A6870B5501C1860AA
:10530C000B6813B10A68501E08602D490B7823B145
:10531C002C4BEBB1AFF300801AE02B4C226812B18E
:10532C0021684B1E13E02948017889B9284B1A785B
:10533C0072B92848017859B9274E284D3378002B7B
:10534C0024D0E72002F0DCFE2878E8B11423236097
:10535C00002003F00FF840F6B732904205D9002038
:10536C0003F010F81949012008701D4B1A68B2F5AA
:10537C007A7F05D300221A60BDE8704001F052BF5D
:10538C001868411C196070BD0123E0E72A784AB106
:10539C004FF6FF7002F012FEE72002F059FE0122D8
:1053AC003270D5E7E72002F079FE0E48017809B19A
:1053BC003223CCE76423CAE7F8020020EC29002052
:1053CC006821002000000000E42900203421002086
:1053DC00392100203B2100203A21002038210020D7
:1053EC00F02900203621002008B5064B186003F088
:1053FC00C9F803F0DDF803F0FBF8BDE8084001F054
:10540C007BBB00BFE0010020074B1868052808D1C2
:10541C0006490A79012A04D188790B7AC11AC8B2D3
:10542C0070470020704700BF84210020F802002044
:10543C000D4B10B51868052813D10C4C2179012996
:10544C000FD1E2882389D01A012804D1002103202E
:10545C00217101F0BCFC2389E218591C907A21813E
:10546C0010BD4FF0FF3010BD84210020F802002049
:10547C00084B196805290BD1074BDA6C991881F880
:10548C005000501CB0F5807FD86401D10022DA6442
:10549C00704700BF84210020F802002070B5234A19
:1054AC0092F85031012B3FD0D2F85401B0F5807FE7
:1054BC0002D10021C2F85411D2F85431D26C1B48DD
:1054CC00934203D1002180F8501170BD8CBFC3F5FD
:1054DC008072C3EB0202154CC0F85821D4F8585115
:1054EC0099B2402D07D94033403DC4F85431C4F82B
:1054FC005851402606E0E8180023AEB2C4F8540117
:10550C00C4F858310A4A01255018C021324684F893
:10551C00505101F0D3FB2846314601F0D9FC284606
:10552C00BDE8704001F042BC70BD00BFF802002025
:10553C0048030020094B10B593E814000833186891
:10554C0010180AD008220649FFF768FE05492046C4
:10555C000422BDE81040FFF761BE10BDE8F7FF1F45
:10556C008E0100209E0100202DE9F047044689465B
:10557C00002942D0002840D0214BD3F82C630A2EAE
:10558C003BD00027B7421F4D4FF48C780FDA08FB45
:10559C0007F855F80810494507D105EB0802101D0E
:1055AC0021460C2203F020FC38B30137EAE708FB54
:1055BC0006F8A5F54C7A0AEB080708F11000002153
:1055CC004FF48072C7F83093281803F047FB05EBB3
:1055DC000801081D0C22002103F040FB20686168C3
:1055EC0007F54D7203C2A36800200136136087F8DB
:1055FC00440487F8450445F8046CBDE8F08700BF07
:10560C0054040020840700207FB50B4C00250B4B65
:10561C00D3F8600285420EDA617C49B1A27C002687
:10562C0066742AB168463146102203F017FBA67443
:10563C0001351434EBE77FBDB8060020540400207C
:10564C002DE9F84F1A4B8346D3F82CA389461646FE
:10565C000024544528DA2EB34FF48C756543144F4F
:10566C00594607F54C7808EB050004300C2203F082
:10567C00BBFBB8B9304603F087FB05F11001B0F560
:10568C00807F34BF02464FF4807208EB0100314634
:10569C0003F036FA7D19012085F8440485F8459409
:1056AC00BDE8F88F0134D4E70020BDE8F88F00BFC7
:1056BC005404002038B50E4C00250E4BD3F82C2387
:1056CC00954213DA94F8140160B14FF48C7202FB1A
:1056DC000533002184F8141103F5507021688847B4
:1056EC00C4F81001013504F58C74E6E738BD00BF31
:1056FC008407002054040020084B0022D3F8201EFD
:10570C00074B8A4209DA93F8100110B1002083F894
:10571C001001013203F21113F3E770475404002017
:10572C007812002070470000014608B5044802F0CA
:10573C0037F90348802102F03BF90028F9D008BD65
:10574C000044004010B5441E14F8010F10B1FFF7CF
:10575C00EBFFF9E710BD000008B5FFF7F3FF0248B7
:10576C00BDE80840FFF7EEBF37900008202108B5D0
:10577C00034802F01DF9003018BF012008BD00BF1E
:10578C000044004008B5024802F00EF908BD00BF05
:10579C000044004008B50448002102F0DBF8034B3C
:1057AC0000221A7008BD00BF00440040A41F002056
:1057BC00FFF75EBE10B5441E14F8010F10B1FFF7D1
:1057CC0057FEF9E710BD000008B5FFF7F3FF0248DC
:1057DC00BDE80840FFF7EEBF37900008FFF728BE82
:1057EC00FFF712BEFFF700BE14282DE9F341044663
:1057FC000E4675D8FF2973D000F004FA28B10D2C91
:10580C006ED00F2C6CD00E2C6AD000F0ADF908B114
:10581C00012C65D9334B1878012803D1A4F112015E
:10582C0001295DD9304D2701EA19304BEF5904207D
:10583C009F42B2F8048003D02D48874203D1082040
:10584C00012101F09FFDADF80480062E44D8DFE85D
:10585C0006F00411181F26313C00234A102002EBDD
:10586C00041403210023A3738DF807008DF8061090
:10587C00083431E004238DF8073005EB04140122C1
:10588C0029E048228DF8072005EB0414022222E0BF
:10589C0028218DF8071005EB041403221BE0124895
:1058AC00182203238DF807208DF8063000EB041422
:1058BC00042210E00C491C2303208DF807308DF8CE
:1058CC00060001EB0414052205E000218DF80710F9
:1058DC0005EB04140622A273384601A901F0EAFB79
:1058EC00BDE8FC81A41F002000000020000801403E
:1058FC00000C01401FB504460120014601F042FD99
:10590C004FF40030012101F049FD12200121FFF775
:10591C006BFF13200421FFF767FF00940C4C0C2045
:10592C000023ADF80A0069462046ADF80430ADF806
:10593C000630ADF80830ADF80C3001F0B3FF0121A2
:10594C00204602F007F8034901220A701FBD00BF70
:10595C0000440040A41F0020142870B504460E46D5
:10596C003ED8204B03EB0010817B012938D0022953
:10597C0036D0032934D0062932D0FF2930D000F09C
:10598C0041F930B10D2C2BD00F2C29D00E2C00D17D
:10599C0070BD00F0E9F810B1012C00D870BD124AAE
:1059AC001378012B03D1A4F11200012818D90D4D45
:1059BC0005EB04118A7B042A03D120460021FFF752
:1059CC0013FF012E05D124012A192859938803614C
:1059DC0070BD2EB9240128192B598188596170BDCD
:1059EC0070BD00BF00000020A41F002002F0AEB963
:1059FC00034B186C596C421A02F03F00704700BF01
:105A0C00A81F0020074B196C5A6C914207D0586C98
:105A1C00596C185C4A1C02F03F01596470474FF0F6
:105A2C00FF307047A81F002008B5254840F22551CB
:105A3C0001F0C4FFA0B140F22551214801F0DEFF76
:105A4C001F4801F0B1FF1F4BC0B21A6C511C01F082
:105A5C003F02596C8A4206D0196C1A64585402E001
:105A6C00174801F0A1FF164840F2277101F0A6FF7C
:105A7C00002824D0124840F2277101F0BFFF1148D2
:105A8C00D0F88830D0F88C20934207D10C4840F2E3
:105A9C0027710022BDE8084001F068BFD0F88C10D7
:105AAC00D0F88C20431893F84810531C03F03F0295
:105ABC00C0F88C200248BDE8084001F071BF08BD59
:105ACC0000440040A81F00202DE9F04107460120AA
:105ADC0086B00D46014601F055FC4FF40030012113
:105AEC0001F05CFC12200121FFF77EFE0421132043
:105AFC00FFF77AFE0E200024262301268DF80500E0
:105B0C0001A88DF804308DF806408DF8076001F07F
:105B1C003BFA0295124D0C21ADF81210284602A941
:105B2C00ADF80C40ADF80E40ADF81040ADF8144097
:105B3C0001F0B8FE2846314601F00CFF284640F231
:105B4C002551324601F012FF284640F227712246B9
:105B5C0001F00CFFA0463C7606B0BDE8F08100BF1A
:105B6C000044004070477047014B93F85900704750
:105B7C005420002008B5034B53F8200000B1804797
:105B8C0008BD00BFC820002038B505460C460846A5
:105B9C0041B103F0F9F82B6802465B6828462146B0
:105BAC00984738BD38BD70B500238AB08DF82430C5
:105BBC00012A98BF0A220DF12303B1FBF2F505FB74
:105BCC001211CCB2092C1E4601D8303400E0373407
:105BDC00E4B203F801492946002DEED13146FFF716
:105BEC00D3FF0AB070BD10B5044622B90268C9B221
:105BFC001268904710BDD2B2BDE81040FFF7D3BF7A
:105C0C00FFF7F1BF014B587D704700BF0821002002
:105C1C0070477047FEE7FEE7FEE7FEE77047704708
:105C2C007047FFF767BB000008B5024B0BB1AFF331
:105C3C00008008BD0000000008B5024B0BB1FFF757
:105C4C00F3FE08BD355A000808B5024B0BB1FFF73F
:105C5C0089FF08BD715B000808B5024B0BB1FFF75B
:105C6C0082FF08BD735B000808B5024B0BB1FFF750
:105C7C00CFFF08BD1D5C000808B5012001F004FA37
:105C8C0038B1012001F010FA024B13B10020FFF7DC
:105C9C0071FF08BD815B000808B5022001F0F4F922
:105CAC0038B1022001F000FA024B13B10120FFF7CA
:105CBC0061FF08BD815B000808B5042001F0E4F920
:105CCC0078B1042001F0F0F90020064B0146188051
:105CDC0002F0A4FA044810210122BDE8084001F0AA
:105CEC0098BD08BD6A210020002C014008B5082091
:105CFC0001F0CAF938B1082001F0D6F9024B13B102
:105D0C000320FFF737FF08BD815B000808B51020A2
:105D1C0001F0BAF938B1102001F0C6F9024B13B1F9
:105D2C000420FFF727FF08BD815B000808B5202081
:105D3C0001F0AAF938B1202001F0B6F90E4B13B1DD
:105D4C000520FFF717FF402001F09EF938B14020E5
:105D5C0001F0AAF9084810B10620FFF70BFF8020CC
:105D6C0001F092F938B1802001F09EF9024911B18D
:105D7C000720FFF7FFFE08BD815B000808B54FF454
:105D8C00005001F081F940B14FF4005001F08CF952
:105D9C00174B13B10D20FFF7EDFE4FF4804001F0CF
:105DAC0073F940B14FF4804001F07EF9104810B106
:105DBC000E20FFF7DFFE4FF4004001F065F940B113
:105DCC004FF4004001F070F9094911B10F20FFF7B1
:105DDC00D1FE4FF4006001F057F938B14FF4006078
:105DEC0001F062F9BDE8084001F05EBF08BD00BFDC
:105DFC00815B000808B50F48102101F043FDC0B1CC
:105E0C000C48102101F049FD002002F0A3FA28B93A
:105E1C00094B1A880A3290B2188008BD1021054827
:105E2C00002201F0F6FC00200121BDE8084002F040
:105E3C00F5B908BD002C01406A21002008B50120ED
:105E4C0001F020FB30B1012001F02EFBBDE8084031
:105E5C0001F0FCBA08BD000008B5022001F012FBED
:105E6C00B0B10C4B00224FF400301A7001F01CF949
:105E7C00012001F001FA10B1012001F007FA01F044
:105E8C00E5FA022001F010FBBDE8084001F0DEBA93
:105E9C0008BD00BF4921002001F094BE00F062B89B
:105EAC0038B514490B78012B23D1134A13680BB95D
:105EBC000B7038BD114C402B206881B205D9403095
:105ECC00403B20601360402504E09DB2C3180020C5
:105EDC00236010600A4A5018C0212A4600F0EEFEDA
:105EEC000120294600F0F4FF0120BDE8384000F005
:105EFC005DBF38BD48040020500400204C04002035
:105F0C0048030020094908B50020094B01220880EC
:105F1C0003201A7001F008F8064B02461880064858
:105F2C004FF48871BDE8084000F0DFBE000300208C
:105F3C00FC020020FE02002002030020074B186820
:105F4C00052809D1064B1A68511C052A196003D182
:105F5C0000201860FFF7A2BA704700BF8421002010
:105F6C004C2100203A4A38B511683A4B88B23A4D68
:105F7C0018801C882988214001F4007084B244B137
:105F8C004FF6FF5515609A78511CC8B29870FFF700
:105F9C00D5FF304C304B25881A882A4002F400413A
:105FAC0088B225461C4608B100F0C2FD2A88238819
:105FBC00134003F4806188B230B1254B27494FF66A
:105FCC00FF321A6048688047224A234B11881B888D
:105FDC00194001F4005081B219B11D494DF6FF7002
:105FEC0008601288134003F4805398B230B1184AF9
:105FFC004EF6FF711160002002F052FC154B164951
:10600C0018880A88024002F4006398B260B11449FF
:10601C000A7812B102F024FC02E0022002F040FCEB
:10602C000B4B4FF2FF7018600A490B480A88038823
:10603C00134003F480718AB242B1054B4FF6FF60F6
:10604C0018600720BDE8384002F02ABC38BD00BFFC
:10605C00445C004050210020BC210020180200208C
:10606C00E4020020034B987A10B1034905220A6020
:10607C00704700BF9821002084210020014B04228E
:10608C001A60704784210020034B1A78202A01D112
:10609C0000201870704700BF54210020704700008A
:1060AC00212810B508D111480368197801F07F0236
:1060BC00212A11D0022010BD2028FBD10B4B1968CE
:1060CC000A780B4902F07F030A4A212B0CBF0B46BE
:1060DC00002310700BB9EDE7074B044C206800242B
:1060EC008361448220469847204610BDB821002089
:1060FC0055610008542100203D610008074B1968C8
:10610C000A7802F07F03212B05D1022801D100204F
:10611C0070472228FBD00220704700BFB821002016
:10612C0009B1022070470128FBD8084670470000CF
:10613C0020B9034B082219680A827047014870473E
:10614C00B8210020E001002020B9034B0822196877
:10615C000A82704701487047B8210020E0010020F6
:10616C00054B1968CA78042A04D8044B03EBC20106
:10617C0000F05EBA00207047B8210020E801002032
:10618C00014900F055BA00BF08020020014900F097
:10619C004FBA00BF10020020334A344BD179186833
:1061AC0010B5002441728472C472204600F0B0FD18
:1061BC0020464FF4007100F0B3FD1021204600F092
:1061CC00BBFD4021204600F057FE8021204600F008
:1061DC0043FE204600F00CFE254B204693F864103D
:1061EC0000F084FE204600F0F2FD0120214600F074
:1061FC0097FD0120C02100F02FFE0120202100F08E
:10620C009BFD0120214600F0B4FD02204FF4C0613B
:10621C0000F086FD02204FF4807100F01DFE02207C
:10622C00214600F0A6FD0220202100F085FD032070
:10623C00214600F075FD03204FF4887100F01CFE20
:10624C000320402100F052FE03204FF4405100F097
:10625C0090FD0320214600F06FFD204600F0FAFB74
:10626C00044A0120106010BD708F0008B821002076
:10627C00E00100208421002010B5FFF75BF9054BED
:10628C0000241868847202F0D3FA00F063FE02490D
:10629C000C6010BDB82100208421002010B5064CE4
:1062AC0018B9236801221A8210BD044B18680168C2
:1062BC00884720680A3010BDB8210020B421002086
:1062CC0010B5064C18B9236801221A8210BD044B74
:1062DC0018688168884720680C3010BDB8210020F0
:1062EC00B421002008B5234A18B9136802221A8277
:1062FC0008BD214B002012681880117811F07F0125
:10630C0013D1507A00F02002D1B209B102221A70D6
:10631C0000F04003D8B2184B18B11A7842F00101C2
:10632C001EE0197821F001011AE001291FD0022981
:10633C001ED1507900F00F024FEA820110F0800F4D
:10634C0001F1804000F5B842116803D001F0300231
:10635C00102A03E001F44050B0F5805F01D1012117
:10636C001970064B186801698847034808BD184620
:10637C0008BD00BFB821002088210020B4210020D6
:10638C00F8B5224B1C68238A267AABB9042E13D19C
:10639C001F48017801291F490AD11F4C226894B269
:1063AC001E4AA2185200136030220A80037028E0A3
:1063BC0010260E80072624E0A58AA169AB428CBF6B
:1063CC00022604269D4228BF1D46284688470746BC
:1063DC00002000F061FD2A460146384600F06EFCB4
:1063EC002946002000F074FD208A638A421BED18B8
:1063FC0008480B4B228230214FF4405201806582B9
:10640C001A80024B18680672F8BD00BFB821002034
:10641C0055210020C0210020505C0040023000209B
:10642C00BE21002010B50A4B0A4918684B78C27877
:10643C0093420AD3817841B9848834B98272064870
:10644C00026853689847204610BD022010BD00BF5B
:10645C00B82100206C020020B421002038B50E4A6F
:10646C000E4C106823688269D97858799047216856
:10647C008B7A7BB170B9087960B98D7855B9084AB7
:10648C001168CB68984720684279C178C272017351
:10649C00284638BD022038BD90210020B8210020AC
:1064AC00B421002010B5324B1B68187810F07F0017
:1064BC0004D15A7A22F02001597210BD022855D10C
:1064CC005A88002A53D11979002950D15A7922F0CF
:1064DC0080004FEA800404F1804101F5B844216842
:1064EC00244C12F0800F247814BF01F0300101F419
:1064FC004051A0423AD2002938D09B7A002B35D09B
:10650C00840002F0800204F18043D1B203F5B84458
:10651C00226861B102F03002102A21D1C4B22046A7
:10652C0000F087FC2046302100F006FC18E002F455
:10653C004051B1F5805F13D128B90F4B93F82C1053
:10654C0000F0D4FC01E000F062FC20684BF68F7286
:10655C00024082F4405141F4004343F0800020603B
:10656C0006490B6858698047002010BD022010BDF9
:10657C00B82100206C02002018020020B421002059
:10658C0010B51F4B19684A7922F080034FEA83003B
:10659C0000F1804404F5B8401A4C0068247812F0DD
:1065AC00800F14BF00F0300000F44050A34224D2FE
:1065BC004C8814BB08B3897AF9B19B0003F1804174
:1065CC0002F0800201F5B843D0B2196828B148F640
:1065DC00BF720A4082F0100004E04BF68F720A4042
:1065EC0082F4805040F4004141F080001860064B6A
:1065FC001A6891698847002010BD022010BD00BFA9
:10660C00B82100206C020020B421002008B5064BF4
:10661C001868064B427A42F0200141721868C26930
:10662C009047002008BD00BFB8210020B4210020F5
:10663C00054B1A68538A18B98988CB1A138270478C
:10664C000868C018704700BFB821002008B50B4B74
:10665C00002093F82C1000F049FC09480168087AD6
:10666C00082806D1074B4FF480521A80064A102195
:10667C001180B0F109035842584108BD180200209E
:10668C00B8210020BE210020C021002070B52E4B67
:10669C001C68207A02284FD004284DD0032801D042
:1066AC00052843D1A169208AA9B1A0B1A58A854248
:1066BC0028BF054628468847228A0646608A531B0F
:1066CC00291861822382002000F0F4FB2A4601463F
:1066DC00304600F00AFB228A52B11C4B4FF440505A
:1066EC0018800020014600F0F3FB194A302111807C
:1066FC00208AA38A1449834202D80B68032202E041
:10670C0018B10B6805221A720CE00A6806231149AD
:10671C0013720A68104993B25A1853000C49186046
:10672C0030200880084801680B7A06E0072803D15E
:10673C000A490A68D36898470823034A1068037209
:10674C00BDE87040FFF782BFB8210020BE210020B9
:10675C00C0210020505C004002300020902100201D
:10676C00944B73B51A68944990B24418934E6500D3
:10677C002A6835682B7A092B15D090B2410001F1AB
:10678C00804404F5C04422782A7063786B70A0882A
:10679C0000F0DAFB68802089356800F0D5FBA88012
:1067AC00A0893168C880854D01242B68DA881C7259
:1067BC005C78002A64D1187810F07F0238D1092C4B
:1067CC0002D1FFF72FFE45E0052C0FD193F90320E2
:1067DC00002A01DA08214FE099780029FAD198882B
:1067EC000028F7D19B7A002B38D0F3E7032C10D17B
:1067FC00D878012807D0724A204611684B6998470F
:10680C00032829D137E09B88002BF4D1FFF7FEFE3B
:10681C0020E0012CEFD1D9780129ECD198880028FF
:10682C00E9D15B7A03F02002D1B20029E3D00AE06F
:10683C00012A04D10B2CDED1FFF710FE0AE0022A4C
:10684C00D9D1012C02D1FFF72DFE03E0032CD2D1BC
:10685C00FFF796FE10B1CEE70028BBD15548594B37
:10686C00026891B2C818584B4100002230200A60CF
:10687C001880062100E00921504A10680172D3E00B
:10688C00062C13D11C7861067AD19A784C4B012ACC
:10689C0002D11C68E36969E0022A02D11868036A14
:1068AC0064E0032A6CD119684B6A5FE0002C3ED17E
:1068BC005988002964D1586820F47F42B2F5003F12
:1068CC005ED11C7814F07F0004D19888002800F069
:1068DC00AE8055E001280CD1394A58791468A26968
:1068EC00904700284CD12B68997A002940F09F8062
:1068FC0046E0022844D15B7903F00F014FEA810294
:10690C0002F1804404F5B840304C0268207813F052
:10691C00800F14BF02F0300202F4405281422FD299
:10692C0013F0700F2CD1002A40F0818028E0082C45
:10693C0003D119784A067CD022E00A2C20D1187891
:10694C0000F07F0101291BD19C7ACCB15988B9B9CF
:10695C005A6822F47F40B0F5803F11D1184C587919
:10696C0022689469A047002865D009E043B1134818
:10697C000024016820464C828B61984720460AE02F
:10698C000F4A0E4C116823680A69587890470328FF
:10699C0001D1236806E0094B4FF6FF711B681A8A78
:1069AC008A4201D1092103E0022800D082B90821D2
:1069BC00197239E0505C004004300020B8210020EE
:1069CC009021002002300020C02100206C02002009
:1069DC0093F90000002821DAD988019101988242AC
:1069EC0002D9019A1A8211E08A420FD2134908681F
:1069FC0090F82C108A4201D2002105E092FBF1F0B4
:106A0C0001FB102212B901210D4801700B490868D5
:106A1C0090F82C209A82FFF7B3FC05E003221A723F
:106A2C00084B4FF440511980FFF710FE7CBD064B0C
:106A3C009DE7064B9BE7064B99E700BF9021002092
:106A4C0055210020BE210020F1620008A962000837
:106A5C00CD62000870B50D4B1C780023A34210D2F8
:106A6C0003F1805202F5B855A90043F400420E68B8
:106A7C0042F0800540F60F7232402A430A6001331F
:106A8C00ECE7034940F08000086070BD6C02002008
:106A9C004C5C004010B514490B680C461A7A022A5B
:106AAC0001D0042A04D1FFF76BFC2168087A13E0AB
:106ABC00062A10D15878052809D11978480606D12C
:106ACC00D878FFF7C7FF094B1A68106A8047084946
:106ADC000B689A6890470820034B1A681072BDE83F
:106AEC001040FFF7B3BD00BFB8210020B421002037
:106AFC00902100207047000008B5074A074B022080
:106B0C00136018720649074B0748084A0B6010605F
:106B1C001B68984708BD00BFB821002098210020B1
:106B2C00902100201802002048020020B4210020EF
:106B3C0037B50023ADF806305848594B026891B26E
:106B4C001204198040F1A8801888564900F00F02F1
:106B5C000A70002A6ED1544C2568AAB2534D2A8073
:106B6C002988534A01F03000108029884BF6BF72F7
:106B7C0001F44050288021680A4082F4005080F0D3
:106B8C00200141F4004242F0800020601B8803F099
:106B9C0010018AB23AB9226848F60F701040206092
:106BAC00FFF778FF1DE0206883B2ADF80630BDF822
:106BBC00061001F4006290B238B1216840F68F7370
:106BCC000B402360FFF7CCFD0BE0BDF8063019B28B
:106BDC000029B1DA226840F68F7010402060FFF770
:106BEC0055FD21682A884BF6BF7302F480500B4088
:106BFC0081B209B183F480532C4A108800F40051FF
:106C0C008AB20AB183F400532948018801F01002BA
:106C1C0091B209B183F01003008800F0200291B208
:106C2C0009B183F0200343F400401F4A40F0800177
:106C3C00116031E0930003F1804000F5B84319680E
:106C4C0088B2ADF80600BDF8061008B2002809DAC3
:106C5C00186840F68F7101401960164B013A53F8D1
:106C6C0022008047BDF8061001F0800293B2002B81
:106C7C003FF462AF0B480278910001F1804303F5B9
:106C8C00B841086848F60F7303400B600A49013A93
:106C9C0051F8220080474FE73EBD00BF445C0040E6
:106CAC005021002094210020005C0040BE210020D7
:106CBC00C0210020A8010020C401002030B501F142
:106CCC00005101F54053013259005210002302309B
:106CDC00934209D010F8015C10F8024C44EA0524E8
:106CEC0021F823400133F2E730BD01F1005110B51A
:106CFC00013201F54054521064000023934205D038
:106D0C0054F8231020F813100133F7E710BD0000DE
:106D1C004FF6F873014A034013607047505C004013
:106D2C00800000F1804202F5B842106848F68F13DB
:106D3C000340194311607047800000F1804202F556
:106D4C00B842106848F6BF73034001F0100080B2DF
:106D5C0008B99BB201E083F0100301F0200188B266
:106D6C0008B183F0200343F4004141F0800010602F
:106D7C007047800000F1804202F5B84210684BF673
:106D8C008F73034001F4805080B208B99BB201E0CC
:106D9C0083F4805301F4005188B208B183F400539A
:106DAC0043F4004141F0800010607047800000F116
:106DBC00804202F5B840016848F6BF730B4083F07F
:106DCC00300242F4004141F08003036070478000C0
:106DDC0000F1804202F5B84001684BF68F730B400E
:106DEC0083F4405242F4004141F080030360704749
:106DFC00800000F1804202F5B840016840F60F6354
:106E0C000B4043F4004242F0800101607047800067
:106E1C0000F1804303F5B8400268510408D50168BD
:106E2C0040F60F730B4043F4404242F08001016086
:106E3C007047800000F1804303F5B8431A68500690
:106E4C0008D5196840F60F70084040F4004242F033
:106E5C00C001196070470000064B49081A6893B2CC
:106E6C0003EBC00000F1005202F5405358004A00F9
:106E7C0002607047505C0040054B49081A6893B299
:106E8C00044A03EBC000831858004A0002607047A4
:106E9C00505C004004300020054B19688AB202EBAC
:106EAC00C00000F1005303F540514A0010887047B0
:106EBC00505C0040044B1968044B8AB202EBC000D2
:106ECC00C1184A0010887047505C00400430002004
:106EDC00044B1A6893B2044A03EBC00083185800A1
:106EEC0001607047505C0040023000200C4B1A6867
:106EFC0093B20C4A03EBC00083185A003E2908D900
:106F0C004B09C90601D1581E83B2990241F40041C4
:106F1C0004E04B08C80748BF013399021160704761
:106F2C00505C004006300020054B1968054B8AB2B6
:106F3C0002EBC000C1184A0010688305980D704719
:106F4C00505C004006300020C3B2000A40EA032027
:106F5C0070470000044B00201860044A044B4FF4A7
:106F6C003F41118019607047445C0040BC210020F7
:106F7C00405C004040F0BF60024B40F40031D960EF
:106F8C00704700BF00ED00E0C37810B503B3164C9A
:106F9C00E168CB43C3F302244178C4F1040201FA43
:106FAC0002F10F2222FA04F28478037822400A4379
:106FBC00110103F16043CAB203F5614181F800236A
:106FCC000078012200F01F03410902FA03F007E0E8
:106FDC000078012200F01F03410902FA03F020316E
:106FEC00024B43F8210010BD00ED00E000E100E091
:106FFC0021F0604121F07F02014B104398607047F3
:10700C0000ED00E0837910B5002B29D01A4B0168F4
:10701C001C68CA4314401C605C6822405A600279A8
:10702C0002F1804404F58232146821431160026835
:10703C009C68D1430C409C60DC684079214010284E
:10704C00D96006D1986810439860D9680A43DA6011
:10705C0010BD00F1804303F5823319680A4308E040
:10706C000179006801F1804202F582331A6822EA44
:10707C0000021A6010BD00BF00040140014B5861B2
:10708C00704700BF00040140064B1A68596910EAAA
:10709C00010304D010420CBF002001207047184699
:1070AC00704700BF00040140014B5861704700BF9E
:1070BC0000040140CB78F0B5DA0648BF8A7809881D
:1070CC0003F00F0548BF154311F0FF0F1ED00468E5
:1070DC000022012707FA02F707EA0106BE4211D186
:1070EC0097004FF00F0C0CFA07FC05FA07F724EA8F
:1070FC000C04282B44EA070401D1466102E0482B1A
:10710C0008BF06610132082AE3D10460FF2920D9A7
:10711C004468002202F10806012707FA06F707EA7D
:10712C000106BE4211D197004FF00F0C0CFA07FC70
:10713C0005FA07F724EA0C04282B44EA070401D1CA
:10714C00466102E0482B08BF06610132082AE1D1F2
:10715C004460F0BD836819420CBF002001207047C9
:10716C0001617047416170470028174B30B500F43E
:10717C004014B4BFDB695B68B4F5401F82B207D121
:10718C00114C23F07063656825F0706565600FE045
:10719C00C40205D5C0F30344032505FA04F403E047
:1071AC00440D240102FA04F423EA040343F070634F
:1071BC0021B1410D090102FA01F2134300280248E2
:1071CC00B4BFC361436030BD0000014001F0030255
:1071DC0030B592000F2404FA02F400FA02F0074BC7
:1071EC008908023153F8215025EA040443F8214060
:1071FC0053F82140044343F8214030BD00000140C6
:10720C00014B1860704700BF00300040014B5860C4
:10721C00704700BF00300040014B9860704700BFC2
:10722C0000300040024B4AF6AA221A60704700BF99
:10723C0000300040024B4CF6CC421A60704700BF45
:10724C0000300040014B1860704700BF20000E4218
:10725C00074B1A6842F004001860196841F00202EA
:10726C001A60044B186940F00401196130BF704773
:10727C000070004000ED00E0034B596808420CBF61
:10728C0000200120704700BF00700040024B1A68BC
:10729C0042EA80001860704700700040014B186093
:1072AC00704700BFD8004242064B002201281A70DA
:1072BC001A7004D0042804D10520187001E018704D
:1072CC007047704720100240024B1A6A1043186234
:1072DC00704700BF00100240014B1860704700BFA0
:1072EC003C0442421D4B10B55A6802F00C010429B3
:1072FC0001D0082902D01A4A02600EE05C68596875
:10730C00C4F38342941CC90302D55B689B0301D56B
:10731C00144900E012494C430460104A124B546863
:10732C00C4F303115C5C016821FA04F141605468F8
:10733C00C4F302241C5D21FA04F484605468C4F381
:10734C00C2241C5D21FA04F1C1605268C2F381327F
:10735C009B181A7CB1FBF2F1016110BD00100240C8
:10736C0000127A0000093D0070020020044B5A699B
:10737C0009B1104301E022EA00005861704700BFD8
:10738C0000100240044B9A6909B1104301E022EA53
:10739C0000009861704700BF00100240044BDA698E
:1073AC0009B1104301E022EA0000D861704700BF28
:1073BC00001002404309012B074A01D1136803E076
:1073CC00022B0CBF136A536A00F01F0023FA00F162
:1073DC0001F00100704700BF00100240024B5A6AD6
:1073EC0042F080705862704700100240044B1A88BB
:1073FC0092B209B1104301E022EA000018807047F4
:10740C0000280040034B9A8890B240F010019980FC
:10741C00704700BF00280040034A938823F01000F7
:10742C0001040B0C938070470028004010B50446F3
:10743C00FFF7E8FF044BC4F30342A4B21A819C810A
:10744C00BDE81040FFF7E8BF00280040034B9888C8
:10745C0000F020018AB2002AF8D0704700280040C2
:10746C00074A938823F0080001040B0C9380044A0C
:10747C00908800F008018BB2002BF8D0704700BF49
:10748C0000280040074B9A881B8891B210EA03022F
:10749C0006D0084010F0FF0F0CBF002001207047F1
:1074AC001046704700280040034B9A8891B221EA9D
:1074BC0000009880704700BF002800400B8810B572
:1074CC004C88028823438C8802F441522343CC8895
:1074DC0023430C8923434C8923438C892343CC8934
:1074EC00098A23431A4393B20380828B22F40063EC
:1074FC001A04130C8383018210BD038819B199B24D
:10750C0041F0400303E023F040010A04130C038014
:10751C00704781817047808980B270470389194216
:10752C000CBF002001207047224A038890429BB276
:10753C0012D002F5006290420ED0B0F1804F0BD009
:10754C00A2F59832904207D002F58062904203D0A7
:10755C0002F58062904203D14A8823F070031343F2
:10756C00154A904208D002F58062904204D023F470
:10757C004073CA889BB2134303808B880A88838527
:10758C000C4B028598420FD003F5006290420BD051
:10759C0002F54063984207D003F58062904203D015
:1075AC0002F58063984201D1097A01860122828218
:1075BC00704700BF002C014000100040038C70B5D8
:1075CC0023F001021404250C0584068C8388028B9D
:1075DC009CB222F073052B040D881A0C26F00206BF
:1075EC0033042A434E880D891B0C3543ADB22B4313
:1075FC00134DA8420FD005F50065A8420BD005F538
:10760C004065A84207D005F58065A84203D005F572
:10761C008065A8420ED123F008064B898D881E4345
:10762C0026F004032B43CE898D8924F44074354312
:10763C00ADB22C43C988848002838186038470BDDB
:10764C00002C0140038C30B523F010021404250CDF
:10765C000584038C8288048B23F0200324F4E645F4
:10766C002C040D88240C44EA05241D042B0C0D89D4
:10767C0092B243EA05134D88A4B243EA0513124DA6
:10768C009BB2A84203D005F50065A84215D14D89DF
:10769C0023F080039BB243EA05134FF6BF751D40E0
:1076AC008B8822F4406245EA0315ABB28D8942EA1D
:1076BC008502CD8942EA850292B2C9888280048310
:1076CC000187038430BD00BF002C0140038C30B512
:1076DC0023F480721404250C0584038C8288848B1B
:1076EC0023F4007324F073052C040D88240C2C4314
:1076FC001D042B0C0D8992B243EA05234D8843EAF5
:10770C000523124D9BB2A84203D005F50065A84293
:10771C0015D14D8923F400639BB243EA05234FF640
:10772C00FF351D408B8822F4405245EA0325ABB24D
:10773C008D8942EA0512CD8942EA051292B2C988B6
:10774C00828084838187038430BD00BF002C01407C
:10775C00038C30B523F480521404250C0584038C5F
:10776C008288858B94B225F4E64215042A0C0D8888
:10777C0023F4005342EA05221D042B0C0D8992B20E
:10778C0043EA05334D8843EA05330A4D9BB2A842C0
:10779C0003D005F50065A84205D18D8924F48044F9
:1077AC0044EA8514A4B2C98884808283A0F840106E
:1077BC00038430BD002C014000214FF6FF73838001
:1077CC000180C18041800172704700230380438097
:1077DC008380C380038143818381C3817047038885
:1077EC0019B199B241F0010303E023F001010A043D
:1077FC00130C03807047B0F8443029B16FEA43434F
:10780C006FEA53418AB201E059044A0CA0F84420B3
:10781C00704783899BB20AB1194301E023EA010145
:10782C0081817047038819B199B241F0800303E05C
:10783C0023F080010A04130C03807047038B23F0A0
:10784C00080213041A0C114301837047038B23F4B1
:10785C00006213041A0C42EA01218BB203837047B5
:10786C00838B23F0080213041A0C11438183704795
:10787C00838B23F4006213041A0C42EA01218BB2AD
:10788C0083837047038A828911EA030092B203D082
:10789C0011420CBF002001207047C9438AB20282FA
:1078AC0070470000038A30B50D460446EA8898B24A
:1078BC0020F4405111432182A3892889A98823F4FB
:1078CC00B05340EA0102688923F00C01024308041A
:1078DC00030C1A4391B2A181A08AAA8983B223F422
:1078EC00407187B01143A18201A8FFF7FBFC184837
:1078FC00A38984420CBF0498039819B200294FF055
:10790C0019032A6803FB00F001DA510000E0910032
:10791C00B0FBF1F16423B1FBF3F21201100903FB8C
:10792C001011A08900B2002806DAC9003231B1FB6F
:10793C00F3F303F0070005E009013231B1FBF3F377
:10794C0003F00F00024390B2208107B030BD00BF9E
:10795C0000380140838919B199B241F4005303E016
:10796C0023F400510A04130C83817047C1F34213B2
:10797C0010B5012401F01F01A34204FA01F101D159
:10798C000C3004E0022B01D1103000E014300368FD
:10799C0012B143EA010201E023EA0102026010BDC8
:1079AC00C905CA0D828070478088C105C80D704713
:1079BC00038819420CBF00200120704710B5C1F399
:1079CC004214012201F01F03012C02FA03F201D12F
:1079DC00838903E0022C0CBF038A838A9BB2008844
:1079EC00134082B243B1090A012303FA01F0104299
:1079FC000CBF0020012010BD184610BD090A012340
:107A0C0003FA01F3DA4391B20180704708B572B6FC
:107A1C0000F004FD034B022218699A6019680530C6
:107A2C00884708BDC421002070B5064600201446C6
:107A3C000D4600F0E3FC012EA4B207D130462946D6
:107A4C00224600F0A7FC0020124907E0124B01204F
:107A5C001969224600F09EFC00202946224600F0BF
:107A6C0099FC0E480221012201F027F8012000F0B8
:107A7C00C5FC0A4801F029F80028FAD1084801F0A1
:107A8C0024F80028FAD107488021FFF747FD002889
:107A9C00F9D170BD84020020C4210020580002409E
:107AAC00440002400038004003460A4601201946B3
:107ABC00FFF7BABF70B50646002014460D4600F01D
:107ACC009DFC012EA4B207D130462946224600F077
:107ADC0061FC0020104907E0104B01201969224677
:107AEC0000F058FC00202946224600F053FC0120EF
:107AFC0000F084FC0A4800F0E8FF0028FAD109489D
:107B0C0000F0E3FF0028FAD107488021FFF706FDBB
:107B1C000028F9D170BD00BF84020020C4210020D0
:107B2C0058000240440002400038004003460A4618
:107B3C0000201946FFF7BEBF70B5184E35696B793A
:107B4C00022B08D0042B25D1287A441E14F0010FE7
:107B5C0018BF044614E0681D032100F0E5FEB0F5E3
:107B6C00806F044608DB05F10A004FF4806107249E
:107B7C00FFF79AFFB4600EE0C30701D4441C00E089
:107B8C0024B105F10A00A1B2FFF78EFF03490822C8
:107B9C008A6000E00024204670BD00BFC421002094
:107BAC00024B012019690A22FFF73EBFC4210020B5
:107BBC0008B5FFF7C1FF18B9BDE80840FFF726BFAD
:107BCC0008BD000070B5364C4FF40030266900F04B
:107BDC007FFF05464FF4005000F07AFFA368062B98
:107BEC000BD1002D5BD0002859D04FF4083000F099
:107BFC007DFFBDE87040FFF7DBBFA16807291BD1F3
:107C0C0000284CD04FF4083000F070FF0321701D99
:107C1C0000F08AFEA0F58064A1B2214CCA0758BFBF
:107C2C00A0F2FF31206958BF89B200F20A40FFF779
:107C3C003BFF0823A36070BDA268082A09D1002865
:107C4C002DD04FF4083000F051FFBDE87040FFF725
:107C5C00DDBEA068052811D1002D20D0114880214F
:107C6C00FFF75CFC0028F9D14FF4083000F03EFF20
:107C7C0000F0D4FB0A4A0221916070BDA368042B6A
:107C8C000DD165B1A088E2680521A0F58063A160E3
:107C9C0002F5806099B2BDE87040FFF747BF70BD38
:107CAC00C42100200038004008B5174BD869804724
:107CBC00002827D1154B9A6812B90120986008BD8D
:107CCC009968022907D106229A6000F03DFCBDE8B4
:107CDC000840FFF765BF9A68032A13D19A88B2F55A
:107CEC00806F06D805219960D968BDE80840FFF778
:107CFC009BBE04209860D8684FF48061BDE80840B2
:107D0C00FFF714BF08BD00BF442A0020C421002087
:107D1C004FF44070FFF72EB9094B4FF47A701A6884
:107D2C00084BB2FBF0F14A1E5A60074AF0210020C2
:107D3C0082F8231098600720186082F8231070478F
:107D4C00D002002010E000E000ED00E0024B1860D3
:107D5C001A68002AFCD17047EC29002030B54FF48A
:107D6C00003085B0FFF7A0F908204FF40033002550
:107D7C0001248DF80D00684402938DF80C508DF899
:107D8C000E40FFF73FF9032101A88DF804108DF880
:107D9C0005108DF806508DF80740FFF7F5F8042311
:107DAC0029220DEB03008DF804208DF805308DF899
:107DBC0006508DF80740FFF7E7F80220FFF75CFA52
:107DCC0050B10220FFF762FAFFF74AFB24204FF66E
:107DDC00FF7100F0B1FD27E0242000F0BBFD4AF25A
:107DEC00A551884201D1FFF733FA0120FFF75CFA65
:107DFC004120FFF7DFFA0028FAD04FF48070FFF72C
:107E0C0063FA0120FFF768FAFFF72AFBFFF71EFB66
:107E1C0003200121FFF7EAFAFFF718FB47F6FF7082
:107E2C00FFF704FBFFF712FB05B030BD10B504469D
:107E3C0045F25550FFF7E4F90620FFF7E7F942F257
:107E4C001070844228BF044628216143C1F30F20DF
:107E5C00FFF7E2F9FFF7E6F9BDE81040FFF7EAB9E2
:107E6C00082812D8012907D10A4B0B4A53F82010C5
:107E7C0032F8100008610AE049B9064B064A53F87B
:107E8C00201032F81000486101E0FF2300E00023CD
:107E9C0058B270478C020020C88F000837B50E4DC1
:107EAC00044605EB800318690121FFF76BFA35F8DE
:107EBC0014000A4B1021ADF804008DF807100322B2
:107ECC0053F8240001A98DF80620FFF7F3F820469B
:107EDC000021FFF7C5FF3EBDC88F00088C020020B3
:107EEC0070B5012188B04FF40060FFF74BFA314BAD
:107EFC0042F210701C686326B4FBF0F14A1E2E4C43
:107F0C0001A895B2FFF758FC01A8FFF755FC01A991
:107F1C00ADF8045020460025ADF80860ADF80A50C5
:107F2C00ADF80650FFF700FB04A8FFF74EFC02204B
:107F3C0060230126ADF8180004A92046ADF81030D6
:107F4C00ADF81260ADF81650ADF81C50FFF736FBCB
:107F5C0020462946FFF772FC204604A9FFF772FB66
:107F6C0020462946FFF772FC204604A9FFF7AEFB1A
:107F7C0020462946FFF774FC204604A9ADF81050A2
:107F8C00ADF81260ADF81650ADF81850FFF7E0FBE5
:107F9C0020462946FFF76CFC20463146FFF742FC91
:107FAC0020463146FFF71BFC20463146FFF723FCE9
:107FBC0008B070BDD0020020002C0140104930B533
:107FCC008C8DC0F30743A2B2551C5D43FF22B5FB59
:107FDC00F2F40C4BA5B29D808C8DC0F30725A4B296
:107FEC0001346C43B4FBF2F4A4B2DC80898DC0B2D2
:107FFC0089B201314843B0FBF2F291B2598030BDE5
:10800C00002C01405821002037B50F4D044605EBDC
:10801C008003186B012105EB4405FFF7B3F9B5F8A4
:10802C004000ADF804000CB9102100E01821074BFA
:10803C008DF8071003EB84040322206A01A98DF844
:10804C000620FFF737F83EBDC88F00088C020020D1
:10805C0010B1E7281BD105E00D4A4FF40051106A0E
:10806C00016170470B4B0C4A197C39B9988881B265
:10807C001187D88881B291875B8806E0988981B294
:10808C001187D88981B291875B899BB2938670479F
:10809C008C02002058210020002C014010B1E72850
:1080AC0027D106E0134B196AC86880F40052CA60E5
:1080BC007047114A114B117C61B9198F908841405E
:1080CC0088B21887998FD088414088B29887998E4A
:1080DC0052880BE0198F9089414088B21887998F8C
:1080EC00D089414088B29887998E52894A4092B281
:1080FC009A8670478C02002058210020002C0140E9
:10810C00E7287FD14049414B087C414A48BB8988CC
:10811C0088B208B918700DE0118F88B208B9012027
:10812C0007E0118F928D88B291B24A1C904201D116
:10813C00FF201870344B3748D98889B269B1344A5A
:10814C00938F99B209B9012107E0938F928D99B25F
:10815C0093B25A1C914201D1FF2101702A484388E5
:10816C0028E0898988B208B918700DE0118F88B29F
:10817C0008B9012007E0118F928D88B291B24A1C88
:10818C00904201D1FF2018701F4B2248D98989B227
:10819C0069B11F4A938F99B209B9012107E0938FF6
:1081AC00928D99B293B25A1C914201D1FF21017068
:1081BC001548438998B2184B68B1154A918E88B20C
:1081CC0008B9012007E0918E928D88B291B24A1CB9
:1081DC00904201D1FF2018700D4B0C491A8F91F968
:1081EC000000821891B20B4A198792F90010988FEF
:1081FC00081882B208499A8791F90020988E1018B5
:10820C0081B29986704700BF58210020F8290020C0
:10821C00002C0140E8290020D829002073B5104C0F
:10822C000E4604EB400494F84C10054694F84800B4
:10823C00FEF7CCFFB4F850402046FEF71FFF09486C
:10824C000023451995F83010684600948DF80430D9
:10825C008DF805108DF80660FEF7D4FE7CBD00BFCE
:10826C00C88F00088C020020F7B5224E8700F31946
:10827C000546586D0C4640F001000121FFF782F8CD
:10828C001D4B06EB45065A1992F83210B6F85C00F5
:10829C0002AADF198DF8031022F8080D6946786BD5
:1082AC00FEF708FF012C24D11021002213481B27B4
:1082BC00FFF7AFFA05238DF8047001A800278DF89D
:1082CC0005308DF806708DF80740FEF75DFEB6F8A8
:1082DC00601006208DF8050001A88DF804108DF8AB
:1082EC0006708DF80740FEF74FFE28462146FFF733
:1082FC0095FFFEBDC88F00088C020020002C0140A9
:10830C0010B501214FF0C050FFF748F80120FEF7DF
:10831C0099FFFFF7FDFC01200146FFF733F800241D
:10832C00E0B20134FFF7BAFD082CF9D1FFF7D8FD04
:10833C000020FFF769FE0120FFF766FE0220FFF721
:10834C0063FE0320FFF760FE00200121BDE8104012
:10835C00FFF78ABF054A064B02EB800103EB400294
:10836C00486BB2F85C10FEF7F5BE00BF8C02002023
:10837C00C88F0008024B03EB4000418A88B270475B
:10838C0058210020024B002203EB40004282704730
:10839C005821002070B5044601208CB00E460146D1
:1083AC001546FEF7E3FF124B002080224FF440519C
:1083BC00012C019302960590069207900890099063
:1083CC000A910B9006D103900A48049500F0D2FA5A
:1083DC00084807E04CB9102307480393049500F0B4
:1083EC00C9FA054801A900F03DFB0CB070BD00BFF7
:1083FC000C380040440002405800024010B50446BE
:10840C002146044800F04EFB03482146BDE81040CD
:10841C0000F048BB440002405800024002484FF4B0
:10842C008051FEF79DBE00BF000C014010B50B4CF7
:10843C00238823F0400001040A0C2280FFF7EEFF92
:10844C00074B188881B2074841F040024FF4007185
:10845C002280BDE81040FEF785BE00BF003800400A
:10846C00FA290020000C014002484FF40071FEF77D
:10847C0077BE00BF000C014070B5082086B001210A
:10848C00FEF780FF2E4C01214FF48040FEF786FF53
:10849C0018204FF4005301258DF80300694620463F
:1084AC00ADF800308DF80250FEF704FE4FF4004199
:1084BC00ADF8001020466946FEF7FCFD04264FF48B
:1084CC00804220466946ADF800208DF80360FEF727
:1084DC00F1FD1020032369464FF400768DF803005C
:1084EC0020468DF80230A4F55444ADF80060FEF738
:1084FC00E1FDFFF7B9FF002107202023ADF80410A0
:10850C004FF48272ADF80810ADF80A10ADF80C10EB
:10851C00ADF81210ADF8140001A92046ADF80620F4
:10852C00ADF81030ADF80E60FEF7C8FF2188054B92
:10853C008AB2204629461A80FEF7DFFF06B070BDCE
:10854C00000C0140FA29002010B50B4C238823F0B5
:10855C00400001040A0C2280FFF786FF074B1888A5
:10856C0081B2074841F040024FF480512280BDE8AF
:10857C001040FEF7F7BD00BF00380040FC2900207A
:10858C00000C014007B508200121FEF7FBFE03207B
:10859C0014214FF480638DF806008DF80710034802
:1085AC0001A9ADF80430FEF785FD0EBD000C0140AD
:1085BC00002008B5FEF772FE4FF400000121BDE863
:1085CC000840FEF7EBBE0000014B03221A60704717
:1085DC0084210020044B05489A7A0AB1052100E059
:1085EC0001210160704700BF9821002084210020E8
:1085FC0007B5022014238DF805000021012201A8E3
:10860C008DF804308DF806108DF80720FEF7BCFCB1
:10861C000EBD000020B105484FF48061FEF7A2BDED
:10862C0002484FF48061FEF79BBD00BF000C014077
:10863C00074B987D50B10749074B0A8807489A8722
:10864C000188074AD9871088A3F84000704700BFFB
:10865C0058210020004C00088C020020024C00081D
:10866C00044C000810B504460A480221FEF756FFD8
:10867C000028F9D007482146FEF74BFF0548012199
:10868C00FEF74CFF0028F9D00248FEF744FFC0B2B9
:10869C0010BD00BF0038004070B5FFF7C7FE9F202B
:1086AC00FFF7E0FFFF20FFF7DDFF0446FF20FFF799
:1086BC00D9FF0546FF20FFF7D5FF2D020646FFF731
:1086CC00D3FE45EA0440304370BD08B5FFF7AEFE5B
:1086DC000420FFF7C7FFBDE80840FFF7C5BE000048
:1086EC0008B5FFF7C9FEFFF7F0FFFFF7D5FF104BFA
:1086FC00984202D04C3B984219D1FFF797FE80204C
:10870C00FFF7B0FFFFF7B0FEFFF790FE5020FFF72A
:10871C00A9FFFFF7A9FEFFF789FE0120FFF7A2FFD3
:10872C000020FFF79FFFBDE80840FFF79DBE08BD86
:10873C008D25BF003A4B82B01A6842F001001860D8
:10874C005968384A0A405A60186820F0847121F43C
:10875C0080321A60186820F4802119605A684FF42E
:10876C001F0122F4FE0000225860996000920192D1
:10877C00186840F480311960294B1A6802F40030F3
:10878C00019000994A1C0092019818B90099B1F512
:10879C00A06FF1D11B6813F4003218BF01220192B3
:1087AC000198012805D0204B4FF000629A6002B06E
:1087BC0070471E490B6843F010020A60086820F0ED
:1087CC0003030B600A68A1F5805342F002000860B5
:1087DC00596859605A685A60586840F48061596009
:1087EC005A6822F47C105860596841F4E8125A60B7
:1087FC00186840F0807119601868094A8101FBD52E
:10880C00536823F003015160506840F00203536039
:10881C00034A516801F00C000828F9D1C3E700BFE6
:10882C00001002400000FFF800ED00E000200240C4
:10883C0008B50120FFF7EEFE064B07490122002088
:10884C001A601860086005494FF4E0520A801A60FB
:10885C0008BD00BF405C0040445C0040BC210020CF
:10886C00064B1A6890B240F0080119601A6890B271
:10887C0040F004011960FFF7A7BE00BF405C004048
:10888C0010B5064C4FF6FB73226813402360FFF7BC
:10889C00A1FE4FF43F40206010BD00BF405C004083
:1088AC001F4B072810B518BF18701A781C4C052AD6
:1088BC0033D8DFE802F003070C101823FFF7E0FFB2
:1088CC00062202E0FFF7DCFF0422227010BD022119
:1088DC005970032022E059784A1ED0B258705B7848
:1088EC00EBB9042017E00F4B186881B241F010026D
:1088FC001A600A2005232370607010BD5878411E41
:10890C00CAB25A705B7853B906484FF6EF720168D9
:10891C000A4002600620024B00E00620187010BDD1
:10892C00FE290020405C004043185A78405C00EB64
:10893C00022188B270470000054A82B000230193DF
:10894C000192019BC0180190019A116002B070470E
:10895C00006C0040064982B0002301930191019AFA
:10896C0080180190019B198888B202B0704700BF33
:10897C00006C004002684FF6FE73134003602D4BF1
:10898C0000219842016041608160C16022D02A4977
:10899C00884229D0294B984230D02949884237D077
:1089AC00284B98423ED0284B984206D153F8681C6D
:1089BC0041F4700043F8680C70472449884206D192
:1089CC0051F87C0C40F0706241F87C2C7047204BC5
:1089DC00984206D153F8042C42F00F0143F8041CC2
:1089EC0070471C49884206D151F8183C43F0F000FE
:1089FC0041F8180C7047184B984206D153F82C2CA0
:108A0C0042F4706143F82C1C70471449884206D11B
:108A1C0051F8403C43F4704041F8400C7047104B07
:108A2C00984205D153F8542C42F4702143F8541C4D
:108A3C00704700BF080002401C000240300002409A
:108A4C0044000240580002406C000240800002408A
:108A5C00080402401C04024030040240440402405A
:108A6C005804024070B506688C680D6A26F4FF4203
:108A7C0022F070060A6945EA04034C6913438A69BB
:108A8C002343CC6913431C434B6A44EA03028B6AAD
:108A9C001A4332430260CB680A68496843608260BB
:108AAC00C16070BD19B1016841F0010303E00268B7
:108ABC004FF6FE7313400360704703680AB1194305
:108ACC0001E023EA010101607047406880B2704701
:108ADC00C3004CBF034B044B196801420CBF002070
:108AEC00012070470004024000000240C2004CBF4D
:108AFC00014B024B586070470004024000000240DA
:108B0C000F2A2DE9F00340F2A18041EA00039B07F4
:108B1C0040F09E800C68A2F1100504604B68AC46D6
:108B2C0043608C68BCF10F0F8460CC68C5F30015F2
:108B3C00C46000F1100301F110042BD975B1256844
:108B4C00ACF1100C1D6065685D60A5689D60E56802
:108B5C001034DD601033BCF10F0F1BD9276804F102
:108B6C0010061F60676803F110055F60A768ACF121
:108B7C00200C9F60E768DF6024691C61776806F150
:108B8C0010046F60B7682033AF60F668BCF10F0F4C
:108B9C00EE60E3D8A2F1100828F00F0302F00F04E6
:108BAC0003F1100C032C00EB0C0301EB0C0851D956
:108BBC00211F4FEA9109444608EB890C54F8046BC9
:108BCC00C8EB0C010CF1040C1D46644545F8046B14
:108BDC00C1F3800112D029B154F8041B644545F847
:108BEC00041B0BD0274657F8041B2E4646F8041BD3
:108BFC0064686C603C1D351D6445F3D109F1010CB2
:108C0C004FEA8C0902F0030208EB09014B44D2B184
:108C1C000D789A18DC4303F8015B1419934204F0A5
:108C2C00010410D02CB111F8014F03F8014B934201
:108C3C0009D04D781C4604F8015B8D7802315D70CB
:108C4C00631C9342F5D1BDE8F00370470346DEE7A1
:108C5C000346DDE741462246D9E700BFF0B484075E
:108C6C00034600F08D80541E002A00F08780E50733
:108C7C00CEB211D41A4602F8016B13461546920770
:108C8C0010D0621E002C79D003F8016B14469A07A1
:108C9C001D4607D0013CEDE7034603F8016B9A072C
:108CAC001D46F7D1032C52D9CEB246EA06270F2C1B
:108CBC0047EA07432DD9A4F1100217460F2FC2F330
:108CCC0000162B606B60AB60EB6005F1100216D9DF
:108CDC003EB1103F136053609360D36010320F2F7E
:108CEC000DD9203F02F11006136053609360D360DE
:108CFC00136153619361D36120320F2FF1D8A4F12A
:108D0C00100222F00F0204F00F041032032C154451
:108D1C001DD9271F3E462A46032E42F8043BC7F3B3
:108D2C0080070DD927B1043E032E42F8043B07D926
:108D3C00174647F8043B083E53603A1D032EF7D8FC
:108D4C00231F23F00302131D04F00304ED18ACB130
:108D5C00C9B2EA432C1905F8011BA318A54203F06C
:108D6C0001020BD01AB105F8011BA54206D02B4607
:108D7C0003F8011B69705D1CA542F8D1F0BC70476B
:108D8C00054614468EE700BF20F0030110F00300E7
:108D9C00C0F1000051F8043B00F1040C4FEACC0C7C
:108DAC006FF000021CBF22FA0CF213434FF0010CBF
:108DBC004CEA0C2C4CEA0C4CA3EB0C0222EA0302FE
:108DCC0012EACC1204BF51F8043B0430F4D013F077
:108DDC00FF0F1FBF013013F47F4F013013F47F0FCF
:108DEC0018BF0130704700BFF0B4002A00F0838038
:108DFC0041EA000313F003052ED0551E03780A78C0
:108E0C00934226D1002D7AD0002B7AD001358C1CC0
:108E1C004D192B1BDB0716D510F8013F14F8012C4C
:108E2C00934216D1CC1C73B936E0AC4234D0013429
:108E3C00002B31D014F8012C10F8013F013493426F
:108E4C0007D1002B28D010F8013F14F8012C9342C5
:108E5C00EBD0981AF0BC7047032ACED904680B6883
:108E6C009C42CAD1131F4CD0A4F1013222EA040453
:108E7C0014F0803F43D15A072FD542684C68043018
:108E8C000431A24239D1043B06D0A2F1013424EAC8
:108E9C00020212F0803F20D00020DBE77268646889
:108EAC00A2F10135A24225EA020526D1043B00F1CC
:108EBC00040001F10401EFD015F0803FECD1DCF897
:108ECC0004207C68A2F10135A24225EA020514D1E6
:108EDC00043BE1D015F0803FDED10C460646043150
:108EEC000430032B84460F46D8D85D1E002B85D149
:108EFC0033792279ADE71046ACE75D1E7EE7284654
:108F0C00A8E71846A6E700BF3203530070006100C3
:108F1C0072006B00200043006F007200650020009F
:108F2C007700690074006800200057006900460053
:108F3C006900200020002000200026035300700050
:108F4C00610072006B00200044006500760069002F
:108F5C00630065007300200020002000200020002A
:108F6C000403090409024300020100C03209040091
:108F7C00000102020100052400100105240100017A
:108F8C00042402020524060001070582030800FFE1
:108F9C0009040100020A000000070503024000005A
:108FAC00070581024000001201000202000040503F
:108FBC001D7D6000020102030100000080004000E2
:108FCC002000100008000080004000200800000075
:108FDC000800000008000000080000000800000065
:108FEC000400000004000000040000000400000065
:108FFC000400000004000000040000000020000138
:10900C000002000401000000020000000400000047
:10901C000800000000000000040000000800000030
:10902C00443700557365724C6564000D0A000000EE
:10903C00000C01408000FF00000800400400FF000D
:10904C00000C01404000FF00000800400000FF0041
:10905C00000C01402000FF0000000000FF00FF009A
:10906C00000C01401000FF0000000000FF00FF009A
:10907C00000C01400800FF0000000000FF00FF0092
:10908C00000801400080FF0000000000FF00FF000E
:10909C00000801400040FF0000000000FF00FF003E
:1090AC00000801400020FF0000000000FF00FF004E
:1090BC00000801400001FF0000000000FF00FF005D
:1090CC00000801400002FF0000000000FF00FF004C
:1090DC000008014001000000000000400000FF00FB
:1090EC000008014002000100000000400400FF00E5
:1090FC00000801401000040000000000FF00FF0009
:10910C00000801402000050000000000FF00FF00E7
:10911C000008014040000600000400400000FF0071
:10912C000008014080000700000400400400FF001C
:10913C00000C014001000800000400400800FF0082
:10914C00000C014002000900000400400C00FF006C
:10915C000008014008000300000000400C00FF0064
:10916C000008014004000200000000400800FF005D
:10917C00000801400004FF0000000000FF00FF0099
:10918C00FFFF010001590008A1570008795700089A
:10919C0091570008355700085157000865570008CB
:1091AC00F157000831570008ED570008E95700083F
:1091BC00BD570008C1570008D55700081A034300D3
:1091CC004F0052004500200000000000000000008D
:1091DC000000000000000000016B0008016B00089B
:1091EC00115F0008016B0008016B0008016B00089F
:1091FC00016B0008AD5E0008016B0008016B0008F4
:10920C00016B0008016B0008016B0008016B000882
:10921C0000C20100000008006C8F00080400000070
:10922C00468F000826000000148F00083200000052
:10923C008C0100201A000000708F00084300000011
:10924C00B38F00081200000085620008A5610008B9
:10925C0095600008A9600008AD600008096100086D
:10926C002D610008996100088D6100086D6100088E
:10927C000000000040000000016B00087160000855
:10928C00016B0008016B0008016B0008016B000802
:10929C00016B0008016B00088960000804010000E4
:1092AC000000000001020304010203040607080980
:1092BC00020406080300000000000000000C01403E
:1092CC00000C0140000C0140000C0140000C01405E
:1092DC00000801400008014000080140000801405E
:1092EC000008014000080140000801400C00480043
:1092FC00000C014000000000FFFFFFFFFFFF040017
:10930C0000A24A0400000000000000000102030457
:08931C0006070809010000002A
:040000050800510C92
:00000001FF
