:020000040800F2
:10C00000005000200DC10008A5DA0008A7DA0008DA
:10C01000A9DA0008ABDA0008ADDA00080000000079
:10C02000000000000000000000000000AFDA00087F
:10C03000B1DA000800000000B3DA0008B5DA000841
:10C0400059C1000859C1000859C10008B9DA0008EF
:10C0500059C1000859C1000859C1000859C1000858
:10C06000D9DA000859C1000859C1000859C10008AF
:10C0700059C1000859C1000859C10008D3DA0008A5
:10C0800059C1000859C1000859C1000859C1000828
:10C0900075DB000859C1000859C1000859C10008E2
:10C0A00059C1000859C1000859C100082DDB00081A
:10C0B00059C1000859C1000859C1000859C10008F8
:10C0C00059C1000859C1000859C1000859C10008E8
:10C0D00059C1000859C1000859C1000859C10008D8
:10C0E0000DDB000859C1000859C10008000000001C
:10C0F0000000000000000000000000000000000040
:0CC1000000000000000000005FF808F1E3
:10C10C00002100F004B80C4B5B58435004310B4831
:10C11C000B4B42189A42FFF4F6AF0A4A00F003B8F0
:10C12C00002342F8043B084B9A42FFF4F9AF01F0AC
:10C13C001DFD01F02DF97047281C0108000000209E
:10C14C009C0500209C05002020130020FFF7FEBF5B
:10C15C007047704708B5064B002218600549064821
:10C16C009A601961DA80DA609A80036A984708BD90
:10C17C00D8050020EC090020CC12002008B5044B97
:10C18C001A690AB10020186102494B6A984708BD28
:10C19C00D8050020CC12002062B6704708B572B6E4
:10C1AC0006484FF4805102F0C7FF054B0222186974
:10C1BC009A6019680530884708BD00BF000C014023
:10C1CC00D805002070B50646002014460D4600F038
:10C1DC0077FD012EA4B207D130462946224600F045
:10C1EC00F7FC0020124907E0124B01201969224686
:10C1FC0000F0EEFC00202946224600F0E9FC0E4837
:10C20C000221012202F04DFE012000F059FD0A48E6
:10C21C0002F04FFE0028FAD1084802F04AFE00282E
:10C22C00FAD10748802103F099F80028F9D170BDA4
:10C23C0000000020D80500205800024044000240B5
:10C24C000038004003460A4601201946FFF7BABFE2
:10C25C0070B50646002014460D4600F031FD012E47
:10C26C00A4B207D130462946224600F0B1FC00208A
:10C27C00104907E0104B01201969224600F0A8FC78
:10C28C0000202946224600F0A3FC012000F018FDF6
:10C29C000A4802F00EFE0028FAD1094802F009FE05
:10C2AC000028FAD10748802103F058F80028F9D16A
:10C2BC0070BD00BF00000020D805002058000240CF
:10C2CC00440002400038004003460A46002019464C
:10C2DC00FFF7BEBF70B50E4D04460E4628464FF410
:10C2EC00805102F02BFF002021460422FFF7B0FF03
:10C2FC000020211D321FFFF7ABFF064B0222284600
:10C30C004FF480519A6002F017FF002070BD00BFFF
:10C31C00000C0140D805002070B501F00106044660
:10C32C0086F001000D18012300262370C5F30722A7
:10C33C001D4BE67026716270A57005319D6808185A
:10C34C0086B215B99A68012AFCD19968164D012953
:10C35C0007D120463146FFF7BDFFAA68022AFCD15F
:10C36C001FE0A8680228FCD11048802102F0F6FFDB
:10C37C000028F9D10E4BDD69A8470028FAD00A4DE8
:10C38C0003220C484FF48051AA60EC60AE8002F09E
:10C39C00D5FE0749C86980470028FAD0AB68022B44
:10C3AC00FCD1002070BD00BFD80500200038004033
:10C3BC00CC120020000C014070B5184E35696B7919
:10C3CC00022B08D0042B25D1287A441E14F0010F1F
:10C3DC0018BF044614E0681D032103F090F9B0F572
:10C3EC00806F044608DB05F10A004FF480610724D6
:10C3FC00FFF728FFB4600EE0C30701D4441C00E033
:10C40C0024B105F10A00A1B2FFF71CFF0349082271
:10C41C008A6000E00024204670BD00BFD8050020D3
:10C42C00024B012019690A22FFF7CCBED805002067
:10C43C0008B5FFF7C1FF18B9BDE80840FFF7AEBE5D
:10C44C0008BD000070B5384C4FF40030266902F07E
:10C45C0033FD05464FF4005002F02EFDA368062B69
:10C46C000BD1002D5ED000285CD04FF4083002F0C8
:10C47C0031FDBDE87040FFF7DBBFA16807291BD178
:10C48C0000284FD04FF4083002F024FD0321701D1A
:10C49C0003F035F9A0F58064A1B2234CCA0758BF4C
:10C4AC00A0F2FF31206958BF89B200F20A40FFF7B1
:10C4BC00C9FE0823A36070BDA268082A09D1002810
:10C4CC0030D04FF4083002F005FDBDE87040FFF7A6
:10C4DC0065BEA068052814D1002D23D013488021F7
:10C4EC0002F03CFF0028F9D14FF4083002F0F2FCC6
:10C4FC004FF480510E4802F01FFE0B4A022191604E
:10C50C0070BDA368042B0DD165B1A088E26805212C
:10C51C00A0F58063A16002F5806099B2BDE870401F
:10C52C00FFF7D2BE70BD00BFD80500200038004018
:10C53C00000C014008B5184BD869804700282AD157
:10C54C00164B9A6812B90120986008BD99680229A7
:10C55C000AD1062212484FF480519A6002F0EEFD87
:10C56C00BDE80840FFF75CBF9A68032A13D19A888C
:10C57C00B2F5806F06D805219960D968BDE80840EE
:10C58C00FFF720BE04209860D8684FF48061BDE8A6
:10C59C000840FFF799BE08BDCC120020D80500203A
:10C5AC00000C014010B50131002393420ED0040F52
:10C5BC00092C01D8303400E0373401F8014C013338
:10C5CC000024000101F8024BDBB2EEE710BD08B508
:10C5DC004FF000604FF4404102F0A8FB4FF4A06014
:10C5EC00BDE8084002F064BB10B5044645F2555056
:10C5FC0002F0F2FD062002F0F5FD42F210708442CA
:10C60C0028BF044628216143C1F30F2002F0F0FD3E
:10C61C0002F0F4FDBDE8104002F0F8BD082812D875
:10C62C00012907D10A4B0B4A53F8201032F810009D
:10C63C0008610AE049B9064B064A53F8201032F853
:10C64C001000486101E0FF2300E0002358B270475E
:10C65C00080000209418010837B50E4D044605EB70
:10C66C0080031869012102F0EBFD35F814000A4B28
:10C67C001021ADF804008DF80710032253F82400A4
:10C68C0001A98DF8062002F001FD20460021FFF7DC
:10C69C00C5FF3EBD941801080800002070B50121AB
:10C6AC0088B04FF4006002F0CBFD314B42F21070B9
:10C6BC001C686326B4FBF0F14A1E2E4C01A895B2FF
:10C6CC0002F09AFF01A802F097FF01A9ADF80450FF
:10C6DC0020460025ADF80860ADF80A50ADF80650BC
:10C6EC0002F042FE04A802F090FF02206023012613
:10C6FC00ADF8180004A92046ADF81030ADF8126062
:10C70C00ADF81650ADF81C5002F078FE20462946C4
:10C71C0002F0B4FF204604A902F0B4FE20462946DC
:10C72C0002F0B4FF204604A902F0F0FE2046294690
:10C73C0002F0B6FF204604A9ADF81050ADF8126017
:10C74C00ADF81650ADF8185002F022FF20462946DD
:10C75C0002F0AEFF2046314602F084FF20463146FF
:10C76C0002F05DFF2046314602F065FF08B070BD57
:10C77C0074000020002C0140104930B58C8DC0F3A2
:10C78C000743A2B2551C5D43FF22B5FBF2F40C4BE0
:10C79C00A5B29D808C8DC0F30725A4B201346C43E7
:10C7AC00B4FBF2F4A4B2DC80898DC0B289B2013141
:10C7BC004843B0FBF2F291B2598030BD002C0140DD
:10C7CC009C05002037B50F4D044605EB8003186B14
:10C7DC00012105EB440502F033FDB5F84000ADF83E
:10C7EC0004000CB9102100E01821074B8DF807103C
:10C7FC0003EB84040322206A01A98DF8062002F0C1
:10C80C0045FC3EBD941801080800002068B1E728DB
:10C81C0011D1094A094B918888B21887D18888B2FE
:10C82C009887528891B2998605E0054B4FF40052D7
:10C83C00186A0261704770479C050020002C01406B
:10C84C000800002098B1E72818D10D4B0D4A198F1C
:10C85C009088414088B21887998FD088414088B21F
:10C86C009887998E52884A4090B2988606E0064B7B
:10C87C00196ACA6882F40050C8607047704700BFDC
:10C88C00002C01409C05002008000020E72851D115
:10C89C00294B2A489A8891B269B1294B198F8AB2CF
:10C8AC000AB9012107E0198F9B8D89B29AB2531CEA
:10C8BC00994201D1FF2101701F48224BC28891B2CD
:10C8CC0069B11F48818F8AB20AB9012107E0818FB3
:10C8DC00808D89B282B2501C814201D1FF21197026
:10C8EC00154B19485A8891B269B1154B998E8AB279
:10C8FC000AB9012107E0998E9B8D89B29AB2531C1B
:10C90C00994201D1FF2101700D480C4B028F93F914
:10C91C0000108A1893B20B49038791F90030828F6B
:10C92C009A1891B2084A818792F90010838ECB181D
:10C93C009AB28286704700BF9C0500202E0F002003
:10C94C00002C0140ED0D0020EC0D002073B5104CB7
:10C95C000E4604EB400494F84C10054694F848003D
:10C96C0002F020FCB4F85040204602F0F9FA0948D5
:10C97C000023451995F83010684600948DF8043062
:10C98C008DF805108DF8066002F0AEFA7CBD00BF84
:10C99C009418010808000020F7B5224E8700F319FF
:10C9AC000546586D0C4640F00100012102F048FC90
:10C9BC001D4B06EB45065A1992F83210B6F85C007E
:10C9CC0002AADF198DF8031022F8080D6946786B5E
:10C9DC0002F05CFB012C23D11021002213481B27F1
:10C9EC0002F037FE00238DF8047001A802278DF8A1
:10C9FC0006308DF805708DF8074002F063F9B6F833
:10CA0C00601001A88DF804108DF805708DF80640A3
:10CA1C008DF8074002F056F928462146FFF796FF9D
:10CA2C00FEBD00BF9418010808000020002C014036
:10CA3C0010B501214FF0C05002F00EFC012002F0A5
:10CA4C00EDFBFFF7C4FD0120014602F0F9FB244881
:10CA5C00012102F075FB0024E0B20134FFF7FCFD6C
:10CA6C00082CF9D1FFF71AFE0020FFF7ABFE0120CE
:10CA7C00FFF7A8FE0220FFF7A5FE0320FFF7A2FE9A
:10CA8C0000200121FFF788FF164B4FF47A701A68CB
:10CA9C00154BB2FBF0F14A1E1449F0205A6081F894
:10CAAC002300002207209A601860CB68C3F3022091
:10CABC00011D0629C0F1070388BFC21E042B28BF25
:10CACC000423012000FA03F14B1E03F0030000FACB
:10CADC0002F2064B1101C8B283F8230010BD00BF4F
:10CAEC00000430007400002010E000E000ED00E0D5
:10CAFC00054A064B02EB800103EB4002486BB2F88F
:10CB0C005C1002F013BB00BF080000209418010851
:10CB1C00024B03EB4000018988B270479C05002052
:10CB2C00024B002203EB4000028170479C05002061
:10CB3C0030B5082087B0012102F082FB224C012184
:10CB4C004FF4804002F088FB18204FF4005301256D
:10CB5C008DF8030069462046ADF800308DF8025080
:10CB6C0002F094FA4FF40041ADF8001020466946EB
:10CB7C0002F08CFA04234FF4804220466946ADF84B
:10CB8C0000208DF8033002F081FA0020ADF804008B
:10CB9C004FF48271ADF80800ADF80A00ADF8120040
:10CBAC000720ADF806104FF400722023ADF81400E6
:10CBBC0001A90648ADF80C50ADF80E20ADF81030B8
:10CBCC0002F098FB07B030BD000C0140003800406B
:10CBDC0070B5044601208CB00E460146154602F095
:10CBEC0023FB124B002080224FF44051012C019367
:10CBFC000296059006920790089009900A910B9066
:10CC0C0006D103900A48049502F0A8F8084807E0FA
:10CC1C004CB9102307480393049502F09FF805487C
:10CC2C0001A902F013F90CB070BD00BF0C38004024
:10CC3C00440002405800024073B50F230124002524
:10CC4C0001A88DF804308DF805508DF80650174E5C
:10CC5C008DF8074002F036F8FFF76AFF20462A46A7
:10CC6C001349FFF7B5FF28462A461249124DFFF724
:10CC7C00AFFF30460221224602F013F92846214626
:10CC8C00224602F062FB22462846022102F05DFB9E
:10CC9C002846214602F04DFB2146084802F0F6F8E2
:10CCAC003046214602F0F2F87CBD00BF580002402D
:10CCBC00EC090020EC050020003800404400024044
:10CCCC0010B504462146044802F0E0F8034821461A
:10CCDC00BDE8104002F0DAB84400024058000240AF
:10CCEC0008B54FF40061024802F020FA08BD00BFFD
:10CCFC00000C014030B5092085B0012102F0A0FAEA
:10CD0C004FF400644823694614488DF80330ADF89D
:10CD1C00004002F0BBF90B21012002F043FA20463F
:10CD2C0002F01EF90C200294002501248DF80D0050
:10CD3C0002A88DF80C508DF80E4002F0D5F8282181
:10CD4C0001A88DF804108DF805508DF806408DF86B
:10CD5C00074001F0B7FF05B030BD00BF000C01402B
:10CD6C001FB52823002401A88DF804308DF8074046
:10CD7C0001F0A8FF4FF40060029002A88DF80E405D
:10CD8C0002F0B2F81FBD000020B105484FF48071CD
:10CD9C0002F0D2B902484FF4807102F0CFB900BF53
:10CDAC00000C014037B5114C0820012102F048FA63
:10CDBC00102003234FF480558DF8070001A920465D
:10CDCC008DF80630ADF8045002F060F92046294683
:10CDDC0002F0B2F94FF48071ADF80410204601A9AD
:10CDEC0002F054F90020FFF7CFFF3EBD000C0140CC
:10CDFC0020B105484FF4806102F0A0B902484FF40D
:10CE0C00806102F099B900BF000C014070B51D4A59
:10CE1C00137E012B34D0D069B0F5807F01D1002175
:10CE2C00D161D36952691748934202D1002101762E
:10CE3C0070BD8CBFC3F58072C3EB0202114C026251
:10CE4C00256A99B2402D05D94033403DE3612562F6
:10CE5C00402604E0E8180023AEB2E06123620A4ADF
:10CE6C0001255018C0213246257601F0C5FD284613
:10CE7C00314601F0CBFE2846BDE8704001F034BECF
:10CE8C0070BD00BF9C0500202E0E0020094B10B574
:10CE9C0093E814000833186810180AD008220649C1
:10CEAC00FFF780FB054920460422BDE81040FFF740
:10CEBC0079BB10BDE8F7FF1F8A0000209A00002004
:10CECC00BFF34F8F054A064BD16801F4E06040EA8E
:10CEDC000301D160BFF34F8FFEE700BF00ED00E010
:10CEEC000400FA0500230360184670470023036012
:10CEFC0018467047002303601846704748F2020337
:10CF0C00984210B517D007DC992849D0591E884291
:10CF1C0049D10122244845E048F2100398422FD011
:10CF2C00703398423FD1214A214801211170017080
:10CF3C000022204836E01C4C22783AB14FF47F4056
:10CF4C00FFF71AFCE720FFF761FC07E01A4B187893
:10CF5C0008B1411E01E0194B01211970184A1949F9
:10CF6C00194B0020087010701870184A184B0121CA
:10CF7C0010701970174A184910702070087010BD85
:10CF8C000B7D0F4853B9012101704FF47F40FFF71F
:10CF9C00F3FBE720BDE81040FFF738BC002201E0AE
:10CFAC000E480122027010BD320F0020640F0020C9
:10CFBC00740F0020C0050020330F0020480F002004
:10CFCC005D0F00204B0F0020560F0020550F002046
:10CFDC006C0F00205C0F00205E0F0020300F002033
:10CFEC00024B18601A68002AFCD17047500F0020C1
:10CFFC00054B06481A88064902800B88054A43806F
:10D00C0011888180704700BF004C00084800002048
:10D01C00024C0008044C000810B501F0BDFF342090
:10D02C0001F0CEFF0F4802F013F8042819D10E4C72
:10D03C000C48218801F0F0FF042811D10B486188BD
:10D04C0001F0EAFF04280AD10948A18801F0E4FFA5
:10D05C00042803D1BDE8104001F0AABFFEE7FEE7AB
:10D06C00FEE7FEE7004C000848000020024C0008D8
:10D07C00044C000838B5604B60491A68501C1860A5
:10D08C000C6814B10B685A1E0A605D4C206810B114
:10D09C002268531E06E05B4D297829B1E720FFF783
:10D0AC00F5FB1923236019E0574B1A784AB9574BF3
:10D0BC001A7812B1E720FFF7C5FB514964200860CC
:10D0CC000CE0534C607848B94FF6FF70FFF754FBF7
:10D0DC00E720FFF79BFB0121297061700020FFF70F
:10D0EC0017FD40F6B731884209D90020FFF718FD2B
:10D0FC0048494FF6FF744C80FFF78EFF27E04648F7
:10D10C000368B3F57A7F04D30023036002F076F84A
:10D11C0002E00268511C0160404802781AB3404991
:10D12C000B7803BB3F480278BAB93F4B47F22F52FA
:10D13C00186890420DD93D4D02242C702D783C4B33
:10D14C00012103F8015F0E200A4602F043FFFFF7AE
:10D15C00B7FE1968481C186005E00178022902D94D
:10D16C00324D0324E9E72E4B1A78002A43D02D4C7C
:10D17C00217811B10023237001E02B4801602D4C64
:10D18C0001222D4922700868C72807D900250D6097
:10D19C0000F078FCA84204DA257002E00B685A1CF7
:10D1AC000A601949087868B1244B43F6972219682C
:10D1BC00914204D900221A601E4B1A7002E01868C2
:10D1CC00411C19601B480178012914D0174B04220B
:10D1DC001A701878164B012103F8010F0A460E201D
:10D1EC0002F0F8FE00F028FB0D4B074A0D48002119
:10D1FC0019701170017038BD700F0020500F002095
:10D20C004C0F00205C0F0020550F00206C0F0020ED
:10D21C00C005002048000020440F0020320F0020E1
:10D22C004B0F00205E0F0020680F0020310F0020F4
:10D23C00330F0020560F0020600F0020580F0020E5
:10D24C001FB50A224FF461504FF461613C230A4C24
:10D25C008DE80F004FF6FF732380FFF7DDFE684665
:10D26C0001A902AA03AB02F043FE4AF6AA202080D1
:10D27C00FFF7D2FE1FBD00BF48000020394B002035
:10D28C0039493A4A10B51870394C3A4B087010703D
:10D29C00014602462070187003F082FD20780128A8
:10D2AC0005D16420FFF79CFE02F084FBF6E7102109
:10D2BC000C2002F0DBFE304803F0A2FA2F4803F0FA
:10D2CC00E3FE012003F0C4FEFF20FFF755FAE72030
:10D2DC00FFF79CFA2A4900240C70224AE7201378A5
:10D2EC002BB9FFF7AFFA6420FFF77AFEF5E7254C70
:10D2FC00FFF78CFA0121002223460E2002F03CFE9F
:10D30C0003F0E0FE013001210022234620700E20A4
:10D31C0002F060FE00200122014603F041FD1A4B91
:10D32C004BF6BB325988914202D05A80FFF774FEFB
:10D33C0003F0BCFC1548002404706420FFF750FE79
:10D34C00204603F069FC48F2442003F04FFE4FF4F2
:10D35C007F40FFF711FAE720FFF758FA084B01223C
:10D36C001A7010BD640F0020740F00205D0F002098
:10D37C00320F0020300F0020F81801084E0000205A
:10D38C006C0F0020330F002048000020480F0020B5
:10D39C007FB5FFF74DFB6FF07F40FFF7EDF9E7200E
:10D3AC00FFF734FA7D2001F063FF20B1964B012288
:10D3BC001A7001F071FF40F6B830FFF715F9FFF75E
:10D3CC0017FE92488188B1F5404F04D04FF4404489
:10D3DC008480FFF721FE8C4D2E78012E03D08C4AD1
:10D3EC000AB1FEF7B5FEFFF7DDFC8A4CFFF724FC13
:10D3FC00894B8A488A498B4A009301908A4B029147
:10D40C008A488B49039403F0F3FB6420FFF7E8FD93
:10D41C00002003F001FC48F2442003F0E7FD0E204D
:10D42C0010210022834B02F0A7FD60B1FF2003F016
:10D43C00C3FD10210E2002F019FE0E201021002237
:10D44C007C4B02F0C7FD7B4D7B4A6E7816701378CF
:10D45C00E3B14FF47F00FFF78FF9E720FFF7D6F920
:10D46C00754C207850B1E720FFF7ECF92178FA20C1
:10D47C004A1ED6B22670FFF7B3FDF1E76D4B0121C2
:10D48C0003F8010F0A460E2002F0A4FD5F4D4AF688
:10D49C00AA2629882C46B14201D0FFF7D1FE674A53
:10D4AC00137853B960884BF6BB35A84202D1614959
:10D4BC000E7816B9624A01241470624802F0BCFD61
:10D4CC005E4B187810B95E4D297811B94FF47F4036
:10D4DC0000E0FF205C4CFFF74FF90126E720FFF737
:10D4EC0095F92670564A137813B1FFF7C7FE15E06D
:10D4FC00524D287890B155490E787EB93146324656
:10D50C003046534C03F04CFC08220192009403204B
:10D51C0050490422334603F0DFFB2E70464B1D7836
:10D52C000DB34949002008704FF47F00FFF724F930
:10D53C00E720FFF76BF9404E347854B1E720FFF742
:10D54C0081F933785C1EE0B23070FA20FFF748FDA9
:10D55C00F1E74FF47F40FFF70FF9E720FFF756F99B
:10D56C00394B01221A703C4D2878012816D13749C5
:10D57C000E78012E12D1394C2278012A0ED10325B6
:10D58C00374804F0C1F8364982B2012003F0FAFAA8
:10D59C006B1E13F0FF05F3D12F4805702B490E7845
:10D5AC00BEB1304C2678A6B94FF6FF70FFF7E4F801
:10D5BC00E720FFF72BF9244A01252B4B157018781F
:10D5CC004119CAB21A7000F007F90028B4BF2670CE
:10D5DC002570244C2678002E84D0244D2B78002BDB
:10D5EC0080D0094C2078012803D0214909B1FEF7DD
:10D5FC00B0FD2278012A3FF475AF1E4E3568002D20
:10D60C003FF470AFA8476DE7540F0020480000208E
:10D61C005DC1000895CD0008EDCC000801CD0008D7
:10D62C006DCD0008F9CE000801CF000809CF000825
:10D63C00F1CE0008330F0020310F0020C005002070
:10D64C00480F0020490F00206C0F00205D0F0020B8
:10D65C001A1C0108151C0108740F0020320F002041
:10D66C00510000204B0F00205E0F0020550F0020B2
:10D67C005FC100089811002008B5064B4FF4A04478
:10D68C009C80FFF7C9FC2820214601F059FBFFF7CD
:10D69C0017FC00BF480000200346A0F13000C0B2C8
:10D6AC00092817D9612B0CD0622B0CD0632B0CD012
:10D6BC00642B0CD0652B0CD0662B14BF00200F20D4
:10D6CC0070470A2070470B2070470C2070470D20C4
:10D6DC0070470E2070472DE9F041C0B00F468046D0
:10D6EC001646684600214FF480721D4603F00AFE70
:10D6FC004FB1384604F008F80446394668462246CD
:10D70C0003F052FD00E03C4666B1304603F0FCFFEE
:10D71C0000AB02463146181903F046FD304603F0C3
:10D72C00F3FF041965B1284603F0EEFF024600A88A
:10D73C000019294603F038FD284603F0E5FF0419CB
:10D74C000A210DF8041040466946621C002303F0C0
:10D75C000FFA40B0BDE8F0811FB5194B002B2ED04D
:10D76C001848002404601848AFF3008020B9302317
:10D77C008DF80430012316E0024623460A215C1C76
:10D78C0092FBF1F2E3B2002AF8D101A9C9180A24DC
:10D79C0090FBF4F204FB12000C4C205C01F8010D20
:10D7AC001046002AF3D104A9C818094B09490022D4
:10D7BC0000F80C2C18680A1D01ABFFF78CFF1FBD7D
:10D7CC000000000098110020981000205800002044
:10D7DC007C0F00200919010810B502200121062236
:10D7EC0003F036F8114C002820601BDB1049022294
:10D7FC000A801D222323CA70EB228B704A713623B8
:10D80C00F9220B71CA714F2310228B7103F074F83B
:10D81C00002807DB0022206806491346BDE81040AB
:10D82C00FFF759BF4FF0FF3010BD00BF7C0F002039
:10D83C00801000201719010810B5044C206803F063
:10D84C0035F810B94FF0FF33236010BD7C0F00206A
:10D85C00264BF7B51C682CB9254821464FF480722D
:10D86C0003F050FD234F01213868234D00F01F02B7
:10D87C0001FA02F3460945F82630204B4FF4FA72B0
:10D88C00C4F1FF0600245A601C604018009329461E
:10D89C002246234603F05CF8A04202DC002E22DC78
:10D8AC001CE03868410955F8212000F01F0342FAAA
:10D8BC0003F1CB07F2D50D4D0D4F2B683246F918FD
:10D8CC00234603F0DDF800280EDB2A680A21101825
:10D8DC002860384603F0ACFD0028DFD00349002354
:10D8EC0008680B6000E00020FEBD00BFC4050020EE
:10D8FC00800F00207C0F0020780F0020901000205B
:10D90C0070B54D4C032220464C4903F02DFF0246C6
:10D91C0018B94B4B4B49186816E020464A4905226A
:10D92C0003F022FF90B9494803780BB9012101702B
:10D93C00474A48480023136002784149086812B1ED
:10D94C0045491A4672E0404913466FE02046434968
:10D95C00062203F009FF10B9FFF78EFE6AE0404D76
:10D96C00204605F10B01062203F0FEFE064690B997
:10D97C00A0796874FFF790FE0121FEF74FFE304A44
:10D98C00034610681BB9374905F10B024EE03649C6
:10D99C0005F10B0219E0204605F11301052203F0F5
:10D9AC00E3FE064698B960792876FFF775FE314696
:10D9BC00FEF734FE2249034608681BB9294905F1D4
:10D9CC00130233E0284905F1130233462EE02046BA
:10D9DC002649092203F0C8FEF0B904F109000A2116
:10D9EC0003F026FD30B110F8011C0D2908BF0138D9
:10D9FC000022027000214FF480721D4803F082FC5B
:10DA0C001C4803F081FE1B490246194803F0CCFB6D
:10DA1C0019481A4B18600DE02046194903F086FD91
:10DA2C0040B1074B1049186822460023BDE87040EE
:10DA3C00FFF751BE002070BD800F00201E19010899
:10DA4C007C0F00202219010832190108550F002003
:10DA5C00580F0020540F00203819010840190108F4
:10DA6C005800002009190108471901080D1901086F
:10DA7C0098100020890F002065D70008981100200D
:10DA8C004D19010808B5FFF7E3FE002803DDBDE8DA
:10DA9C000840FFF735BF08BD7047FEE7FEE7FEE71D
:10DAAC00FEE7704770477047FFF7E4BA08B50120EE
:10DABC0001F004FC30B1012001F012FCBDE808407B
:10DACC0001F0F2BB08BDFEF7BDBC000008B5042098
:10DADC0001F04CFA78B1042001F058FA0020064B02
:10DAEC0001461880FEF732FF044810210122BDE8E0
:10DAFC00084001F0AEBD08BDA4050020002C01407B
:10DB0C0008B54FF4006001F031FA38B14FF4006001
:10DB1C0001F03CFABDE80840FEF70CBD08BD000062
:10DB2C0008B50F48102101F0CDFDC0B10C481021F3
:10DB3C0001F0D3FD0020FEF7DBFF28B9094B1A8852
:10DB4C000A3290B2188008BD10210548002201F05D
:10DB5C0080FD00200121BDE80840FEF7F7BE08BD9E
:10DB6C00002C0140A405002000F0E0B83A4B82B034
:10DB7C001A6842F0010018605968384A0A405A6025
:10DB8C00186820F0847121F480321A60186820F42F
:10DB9C00802119605A684FF41F0122F4FE00002204
:10DBAC005860996000920192186840F480311960B5
:10DBBC00294B1A6802F40030019000994A1C00921B
:10DBCC00019818B90099B1F5A06FF1D11B6813F445
:10DBDC00003218BF012201920198012805D0204B78
:10DBEC004FF000629A6002B070471E490B6843F018
:10DBFC0010020A60086820F003030B600A68A1F5A4
:10DC0C00805342F002000860596859605A685A60A3
:10DC1C00586840F4806159605A6822F47C1058604E
:10DC2C00596841F4E8125A60186840F08071196024
:10DC3C001868094A8101FBD5536823F00301516030
:10DC4C00506840F002035360034A516801F00C0025
:10DC5C000828F9D1C3E700BF001002400000FFF80C
:10DC6C0000ED00E00020024038B514490B78012B80
:10DC7C0023D1134A13680BB90B7038BD114C402BD0
:10DC8C00206881B205D94030403B206013604025AC
:10DC9C0004E09DB2C3180020236010600A4A50189B
:10DCAC00C0212A4600F0A8FE0120294600F0AEFF54
:10DCBC000120BDE8384000F017BF38BDB405002086
:10DCCC00BC050020B80500202E0E0020094908B51F
:10DCDC000020094B0122088003201A7000F0C2FFBB
:10DCEC00064B0246188006484FF48871BDE8084080
:10DCFC0000F099BEAC050020A8050020AA05002064
:10DD0C00EE0D0020074B1868052809D1064B1A6840
:10DD1C00511C052A196003D100201860FFF776B852
:10DD2C00704700BFD0050020C805002038B5194B3E
:10DD3C00194A1968194D88B2108014882988214015
:10DD4C0001F4007082B24AB14FF6FF541C60144BC0
:10DD5C001D78691CC8B21870FFF7D4FF0E4A0F4B20
:10DD6C0014881D88254005F4004188B215461C46D0
:10DD7C0008B100F07BFD2A882388134003F48061EE
:10DD8C0088B230B1034B07494FF6FF321A6048682E
:10DD9C00804738BD445C00409C110020D01100200D
:10DDAC00CC05002014010020034B987A10B10349D4
:10DDBC0005220A60704700BFAC110020D00500207E
:10DDCC00014B04221A607047D0050020034B1A78CF
:10DDDC00202A01D100201870704700BFCD0500200B
:10DDEC0070470000212810B508D111480368197834
:10DDFC0001F07F02212A11D0022010BD2028FBD176
:10DE0C000B4B19680A780B4902F07F030A4A212B45
:10DE1C000CBF0B46002310700BB9EDE7074B044CFD
:10DE2C00206800248361448220469847204610BD18
:10DE3C00CC11002099DE0008CD05002081DE000801
:10DE4C00074B19680A7802F07F03212B05D10228B1
:10DE5C0001D1002070472228FBD00220704700BF60
:10DE6C00CC11002009B1022070470128FBD80846CC
:10DE7C007047000020B9034B082219680A827047CA
:10DE8C0001487047CC110020DC00002020B9034B66
:10DE9C00082219680A82704701487047CC1100208B
:10DEAC00DC000020054B1968CA78042A04D8044BFE
:10DEBC0003EBC20100F076BA00207047CC110020B1
:10DECC00E4000020014900F06DBA00BF04010020FD
:10DEDC00014900F067BA00BF0C010020334A344BF3
:10DEEC00D179186810B5002441728472C47220462E
:10DEFC0000F0ACFD20464FF4007100F0AFFD102196
:10DF0C00204600F0B7FD4021204600F053FE802152
:10DF1C00204600F03FFE204600F008FE254B204630
:10DF2C0093F8641000F080FE204600F0EEFD012016
:10DF3C00214600F093FD0120C02100F02BFE0120B2
:10DF4C00202100F097FD0120214600F0B0FD0220B9
:10DF5C004FF4C06100F082FD02204FF4807100F09C
:10DF6C0019FE0220214600F0A2FD0220202100F023
:10DF7C0081FD0320214600F071FD03204FF48871D0
:10DF8C0000F018FE0320402100F04EFE03204FF459
:10DF9C00405100F08CFD0320214600F06BFD204623
:10DFAC0000F012FC044A0120106010BDB5190108E4
:10DFBC00CC110020DC000020D005002010B5FEF7AD
:10DFCC0065FF054B00241868847200F009F800F016
:10DFDC005FFE02490C6010BDCC110020D005002062
:10DFEC0008B50120FEF704FF064B0749012200206B
:10DFFC001A601860086005494FF4E0520A801A60F4
:10E00C0008BD00BF405C0040445C0040D0110020C3
:10E01C0010B5064C18B9236801221A8210BD044BA6
:10E02C0018680168884720680A3010BDCC110020A0
:10E03C00C811002010B5064C18B9236801221A82A9
:10E04C0010BD044B18688168884720680C3010BDDF
:10E05C00CC110020C811002008B5234A18B9136848
:10E06C0002221A8208BD214B0020126818801178F8
:10E07C0011F07F0113D1507A00F02002D1B209B116
:10E08C0002221A7000F04003D8B2184B18B11A785B
:10E09C0042F001011EE0197821F001011AE001297A
:10E0AC001FD002291ED1507900F00F024FEA8201D5
:10E0BC0010F0800F01F1804000F5B842116803D0D8
:10E0CC0001F03002102A03E001F44050B0F5805FFB
:10E0DC0001D101211970064B186801698847034862
:10E0EC0008BD184608BD00BFCC1100209E110020B1
:10E0FC00C8110020F8B5224B1C68238A267AABB9CC
:10E10C00042E13D11F48017801291F490AD11F4C35
:10E11C00226894B21E4AA2185200136030220A8060
:10E12C00037028E010260E80072624E0A58AA1693A
:10E13C00AB428CBF022604269D4228BF1D462846B2
:10E14C0088470746002000F045FD2A460146384620
:10E15C0000F052FC2946002000F058FD208A638A0A
:10E16C00421BED1808480B4B228230214FF44052D1
:10E17C00018065821A80024B18680672F8BD00BFD8
:10E18C00CC110020D4050020D4110020505C00409C
:10E19C0002300020D211002010B50A4B0A49186831
:10E1AC004B78C27893420AD3817841B9848834B9C8
:10E1BC0082720648026853689847204610BD0220B8
:10E1CC0010BD00BFCC11002068010020C811002038
:10E1DC0038B50E4A0E4C106823688269D978587984
:10E1EC00904721688B7A7BB170B9087960B98D78CA
:10E1FC0055B9084A1168CB68984720684279C178AC
:10E20C00C2720173284638BD022038BDA41100200B
:10E21C00CC110020C811002010B5324B1B681878A7
:10E22C0010F07F0004D15A7A22F02001597210BDEF
:10E23C00022855D15A88002A53D11979002950D176
:10E24C005A7922F080004FEA800404F1804101F5F4
:10E25C00B8442168244C12F0800F247814BF01F0CC
:10E26C00300101F44051A0423AD2002938D09B7AB7
:10E27C00002B35D0840002F0800204F18043D1B22F
:10E28C0003F5B844226861B102F03002102A21D1A2
:10E29C00C4B2204600F06BFC2046302100F0EAFBB3
:10E2AC0018E002F44051B1F5805F13D128B90F4B3F
:10E2BC0093F82C1000F0B8FC01E000F046FC20684C
:10E2CC004BF68F72024082F4405141F4004343F00C
:10E2DC008000206006490B6858698047002010BDFB
:10E2EC00022010BDCC110020680100201401002078
:10E2FC00C811002010B51F4B19684A7922F0800311
:10E30C004FEA830000F1804404F5B8401A4C0068D1
:10E31C00247812F0800F14BF00F0300000F440504D
:10E32C00A34224D24C8814BB08B3897AF9B19B0060
:10E33C0003F1804102F0800201F5B843D0B21968B4
:10E34C0028B148F6BF720A4082F0100004E04BF688
:10E35C008F720A4082F4805040F4004141F08000FA
:10E36C001860064B1A6891698847002010BD02207E
:10E37C0010BD00BFCC11002068010020C811002086
:10E38C0008B5064B1868064B427A42F020014172E0
:10E39C001868C2699047002008BD00BFCC1100204E
:10E3AC00C8110020054B1A68538A18B98988CB1AF2
:10E3BC00138270470868C018704700BFCC1100204A
:10E3CC0008B50B4B002093F82C1000F02DFC0948DD
:10E3DC000168087A082806D1074B4FF480521A803E
:10E3EC00064A10211180B0F109035842584108BD6A
:10E3FC0014010020CC110020D2110020D4110020D7
:10E40C0070B52E4B1C68207A02284FD004284DD0B2
:10E41C00032801D0052843D1A169208AA9B1A0B154
:10E42C00A58A854228BF054628468847228A064683
:10E43C00608A531B291861822382002000F0D8FBCC
:10E44C002A460146304600F0EEFA228A52B11C4BA5
:10E45C004FF4405018800020014600F0D7FB194AB9
:10E46C0030211180208AA38A1449834202D80B6878
:10E47C00032202E018B10B6805221A720CE00A683C
:10E48C000623114913720A68104993B25A185300A3
:10E49C000C49186030200880084801680B7A06E0A7
:10E4AC00072803D10A490A68D36898470823034A06
:10E4BC0010680372BDE87040FFF782BFCC110020DA
:10E4CC00D2110020D4110020505C004002300020FA
:10E4DC00A4110020944B73B51A68944990B2441857
:10E4EC00934E65002A6835682B7A092B15D090B2AB
:10E4FC00410001F1804404F5C04422782A7063780D
:10E50C006B70A08800F0BEFB68802089356800F035
:10E51C00B9FBA880A0893168C880854D01242B687F
:10E52C00DA881C725C78002A64D1187810F07F02AB
:10E53C0038D1092C02D1FFF72FFE45E0052C0FD165
:10E54C0093F90320002A01DA08214FE09978002979
:10E55C00FAD198880028F7D19B7A002B38D0F3E7B2
:10E56C00032C10D1D878012807D0724A20461168A4
:10E57C004B699847032829D137E09B88002BF4D1AD
:10E58C00FFF7FEFE20E0012CEFD1D9780129ECD168
:10E59C0098880028E9D15B7A03F02002D1B20029D7
:10E5AC00E3D00AE0012A04D10B2CDED1FFF710FED8
:10E5BC000AE0022AD9D1012C02D1FFF72DFE03E08B
:10E5CC00032CD2D1FFF796FE10B1CEE70028BBD1B9
:10E5DC005548594B026891B2C818584B410000225B
:10E5EC0030200A601880062100E00921504A10688A
:10E5FC000172D3E0062C13D11C7861067AD19A787B
:10E60C004C4B012A02D11C68E36969E0022A02D151
:10E61C001868036A64E0032A6CD119684B6A5FE0DE
:10E62C00002C3ED15988002964D1586820F47F42CF
:10E63C00B2F5003F5ED11C7814F07F0004D19888AD
:10E64C00002800F0AE8055E001280CD1394A5879E9
:10E65C001468A269904700284CD12B68997A00293C
:10E66C0040F09F8046E0022844D15B7903F00F0113
:10E67C004FEA810202F1804404F5B840304C026844
:10E68C00207813F0800F14BF02F0300202F44052D5
:10E69C0081422FD213F0700F2CD1002A40F08180D0
:10E6AC0028E0082C03D119784A067CD022E00A2CE9
:10E6BC0020D1187800F07F0101291BD19C7ACCB1B4
:10E6CC005988B9B95A6822F47F40B0F5803F11D10E
:10E6DC00184C587922689469A047002865D009E045
:10E6EC0043B113480024016820464C828B61984743
:10E6FC0020460AE00F4A0E4C116823680A695878C4
:10E70C009047032801D1236806E0094B4FF6FF71AF
:10E71C001B681A8A8A4201D1092103E0022800D021
:10E72C0082B90821197239E0505C00400430002095
:10E73C00CC110020A411002002300020D4110020A4
:10E74C006801002093F90000002821DAD988019192
:10E75C000198824202D9019A1A8211E08A420FD2A0
:10E76C001349086890F82C108A4201D2002105E068
:10E77C0092FBF1F001FB102212B901210D4801703E
:10E78C000B49086890F82C209A82FFF7B3FC05E03F
:10E79C0003221A72084B4FF440511980FFF710FEF8
:10E7AC007CBD064B9DE7064B9BE7064B99E700BFEC
:10E7BC00A4110020D4050020D211002065E000082F
:10E7CC001DE0000841E0000870B50D4B1C780023DB
:10E7DC00A34210D203F1805202F5B855A90043F4BC
:10E7EC0000420E6842F0800540F60F7232402A4318
:10E7FC000A600133ECE7034940F08000086070BD0B
:10E80C00680100204C5C004010B514490B680C46A4
:10E81C001A7A022A01D0042A04D1FFF76BFC216872
:10E82C00087A13E0062A10D15878052809D11978EE
:10E83C00480606D1D878FFF7C7FF094B1A68106A4B
:10E84C00804708490B689A6890470820034B1A6860
:10E85C001072BDE81040FFF7B3BD00BFCC11002013
:10E86C00C8110020A41100207047000037B5002308
:10E87C00ADF806305848594B026891B21204198011
:10E88C0040F1A8801888564900F00F020A70002A3F
:10E89C006ED1544C2568AAB2534D2A802988534A0C
:10E8AC0001F03000108029884BF6BF7201F4405003
:10E8BC00288021680A4082F4005080F0200141F445
:10E8CC00004242F0800020601B8803F010018AB2E5
:10E8DC003AB9226848F60F7010402060FFF794FF99
:10E8EC001DE0206883B2ADF80630BDF8061001F4C7
:10E8FC00006290B238B1216840F68F730B402360F0
:10E90C00FFF7E8FD0BE0BDF8063019B20029B1DACB
:10E91C00226840F68F7010402060FFF771FD21686F
:10E92C002A884BF6BF7302F480500B4081B209B1B8
:10E93C0083F480532C4A108800F400518AB20AB137
:10E94C0083F400532948018801F0100291B209B1F7
:10E95C0083F01003008800F0200291B209B183F01B
:10E96C00200343F400401F4A40F08001116031E065
:10E97C00930003F1804000F5B843196888B2ADF8F4
:10E98C000600BDF8061008B2002809DA186840F62F
:10E99C008F7101401960164B013A53F822008047E1
:10E9AC00BDF8061001F0800293B2002B3FF462AF69
:10E9BC000B480278910001F1804303F5B8410868D7
:10E9CC0048F60F7303400B600A49013A51F82200D4
:10E9DC0080474FE73EBD00BF445C00409C110020C7
:10E9EC00A8110020005C0040D2110020D41100209E
:10E9FC00A4000020C000002030B501F1005101F549
:10EA0C00405301325900521000230230934209D076
:10EA1C0010F8015C10F8024C44EA052421F823405C
:10EA2C000133F2E730BD01F1005110B5013201F5AF
:10EA3C004054521064000023934205D054F8231024
:10EA4C0020F813100133F7E710BD00004FF6F873F0
:10EA5C00014A034013607047505C0040800000F195
:10EA6C00804202F5B842106848F68F1303401943F0
:10EA7C0011607047800000F1804202F5B8421068C6
:10EA8C0048F6BF73034001F0100080B208B99BB286
:10EA9C0001E083F0100301F0200188B208B183F08B
:10EAAC00200343F4004141F0800010607047800067
:10EABC0000F1804202F5B84210684BF68F730340A8
:10EACC0001F4805080B208B99BB201E083F480530A
:10EADC0001F4005188B208B183F4005343F40041AF
:10EAEC0041F0800010607047800000F1804202F518
:10EAFC00B840016848F6BF730B4083F0300242F413
:10EB0C00004141F0800303607047800000F18042B7
:10EB1C0002F5B84001684BF68F730B4083F44052FA
:10EB2C0042F4004141F0800303607047800000F123
:10EB3C00804202F5B840016840F60F630B4043F485
:10EB4C00004242F0800101607047800000F1804378
:10EB5C0003F5B8400268510408D5016840F60F73FC
:10EB6C000B4043F4404242F080010160704780004A
:10EB7C0000F1804303F5B8431A68500608D51968AC
:10EB8C0040F60F70084040F4004242F0C00119609A
:10EB9C0070470000064B49081A6893B203EBC0009B
:10EBAC0000F1005202F5405358004A0002607047D1
:10EBBC00505C0040054B49081A6893B2044A03EBB9
:10EBCC00C000831858004A0002607047505C004037
:10EBDC0004300020054B19688AB202EBC00000F12A
:10EBEC00005303F540514A0010887047505C0040B8
:10EBFC00044B1968044B8AB202EBC000C1184A00DE
:10EC0C0010887047505C004004300020044B1A6898
:10EC1C0093B2044A03EBC00083185800016070479C
:10EC2C00505C0040023000200C4B1A6893B20C4A26
:10EC3C0003EBC00083185A003E2908D94B09C906BA
:10EC4C0001D1581E83B2990241F4004104E04B08F3
:10EC5C00C80748BF0133990211607047505C0040EF
:10EC6C0006300020054B1968054B8AB202EBC00038
:10EC7C00C1184A0010688305980D7047505C00401D
:10EC8C0006300020C3B2000A40EA0320704700009F
:10EC9C00044B00201860044A044B4FF406411180C9
:10ECAC0019607047445C0040D0110020405C00406B
:10ECBC0040F0BF60024B40F40031D960704700BF98
:10ECCC0000ED00E0C37810B503B3164CE168CB43FC
:10ECDC00C3F302244178C4F1040201FA02F10F22B9
:10ECEC0022FA04F28478037822400A43110103F1DA
:10ECFC006043CAB203F5614181F800230078012218
:10ED0C0000F01F03410902FA03F007E0007801222A
:10ED1C0000F01F03410902FA03F02031024B43F8C3
:10ED2C00210010BD00ED00E000E100E021F06041A9
:10ED3C0021F07F02014B10439860704700ED00E01A
:10ED4C00054A82B0002301930192019BC0180190E7
:10ED5C00019A116002B07047006C004002684FF6D7
:10ED6C00FE73134003602D4B0021984201604160FB
:10ED7C008160C16022D02A49884229D0294B98420F
:10ED8C0030D02949884237D0284B98423ED0284B66
:10ED9C00984206D153F8681C41F4700043F8680C93
:10EDAC0070472449884206D151F87C0C40F07062BF
:10EDBC0041F87C2C7047204B984206D153F8042C18
:10EDCC0042F00F0143F8041C70471C49884206D1DD
:10EDDC0051F8183C43F0F00041F8180C7047184BF0
:10EDEC00984206D153F82C2C42F4706143F82C1C39
:10EDFC0070471449884206D151F8403C43F47040A6
:10EE0C0041F8400C7047104B984205D153F8542CE4
:10EE1C0042F4702143F8541C704700BF08000240B4
:10EE2C001C000240300002404400024058000240E6
:10EE3C006C00024080000240080402401C040240A6
:10EE4C0030040240440402405804024070B5066885
:10EE5C008C680D6A26F4FF4222F070060A6945EAB6
:10EE6C0004034C6913438A692343CC6913431C4341
:10EE7C004B6A44EA03028B6A1A4332430260CB6842
:10EE8C000A68496843608260C16070BD19B101684D
:10EE9C0041F0010303E002684FF6FE731340036078
:10EEAC00704703680AB1194301E023EA01010160CC
:10EEBC007047406880B27047C3004CBF034B044B93
:10EECC00196801420CBF0020012070470004024069
:10EEDC0000000240C2004CBF014B024B586070470F
:10EEEC000004024000000240837910B5002B29D0A9
:10EEFC001A4B01681C68CA4314401C605C682240B1
:10EF0C005A60027902F1804404F58232146821437C
:10EF1C00116002689C68D1430C409C60DC684079AD
:10EF2C0021401028D96006D1986810439860D968A0
:10EF3C000A43DA6010BD00F1804303F5823319688F
:10EF4C000A4308E00179006801F1804202F582333E
:10EF5C001A6822EA00021A6010BD00BF00040140CA
:10EF6C00014B5861704700BF00040140064B1A6802
:10EF7C00596910EA010304D010420CBF0020012093
:10EF8C0070471846704700BF00040140014B5861A0
:10EF9C00704700BF00040140034A044B02F1883063
:10EFAC005A605860704700BF23016745002002403B
:10EFBC00024B1A6942F08000186170470020024031
:10EFCC00014BD860704700BF00200240084BDA6844
:10EFDC00D20709D4D868400708D4D96811F0100FAB
:10EFEC000CBF04200320704701207047022070479B
:10EFFC000020024010B50446FFF7E8FF012806D1B7
:10F00C001CB1FFF7E3FF013CF8E7052010BD002C15
:10F01C0008BF052010BD000070B505464FF4005028
:10F02C000E46FFF7E7FF04280ED1084C236943F086
:10F03C00010020612E804FF40050FFF7DBFF2269A6
:10F04C0041F6FE711140216170BD00BF00200240ED
:10F05C0038B505464FF43020FFF7CCFF042812D109
:10F06C00094C236943F002002061656121694FF46A
:10F07C00302041F040022261FFF7BCFF216941F6CC
:10F08C00FD730B40236138BD00200240CB78F0B5F6
:10F09C00DA0648BF8A78098803F00F0548BF154384
:10F0AC0011F0FF0F1ED004680022012707FA02F7A7
:10F0BC0007EA0106BE4211D197004FF00F0C0CFA73
:10F0CC0007FC05FA07F724EA0C04282B44EA07048A
:10F0DC0001D1466102E0482B08BF06610132082AC3
:10F0EC00E3D10460FF2920D94468002202F108060C
:10F0FC00012707FA06F707EA0106BE4211D197006D
:10F10C004FF00F0C0CFA07FC05FA07F724EA0C0475
:10F11C00282B44EA070401D1466102E0482B08BFC2
:10F12C0006610132082AE1D14460F0BD83681942BE
:10F13C000CBF00200120704701617047416170478E
:10F14C000028174B30B500F44014B4BFDB695B6882
:10F15C00B4F5401F82B207D1114C23F0706365687F
:10F16C0025F0706565600FE0C40205D5C0F303445B
:10F17C00032505FA04F403E0440D240102FA04F417
:10F18C0023EA040343F0706321B1410D090102FA33
:10F19C0001F2134300280248B4BFC361436030BD81
:10F1AC000000014001F0030230B592000F2404FA74
:10F1BC0002F400FA02F0074B8908023153F821508F
:10F1CC0025EA040443F8214053F82140044343F852
:10F1DC00214030BD00000140014B1860704700BF5A
:10F1EC0000300040014B5860704700BF00300040B9
:10F1FC00014B9860704700BF00300040024B4AF64C
:10F20C00AA221A60704700BF00300040024B4CF637
:10F21C00CC421A60704700BF00300040014B1860B0
:10F22C00704700BF20000E42044B5A6909B11043CD
:10F23C0001E022EA00005861704700BF0010024054
:10F24C00044B9A6909B1104301E022EA000098616D
:10F25C00704700BF00100240044BDA6909B110433B
:10F26C0001E022EA0000D861704700BF00100240A4
:10F27C004309012B074A01D1136803E0022B0CBF91
:10F28C00136A536A00F01F0023FA00F101F0010029
:10F29C00704700BF00100240024B5A6A42F0807067
:10F2AC005862704700100240034B988800F0200110
:10F2BC008AB2002AF8D0704700280040074B9A8881
:10F2CC001B8891B210EA030206D0084010F0FF0F21
:10F2DC000CBF0020012070471046704700280040EA
:10F2EC00034B9A8891B221EA00009880704700BFC6
:10F2FC00002800400B8810B54C88028823438C886A
:10F30C0002F441522343CC8823430C8923434C8978
:10F31C0023438C892343CC89098A23431A4393B210
:10F32C000380828B22F400631A04130C8383018202
:10F33C0010BD038819B199B241F0400303E023F0EA
:10F34C0040010A04130C0380704783889BB20AB1F6
:10F35C00194301E023EA01018180704703891942B6
:10F36C000CBF002001207047224A038890429BB2B8
:10F37C0012D002F5006290420ED0B0F1804F0BD04B
:10F38C00A2F59832904207D002F58062904203D0E9
:10F39C0002F58062904203D14A8823F07003134334
:10F3AC00154A904208D002F58062904204D023F4B2
:10F3BC004073CA889BB2134303808B880A88838569
:10F3CC000C4B028598420FD003F5006290420BD093
:10F3DC0002F54063984207D003F58062904203D057
:10F3EC0002F58063984201D1097A0186012282825A
:10F3FC00704700BF002C014000100040038C70B51A
:10F40C0023F001021404250C0584068C8388028BDE
:10F41C009CB222F073052B040D881A0C26F0020600
:10F42C0033042A434E880D891B0C3543ADB22B4354
:10F43C00134DA8420FD005F50065A8420BD005F579
:10F44C004065A84207D005F58065A84203D005F5B4
:10F45C008065A8420ED123F008064B898D881E4387
:10F46C0026F004032B43CE898D8924F44074354354
:10F47C00ADB22C43C988848002838186038470BD1D
:10F48C00002C0140038C30B523F010021404250C21
:10F49C000584038C8288048B23F0200324F4E64536
:10F4AC002C040D88240C44EA05241D042B0C0D8916
:10F4BC0092B243EA05134D88A4B243EA0513124DE8
:10F4CC009BB2A84203D005F50065A84215D14D8921
:10F4DC0023F080039BB243EA05134FF6BF751D4022
:10F4EC008B8822F4406245EA0315ABB28D8942EA5F
:10F4FC008502CD8942EA850292B2C9888280048352
:10F50C000187038430BD00BF002C0140038C30B553
:10F51C0023F480721404250C0584038C8288848B5C
:10F52C0023F4007324F073052C040D88240C2C4355
:10F53C001D042B0C0D8992B243EA05234D8843EA36
:10F54C000523124D9BB2A84203D005F50065A842D5
:10F55C0015D14D8923F400639BB243EA05234FF682
:10F56C00FF351D408B8822F4405245EA0325ABB28F
:10F57C008D8942EA0512CD8942EA051292B2C988F8
:10F58C00828084838187038430BD00BF002C0140BE
:10F59C00038C30B523F480521404250C0584038CA1
:10F5AC008288858B94B225F4E64215042A0C0D88CA
:10F5BC0023F4005342EA05221D042B0C0D8992B250
:10F5CC0043EA05334D8843EA05330A4D9BB2A84202
:10F5DC0003D005F50065A84205D18D8924F480443B
:10F5EC0044EA8514A4B2C98884808283A0F84010B0
:10F5FC00038430BD002C014000214FF6FF73838043
:10F60C000180C180418001727047002303804380D8
:10F61C008380C380038143818381C38170470388C6
:10F62C0019B199B241F0010303E023F001010A047E
:10F63C00130C03807047B0F8443029B16FEA434390
:10F64C006FEA53418AB201E059044A0CA0F84420F5
:10F65C00704783899BB20AB1194301E023EA010187
:10F66C0081817047038819B199B241F0800303E09E
:10F67C0023F080010A04130C03807047038B23F0E2
:10F68C00080213041A0C114301837047038B23F4F3
:10F69C00006213041A0C42EA01218BB203837047F7
:10F6AC00838B23F0080213041A0C114381837047D7
:10F6BC00838B23F4006213041A0C42EA01218BB2EF
:10F6CC0083837047038A828911EA030092B203D0C4
:10F6DC0011420CBF002001207047C9438AB202823C
:10F6EC00704701700B0A0A0C090E43708270C170CE
:10F6FC00043070470170090A41700230704743189A
:10F70C005A78405C00EB022188B2704710B5431860
:10F71C009A78DC78415C120402EB04625878521837
:10F72C0002EB002010BD000073B544790023022CBD
:10F73C0001930FD0032C19D0012C2BD1164D286915
:10F74C002E4620B1296901A888470246B8B9B1688C
:10F75C0001201BE0104DE8682E4620B1E96801A895
:10F76C008847024658B9B16802200FE00A4D6A6911
:10F77C002E464AB16B6901A89847024620B1A96888
:10F78C002046BDF8043003E0B16803200022134684
:10F79C0000F04AFB7CBD00BFCC120020072810B53E
:10F7AC000CD801290AD8012404FA00F401FA00F05B
:10F7BC00034B1A6822EA040202431A6010BD00BF10
:10F7CC006C010020F0B5012187B00546FFF797FFCB
:10F7DC0000F48043044698B250B3B4F5824F27D15D
:10F7EC0028460521FFF78BFF0026074607353446D0
:10F7FC00BE4208D028460221FFF781FF01362418AB
:10F80C000435B6B2F4E76A4B188E21188AB21A8600
:10F81C00D86B2418DC63D96B9A6B914240F0C28090
:10F82C0093F84000002800F0BD809B69992092E07D
:10F83C0024F4FF4121F07F0293B2002B00F08F8063
:10F84C0048F210039C421ED00AD8B4F5004F40F287
:10F85C00AB8048F20200844278D9811C8C420FE0C4
:10F86C0048F28002944271D005D848F240039C4281
:10F87C0040F09A8047E0B4F5024F67D0B4F5084FDA
:10F88C0040F0928062E00022A81841790DF8021035
:10F89C000132042AF8D16B7AA87AE97A2A7B8DF89E
:10F8AC0004308DF805008DF806108DF8072005F151
:10F8BC000D00002306A9CA18C15C0133042B02F801
:10F8CC00101CF7D105F11100002306AAD218C15C57
:10F8DC000133042B02F80C1CF7D105F115000023A1
:10F8EC0000AAD218C15C0133042B1174F8D1304931
:10F8FC0028798A698DF81400002A53D08B69204628
:10F90C006946152229E0053500212846FFF7FEFE41
:10F91C00042100902846FFF7F9FE082101902846A3
:10F92C00FFF7F4FE0C2102902846FFF7EFFE1021A2
:10F93C0003902846FFF7EAFE04901D4881690029D0
:10F94C0030D0836969462046142206E0184B9A6928
:10F95C0042B39B69204600210A46984722E041F2B7
:10F96C000300844205D00C30844202D0411E8C42EC
:10F97C001AD16C1D04212046FFF7C8FE393013D173
:10F98C002D790B4A00212046D562FFF7BFFE0421DA
:10F99C0005462046FFF7BAFE393003D1284601212F
:10F9AC00FFF7FCFE012000E0002007B0F0BD00BF17
:10F9BC00CC12002038B50A4C638898B208B90020E4
:10F9CC0038BD606801780429F9D1FFF7FBFE0128E6
:10F9DC000546F4D100226280FCF7DEFB284638BDD8
:10F9EC00CC1200202DE9F0470446884691460025AC
:10F9FC00BC4B5A8890B20028FAD05E683178042942
:10FA0C0040F0728130460121FFF779FE0546304601
:10FA1C00FFF7D8FE002840F05C8141F20703771D08
:10FA2C009D4253D85A1E954280F0AC8040F2022081
:10FA3C00854200F0A78014D80C2D09D8082D80F031
:10FA4C00A180002D00F04581062D40F29B80DDE069
:10FA5C000D2D00F0948040F20127BD4240F0398119
:10FA6C008DE041F20202954218D8B5F5805F00F2A4
:10FA7C008980B5F5017F40F2828040F207218D42EA
:10FA8C0040F027813379002104F8013B3846FFF719
:10FA9C003DFE01462046FFF724FE1AE141F2040028
:10FAAC00854200F0898040F2A08038460021FFF7A3
:10FABC002DFE042120603846FFF728FE60600834D4
:10FACC0006F10D07224606F11D016EE041F2110010
:10FADC00854254D02CD841F20B02954252D01CD8FE
:10FAEC0041F209018D424DD000F28B800021384645
:10FAFC00FFF70CFE042120603846FFF707FE0821B3
:10FB0C0060603846FFF702FE0C21A0603846FFF714
:10FB1C00FDFD04F10C0AE060DAE041F20F008542D1
:10FB2C0063D035D841F20D02954240F0D28043E0CB
:10FB3C0042F206018D4222D008D8B5F5005F40F2A2
:10FB4C00C88042F204039D4219D983E042F20803B3
:10FB5C009D42C0F0BE80581C854210D944F20B0265
:10FB6C00954240F0B6807179DFF878A13846AAF852
:10FB7C0030100121FFF7C3FDAAF83200A9E0377954
:10FB8C002770A6E038460021FFF7C0FD2060A0E0FA
:10FB9C0000213846FFF7BAFDA2464AF8040B0421AF
:10FBAC003846FFF7B3FD606092E057F8043B8F4294
:10FBBC0042F8043BF9D18CE000213846FFF7A6FD52
:10FBCC00042120603846FFF7A1FD0821606038460B
:10FBDC00FFF79CFD04F1080AA060E46814F13903F6
:10FBEC0076D10121FFF7DAFD72E000213846FFF7EC
:10FBFC008DFD042120603846FFF788FD60600834D5
:10FC0C0067E0337923713F68276062E03846002152
:10FC1C00FFF77CFD042120603846FFF777FD0821B3
:10FC2C0060603846FFF76BFD0A21A0603846FFF78D
:10FC3C0066FDC4F80A000C3406F11107224606F1E1
:10FC4C00350157F8043B8F4242F8043BF9D1388810
:10FC5C0010803EE00022B7187879A0540132042AB3
:10FC6C00F9D106F109070023F95CE0180133042BE4
:10FC7C000171F9D106F10D070020395C2218013011
:10FC8C0004281172F9D106F111070023F95CE2186E
:10FC9C000133042B1173F9D106F115000022875C96
:10FCAC00A1180132042A0F74F9D106F119000023AE
:10FCBC00C75CE1180133062B0F75F9D106F11F0053
:10FCCC000021475C6218013120299776F9D100E0B8
:10FCDC005446044B188882B2954225D100211980D4
:10FCEC0022E000BFCC12002030460321B778FFF78A
:10FCFC0006FD8246B8F1000F0CD00421701DFFF7F1
:10FD0C0005FD0346C9F8000006F115014046DAB2BC
:10FD1C0001F04AFA7A1DB1182046C7EB0A0201F02D
:10FD2C0043FA0F490020C8860D4F00237B80FCF757
:10FD3C0033FA3078042805D1B5F5805F02D130460E
:10FD4C00FFF7F2FC3A8891B200297FF451AE044BD4
:10FD5C00D88E80B200287FF44BAEBDE8F08700BF90
:10FD6C00CC12002007284FF0010308D803FA00F04A
:10FD7C0004490A6810420CBF002001207047184645
:10FD8C00704700BF6C010020034B1880084600210F
:10FD9C000A46FFF727BE00BFCC12002010B5034B5C
:10FDAC000124DC86BDE81040FFF71CBECC120020FD
:10FDBC0038B50346154601224A710C46881D194672
:10FDCC00FFF798FC291D05702046FCF7A5FA0020CA
:10FDDC0038BD38B5BDF814500C469B18A071E81806
:10FDEC0085B202216171E271294604F10800FFF726
:10FDFC0081FC6A1D204691B2FCF78EFA002038BDBA
:10FE0C0038B59B180C469DB202216171A071E2714C
:10FE1C00294604F10800FFF76DFC6A1D204691B2DB
:10FE2C00BDE83840FCF778BA2DE9F0471D4605F1DE
:10FE3C00020A032301F107091FFA8AFA88714B7130
:10FE4C000C46484651461746FFF754FCB5F57A7FE9
:10FE5C00804613D82946FFF74DFC29464046FFF74C
:10FE6C0049FC394604F10B002A4601F09DF9A91D05
:10FE7C00204689B2BDE8F047FCF74EBA4FF47A76CB
:10FE8C00B5FBF6F10AEB410291B2FFF733FC3146B8
:10FE9C004046FFF72FFC394604F10B00324601F0C7
:10FEAC0083F9A5F57A75204640F2EE31ADB2BF1953
:10FEBC00FCF732FAB5F57A7F05D9A5F57A7085B2DB
:10FECC004FF47A7601E02E460025A046394628F8F4
:10FEDC00056F4846324601F067F9B31C404699B2AB
:10FEEC00BF19FCF719FA002DE4D1BDE8F08700002A
:10FEFC002DE9F34106460C461E4831681546D0F8EC
:10FF0C0008804A1E1F46FF23122A8DF8073008F17D
:10FF1C00090001D81423336021684A1E122A01D823
:10FF2C001423236029684A1E122A01D814232B603B
:10FF3C0039684A1E122A01D814233B603168FFF736
:10FF4C00D0FB2168FFF7CDFB2968FFF7CAFB3968A6
:10FF5C00FFF7C7FB4146142242F20900FFF728FFC6
:10FF6C0042F209000DF10701FFF70EFF9DF90700A2
:10FF7C00BDE8FC81CC1200202DE9F34186461448E3
:10FF8C000D46866871461F4602ACFF2306F1090038
:10FF9C0004F8013D9046FFF7A4FB2946FFF7A1FBAF
:10FFAC0040F201254146FFF79CFB0C2231462846C6
:10FFBC00FFF7FEFE28462146FFF7E6FE00213846F5
:10FFCC000A46FFF7EBFE9DF80700BDE8FC8100BF79
:10FFDC00CC1200202DE9F341864616480C46866863
:10FFEC007146984602AD4FF0FF3306F10A0045F812
:04FFFC00043D174663
:020000040801F1
:10000000FFF775FB0C21FFF772FB2146FFF76FFB33
:100010003946FFF76CFB4146224606F11A0001F013
:10002000C9F8902031461022A3B2FFF7EFFE40F24C
:1000300002202946FFF7AEFE0198BDE8FC8100BF13
:10004000CC12002037B50B4B40F2072504469968C7
:1000500000222846FFF7B2FE28466946FFF79AFEBF
:100060009DF803009DF80410207061709DF8000059
:100070003EBD00BFCC12002037B50D4A034695683F
:100080000C4605F109001946FFF731FB214640F205
:100090000324FFF72CFB294608222046FFF78EFE9B
:1000A00020460DF10601FFF775FEBDF806003EBDC6
:1000B000CC1200202DE9F0430023CA5CC254013366
:1000C000102BFAD10022334B467B991891F801800E
:1000D00004789F19F97A88EA0405847B85EA010887
:1000E0001D194178EF7A90F80CC04F40C17B80F821
:1000F00010805D1895F80B908578634489EA0505B2
:1001000093F80B90C378477489EA030390F804903E
:10011000FFB288EA090890F80590857487EA090714
:1001200090F80690EDB285EA090590F80790C3743F
:10013000DBB283EA090390F8089080F814805FFA34
:1001400088F888EA090890F809904775FFB287EAAD
:10015000090790F80A908575EDB285EA090590F8CF
:100160000B90C375DBB283EA090388EA0C0C7E406E
:100170006C405940013280F8188047768576C37606
:1001800080F81CC046778477C17710300A2A9AD14C
:10019000BDE8F0830A1A010810F0800F4FEA400012
:1001A00018BF80F01B00C0B2704700002DE9F04F6F
:1001B000037891F8A0A004468AEA030A80F800A018
:1001C00091F8A1204078A77882EA0005657091F83F
:1001D000A260E07886EA0703A37091F8A32097B0A5
:1001E000059582EA0005E57091F8A49026790693BA
:1001F00089EA060984F8049091F8A5706379079557
:1002000087EA0302627191F8A600A579E37980EA92
:100210000506A67191F8A7700C9287EA030B84F883
:1002200007B0227A91F8A880607A88EA020884F8F8
:10023000088091F8A97008964740677291F8AA5013
:10024000A67AE07A85EA0603A37291F8AB20267BB2
:1002500082EA0005E57291F8ACC009938CEA060CBD
:1002600084F80CC091F8ADE0637BA27B8EEA030EAC
:1002700084F80DE00D9591F8AE50E07B5540A573E4
:1002800091F8AF204B4B4240E2739A4491F89000B2
:100290009AF80B6199444640267091F8940099F8B9
:1002A0000BA198448AEA0006267191F8980098F804
:1002B0000B919C4489EA000626729CF80BA191F8E8
:1002C0009C009E448AEA00062673DF199EF80B8183
:1002D00097F80BC191F8910091F89D6088EA0009A8
:1002E0008CEA060060730C9FDDF814A0DE1996F806
:1002F0000B0191F89970DDF8208080EA070666729C
:1003000003EB0A0091F8956090F80B7184F8019066
:1003100087EA0600607103EB0800DDF818E090F84A
:100320000B91099803EB0E0703EB000E9EF80BC12F
:1003300091F8920091F89A6097F80B718CEA000A94
:1003400077405D1991F89E6084F802A091F89600BC
:1003500095F80B81A772079F88EA000589EA0606CF
:10036000A673A571DE1996F80B0191F89F5003EB67
:100370000B0791F89360454097F80B019A1880EAB3
:1003800006070D98E7701E1896F80B7191F8970004
:100390004FF0090B87EA0006E67191F89B3092F85E
:1003A0000B71E57387EA0300E0720D46CDF840B0AB
:1003B00002E000BF0A1A010894F80090A77887EAC3
:1003C0000900FFF7E9FEFFF7E7FE94F80180E67801
:1003D000824686EA0800FFF7DFFEFFF7DDFE8AEAC5
:1003E000070380EA080227797040A6798AEA0901A2
:1003F0005FFA80F886EA07005FFA82FB5FFA83FA09
:100400005FFA81F903970296FFF7C6FEFFF7C4FE75
:10041000E6796779014686EA07000491FFF7BCFE9A
:10042000FFF7BAFE039B049A94F808C082EA03011E
:10043000CBB2029947404A40A17A7040C6B20593B8
:1004400081EA0C00D3B20291CDF804C0069307965E
:10045000FFF7A2FEFFF7A0FE637AE67A024686EA7D
:10046000030003930492FFF797FEFFF795FE049AAB
:10047000DDF804C0039B82EA0C015FFA81FC80EA8C
:100480000301CBB2029909934A40D3B2CDF820C000
:100490000A9394F80CC0A17B7040C6B281EA0C00AC
:1004A0000291CDF804C00B96FFF776FEFFF774FEBD
:1004B000637BE67B024686EA030003930492FFF720
:1004C0006BFEFFF769FEDDF804C0049A039B82EA25
:1004D0000C015FFA81FC80EA0301CBB20299704003
:1004E0004A40C6B288EA0A018BEA09000D93D3B2EA
:1004F0000E930291CDF830C00F9681EA0006FFF707
:100500004BFE89EA000286EA020C5FFA8CFC8AEA5A
:100510000B0084F800C0CDF804C0FFF73DFE8BEA65
:10052000000386EA030B02995FFA8BFC84F801C092
:100530000846CDF844C0FFF72FFE8AEA000286EA9B
:10054000020A5FFA8AFB88EA090084F802B0CDF853
:1005500048B0FFF721FE88EA0000DDF81890059901
:10056000079A4640FFB2F6B282EA090887EA01001C
:10057000E670139688EA0006FFF70EFE059B5840CA
:1005800086EA0001CAB24846227178401492FFF709
:1005900003FE474086EA0703D8B2159060714046D3
:1005A000FFF7FAFD89EA0001059B86EA0102079838
:1005B000D7B25840A7710697FFF7EEFD0799089A42
:1005C00048404640F6B20A9F0596E67109980B9E90
:1005D00050407E4086EA0007FFF7DEFDDDF820A0F0
:1005E0008AEA000387EA030C5FFA8CF884F8088033
:1005F00009990A984840FFF7CFFD099A504087EAC9
:10060000000B5FFA8BF9304684F80990FFF7C4FDC0
:100610000A9E524686EA000387EA03010B985FFAB6
:1006200081FB504084F80AB0FFF7B6FDDDF82CA03E
:100630000E998AEA00000C9E47400F9B0D98FFB26E
:100640004B407040E77283EA000A0293FFF7A4FD73
:100650000C9A0D9B50408AEA00060E98F6B226735B
:100660005840FFF799FD0D99029B81EA00028AEA42
:100670000200C1B2617318460391FFF78DFD0E9A17
:100680000C9B50408AEA00010F98CAB2A2735840EE
:100690000492FFF781FD0F99514B48408AEA000C04
:1006A0005FFA8CFADDF804C084F80FA003EB0C02AB
:1006B00095F8800092F80B11DDF850C081EA000235
:1006C000227003EB0C0195F8840091F80B219E1920
:1006D00082EA000103EB0802217195F8880092F884
:1006E0000BC196F80B218CEA0001217295F88C0061
:1006F000039E82EA000121739A1995F8811092F8FD
:100700000B0103EB090680EA010295F88D0096F8CB
:100710000B11DDF844C081EA00061599667358187C
:1007200090F80B6195F88910DF1986EA0100607274
:1007300003EB0C0695F8850096F80B116270129A7F
:1007400081EA000666719918DDF818C095F88A608C
:1007500091F80B0103EB0C0295F88E10704092F8A3
:100760000B6103EB0B02714092F80BC195F88260AC
:100770008CEA0602049EA2709A1992F80B6195F811
:1007800086205640A671A0721398A173191895F887
:100790008F2091F80B61DDF814C0724003EB0C065A
:1007A00095F8831096F80B0153444840E07095F893
:1007B000871097F80B014840E07195F88B0093F88B
:1007C0000B11E273109A81EA0003511E103D11F0E3
:1007D000FF00E37210907FF4EFAD17B0BDE8F08F2B
:1007E0000A1A010838B5054C05462046FFF762FC99
:1007F00028462146BDE83840FFF7D8BCD611002076
:10080000034610210C200022FFF7BCBB0346102139
:100810000C200022FFF7E4BB38B505460E4CE36A16
:100820004BB100F0C1FCE36A03600020E06200F01D
:10083000BBFC006838BD2846FFF79AFA40B9228E03
:1008400091B20029EAD0238E5A1E91B2218638BD7A
:100850004FF0FF3038BD00BFCC120020F7B5034683
:1008600014480D4686681946174602AC4FF0FF3211
:1008700006F1090044F8042DFEF739FF2946FEF77A
:1008800036FF41F201053946FEF731FF0C223146B1
:100890002846FFF793FA21462846FFF77BFA00F037
:1008A00083FC0199016008460021FEF77DFF019855
:1008B000FEBD00BFCC120020F7B5054610484FF032
:1008C000FF33876802AC294641F20B0607F10900A5
:1008D00044F8043DFEF70BFF042239463046FFF78B
:1008E0006DFA21463046FFF755FA00F05DFC01999C
:1008F000016028460121FEF757FF0198FEBD00BFA9
:10090000CC12002037B5034613484FF0FF328468FD
:100910000D4604F1090019460192FEF7E8FE082190
:10092000FEF7E5FE0821FEF7E2FE0023E95CC15474
:100930000133082BFAD11422214641F20700FFF7B8
:100940003DFA01A941F20700FFF724FA00F02CFC60
:10095000019A026010463EBDCC1200202DE9FF41F5
:100960001D46314B8646D3F808800F4608F1090032
:10097000714616460A9CFEF7BAFE1421FEF7B7FE32
:100980001421FEF7B4FE1421FEF7B1FE1421FEF788
:10099000AEFED4F1010138BF0021FEF7A8FE0FB171
:1009A000396800E03946FEF7A2FE0EB1316800E07A
:1009B0003146FEF79CFE0DB1296800E02946FEF79E
:1009C00096FE74B1216839B9636841F28732934267
:1009D000DCBF41F288336360FEF789FE6168FEF791
:1009E00086FE2C22414641F20800FFF7E7F941F26A
:1009F00008006946FFF7CEF9009B002B09DB0FB119
:100A0000019838600EB1029A326045B103992960AD
:100A100005E000F0C9FB00994FF0FF330160184674
:100A200004B0BDE8F08100BFCC1200202DE9FF41E9
:100A30009846154B07469D6814460E4605F1090079
:100A40003946FEF754FE2146FEF751FE4146FEF7B9
:100A50004EFEBDF830400C2229462046FFF7AEF985
:100A6000204601A9FFF796F90298002804DD3046D8
:100A70000A990B9AFFF798F900F096FB029901602A
:100A8000084604B0BDE8F081CC1200201FB5002458
:100A90000094019441F204040294FFF7C7FF04B0EC
:100AA00010BD00002DE9F04F89B0039114469B461C
:100AB000139E149D0290FFF7AFFEDDF808C00028DA
:100AC00057D12D4B9A6B511C9963D3F80890812D07
:100AD00009F10A0307D0832D0AD104F1080A09F1AC
:100AE0002208182704E009F11A0810270646129078
:100AF00061461846FEF7FBFD391FFEF7F8FD21465B
:100B0000FEF7F5FD5946FEF7F2FD832D05D151465E
:100B1000FEF7EDFD0821FEF7EAFD0022A24205DA0C
:100B20000398815C08F802100132F7E7002CA8BF97
:100B3000A044832D0ED0129AB6B200920196E8B26C
:100B400049463A46A3B2FFF74AF9832D0BD141F249
:100B50000F000AE00020B042EDDA12990B5C08F8B1
:100B600000300130F7E741F2030005A9FFF712F961
:100B7000204609B0BDE8F08FCC1200201FB500243C
:100B80000094019481240294FFF78CFF04B010BDFF
:100B9000202A73B503460E46144622D8124A194637
:100BA000956805F10900FEF7A2FD0821FEF79FFDFB
:100BB0002146FEF79CFD0022A24203DAB15C81547B
:100BC0000132F9E704F10C032946DAB241F21100CF
:100BD000FFF7F4F841F2110001A9FFF7DBF80198E3
:100BE00001E04FF0FF307CBDCC120020024B01220F
:100BF0005A805860FEF7E4BECC12002010B5084CB5
:100C0000E16022616361029B0399E361049A059BA1
:100C100021626262A362A061012084F8400010BDDD
:100C2000CC12002070B5214C054621480023A36357
:100C3000E363238023866386A386E386E36263807F
:100C40006360A0601B48FBF78BFAE1698847A26AE2
:100C500006460120904706B3E16988470028FBD18A
:100C6000124C0035A16818BF01254D7201224FF4C6
:100C70008040FFF7A3F800214FF48040FFF78AF887
:100C8000A168002244F20B00FFF798F844F20B0031
:100C90000021BDE87040FFF77DB8E3699847002860
:100CA000FBD0E06980470028FBD1D9E7CC120020B7
:100CB000EC050020ED0B010838B5094C0020A36AB3
:100CC00098472546E869064C80470028FAD0A16875
:100CD00009B10022A260BDE83840FBF755BA00BF59
:100CE000CC1200202DE9F04F83462F4885B0D0F874
:100CF0000890144600259A4688464FF0FF331C2181
:100D000009F1090001930F9E0E9F0295ADF80C505A
:100D1000FEF7EDFC2146FEF7EAFC5946FEF7E7FC3C
:100D200004F11001FEF7E3FC3146FEF7E0FC294632
:100D3000FEF7E6FCBAF1000F08D01AF8052042557C
:100D40000135062DF9D10630002207E0534602AAEC
:100D5000995CC1540133062BF9D1F4E7A24204DABD
:100D600018F8021081540132F8E7002CA8BF0019CE
:100D70003EB100232FB1B34203DAFA5CC25401330F
:100D8000F9E71C34A319DAB249460120FFF716F837
:100D900001A90120FEF7FEFF00F006FA01990160AB
:100DA000084605B0BDE8F08FCC120020F7B5034629
:100DB0000F480E4685681946174602AC4FF0FF32C1
:100DC00005F1090044F8042DFEF791FC3146FEF7C9
:100DD0008EFC3946FEF78BFC29460C220420FEF7D8
:100DE000EDFF04202146FEF7D5FF0198FEBD00BFB0
:100DF000CC1200202DE9F04F8346714885B0D0F821
:100E000008900D4614465946002209F109009A46F9
:100E10000E9F0F9E0292ADF80C20FEF768FCBBF10E
:100E2000030F00F2BE80DFE80BF0022F767614216C
:100E3000FEF75DFC2146FEF75AFC0021FEF760FC40
:100E4000BAF1000F07D000221AF8021081540132C3
:100E5000062AF9D106E0534602A95A5CC25401336E
:100E6000062BF9D106303946FEF741FC4FF0000859
:100E7000A04506D015F8083000F8083008F1010840
:100E8000F6E708F118008AE02021FEF730FC214641
:100E9000FEF72DFC0021FEF733FCBAF1000F07D05E
:100EA00000221AF8021081540132062AF9D106E014
:100EB000534602AA995CC1540133062BF9D1394635
:100EC0000630FEF714FC04F10C01FEF710FC31466D
:100ED000FEF70DFC1099FEF70AFC0022A24203D097
:100EE000AF5C87540132F9E7001900220421129DFA
:100EF0008718AD180023B34205D015F803E007F8B2
:100F000003E00133F7E701391A44F0D104F1240C6E
:100F10000CEB830043E02821FEF7E9FB2146FEF7B6
:100F2000E6FB0021FEF7ECFBBAF1000F07D0002230
:100F30001AF8021081540132062AF9D106E053460C
:100F400002A95A5CC2540133062BF9D13946063046
:100F5000FEF7CDFB3146FEF7CAFB1099FEF7C7FB43
:100F60001199FEF7C4FB04F10801FEF7C0FB1399C9
:100F7000FEF7BDFB0021A14203D06A5C425401315F
:100F8000F9E70019002313998B4204D0129AD15C1F
:100F9000C1540133F7E704F12C0808EB03001FFAF2
:100FA00080F849465FFA88F20520FEF707FF052022
:100FB00001A9FEF7EFFE019805B0BDE8F08F00BF74
:100FC000CC12002037B50B4B01469D6802AC05F1F1
:100FD0000900FEF78CFB4FF0FF3044F8040D294662
:100FE00004220620FEF7EAFE06202146FEF7D2FE86
:100FF00001983EBDCC12002037B548F2080248F2F5
:10100000080102408A42034613490BD10020934253
:1010100081F840001FD023F4004424F0080545F473
:10102000004302E0012081F840000B494FF0FF32FD
:101030008D6802AC194605F1090044F8042DFEF74D
:1010400056FB294604220820FEF7B8FE0820214658
:10105000FEF7A0FE01983EBDCC12002073B50C4BEC
:1010600001469D684FF0FF3602AC05F1090001967C
:10107000FEF73DFB44F8046D294604220A20FEF7E2
:101080009DFE0A202146FEF785FE01987CBD00BF2B
:10109000CC12002007B50D4A4FF0FF330193916841
:1010A00090B154234370037083704B7242788A72FC
:1010B00080780322C8720C20FEF780FE0C2001A964
:1010C000FEF768FE019800E018460EBDCC12002025
:1010D0002DE9F041314886B0FFF792FB0546002824
:1010E00058D12F4E2A460D2043213346FEF74AFFA2
:1010F000054600284ED13778284907F1030808EB48
:1011000006042046FFF76EFB3378F6187078102837
:1011100004D904F110002149FFF764FBE17F204A64
:1011200021B112F808301F2B04D101E012F8083069
:10113000013400E02023107811188A78032A29D876
:10114000DFE802F0020E1919002001250095019038
:10115000029003900490059012493A46034616E027
:1011600001208DE809000023029303930494059362
:101170000C493A460BE0012018211E2202258DE879
:10118000270008490593049403203A460023FFF7FB
:1011900031FE0546284606B0BDE8F0811013002058
:1011A000881200208912002040F29853C2F20003F6
:1011B000186870470F2A2DE9F00340F2A18041EA38
:1011C00000039B0740F09E800C68A2F110050460AC
:1011D0004B68AC4643608C68BCF10F0F8460CC68F0
:1011E000C5F30015C46000F1100301F110042BD900
:1011F00075B12568ACF1100C1D6065685D60A5686F
:101200009D60E5681034DD601033BCF10F0F1BD911
:10121000276804F110061F60676803F110055F601E
:10122000A768ACF1200C9F60E768DF6024691C614F
:10123000776806F110046F60B7682033AF60F66816
:10124000BCF10F0FEE60E3D8A2F1100828F00F03F5
:1012500002F00F0403F1100C032C00EB0C0301EB64
:101260000C0851D9211F4FEA9109444608EB890C1B
:1012700054F8046BC8EB0C010CF1040C1D466445DA
:1012800045F8046BC1F3800112D029B154F8041B56
:10129000644545F8041B0BD0274657F8041B2E461F
:1012A00046F8041B64686C603C1D351D6445F3D131
:1012B00009F1010C4FEA8C0902F0030208EB090165
:1012C0004B44D2B10D789A18DC4303F8015B141932
:1012D000934204F0010410D02CB111F8014F03F82F
:1012E000014B934209D04D781C4604F8015B8D7880
:1012F00002315D70631C9342F5D1BDE8F003704785
:101300000346DEE70346DDE741462246D9E700BF54
:10131000F0B48407034600F08D80541E002A00F0CC
:101320008780E507CEB211D41A4602F8016B134646
:101330001546920710D0621E002C79D003F8016B7D
:1013400014469A071D4607D0013CEDE7034603F813
:10135000016B9A071D46F7D1032C52D9CEB246EA4B
:1013600006270F2C47EA07432DD9A4F11002174690
:101370000F2FC2F300162B606B60AB60EB6005F1C2
:10138000100216D93EB1103F136053609360D360D2
:1013900010320F2F0DD9203F02F110061360536059
:1013A0009360D360136153619361D36120320F2F37
:1013B000F1D8A4F1100222F00F0204F00F04103251
:1013C000032C15441DD9271F3E462A46032E42F8FA
:1013D000043BC7F380070DD927B1043E032E42F822
:1013E000043B07D9174647F8043B083E53603A1DB3
:1013F000032EF7D8231F23F00302131D04F0030468
:10140000ED18ACB1C9B2EA432C1905F8011BA318B9
:10141000A54203F001020BD01AB105F8011BA54249
:1014200006D02B4603F8011B69705D1CA542F8D15C
:10143000F0BC7047054614468EE700BFC9B2F0B451
:1014400000294BD082070FD00278002A71D0914238
:1014500042D0431C05E013F8012B002A3BD09142F7
:101460003AD09A071846F6D1036841EA0127A3F15A
:10147000013222EA030212F0803F47EA07471CD1FB
:101480007B40A3F1013222EA030313F0803F14D121
:10149000021D02E014F0803F0FD1104652F8043BC9
:1014A000A3F1013687EA030426EA0303A4F1013518
:1014B00013F0803F25EA0404ECD00278002A38D0EB
:1014C000914209D0431C01E0914205D0184613F81F
:1014D000012B002AF8D11046F0BC704783070BD0CF
:1014E0000278002AF8D0431C03E001780133002978
:1014F000F2D099071846F8D10168A1F1013323EA27
:10150000010212F0803F0AD1031D184653F8041B54
:10151000A1F1013424EA010212F0803FF5D00378F2
:10152000002BD9D0421C1178104601320029FAD183
:10153000D2E71046D0E700BF80EA010212F0030FA5
:1015400040F03A8010F0030220F0030021F0030184
:1015500050F804CB08BF51F8043B0DD082F00302D1
:101560004FEAC2026FF07F4323FA02F251F8043BC4
:101570004CEA020C43EA0203ACF101329C4501BF84
:1015800022EA0C0212F0803F50F804CB51F8043BE1
:10159000F2D04FEA0C604FEA1C2C012828BFB0EBB8
:1015A000036F08BF1B0AF4D003F0FF034FEA10607B
:1015B000A0EB0300704700BF10F0030F0AD010F833
:1015C000012B11F8013B012A28BF9A42F4D0A2EB6B
:1015D000030070474DF8045D4DF8044D4FF00102D3
:1015E00042EA022242EA024201F0030C21F0030126
:1015F00050F8044B51F8045BBCF1020F26D04BD8D5
:1016000024F07F4CBCEB152FA4EB020323EA040368
:101610000DD113EAC21308BF51F8045B0AD18CEA5A
:10162000040CBCEB056F0CD150F8044BE8E74FEA13
:1016300015255CE033F07F4352D10D784FEA146CEE
:1016400055E04FEA146C05F0FF0550E04FEA044CFA
:10165000A4EB02034FEA1C4C23EA0403BCEB154F36
:1016600017D113EAC21308BF51F8045B07D18CEA03
:10167000040CBCEB054F08D150F8044BE6E71B0403
:101680002ED10D884FEA144C31E04FEA05454FEA60
:10169000144C4FEA15452AE004F0FF0CBCEB156F23
:1016A000A4EB020323EA04030DD113EAC21308BF1B
:1016B00051F8045B0AD18CEA040CBCEB052F0AD16B
:1016C00050F8044BE8E74FEA156510E014F0FF0FFF
:1016D00006D051F8045B4FEA142C25F07F4506E054
:1016E0004FF000005DF8044B5DF8045B70470CF0B0
:1016F000FF0205F0FF00012828BF904204BF4FEA17
:101700001C2C2D0AF3D0A2EB00005DF8044B5DF811
:10171000045B704720F0030110F00300C0F10000EB
:1017200051F8043B00F1040C4FEACC0C6FF00002BE
:101730001CBF22FA0CF213434FF0010C4CEA0C2CA4
:101740004CEA0C4CA3EB0C0222EA030212EACC1284
:1017500004BF51F8043B0430F4D013F0FF0F1FBF57
:10176000013013F47F4F013013F47F0F18BF0130A5
:10177000704700BFF0B4002A00F0838041EA000304
:1017800013F003052ED0551E03780A78934226D114
:10179000002D7AD0002B7AD001358C1C4D192B1BD3
:1017A000DB0716D510F8013F14F8012C934216D12F
:1017B000CC1C73B936E0AC4234D00134002B31D0AC
:1017C00014F8012C10F8013F0134934207D1002B8B
:1017D00028D010F8013F14F8012C9342EBD0981A4E
:1017E000F0BC7047032ACED904680B689C42CAD16A
:1017F000131F4CD0A4F1013222EA040414F0803FFC
:1018000043D15A072FD542684C6804300431A242B4
:1018100039D1043B06D0A2F1013424EA020212F0CD
:10182000803F20D00020DBE772686468A2F10135B8
:10183000A24225EA020526D1043B00F1040001F191
:101840000401EFD015F0803FECD1DCF804207C6877
:10185000A2F10135A24225EA020514D1043BE1D0F0
:1018600015F0803FDED10C46064604310430032BD0
:1018700084460F46D8D85D1E002B85D13379227956
:10188000ADE71046ACE75D1E7EE72846A8E71846A0
:10189000A6E700BF80004000200010000800008084
:1018A00000400020080000000800000008000000C0
:1018B0000800000008000000040000000400000010
:1018C0000400000004000000040000000400000008
:1018D00004000000002000010002000401000000DC
:1018E00002000000040000000800000000000000EA
:1018F0000400000008000000737061726B6465767C
:101900006963657332303133004F4B2000555345C6
:101910005246554E432000736563726574007768C4
:101920006F00737061726B64656D6F646576696377
:101930006500616C6976650049574447525354000D
:10194000555044415445004641494C20000A00434B
:10195000414C4C4241434B20003203530054004D54
:1019600000330032002000560069007200740075D8
:101970000061006C00200043004F004D002000502B
:10198000006F0072007400200020002603530054F2
:10199000004D006900630072006F0065006C006517
:1019A000006300740072006F006E006900630073D2
:1019B000000403090409024300020100C0320904C3
:1019C00000000102020100052400100105240100AD
:1019D0000104240202052406000107058203080011
:1019E000FF09040100020A0000000705030240008D
:1019F00000070581024000001201000202000040C1
:101A0000830440570002010203018D010204081003
:101A10002040801B36637C777BF26B6FC53001679B
:101A20002BFED7AB76CA82C97DFA5947F0ADD4A256
:101A3000AF9CA472C0B7FD9326363FF7CC34A5E522
:101A4000F171D8311504C723C31896059A0712807F
:101A5000E2EB27B27509832C1A1B6E5AA0523BD6B3
:101A6000B329E32F8453D100ED20FCB15B6ACBBED8
:101A7000394A4C58CFD0EFAAFB434D338545F90284
:101A80007F503C9FA851A3408F929D38F5BCB6DA99
:101A90002110FFF3D2CD0C13EC5F974417C4A77E3F
:101AA0003D645D197360814FDC222A908846EEB850
:101AB00014DE5E0BDBE0323A0A4906245CC2D3AC8A
:101AC000629195E479E7C8376D8DD54EA96C56F4CF
