:020000040800F2
:105000000050002011510008955C0008975C0008D2
:10501000995C00089B5C00089D5C00080000000093
:105020000000000000000000000000009F5C00087D
:10503000A15C000800000000A35C0008A55C00085B
:105040005D5100085D5100085D510008A95C000831
:105050005D5100085D5100085D5100085D51000878
:10506000095D00085D5100085D5100085D510008B0
:105070005D5100085D5100085D510008055D0008A4
:105080005D5100085D5100085D5100085D51000848
:10509000A55D00085D5100085D5100085D510008E4
:1050A0005D5100085D5100085D5100085D5D00081C
:1050B0005D5100085D5100085D5100085D51000818
:1050C0005D5100085D5100085D5100085D51000808
:1050D0005D5100085D5100085D5100085D510008F8
:1050E0003D5D0008C55C00085D510008000000003F
:1050F00000000000000000000000000000000000B0
:0C51000000000000000000005FF808F153
:10511000002100F004B80C4B5B58435004310B489D
:105120000B4B42189A42FFF4F6AF0A4A00F003B85C
:10513000002342F8043B084B9A42FFF4F9AF04F015
:105140001FF800F025F87047FC040108000000205B
:10515000DC090020DC090020B4490020FFF7FEBF75
:105160007047704710B50131002393420ED0040FF1
:10517000092C01D8303400E0373401F8014C0133F8
:105180000024000101F8024BDBB2EEE710BD000085
:1051900038B54FF000604FF4A04101F093FE0124B8
:1051A000274B284821461C7001F048FF02F044FFBD
:1051B0002146402001F0FAFF6FF07F4002F0EEFD43
:1051C000E72002F035FE2048204D047002F0AEFCCE
:1051D0007D2002F00FF810B12C7002F01FF840F69D
:1051E000B83002F013FD03F0DBF903F0CDFE2978AF
:1051F000012903D0164A0AB1FFF7B2FF03F040FCC1
:1052000000F036FB134C03F007FD00F037FB23786A
:10521000002BF7D010480578002DF3D10B490A7800
:10522000002AEFD10D4C0CB1FFF79BFF0C4B186817
:1052300000B1804700F00EFD00F0F0FCE2E700BF97
:10524000241C00200004300050480020104800209A
:105250006151000848480020584800206351000868
:10526000481700202D4B2E491A6870B5501C186045
:105270000C6814B10B685A1E0A602A4C206810B1E1
:1052800023685A1E2AE028490B7843BB274A107826
:1052900028BB27490B7813BB264D274E2A7842B1ED
:1052A000E72002F0F7FD317809B1142216E001225F
:1052B00014E0307848B14FF6FF7002F06FFDE72040
:1052C00002F0B6FD0120287009E0E72002F0BEFDE3
:1052D0001A490B780BB1322200E0642222600020D0
:1052E00002F014FF40F6B732904205D9002002F0D8
:1052F00015FF0D4901200870114B1A68B2F57A7F2D
:1053000004D300221A6001F0F7FE02E01868411C85
:105310001960BDE8704003F039BD00BFB43F002004
:105320001C48002014480020434800205848002012
:1053300031480020504800204848002046480020BE
:105340002048002070B51D4A137B012B34D0106912
:10535000B0F5807F01D1002111611369926817486F
:10536000934202D10021017370BD8CBFC3F58072DE
:10537000C3EB0202114C4261656999B2402D05D917
:105380004033403D23616561402604E0E818002376
:10539000AEB2206163610A4A01255018C02132462D
:1053A000257301F0F5FB2846314601F0FBFC284649
:1053B000BDE8704001F064BC70BD00BFDC09002096
:1053C000B43E0020094B10B593E814000833186868
:1053D00010180AD008220649FFF7C4FE05492046E6
:1053E0000422BDE81040FFF7BDBE10BDE8F7FF1F67
:1053F0003A0000204A000020FEE7000008B5084BF4
:105400001A680AB9074919601B686A461818904259
:1054100001D909F047FE02490860184608BD00BFDF
:10542000F4090020B44900204FF0FF3070470120FC
:1054300070477047024B1878003018BF0120704742
:1054400048480020002070470020704758B1421E95
:10545000002012F8013F303BD9B2092903D80A21B4
:1054600001FB0030F5E770472DE9F041ADF5167D01
:105470000F4680461646684600214FF416721D46B8
:105480000AF0E6FA4FB138460AF07AFC044639468B
:10549000684622460AF02EFA00E03C4666B13046E5
:1054A0000AF06EFC00AB0246314618190AF022FAE7
:1054B00030460AF065FC041965B128460AF060FC24
:1054C000024600A8001929460AF014FA28460AF0F4
:1054D00057FC04190A210DF8041040466946621C65
:1054E000002305F0C5F90DF5167DBDE8F08100003B
:1054F0002DE9F84F1A4B8346D3F800A00E4600243E
:10550000544528DA2EB34FF48C756543144F594631
:1055100007F1040808EB050004300C220AF060FCD7
:105520008146B0B930460AF02BFC05F11001B0F508
:10553000807F34BF02464FF4807208EB0100314691
:105540000AF0D8F97D19012285F818214846BDE8EE
:10555000F88F0134D4E74FF0FF30BDE8F88F00BF7B
:10556000FC0900202DE9F84F04468946002943D064
:10557000002841D0214B1D680A2D3DD00026AE42A7
:105580001F4F4FF48C780FDA08FB06F857F8081015
:10559000494507D107EB0802101D21460C220AF0ED
:1055A0001FFC48B30136EAE708FB05F8A7F1040A37
:1055B0000AEB080608F1100000214FF48072C6F8CB
:1055C000049038180AF044FA07EB0801081D0C2271
:1055D00000210AF03DFA2068616806F1080203C262
:1055E000A3680020013506F1040B136086F818014A
:1055F00086F8190147F8045CBDE8F88FFC09002023
:10560000000A00202DE9F047054691460F46C1B338
:10561000B8B31D4BD3F8F46A0A2E32D00024B4423A
:105620001A494FF014000CDA60430A58BA4206D106
:105630000B18181D29460C220AF0D2FB08B30134BE
:10564000EDE77043DFF840800A1808EB0004002102
:10565000101DC4F8F87A84F8089B0C220AF0F8F9B7
:1056600004F6F82A286869680AF1040303C3A968E4
:1056700000200136196084F8090B84F80A0BC8F879
:10568000F46ABDE8F08700BFFC090020F414002094
:1056900010B5054CD4F8C00B04F088FF18B94FF0D2
:1056A000FF33C4F8C03B10BDFC09002030B5022018
:1056B00001210622ADF2046D04F04AFF264C0028B9
:1056C000C4F8C00B02DA4FF0FF3040E00221232281
:1056D000A4F8C41B36211D2384F8C62B84F8C81BEC
:1056E000EB22F92184F8C73B84F8C92B4F2384F8B7
:1056F000CB1B1022194984F8CA3B04F07DFF002817
:10570000E1DB174D06AA6968286803C2A8680CADDA
:105710001060284603F010F8284603F013F856AB43
:1057200002931049104A114B09A8049105920B935A
:10573000009006A90E4802AA04AB039505F051FD9E
:105740000022D4F8C00B0B491346FFF78DFE0DF570
:10575000017D0DF5806D30BDFC090020C0150020D5
:10576000E8F7FF1F4554000849540008F1540008A9
:10577000D015002074FF000838B50D46044601F02E
:1057800075FD401901F096FD01F0A4FD2CB1022C2D
:1057900007D1BDE8384002F031BA024B01221A703D
:1057A00038BD38BD4748002010B5034602460020EA
:1057B0002AB10A240130B2FBF4F2C0B2F8E70918AA
:1057C00053B10A24B3FBF4F204FB1233034CE35C41
:1057D00001F8013D1346F3E710BD00BF00000020B3
:1057E0000346A0F13000C0B2092817D9612B0ED0B2
:1057F000622B0ED0632B0ED0642B0ED0652B04D001
:10580000662B0CBF0F20002070470E2070470A2027
:1058100070470B2070470C2070470D207047000028
:105820001FB5104BE3B1104C0020C4F84C0D04F52B
:105830005560AFF3008018B101A9FFF7B5FF03E091
:1058400030218DF80410012004AA08491018002303
:1058500000F80C3C0A1DD4F8C00B01ABFFF704FEA6
:105860001FBD00BF00000000FC0900207BFF0008F6
:10587000014805F03BBF00BFD0150020014805F0EE
:105880000BBE00BFD0150020334BF7B5D3F8A87F6F
:105890002FB9324839464FF416720AF0D9F82E4E15
:1058A0002F4CD6F8C00B0025410904EB810300F012
:1058B0001F02012101FA02F184F80C5184F80D5104
:1058C00084F80E5184F80F51D3F80C21C4F810510C
:1058D0000A43C3F80C2104F588714FF4FA73C4F835
:1058E0001431013000912A4604F586712B4604F0EC
:1058F000AFFEC7F515770337A84202DC002F29DC7D
:1059000021E0D6F8C00B420904EB8204D4F80C1154
:1059100000F01F0341FA03F2D307EFD5D6F8A83FF2
:105920000E4C3A46E1182B4604F02AFF002812DB01
:10593000D6F8A81F0818C6F8A80F0A2120460AF0B2
:10594000A1F90028DAD0044B0022D3F8A80FC3F83D
:10595000A82F00E00020FEBDFC090020A8190020AF
:10596000F41A00202DE9FF412A4C2B48D4F81831B5
:105970002A49C0180AF0C4FA054660B1FFF766FD6F
:10598000074628460AF0FCF9D4F818114A1C1318E7
:10599000C4F8183100E00746002020490AF0B0FAA8
:1059A0000546002833D0FFF751FD044628460AF08B
:1059B000E7F9184DD5F81861711C0E18C5F8186173
:1059C0002CB3DFF8548000210B2201A80AF040F824
:1059D00008EB0600214602F0BBFE8742064605D1D1
:1059E000D5F818012146404402F056FE26B1304653
:1059F00001A9FFF7D9FE02E030228DF80420084B00
:105A00000022D3F8C00B01A91346FFF72DFDBDE816
:105A1000FF8100BFF41A0020A8190020D704010854
:105A2000FC0900202DE9F0410322634863490AF094
:105A3000D7F9634C024618B9D4F8C00B614911E09C
:105A40005D48614905220AF0CBF980B95F4D2B789A
:105A50000BB901222A705E48594900220260D1F830
:105A6000C00B59491346FFF7FFFC054630E00622FC
:105A7000514858490AF0B4F9024618B9D4F8C00B95
:105A80005549EFE74C4855490D220AF0A9F9F0B104
:105A9000494853490B220AF0A3F9054658B9514821
:105AA0000122514C02700C214FF4C020C4F818118F
:105AB00002F0C6FD0CE040484C4909220AF090F97A
:105AC000054620B9474B187002F024FE00E000257F
:105AD000444C237843B13E4B00241C60FFF742FF47
:105AE000414AC2F8184163E0414C334804F10B01CC
:105AF00006220AF075F9324E074698B996F8B20FA9
:105B00006074FFF76DFE012102F09AF80346D6F8A3
:105B1000C00B1BB9374904F10B021FE0364904F1F1
:105B20000B021AE0244804F1130105220AF058F987
:105B30000746B8B996F8B10F2076FFF751FE3946FF
:105B400002F07EF80346D6F8C00B1BB9294904F1D0
:105B5000130203E0284904F113023B46BDE8F0417B
:105B6000FFF782BC1448254909220AF039F9F8B92F
:105B700023480A210AF086F830B110F8012C0D2ACA
:105B800008BF0138002101700D4C00214FF416723E
:105B900004F5556009F05CFF19480AF0F1F818495E
:105BA000024604F5556009F0A5FE1648C4F84C0DF0
:105BB0002846BDE8F08100BFA819002089FF000831
:105BC000FC0900208DFF00089DFF000848480020C8
:105BD0004C480020A3FF0008AAFF0008B1FF0008FE
:105BE000BFFF000858480020F41A0020CBFF00082F
:105BF000000000207BFF0008D5FF00087FFF0008A1
:105C0000B11900202158000808B5FFF73DFE002813
:105C100003DDBDE80840FFF705BF08BD7FB50B4CAD
:105C200000250B4BD3F8F40A85420EDA617C49B1AA
:105C3000A27C002666742AB168463146102209F01B
:105C400007FFA67401351434EBE77FBDF414002080
:105C5000FC09002038B50D4C00250D4B1A68954203
:105C600012DA94F8140158B14FF48C7202FB05302B
:105C7000002184F81411236814309847C4F81001E7
:105C8000013504F58C74E8E738BD00BF000A002038
:105C9000FC0900207047FEE7FEE7FEE7FEE77047DD
:105CA00070477047FFF7DEBA08B5012001F02EFB00
:105CB00030B1012001F03CFBBDE8084001F00ABB17
:105CC00008BD000008B5022001F020FBB0B10C4B6C
:105CD00000224FF400301A7001F050F9012001F059
:105CE00035FA10B1012001F03BFA01F0F3FA02207D
:105CF00001F01EFBBDE8084001F0ECBA08BD00BF92
:105D00004748002001F03EBE08B5042001F026F906
:105D100078B1042001F032F90020064B01461880CA
:105D200002F018F9044810210122BDE8084001F0F2
:105D30007EBC08BD201C0020002C014008B54FF49B
:105D4000006001F00BF938B14FF4006001F016F972
:105D5000BDE8084001F088BE08BD000008B50F4846
:105D6000102101F09DFCC0B10C48102101F0A3FCF2
:105D7000002002F0BBF928B9094B1A880A3290B208
:105D8000188008BD10210548002201F050FC0020B9
:105D90000121BDE8084002F0DDB808BD002C01403B
:105DA000201C002000F062B838B514490B78012B94
:105DB00023D1134A13680BB90B7038BD114C402B1B
:105DC000206881B205D94030403B206013604025F7
:105DD00004E09DB2C3180020236010600A4A5018E6
:105DE000C0212A4600F0D4FE0120294600F0DAFF47
:105DF0000120BDE8384000F043BF38BDE80900206D
:105E0000F0090020EC090020B43E0020094908B543
:105E10000020094B0122088003201A7000F0EEFFD9
:105E2000064B0246188006484FF48871BDE80840CA
:105E300000F0C5BEE0090020DC090020DE090020DA
:105E4000743E0020074B1868052809D1064B1A68D4
:105E5000511C052A196003D100201860FFF772BA9F
:105E6000704700BF441C0020101C002038B53A4B7E
:105E70003A4A19683A4D88B210801488298821401E
:105E800001F4007082B24AB14FF6FF541C60354BEA
:105E90001D78691CC8B21870FFF7D4FF2F4A304B29
:105EA00014881D88254005F4004188B215461C461B
:105EB00008B100F0A7FD2A882388134003F480610D
:105EC00088B230B1244B28494FF6FF321A60486837
:105ED0008047224A224B11881B88194001F4005048
:105EE00081B219B11C494DF6FF7008601288134049
:105EF00003F4805398B230B1174A4EF6FF71116027
:105F0000002003F0F3F9154B154918880A88024060
:105F100002F4006398B260B114490A7812B103F038
:105F2000C5F902E0022003F0E1F90B4B4FF2FF70DC
:105F300018600A490A480A880388134003F48071EC
:105F40008AB242B1044B4FF6FF6018600720BDE8EB
:105F5000384003F0CBB938BD445C0040B83F002066
:105F6000EC3F0020141C0020C400002098010020F9
:105F7000034B987A10B1034905220A60704700BFAD
:105F8000C83F0020441C0020014B04221A607047C7
:105F9000441C0020034B1A78202A01D100201870DD
:105FA000704700BF151C002070470000212810B565
:105FB00008D111480368197801F07F02212A11D015
:105FC000022010BD2028FBD10B4B19680A780B4921
:105FD00002F07F030A4A212B0CBF0B4600231070EE
:105FE0000BB9EDE7074B044C206800248361448221
:105FF00020469847204610BDE83F00205560000825
:10600000151C00203D600008074B19680A7802F053
:106010007F03212B05D1022801D1002070472228BF
:10602000FBD00220704700BFE83F002009B10220EA
:1060300070470128FBD808467047000020B9034B81
:10604000082219680A82704701487047E83F00201B
:106050008C00002020B9034B082219680A8270477F
:1060600001487047E83F00208C000020054B19686C
:10607000CA78042A04D8044B03EBC20100F05EBACC
:1060800000207047E83F002094000020014900F004
:1060900055BA00BFB4000020014900F04FBA00BF5C
:1060A000BC000020334A344BD179186810B5002465
:1060B00041728472C472204600F094FD20464FF471
:1060C000007100F097FD1021204600F09FFD402157
:1060D000204600F03BFE8021204600F027FE2046AF
:1060E00000F0F0FD254B204693F8641000F068FEA8
:1060F000204600F0D6FD0120214600F07BFD012066
:10610000C02100F013FE0120202100F07FFD0120BE
:10611000214600F098FD02204FF4C06100F06AFDB6
:1061200002204FF4807100F001FE0220214600F0B1
:106130008AFD0220202100F069FD0320214600F0A5
:1061400059FD03204FF4887100F000FE0320402128
:1061500000F036FE03204FF4405100F074FD0320A0
:10616000214600F053FD204600F0FAFB044A0120CE
:10617000106010BD41000108E83F00208C000020A5
:10618000441C002010B5FFF71DF9054B00241868CA
:10619000847203F073F800F047FE02490C6010BDF2
:1061A000E83F0020441C002010B5064C18B92368B5
:1061B00001221A8210BD044B1868016888472068C4
:1061C0000A3010BDE83F0020E43F002010B5064C27
:1061D00018B9236801221A8210BD044B186881681F
:1061E000884720680C3010BDE83F0020E43F0020C5
:1061F00008B5234A18B9136802221A8208BD214B38
:10620000002012681880117811F07F0113D1507AA4
:1062100000F02002D1B209B102221A7000F040034E
:10622000D8B2184B18B11A7842F001011EE0197863
:1062300021F001011AE001291FD002291ED1507955
:1062400000F00F024FEA820110F0800F01F1804050
:1062500000F5B842116803D001F03002102A03E0C3
:1062600001F44050B0F5805F01D101211970064B57
:10627000186801698847034808BD184608BD00BF73
:10628000E83F0020BA3F0020E43F0020F8B5224B51
:106290001C68238A267AABB9042E13D11F480178D3
:1062A00001291F490AD11F4C226894B21E4AA21824
:1062B0005200136030220A80037028E010260E80FE
:1062C000072624E0A58AA169AB428CBF02260426DA
:1062D0009D4228BF1D46284688470746002000F0FB
:1062E00045FD2A460146384600F052FC294600206A
:1062F00000F058FD208A638A421BED1808480B4BBA
:10630000228230214FF44052018065821A80024B74
:1063100018680672F8BD00BFE83F0020161C002078
:10632000F03F0020505C004002300020EE3F002093
:1063300010B50A4B0A4918684B78C27893420AD3C1
:10634000817841B9848834B98272064802685368FA
:106350009847204610BD022010BD00BFE83F002036
:1063600018010020E43F002038B50E4A0E4C10689A
:1063700023688269D9785879904721688B7A7BB1F4
:1063800070B9087960B98D7855B9084A1168CB6839
:10639000984720684279C178C2720173284638BD97
:1063A000022038BDC03F0020E83F0020E43F00202D
:1063B00010B5324B1B68187810F07F0004D15A7A60
:1063C00022F02001597210BD022855D15A88002AA6
:1063D00053D11979002950D15A7922F080004FEA1F
:1063E000800404F1804101F5B8442168244C12F086
:1063F000800F247814BF01F0300101F44051A04215
:106400003AD2002938D09B7A002B35D0840002F094
:10641000800204F18043D1B203F5B844226861B12F
:1064200002F03002102A21D1C4B2204600F06BFCE9
:106430002046302100F0EAFB18E002F44051B1F5AB
:10644000805F13D128B90F4B93F82C1000F0B8FCE3
:1064500001E000F046FC20684BF68F72024082F4A7
:10646000405141F4004343F08000206006490B682E
:1064700058698047002010BD022010BDE83F002071
:1064800018010020C4000020E43F002010B51F4B7D
:1064900019684A7922F080034FEA830000F18044B2
:1064A00004F5B8401A4C0068247812F0800F14BF2D
:1064B00000F0300000F44050A34224D24C8814BBBA
:1064C00008B3897AF9B19B0003F1804102F08002A0
:1064D00001F5B843D0B2196828B148F6BF720A4036
:1064E00082F0100004E04BF68F720A4082F4805074
:1064F00040F4004141F080001860064B1A68916931
:106500008847002010BD022010BD00BFE83F0020DA
:1065100018010020E43F002008B5064B1868064B20
:10652000427A42F0200141721868C2699047002007
:1065300008BD00BFE83F0020E43F0020054B1A687B
:10654000538A18B98988CB1A138270470868C01813
:10655000704700BFE83F002008B50B4B002093F8C0
:106560002C1000F02DFC09480168087A082806D193
:10657000074B4FF480521A80064A10211180B0F167
:1065800009035842584108BDC4000020E83F0020DC
:10659000EE3F0020F03F002070B52E4B1C68207AA3
:1065A00002284FD004284DD0032801D0052843D11C
:1065B000A169208AA9B1A0B1A58A854228BF054654
:1065C00028468847228A0646608A531B291861821A
:1065D0002382002000F0D8FB2A460146304600F016
:1065E000EEFA228A52B11C4B4FF440501880002022
:1065F000014600F0D7FB194A30211180208AA38A76
:106600001449834202D80B68032202E018B10B68D8
:1066100005221A720CE00A680623114913720A68EF
:10662000104993B25A1853000C4918603020088062
:10663000084801680B7A06E0072803D10A490A686E
:10664000D36898470823034A10680372BDE8704076
:10665000FFF782BFE83F0020EE3F0020F03F002020
:10666000505C004002300020C03F0020944B73B5C6
:106670001A68944990B24418934E65002A683568A8
:106680002B7A092B15D090B2410001F1804404F51A
:10669000C04422782A7063786B70A08800F0BEFB3B
:1066A00068802089356800F0B9FBA880A08931682E
:1066B000C880854D01242B68DA881C725C78002A1A
:1066C00064D1187810F07F0238D1092C02D1FFF77D
:1066D0002FFE45E0052C0FD193F90320002A01DAA3
:1066E00008214FE099780029FAD198880028F7D13D
:1066F0009B7A002B38D0F3E7032C10D1D8780128EF
:1067000007D0724A204611684B699847032829D15F
:1067100037E09B88002BF4D1FFF7FEFE20E0012C30
:10672000EFD1D9780129ECD198880028E9D15B7A9A
:1067300003F02002D1B20029E3D00AE0012A04D1FB
:106740000B2CDED1FFF710FE0AE0022AD9D1012C72
:1067500002D1FFF72DFE03E0032CD2D1FFF796FE06
:1067600010B1CEE70028BBD15548594B026891B211
:10677000C818584B4100002230200A6018800621BA
:1067800000E00921504A10680172D3E0062C13D1B1
:106790001C7861067AD19A784C4B012A02D11C6888
:1067A000E36969E0022A02D11868036A64E0032AF7
:1067B0006CD119684B6A5FE0002C3ED159880029E2
:1067C00064D1586820F47F42B2F5003F5ED11C7856
:1067D00014F07F0004D19888002800F0AE8055E0C6
:1067E00001280CD1394A58791468A26990470028C9
:1067F0004CD12B68997A002940F09F8046E002280E
:1068000044D15B7903F00F014FEA810202F1804429
:1068100004F5B840304C0268207813F0800F14BFA4
:1068200002F0300202F4405281422FD213F0700F76
:106830002CD1002A40F0818028E0082C03D119785F
:106840004A067CD022E00A2C20D1187800F07F0183
:1068500001291BD19C7ACCB15988B9B95A6822F464
:106860007F40B0F5803F11D1184C58792268946967
:10687000A047002865D009E043B11348002401680F
:1068800020464C828B61984720460AE00F4A0E4C06
:10689000116823680A6958789047032801D1236852
:1068A00006E0094B4FF6FF711B681A8A8A4201D134
:1068B000092103E0022800D082B90821197239E0C9
:1068C000505C004004300020E83F0020C03F002022
:1068D00002300020F03F00201801002093F9000052
:1068E000002821DAD98801910198824202D9019ABF
:1068F0001A8211E08A420FD21349086890F82C10CE
:106900008A4201D2002105E092FBF1F001FB102246
:1069100012B901210D4801700B49086890F82C202C
:106920009A82FFF7B3FC05E003221A72084B4FF47A
:1069300040511980FFF710FE7CBD064B9DE7064BCA
:106940009BE7064B99E700BFC03F0020161C0020C4
:10695000EE3F0020F1610008A9610008CD61000848
:1069600070B50D4B1C780023A34210D203F1805266
:1069700002F5B855A90043F400420E6842F08005C4
:1069800040F60F7232402A430A600133ECE70349B4
:1069900040F08000086070BD180100204C5C004091
:1069A00010B514490B680C461A7A022A01D0042A41
:1069B00004D1FFF76BFC2168087A13E0062A10D196
:1069C0005878052809D11978480606D1D878FFF7F4
:1069D000C7FF094B1A68106A804708490B689A6814
:1069E00090470820034B1A681072BDE81040FFF76B
:1069F000B3BD00BFE83F0020E43F0020C03F0020BF
:106A00007047000037B50023ADF806305848594BA1
:106A1000026891B21204198040F1A8801888564982
:106A200000F00F020A70002A6ED1544C2568AAB2F9
:106A3000534D2A802988534A01F03000108029885C
:106A40004BF6BF7201F44050288021680A4082F45E
:106A5000005080F0200141F4004242F080002060AC
:106A60001B8803F010018AB23AB9226848F60F7009
:106A700010402060FFF794FF1DE0206883B2ADF85E
:106A80000630BDF8061001F4006290B238B12168FA
:106A900040F68F730B402360FFF7E8FD0BE0BDF875
:106AA000063019B20029B1DA226840F68F70104022
:106AB0002060FFF771FD21682A884BF6BF7302F44E
:106AC00080500B4081B209B183F480532C4A108866
:106AD00000F400518AB20AB183F4005329480188B6
:106AE00001F0100291B209B183F01003008800F0A8
:106AF000200291B209B183F0200343F400401F4A01
:106B000040F08001116031E0930003F1804000F516
:106B1000B843196888B2ADF80600BDF8061008B28F
:106B2000002809DA186840F68F7101401960164B89
:106B3000013A53F822008047BDF8061001F08002A8
:106B400093B2002B3FF462AF0B480278910001F141
:106B5000804303F5B841086848F60F7303400B60A3
:106B60000A49013A51F8220080474FE73EBD00BF75
:106B7000445C0040B83F0020C43F0020005C00405F
:106B8000EE3F0020F03F0020540000207000002065
:106B900030B501F1005101F5405301325900521056
:106BA00000230230934209D010F8015C10F8024C27
:106BB00044EA052421F823400133F2E730BD01F116
:106BC000005110B5013201F5405452106400002309
:106BD000934205D054F8231020F813100133F7E73F
:106BE00010BD00004FF6F873014A03401360704770
:106BF000505C0040800000F1804202F5B84210680D
:106C000048F68F130340194311607047800000F16C
:106C1000804202F5B842106848F6BF73034001F0A5
:106C2000100080B208B99BB201E083F0100301F0BC
:106C3000200188B208B183F0200343F4004141F001
:106C4000800010607047800000F1804202F5B84279
:106C500010684BF68F73034001F4805080B208B97E
:106C60009BB201E083F4805301F4005188B208B173
:106C700083F4005343F4004141F0800010607047FA
:106C8000800000F1804202F5B840016848F6BF7309
:106C90000B4083F0300242F4004141F08003036076
:106CA0007047800000F1804202F5B84001684BF661
:106CB0008F730B4083F4405242F4004141F0800353
:106CC00003607047800000F1804202F5B84001681F
:106CD00040F60F630B4043F4004242F08001016034
:106CE0007047800000F1804303F5B840026851040A
:106CF00008D5016840F60F730B4043F4404242F060
:106D0000800101607047800000F1804303F5B843C3
:106D10001A68500608D5196840F60F70084040F40C
:106D2000004242F0C001196070470000064B49085C
:106D30001A6893B203EBC00000F1005202F5405311
:106D400058004A0002607047505C0040054B4908FB
:106D50001A6893B2044A03EBC000831858004A0033
:106D600002607047505C004004300020054B1968F9
:106D70008AB202EBC00000F1005303F540514A0013
:106D800010887047505C0040044B1968044B8AB26D
:106D900002EBC000C1184A0010887047505C0040E8
:106DA00004300020044B1A6893B2044A03EBC0007D
:106DB0008318580001607047505C0040023000208A
:106DC0000C4B1A6893B20C4A03EBC00083185A00AC
:106DD0003E2908D94B09C90601D1581E83B2990230
:106DE00041F4004104E04B08C80748BF0133990251
:106DF00011607047505C004006300020054B196858
:106E0000054B8AB202EBC000C1184A001068830526
:106E1000980D7047505C004006300020C3B2000A55
:106E200040EA032070470000044B00201860044A29
:106E3000044B4FF43F41118019607047445C00409F
:106E4000EC3F0020405C004040F0BF60024B40F44B
:106E50000031D960704700BF00ED00E0C37810B585
:106E600003B3164CE168CB43C3F302244178C4F169
:106E7000040201FA02F10F2222FA04F28478037864
:106E800022400A43110103F16043CAB203F5614194
:106E900081F800230078012200F01F03410902FA63
:106EA00003F007E00078012200F01F03410902FA15
:106EB00003F02031024B43F8210010BD00ED00E04B
:106EC00000E100E021F0604121F07F02014B10431E
:106ED0009860704700ED00E0837910B5002B29D051
:106EE0001A4B01681C68CA4314401C605C6822404D
:106EF0005A60027902F1804404F582321468214319
:106F0000116002689C68D1430C409C60DC68407949
:106F100021401028D96006D1986810439860D9683C
:106F20000A43DA6010BD00F1804303F5823319682B
:106F30000A4308E00179006801F1804202F58233DA
:106F40001A6822EA00021A6010BD00BF0004014066
:106F5000014B5861704700BF00040140064B1A689E
:106F6000596910EA010304D010420CBF002001202F
:106F700070471846704700BF00040140014B58613C
:106F8000704700BF00040140CB78F0B5DA0648BF77
:106F90008A78098803F00F0548BF154311F0FF0FE9
:106FA0001ED004680022012707FA02F707EA01064B
:106FB000BE4211D197004FF00F0C0CFA07FC05FAF6
:106FC00007F724EA0C04282B44EA070401D14661A0
:106FD00002E0482B08BF06610132082AE3D10460B1
:106FE000FF2920D94468002202F10806012707FA88
:106FF00006F707EA0106BE4211D197004FF00F0CC9
:107000000CFA07FC05FA07F724EA0C04282B44EADB
:10701000070401D1466102E0482B08BF0661013236
:10702000082AE1D14460F0BD836819420CBF0020FA
:107030000120704701617047416170470028174B7C
:1070400030B500F44014B4BFDB695B68B4F5401F91
:1070500082B207D1114C23F07063656825F070652A
:1070600065600FE0C40205D5C0F30344032505FAAB
:1070700004F403E0440D240102FA04F423EA0403B7
:1070800043F0706321B1410D090102FA01F213438B
:1070900000280248B4BFC361436030BD0000014016
:1070A00001F0030230B592000F2404FA02F400FA52
:1070B00002F0074B8908023153F8215025EA0404F5
:1070C00043F8214053F82140044343F8214030BDA8
:1070D00000000140014B1860704700BF00300040C5
:1070E000014B5860704700BF00300040014B986072
:1070F000704700BF00300040024B4AF6AA221A60D7
:10710000704700BF00300040024B4CF6CC421A6082
:10711000704700BF00300040014B1860704700BF4F
:1071200020000E42074B1A6842F0040018601968EC
:1071300041F002021A60044B186940F00401196121
:1071400030BF70470070004000ED00E0034B59680D
:1071500008420CBF00200120704700BF00700040B3
:10716000024B1A6842EA80001860704700700040C5
:10717000064B002201281A701A7004D0042804D18A
:107180000520187001E01870704770472010024009
:10719000024B1A6A10431862704700BF0010024089
:1071A000014B1860704700BF3C044242044B5A69CF
:1071B00009B1104301E022EA00005861704700BFA6
:1071C00000100240044B9A6909B1104301E022EA21
:1071D00000009861704700BF00100240044BDA695C
:1071E00009B1104301E022EA0000D861704700BFF6
:1071F000001002404309012B074A01D1136803E044
:10720000022B0CBF136A536A00F01F0023FA00F12F
:1072100001F00100704700BF00100240024B5A6AA3
:1072200042F080705862704700100240044B1A8888
:1072300092B209B1104301E022EA000018807047C1
:1072400000280040034B9A8890B240F010019980CA
:10725000704700BF00280040034A938823F01000C5
:1072600001040B0C9380704700280040084B1A8BD8
:10727000988B198B92B289B28A4280B204D09B8BD0
:107280009AB242EA0140704740EA0240704700BFAC
:107290000028004010B50446FFF7D4FF044BC4F3A8
:1072A0000342A4B21A819C81BDE81040FFF7D4BF0D
:1072B0000028004010B50446FFF7C4FF044B220C21
:1072C000A4B21A849C84BDE81040FFF7C5BF00BF7C
:1072D00000280040034B988800F020018AB2002A61
:1072E000F8D0704700280040074A938823F0080030
:1072F00001040B0C9380044A908800F008018BB2C3
:10730000002BF8D0704700BF00280040074B9A8838
:107310001B8891B210EA030206D0084010F0FF0F5C
:107320000CBF002001207047104670470028004025
:10733000034B9A8891B221EA00009880704700BF01
:1073400000280040224A038890429BB212D002F5E6
:10735000006290420ED0B0F1804F0BD0A2F598326F
:10736000904207D002F58062904203D002F580621D
:10737000904203D14A8823F070031343154A904288
:1073800008D002F58062904204D023F44073CA888A
:107390009BB2134303808B880A8883850C4B02853C
:1073A00098420FD003F5006290420BD002F5406383
:1073B000984207D003F58062904203D002F58063C3
:1073C000984201D1097A018601228282704700BF6A
:1073D000002C014000100040038C70B523F0010226
:1073E0001404250C0584068C8388028B9CB222F041
:1073F00073052B040D881A0C26F0020633042A4369
:107400004E880D891B0C3543ADB22B43134DA8425A
:107410000FD005F50065A8420BD005F54065A842E0
:1074200007D005F58065A84203D005F58065A84220
:107430000ED123F008064B898D881E4326F00403E5
:107440002B43CE898D8924F440743543ADB22C434F
:10745000C988848002838186038470BD002C01402A
:10746000038C30B523F010021404250C0584038C22
:107470008288048B23F0200324F4E6452C040D8835
:10748000240C44EA05241D042B0C0D8992B243EA16
:1074900005134D88A4B243EA0513124D9BB2A842CE
:1074A00003D005F50065A84215D14D8923F080036E
:1074B0009BB243EA05134FF6BF751D408B8822F43B
:1074C000406245EA0315ABB28D8942EA8502CD8957
:1074D00042EA850292B2C9888280048301870384CC
:1074E00030BD00BF002C0140038C30B523F4807206
:1074F0001404250C0584038C8288848B23F4007388
:1075000024F073052C040D88240C2C431D042B0C33
:107510000D8992B243EA05234D8843EA0523124DB3
:107520009BB2A84203D005F50065A84215D14D894C
:1075300023F400639BB243EA05234FF6FF351D4059
:107540008B8822F4405245EA0325ABB28D8942EA8A
:107550000512CD8942EA051292B2C98882808483DD
:107560008187038430BD00BF002C0140038C30B5FF
:1075700023F480521404250C0584038C8288858BA7
:1075800094B225F4E64215042A0C0D8823F4005326
:1075900042EA05221D042B0C0D8992B243EA053301
:1075A0004D8843EA05330A4D9BB2A84203D005F546
:1075B0000065A84205D18D8924F4804444EA8514ED
:1075C000A4B2C98884808283A0F84010038430BDAF
:1075D000002C014000214FF6FF7383800180C180A1
:1075E0004180017270470023038043808380C38001
:1075F000038143818381C3817047038819B199B2A4
:1076000041F0010303E023F001010A04130C03809D
:107610007047B0F8443029B16FEA43436FEA5341F1
:107620008AB201E059044A0CA0F8442070478389CB
:107630009BB20AB1194301E023EA0101818170473D
:10764000038819B199B241F0800303E023F080016F
:107650000A04130C03807047038B23F00802130401
:107660001A0C114301837047038B23F40062130447
:107670001A0C42EA01218BB203837047838B23F0FB
:10768000080213041A0C114381837047838B23F47F
:10769000006213041A0C42EA01218BB28383704703
:1076A000038A828911EA030092B203D011420CBF0F
:1076B000002001207047C9438AB20282704700004F
:1076C00008B5064B00221860054906489A60196102
:1076D000DA80DA609A80036A984708BDF43F002098
:1076E000084400205C49002008B5044B1A690AB11F
:1076F0000020186102494B6A984708BDF43F0020FA
:107700005C49002062B6704708B572B600F0ECFD27
:10771000034B022218699A6019680530884708BD32
:10772000F43F002070B50646002014460D4600F0D8
:10773000CBFD012EA4B207D130462946224600F0E7
:107740004BFD0020124907E0124B01201969224627
:1077500000F042FD00202946224600F03DFD0E4883
:107760000221012203F061FC012000F0ADFD0A4876
:1077700003F063FC0028FAD1084803F05EFC0028FF
:10778000FAD10748802103F026FD0028F9D170BD09
:107790001C010020F43F0020580002404400024039
:1077A0000038004003460A4601201946FFF7BABFD9
:1077B00070B50646002014460D4600F085FD012EEA
:1077C000A4B207D130462946224600F005FD00202C
:1077D000104907E0104B01201969224600F0FCFC1B
:1077E00000202946224600F0F7FC012000F06CFD45
:1077F0000A4803F022FC0028FAD1094803F01DFCD6
:107800000028FAD10748802103F0E5FC0028F9D1CF
:1078100070BD00BF1C010020F43F00205800024052
:10782000440002400038004003460A460020194642
:10783000FFF7BEBF38B504460D4600F071FE0020CC
:1078400021460422FFF7B4FF0020211D2A1FFFF765
:10785000AFFF034B02229A6000F046FD002038BDC6
:10786000F43F0020F8B501F00106044686F001005F
:107870000D18012300262370C5F307221B4BE67069
:1078800026716270A57005319D68081886B215B919
:107890009A68012AFCD19968144D012907D1204624
:1078A0003146FFF7C7FFA8680228FCD11CE0AF688B
:1078B000022FFCD10E48802103F08DFC0028F9D165
:1078C0000C4DE86980472F460028F9D0074D032367
:1078D000AB60EC60AE8000F023FEFA6990470028B0
:1078E000FBD0A9680229FCD10020F8BDF43F00209C
:1078F000003800405C49002070B5184E35696B793E
:10790000022B08D0042B25D1287A441E14F0010F35
:1079100018BF044614E0681D032101F039FDB0F5DD
:10792000806F044608DB05F10A004FF480610724EC
:10793000FFF738FFB4600EE0C30701D4441C00E039
:1079400024B105F10A00A1B2FFF72CFF0349082278
:107950008A6000E00024204670BD00BFF43F002094
:10796000024B012019690A22FFF7DCBEF43F002018
:1079700008B5FFF7C1FF18B9BDE80840FFF7C4BE5E
:1079800008BD000070B5364C4FF40030266903F096
:1079900057FB05464FF4005003F052FBA368062B3B
:1079A0000BD1002D5BD0002859D04FF4083003F0E4
:1079B00055FBBDE87040FFF7DBBFA16807291BD16D
:1079C00000284CD04FF4083003F048FB0321701D11
:1079D00001F0DEFCA0F58064A1B2214CCA0758BFBB
:1079E000A0F2FF31206958BF89B200F20A40FFF7C8
:1079F000D9FE0823A36070BDA268082A09D1002817
:107A00002DD04FF4083003F029FBBDE87040FFF79C
:107A10007BBEA068052811D1002D20D011488021FF
:107A200003F0D9FB0028F9D14FF4083003F016FB1E
:107A300000F05AFC0A4A0221916070BDA368042B31
:107A40000DD165B1A088E2680521A0F58063A16031
:107A500002F5806099B2BDE87040FFF7E5BE70BDE9
:107A6000F43F00200038004008B5174BD869804724
:107A7000002827D1154B9A6812B90120986008BDDB
:107A80009968022907D106229A6000F049FDBDE8F5
:107A90000840FFF765BF9A68032A13D19A88B2F5A8
:107AA000806F06D805219960D968BDE80840FFF7C6
:107AB00039BE04209860D8684FF48061BDE8084062
:107AC000FFF7B2BE08BD00BF5C490020F43F0020B4
:107AD000BFF34F8F054A064BD16801F4E06040EADE
:107AE0000301D160BFF34F8FFEE700BF00ED00E060
:107AF0000400FA05054A064B918888B21887D18898
:107B000088B29887528891B299867047181C0020D5
:107B1000002C01404FF4A060FFF796B9024B1860AB
:107B20001A68002AFCD170471C48002030B54FF479
:107B3000003085B0FFF722FA0821002001244FF41D
:107B400000338DF80C000DEB010002938DF80D1041
:107B500029258DF80E40FFF7BFF9032201A88DF803
:107B600004208DF805408DF806408DF80740FFF79A
:107B700075F98DF8045001A802258DF805408DF89F
:107B800006508DF80740FFF769F92846FFF7DEFA3F
:107B900050B12846FFF7E4FAFFF7A6FB24204FF682
:107BA000FF7103F07BF927E0242003F085F94AF206
:107BB000A553984201D1FFF7B5FA0120FFF7D8FA93
:107BC0004120FFF717FB0028FAD04FF48070FFF731
:107BD000DFFA0120FFF7E4FAFFF786FBFFF77AFBF5
:107BE00003200121FFF722FBFFF774FB47F6FF702C
:107BF000FFF750FBFFF76EFB05B030BD08B5242042
:107C00004AF2A55103F04AF9FFF762FF10B50446A6
:107C100045F25550FFF75EFA0620FFF761FA42F28F
:107C20001070844228BF044628216143C1F30F200D
:107C3000FFF75CFAFFF760FABDE81040FFF764BA9F
:107C4000082812D8012907D10A4B0B4A53F82010F3
:107C500032F8100008610AE049B9064B064A53F8A9
:107C6000201032F81000486101E0FF2300E00023FB
:107C700058B27047240100209800010837B50E4D16
:107C8000044605EB800318690121FFF79BFA35F8DC
:107C900014000A4B1021ADF804008DF807100322E0
:107CA00053F8240001A98DF80620FFF76DF920464E
:107CB0000021FFF7C5FF3EBD980001082401002008
:107CC00070B5012188B04FF40060FFF77BFA314BAB
:107CD00042F210701C686326B4FBF0F14A1E2E4C71
:107CE00001A895B2FFF776FC01A8FFF773FC01A984
:107CF000ADF8045020460025ADF80860ADF80A50F4
:107D0000ADF80650FFF71EFB04A8FFF76CFC02203D
:107D100060230126ADF8180004A92046ADF8103004
:107D2000ADF81260ADF81650ADF81C50FFF754FBDB
:107D300020462946FFF790FC204604A9FFF790FB58
:107D400020462946FFF790FC204604A9FFF7CCFB0C
:107D500020462946FFF792FC204604A9ADF81050B2
:107D6000ADF81260ADF81650ADF81850FFF7FEFBF5
:107D700020462946FFF78AFC20463146FFF760FC83
:107D800020463146FFF739FC20463146FFF741FCDB
:107D900008B070BD84010020002C0140104930B5AE
:107DA0008C8DC0F30743A2B2551C5D43FF22B5FB87
:107DB000F2F40C4BA5B29D808C8DC0F30725A4B2C4
:107DC00001346C43B4FBF2F4A4B2DC80898DC0B200
:107DD00089B201314843B0FBF2F291B2598030BD13
:107DE000002C0140181C002037B50F4D044605EB50
:107DF0008003186B012105EB4405FFF7E3F9B5F8A3
:107E00004000ADF804000CB9102100E01821074B28
:107E10008DF8071003EB84040322206A01A98DF872
:107E20000620FFF7B1F83EBD9800010824010020AC
:107E300018B1E72807D1FFF75DBE034B4FF400529E
:107E4000186A0261704770472401002098B1E72842
:107E500018D10D4B0D4A198F9088414088B2188770
:107E6000998FD088414088B29887998E52884A402D
:107E700090B2988606E0064B196ACA6882F40050F0
:107E8000C8607047704700BF002C0140181C0020DC
:107E900024010020E72851D1294B2A489A8891B221
:107EA00069B1294B198F8AB20AB9012107E0198FEC
:107EB0009B8D89B29AB2531C994201D1FF21017066
:107EC0001F48224BC28891B269B11F48818F8AB284
:107ED0000AB9012107E0818F808D89B282B2501CDE
:107EE000814201D1FF211970154B19485A8891B26E
:107EF00069B1154B998E8AB20AB9012107E0998EB2
:107F00009B8D89B29AB2531C994201D1FF21017015
:107F10000D480C4B028F93F900108A1893B20B494D
:107F2000038791F90030828F9A1891B2084A8187AD
:107F300092F90010838ECB189AB28286704700BFE8
:107F4000181C002028480020002C01401848002060
:107F50000848002073B5104C0E4604EB400494F81A
:107F60004C10054694F84800FFF79AF8B4F85040D2
:107F70002046FEF7EDFF09480023451995F830101B
:107F8000684600948DF804308DF805108DF8066071
:107F9000FEF7A2FF7CBD00BF98000108240100206D
:107FA000F7B5224E8700F3190546586D0C4640F090
:107FB00001000121FFF706F91D4B06EB45065A1992
:107FC00092F83210B6F85C0002AADF198DF803109F
:107FD00022F8080D6946786BFEF7D6FF012C23D1F5
:107FE0001021002213481B27FFF721FB00238DF8E7
:107FF000047001A802278DF806308DF805708DF801
:108000000740FEF72BFFB6F8601001A88DF80410AA
:108010008DF805708DF806408DF80740FEF71EFFBD
:1080200028462146FFF796FFFEBD00BF98000108D5
:1080300024010020002C014010B501214FF0C05058
:10804000FFF7CCF80120FFF767F8FFF763FD012089
:108050000146FFF7B7F80024E0B20134FFF70EFE47
:10806000082CF9D1FFF72CFE0020FFF7BDFE012000
:10807000FFF7BAFE0220FFF7B7FE0320FFF7B4FEBA
:1080800000200121FFF78CFF154B4FF47A701A681E
:10809000144BB2FBF0F14A1E1349F0205A6081F8EC
:1080A0002300002207209A601860CB68C3F30220E7
:1080B000011D0629C0F1070388BFC21E042B28BF7B
:1080C0000423012000FA03F14B1E03F0030000FA21
:1080D00002F2054B1101C8B283F8230010BD00BFA6
:1080E0008401002010E000E000ED00E0054A064BAE
:1080F00002EB800103EB4002486BB2F85C10FEF724
:1081000093BF00BF2401002098000108024B03EB3D
:108110004000018988B27047181C0020024B0022E1
:1081200003EB400002817047181C002030B5082086
:1081300087B00121FFF746F8254C4FF4804001211C
:10814000FFF74CF818204FF4005301258DF8030079
:1081500069462046ADF800308DF80250FEF714FF56
:108160004FF400412046ADF800106946FEF70CFFC1
:108170004FF48042042320466946ADF800208DF874
:108180000330FEF701FF0020ADF804004FF48271C8
:10819000ADF80800ADF80A00ADF81200A4F554449B
:1081A00007204FF400722023ADF80610ADF814003C
:1081B00001A92046ADF80E20ADF81030ADF80C50F6
:1081C00002F0D0FF2188034B8AB21A8007B030BD7D
:1081D000000C01402C48002070B5044601208CB0F2
:1081E0000E4601461546FEF7E1FF124B00208022A5
:1081F0004FF44051012C019302960590069207908E
:10820000089009900A910B9006D103900A480495B2
:1082100002F068FE084807E04CB9102307480393B2
:10822000049502F05FFE054801A902F0D3FE0CB0F0
:1082300070BD00BF0C3800404400024058000240AE
:1082400073B50F230124002501A88DF804308DF8A3
:1082500005508DF80650174E8DF80740FEF7FEFDCD
:10826000FFF764FF20462A461349FFF7B5FF28466B
:108270002A461249124DFFF7AFFF3046022122462F
:1082800002F0D3FE28462146224602F096FF2246FF
:108290002846022102F091FF2846214602F081FF84
:1082A0002146084802F0B6FE3046214602F0B2FEF2
:1082B0007CBD00BF58000240084400200840002058
:1082C000003800404400024010B5044621460448EE
:1082D00002F0A0FE03482146BDE8104002F09ABE1D
:1082E000440002405800024002484FF48051FEF71B
:1082F000A1BE00BF000C014008B54FF40061024868
:10830000FEF792FE08BD00BF000C014030B5092009
:1083100085B00121FEF756FF4FF4006448236946FB
:1083200014488DF80330ADF80040FEF72DFE0B2108
:108330000120FEF7B5FE2046FEF70AFE0C2002944F
:10834000002501248DF80D0002A88DF80C508DF841
:108350000E40FEF7C1FD282101A88DF804108DF80C
:1083600005508DF806408DF80740FEF777FD05B003
:1083700030BD00BF000C01401FB52823002401A818
:108380008DF804308DF80740FEF768FD4FF400606B
:10839000029002A88DF80E40FEF79EFD1FBD000062
:1083A00020B105484FF48071FEF744BE02484FF4F7
:1083B0008071FEF741BE00BF000C014013B50820DC
:1083C00001210F4CFEF7FEFE032010214FF48053D5
:1083D0008DF806008DF80710204601A9ADF804308D
:1083E000FEF7D2FDFFF780FF4FF48072204601A90F
:1083F000ADF80420FEF7C8FD0020FFF7D1FF1CBD3B
:10840000000C014010B50B4C238823F04000010400
:108410000A0C2280FFF768FF074B188881B20748D3
:1084200041F040024FF400712280BDE81040FEF799
:1084300003BE00BF003800402A480020000C014065
:1084400002484FF40071FEF7F5BD00BF000C01407B
:1084500070B5082086B00121FEF7B4FE2E4C012134
:108460004FF48040FEF7BAFE18204FF40053012568
:108470008DF8030069462046ADF800308DF80250B3
:10848000FEF782FD4FF40041ADF80010204669462A
:10849000FEF77AFD04264FF4804220466946ADF887
:1084A00000208DF80360FEF76FFD1020032369465E
:1084B0004FF400768DF8030020468DF80230A4F5C5
:1084C0005444ADF80060FEF75FFDFFF7B9FF0021EF
:1084D00007202023ADF804104FF48272ADF8081085
:1084E000ADF80A10ADF80C10ADF81210ADF814008C
:1084F00001A92046ADF80620ADF81030ADF80E60A9
:1085000002F030FE2188054B8AB2204629461A80A7
:1085100002F047FE06B070BD000C01402A48002062
:1085200010B50B4C238823F0400001040A0C228074
:10853000FFF786FF074B188881B2074841F04002D9
:108540004FF480512280BDE81040FEF775BD00BF9A
:10855000003800402C480020000C0140014B032251
:108560001A607047441C0020044B05489A7A0AB1EF
:10857000052100E001210160704700BFC83F0020D5
:10858000441C002020B105484FF48061FEF754BD23
:1085900002484FF48061FEF74DBD00BF000C014062
:1085A000074B187B50B10749074B0A8807489A8741
:1085B0000188074AD9871088A3F84000704700BF98
:1085C000181C0020004C000824010020024C000868
:1085D000044C000810B5154B187B002825D002F07C
:1085E00047FD342002F058FD114802F09DFD04289B
:1085F0001AD1104C0E48A18F02F07AFD042812D136
:108600000D48E18F02F074FD04280BD10B48B4F83B
:10861000401002F06DFD042803D1BDE8104002F0C7
:1086200033BDFEE7FEE7FEE7FEE710BD181C0020A5
:10863000004C000824010020024C0008044C0008F3
:1086400038B505464FF0FF10FFF7A8FBFFF752FAC9
:108650000F4B45F25554A3F84040FFF7BBFF2820CD
:10866000214602F01BFC0B4820220021C56102615B
:108670004161084C60692369984207D205EB0030DC
:1086800000F063FD6269511C6161F2E738BD00BF13
:1086900024010020181C00202DE9F04106460F4659
:1086A0004FEA91080024444516D056F82420174874
:1086B000174D0270C2F30721C2F307432A62120E5C
:1086C0004170C270E9690422837000F0D5FCE8694A
:1086D0000134011DE961E6E7BB0711D056F82430EB
:1086E0000A480B4AC3F307214170C3F307411362E1
:1086F000037081701B0ED1690422C37000F0BCFCB2
:10870000E720BDE8F041FFF7A1BB00BF24480020EF
:10871000181C002008B5074B0524A3F84040FFF7BC
:1087200059FF2820214602F0B9FB0020FFF72AFF5D
:10873000FFF7CEF9240100204FF480514FF49372DB
:1087400000F0EDBB4FF4005140F2A74200F0E7BB50
:1087500070B50E46054602F0BFFBB3082C461A461C
:10876000013A0434511C114905D054F8040C90FA14
:10877000A0F00860F4E705EB8303086890FAA0F125
:1087800006F003069E19B3420ED013F8014B0822DF
:10879000614011F0010F4FEA510416BF0449214610
:1087A0006140013AF5D1EEE7C84370BD00300240A8
:1087B0002083B8EDBFF34F8F054A064BD16801F413
:1087C000E06040EA0301D160BFF34F8FFEE700BFD6
:1087D00000ED00E00400FA0500230360184670472E
:1087E0000023036018467047002303601846704753
:1087F00048F20203984210B517D007DC992848D0F8
:10880000591E884248D10122244844E048F210030E
:1088100098422ED0703398423ED1214A21480121FE
:10882000117001700022204835E01C4C22783AB1CA
:108830004FF47F40FFF7B2FAE720FFF7F9FA07E0BD
:108840001A4B187808B1411E01E0194B012119702B
:10885000184A002010701849184B194A08701870EF
:1088600018491070184B194A087020701870107051
:1088700010BD0B7D0F4853B9012101704FF47F40AB
:10888000FFF78CFAE720BDE81040FFF7D1BA0022CD
:1088900001E00F480122027010BD00BF32480020E5
:1088A0005A48002064480020401C00203348002023
:1088B00043480020514800204648002049480020F5
:1088C00048480020584800205048002059480020BF
:1088D000304800201FB50A223C234FF461504FF46A
:1088E00061618DE80F00684601A902AA03AB01F09F
:1088F0007FF905B000BD1FB50023009301930293DB
:10890000039301A8694602AA03AB01F039F905B047
:1089100000BD000038B54648464B00241C7004706A
:108920004549464A464B47481C700C700470464BFC
:10893000464914704648474A474D0C7014701C70E5
:108940000470FF202C70FFF729FAE720FFF770FA78
:1089500021462246204602F0A3F8404B012103F8AD
:10896000014F0E200A4601F0B5F92C78012C05D1F3
:108970006420FFF7D3F800F065FEF6E710210C2025
:1089800001F0F4F9364801F0BBFD364802F0FCF97D
:10899000012002F0DDF9274DE720297829B9FFF7FA
:1089A00055FAFA20FFF7BAF8F5E72C4DFFF740FA31
:1089B000012100222B460E2001F05EF902F002FA9E
:1089C000421C2B462A70012100220E2001F082F960
:1089D00000200146012202F063F801242B462146C3
:1089E000224603F8014F0E2001F074F901F0DEFF7A
:1089F0006420FFF793F8002001F08EFF1A4B48F235
:108A000044201C7002F072F94FF47F40FFF7C6F962
:108A1000E720FFF70DFA1549154A00200860154BAD
:108A200010601549154A18601070086038BD00BF05
:108A3000644800205A480020514800203048002057
:108A4000464800204948002050480020484800205F
:108A50005948002058480020324800203348002060
:108A6000FC000108680100206548002054480020EF
:108A70004C4800205C48002060480020434800200B
:108A80001FB5FFF79BFCFFF7DBFB534B53485449E3
:108A9000544A00930190544B029103925349544A13
:108AA000544801F025FF6420FFF738F8002001F05A
:108AB00033FF514B5149012000241C70087048F2CB
:108AC000442002F013F94E4A1388012B08D1FF20ED
:108AD00002F0F2F810210E2001F048F9002108E020
:108AE0000E2010212246474B01F0C6F80028EED197
:108AF0000DE0444B0024CC5401311029F9D10E2053
:108B0000224601F0E7F83E480480FFF763FD3D4947
:108B10003D4BCA781A701C7824B34FF47F00FFF7DE
:108B20003DF9E720FFF784F9374C207850B1FA205F
:108B3000FEF7F4FFE720FFF789F92078411ECAB25B
:108B40002270F1E76FF07F40FFF728F9E720FFF789
:108B50006FF921782B4B0E2003F8031F032201210C
:108B600001F0B8F8274CA2784AB9FFF7B3FE01210B
:108B7000234603F8021F0E20022201F0ABF8234B1C
:108B80001878A0B91F4C217819B9214B01221A700D
:108B90000DE0607858B90146012201F081FF012102
:108BA000234603F8011F0E200A4601F093F81748E8
:108BB000017811B9164A137833B94FF47F40FFF7A3
:108BC000EDF8E720FFF734F9124801F0B5F804B0EA
:108BD000BDE81040FFF78FBEF98200080D83000842
:108BE00079830008A1830008E9870008D987000875
:108BF000E1870008F1870008504800206548002000
:108C0000620100203348002031480020401C002031
:108C10004348002044480020F7B5484B484D187899
:108C200010B32A78002A2ED00020FFF7B9FB642069
:108C3000FEF774FF4FF47F40FFF7B0F8E720FFF72F
:108C4000F7F840484049002303700B703F4A404802
:108C500040492B70137003703F4A0B703F484049E6
:108C6000137003700B700EE02C7864B9204601F08D
:108C700053FE012129703B4A3B4B3C483C49146060
:108C80001C6004600C603B4B1A7812B1FFF742FE87
:108C90001BE0394D2878C0B12B4C2478ACB9214663
:108CA0002246204601F0FCFE344807F069F8344EB5
:108CB0000746304607F064F800960190711F0320C4
:108CC0003A46234601F088FE2C702E490B78012B82
:108CD00016D11D4A1078012812D11A490B78012BA0
:108CE0000ED10324284807F04BF8013C82B22649F4
:108CF000012001F0C7FD14F0FF04F3D1214A1470E4
:108D000011480178C9B10D4B1A78B2B90F4C2578CA
:108D10009DB94FF6FF70FFF741F8E720FFF788F89D
:108D20000F4801784B1CDAB20270FCF7BFFC002838
:108D300001DA257001E001202070FEBD47480020C7
:108D40006548002032480020514800204648002055
:108D5000494800204848002058480020504800203A
:108D600059480020544800204C4800205C4800200E
:108D70006048002043480020401C00206B01002078
:108D800070010020644800207901002038B53E4B76
:108D9000187868B33D490A7852BB3D4B187838BB08
:108DA0003C490A78A2B93C4847F22F5201689142E7
:108DB0000AD93A4D02242C702A78394B0E2003F838
:108DC000032F012103220FE00368591C01600FE00B
:108DD0000B78022B0CD9314C032222702578304BB2
:108DE0000E2003F8035F012100F074FFFFF7E2FC9F
:108DF00027480278002A45D0264C237813B100205A
:108E0000207001E024490B60264C0122264B227081
:108E10001968C72907D900251D60FCF7F5FEA8428F
:108E200004DA257002E01868421C1A601F4B19789A
:108E300069B11F4843F697220368934204D9002280
:108E400002601848027002E001684B1C036015497B
:108E50000B78012B16D01148042202700178104BB8
:108E6000032203F8031F0E20012100F033FFFCF75B
:108E70000FFC0748002303700C4A0E490548137085
:108E80000B70037038BD00BF3248002047480020F7
:108E900046480020594800205C4800203148002006
:108EA000334800204948002054480020484800200A
:108EB0004C4800205848002010B504460A480221BA
:108EC00002F089F90028F9D00748214602F07EF91E
:108ED0000548012102F07FF90028F9D0024802F08C
:108EE00077F9C0B210BD00BF0038004070B5FFF781
:108EF00089FA9F20FFF7E0FFFF20FFF7DDFF044620
:108F0000FF20FFF7D9FF0546FF20FFF7D5FF2D0211
:108F10000646FFF795FA45EA0440304370BD70B548
:108F20000C4615460646FFF76DFA0320FFF7C4FF0F
:108F3000C4F30740FFF7C0FFC4F30720FFF7BCFFEF
:108F4000E0B2FFF7B9FF3DB1FF20FFF7B5FF013DEC
:108F500006F8010BADB2F6E7BDE87040FFF770BA56
:108F600008B5FFF74FFA0620FFF7A6FFBDE8084057
:108F7000FFF766BA08B5FFF745FA0420FFF79CFF34
:108F8000BDE80840FFF75CBA08B5FFF761FAFFF7E4
:108F9000F1FFFFF7ABFF104B984202D04C3B9842D9
:108FA00019D1FFF72FFA8020FFF786FFFFF748FA65
:108FB000FFF728FA5020FFF77FFFFFF741FAFFF78E
:108FC00021FA0120FFF778FF0020FFF775FFBDE8C9
:108FD0000840FFF735BA08BD8D25BF0008B5FFF77B
:108FE00011FA0520FFF768FFFF20FFF765FFC307B1
:108FF000FAD4BDE80840FFF723BA70B50D4616460F
:109000000446FFF7ADFFFFF7FDF9AD20FFF754FF72
:10901000C5F30740FFF750FFC5F30720FFF74CFFEC
:10902000E8B2FFF749FF2078FFF746FF6078FFF7C7
:1090300043FFFFF705FAFFF7D1FFA51C2C460234CA
:109040002B1BF01881B289B1FFF7DCF9AD20FFF7D7
:1090500033FF14F8020CFFF72FFF14F8010CFFF791
:109060002BFFFFF7EDF9FFF7B9FFE8E7FFF7E8F9A6
:10907000BDE87040FFF77EBF2DE9F84F11F0FF0902
:1090800006460D4617464FEA12381DD1B8F1000FBB
:1090900003D1304629463A4651E004465FFA89F248
:1090A000A81B904504EB000109D020464FF48052E4
:1090B000FFF7A3FF04F5805409F10109EEE74FEA39
:1090C00008317018491939E0C9F10004E4B2B8F167
:1090D000000F0DD1D2B2A242DBD902EB09035FFA35
:1090E00083F92246FFF789FF301961194A4626E0C5
:1090F000171B2246FFF781FFBFB24FEA17396519E8
:1091000034195FFA89FB5FFA87FAA0460026F3B2AA
:10911000291B9B45414408D040464FF48052FFF73D
:109120006CFF08F580580136F1E74FEA093904EB86
:10913000090009EB0501BAF1000F04D0FAB2BDE84D
:10914000F84FFFF75ABFBDE8F88F10B50446FFF798
:1091500007FFFFF757F92020FFF7AEFEC4F30740E3
:10916000FFF7AAFEC4F30720FFF7A6FEE0B2FFF761
:10917000A3FEFFF765F9BDE81040FFF72FBF000021
:109180003A4B82B01A6842F0010018605968384AB8
:109190000A405A60186820F0847121F480321A6005
:1091A000186820F4802119605A684FF41F0122F4D6
:1091B000FE0000225860996000920192186840F405
:1091C00080311960294B1A6802F40030019000992F
:1091D0004A1C0092019818B90099B1F5A06FF1D11D
:1091E0001B6813F4003218BF012201920198012874
:1091F00005D0204B4FF000629A6002B070471E49C4
:109200000B6843F010020A60086820F003030B604B
:109210000A68A1F5805342F002000860596859605D
:109220005A685A60586840F4806159605A6822F45C
:109230007C105860596841F4E8125A60186840F090
:10924000807119601868094A8101FBD5536823F0C1
:1092500003015160506840F002035360034A5168B3
:1092600001F00C000828F9D1C3E700BF001002404C
:109270000000FFF800ED00E00020024008B50120EA
:10928000FFF780F9064B0749012200201A60186099
:10929000086005494FF4E0520A801A6008BD00BF1B
:1092A000405C0040445C0040EC3F0020064B1A68E4
:1092B00090B240F0080119601A6890B240F00401C1
:1092C0001960FFF74BB900BF405C004010B5064C79
:1092D0004FF6FB73226813402360FFF745F94FF404
:1092E0003F40206010BD00BF405C00401F4B07287E
:1092F00010B518BF18701A781C4C052A33D8DFE84F
:1093000002F003070C101823FFF7E0FF062202E02B
:10931000FFF7DCFF0422227010BD022159700320E8
:1093200022E059784A1ED0B258705B78EBB904201D
:1093300017E00F4B186881B241F010021A600A2042
:1093400005232370607010BD5878411ECAB25A7050
:109350005B7853B906484FF6EF7201680A40026025
:109360000620024B00E00620187010BD6648002061
:10937000405C004001700B0A0A0C090E43708270B9
:10938000C170043070470170090A417002307047A3
:1093900043185A78405C00EB022188B2704710B540
:1093A00043189A78DC78415C120402EB0462587826
:1093B000521802EB002010BD73B544790023022C33
:1093C00001930FD0032C19D0012C2BD1164D2869F5
:1093D0002E4620B1296901A888470246B8B9B1686C
:1093E00001201BE0104DE8682E4620B1E96801A875
:1093F0008847024658B9B16802200FE00A4D6A69F1
:109400002E464AB16B6901A89847024620B1A96867
:109410002046BDF8043003E0B16803200022134663
:1094200000F04AFB7CBD00BF5C490020072810B556
:109430000CD801290AD8012404FA00F401FA00F03A
:10944000034B1A6822EA040202431A6010BD00BFEF
:109450009C010020F0B5012187B00546FFF798FF79
:1094600000F48043044698B250B3B4F5824F27D13C
:1094700028460521FFF78CFF0026074607353446AE
:10948000BE4208D028460221FFF782FF0136241889
:109490000435B6B2F4E76A4B188E21188AB21A86E0
:1094A000D86B2418DC63D96B9A6B914240F0C28070
:1094B00093F84000002800F0BD809B69992092E05D
:1094C00024F4FF4121F07F0293B2002B00F08F8043
:1094D00048F210039C421ED00AD8B4F5004F40F267
:1094E000AB8048F20200844278D9811C8C420FE0A4
:1094F00048F28002944271D005D848F240039C4261
:1095000040F09A8047E0B4F5024F67D0B4F5084FB9
:1095100040F0928062E00022A81841790DF8021014
:109520000132042AF8D16B7AA87AE97A2A7B8DF87D
:1095300004308DF805008DF806108DF8072005F130
:109540000D00002306A9CA18C15C0133042B02F8E0
:10955000101CF7D105F11100002306AAD218C15C36
:109560000133042B02F80C1CF7D105F11500002380
:1095700000AAD218C15C0133042B1174F8D1304910
:1095800028798A698DF81400002A53D08B69204607
:109590006946152229E0053500212846FFF7FFFE20
:1095A000042100902846FFF7FAFE08210190284682
:1095B000FFF7F5FE0C2102902846FFF7F0FE102180
:1095C00003902846FFF7EBFE04901D4881690029AF
:1095D00030D0836969462046142206E0184B9A6908
:1095E00042B39B69204600210A46984722E041F297
:1095F0000300844205D00C30844202D0411E8C42CC
:109600001AD16C1D04212046FFF7C9FE393013D151
:109610002D790B4A00212046D562FFF7C0FE0421B8
:1096200005462046FFF7BBFE393003D1284601210D
:10963000FFF7FCFE012000E0002007B0F0BD00BFF6
:109640005C49002038B50A4C638898B208B90020FC
:1096500038BD606801780429F9D1FFF7FBFE0128C5
:109660000546F4D100226280FEF74CF8284638BD4A
:109670005C4900202DE9F0470446884691460025C4
:10968000BC4B5A8890B20028FAD05E683178042921
:1096900040F0728130460121FFF77AFE05463046E0
:1096A000FFF7D8FE002840F05C8141F20703771DE8
:1096B0009D4253D85A1E954280F0AC8040F2022061
:1096C000854200F0A78014D80C2D09D8082D80F011
:1096D000A180002D00F04581062D40F29B80DDE049
:1096E0000D2D00F0948040F20127BD4240F03981F9
:1096F0008DE041F20202954218D8B5F5805F00F284
:109700008980B5F5017F40F2828040F207218D42C9
:1097100040F027813379002104F8013B3846FFF7F8
:109720003EFE01462046FFF725FE1AE141F2040005
:10973000854200F0898040F2A08038460021FFF782
:109740002EFE042120603846FFF729FE60600834B1
:1097500006F10D07224606F11D016EE041F21100EF
:10976000854254D02CD841F20B02954252D01CD8DD
:1097700041F209018D424DD000F28B800021384624
:10978000FFF70DFE042120603846FFF708FE082190
:1097900060603846FFF703FE0C21A0603846FFF7F3
:1097A000FEFD04F10C0AE060DAE041F20F008542B0
:1097B00063D035D841F20D02954240F0D28043E0AB
:1097C00042F206018D4222D008D8B5F5005F40F282
:1097D000C88042F204039D4219D983E042F2080393
:1097E0009D42C0F0BE80581C854210D944F20B0245
:1097F000954240F0B6807179DFF878A13846AAF832
:1098000030100121FFF7C4FDAAF83200A9E0377932
:109810002770A6E038460021FFF7C1FD2060A0E0D8
:1098200000213846FFF7BBFDA2464AF8040B04218D
:109830003846FFF7B4FD606092E057F8043B8F4272
:1098400042F8043BF9D18CE000213846FFF7A7FD30
:10985000042120603846FFF7A2FD082160603846E9
:10986000FFF79DFD04F1080AA060E46814F13903D4
:1098700076D10121FFF7DAFD72E000213846FFF7CB
:109880008EFD042120603846FFF789FD60600834B2
:1098900067E0337923713F68276062E03846002132
:1098A000FFF77DFD042120603846FFF778FD082191
:1098B00060603846FFF76CFD0A21A0603846FFF76C
:1098C00067FDC4F80A000C3406F11107224606F1C0
:1098D000350157F8043B8F4242F8043BF9D13888F0
:1098E00010803EE00022B7187879A0540132042A93
:1098F000F9D106F109070023F95CE0180133042BC4
:109900000171F9D106F10D070020395C22180130F0
:1099100004281172F9D106F111070023F95CE2184D
:109920000133042B1173F9D106F115000022875C75
:10993000A1180132042A0F74F9D106F1190000238D
:10994000C75CE1180133062B0F75F9D106F11F0032
:109950000021475C6218013120299776F9D100E097
:109960005446044B188882B2954225D100211980B3
:1099700022E000BF5C49002030460321B778FFF7A2
:1099800007FD8246B8F1000F0CD00421701DFFF7CF
:1099900006FD0346C9F8000006F115014046DAB29B
:1099A00005F0A8FF7A1DB1182046C7EB0A0205F0A2
:1099B000A1FF0F490020C8860D4F00237B80FDF7D3
:1099C000A1FE3078042805D1B5F5805F02D130467C
:1099D000FFF7F2FC3A8891B200297FF451AE044BB4
:1099E000D88E80B200287FF44BAEBDE8F08700BF70
:1099F0005C49002007284FF0010308D803FA00F063
:109A000004490A6810420CBF002001207047184624
:109A1000704700BF9C010020034B188008460021BE
:109A20000A46FFF727BE00BF5C49002010B5034B74
:109A30000124DC86BDE81040FFF71CBE5C49002015
:109A400038B50346154601224A710C46881D194651
:109A5000FFF799FC291D05702046FDF703FF002044
:109A600038BD38B5BDF814500C469B18A071E818E5
:109A700085B202216171E271294604F10800FFF705
:109A800082FC6A1D204691B2FDF7ECFE002038BD35
:109A900038B59B180C469DB202216171A071E2712C
:109AA000294604F10800FFF76EFC6A1D204691B2BA
:109AB000BDE83840FDF7D6BE2DE9F0471D4605F15B
:109AC000020A032301F107091FFA8AFA88714B7110
:109AD0000C46484651461746FFF755FCB5F57A7FC8
:109AE000804613D82946FFF74EFC29464046FFF72B
:109AF0004AFC394604F10B002A4605F0FBFEA91D7D
:109B0000204689B2BDE8F047FDF7ACBE4FF47A7647
:109B1000B5FBF6F10AEB410291B2FFF734FC314696
:109B20004046FFF730FC394604F10B00324605F0A1
:109B3000E1FEA5F57A75204640F2EE31ADB2BF19CF
:109B4000FDF790FEB5F57A7F05D9A5F57A7085B257
:109B50004FF47A7601E02E460025A046394628F8D3
:109B6000056F4846324605F0C5FEB31C404699B223
:109B7000BF19FDF777FE002DE4D1BDE8F0870000A6
:109B8000F7B51A4C1E46A468FF238DF80730002550
:109B9000475D63190135042D5F72F9D100200D5C1A
:109BA0002318013004285D73F9D10021505C63183B
:109BB000013104295874F9D104F115000021FFF78F
:109BC000D9FB0022B35C83540132042AFAD1214626
:109BD000142242F20100FFF733FF42F201000DF1BF
:109BE0000701FFF719FF9DF90700FEBD5C49002042
:109BF0002DE9F34106460C461E4831681546D0F85B
:109C000008804A1E1F46FF23122A8DF8073008F1EC
:109C1000090001D81423336021684A1E122A01D892
:109C20001423236029684A1E122A01D814232B60AA
:109C300039684A1E122A01D814233B603168FFF7A5
:109C400099FB2168FFF796FB2968FFF793FB3968BA
:109C5000FFF790FB4146142242F20900FFF7F0FEA5
:109C600042F209000DF10701FFF7D6FE9DF907004A
:109C7000BDE8FC815C4900202DE9F341864614488B
:109C80000D46866871461F4602ACFF2306F10900A7
:109C900004F8013D9046FFF76DFB2946FFF76AFB8C
:109CA00040F201254146FFF765FB0C22314628466C
:109CB000FFF7C6FE28462146FFF7AEFE00213846D4
:109CC0000A46FFF7B3FE9DF80700BDE8FC8100BF20
:109CD0005C4900202DE9F341864616480C4686680B
:109CE0007146984602AD4FF0FF3306F10A0045F881
:109CF000043D1746FFF73EFB0C21FFF73BFB2146D7
:109D0000FFF738FB3946FFF735FB4146224606F19F
:109D10001A0005F0EFFD902031461022A3B2FFF7A4
:109D2000B7FE40F202202946FFF776FE0198BDE813
:109D3000FC8100BF5C49002037B50B4B40F2072582
:109D40000446996800222846FFF77AFE28466946AD
:109D5000FFF762FE9DF803009DF80410207061700B
:109D60009DF800003EBD00BF5C49002037B50D4A9C
:109D7000034695680C4605F109001946FFF7FAFA03
:109D8000214640F20324FFF7F5FA2946082220462F
:109D9000FFF756FE20460DF10601FFF73DFEBDF828
:109DA00006003EBD5C4900202DE9F0430023CA5C5B
:109DB000C2540133102BFAD10022334B467B991841
:109DC00091F8018004789F19F97A88EA0405847B68
:109DD00085EA01081D194178EF7A90F80CC04F40D0
:109DE000C17B80F810805D1895F80B9085786344EE
:109DF00089EA050593F80B90C378477489EA030351
:109E000090F80490FFB288EA090890F805908574EC
:109E100087EA090790F80690EDB285EA090590F8FF
:109E20000790C374DBB283EA090390F8089080F8C6
:109E300014805FFA88F888EA090890F80990477555
:109E4000FFB287EA090790F80A908575EDB285EAB6
:109E5000090590F80B90C375DBB283EA090388EA21
:109E60000C0C7E406C405940013280F818804776D7
:109E70008576C37680F81CC046778477C17710302A
:109E80000A2A9AD1BDE8F0830D01010810F0800F75
:109E90004FEA400018BF80F01B00C0B270470000BE
:109EA0002DE9F04F037891F8A0A004468AEA030A4E
:109EB00080F800A091F8A1204078A77882EA0005F8
:109EC000657091F8A260E07886EA0703A37091F8C4
:109ED000A32097B0059582EA0005E57091F8A4905B
:109EE0002679069389EA060984F8049091F8A5700A
:109EF0006379079587EA0302627191F8A600A57954
:109F0000E37980EA0506A67191F8A7700C9287EABA
:109F1000030B84F807B0227A91F8A880607A88EA67
:109F2000020884F8088091F8A97008964740677283
:109F300091F8AA50A67AE07A85EA0603A37291F80E
:109F4000AB20267B82EA0005E57291F8ACC009934C
:109F50008CEA060C84F80CC091F8ADE0637BA27B20
:109F60008EEA030E84F80DE00D9591F8AE50E07B7B
:109F70005540A57391F8AF204B4B4240E2739A4491
:109F800091F890009AF80B6199444640267091F838
:109F9000940099F80BA198448AEA0006267191F87A
:109FA000980098F80B919C4489EA000626729CF868
:109FB0000BA191F89C009E448AEA00062673DF19E3
:109FC0009EF80B8197F80BC191F8910091F89D6074
:109FD00088EA00098CEA060060730C9FDDF814A083
:109FE000DE1996F80B0191F89970DDF8208080EA6F
:109FF0000706667203EB0A0091F8956090F80B7102
:10A0000084F8019087EA0600607103EB0800DDF830
:10A0100018E090F80B91099803EB0E0703EB000E84
:10A020009EF80BC191F8920091F89A6097F80B7125
:10A030008CEA000A77405D1991F89E6084F802A0CE
:10A0400091F8960095F80B81A772079F88EA0005A2
:10A0500089EA0606A673A571DE1996F80B0191F838
:10A060009F5003EB0B0791F89360454097F80B0165
:10A070009A1880EA06070D98E7701E1896F80B717B
:10A0800091F897004FF0090B87EA0006E67191F806
:10A090009B3092F80B71E57387EA0300E0720D467E
:10A0A000CDF840B002E000BF0D01010894F8009027
:10A0B000A77887EA0900FFF7E9FEFFF7E7FE94F8C3
:10A0C0000180E678824686EA0800FFF7DFFEFFF7A8
:10A0D000DDFE8AEA070380EA080227797040A67944
:10A0E0008AEA09015FFA80F886EA07005FFA82FBD4
:10A0F0005FFA83FA5FFA81F903970296FFF7C6FECB
:10A10000FFF7C4FEE6796779014686EA0700049105
:10A11000FFF7BCFEFFF7BAFE039B049A94F808C051
:10A1200082EA0301CBB2029947404A40A17A7040CB
:10A13000C6B2059381EA0C00D3B20291CDF804C0F7
:10A1400006930796FFF7A2FEFFF7A0FE637AE67A72
:10A15000024686EA030003930492FFF797FEFFF797
:10A1600095FE049ADDF804C0039B82EA0C015FFAB5
:10A1700081FC80EA0301CBB2029909934A40D3B231
:10A18000CDF820C00A9394F80CC0A17B7040C6B2F1
:10A1900081EA0C000291CDF804C00B96FFF776FE21
:10A1A000FFF774FE637BE67B024686EA03000393B7
:10A1B0000492FFF76BFEFFF769FEDDF804C0049A16
:10A1C000039B82EA0C015FFA81FC80EA0301CBB2B7
:10A1D000029970404A40C6B288EA0A018BEA090037
:10A1E0000D93D3B20E930291CDF830C00F9681EA51
:10A1F0000006FFF74BFE89EA000286EA020C5FFACE
:10A200008CFC8AEA0B0084F800C0CDF804C0FFF78C
:10A210003DFE8BEA000386EA030B02995FFA8BFC92
:10A2200084F801C00846CDF844C0FFF72FFE8AEA43
:10A23000000286EA020A5FFA8AFB88EA090084F8CB
:10A2400002B0CDF848B0FFF721FE88EA0000DDF843
:10A2500018900599079A4640FFB2F6B282EA0908BB
:10A2600087EA0100E670139688EA0006FFF70EFE03
:10A27000059B584086EA0001CAB2484622717840E0
:10A280001492FFF703FE474086EA0703D8B2159001
:10A2900060714046FFF7FAFD89EA0001059B86EAF6
:10A2A00001020798D7B25840A7710697FFF7EEFD55
:10A2B0000799089A48404640F6B20A9F0596E6710B
:10A2C00009980B9E50407E4086EA0007FFF7DEFDAE
:10A2D000DDF820A08AEA000387EA030C5FFA8CF815
:10A2E00084F8088009990A984840FFF7CFFD099A39
:10A2F000504087EA000B5FFA8BF9304684F80990EA
:10A30000FFF7C4FD0A9E524686EA000387EA03016E
:10A310000B985FFA81FB504084F80AB0FFF7B6FD56
:10A32000DDF82CA00E998AEA00000C9E47400F9B96
:10A330000D98FFB24B407040E77283EA000A029327
:10A34000FFF7A4FD0C9A0D9B50408AEA00060E9878
:10A35000F6B226735840FFF799FD0D99029B81EAEA
:10A3600000028AEA0200C1B2617318460391FFF746
:10A370008DFD0E9A0C9B50408AEA00010F98CAB2DC
:10A38000A27358400492FFF781FD0F99514B48404A
:10A390008AEA000C5FFA8CFADDF804C084F80FA09A
:10A3A00003EB0C0295F8800092F80B11DDF850C019
:10A3B00081EA0002227003EB0C0195F8840091F809
:10A3C0000B219E1982EA000103EB0802217195F826
:10A3D000880092F80BC196F80B218CEA00012172DB
:10A3E00095F88C00039E82EA000121739A1995F872
:10A3F000811092F80B0103EB090680EA010295F83F
:10A400008D0096F80B11DDF844C081EA000615991D
:10A410006673581890F80B6195F88910DF1986EA71
:10A420000100607203EB0C0695F8850096F80B119D
:10A430006270129A81EA000666719918DDF818C0F8
:10A4400095F88A6091F80B0103EB0C0295F88E10D9
:10A45000704092F80B6103EB0B02714092F80BC154
:10A4600095F882608CEA0602049EA2709A1992F80E
:10A470000B6195F886205640A671A0721398A173BF
:10A48000191895F88F2091F80B61DDF814C072400F
:10A4900003EB0C0695F8831096F80B0153444840E3
:10A4A000E07095F8871097F80B014840E07195F837
:10A4B0008B0093F80B11E273109A81EA0003511E8E
:10A4C000103D11F0FF00E37210907FF4EFAD17B074
:10A4D000BDE8F08F0D01010838B5054C0546204652
:10A4E000FFF762FC28462146BDE83840FFF7D8BC9C
:10A4F00068480020034610210C200022FFF7BCBB57
:10A50000034610210C200022FFF7E4BB38B50546B6
:10A510000E4CE36A4BB104F0CDFDE36A036000200A
:10A52000E06204F0C7FD006838BD2846FFF762FA14
:10A5300040B9228E91B20029EAD0238E5A1E91B2E0
:10A54000218638BD4FF0FF3038BD00BF5C49002088
:10A55000F7B5034614480D4686681946174602ACFF
:10A560004FF0FF3206F1090044F8042DFEF702FF18
:10A570002946FEF7FFFE41F201053946FEF7FAFED5
:10A580000C2231462846FFF75BFA21462846FFF7A2
:10A5900043FA04F08FFD0199016008460021FEF79F
:10A5A00045FF0198FEBD00BF5C490020F7B5054698
:10A5B00010484FF0FF33876802AC294641F20B0682
:10A5C00007F1090044F8043DFEF7D4FE04223946A1
:10A5D0003046FFF735FA21463046FFF71DFA04F002
:10A5E00069FD0199016028460121FEF71FFF0198CE
:10A5F000FEBD00BF5C49002037B5034613484FF04D
:10A60000FF3284680D4604F1090019460192FEF7F5
:10A61000B1FE0821FEF7AEFE0821FEF7ABFE0023D7
:10A62000E95CC1540133082BFAD11422214641F2CE
:10A630000700FFF705FA01A941F20700FFF7ECF95F
:10A6400004F038FD019A026010463EBD5C490020CE
:10A650002DE9FF411D46314B8646D3F808800F4651
:10A6600008F10900714616460A9CFEF783FE142184
:10A67000FEF780FE1421FEF77DFE1421FEF77AFE20
:10A680001421FEF777FED4F1010138BF0021FEF757
:10A6900071FE0FB1396800E03946FEF76BFE0EB16E
:10A6A000316800E03146FEF765FE0DB1296800E033
:10A6B0002946FEF75FFE74B1216839B9636841F23B
:10A6C00087329342DCBF41F288336360FEF752FE6B
:10A6D0006168FEF74FFE2C22414641F20800FFF769
:10A6E000AFF941F208006946FFF796F9009B002B8D
:10A6F00009DB0FB1019838600EB1029A326045B1A2
:10A700000399296005E004F0D5FC00994FF0FF3370
:10A710000160184604B0BDE8F08100BF5C4900202C
:10A720002DE9FF419846154B07469D6814460E4695
:10A7300005F109003946FEF71DFE2146FEF71AFE17
:10A740004146FEF717FEBDF830400C222946204650
:10A75000FFF776F9204601A9FFF75EF90298002875
:10A7600004DD30460A990B9AFFF760F904F0A2FC69
:10A7700002990160084604B0BDE8F0815C49002000
:10A780001FB500240094019441F204040294FFF7E1
:10A79000C7FF04B010BD00002DE9F04F89B0039150
:10A7A00014469B46139E149D0290FFF7AFFEDDF802
:10A7B00008C0002857D12D4B9A6B511C9963D3F8D0
:10A7C0000890812D09F10A0307D0832D0AD104F1E5
:10A7D000080A09F12208182704E009F11A081027CD
:10A7E0000646129061461846FEF7C4FD391FFEF773
:10A7F000C1FD2146FEF7BEFD5946FEF7BBFD832D88
:10A8000005D15146FEF7B6FD0821FEF7B3FD002243
:10A81000A24205DA0398815C08F802100132F7E7DA
:10A82000002CA8BFA044832D0ED0129AB6B200927D
:10A830000196E8B249463A46A3B2FFF712F9832DD2
:10A840000BD141F20F000AE00020B042EDDA12997C
:10A850000B5C08F800300130F7E741F2030005A96E
:10A86000FFF7DAF8204609B0BDE8F08F5C49002018
:10A870001FB500240094019481240294FFF78CFFFB
:10A8800004B010BD202A73B503460E46144622D8E4
:10A89000124A1946956805F10900FEF76BFD08217B
:10A8A000FEF768FD2146FEF765FD0022A24203DAAD
:10A8B000B15C81540132F9E704F10C032946DAB2A4
:10A8C00041F21100FFF7BCF841F2110001A9FFF7B6
:10A8D000A3F8019801E04FF0FF307CBD5C490020F7
:10A8E000024B01225A805860FEF7ACBE5C49002042
:10A8F00010B5084CE16022616361029B0399E3613A
:10A90000049A059B21626262A362A061012084F81F
:10A91000400010BD5C49002070B5214C054621481F
:10A920000023A363E363238023866386A386E386F1
:10A93000E36263806360A0601B48FCF7C1FEE169CD
:10A940008847A26A06460120904706B3E169884716
:10A950000028FBD1124C0035A16818BF01254D72AB
:10A9600001224FF48040FFF76BF800214FF4804044
:10A97000FFF752F8A168002244F20B00FFF760F8DD
:10A9800044F20B000021BDE87040FFF745B8E369D1
:10A9900098470028FBD0E06980470028FBD1D9E721
:10A9A0005C49002008400020E1A8000838B5094CA7
:10A9B0000020A36A98472546E869064C804700288E
:10A9C000FAD0A16809B10022A260BDE83840FCF7C6
:10A9D0008BBE00BF5C4900202DE9F04F83462F4815
:10A9E00085B0D0F80890144600259A4688464FF066
:10A9F000FF331C2109F1090001930F9E0E9F029560
:10AA0000ADF80C50FEF7B6FC2146FEF7B3FC5946F4
:10AA1000FEF7B0FC04F11001FEF7ACFC3146FEF786
:10AA2000A9FC2946FEF7AFFCBAF1000F08D01AF8CE
:10AA3000052042550135062DF9D10630002207E0E8
:10AA4000534602AA995CC1540133062BF9D1F4E7AD
:10AA5000A24204DA18F8021081540132F8E7002CFF
:10AA6000A8BF00193EB100232FB1B34203DAFA5C4C
:10AA7000C2540133F9E71C34A319DAB24946012064
:10AA8000FEF7DEFF01A90120FEF7C6FF04F012FB6E
:10AA900001990160084605B0BDE8F08F5C490020CF
:10AAA000F7B503460F480E4685681946174602ACAF
:10AAB0004FF0FF3205F1090044F8042DFEF75AFC6F
:10AAC0003146FEF757FC3946FEF754FC29460C2266
:10AAD0000420FEF7B5FF04202146FEF79DFF0198F4
