:020000040800F2
:10500000005000207D790008A5700008A7700008F6
:10501000A9700008AB700008AD7000080000000027
:10502000000000000000000000000000AF70000859
:10503000B170000800000000B3700008B5700008EF
:10504000CD790008CD790008CD790008CD7200082F
:10505000CD790008CD790008097100082971000890
:10506000497100087D7100089D710008CD79000824
:10507000CD790008CD790008CD79000829730008A2
:10508000CD790008CD790008B9700008CD79000805
:105090002D730008CD790008CD790008BD71000896
:1050A000CD790008CD790008CD7900088572000817
:1050B000CD790008CD790008CD790008D9700008B5
:1050C000E9700008CD790008CD790008F970000872
:1050D000CD790008CD790008C9700008CD790008A5
:1050E0000D720008E9720008CD7900080000000088
:1050F00000000000000000000000000000000000B0
:0C51000000000000000000005FF808F153
:1051100070B5012188B0044601F0B4FBA0F1300560
:10512000072D37D803226846214601F0D3FB1C49DE
:1051300004A801F02DFB204604A901F091FB0646CE
:1051400004A801F0E3FA1EB1ADB22846002110E038
:10515000144904A801F01CFB204604A901F080FBBF
:10516000044604A801F0D2FA74B10A35ADB228465B
:10517000314600F0F9FE684601F0B3FBC1B22846A3
:1051800001F08EF8012401E06FF00104684601F09F
:10519000BDFA01E04FF0FF34204608B070BD00BFFB
:1051A000004D0108024D01087FB50121054601F0BF
:1051B00069FBA0F13004072C23D81549684601F09B
:1051C000E7FA2846694601F04BFB0646684601F0BF
:1051D0009DFA6EB90F49684601F0DAFA2846694629
:1051E00001F03EFB0546684601F090FA65B10A34CD
:1051F000A4B22046012100F0B7FE204600F0F6FFE1
:1052000004E04FF0FF3001E06FF0010004B070BD2A
:10521000004D0108024D0108F0B5012185B004469A
:1052200001F030FBA0F13006072E49D86846214630
:105230000322072301F028FB6846264901F0E6FA1D
:105240000546684601F062FA7DB9684621460322A8
:10525000062301F019FB68461F4901F0D7FA0746FB
:10526000684601F053FA0FB92DE001251B49684645
:1052700001F08EFA2046694601F0F2FA07466846C8
:1052800001F044FA1FB1B6B23046002110E01449D3
:10529000684601F07DFA2046694601F0E1FA0446CD
:1052A000684601F033FA8CB10A36B6B23046394658
:1052B00000F05AFE3046294600F0DAFE012007E0F1
:1052C0004FF0FF3004E06FF0010001E06FF00200EA
:1052D00005B0F0BD044D0108094D0108004D01085D
:1052E000024D01087FB50121054601F0CBFAA0F17E
:1052F0003004072C23D81549684601F049FA28469E
:10530000694601F0ADFA0646684601F0FFF96EB94C
:105310000F49684601F03CFA2846694601F0A0FAB8
:105320000546684601F0F2F965B10A34A4B2204698
:10533000032100F019FE204600F0E2FE04E04FF0E9
:10534000FF3001E06FF0010004B070BD004D0108B6
:10535000024D010808B50948094900F017FC094841
:10536000094900F013FC0948094900F00FFC0948FD
:105370000949BDE8084000F009BC00BF0D4D010817
:10538000E5520008194D010819520008264D010880
:10539000A9510008314D0108115100087047000063
:1053A00007B5002100910A460B46024801F0FAF8C1
:1053B0000EBD00BF100B0020BFF34F8F054A064BF8
:1053C000D16801F4E06040EA0301D160BFF34F8F80
:1053D000FEE700BF00ED00E00400FA0510B5013162
:1053E000002393420ED0040F092C01D8303400E082
:1053F000373401F8014C01330024000101F8024B5D
:10540000DBB2EEE710BD000010B54FF000604FF4C6
:10541000A04105F0BBFC0124284B294821461C7003
:1054200005F0A0FF04F022FE04F004FB214640201A
:1054300006F060F86FF07F4004F06EFCE72004F0A7
:10544000E7FC2048047004F033FB7D2006F082F86E
:1054500018B11D490C7006F091F840F6B83004F010
:105460008FFB1A4C05F0CCF805F05CFA184801F0F7
:1054700039FC0122227001F0BFFC164B187818B9D4
:1054800015490A78002AF6D0144C2378002BF2D163
:105490000D4801780029EED10F4C2278012A01D065
:1054A0000F4B33B90F4909B1FFF778FF00F042FD08
:1054B000E1E7FFF74FFF01202070F3E7F21900202A
:1054C0000004300077190020AC230020841900204C
:1054D000FD5C000875190020180B002076190020CB
:1054E000555300089D5300085A4B5B495A6870B5E4
:1054F000501C58600C6814B10B685A1E0A6057485B
:10550000017831B156480178E9B1564C002C34D1BC
:1055100019E0554C236813B12268511E12E0534A1A
:10552000107880B952490B786BB9524A107850B94B
:10553000514E524D317829B3E72004F0E3FC2B782B
:10554000F3B1142121604E4B42481B7843B181686E
:105550004EF65F22914201D9FFF72EFF8468631C4B
:10556000836042480478002C34D1204604F0C8FD02
:1055700040F6B73188421BD82CE000F007FCE2E788
:105580000121DFE72B784BB14FF6FF7004F0C4FB2D
:105590000124E72004F03CFC3470D4E7E72004F059
:1055A00065FC384A107808B13221CBE76421C9E79D
:1055B000204604F0ADFD34490A78C2B93348037877
:1055C0002BB130492D4A0878137803423ED0012090
:1055D000264B0BE0002004F093FD41F65732904239
:1055E00005D9002004F094FD294B012018702649AC
:1055F0000878E0B91E4A12784AB1164B41F2873258
:10560000D9689142A8D8D868411CD9600FE01B4BDB
:10561000197861B10F4B47F22F511869884203D9AD
:105620001A6100F049FC02E01A69501C1861194B1C
:105630001A68B2F57A7F05D300221A60BDE870407F
:1056400005F0EEBE1868411C196070BD00F034FC16
:10565000BDE700BF180B0020B4230020DC19002098
:10566000B40E00208D5D0008B023002072190020C8
:10567000761900207819002077190020751900206C
:10568000481A002074190020831900207319002083
:105690007A190020B823002008B5094B186004F0DF
:1056A00059FF002004F09EFF064804F0EBF904F0D7
:1056B00067FF04F085FFBDE8084006F009BE00BFA3
:1056C000C8010020A0860100074B1868052808D1F2
:1056D00006490A7D012A04D1887D0B7EC11AC8B211
:1056E00070470020704700BF0C1A0020180B0020E4
:1056F0000D4B10B51868052813D10C4C217D0129DC
:105700000FD1E28A238BD01A012804D10021032073
:10571000217506F048FF238BE218591C907E2183E7
:1057200010BD4FF0FF3010BD0C1A0020180B0020E8
:10573000084B196805290BD1074BDA6D991881F8C8
:105740006000501CB0F5807FD86501D10022DA6579
:10575000704700BF0C1A0020180B002070B5234AB8
:1057600092F86031012B3FD0D2F86401B0F5807F10
:1057700002D10021C2F86411D2F86431D26D1B4805
:10578000934203D1002180F8601170BD8CBFC3F536
:105790008072C3EB0202154CC0F86821D4F868513E
:1057A00099B2402D07D94033403DC4F86431C4F864
:1057B0006851402606E0E8180023AEB2C4F8640140
:1057C000C4F868310A4A01255018C021324684F8CD
:1057D000605106F05FFE2846314606F065FF284618
:1057E000BDE8704006F0CEBE70BD00BF180B0020B3
:1057F000780B0020094B10B593E8140008331868A3
:1058000010180AD008220649FFF7E8FD054920468E
:105810000422BDE81040FFF7E1BD10BDE8F7FF1F0F
:10582000770100208701002038B50D460446AC42C0
:1058300003D254F8043B9847F9E738BD08B5074848
:105840000749FFF7F1FF07480749FFF7EDFF074852
:105850000749BDE80840FFF7E7BF00BFB0500108A7
:10586000B0500108B0500108F8500108F850010884
:10587000F8500108FEE70000054A08B5136805491D
:1058800018188842106001D90BF0CCF9184608BDF1
:1058900000000020004800204FF0FF30704701203A
:1058A00070470000014B1868704700BF840C00204F
:1058B000064B0246582000FB013101F1080303CBDF
:1058C0001060516018689060704700BF840C002021
:1058D000014BD3F864017047840C0020064B02464C
:1058E000142000FB013101F5B67303CB1060516049
:1058F00018689060704700BF840C00200E4B2DE9A3
:10590000F041D3F8647180460024BC4211DA1425BA
:105910006543094E4146701900F5B6700C220CF033
:10592000CBFB20B97519D5F86801BDE8F0810134C9
:10593000EBE70020BDE8F081840C00202DE9F04762
:1059400088B0814668460D4600F022FF1E4B0024B9
:10595000D3F800A054452DDA55B3582666431A4FA4
:10596000494607F1040808EB060004300C220CF04D
:10597000A3FBE8B928460CF06FFB06F110014028A4
:1059800034BF0246402208EB010029460BF076FDA9
:10599000BE19012286F85820694604A8746800F0F0
:1059A00019FF04A8A047044604A800F0AFFE03E0D6
:1059B0000134CFE74FF0FF34684600F0A7FE2046E1
:1059C00008B0BDE8F08700BF840C002038B505465C
:1059D000064C28B104F042FA012384F8303238BD75
:1059E00004F0EAF984F8305238BD00BF840C00207E
:1059F000024B00221A6004F08DBE00BF240B002071
:105A0000034A044800231370036004F0C1BE00BFC2
:105A100076190020240B0020044B054900200122A8
:105A20001A7008604FF4C02004F04EBE76190020B2
:105A3000240B0020F0B5264B0646187887B00F4699
:105A400018B924490C78254614B14FF0FF303DE0D9
:105A50008DF80C408DF80D408DF80E408DF80F40FC
:105A60001D4C06A8D4F8343204955A0900EB820282
:105A700003F01F01012000FA01F052F80C1C014351
:105A800042F80C1C04A841F288320592009003A948
:105A9000581C2A462B4603F03DF9002816DDD4F8A1
:105AA000343206A95C0901EB840050F80C4C03F079
:105AB0001F0244FA02F414F0010007D018463146E0
:105AC0002B463A4603F0BEF9044B1D6007B0F0BD0B
:105AD0008219002083190020840C0020280B00204C
:105AE000F0B5264B0646187887B00F4618B92449FA
:105AF0000C78254614B14FF0FF303DE08DF80C4096
:105B00008DF80D408DF80E408DF80F401D4C06A805
:105B1000D4F8343204955A0900EB820203F01F01D5
:105B2000012000FA01F052F80C1C014342F80C1C51
:105B300004A841F28832059200902946581C03AA15
:105B40002B4603F0E7F8002816DDD4F8343206A916
:105B50005C0901EB840050F80C4C03F01F0244FA7E
:105B600002F414F0010007D0184631462B463A469D
:105B700003F0EAF9044B1D6007B0F0BD8219002064
:105B800083190020840C0020280B00202DE9F84FF9
:105B900004468946002941D000283FD0204B1D688B
:105BA000042D3BD00027AF421E4E4FF058080FDAAD
:105BB00008FB07F856F80810494507D106EB08021C
:105BC000101D21460C220CF077FA38B30137EAE7B2
:105BD00008FB05F8A6F1040A0AEB080708F1100013
:105BE000C7F804900021402230180BF0CDFD06EBE1
:105BF0000801081D0C2200210BF0C6FD2068616819
:105C000007F1080203C2A3680020013507F1040B65
:105C100087F858001360543746F8045CBDE8F88FE5
:105C2000840C0020880C002030B51E48ADF5797D2D
:105C300006F0AAFD002832D11B4B1C481C4D0493D2
:105C40001C491D4A1D4B059009951D481D4D069187
:105C500007920A931C491D4A1D4B0B900E951D4837
:105C60001D4D1E4C0C910D921D491E4A0F931E4B4B
:105C70001090139515A85FAD11911292149308948A
:105C800003900CAC029504F095FD284604F098FDB5
:105C900000940448154902AA04AB06F07CFD0DF5FA
:105CA000797D30BDB80F0020E15A0008355A000850
:105CB000F1590008195A0008015A0008CD59000886
:105CC000196400083D590008A5580008B15800089B
:105CD000D1580008DD580008CDA70008F1A700083A
:105CE000195F0008FD580008E1A70008E8F7FF1F4A
:105CF000014807F050BB00BFB80F002030B50220AC
:105D000011228DB0014602F085FF051E28DB1549E2
:105D100007A806F04BFE022316200024ADF80C3035
:105D20008DF80E003321E0220123BB208DF81140B5
:105D30008DF80F108DF810208DF812308DF81300AB
:105D40000324102203A90091019200231322284664
:105D500007A903F003F9013CF3D1284602F088FFBC
:105D60000DB030BDE8F7FF1F10B5074CFFF75CFF23
:105D7000204606F00CFD204607F060F80446FFF7C9
:105D8000BDFF204610BD00BFB80F002038B5114C34
:105D9000D4F8445B2DB1D4F8441B4B1EC4F8443BEB
:105DA00038BDD4F8483B0C4A52F8230003F0DCFF1E
:105DB000E72004F02DF8094A6420D4F8481BC4F801
:105DC000440B10684B1C8342C4F8483BA8BFC4F87E
:105DD000485B38BD840C0020242301080400002007
:105DE00030B502200121062285B002F013FF051E06
:105DF0001ADB00213522082402238DF802108DF8C9
:105E00000320694610228DF804408DF805408DF876
:105E100006408DF80740ADF8003002F04FFF044611
:105E2000284602F025FF01E04FF0FF34204605B080
:105E300030BD000010B5074C642003F017FED4F805
:105E4000340202F015FF18B94FF0FF33C4F83432B2
:105E500010BD00BF840C002008B5FFF7EBFF022047
:105E60000121062202F0D6FE114B0028C3F83402AD
:105E70001ADB0221A3F84C1B3321162283F84F1B97
:105E8000D02183F84E2B83F8511B3622042183F84E
:105E9000502B83F8531BE522064983F8522B10221E
:105EA000BDE8084002F00ABF4FF0FF3008BD00BF58
:105EB000840C0020D0170020044B012200205A80BF
:105EC0001880D886024B1A70704700BF401B002014
:105ED000821900200F4B2DE9F041D3F86471804600
:105EE0000024BC4211DA142565430A4E414670195C
:105EF00000F5B6700C220CF0DFF820B9751995F892
:105F00007801BDE8F0810134EBE74FF0FF30BDE8E8
:105F1000F08100BF840C002008B5FFF7DBFF0138DB
:105F2000082803D8024B1918087F08BD022008BDB5
:105F300024230108084B0022D3F83C1203F5107308
:105F40008A4208DA93F8500010B1002083F850001C
:105F500001325133F4E77047840C0020014806F009
:105F600003BC00BFB80F002014282DE9F3410446FC
:105F70000E4675D8FF2973D000F0A8FB28B10D2C70
:105F80006ED00F2C6CD00E2C6AD000F0BDFA08B188
:105F9000012C65D900F0FEFC18B1A4F11203012B0D
:105FA0005ED9304D20012F582F492A188F42B2F860
:105FB000048001D1042003E02C4B9F4203D1082030
:105FC000012105F0A3FAADF80480062E44D8DFE8DD
:105FD00006F00411181F26313C00224A102302EB60
:105FE000041403200021A1738DF807308DF80600FA
:105FF000083431E004218DF8071005EB0414012268
:1060000029E048228DF8072005EB0414022222E043
:1060100028208DF8070005EB041403221BE0114B28
:10602000182203218DF807208DF8061003EB0414C5
:10603000042210E00B481C2103238DF807108DF873
:10604000063000EB0414052205E000208DF807005F
:1060500005EB04140622A273384601A905F028F9BD
:10606000BDE8FC810800002000080140000C014050
:10607000142870B504460E463ED8204B03EB0010A2
:10608000817B012938D0022936D0032934D0062952
:1060900032D0FF2930D000F019FB30B10D2C2BD0BD
:1060A0000F2C29D00E2C00D170BD00F02DFA10B1AC
:1060B000012C00D870BD00F06DFC20B1A4F11202DB
:1060C000012A00D870BD0D4D05EB0413987B042800
:1060D00003D120460021FFF747FF012E05D12401FF
:1060E0002819295983880B6170BD2EB924012919FB
:1060F0002B598A885A6170BD70BD00BF080000200E
:10610000142810B5044602D94FF0FF3010BD1A4BC9
:1061100003EB0010817B0029F6D0FF29F4D000F0BA
:10612000D5FA28B10D2CEFD00F2CEDD00E2CEBD0E2
:1061300000F0EAF908B1012CE6D900F02BFC18B107
:10614000A4F11202012ADFD90B4B03EB0410817B6F
:10615000062908D193F850114A1ED3B2FD2BD3D88B
:106160002046FFF701FF04482401011989880059DE
:1061700005F0EEF810BD00BF0800002010B54FF488
:10618000004086B005F08EF901214FF4007005F053
:10619000BDF9154804F004FE012400234FF46022E9
:1061A000114801A901938DF808308DF80930039248
:1061B00004938DF8144004F021FE0B48214604F0AE
:1061C00041FE094804F047FE074804F049FE002854
:1061D000FAD1054804F048FE034804F04AFE0028BE
:1061E000FAD106B010BD00BF00240140092838B51F
:1061F000044601D80A34A4B200F068FA40B10D2C6C
:1062000002D14FF0FF3038BD0F2CFAD00E2CF8D051
:1062100000F07AF900F0BEFB18B1A4F11203012BD3
:10622000EFD9142CEDD81C4D05EB04108279FF2A10
:10623000E7D095F85111914206D0837B0621204684
:1062400085F85031FFF790FE95F85251012D05D198
:10625000FFF794FF104A002082F852010E4D05EB23
:106260000414A17995F851318B4207D00B480122D3
:10627000002304F00BFEA17985F851110748012194
:1062800004F0FBFD0548022104F050FE0028F9D07F
:10629000024804F048FE38BD0800002000240140F8
:1062A0002DE9F041142888B004460D4600F2A7807D
:1062B000544B03EB00108168002900F0A08000F02F
:1062C00005FA40B10D2C00F09A800F2C00F0978059
:1062D0000E2C00F0948000F017F910B1012C40F260
:1062E0008E8000F057FB20B1A4F11202012A40F287
:1062F0008680444B03EB0410817B09B104297ED1D5
:10630000414E424A37684BF680316943B7FBF2F39E
:10631000581EFF2586B2012091FBF5F7014605F0D6
:10632000F5F804212046FFF71FFE364ABFB202EB04
:1063300004139968B1F1804F02D10120014608E0B1
:10634000334D0220A94203D03248814203D10420B8
:10635000012105F0E7F82B4B4BF67F3203EB0415D8
:10636000ADF80460A868002601A9ADF80A60ADF890
:106370000660ADF8082005F0B1F9ADF81860AE89F7
:106380006021012005F10808ADF81010ADF81200E9
:10639000ADF8167046B9A86804A905F0E9F9A8682F
:1063A000082105F025FB1FE0042E08D1A86804A9E8
:1063B00005F022FAA868082105F022FB14E0082E57
:1063C00008D1A86804A905F05BFAA868314605F071
:1063D00021FB09E00C2E07D1A86804A905F092FA68
:1063E000A868082105F01EFB064A012102EB0414EF
:1063F000A06805F0F1FAA068012105F0CAFA08B01A
:10640000BDE8F08108000020B802002000366E01CF
:106410000004004000080040014B1868704700BFAE
:106420001C0B002007B5002100910A460B460248CC
:1064300000F0B8F80EBD00BFE4170020024B18783A
:106440005978401A704700BFEC170020064B5A7865
:106450001978914204D99818013280785A7070479F
:106460004FF0FF30704700BFEC170020054B5A7803
:106470001978914202D99818807870474FF0FF3010
:10648000704700BFEC17002070470000F8B5094BBB
:10649000054693F82200164650B10C468F18BC42B0
:1064A00006D0296828460A6814F8011B9047F6E7C9
:1064B0003046F8BDEC17002010B50C4B012293F8C4
:1064C00022408CB193F823401F2C02D94260002057
:1064D00010BD93F824001C1884F82510411CC8B284
:1064E00083F8240083F82300104610BDEC17002029
:1064F00000224260024A4FF47A7181600260704764
:106500005823010870477047014B93F859007047B2
:10651000EC17002013B5084C0021009104F1640031
:106520000A460B4600F03EF804F16C0002B0BDE8EC
:106530001040FFF7DDBF00BFEC17002008B5034B8C
:1065400053F8200000B1804708BD00BF6818002044
:1065500007B5002100910A460B46024800F022F8D8
:106560000EBD00BFA81800202DE9F0410024074609
:106570000E4625463B1919790A22304600F08CF860
:106580002E218046304600F055F801344044032C5B
:106590000544EFD13046F9790A2200F07DF8281839
:1065A000BDE8F08130B58371044D9DF80C30044690
:1065B000056001714271C37130BD00BF78230108CD
:1065C000044B054A00201A60187158719871D871EF
:1065D000704700BFB01800207823010807B50021DC
:1065E00000910A460B460248FFF7DCFF0EBD00BFD4
:1065F000B8180020F8B506460C468F180025BC4296
:1066000007D0336830461A6814F8011B90472D18DC
:10661000F5E72846F8BD38B505460C46084641B1B1
:106620000BF01AFD2B6802465B6828462146984706
:1066300038BD38BD08B503681A68904708BD70B505
:1066400000238AB08DF82430012A98BF0A220DF168
:106650002303B1FBF2F505FB1211CCB2092C1E4647
:1066600001D8303400E03734E4B203F80149294658
:10667000002DEED13146FFF7CEFF0AB070BD10B548
:10668000044622B90268C9B21268904710BDD2B25E
:10669000BDE81040FFF7D3BFFFF7F1BF07B50021FA
:1066A00000910A460B460248FFF77CFF0EBD00BF73
:1066B000C418002007B5002100910A460B46024885
:1066C000FFF770FF0EBD00BFCC180020014B587DB6
:1066D000704700BFD41800207047000007B50021A4
:1066E00000910A460B460248FFF75CFF0EBD00BF53
:1066F000EC18002007B5002100910A460B4602481D
:10670000FFF750FF0EBD00BFF818002010B504467B
:1067100000680AF0B7FB204610BD10B504460068BB
:1067200008B10AF0AFFB00232360A360636010BDD3
:1067300038B504460D46006801310BF0E3F810B19E
:1067400084E82100012038BD036810B5044613B168
:106750004068884207D22046FFF7EAFF20B1A168CF
:1067600009B922681170012010BD70B50E4611469E
:1067700004461546FFF7E8FF18B92046FFF7CDFF9E
:1067800004E0A560206831460BF008FC204670BD8F
:1067900038B50023044603604360836003730D46ED
:1067A00039B108460BF058FC294602462046FFF74F
:1067B000DCFF204638BD884210B50B46044607D0A2
:1067C000096819B19A68FFF7D0FF01E0FFF7A5FF4C
:1067D000204610BD002310B504460360436083606B
:1067E0000373FFF7E8FF204610BD38B505460C4699
:1067F00041B108460BF030FC214602462846FFF71F
:10680000B4FF01E0FFF789FF284638BD826808B56C
:106810000B4612B919B9012008BD11B903681878DF
:1068200002E000680BF0CCFAD0F1010038BF002084
:1068300008BD10B58B688468E41AA2420CD80068C1
:1068400068B1096851B180181A460BF035FCD0F1D7
:10685000010038BF002010BD002010BD084610BD4B
:1068600082688B689A4202D30022FFF7E2BF0020C1
:1068700070478368994203D2006810B1405C70474A
:1068800000207047FFF7F5BF9A422DE9F041074617
:106890000D4614461E4601D93446164638460C4964
:1068A000FFF776FFA86884420FD82968864228BF80
:1068B0000646002211F806808A552B6838461919B9
:1068C000FFF793FF286800F806803846BDE8F0819E
:1068D000F44E010810B58B680446FFF7D5FF20463B
:1068E00010BD006808B10AF0A5B9704707B50021CE
:1068F00000910A460B460248FFF754FE0EBD00BF4A
:106900000019002007B5002100910A460B460248F5
:10691000FFF748FE0EBD00BF0819002007B5002193
:1069200000910A460B460248FFF73CFE0EBD00BF31
:10693000101900204FF0FF307047704708B5054828
:1069400005F089F80348802105F08DF80028F9D07A
:10695000012008BD00440040202108B5034805F08F
:1069600082F8003018BF012008BD00BF004400407D
:1069700008B5024805F073F808BD00BF00440040A8
:1069800000224260024A4FF47A71816002607047CF
:1069900088230108014B187C704700BF181900209C
:1069A00013B5084C0021009104F114000A460B466F
:1069B000FFF7F8FD04F11C0002B0BDE81040FFF73E
:1069C000DFBF00BF1819002070474FF0FF3070473D
:1069D000084608B5FEF7ACFE012008BD08B5FEF775
:1069E00073FE08BDFEF784BE00224260024A4FF4E7
:1069F0007A71816002607047A82301080846FEF79B
:106A00004BBE000013B5074C0021009120460A46FA
:106A10000B46FFF7C7FD04F1080002B0BDE81040C7
:106A2000FFF7E2BF441900200023036018467047B7
:106A30000023036018467047002303601846704720
:106A40002DE9F04191F8008086B00C46B8F1000FB6
:106A500014BF90464FF0000806460BF0FDFA0746BB
:106A600020460BF0F9FA012518231E21022201937A
:106A7000029103920590002300950494404631460C
:106A80003A4602F0ABFB034B18705D7006B0BDE8F0
:106A9000F08100BF5C19002048F20203984210B553
:106AA00017D008DC992843D0591E884243D1224888
:106AB0000122427110BD48F21002904227D070327C
:106AC000904238D11C48012100238170C1700371AC
:106AD00010BD194C627952B11848002202704FF46F
:106AE0007F4003F019F9E72003F092F906E0A0795E
:106AF00010B1431EA37101E00121A1750021617154
:106B0000E17521766176A176E176217710BD0A7D67
:106B1000094852B90123C3754FF47F4003F0FCF8D4
:106B2000E720BDE8104003F073B90021C17510BD26
:106B3000014B0121597710BD5C190020DC190020A0
:106B40001FB54FF03C0C0A234FF461514FF46162C2
:106B50008DE80E10684601A902AA03AB01F098FB6C
:106B600005B000BD1FB5002300930193029303936A
:106B700001A8694602AA03AB01F052FB05B000BDB3
:106B800030B5544D00249FB0FF20AC70EC706C7099
:106B90006C71EC756C772C766C76AC76EC7603F0D9
:106BA000BBF8E72003F034F921462246204602F0E4
:106BB000F1FA2B46012103F8074F0E200A4601F097
:106BC000EBFB444B5879012805D1642002F04EFFBD
:106BD00001F07AF8F5E710210C2001F029FC3E487D
:106BE00001F0F0FF3D4802F049FC012002F02AFCD0
:106BF00068463B4900F09AFD364DA9786A780A4309
:106C00001CD1AD7F002D5AD0FF2002F0CFFB002811
:106C100055D11A24013C06D0E72003F027F9322091
:106C200002F024FFF6E72B4D0E202B4603F8064F0B
:106C30000121224601F0B0FBAC77DDE7E72003F04D
:106C4000E7F80E2001210022AB1D01F077FBAC78A4
:106C500014B102F031FC28701E4C0121237800226F
:106C6000581C234603F8060F0E2001F095FB002068
:106C70000146012202F08EFA01252346294603F837
:106C8000075F2A460E2001F087FB02F009FA642014
:106C900002F0ECFE002002F0B7F948F24420E5775C
:106CA00002F09EFB4FF47F4003F036F8E72003F03C
:106CB000AFF8FFF745FF0021A1751FB030BDE720F9
:106CC00003F0D4F8FA2002F0D1FE684600F082FD0D
:106CD00092E700BF5C190020C02301085C0100207E
:106CE000416A000830B5384C85B0206203F062FB81
:106CF00003F0A2FA354B36483649374A00930190E3
:106D0000364B029103923649364A374802F068F909
:106D1000642002F0ABFE002002F076F9002501238A
:106D200048F24420E576E37702F05AFB2F480188C9
:106D3000012906D00E2010212A46A31D01F0FEFADB
:106D4000A8B1FF2002F032FB10210E2001F070FBF1
:106D50000021274B0024CC5401311029F9D12246BF
:106D60000E2001F019FB214A148003F06BFC164C35
:106D7000237993B9A07910B90121A1750DE0E079CB
:106D800058B90146012202F005FA0121234603F811
:106D9000071F0E200A4601F0FFFA0B4B1A795AB969
:106DA000987D48B1134801F029FBFFF7DBFE05B0E1
:106DB000BDE83040FFF7C4BE4FF47F4002F0ACFFA7
:106DC000E72003F025F8EDE75C190020F1A20008A8
:106DD00005A3000871A3000899A30008396A0008F8
:106DE000296A0008316A0008996A0008AA0200208E
:106DF00062190020801900202DE9F3419C4C94F881
:106E000026202346002A40F0AF8094F8270000286F
:106E100040F0AA80E07F18B902F0F6F80121E1778E
:106E2000934CA17D11B1FFF7ABFE06E0227922B1B0
:106E3000E67D3546002E00F0C3808D4BD8780128C2
:106E400014D1DC7D012C11D1597901290ED10324F3
:106E500088480BF001F9874982B2012002F08AF8D4
:106E6000621E12F0FF04F3D1814BDC70804C94F869
:106E7000280040B9217E002940F0B980637E002BB4
:106E800040F0B580F0E0E17DA1B394F827208ABB03
:106E9000237E002B00F0BD802CE0234603F8090F71
:106EA00001210E20032201F077FA4FF6FF7002F065
:106EB00033FFE72002F0ACFFFEF7CEFF00286C4C5A
:106EC00080F2D08094F82620002A40F0CD80FEF792
:106ED00087FF002880F2C48002232377644C0121BD
:106EE000207F234603F8090F03220E2001F054FAF5
:106EF000002121765E4C217E002900F0B580627E63
:106F0000CAB9FEF731FF002811D002DA4FF47F0032
:106F100007E0012801D1584803E0022803D14FF0CF
:106F2000FF1002F0F9FEE72002F072FF03E0534980
:106F3000012363760860FEF7DBFE002840F09480B2
:106F40004F4802780AB102F037FF494B00214B4805
:106F50009976D976597619760268002A00F08480ED
:106F6000012183F826107FE0DC7F002C3FF458AF2E
:106F7000434D2A780AB102F01FFF3D4C00252846F8
:106F80006571E57584F82650E57725766576A576F2
:106F9000E576257703F000FA642002F067FDA37D13
:106FA00033B1284602F030F80120E077FFF7E8FD22
:106FB0004FF47F4002F0B0FEE72002F029FF2FE7F8
:106FC00031463246304602F0E5F82E480BF044F8E0
:106FD0002D4F804638460BF03FF800970190791FFF
:106FE00003204246334602F071F8267125E7FEF78A
:106FF00021FF1F4800228276C276427602764FF445
:107000007F4002F089FEE72002B0BDE8F04102F0C7
:10701000FFBE642002F02AFD04F1290001F07CF992
:10702000247F002C3FF441AF4FF47F0002F074FE48
:107030000F4C207F00283FF430AFE72002F0E8FE3D
:107040004FF4FA7002F012FDE72002F0EFFE4FF469
:10705000FA7002F00BFD237F581EC2B22277E7E7D9
:1070600003233AE7012144E702B0BDE8F08100BF05
:107070005C1900205F0100200060FF00280B002049
:10708000DC190020660100206B01002007B50021FB
:1070900000910A460B460248FFF784FA0EBD00BF76
:1070A000C01900207047FEE7FEE7FEE7FEE77047E5
:1070B00070477047FEF718BA08B5024B0BB1AFF333
:1070C000008008BD0000000008B5024B0BB1AFF313
:1070D000008008BD0000000008B5024B0BB1FFF7AF
:1070E00011FA08BD0565000808B5024B0BB1FFF7A2
:1070F0000AFA08BD0765000808B5024B0BB1FFF797
:10710000EBFA08BDD966000808B5012004F040F884
:1071100038B1012004F04CF8024B13B10020FFF706
:107120000DFA08BD3D65000808B5022004F030F8EE
:1071300038B1022004F03CF8024B13B10120FFF7F4
:10714000FDF908BD3D65000808B5042004F020F8ED
:1071500078B1042004F02CF80020064B014618807A
:1071600002F012FF044810210122BDE8084004F09B
:107170002ABC08BDEE190020002C014008B50820EB
:1071800004F006F838B1082004F012F8024B13B1ED
:107190000320FFF7D3F908BD3D65000808B51020AE
:1071A00003F0F6FF38B1102004F002F8024B13B1DF
:1071B0000420FFF7C3F908BD3D65000808B520208D
:1071C00003F0E6FF38B1202003F0F2FF0E4B13B1BD
:1071D0000520FFF7B3F9402003F0DAFF38B1402073
:1071E00003F0E6FF084810B10620FFF7A7F980205A
:1071F00003F0CEFF38B1802003F0DAFF024911B16D
:107200000720FFF79BF908BD3D65000808B54FF45E
:10721000005003F0BDFF40B14FF4005003F0C8FF31
:10722000174B13B10D20FFF789F94FF4804003F09D
:10723000AFFF40B14FF4804003F0BAFF104810B1E7
:107240000E20FFF77BF94FF4004003F0A1FF40B19F
:107250004FF4004003F0ACFF094911B10F20FFF7D4
:107260006DF94FF4006003F093FF38B14FF4006004
:1072700003F09EFFBDE8084002F070BB08BD00BFF0
:107280003D65000808B50F48102104F0D5FBC0B1DA
:107290000C48102104F0DBFB002002F021FF28B98C
:1072A000094B1A880A3290B2188008BD102105488F
:1072B000002204F088FB00200121BDE8084002F014
:1072C00063BE08BD002C0140EE19002008B5012066
:1072D00004F0A8F930B1012004F0B6F9BDE8084087
:1072E00004F084B908BD000008B5022004F09AF942
:1072F000B0B10C4B00224FF400301A7003F058FF6D
:10730000012004F0B7F810B1012004F0BDF804F03A
:107310006DF9022004F098F9BDE8084004F066B960
:1073200008BD00BF8319002002F0A6BA00F062B8C1
:1073300038B514490B78012B23D1134A13680BB9C4
:107340000B7038BD114C402B206881B205D94030FC
:10735000403B20601360402504E09DB2C31800202C
:10736000236010600A4A5018C0212A4605F092F89E
:107370000120294605F098F90120BDE8384005F0C4
:1073800001B938BD780C0020800C00207C0C002056
:10739000780B0020094908B50020094B012208801C
:1073A00003201A7005F0ACF9064B02461880064817
:1073B0004FF48871BDE8084005F083B8300B002019
:1073C0002C0B00202E0B0020320B0020074B1868DE
:1073D000052809D1064B1A68511C052A196003D1EA
:1073E00000201860FEF7BAB9704700BF0C1A0020E1
:1073F000C81900203A4A38B511683A4B88B23A4D5C
:1074000018801C882988214001F4007084B244B19E
:107410004FF6FF5515609A78511CC8B29870FFF767
:10742000D5FF304C304B25881A882A4002F40041A1
:1074300088B225461C4608B104F066FF2A882388D6
:10744000134003F4806188B230B1254B27494FF6D1
:10745000FF321A6048688047224A234B11881B88F4
:10746000194001F4005081B219B11D494DF6FF7069
:1074700008601288134003F4805398B230B1184A60
:107480004EF6FF711160002003F0FEFB154B16490C
:1074900018880A88024002F4006398B260B1144967
:1074A0000A7812B103F0D0FB02E0022003F0ECFBFB
:1074B0000B4B4FF2FF7018600A490B480A8803888B
:1074C000134003F480718AB242B1054B4FF6FF605E
:1074D00018600720BDE8384003F0D6BB38BD00BFB8
:1074E000445C0040CC190020F8230020000200205A
:1074F000CC020020034B987A10B1034905220A60A0
:10750000704700BFD42300200C1A0020014B042236
:107510001A6070470C1A0020034B1A78202A01D1F8
:1075200000201870704700BFD0190020704700007D
:10753000212810B508D111480368197801F07F029D
:10754000212A11D0022010BD2028FBD10B4B196835
:107550000A780B4902F07F030A4A212B0CBF0B4625
:10756000002310700BB9EDE7074B044C2068002492
:107570008361448220469847204610BDF4230020B2
:10758000D9750008D0190020C1750008074B19688B
:107590000A7802F07F03212B05D1022801D10020B7
:1075A00070472228FBD00220704700BFF423002040
:1075B00009B1022070470128FBD808467047000037
:1075C00020B9034B082219680A82704701487047A6
:1075D000F4230020C801002020B9034B08221968B9
:1075E0000A82704701487047F4230020C801002038
:1075F000054B1968CA78042A04D8044B03EBC2016E
:1076000004F002BC00207047F4230020D0010020C9
:10761000014904F0F9BB00BFF0010020014904F06A
:10762000F3BB00BFF8010020334A344BD17918680E
:1076300010B5002441728472C472204604F054FFD5
:1076400020464FF4007104F057FF1021204604F04B
:107650005FFF4021204604F0FBFF8021204604F01C
:10766000E7FF204604F0B0FF254B204693F8641056
:1076700005F028F8204604F096FF0120214604F08A
:107680003BFF0120C02104F0D3FF0120202104F0A2
:107690003FFF0120214604F058FF02204FF4C06153
:1076A00004F02AFF02204FF4807104F0C1FF022091
:1076B000214604F04AFF0220202104F029FF032084
:1076C000214604F019FF03204FF4887104F0C0FF35
:1076D0000320402104F0F6FF03204FF4405104F052
:1076E00034FF0320214604F013FF204604F09EFDE2
:1076F000044A0120106010BD2D240108F42300204D
:10770000C80100200C1A002010B5FEF773F8054BD5
:1077100000241868847203F07FFA05F007F8024924
:107720000C6010BDF42300200C1A002038B504466C
:107730000D46FFF759F9204625614FF41651FFF722
:107740005DF9204638BD70B506460D460024284632
:107750000AF082FC844208D2295D3046FFF738F9EE
:10776000012002F083F90134F1E770BD2DE9F843FF
:1077700004460F4690460D46C7EB05095FFA89F9A6
:107780002046FFF72BF90028FADD2046FFF72AF9FB
:10779000C145C6B206D100232B7020460C49FFF725
:1077A000D2FF0AE00D2EF6D00A2EF4D02046314644
:1077B000FFF70EF905F8016BDEE72046FFF70EF93B
:1077C000002803DD2046FFF70DF9F6E7BDE8F88352
:1077D000F24E0108F0B585B00446FFF7FFF8002827
:1077E00040F39D802046FFF7FDF8C0B2772867D1AF
:1077F00004F1140600212122304604F1350509F078
:10780000C3FF00214122284609F0BEFF04F176079C
:10781000002284F8762020467A704249FFF793FFD1
:10782000204631462022FFF7A1FF20463E49FFF7C0
:107830008AFF394601222046FFF798FF94F87630F8
:10784000A3F130010329F0D8312B0BD12046374961
:10785000FFF779FF20463649FFF775FF2046354987
:10786000FFF771FF94F87600B0F1300708D020469A
:107870003149FFF768FF204629464022FFF776FF8F
:1078800020462E49FFF75FFF23693A4630462946D6
:10789000984720462A49FFF756FF20462949FFF717
:1078A00052FF20462849FFF74EFF20462749FFF7A1
:1078B0004AFF20462649FFF746FF2046254929E092
:1078C00069282CD1244A01AB10685168002503C3F4
:1078D0009168204619602149FFF735FF01AEAE5D82
:1078E000300900F13001392988BF00F1570106F055
:1078F0000F062046FFF76CF806F13001392988BFE2
:1079000006F1570120460135FFF762F80C2DE5D14D
:107910001349204605B0BDE8F040FFF714BF05B09D
:10792000F0BD00BF464D01084D4D01087A4D0108DC
:10793000B04D0108DB4D0108214E01082C4E010815
:107940006F4E01088F4E0108C24E0108F54E010826
:10795000344F0108654F0108E8F7FF1F7B4F01080E
:10796000F24E010807B5002100910A460B46024875
:10797000FEF718FE0EBD00BFD4190020002100F054
:1079800004B80D4B5B58435004310C480C4B421863
:107990009A42FFF4F6AF0B4A00F003B8002342F816
:1079A000043B094B9A42FFF4F9AF03F0B7F8FDF737
:1079B00045FFFDF729FD7047F85001080000002041
:1079C000100B0020100B002004240020FFF7FEBF46
:1079D00001700B0A0A0C090E43708270C1700430EA
:1079E00070470170090A41700230704743185A7895
:1079F000405C00EB022188B2704710B543189A78BA
:107A0000DC78415C120402EB04625878521802EBF5
:107A1000002010BD73B544790023022C01930FD0D0
:107A2000032C19D0012C2BD1164D28692E4620B1DC
:107A3000296901A888470246B8B9B16801201BE04E
:107A4000104DE8682E4620B1E96801A88847024633
:107A500058B9B16802200FE00A4D6A692E464AB152
:107A60006B6901A89847024620B1A9682046BDF875
:107A7000043003E0B16803200022134600F06CFBE1
:107A80007CBD00BF401B0020072810B50CD8012981
:107A90000AD8012404FA00F401FA00F0034B1A6832
:107AA00022EA040202431A6010BD00BF58020020FF
:107AB000F0B5012187B00546FFF798FF00F4804339
:107AC000044698B250B3B4F5824F27D12846052119
:107AD000FFF78CFF0026074607353446BE4208D024
:107AE00028460221FFF782FF013624180435B6B27A
:107AF000F4E7744B188E21188AB21A86D86B2418B2
:107B0000DC63D96B9A6B914240F0CE8093F84000D1
:107B1000002800F0C9809B69992033E024F4FF41DC
:107B200021F07F0290B2002800F09B8048F2100202
:107B300094422AD00CD8B4F5004F40F2C08048F2ED
:107B400002039C4217D9991C8C4240F0B88012E085
:107B500048F2800084420ED005D848F24002944298
:107B600040F0AD8051E0B4F5024F04D0B4F5084FB9
:107B700040F0A5806CE053498869002800F09480AB
:107B80008B69204600210A4669E00023EA185179F2
:107B90000DF803100133042BF8D1687A2B7BAA7AF5
:107BA000E97A8DF804008DF807308DF805208DF8FE
:107BB000061005F10D00002306AAD218C15C01339E
:107BC000042B02F8101CF7D105F11100002306AABE
:107BD000D218C15C0133042B02F80C1CF7D105F15B
:107BE0001500002300AAD218C15C0133042B1174C4
:107BF000F8D1344928798A698DF81400002A53D0C5
:107C00008B6920466946152229E005350021284662
:107C1000FFF7F3FE042100902846FFF7EEFE08214F
:107C200001902846FFF7E9FE0C2102902846FFF755
:107C3000E4FE102103902846FFF7DFFE214B04905D
:107C40009969002930D09B6920466946142206E0D4
:107C50001C48826942B38369691D20460122984706
:107C600022E041F203039C4205D00C339C4202D037
:107C7000591E8C421AD16C1D04212046FFF7BDFE0F
:107C800039301CD12D790F480021C5622046FFF7FD
:107C9000B4FE042105462046FFF7AFFE393003D17C
:107CA00028460121FFF7F0FE012009E0054A13886C
:107CB00099B28C4204D0B4F5805FF5D100E0002089
:107CC00007B0F0BD401B002038B50A4C638898B25D
:107CD00008B9002038BD606801780429F9D1FFF7A0
:107CE000E7FE01280546F4D10022628001F072FC13
:107CF000284638BD401B00202DE9F0470446884641
:107D000091460025BC4B5A8890B20028FAD05E6894
:107D10003178042940F0728130460121FFF766FE78
:107D200005463046FFF7C4FE002840F05C8141F272
:107D30000703771D9D4253D85A1E954280F0AC80B0
:107D400040F20220854200F0A78014D80C2D09D8FB
:107D5000082D80F0A180002D00F04581062D40F215
:107D60009B80DDE00D2D00F0948040F20127BD42A4
:107D700040F039818DE041F20202954218D8B5F504
:107D8000805F00F28980B5F5017F40F2828040F289
:107D900007218D4240F027813379002104F8013B0F
:107DA0003846FFF72AFE01462046FFF711FE1AE18A
:107DB00041F20400854200F0898040F2A0803846FC
:107DC0000021FFF71AFE042120603846FFF715FE58
:107DD0006060083406F10D07224606F11D016EE0D1
:107DE00041F21100854254D02CD841F20B02954249
:107DF00052D01CD841F209018D424DD000F28B8047
:107E000000213846FFF7F9FD042120603846FFF7CE
:107E1000F4FD082160603846FFF7EFFD0C21A060FB
:107E20003846FFF7EAFD04F10C0AE060DAE041F2BF
:107E30000F00854263D035D841F20D02954240F0E3
:107E4000D28043E042F206018D4222D008D8B5F537
:107E5000005F40F2C88042F204039D4219D983E0DA
:107E600042F208039D42C0F0BE80581C854210D9E2
:107E700044F20B02954240F0B6807179DFF878A1A8
:107E80003846AAF830100121FFF7B0FDAAF83200F9
:107E9000A9E037792770A6E038460021FFF7ADFD4D
:107EA0002060A0E000213846FFF7A7FDA2464AF86F
:107EB000040B04213846FFF7A0FD606092E057F8FC
:107EC000043B8F4242F8043BF9D18CE00021384654
:107ED000FFF793FD042120603846FFF78EFD08214F
:107EE00060603846FFF789FD04F1080AA060E46885
:107EF00014F1390376D10121FFF7C6FD72E00021AC
:107F00003846FFF77AFD042120603846FFF775FDFB
:107F10006060083467E0337923713F68276062E06E
:107F200038460021FFF769FD042120603846FFF73D
:107F300064FD082160603846FFF758FD0A21A06003
:107F40003846FFF753FDC4F80A000C3406F1110758
:107F5000224606F1350157F8043B8F4242F8043BB4
:107F6000F9D1388810803EE00022B7187879A05403
:107F70000132042AF9D106F109070023F95CE0185F
:107F80000133042B0171F9D106F10D070020395C92
:107F90002218013004281172F9D106F111070023CB
:107FA000F95CE2180133042B1173F9D106F11500C5
:107FB0000022875CA1180132042A0F74F9D106F15E
:107FC00019000023C75CE1180133062B0F75F9D1A6
:107FD00006F11F000021475C6218013120299776C5
:107FE000F9D100E05446044B188882B2954225D15D
:107FF0000021198022E000BF401B002030460321F1
:10800000B778FFF7F3FC8246B8F1000F0CD00421DB
:10801000701DFFF7F2FC0346C9F8000006F11501D8
:108020004046DAB209F02AFA7A1DB1182046C7EBA9
:108030000A0209F023FA0F490020C8860D4F0023D9
:108040007B8001F0C7FA3078042805D1B5F5805F50
:1080500002D13046FFF7DEFC3A8891B200297FF466
:1080600051AE044BD88E80B200287FF44BAEBDE8F1
:10807000F08700BF401B002007284FF0010308D8FD
:1080800003FA00F004490A6810420CBF00200120E6
:1080900070471846704700BF58020020064B10B5C5
:1080A000064C188001202070084600210A46FFF780
:1080B00023FE0021217010BD401B0020481A002023
:1080C00038B5054C0123E386044C1D462370FFF7A9
:1080D00013FE0020207038BD401B0020481A0020ED
:1080E00038B50346154601224A710C46881D1946CB
:1080F000FFF777FC291D0570204601F02DFB0020BD
:1081000038BD38B5BDF814500C469B18A071E8185E
:1081100085B202216171E271294604F10800FFF77E
:1081200060FC6A1D204691B201F016FB002038BDAC
:1081300038B59B180C469DB202216171A071E271A5
:10814000294604F10800FFF74CFC6A1D204691B255
:10815000BDE8384001F000BB2DE9F0471D4605F1B0
:10816000020A032301F107091FFA8AFA88714B7189
:108170000C46484651461746FFF733FCB5F57A7F63
:10818000804613D82946FFF72CFC29464046FFF7C6
:1081900028FC394604F10B002A4609F06FF9A91DA5
:1081A000204689B2BDE8F04701F0D6BA4FF47A769E
:1081B000B5FBF6F10AEB410291B2FFF712FC314632
:1081C0004046FFF70EFC394604F10B00324609F039
:1081D00055F9A5F57A75204640F2EE31ADB2BF19DA
:1081E00001F0BAFAB5F57A7F05D9A5F57A7085B2AE
:1081F0004FF47A7601E02E460025A046394628F84D
:10820000056F4846324609F039F9B31C404699B229
:10821000BF1901F0A1FA002DE4D1BDE8F0870000FC
:10822000F7B51A4C1E46A468FF238DF807300025C9
:10823000475D63190135042D5F72F9D100200D5C93
:108240002318013004285D73F9D10021505C6318B4
:10825000013104295874F9D104F115000021FFF708
:10826000B7FB0022B35C83540132042AFAD12146C1
:10827000142242F20100FFF733FF42F201000DF138
:108280000701FFF70BFF9DF90700FEBD401B002013
:108290002DE9F34106460C461E4831681546D0F8D4
:1082A00008804A1E1F46FF23122A8DF8073008F166
:1082B000090001D81423336021684A1E122A01D80C
:1082C0001423236029684A1E122A01D814232B6024
:1082D00039684A1E122A01D814233B603168FFF71F
:1082E00077FB2168FFF774FB2968FFF771FB39689A
:1082F000FFF76EFB4146142242F20900FFF7F0FE41
:1083000042F209000DF10701FFF7C8FE9DF90700D1
:10831000BDE8FC81401B002038B5074B42F2050444
:108320000546996820460022FFF7DAFE20462946D6
:10833000BDE83840FFF7B2BE401B00202DE9F341F5
:10834000864614480D46866871461F4602ACFF23D8
:1083500006F1090004F8013D9046FFF739FB294674
:10836000FFF736FB40F201254146FFF731FB0C22B7
:1083700031462846FFF7B4FE28462146FFF78EFE19
:10838000002138460A46FFF79BFE9DF80700BDE82E
:10839000FC8100BF401B00202DE9F34186461648B2
:1083A0000C4686687146984602AD4FF0FF3306F1E1
:1083B0000A0045F8043D1746FFF70AFB0C21FFF7BA
:1083C00007FB2146FFF704FB3946FFF701FB414657
:1083D000224606F11A0009F051F890203146102289
:1083E000A3B2FFF7A5FE40F202202946FFF756FE92
:1083F0000198BDE8FC8100BF401B002037B50B4B46
:1084000040F207250446996800222846FFF768FED7
:1084100028466946FFF742FE9DF803009DF80410C8
:10842000207061709DF800003EBD00BF401B002021
:1084300037B50D4A034695680C4605F10900194603
:10844000FFF7C6FA214640F20324FFF7C1FA294696
:1084500008222046FFF744FE20460DF10601FFF7F3
:108460001DFEBDF806003EBD401B00202DE9F04377
:108470000023CA5CC2540133102BFAD10022334BC3
:10848000467B991891F8018004789F19F97A88EA57
:108490000405847B85EA01081D194178EF7A90F87C
:1084A0000CC04F40C17B80F810805D1895F80B9090
:1084B0008578634489EA050593F80B90C37847747F
:1084C00089EA030390F80490FFB288EA090890F85B
:1084D0000590857487EA090790F80690EDB285EA61
:1084E000090590F80790C374DBB283EA090390F89A
:1084F000089080F814805FFA88F888EA090890F8F4
:1085000009904775FFB287EA090790F80A908575C8
:10851000EDB285EA090590F80B90C375DBB283EAEA
:10852000090388EA0C0C7E406C405940013280F807
:10853000188047768576C37680F81CC046778477A6
:10854000C17710300A2A9AD1BDE8F083822401084D
:1085500010F0800F4FEA400018BF80F01B00C0B23F
:10856000704700002DE9F04F037891F8A0A0044671
:108570008AEA030A80F800A091F8A1204078A77841
:1085800082EA0005657091F8A260E07886EA070348
:10859000A37091F8A32097B0059582EA0005E570D5
:1085A00091F8A4902679069389EA060984F8049044
:1085B00091F8A5706379079587EA0302627191F8D3
:1085C000A600A579E37980EA0506A67191F8A7705F
:1085D0000C9287EA030B84F807B0227A91F8A880FE
:1085E000607A88EA020884F8088091F8A9700896F1
:1085F0004740677291F8AA50A67AE07A85EA0603A6
:10860000A37291F8AB20267B82EA0005E57291F80F
:10861000ACC009938CEA060C84F80CC091F8ADE06C
:10862000637BA27B8EEA030E84F80DE00D9591F832
:10863000AE50E07B5540A57391F8AF204B4B4240C4
:10864000E2739A4491F890009AF80B61994446407D
:10865000267091F8940099F80BA198448AEA0006D4
:10866000267191F8980098F80B919C4489EA0006CD
:1086700026729CF80BA191F89C009E448AEA0006A1
:108680002673DF199EF80B8197F80BC191F89100C2
:1086900091F89D6088EA00098CEA060060730C9FDF
:1086A000DDF814A0DE1996F80B0191F89970DDF849
:1086B000208080EA0706667203EB0A0091F8956055
:1086C00090F80B7184F8019087EA0600607103EB63
:1086D0000800DDF818E090F80B91099803EB0E07FD
:1086E00003EB000E9EF80BC191F8920091F89A608E
:1086F00097F80B718CEA000A77405D1991F89E603B
:1087000084F802A091F8960095F80B81A772079F54
:1087100088EA000589EA0606A673A571DE1996F8AF
:108720000B0191F89F5003EB0B0791F893604540C4
:1087300097F80B019A1880EA06070D98E7701E1843
:1087400096F80B7191F897004FF0090B87EA000635
:10875000E67191F89B3092F80B71E57387EA03009C
:10876000E0720D46CDF840B002E000BF822401085F
:1087700094F80090A77887EA0900FFF7E9FEFFF771
:10878000E7FE94F80180E678824686EA0800FFF763
:10879000DFFEFFF7DDFE8AEA070380EA0802277999
:1087A0007040A6798AEA09015FFA80F886EA070034
:1087B0005FFA82FB5FFA83FA5FFA81F90397029608
:1087C000FFF7C6FEFFF7C4FEE6796779014686EA41
:1087D00007000491FFF7BCFEFFF7BAFE039B049A63
:1087E00094F808C082EA0301CBB2029947404A409C
:1087F000A17A7040C6B2059381EA0C00D3B202910F
:10880000CDF804C006930796FFF7A2FEFFF7A0FE7F
:10881000637AE67A024686EA030003930492FFF73E
:1088200097FEFFF795FE049ADDF804C0039B82EAE9
:108830000C015FFA81FC80EA0301CBB20299099333
:108840004A40D3B2CDF820C00A9394F80CC0A17B63
:108850007040C6B281EA0C000291CDF804C00B96BC
:10886000FFF776FEFFF774FE637BE67B024686EA3F
:10887000030003930492FFF76BFEFFF769FEDDF838
:1088800004C0049A039B82EA0C015FFA81FC80EA2F
:108890000301CBB2029970404A40C6B288EA0A018D
:1088A0008BEA09000D93D3B20E930291CDF830C03C
:1088B0000F9681EA0006FFF74BFE89EA000286EA7E
:1088C000020C5FFA8CFC8AEA0B0084F800C0CDF839
:1088D00004C0FFF73DFE8BEA000386EA030B029912
:1088E0005FFA8BFC84F801C00846CDF844C0FFF75E
:1088F0002FFE8AEA000286EA020A5FFA8AFB88EA09
:10890000090084F802B0CDF848B0FFF721FE88EAEC
:108910000000DDF818900599079A4640FFB2F6B2BC
:1089200082EA090887EA0100E670139688EA0006E1
:10893000FFF70EFE059B584086EA0001CAB2484682
:10894000227178401492FFF703FE474086EA07033E
:10895000D8B2159060714046FFF7FAFD89EA000130
:10896000059B86EA01020798D7B25840A77106977F
:10897000FFF7EEFD0799089A48404640F6B20A9F75
:108980000596E67109980B9E50407E4086EA0007E6
:10899000FFF7DEFDDDF820A08AEA000387EA030C7A
:1089A0005FFA8CF884F8088009990A984840FFF724
:1089B000CFFD099A504087EA000B5FFA8BF93046E9
:1089C00084F80990FFF7C4FD0A9E524686EA000328
:1089D00087EA03010B985FFA81FB504084F80AB0E4
:1089E000FFF7B6FDDDF82CA00E998AEA00000C9E78
:1089F00047400F9B0D98FFB24B407040E77283EAEF
:108A0000000A0293FFF7A4FD0C9A0D9B50408AEADE
:108A100000060E98F6B226735840FFF799FD0D999F
:108A2000029B81EA00028AEA0200C1B26173184621
:108A30000391FFF78DFD0E9A0C9B50408AEA0001CE
:108A40000F98CAB2A27358400492FFF781FD0F99A4
:108A5000514B48408AEA000C5FFA8CFADDF804C0FA
:108A600084F80FA003EB0C0295F8800092F80B112C
:108A7000DDF850C081EA0002227003EB0C0195F88A
:108A8000840091F80B219E1982EA000103EB080291
:108A9000217195F8880092F80BC196F80B218CEAA9
:108AA0000001217295F88C00039E82EA0001217377
:108AB0009A1995F8811092F80B0103EB090680EAE8
:108AC000010295F88D0096F80B11DDF844C081EA9B
:108AD000000615996673581890F80B6195F889107F
:108AE000DF1986EA0100607203EB0C0695F8850039
:108AF00096F80B116270129A81EA00066671991855
:108B0000DDF818C095F88A6091F80B0103EB0C02B0
:108B100095F88E10704092F80B6103EB0B027140D8
:108B200092F80BC195F882608CEA0602049EA2704E
:108B30009A1992F80B6195F886205640A671A0729A
:108B40001398A173191895F88F2091F80B61DDF82F
:108B500014C0724003EB0C0695F8831096F80B01D5
:108B600053444840E07095F8871097F80B0148404F
:108B7000E07195F88B0093F80B11E273109A81EA7B
:108B80000003511E103D11F0FF00E37210907FF4BE
:108B9000EFAD17B0BDE8F08F8224010838B5054C61
:108BA00005462046FFF762FC28462146BDE83840CE
:108BB000FFF7D8BC491A0020034610210C200022E0
:108BC000FFF7BCBB034610210C200022FFF7E4BBDB
:108BD00038B505460E4CE36A4BB108F02FF8E36A4E
:108BE00003600020E06208F029F8006838BD2846DC
:108BF000FFF742FA40B9228E91B20029EAD0238EC3
:108C00005A1E91B2218638BD4FF0FF3038BD00BFEB
:108C1000401B0020F7B5034614480D4686681946E8
:108C2000174602AC4FF0FF3206F1090044F8042D5C
:108C3000FEF7CEFE2946FEF7CBFE41F2010539468E
:108C4000FEF7C6FE0C2231462846FFF749FA2146B8
:108C50002846FFF723FA07F0F1FF01990160084663
:108C60000021FEF711FF0198FEBD00BF401B002050
:108C7000F7B5054610484FF0FF33876802AC294628
:108C800041F20B0607F1090044F8043DFEF7A0FE8F
:108C9000042239463046FFF723FA21463046FFF7D3
:108CA000FDF907F0CBFF0199016028460121FEF78D
:108CB000EBFE0198FEBD00BF401B002037B5034608
:108CC00013484FF0FF3284680D4604F1090019463D
:108CD0000192FEF77DFE0821FEF77AFE0821FEF7DD
:108CE00077FE0023E95CC1540133082BFAD114222A
:108CF000214641F20700FFF7F3F901A941F207000D
:108D0000FFF7CCF907F09AFF019A026010463EBDCA
:108D1000401B00202DE9FF411D46314B8646D3F80C
:108D200008800F4608F10900714616460A9CFEF7B6
:108D30004FFE1421FEF74CFE1421FEF749FE1421CC
:108D4000FEF746FE1421FEF743FED4F1010138BFC1
:108D50000021FEF73DFE0FB1396800E03946FEF70D
:108D600037FE0EB1316800E03146FEF731FE0DB13D
:108D7000296800E02946FEF72BFE74B1216839B955
:108D8000636841F287329342DCBF41F2883363600B
:108D9000FEF71EFE6168FEF71BFE2C22414641F2E3
:108DA0000800FFF79DF941F208006946FFF776F9E0
:108DB000009B002B09DB0FB1019838600EB1029ABD
:108DC000326045B10399296005E007F037FF00994B
:108DD0004FF0FF330160184604B0BDE8F08100BFDA
:108DE000401B00202DE9FF419846154B07469D6822
:108DF00014460E4605F109003946FEF7E9FD214605
:108E0000FEF7E6FD4146FEF7E3FDBDF830400C22DB
:108E100029462046FFF764F9204601A9FFF73EF9ED
:108E20000298002804DD30460A990B9AFFF748F9AA
:108E300007F004FF02990160084604B0BDE8F08124
:108E4000401B00201FB500240094019441F204044B
:108E50000294FFF7C7FF04B010BD00002DE9F04FEA
:108E6000DFF8E09089B01446012289F800200391D0
:108E70009B46139E149D0290FFF7AAFEDDF808C0E2
:108E8000002859D12E4B89F80000996B4A1C9A632F
:108E9000D3F80890812D09F10A0307D0832D0AD158
:108EA00004F1080A09F12208182704E009F11A0858
:108EB00010270646129061461846FEF789FD391FB5
:108EC000FEF786FD2146FEF783FD5946FEF780FD3D
:108ED000832D05D15146FEF77BFD0821FEF778FD75
:108EE0000022A24205DA0398815C08F802100132E0
:108EF000F7E7002CA8BFA044832D0ED01299B6B27C
:108F000000910196E8B249463A46A3B2FFF7F9F854
:108F1000832D0BD141F20F000AE00020B042EDDAC0
:108F2000129A135C08F800300130F7E741F20300B1
:108F300005A9FFF7B3F8204609B0BDE8F08F00BFE0
:108F4000401B0020481A00201FB500240094019403
:108F500081240294FFF782FF04B010BD1FB5069C68
:108F60000094079C019483240294FFF777FF04B0D8
:108F700010BD0000202A73B503460E46144622D8C1
:108F8000124A1946956805F10900FEF721FD0821EE
:108F9000FEF71EFD2146FEF71BFD0022A24203DA6A
:108FA000B15C81540132F9E704F10C032946DAB2CD
:108FB00041F21100FFF794F841F2110001A9FFF707
:108FC0006DF8019801E04FF0FF307CBD401B0020A0
:108FD000024B01225A805860FEF776BE401B0020EB
:108FE00010B5084CE16022616361029B0399E36163
:108FF000049A059B21626262A362A061012084F849
:10900000400010BD401B002070B5224C0546224890
:109010000023A363E363238023866386A386E3861A
:10902000E36263806360A0601C4800F0B1FAE1690C
:109030008847A26A0646012090470EB3E169884737
:109040000028FBD1134C002D14BF02250025A16878
:1090500001224D724FF48040FFF742F800214FF497
:109060008040FFF71BF8A168002244F20B00FFF7D5
:1090700037F844F20B000021BDE87040FFF70EB84E
:10908000E36998470028FBD0E06980470028FBD1BE
:10909000D8E700BF401B0020A81B0020D18F00088C
:1090A00038B5094C0020A36A98472546E869064C64
:1090B00080470028FAD0A16809B10022A260BDE86B
:1090C000384000F079BA00BF401B00202DE9F04F76
:1090D00083462F4885B0D0F80890144600259A465C
:1090E00088464FF0FF331C2109F1090001930F9EC0
:1090F0000E9F0295ADF80C50FEF76AFC2146FEF774
:1091000067FC5946FEF764FC04F11001FEF760FCB1
:109110003146FEF75DFC2946FEF763FCBAF1000F0D
:1091200008D01AF8052042550135062DF9D1063030
:10913000002207E0534602AA995CC1540133062B72
:10914000F9D1F4E7A24204DA18F80210815401328E
:10915000F8E7002CA8BF00193EB100232FB1B3429D
:1091600003DAFA5CC2540133F9E71C34A319DAB20A
:1091700049460120FEF7B4FF01A90120FEF78EFF4A
:1091800007F05CFD01990160084605B0BDE8F08F6D
:10919000401B0020F7B503460F480E468568194668
:1091A000174602AC4FF0FF3205F1090044F8042DD8
:1091B000FEF70EFC3146FEF70BFC3946FEF708FCC5
:1091C00029460C220420FEF78BFF04202146FEF7DF
:1091D00065FF0198FEBD00BF401B00202DE9F04F48
:1091E0008346714885B0D0F808900D46144659461C
:1091F000002209F109009A460E9F0F9E0292ADF8D7
:109200000C20FEF7E5FBBBF1030F00F2BE80DFE8A8
:109210000BF0022F76761421FEF7DAFB2146FEF7DB
:10922000D7FB0021FEF7DDFBBAF1000F07D00022CB
:109230001AF8021081540132062AF9D106E0534689
:1092400002A95A5CC2540133062BF9D106303946C3
:10925000FEF7BEFB4FF00008A04506D015F8083019
:1092600000F8083008F10108F6E708F118008AE074
:109270002021FEF7ADFB2146FEF7AAFB0021FEF7F9
:10928000B0FBBAF1000F07D000221AF80210815487
:109290000132062AF9D106E0534602AA995CC1546C
:1092A0000133062BF9D139460630FEF791FB04F164
:1092B0000C01FEF78DFB3146FEF78AFB1099FEF795
:1092C00087FB0022A24203D0AF5C87540132F9E74A
:1092D000001900220421129D8718AD180023B34203
:1092E00005D015F803E007F803E00133F7E701398B
:1092F0001A44F0D104F1240C0CEB830043E0282144
:10930000FEF766FB2146FEF763FB0021FEF769FBD3
:10931000BAF1000F07D000221AF80210815401326E
:10932000062AF9D106E0534602A95A5CC254013319
:10933000062BF9D139460630FEF74AFB3146FEF7D7
:1093400047FB1099FEF744FB1199FEF741FB04F12E
:109350000801FEF73DFB1399FEF73AFB0021A142FD
:1093600003D06A5C42540131F9E7001900231399D4
:109370008B4204D0129AD15CC1540133F7E704F157
:109380002C0808EB03001FFA80F849465FFA88F2C0
:109390000520FEF7A5FE052001A9FEF77FFE019836
:1093A00005B0BDE8F08F00BF401B002037B50B4B68
:1093B00001469D6802AC05F10900FEF709FB4FF07C
:1093C000FF3044F8040D294604220620FEF788FEEB
:1093D00006202146FEF762FE01983EBD401B00209C
:1093E00037B548F2080248F2080102408A420346B3
:1093F00013490BD10020934281F840001FD023F481
:10940000004424F0080545F4004302E0012081F8FF
:1094100040000B494FF0FF328D6802AC194605F150
:10942000090044F8042DFEF7D3FA29460422082047
:10943000FEF756FE08202146FEF730FE01983EBD9D
:10944000401B002073B50C4B01469D684FF0FF3662
:1094500002AC05F109000196FEF7BAFA44F8046D72
:10946000294604220A20FEF73BFE0A202146FEF789
:1094700015FE01987CBD00BF401B002007B50D4ABA
:109480004FF0FF330193916890B154234370037000
:1094900083704B7242788A7280780322C8720C20E3
:1094A000FEF71EFE0C2001A9FEF7F8FD019800E072
:1094B00018460EBD401B00202DE9F041314886B012
:1094C000FFF77AFB0546002858D12F4E2A460D207B
:1094D00043213346FEF732FF054600284ED1377848
:1094E000284907F1030808EB06042046FFF756FB5E
:1094F0003378F6187078102804D904F11000214947
:10950000FFF74CFBE17F204A21B112F808301F2BF6
:1095100004D101E012F80830013400E02023107873
:1095200011188A78032A29D8DFE802F0020E1919E7
:109530000020012500950190029003900490059071
:1095400012493A46034616E001208DE8090000233F
:1095500002930393049405930C493A460BE00120CF
:1095600018211E2202258DE827000849059304943E
:1095700003203A460023FFF731FE0546284606B091
:10958000BDE8F081841B0020FC1A0020FD1A002099
:1095900008B5064B00221860054906489A60196113
:1095A000DA80DA609A80036A984708BD941B00202D
:1095B000A81F0020401B002008B5044B1A690AB1FF
:1095C0000020186102494B6A984708BD941B00208F
:1095D000401B0020024B4FF480725A60704700BF5E
:1095E00000E100E008B5074B4FF48072C3F8842017
:1095F00000F076FE044902200A6988600B68501D5D
:10960000984708BD00E100E0941B002070B50646B5
:10961000002014460D4600F053FE012EA4B207D1DF
:1096200030462946224600F0D3FD0020124907E0CB
:10963000124B01201969224600F0CAFD002029467C
:10964000224600F0C5FD0E480221012201F03BFD3B
:10965000012000F035FE0A4801F03DFD0028FAD156
:10966000084801F038FD0028FAD10748802102F0AF
:109670002EF80028F9D170BD5C020020941B002058
:1096800058000240440002400038004003460A46A9
:1096900001201946FFF7BABF70B5064600201446F0
:1096A0000D4600F00DFE012EA4B207D1304629462A
:1096B000224600F08DFD0020104907E0104B0120EC
:1096C0001969224600F084FD00202946224600F058
:1096D0007FFD012000F0F4FD0A4801F0FCFC0028A9
:1096E000FAD1094801F0F7FC0028FAD10748802197
:1096F00001F0EDFF0028F9D170BD00BF5C02002031
:10970000941B0020580002404400024000380040F2
:1097100003460A4600201946FFF7BEBF38B5044687
:109720000D4600F0F9FE322000F0ACF9214604228B
:109730000020FFF7B1FF322000F0A4F90020211D26
:109740002A1FFFF7A9FF034B02229A6000F0C8FD11
:10975000002038BD941B0020F8B501F00106044636
:1097600086F001000D18012300262370C5F307229F
:109770001B4BE67026716270A57005319D68081854
:1097800086B215B99A68012AFCD19968144D01294D
:1097900007D120463146FFF7C1FFA8680228FCD157
:1097A0001CE0AF68022FFCD10E48802101F08FFF32
:1097B0000028F9D10C4DE86980472F460028F9D0E0
:1097C000074D0323AB60EC60AE8000F0A5FEFA69A4
:1097D00090470028FBD0A9680229FCD10020F8BDE1
:1097E000941B002000380040401B002070B5184E2C
:1097F00035696B79022B08D0042B25D1287A441EB9
:1098000014F0010F18BF044614E0681D0321FEF791
:10981000EDF8B0F5806F044608DB05F10A004FF45F
:1098200080610724FFF732FFB4600EE0C30701D464
:10983000441C00E024B105F10A00A1B2FFF726FFA5
:10984000034908228A6000E00024204670BD00BF62
:10985000941B0020024B012019690A22FFF7D6BE93
:10986000941B002008B5FFF7C1FF18B9BDE80840F8
:10987000FFF7B8BE08BD000070B5364C4FF400309D
:10988000266901F02BFC05464FF4005001F026FC40
:10989000A368062B0BD1002D5BD0002859D04FF4C4
:1098A000083001F029FCBDE87040FFF7DBBFA1687C
:1098B00007291BD100284CD04FF4083001F01CFCC4
:1098C0000321701DFEF792F8A0F58064A1B2214C2F
:1098D000CA0758BFA0F2FF31206958BF89B200F211
:1098E0000A40FFF7D3FE0823A36070BDA268082AD0
:1098F00009D100282DD04FF4083001F0FDFBBDE860
:109900007040FFF76FBEA068052811D1002D20D050
:109910001148802101F0DBFE0028F9D14FF4083016
:1099200001F0EAFB00F0DCFC0A4A0221916070BD04
:10993000A368042B0DD165B1A088E2680521A0F5CC
:109940008063A16002F5806099B2BDE87040FFF7C6
:10995000DFBE70BD941B00200038004008B5174BD7
:10996000D8698047002827D1154B9A6812B9012081
:10997000986008BD9968022907D106229A6000F014
:10998000CBFDBDE80840FFF765BF9A68032A13D1F5
:109990009A88B2F5806F06D805219960D968BDE82C
:1099A0000840FFF733BE04209860D8684FF4806108
:1099B000BDE80840FFF7ACBE08BD00BF401B00205B
:1099C000941B0020BFF34F8F054A064BD16801F46A
:1099D000E06040EA0301D160BFF34F8FFEE700BFB4
:1099E00000ED00E00400FA050D4B0E4A197839B974
:1099F000D88881B21187188981B291879B8806E047
:109A0000D88981B21187188A81B291879B890648CB
:109A10009BB29386FF21632202704170704700BFA2
:109A2000DC190020002C0140640200204FF440703B
:109A300001F06EB90A4B4FF47A701A68094BB2FB09
:109A4000F0F109484A1EF0215A6080F823100022E4
:109A500007219A601960D02380F82330704700BF37
:109A6000B802002010E000E000ED00E082B00190BC
:109A7000019A034B1A6018680028FCD102B07047A5
:109A8000B423002013B50749074B01900C68074920
:109A900001985A68B4FBF1F100FB01205A6890422A
:109AA000FCD81CBDB8020020001000E040420F00AE
:109AB00030B54FF4003085B001F07AFB08204FF448
:109AC0000033002501248DF80D00684402938DF8C1
:109AD0000C508DF80E4001F019FB032101A88DF800
:109AE00004108DF805108DF806508DF8074001F030
:109AF00019F9042329220DEB03008DF804208DF8B9
:109B000005308DF806508DF8074001F00BF9022062
:109B100001F0B0FC50B1022001F0B6FC01F070FD84
:109B200024204FF6FF7101F007FA27E0242001F00E
:109B300011FA4AF2A551884201D101F087FC0120B7
:109B400001F0BAFC412001F005FD0028FAD04FF4E5
:109B5000807001F0C1FC012001F0C6FC01F050FD55
:109B600001F044FD0320012101F010FD01F03EFD54
:109B700047F6FF7001F02AFD01F038FD05B030BD59
:109B800010B5044645F2555001F038FC062001F0AE
:109B90003BFC42F21070844228BF044628216143F6
:109BA000C1F30F2001F036FC01F03AFCBDE8104093
:109BB00001F03EBC082814D8012908D10B490C4AF1
:109BC00001EB8003596832F8100008610BE051B9CD
:109BD000064B074A03EB80014B6832F810005861CE
:109BE00001E0FF2300E0002358B270476402002028
:109BF0009026010873B50E4E8500731904460121A5
:109C0000186901F083FC0B4B36F8140010215D1924
:109C1000ADF804008DF807100322686801A98DF8DB
:109C2000062001F045FB20460021FFF7C3FF7CBD65
:109C3000902601086402002070B5012188B04FF41D
:109C4000006001F063FC314B31481C686026B4FBB6
:109C5000F0F1304C01A88DB201F088FE01A801F0AE
:109C600085FE42F20F7201A9ADF80450204600258E
:109C7000ADF80820ADF80A50ADF8065001F02EFD01
:109C800004A801F07CFE0223ADF8106020460126F6
:109C900004A9ADF81830ADF81260ADF81650ADF863
:109CA0001C5001F065FD2046294601F0A1FE20462A
:109CB00004A901F0A1FD2046294601F0A1FE20469D
:109CC00004A901F0DDFD2046294601F0A3FE20464F
:109CD00004A9ADF81050ADF81260ADF81650ADF80B
:109CE000185001F00FFE2046294601F09BFE204649
:109CF000314601F071FE2046314601F04AFE204611
:109D0000314601F052FE08B070BD00BFB80200201D
:109D100040420F00002C014030B51049104B8C8D93
:109D200093F82420A5B26C1C5443C0F307435C4352
:109D30000C4B250CDD808C8DA5B26C1C5443C0F3FC
:109D400007256C43240C1C81898DC0B289B2013176
:109D500048434243120C9A8030BD00BF002C0140A2
:109D600064020020DC19002030B51049104B8C8DA6
:109D700093F82420A5B26C1C5443C0F307435C4302
:109D80000C4B250CDD818C8DA5B26C1C5443C0F3AB
:109D900007256C43240C1C82898DC0B289B2013125
:109DA00048434243120C9A8130BD00BF002C014051
:109DB00064020020DC190020024B00221A70FFF719
:109DC00013BE00BFDC19002037B50F4D044605EB6C
:109DD0008003186B012105EB440501F097FBB5F8F2
:109DE0004000ADF804000CB9102100E01821074B29
:109DF0008DF8071003EB84040322A06A01A98DF8F3
:109E0000062001F055FA3EBD9026010864020020AC
:109E100018B1E72807D1FFF7E7BD034B4FF4005215
:109E2000986A0261704770476402002058B1E728C1
:109E30000FD1084A0023084813879387938601228D
:109E40000370427005E0044B4FF40050996A48617A
:109E500070477047002C014064020020024B012231
:109E6000E7201A70FFF7E2BFDC19002010B1E728E5
:109E700040D106E020498B6ADA6882F40050D8604D
:109E800070471E4A1E4B1178C1B9188F80B208B1B5
:109E9000198702E0D1888AB21A879B8F184899B235
:109EA00009B1002102E0154A138999B2818714494A
:109EB000888E82B2C2B9114B988819E0188F81B28E
:109EC00009B1002001E0D28990B218879B8F0C491C
:109ED0009AB20AB1002202E00848038A9AB28A873D
:109EE0000749888E83B20BB1002002E0034A9089B3
:109EF00080B28886704700BF64020020DC19002011
:109F0000002C014010B51D4A13780BB9012102E065
:109F1000632B01D1FF2151705178E7280B44DBB24C
:109F2000137029D1164A6320147816497CB9D48855
:109F3000A4B25C43B4FBF0F4A4B20C871489A4B2BD
:109F40005C43B4FBF0F4A4B28C8792880EE0D48911
:109F5000A4B25C43B4FBF0F4A4B20C87148AA4B29C
:109F60005C43B4FBF0F4A4B28C87928992B2534361
:109F7000B3FBF0F398B2888610BD00BF64020020E6
:109F8000DC190020002C014073B5104C0E4604EB88
:109F9000400494F84C10054694F8480001F014FA77
:109FA000B4F85040204601F0EDF809480023451967
:109FB00095F83810684600948DF804308DF8051037
:109FC0008DF8066001F0A2F87CBD00BF9026010864
:109FD00064020020F7B5224E8700F3190546586D3C
:109FE0000C4640F00100012101F090FA1D4B06EBF8
:109FF00045065A1992F83A10B6F85C0002AADF1921
:10A000008DF8031022F8080D6946F86B01F050F93D
:10A01000012C24D11021002213481B2701F0D3FC6E
:10A0200005238DF8047001A800278DF805308DF800
:10A0300006708DF8074000F075FEB6F86010062037
:10A040008DF8050001A88DF804108DF806708DF8C4
:10A05000074000F067FE28462146FFF795FFFEBD4A
:10A060009026010864020020002C01401A4B1B4975
:10A07000DA6810B542F080700024D8604C600B683C
:10A080004FF0C05043F001020A60012101F04AFA8A
:10A09000012001F0D5F9FFF7C9FC0120014601F0CC
:10A0A00035FAE0B20134FFF7A5FD082CF9D1FFF72E
:10A0B000C3FD0020FFF788FE0120FFF785FE022088
:10A0C000FFF782FE0320FFF77FFE00200121BDE89D
:10A0D0001040FFF77FBF00BFF0ED00E0001000E090
:10A0E000054A064B02EB800103EB4002C86BB2F855
:10A0F0005C1001F02DB900BF640200209026010819
:10A10000024B03EB4000418A88B27047DC19002003
:10A11000024B002203EB400042827047DC19002012
:10A1200010B5082086B0012101F0F0F9264C4FF45B
:10A130008040012101F0F6F9032018214FF400536B
:10A140008DF802008DF8031020466946ADF8003006
:10A1500001F0AEF84FF4004220466946ADF8002009
:10A1600001F0A6F804204FF480438DF803006946FF
:10A170002046ADF8003001F09BF80021ADF8041046
:10A180004FF48272ADF80810ADF80A104FF4007069
:10A19000ADF81210A4F5544407210123ADF80620B0
:10A1A000ADF80E000822ADF81410204601A9ADF854
:10A1B0000C30ADF8102001F051FA2388034A98B210
:10A1C000108006B010BD00BF000C0140C22300206B
:10A1D00070B5044601208CB00E460146154601F0CC
:10A1E00089F9124B002080224FF44051012C019339
:10A1F0000296059006920790089009900A910B909C
:10A2000006D103900A48049500F0BAFE084807E01A
:10A210004CB9102307480393049500F0B1FE05489C
:10A2200001A900F025FF0CB070BD00BF0C38004044
:10A23000440002405800024073B50F23012400255A
:10A2400001A88DF804308DF805508DF80650174E92
:10A250008DF8074000F066FDFFF762FF20462A46B2
:10A260001349FFF7B5FF28462A461249124DFFF75A
:10A27000AFFF30460221224600F025FF2846214646
:10A28000224601F016FA22462846022101F011FA70
:10A290002846214601F001FA2146084800F008FF4F
:10A2A0003046214600F004FF7CBD00BF580002404C
:10A2B000A81F0020A81B00200038004044000240D6
:10A2C00010B504462146044800F0F2FE034821463A
:10A2D000BDE8104000F0ECBE4400024058000240CF
:10A2E00002484FF4805101F039B800BF000C014022
:10A2F00008B54FF40061024801F02AF808BD00BF1C
:10A30000000C014030B5092085B0012101F0FEF8B4
:10A310004FF400644823694614488DF80330ADF8C3
:10A32000004000F0C5FF0B21012001F04DF8204650
:10A3300000F028FF0C200294002501248DF80D0068
:10A3400002A88DF80C508DF80E4000F0DFFE282199
:10A3500001A88DF804108DF805408DF806508DF891
:10A36000074000F0DFFC05B030BD00BF000C01402D
:10A370001FB52823002401A88DF804308DF807406C
:10A3800000F0D0FC4FF40060029002A88DF80E405F
:10A3900000F0BCFE1FBD000020B105484FF48071E5
:10A3A00000F0DCBF02484FF4807100F0D9BF00BF5D
:10A3B000000C014013B5082001210F4C01F0A6F854
:10A3C000032010214FF480538DF806008DF80710FC
:10A3D000204601A9ADF8043000F06AFFFFF780FFC6
:10A3E0004FF48072204601A9ADF8042000F060FF10
:10A3F0000020FFF7D1FF1CBD000C014010B50B4C35
:10A40000238823F0400001040A0C2280FFF768FF34
:10A41000074B188881B2074841F040024FF40071A1
:10A420002280BDE8104000F09BBF00BF0038004014
:10A43000C0230020000C014002484FF4007100F0DE
:10A440008DBF00BF000C014070B5082086B001210F
:10A4500001F05CF82E4C01214FF4804001F062F8CD
:10A4600018204FF4005303268DF803006946204658
:10A47000ADF800308DF8026000F01AFF4FF4004193
:10A48000ADF800102046694600F012FF04254FF495
:10A49000804220466946ADF800208DF8035000F058
:10A4A00007FF4FF400751023204669468DF80330EE
:10A4B000A4F55444ADF800508DF8026000F0F8FEA9
:10A4C000FFF7BAFF00204FF482710822ADF80400B4
:10A4D000ADF80610ADF80800ADF80A00ADF80C00B4
:10A4E000ADF812000723204601A9ADF81020ADF801
:10A4F0000E50ADF8143001F0B1F82088054A81B251
:10A5000011802046012101F0C8F806B070BD00BFDF
:10A51000000C0140C023002010B50B4C238823F011
:10A52000400001040A0C2280FFF786FF074B1888C1
:10A5300081B2074841F040024FF480512280BDE8CB
:10A54000104000F00DBF00BF00380040C2230020C3
:10A55000000C014007B50820012100F0D7FF0320BF
:10A5600014214FF480638DF806008DF8071003481E
:10A5700001A9ADF8043000F09BFE0EBD000C0140B7
:10A58000002008B500F088FF4FF400000121BDE86D
:10A59000084000F0C7BF0000014B03221A6070475B
:10A5A0000C1A0020044B05489A7A0AB1052100E0F4
:10A5B00001210160704700BFD42300200C1A002045
:10A5C00007B5022014238DF805000021012201A8FF
:10A5D0008DF804308DF806108DF8072000F0A2FBEE
:10A5E0000EBD000020B105484FF4806100F0B8BEF8
:10A5F00002484FF4806100F0B1BE00BF000C014082
:10A600000A4B987D80B10A490A4B0A880A48A3F888
:10A6100044200188094AA3F8461010880849A3F885
:10A6200048000A88A3F84A20704700BFDC190020C0
:10A63000004C000864020020024C0008044C000892
:10A64000064C000810B51A4B987D00282FD000F05A
:10A65000B5FD342000F0C6FD164800F00BFE0428BE
:10A6600024D1154C1348B4F8441000F0E7FD042839
:10A670001BD11248B4F8461000F0E0FD042813D1B5
:10A680000F48B4F8481000F0D9FD04280BD10D484C
:10A69000B4F84A1000F0D2FD042803D1BDE8104000
:10A6A00000F098BDFEE7FEE7FEE7FEE7FEE710BD1F
:10A6B000DC190020004C000864020020024C000855
:10A6C000044C0008064C000838B505464FF0FF1052
:10A6D000FFF722FBFFF788F90C4B0024A3F84A4050
:10A6E000FFF7B0FF0A4820228562C2610462084C6D
:10A6F000216AE369994207D205EB013000F0F3F9D2
:10A70000206A421C2262F2E738BD00BF64020020CA
:10A71000DC1900202DE9F04106460F464FEA91086A
:10A720000024444516D056F824201748174D0270CF
:10A73000C2F30721C2F30743EA62120E4170C270EE
:10A74000A96A0422837000F065F9A86A0134011D2A
:10A75000A962E6E7BB0711D056F824300A480B4A35
:10A76000C3F307214170C3F30741D36203708170C3
:10A770001B0E916A0422C37000F04CF9E720BDE87B
:10A78000F041FFF773BB00BFBC230020DC190020A1
:10A7900008B5074B0524A3F84840FFF753FF2820CE
:10A7A000214600F0C9FB0020FFF71CFFFFF70AF964
:10A7B000640200204FF480514FF4937200F07DB892
:10A7C0004FF400514FF4197200F077B8034BB3F80F
:10A7D0004A00421E514251EB0200704764020020C1
:10A7E000024B0022A3F84A20FFF72CBF640200208E
:10A7F00070B50E46054600F0BDFBB3082C461A4660
:10A80000013A0434511C114905D054F8040C90FA53
:10A81000A0F00860F4E705EB8303086890FAA0F164
:10A8200006F003069E19B3420ED013F8014B08221E
:10A83000614011F0010F4FEA510416BF044921464F
:10A840006140013AF5D1EEE7C84370BD00300240E7
:10A850002083B8ED10B504460A48022100F037FF06
:10A860000028F9D00748214600F02CFF05480121B7
:10A8700000F02DFF0028F9D0024800F025FFC0B2FB
:10A8800010BD00BF0038004070B5FFF7B7FD9F2036
:10A89000FFF7E0FFFF20FFF7DDFF0446FF20FFF793
:10A8A000D9FF0546FF20FFF7D5FF2D020646FFF72B
:10A8B000C3FD45EA0440304370BD70B50C461546F3
:10A8C0000646FFF79BFD0320FFF7C4FFC4F30740D4
:10A8D000FFF7C0FFC4F30720FFF7BCFFE0B2FFF7AC
:10A8E000B9FF3DB1FF20FFF7B5FF013D06F8010BB1
:10A8F000ADB2F6E7BDE87040FFF79EBD08B5FFF7C3
:10A900007DFD0620FFF7A6FFBDE80840FFF794BDD8
:10A9100008B5FFF773FD0420FFF79CFFBDE8084072
:10A92000FFF78ABD08B5FFF78FFDFFF7F1FFFFF7CF
:10A93000ABFF104B984202D04C3B984219D1FFF725
:10A940005DFD8020FFF786FFFFF776FDFFF756FDE0
:10A950005020FFF77FFFFFF76FFDFFF74FFD01204E
:10A96000FFF778FF0020FFF775FFBDE80840FFF70D
:10A9700063BD08BD8D25BF0008B5FFF73FFD05206D
:10A98000FFF768FFFF20FFF765FFC307FAD4BDE8B4
:10A990000840FFF751BD70B50D4616460446FFF757
:10A9A000ADFFFFF72BFDAD20FFF754FFC5F30740C8
:10A9B000FFF750FFC5F30720FFF74CFFE8B2FFF7A2
:10A9C00049FF2078FFF746FF6078FFF743FFFFF766
:10A9D00033FDFFF7D1FFA51C2C4602342B1BF018CA
:10A9E00081B289B1FFF70AFDAD20FFF733FF14F8FC
:10A9F000020CFFF72FFF14F8010CFFF72BFFFFF7F6
:10AA00001BFDFFF7B9FFE8E7FFF716FDBDE8704053
:10AA1000FFF77EBF2DE9F84F11F0FF0906460D46FE
:10AA200017464FEA12381DD1B8F1000F03D1304656
:10AA300029463A4651E004465FFA89F2A81B904540
:10AA400004EB000109D020464FF48052FFF7A3FF2A
:10AA500004F5805409F10109EEE74FEA0831701856
:10AA6000491939E0C9F10004E4B2B8F1000F0DD181
:10AA7000D2B2A242DBD902EB09035FFA83F9224684
:10AA8000FFF789FF301961194A4626E0171B224655
:10AA9000FFF781FFBFB24FEA1739651934195FFA22
:10AAA00089FB5FFA87FAA0460026F3B2291B9B4573
:10AAB000414408D040464FF48052FFF76CFF08F540
:10AAC00080580136F1E74FEA093904EB090009EB38
:10AAD0000501BAF1000F04D0FAB2BDE8F84FFFF754
