:020000040800F2
:10500000005000200D5100086D5B00086F5B000828
:10501000715B0008735B0008755B0008000000000E
:10502000000000000000000000000000775B0008A6
:10503000795B0008000000007B5B00087D5B0008D6
:10504000595100085951000859510008815B000866
:105050005951000859510008595100085951000888
:10506000E15B0008595100085951000859510008E6
:10507000595100085951000859510008DD5B0008DA
:105080005951000859510008595100085951000858
:105090007D5C000859510008595100085951000819
:1050A000595100085951000859510008355C000851
:1050B0005951000859510008595100085951000828
:1050C0005951000859510008595100085951000818
:1050D0005951000859510008595100085951000808
:1050E000155C00089D5B0008595100080000000095
:1050F00000000000000000000000000000000000B0
:0C51000000000000000000005FF808F153
:10510C00002100F004B80C4B5B58435004310B48A1
:10511C000B4B42189A42FFF4F6AF0A4A00F003B860
:10512C00002342F8043B084B9A42FFF4F9AF03F01A
:10513C00B7FF00F05FF870479CBA00080000002031
:10514C00EC050020EC05002018220020FFF7FEBF24
:10515C0070477047F8B50D4D2E681EB12868411E7A
:10516C002960F8BD0A4C0B4F236857F8230002F056
:10517C0091FDE72002F0D8FD2168FA694B1C6420F0
:10518C0093422360286028BF2660F8BD48060020A3
:10519C00440600200000002010B5094913220446E3
:1051AC0006F0BEF910B902F001FE07E020460549F1
:1051BC00122206F0B5F908B902F0DCFD002010BD92
:1051CC006CBA000880BA000810B501310023934274
:1051DC000ED0040F092C01D8303400E0373401F81C
:1051EC00014C01330024000101F8024BDBB2EEE765
:1051FC0010BD000038B54FF000604FF4A04101F035
:10520C00C7FD0124254B264821461C7001F07CFE6D
:10521C0002F006FF2146402001F02EFF6FF07F4088
:10522C0002F012FDE72002F07FFD1E481E4D0470B7
:10523C0002F0D2FB7D2001F043FF10B12C7001F085
:10524C0053FF40F6B83002F037FC03F09DF903F041
:10525C002BFE2978012903D0144A0AB1FFF778FFF5
:10526C0003F0E0FB124C03F0E7FC2378002BF9D0A1
:10527C0010480578002DF5D10B490A78002AF1D198
:10528C000D4C0CB1FFF765FF0C4B186800B1804753
:10529C0000F044FC00F026FCE4E700BF26060020EA
:1052AC0000043000C0200020802000205D51000848
:1052BC00B9200020C82000205F510008300D0020CC
:1052CC00314B32491A6870B5501C18600B6813B119
:1052DC000A68501E08602E490B782BB12D4B002B01
:1052EC0034D0FFF737FF31E02B4C226812B1216824
:1052FC004B1E2AE02948017841BB294B1A782ABB5E
:10530C002848017811BB284D284E2B7843B1E72053
:10531C0002F086FD307808B1142316E0012314E066
:10532C0032784AB14FF6FF7002F08EFCE72002F0A3
:10533C00FBFC01222A7009E0E72002F03FFD1C482B
:10534C00017809B1322300E064232360002002F0CD
:10535C00D1FE40F6B732904205D9002002F0D2FEC1
:10536C000E4901200870134B1A68B2F57A7F04D3EA
:10537C0000221A6001F026FE02E01868411C196038
:10538C00BDE8704003F0EEBB8C0700208C200020A1
:10539C00200600206151000884200020B32000204A
:1053AC00C8200020A1200020C0200020B92000200F
:1053BC00B62000209020002070B51D4A137B012BD5
:1053CC0034D01069B0F5807F01D1002111611369CF
:1053DC0092681748934202D10021017370BD8CBFB3
:1053EC00C3F58072C3EB0202114C4261656999B23C
:1053FC00402D05D94033403D23616561402604E0D2
:10540C00E8180023AEB2206163610A4A01255018E6
:10541C00C0213246257301F021FB2846314601F0AC
:10542C0027FC2846BDE8704001F090BB70BD00BF62
:10543C00EC0500208C060020094B10B593E81400F5
:10544C000833186810180AD008220649FFF7BCFE6A
:10545C00054920460422BDE81040FFF7B5BE10BD3B
:10546C00E8F7FF1F5A0000206A0000207047000078
:10547C00024B1878003018BF01207047B92000206B
:10548C0058B1421E002012F8013F303BD9B2092915
:10549C0003D80A2101FB0030F5E770472DE9F041F4
:1054AC00ADF5167D0F4680461646684600214FF432
:1054BC0016721D4605F0F0FE4FB1384606F000F8A6
:1054CC00044639466846224605F038FE00E03C4664
:1054DC0066B1304605F0F4FF00AB024631461819B0
:1054EC0005F02CFE304605F0EBFF041965B128469B
:1054FC0005F0E6FF024600A80019294605F01EFE3D
:10550C00284605F0DDFF04190A210DF80410404669
:10551C006946621C002305F04FF90DF5167DBDE8B8
:10552C00F0810000F8B504460F46002935D0A0B331
:10553C001A4B1D680A2D30D00026AE424FF48C70E9
:10554C0017490CDA70430B580A18BB4205D1101DD1
:10555C0021460C2205F0E4FFF8B10136EDE7684373
:10556C000E180F50103008184FF480720021371DA0
:10557C0005F092FE00210C22384605F08DFE2068C5
:10558C0061683A4603C20549A368002001351360DF
:10559C0086F8140186F815010D60F8BD340D002055
:1055AC00380D00202DE9F84304469146884689B30E
:1055BC0080B3194B1D680A2D2CD00026AE424FF03B
:1055CC001401164F0CDA71437B587A18434505D1F8
:1055DC00101D21460C2205F0A3FFD8B10136EDE7D2
:1055EC006943781847F80180071D00F1100680F810
:1055FC00109000210C22384605F04EFE20686168A0
:10560C003A4603C20448A368002101351360717047
:10561C00B1700560BDE8F8832C0D0020F009002066
:10562C0010B5044C206804F065FF10B94FF0FF333F
:10563C00236010BD9407002010B502200121062222
:10564C0004F02AFF114C002820601BDB10490222B9
:10565C000A801D222323CA70EB228B704A713623D9
:10566C00F9220B71CA714F2310228B7104F068FF61
:10567C00002807DB0022206806491346BDE81040CD
:10568C00FFF70CBF4FF0FF3010BD00BF9407002098
:10569C00B80A0020C0B6000838B50D46044601F023
:1056AC004BFD401901F06CFD01F07AFD2CB1012C81
:1056BC0007D1BDE8384002F0F7B9024B01221A704D
:1056CC0038BD38BDB720002010B503460246002077
:1056DC002AB10A240130B2FBF4F2C0B2F8E709187F
:1056EC0053B10A24B3FBF4F204FB1233034CE35C16
:1056FC0001F8013D1346F3E710BD00BF2000002068
:10570C000346A0F13000C0B2092817D9612B0ED086
:10571C00622B0ED0632B0ED0642B0ED0652B04D0D5
:10572C00662B0CBF0F20002070470E2070470A20FC
:10573C0070470B2070470C2070470D2070470000FD
:10574C001FB50F4BD3B10F48002202600E48FFF774
:10575C0023FD18B101A9FFF7B7FF03E030218DF845
:10576C000410012004AB09491A18002002F80C0C93
:10577C000868074901AB0A1DFFF790FE05B000BD94
:10578C00A5510008300D0020D40A002094070020F9
:10579C00C7B60008264BF7B51C682CB9254821461E
:1057AC004FF4167205F078FD234F01213868234D14
:1057BC0000F01F0201FA02F3460945F82630C4F541
:1057CC0015741F4BE61C4FF4FA7200245A601C60CF
:1057DC004018009329462246234604F0DDFEA042E1
:1057EC0002DC002E22DC1CE03868410955F821202F
:1057FC0000F01F0342FA03F1CB07F2D50C4D0D4F0D
:10580C002B683246F918234604F05EFF00280EDBA5
:10581C002A680A2110182860384605F0D3FD0028A4
:10582C00DFD00349002308680B6000E00020FEBDB8
:10583C000406002098070020940700209007002001
:10584C00C80A00202DE9FF41264C27482368274928
:10585C00C01805F0F5FE054650B1FFF711FE0746DE
:10586C00284605F02DFE21684A1C1318236000E021
:10587C00074600201D4905F0E3FE054600282FD001
:10588C00FFF7FEFD0446284605F01AFE154D2E685E
:10589C00711C0E182E601CB3DFF84C8000210B22FB
:1058AC0001A805F0F9FC08EB0600214602F038FFD0
:1058BC008742064604D128682146404402F0E0FEA7
:1058CC0026B1304601A9FFF7FFFE02E030228DF829
:1058DC000420074B0022186801A91346FFF7DEFDD0
:1058EC00BDE8FF81D00A00209807002093BA000879
:1058FC009407002003222DE9F0415F485F4905F031
:10590C000FFE024618B95E4D5E49286810E05A48F1
:10591C005D49052205F004FE78B95C4B1A780AB98A
:10592C00012018705A49564C00220A6020685649CA
:10593C001346FFF7B3FD05462FE006224E485549A6
:10594C0005F0EEFD024618B94D4D53492868EFE7B6
:10595C00494852490D2205F0E3FDE8B1464850494B
:10596C000B2205F0DDFD054650B94E4801224E4C88
:10597C0002700C214FF4C020216002F055FE0CE0A7
:10598C003D484A49092205F0CBFD054620B9454B57
:10599C00187002F0B3FE00E00025424B1A783AB1C1
:1059AC003B4B00241C60FFF74DFF3F4A14605FE047
:1059BC00314E3F4C304604F10B01062205F0B0FD90
:1059CC00074690B9B0796074FFF79AFE012102F096
:1059DC008DF803462A4800681BB9364904F10B02BE
:1059EC001EE0354904F10B0219E0304604F11301B5
:1059FC00052205F095FD0746B0B970792076FFF7C2
:105A0C007FFE394602F072F81D49034608681BB93F
:105A1C00284904F1130203E0274904F113023B4621
:105A2C00BDE8F041FFF73ABD30462449092205F0A4
:105A3C0077FDE8B906F109000A2105F0C3FC30B185
:105A4C0010F8011C0D2908BF013800230370002138
:105A5C004FF416721A4805F01FFC1A4805F030FD79
:105A6C0018490246164805F069FB1748174A10609A
:105A7C002846BDE8F08100BF98070020D5B6000885
:105A8C0094070020D9B60008E9B60008B920002018
:105A9C00BC200020EFB60008F6B60008FDB60008E2
:105AAC000BB70008C8200020D00A002017B7000848
:105ABC0020000020C7B6000821B70008CBB60008AC
:105ACC00D40A0020A10700204D570008300D0020FB
:105ADC0008B5FFF75FFE002803DDBDE80840FFF7BF
:105AEC0009BF08BD7FB50B4C00250B4B18688542D0
:105AFC000FDA617C012909D1A27C002666742AB1D7
:105B0C0068463146102205F0C7FBA67401351434E3
:105B1C00EBE77FBDF00900202C0D002038B50D4CB3
:105B2C0000250D4B1868854213DA94F814110129DD
:105B3C000BD10A4900224FF48C7084F8142123688D
:105B4C0000FB05109847C4F81001013504F58C745E
:105B5C00E7E738BD380D0020340D0020480D00203B
:105B6C007047FEE7FEE7FEE7FEE7704770477047B9
:105B7C00FFF7A6BB08B5012001F02EFB30B10120C8
:105B8C0001F03CFBBDE8084001F00ABB08BD000079
:105B9C0008B5022001F020FBB0B10C4B00224FF4F1
:105BAC0000301A7001F050F9012001F035FA10B1F3
:105BBC00012001F03BFA01F0F3FA022001F01EFB88
:105BCC00BDE8084001F0ECBA08BD00BFB7200020CA
:105BDC0001F03EBE08B5042001F026F978B104208E
:105BEC0001F032F90020064B0146188002F0A6F9AC
:105BFC00044810210122BDE8084001F07EBC08BD1C
:105C0C0022060020002C014008B54FF4006001F082
:105C1C000BF938B14FF4006001F016F9BDE80840FB
:105C2C0001F088BE08BD000008B50F48102101F036
:105C3C009DFCC0B10C48102101F0A3FC002002F027
:105C4C0049FA28B9094B1A880A3290B2188008BD53
:105C5C0010210548002201F050FC00200121BDE874
:105C6C00084002F06BB908BD002C01402206002050
:105C7C0000F062B838B514490B78012B23D1134AC4
:105C8C0013680BB90B7038BD114C402B206881B2D6
:105C9C0005D94030403B20601360402504E09DB2A4
:105CAC00C3180020236010600A4A5018C0212A46ED
:105CBC0000F0D4FE0120294600F0DAFF0120BDE8F7
:105CCC00384000F043BF38BDF80500200006002026
:105CDC00FC0500208C060020094908B50020094B62
:105CEC000122088003201A7000F0EEFF064B0246DA
:105CFC00188006484FF48871BDE8084000F0C5BE16
:105D0C00F0050020EC050020EE0500204C060020DC
:105D1C00074B1868052809D1064B1A68511C052A2F
:105D2C00196003D100201860FFF746BB704700BF15
:105D3C00400600200806002038B53A4B3A4A19684C
:105D4C003A4D88B2108014882988214001F40070E3
:105D5C0082B24AB14FF6FF541C60354B1D78691C5A
:105D6C00C8B21870FFF7D4FF2F4A304B14881D8827
:105D7C00254005F4004188B215461C4608B100F0D8
:105D8C00A7FD2A882388134003F4806188B230B1C0
:105D9C00244B28494FF6FF321A6048688047224A44
:105DAC00224B11881B88194001F4005081B219B1A3
:105DBC001C494DF6FF7008601288134003F48053A1
:105DCC0098B230B1174A4EF6FF711160002003F003
:105DDC001DFA154B154918880A88024002F4006315
:105DEC0098B260B114490A7812B103F0EFF902E0ED
:105DFC00022003F00BFA0B4B4FF2FF7018600A49AC
:105E0C000A480A880388134003F480718AB242B1AD
:105E1C00044B4FF6FF6018600720BDE8384003F0D4
:105E2C00F5B938BD445C0040281800205C180020EF
:105E3C000C060020E4000020B8010020034B987AE7
:105E4C0010B1034905220A60704700BF38180020C2
:105E5C0040060020014B04221A60704740060020C7
:105E6C00034B1A78202A01D100201870704700BF0C
:105E7C000D06002070470000212810B508D11148EC
:105E8C000368197801F07F02212A11D0022010BD7D
:105E9C002028FBD10B4B19680A780B4902F07F03C1
:105EAC000A4A212B0CBF0B46002310700BB9EDE7EF
:105EBC00074B044C20680024836144822046984799
:105ECC00204610BD581800202D5F00080D0600203C
:105EDC00155F0008074B19680A7802F07F03212B25
:105EEC0005D1022801D1002070472228FBD00220C6
:105EFC00704700BF5818002009B1022070470128D4
:105F0C00FBD808467047000020B9034B08221968DB
:105F1C000A8270470148704758180020AC000020D6
:105F2C0020B9034B082219680A8270470148704750
:105F3C0058180020AC000020054B1968CA78042AB8
:105F4C0004D8044B03EBC20100F05EBA002070478A
:105F5C0058180020B4000020014900F055BA00BFC9
:105F6C00D4000020014900F04FBA00BFDC00002033
:105F7C00334A344BD179186810B5002441728472BD
:105F8C00C472204600F094FD20464FF4007100F0DE
:105F9C0097FD1021204600F09FFD4021204600F087
:105FAC003BFE8021204600F027FE204600F0F0FD4D
:105FBC00254B204693F8641000F068FE204600F054
:105FCC00D6FD0120214600F07BFD0120C02100F010
:105FDC0013FE0120202100F07FFD0120214600F05E
:105FEC0098FD02204FF4C06100F06AFD02204FF4CE
:105FFC00807100F001FE0220214600F08AFD022093
:10600C00202100F069FD0320214600F059FD0320FA
:10601C004FF4887100F000FE0320402100F036FEA2
:10602C0003204FF4405100F074FD0320214600F092
:10603C0053FD204600F0FAFB044A0120106010BD0D
:10604C0097B7000858180020AC000020400600202C
:10605C0010B5FFF7F1F9054B00241868847203F0B2
:10606C009DF800F047FE02490C6010BD5818002046
:10607C004006002010B5064C18B9236801221A827C
:10608C0010BD044B18680168884720680A3010BDA1
:10609C00581800205418002010B5064C18B9236865
:1060AC0001221A8210BD044B186881688847206849
:1060BC000C3010BD581800205418002008B5234A85
:1060CC0018B9136802221A8208BD214B00201268ED
:1060DC001880117811F07F0113D1507A00F0200252
:1060EC00D1B209B102221A7000F04003D8B2184B99
:1060FC0018B11A7842F001011EE0197821F0010163
:10610C001AE001291FD002291ED1507900F00F028C
:10611C004FEA820110F0800F01F1804000F5B84287
:10612C00116803D001F03002102A03E001F4405052
:10613C00B0F5805F01D101211970064B1868016917
:10614C008847034808BD184608BD00BF58180020F2
:10615C002A18002054180020F8B5224B1C68238AFA
:10616C00267AABB9042E13D11F48017801291F4997
:10617C000AD11F4C226894B21E4AA2185200136016
:10618C0030220A80037028E010260E80072624E0B7
:10619C00A58AA169AB428CBF022604269D4228BF6A
:1061AC001D46284688470746002000F045FD2A4634
:1061BC000146384600F052FC2946002000F058FDFC
:1061CC00208A638A421BED1808480B4B228230212F
:1061DC004FF44052018065821A80024B1868067297
:1061EC00F8BD00BF581800200E06002060180020D3
:1061FC00505C0040023000205E18002010B50A4BA5
:10620C000A4918684B78C27893420AD3817841B90D
:10621C00848834B9827206480268536898472046CD
:10622C0010BD022010BD00BF5818002038010020FE
:10623C005418002038B50E4A0E4C10682368826939
:10624C00D9785879904721688B7A7BB170B90879E5
:10625C0060B98D7855B9084A1168CB6898472068A1
:10626C004279C178C2720173284638BD022038BD0C
:10627C0030180020581800205418002010B5324B4C
:10628C001B68187810F07F0004D15A7A22F0200194
:10629C00597210BD022855D15A88002A53D1197948
:1062AC00002950D15A7922F080004FEA800404F181
:1062BC00804101F5B8442168244C12F0800F2478F9
:1062CC0014BF01F0300101F44051A0423AD2002930
:1062DC0038D09B7A002B35D0840002F0800204F178
:1062EC008043D1B203F5B844226861B102F03002A8
:1062FC00102A21D1C4B2204600F06BFC204630217C
:10630C0000F0EAFB18E002F44051B1F5805F13D1C4
:10631C0028B90F4B93F82C1000F0B8FC01E000F0FA
:10632C0046FC20684BF68F72024082F4405141F4D7
:10633C00004343F08000206006490B685869804791
:10634C00002010BD022010BD58180020380100207C
:10635C00E40000205418002010B51F4B19684A792E
:10636C0022F080034FEA830000F1804404F5B8402A
:10637C001A4C0068247812F0800F14BF00F0300023
:10638C0000F44050A34224D24C8814BB08B3897A41
:10639C00F9B19B0003F1804102F0800201F5B84392
:1063AC00D0B2196828B148F6BF720A4082F01000CA
:1063BC0004E04BF68F720A4082F4805040F40041A6
:1063CC0041F080001860064B1A68916988470020DC
:1063DC0010BD022010BD00BF58180020380100204D
:1063EC005418002008B5064B1868064B427A42F048
:1063FC00200141721868C2699047002008BD00BF97
:10640C005818002054180020054B1A68538A18B9E4
:10641C008988CB1A138270470868C018704700BF70
:10642C005818002008B50B4B002093F82C1000F0E6
:10643C002DFC09480168087A082806D1074B4FF44F
:10644C0080521A80064A10211180B0F1090358427B
:10645C00584108BDE4000020581800205E180020A8
:10646C006018002070B52E4B1C68207A02284FD083
:10647C0004284DD0032801D0052843D1A169208AD6
:10648C00A9B1A0B1A58A854228BF054628468847F0
:10649C00228A0646608A531B2918618223820020B7
:1064AC0000F0D8FB2A460146304600F0EEFA228A6C
:1064BC0052B11C4B4FF4405018800020014600F0A4
:1064CC00D7FB194A30211180208AA38A14498342B0
:1064DC0002D80B68032202E018B10B6805221A726D
:1064EC000CE00A680623114913720A68104993B22A
:1064FC005A1853000C49186030200880084801686D
:10650C000B7A06E0072803D10A490A68D368984732
:10651C000823034A10680372BDE87040FFF782BF7E
:10652C00581800205E18002060180020505C0040B5
:10653C000230002030180020944B73B51A6894492F
:10654C0090B24418934E65002A6835682B7A092B53
:10655C0015D090B2410001F1804404F5C04422787A
:10656C002A7063786B70A08800F0BEFB688020896D
:10657C00356800F0B9FBA880A0893168C880854DCA
:10658C0001242B68DA881C725C78002A64D1187894
:10659C0010F07F0238D1092C02D1FFF72FFE45E015
:1065AC00052C0FD193F90320002A01DA08214FE0C2
:1065BC0099780029FAD198880028F7D19B7A002B7A
:1065CC0038D0F3E7032C10D1D878012807D0724AC1
:1065DC00204611684B699847032829D137E09B88DE
:1065EC00002BF4D1FFF7FEFE20E0012CEFD1D9787F
:1065FC000129ECD198880028E9D15B7A03F02002BC
:10660C00D1B20029E3D00AE0012A04D10B2CDED14F
:10661C00FFF710FE0AE0022AD9D1012C02D1FFF7B4
:10662C002DFE03E0032CD2D1FFF796FE10B1CEE77E
:10663C000028BBD15548594B026891B2C818584B29
:10664C004100002230200A601880062100E0092158
:10665C00504A10680172D3E0062C13D11C786106E5
:10666C007AD19A784C4B012A02D11C68E36969E013
:10667C00022A02D11868036A64E0032A6CD11968F3
:10668C004B6A5FE0002C3ED15988002964D15868D0
:10669C0020F47F42B2F5003F5ED11C7814F07F00ED
:1066AC0004D19888002800F0AE8055E001280CD168
:1066BC00394A58791468A269904700284CD12B6844
:1066CC00997A002940F09F8046E0022844D15B79FA
:1066DC0003F00F014FEA810202F1804404F5B84047
:1066EC00304C0268207813F0800F14BF02F0300297
:1066FC0002F4405281422FD213F0700F2CD1002A99
:10670C0040F0818028E0082C03D119784A067CD00F
:10671C0022E00A2C20D1187800F07F0101291BD12E
:10672C009C7ACCB15988B9B95A6822F47F40B0F53B
:10673C00803F11D1184C587922689469A0470028E1
:10674C0065D009E043B113480024016820464C820F
:10675C008B61984720460AE00F4A0E4C116823685B
:10676C000A6958789047032801D1236806E0094B41
:10677C004FF6FF711B681A8A8A4201D1092103E086
:10678C00022800D082B90821197239E0505C00400F
:10679C00043000205818002030180020023000204F
:1067AC00601800203801002093F90000002821DA3D
:1067BC00D98801910198824202D9019A1A8211E07A
:1067CC008A420FD21349086890F82C108A4201D2E1
:1067DC00002105E092FBF1F001FB102212B901211E
:1067EC000D4801700B49086890F82C209A82FFF72D
:1067FC00B3FC05E003221A72084B4FF44051198088
:10680C00FFF710FE7CBD064B9DE7064B9BE7064B46
:10681C0099E700BF301800200E0600205E180020FB
:10682C00C960000881600008A560000870B50D4BB8
:10683C001C780023A34210D203F1805202F5B85504
:10684C00A90043F400420E6842F0800540F60F7236
:10685C0032402A430A600133ECE7034940F08000E0
:10686C00086070BD380100204C5C004010B5144924
:10687C000B680C461A7A022A01D0042A04D1FFF7BD
:10688C006BFC2168087A13E0062A10D15878052889
:10689C0009D11978480606D1D878FFF7C7FF094BFC
:1068AC001A68106A804708490B689A689047082054
:1068BC00034B1A681072BDE81040FFF7B3BD00BF60
:1068CC005818002054180020301800207047000081
:1068DC0037B50023ADF806305848594B026891B2D1
:1068EC001204198040F1A8801888564900F00F0254
:1068FC000A70002A6ED1544C2568AAB2534D2A80D6
:10690C002988534A01F03000108029884BF6BF7259
:10691C0001F44050288021680A4082F4005080F035
:10692C00200141F4004242F0800020601B8803F0FB
:10693C0010018AB23AB9226848F60F7010402060F4
:10694C00FFF794FF1DE0206883B2ADF80630BDF868
:10695C00061001F4006290B238B1216840F68F73D2
:10696C000B402360FFF7E8FD0BE0BDF8063019B2D1
:10697C000029B1DA226840F68F7010402060FFF7D2
:10698C0071FD21682A884BF6BF7302F480500B40CE
:10699C0081B209B183F480532C4A108800F4005161
:1069AC008AB20AB183F400532948018801F010021D
:1069BC0091B209B183F01003008800F0200291B26B
:1069CC0009B183F0200343F400401F4A40F08001DA
:1069DC00116031E0930003F1804000F5B843196871
:1069EC0088B2ADF80600BDF8061008B2002809DA26
:1069FC00186840F68F7101401960164B013A53F834
:106A0C0022008047BDF8061001F0800293B2002BE3
:106A1C003FF462AF0B480278910001F1804303F51B
:106A2C00B841086848F60F7303400B600A49013AF5
:106A3C0051F8220080474FE73EBD00BF445C004048
:106A4C002818002034180020005C00405E1800203C
:106A5C0060180020740000209000002030B501F177
:106A6C00005101F5405301325900521000230230FD
:106A7C00934209D010F8015C10F8024C44EA05244A
:106A8C0021F823400133F2E730BD01F1005110B57C
:106A9C00013201F54054521064000023934205D09A
:106AAC0054F8231020F813100133F7E710BD000041
:106ABC004FF6F873014A034013607047505C004076
:106ACC00800000F1804202F5B842106848F68F133E
:106ADC000340194311607047800000F1804202F5B9
:106AEC00B842106848F6BF73034001F0100080B242
:106AFC0008B99BB201E083F0100301F0200188B2C9
:106B0C0008B183F0200343F4004141F08000106091
:106B1C007047800000F1804202F5B84210684BF6D5
:106B2C008F73034001F4805080B208B99BB201E02E
:106B3C0083F4805301F4005188B208B183F40053FC
:106B4C0043F4004141F0800010607047800000F178
:106B5C00804202F5B840016848F6BF730B4083F0E1
:106B6C00300242F4004141F0800303607047800022
:106B7C0000F1804202F5B84001684BF68F730B4070
:106B8C0083F4405242F4004141F0800303607047AB
:106B9C00800000F1804202F5B840016840F60F63B6
:106BAC000B4043F4004242F08001016070478000CA
:106BBC0000F1804303F5B8400268510408D5016820
:106BCC0040F60F730B4043F4404242F080010160E9
:106BDC007047800000F1804303F5B8431A685006F3
:106BEC0008D5196840F60F70084040F4004242F096
:106BFC00C001196070470000064B49081A6893B22F
:106C0C0003EBC00000F1005202F5405358004A005B
:106C1C0002607047505C0040054B49081A6893B2FB
:106C2C00044A03EBC000831858004A000260704706
:106C3C00505C004004300020054B19688AB202EB0E
:106C4C00C00000F1005303F540514A001088704712
:106C5C00505C0040044B1968044B8AB202EBC00034
:106C6C00C1184A0010887047505C00400430002066
:106C7C00044B1A6893B2044A03EBC0008318580003
:106C8C0001607047505C0040023000200C4B1A68C9
:106C9C0093B20C4A03EBC00083185A003E2908D962
:106CAC004B09C90601D1581E83B2990241F4004127
:106CBC0004E04B08C80748BF0133990211607047C4
:106CCC00505C004006300020054B1968054B8AB219
:106CDC0002EBC000C1184A0010688305980D70477C
:106CEC00505C004006300020C3B2000A40EA03208A
:106CFC0070470000044B00201860044A044B4FF40A
:106D0C003F41118019607047445C00405C180020C2
:106D1C00405C004040F0BF60024B40F40031D96051
:106D2C00704700BF00ED00E0C37810B503B3164CFC
:106D3C00E168CB43C3F302244178C4F1040201FAA5
:106D4C0002F10F2222FA04F28478037822400A43DB
:106D5C00110103F16043CAB203F5614181F80023CC
:106D6C000078012200F01F03410902FA03F007E04A
:106D7C000078012200F01F03410902FA03F02031D0
:106D8C00024B43F8210010BD00ED00E000E100E0F3
:106D9C0021F0604121F07F02014B10439860704755
:106DAC0000ED00E0837910B5002B29D01A4B016857
:106DBC001C68CA4314401C605C6822405A6002790B
:106DCC0002F1804404F58232146821431160026898
:106DDC009C68D1430C409C60DC68407921401028B1
:106DEC00D96006D1986810439860D9680A43DA6074
:106DFC0010BD00F1804303F5823319680A4308E0A3
:106E0C000179006801F1804202F582331A6822EAA6
:106E1C0000021A6010BD00BF00040140014B586114
:106E2C00704700BF00040140064B1A68596910EA0C
:106E3C00010304D010420CBF0020012070471846FB
:106E4C00704700BF00040140014B5861704700BF00
:106E5C0000040140CB78F0B5DA0648BF8A7809887F
:106E6C0003F00F0548BF154311F0FF0F1ED0046847
:106E7C000022012707FA02F707EA0106BE4211D1E8
:106E8C0097004FF00F0C0CFA07FC05FA07F724EAF1
:106E9C000C04282B44EA070401D1466102E0482B7C
:106EAC0008BF06610132082AE3D10460FF2920D90A
:106EBC004468002202F10806012707FA06F707EAE0
:106ECC000106BE4211D197004FF00F0C0CFA07FCD3
:106EDC0005FA07F724EA0C04282B44EA070401D12D
:106EEC00466102E0482B08BF06610132082AE1D155
:106EFC004460F0BD836819420CBF0020012070472C
:106F0C0001617047416170470028174B30B500F4A0
:106F1C004014B4BFDB695B68B4F5401F82B207D183
:106F2C00114C23F07063656825F0706565600FE0A7
:106F3C00C40205D5C0F30344032505FA04F403E0A9
:106F4C00440D240102FA04F423EA040343F07063B1
:106F5C0021B1410D090102FA01F213430028024844
:106F6C00B4BFC361436030BD0000014001F00302B7
:106F7C0030B592000F2404FA02F400FA02F0074B29
:106F8C008908023153F8215025EA040443F82140C2
:106F9C0053F82140044343F8214030BD0000014028
:106FAC00014B1860704700BF00300040014B586027
:106FBC00704700BF00300040014B9860704700BF25
:106FCC0000300040024B4AF6AA221A60704700BFFC
:106FDC0000300040024B4CF6CC421A60704700BFA8
:106FEC0000300040014B1860704700BF20000E427B
:106FFC00074B1A6842F004001860196841F002024D
:10700C001A60044B186940F00401196130BF7047D5
:10701C000070004000ED00E0034B596808420CBFC3
:10702C0000200120704700BF00700040024B1A681E
:10703C0042EA80001860704700700040064B002246
:10704C0001281A701A7004D0042804D10520187075
:10705C0001E018707047704720100240024B1A6A0A
:10706C0010431862704700BF00100240014B1860BB
:10707C00704700BF3C044242044B5A6909B11043AB
:10708C0001E022EA00005861704700BF0010024086
:10709C00044B9A6909B1104301E022EA000098619F
:1070AC00704700BF00100240044BDA6909B110436D
:1070BC0001E022EA0000D861704700BF00100240D6
:1070CC004309012B074A01D1136803E0022B0CBFC3
:1070DC00136A536A00F01F0023FA00F101F001005B
:1070EC00704700BF00100240024B5A6A42F0807099
:1070FC005862704700100240044B1A8892B209B1D2
:10710C00104301E022EA000018807047002800407C
:10711C00034B9A8890B240F010019980704700BFE1
:10712C0000280040034A938823F0100001040B0C44
:10713C009380704700280040084B1A8B988B198B52
:10714C0092B289B28A4280B204D09B8B9AB242EA44
:10715C000140704740EA0240704700BF00280040E1
:10716C0010B50446FFF7D4FF044BC4F30342A4B29A
:10717C001A819C81BDE81040FFF7D4BF0028004065
:10718C0010B50446FFF7C4FF044B220CA4B21A84BA
:10719C009C84BDE81040FFF7C5BF00BF002800402D
:1071AC00034B988800F020018AB2002AF8D070476F
:1071BC0000280040074A938823F0080001040B0CB8
:1071CC009380044A908800F008018BB2002BF8D011
:1071DC00704700BF00280040074B9A881B8891B26B
:1071EC0010EA030206D0084010F0FF0F0CBF00207D
:1071FC00012070471046704700280040034B9A88C6
:10720C0091B221EA00009880704700BF002800402E
:10721C00224A038890429BB212D002F5006290423F
:10722C000ED0B0F1804F0BD0A2F59832904207D01F
:10723C0002F58062904203D002F58062904203D145
:10724C004A8823F070031343154A904208D002F584
:10725C008062904204D023F44073CA889BB21343DB
:10726C0003808B880A8883850C4B028598420FD04B
:10727C0003F5006290420BD002F54063984207D0B0
:10728C0003F58062904203D002F58063984201D1ED
:10729C00097A018601228282704700BF002C0140CE
:1072AC0000100040038C70B523F001021404250C6F
:1072BC000584068C8388028B9CB222F073052B0408
:1072CC000D881A0C26F0020633042A434E880D89C9
:1072DC001B0C3543ADB22B43134DA8420FD005F513
:1072EC000065A8420BD005F54065A84207D005F50E
:1072FC008065A84203D005F58065A8420ED123F025
:10730C0008064B898D881E4326F004032B43CE8937
:10731C008D8924F440743543ADB22C43C9888480E4
:10732C0002838186038470BD002C0140038C30B530
:10733C0023F010021404250C0584038C8288048B22
:10734C0023F0200324F4E6452C040D88240C44EA95
:10735C0005241D042B0C0D8992B243EA05134D88AC
:10736C00A4B243EA0513124D9BB2A84203D005F513
:10737C000065A84215D14D8923F080039BB243EAE6
:10738C0005134FF6BF751D408B8822F4406245EA09
:10739C000315ABB28D8942EA8502CD8942EA85029A
:1073AC0092B2C988828004830187038430BD00BFF8
:1073BC00002C0140038C30B523F480721404250C8E
:1073CC000584038C8288848B23F4007324F073056A
:1073DC002C040D88240C2C431D042B0C0D8992B20B
:1073EC0043EA05234D8843EA0523124D9BB2A8427C
:1073FC0003D005F50065A84215D14D8923F400632F
:10740C009BB243EA05234FF6FF351D408B8822F4CF
:10741C00405245EA0325ABB28D8942EA0512CD896B
:10742C0042EA051292B2C9888280848381870384E0
:10743C0030BD00BF002C0140038C30B523F48052CA
:10744C001404250C0584038C8288858B94B225F456
:10745C00E64215042A0C0D8823F4005342EA052257
:10746C001D042B0C0D8992B243EA05334D8843EA77
:10747C0005330A4D9BB2A84203D005F50065A8421E
:10748C0005D18D8924F4804444EA8514A4B2C988BA
:10749C0084808283A0F84010038430BD002C01400E
:1074AC0000214FF6FF7383800180C18041800172FF
:1074BC0070470023038043808380C3800381438112
:1074CC008381C3817047038819B199B241F00103DC
:1074DC0003E023F001010A04130C03807047B0F899
:1074EC00443029B16FEA43436FEA53418AB201E059
:1074FC0059044A0CA0F84420704783899BB20AB106
:10750C00194301E023EA010181817047038819B115
:10751C0099B241F0800303E023F080010A04130CBC
:10752C0003807047038B23F0080213041A0C1143D9
:10753C0001837047038B23F4006213041A0C42EA94
:10754C0001218BB203837047838B23F00802130451
:10755C001A0C114381837047838B23F4006213044C
:10756C001A0C42EA01218BB283837047038A828909
:10757C0011EA030092B203D011420CBF002001208B
:10758C007047C9438AB202827047000008B5064BA7
:10759C0000221860054906489A601961DA80DA60A1
:1075AC009A80036A984708BD64180020781C002054
:1075BC00C421002008B5044B1A690AB100201861D7
:1075CC0002494B6A984708BD64180020C42100206A
:1075DC0062B6704708B572B600F07AFE034B022211
:1075EC0018699A6019680530884708BD641800202E
:1075FC0070B50646002014460D4600F059FE012ECB
:10760C00A4B207D130462946224600F0D9FD00200D
:10761C00124907E0124B01201969224600F0D0FDF7
:10762C0000202946224600F0CBFD0E480221012203
:10763C0003F0A1FC012000F03BFE0A4803F0A3FC80
:10764C000028FAD1084803F09EFC0028FAD107481C
:10765C00802103F066FD0028F9D170BD3C010020AB
:10766C0064180020580002404400024000380040DA
:10767C0003460A4601201946FFF7BABF70B5064605
:10768C00002014460D4600F013FE012EA4B207D1C3
:10769C0030462946224600F093FD0020104907E0B1
:1076AC00104B01201969224600F08AFD0020294662
:1076BC00224600F085FD012000F0FAFD0A4803F097
:1076CC0062FC0028FAD1094803F05DFC0028FAD1CD
:1076DC000748802103F025FD0028F9D170BD00BFBB
:1076EC003C01002064180020580002404400024075
:1076FC000038004003460A4600201946FFF7BEBF7B
:10770C0038B504460D4600F0FFFE00202146042249
:10771C00FFF7B4FF0020211D2A1FFFF7AFFF034B1B
:10772C0002229A6000F0D4FD002038BD64180020BD
:10773C00F8B501F00106044686F001000D1801238E
:10774C0000262370C5F307221B4BE670267162706E
:10775C00A57005319D68081886B215B99A68012A7A
:10776C00FCD19968144D012907D120463146FFF709
:10777C00C7FFA8680228FCD11CE0AF68022FFCD11F
:10778C000E48802103F0CDFC0028F9D10C4DE8699E
:10779C0080472F460028F9D0074D0323AB60EC60DF
:1077AC00AE8000F0B1FEFA6990470028FBD0A968C2
:1077BC000229FCD10020F8BD6418002000380040DC
:1077CC00C421002070B5184E35696B79022B08D096
:1077DC00042B25D1287A441E14F0010F18BF04463F
:1077EC0014E0681D032101F063FDB0F5806F0446C1
:1077FC0008DB05F10A004FF480610724FFF738FF1E
:10780C00B4600EE0C30701D4441C00E024B105F1C0
:10781C000A00A1B2FFF72CFF034908228A6000E09E
:10782C000024204670BD00BF64180020024B0120CC
:10783C0019690A22FFF7DCBE6418002008B5FFF7AF
:10784C00C1FF18B9BDE80840FFF7C4BE08BD000071
:10785C0070B5364C4FF40030266903F097FB0546A3
:10786C004FF4005003F092FBA368062B0BD1002DB4
:10787C005BD0002859D04FF4083003F095FBBDE8DD
:10788C007040FFF7DBBFA16807291BD100284CD043
:10789C004FF4083003F088FB0321701D01F008FD44
:1078AC00A0F58064A1B2214CCA0758BFA0F2FF31E9
:1078BC00206958BF89B200F20A40FFF7D9FE0823AD
:1078CC00A36070BDA268082A09D100282DD04FF4FE
:1078DC00083003F069FBBDE87040FFF77BBEA06881
:1078EC00052811D1002D20D01148802103F019FC5E
:1078FC000028F9D14FF4083003F056FB00F0E8FCF7
:10790C000A4A0221916070BDA368042B0DD165B1A8
:10791C00A088E2680521A0F58063A16002F5806073
:10792C0099B2BDE87040FFF7E5BE70BD6418002049
:10793C000038004008B5174BD8698047002827D17C
:10794C00154B9A6812B90120986008BD99680229F4
:10795C0007D106229A6000F0D7FDBDE80840FFF77A
:10796C0065BF9A68032A13D19A88B2F5806F06D83E
:10797C0005219960D968BDE80840FFF739BE04209D
:10798C009860D8684FF48061BDE80840FFF7B2BE3C
:10799C0008BD00BFC421002064180020BFF34F8F26
:1079AC00054A064BD16801F4E06040EA0301D1605E
:1079BC00BFF34F8FFEE700BF00ED00E00400FA05B7
:1079CC004FF4A060FFF7A6B9024B18601A68002AA2
:1079DC00FCD170478C20002030B54FF4003085B0BE
:1079EC00FFF732FA0821002001244FF400338DF800
:1079FC000C000DEB010002938DF80D1029258DF86C
:107A0C000E40FFF7CFF9032201A88DF804208DF862
:107A1C0005408DF806408DF80740FFF785F98DF885
:107A2C00045001A802258DF805408DF806508DF8FC
:107A3C000740FFF779F92846FFF7EEFA50B12846D0
:107A4C00FFF7F4FAFFF7B6FB24204FF6FF7103F0B3
:107A5C00CBF927E0242003F0D5F94AF2A55398423C
:107A6C0001D1FFF7C5FA0120FFF7E8FA4120FFF733
:107A7C0027FB0028FAD04FF48070FFF7EFFA0120B3
:107A8C00FFF7F4FAFFF796FBFFF78AFB03200121BF
:107A9C00FFF732FBFFF784FB47F6FF70FFF760FB45
:107AAC00FFF77EFB05B030BD08B524204AF2A55186
:107ABC0003F09AF9FFF772FF10B5044645F25550E2
:107ACC00FFF76EFA0620FFF771FA42F2107084424B
:107ADC0028BF044628216143C1F30F20FFF76CFA3D
:107AEC00FFF770FABDE81040FFF774BA082812D8F7
:107AFC00012907D10A4B0B4A53F8201032F8100019
:107B0C0008610AE049B9064B064A53F8201032F8CE
:107B1C001000486101E0FF2300E0002358B27047D9
:107B2C0044010020ECB7000837B50E4D044605EBB8
:107B3C00800318690121FFF7ABFA35F814000A4BE2
:107B4C001021ADF804008DF80710032253F824001F
:107B5C0001A98DF80620FFF77DF920460021FFF7DB
:107B6C00C5FF3EBDECB700084401002070B50121F3
:107B7C0088B04FF40060FFF78BFA314B42F2107073
:107B8C001C686326B4FBF0F14A1E2E4C01A895B27A
:107B9C00FFF786FC01A8FFF783FC01A9ADF80450A0
:107BAC0020460025ADF80860ADF80A50ADF8065037
:107BBC00FFF72EFB04A8FFF77CFC022060230126B4
:107BCC00ADF8180004A92046ADF81030ADF81260DD
:107BDC00ADF81650ADF81C50FFF764FB2046294653
:107BEC00FFF7A0FC204604A9FFF7A0FB204629467E
:107BFC00FFF7A0FC204604A9FFF7DCFB2046294632
:107C0C00FFF7A2FC204604A9ADF81050ADF81260A5
:107C1C00ADF81650ADF81850FFF70EFC204629466B
:107C2C00FFF79AFC20463146FFF770FC20463146A0
:107C3C00FFF749FC20463146FFF751FC08B070BDF8
:107C4C00A4010020002C0140104930B58C8DC0F3EC
:107C5C000743A2B2551C5D43FF22B5FBF2F40C4B5B
:107C6C00A5B29D808C8DC0F30725A4B201346C4362
:107C7C00B4FBF2F4A4B2DC80898DC0B289B20131BC
:107C8C004843B0FBF2F291B2598030BD002C014058
:107C9C0010060020104930B58C8DC0F30743A2B2FA
:107CAC00551C5D43FF22B5FBF2F40C4BA5B29D8134
:107CBC008C8DC0F30725A4B201346C43B4FBF2F4F1
:107CCC00A4B2DC81898DC0B289B201314843B0FBCA
:107CDC00F2F291B2598130BD002C01401006002007
:107CEC0037B50F4D044605EB8003186B012105EBEE
:107CFC004405FFF7CDF9B5F84000ADF804000CB918
:107D0C00102100E01821074B8DF8071003EB8404B9
:107D1C000322206A01A98DF80620FFF79BF83EBDCF
:107D2C00ECB700084401002010B1E7281BD105E096
:107D3C000D4A4FF40051106A016170470B4B0C4A0D
:107D4C00197C39B9988881B21187D88881B291870A
:107D5C005B8806E0988981B21187D88981B29187B6
:107D6C005B899BB29386704744010020100600206B
:107D7C00002C0140024B0022E7201A74FFF7D4BFFD
:107D8C001006002038B1E7280BD1064B00221A87C9
:107D9C009A879A8605E004484FF40053016A4B61B8
:107DAC0070477047002C014044010020024B012217
:107DBC00E7201A74FFF7E6BF1006002010B1E72881
:107DCC0027D106E0134B196AC86880F40052CA60C8
:107DDC007047114A114B117C61B9198F9088414041
:107DEC0088B21887998FD088414088B29887998E2D
:107DFC0052880BE0198F9089414088B21887998F6F
:107E0C00D089414088B29887998E52894A4092B263
:107E1C009A8670474401002010060020002C014077
:107E2C00E7287FD14049414B087C414A48BB8988AF
:107E3C0088B208B918700DE0118F88B208B901200A
:107E4C0007E0118F928D88B291B24A1C904201D1F9
:107E5C00FF201870344B3748D98889B269B1344A3D
:107E6C00938F99B209B9012107E0938F928D99B242
:107E7C0093B25A1C914201D1FF2101702A484388C8
:107E8C0028E0898988B208B918700DE0118F88B282
:107E9C0008B9012007E0118F928D88B291B24A1C6B
:107EAC00904201D1FF2018701F4B2248D98989B20A
:107EBC0069B11F4A938F99B209B9012107E0938FD9
:107ECC00928D99B293B25A1C914201D1FF2101704B
:107EDC001548438998B2184B68B1154A918E88B2EF
:107EEC0008B9012007E0918E928D88B291B24A1C9C
:107EFC00904201D1FF2018700D4B0C491A8F91F94B
:107F0C000000821891B20B4A198792F90010988FD1
:107F1C00081882B208499A8791F90020988E101897
:107F2C0081B29986704700BF10060020982000206F
:107F3C00002C0140882000207820002073B5104CC4
:107F4C000E4604EB400494F84C10054694F8480097
:107F5C00FFF70CF8B4F850402046FEF75FFF0948D5
:107F6C000023451995F83010684600948DF80430BC
:107F7C008DF805108DF80660FEF714FF7CBD00BF70
:107F8C00ECB7000844010020F7B5224E8700F31926
:107F9C000546586D0C4640F001000121FFF778F8BA
:107FAC001D4B06EB45065A1992F83210B6F85C00D8
:107FBC0002AADF198DF8031022F8080D6946786BB8
:107FCC00FEF748FF012C23D11021002213481B2758
:107FDC00FFF793FA00238DF8047001A802278DF89F
:107FEC0006308DF805708DF80740FEF79DFEB6F84B
:107FFC00601001A88DF804108DF805708DF80640FE
:10800C008DF80740FEF790FE28462146FFF796FFB5
:10801C00FEBD00BFECB7000844010020002C01405D
:10802C0010B501214FF0C050FFF73EF80120FEF7CC
:10803C00D9FFFFF7C5FC01200146FFF729F8002402
:10804C00E0B20134FFF770FD082CF9D1FFF78EFD7B
:10805C000020FFF745FE0120FFF742FE0220FFF74C
:10806C003FFE0320FFF73CFE00200121FFF78CFFB1
:10807C00154B4FF47A701A68144BB2FBF0F14A1E90
:10808C001349F0205A6081F82300002207209A60DF
:10809C001860CB68C3F30220011D0629C0F1070349
:1080AC0088BFC21E042B28BF0423012000FA03F151
:1080BC004B1E03F0030000FA02F2054B1101C8B28B
:1080CC0083F8230010BD00BFA401002010E000E0E5
:1080DC0000ED00E0054A064B02EB800103EB400289
:1080EC00486BB2F85C10FEF705BF00BF44010020DE
:1080FC00ECB70008024B03EB4000418A88B2704792
:10810C0010060020024B002203EB40004282704715
:10811C001006002030B5082087B00121FEF7B8FF0B
:10812C00254C4FF480400121FEF7BEFF18204FF480
:10813C00005301258DF8030069462046ADF8003048
:10814C008DF80250FEF786FE4FF400412046ADF844
:10815C0000106946FEF77EFE4FF480420423204651
:10816C006946ADF800208DF80330FEF773FE002051
:10817C00ADF804004FF48271ADF80800ADF80A00B8
:10818C00ADF81200A4F5544407204FF400722023DC
:10819C00ADF80610ADF8140001A92046ADF80E207C
:1081AC00ADF81030ADF80C5002F082FF2188034B73
:1081BC008AB21A8007B030BD000C01409C20002010
:1081CC0070B5044601208CB00E4601461546FEF7EC
:1081DC0053FF124B002080224FF44051012C01938D
:1081EC000296059006920790089009900A910B90C0
:1081FC0006D103900A48049502F01AFE084807E0DD
:10820C004CB9102307480393049502F011FE05485E
:10821C0001A902F085FE0CB070BD00BF0C38004007
:10822C00440002405800024073B50F23012400257E
:10823C0001A88DF804308DF805508DF80650174EB6
:10824C008DF80740FEF770FDFFF764FF20462A46C5
:10825C001349FFF7B5FF28462A461249124DFFF77E
:10826C00AFFF30460221224602F085FE2846214609
:10827C00224602F048FF22462846022102F043FF24
:10828C002846214602F033FF2146084802F068FEDA
:10829C003046214602F064FE7CBD00BF580002400F
:1082AC00781C002078180020003800404400024060
:1082BC0010B504462146044802F052FE03482146FC
:1082CC00BDE8104002F04CBE440002405800024091
:1082DC0002484FF48051FEF713BE00BF000C014062
:1082EC0008B54FF400610248FEF704FE08BD00BF5C
:1082FC00000C014030B5092085B00121FEF7C8FE05
:10830C004FF400644823694614488DF80330ADF8E7
:10831C000040FEF79FFD0B210120FEF727FE2046B3
:10832C00FEF77CFD0C200294002501248DF80D0035
:10833C0002A88DF80C508DF80E40FEF733FD282165
:10834C0001A88DF804108DF805508DF806408DF8B5
:10835C000740FEF7E9FC05B030BD00BF000C014042
:10836C001FB52823002401A88DF804308DF8074090
:10837C00FEF7DAFC4FF40060029002A88DF80E4074
:10838C00FEF710FD1FBD000020B105484FF48071B1
:10839C00FEF7B6BD02484FF48071FEF7B3BD00BFC7
:1083AC00000C014013B5082001210F4CFEF770FEA4
:1083BC00032010214FF480538DF806008DF8071020
:1083CC00204601A9ADF80430FEF744FDFFF780FF0D
:1083DC004FF48072204601A9ADF80420FEF73AFD57
:1083EC000020FFF7D1FF1CBD000C014010B50B4C59
:1083FC00238823F0400001040A0C2280FFF768FF59
:10840C00074B188881B2074841F040024FF40071C5
:10841C002280BDE81040FEF775BD00BF003800405B
:10842C009A200020000C014002484FF40071FEF726
:10843C0067BD00BF000C014070B5082086B001215B
:10844C00FEF726FE2E4C01214FF48040FEF72CFE49
:10845C0018204FF4005301258DF80300694620467F
:10846C00ADF800308DF80250FEF7F4FC4FF40041EB
:10847C00ADF8001020466946FEF7ECFC04264FF4DC
:10848C00804220466946ADF800208DF80360FEF767
:10849C00E1FC1020032369464FF400768DF80300AD
:1084AC0020468DF80230A4F55444ADF80060FEF778
:1084BC00D1FCFFF7B9FF002107202023ADF80410F1
:1084CC004FF48272ADF80810ADF80A10ADF80C102C
:1084DC00ADF81210ADF8140001A92046ADF8062035
:1084EC00ADF81030ADF80E6002F0E2FD2188054BBE
:1084FC008AB2204629461A8002F0F9FD06B070BDFA
:10850C00000C01409A20002010B50B4C238823F05E
:10851C00400001040A0C2280FFF786FF074B1888E5
:10852C0081B2074841F040024FF480512280BDE8EF
:10853C001040FEF7E7BC00BF003800409C20002034
:10854C00000C0140014B03221A60704740060020CA
:10855C00044B05489A7A0AB1052100E0012101601B
:10856C00704700BF381800204006002020B1054895
:10857C004FF48061FEF7C6BC02484FF48061FEF7F1
:10858C00BFBC00BF000C0140074B987D50B10749A0
:10859C00074B0A8807489A870188074AD9871088A9
:1085AC00A3F84000704700BF10060020004C0008E4
:1085BC0044010020024C0008044C000810B5154B77
:1085CC00987D002825D002F0F9FC342002F00AFD39
:1085DC00114802F04FFD04281AD1104C0E48A18FFF
:1085EC0002F02CFD042812D10D48E18F02F026FD7B
:1085FC0004280BD10B48B4F8401002F01FFD0428DE
:10860C0003D1BDE8104002F0E5BCFEE7FEE7FEE753
:10861C00FEE710BD10060020004C000844010020AD
:10862C00024C0008044C000838B505464FF0FF100A
:10863C00FFF70AFBE720FFF777FB0F4B45F255548A
:10864C00A3F84040FFF7BAFF2820214602F0CCFBEC
:10865C000A482022002145628261C161074CE06911
:10866C00A369984207D205EB003000F0FEFCE269EA
:10867C00511CE161F2E738BD4401002010060020D6
:10868C002DE9F04106460F464FEA91080024444577
:10869C0016D056F824201748174D0270C2F3072144
:1086AC00C2F30743AA62120E4170C270696A0422B7
:1086BC00837000F071FC686A0134011D6962E6E7A1
:1086CC00BB0711D056F824300A480B4AC3F30721D4
:1086DC004170C3F307419362037081701B0E516AA2
:1086EC000422C37000F058FCE720BDE8F041FFF70E
:1086FC0065BB00BF942000201006002008B5074B76
:10870C000524A3F84040FFF759FF2820214602F02A
:10871C006BFB0020FFF72AFFFFF740F94401002014
:10872C0070B50E46054602F07DFBB3082C461A4682
:10873C00013A0434511C114905D054F8040C90FA38
:10874C00A0F00860F4E705EB8303086890FAA0F149
:10875C0006F003069E19B3420ED013F8014B082203
:10876C00614011F0010F4FEA510416BF0449214634
:10877C006140013AF5D1EEE7C84370BD00300240CC
:10878C002083B8ED00230360184670470023036074
:10879C0018467047002303601846704748F20203DE
:1087AC00984210B517D007DC99284CD0591E884236
:1087BC004CD10122264848E048F21003984232D0AE
:1087CC007033984242D1234A234801211170017021
:1087DC000022224839E01E4C22783AB14FF47F40F7
:1087EC00FFF732FAE720FFF79FFA07E01C4B1878E7
:1087FC0008B1411E01E01B4B012119701A4A1B499B
:10880C001B4B00200870107018701A4A1A491B4B29
:10881C00107008701A4A18701A491B4B107020708F
:10882C000860186010BD0B7D0F4853B90121017011
:10883C004FF47F40FFF708FAE720BDE81040FFF740
:10884C0073BA002201E011480122027010BD00BF72
:10885C00A2200020C9200020CA2000203C060020B5
:10886C00A3200020B3200020C1200020B62000202F
:10887C00BA200020B9200020C8200020C0200020F1
:10888C00A1200020C4200020BC200020A02000201B
:10889C001FB50A223C234FF461504FF461618DE8FF
:1088AC000F00684601A902AA03AB01F045F905B017
:1088BC0000BD1FB50023009301930293039301A8FD
:1088CC00694602AA03AB01F0FFF805B000BD000039
:1088DC0038B54348434B002443491C700470434A49
:1088EC00434B44480C7044491C7014700470434B47
:1088FC00434A44480C70444D444914701C70046045
:10890C00FF200C602C70FFF79FF9E720FFF70CFAA3
:10891C0021462246204602F069F83D4B012103F81E
:10892C00014F0E200A4601F079F92C78012C05D163
:10893C006420FFF749F800F029FEF6E710210C201F
:10894C0001F0B8F9334801F07FFD334802F0C2F969
:10895C00012002F0A3F9234DE7202A782AB9FFF76A
:10896C002DFAFA20FFF730F8F5E7294DFFF7DCF97F
:10897C00012100222B460E2001F022F902F0C8F949
:10898C00431C2B7001212B4600220E2001F046F9CE
:10899C0000200146012202F029F801242B46214631
:1089AC00224603F8014F0E2001F038F901F0A4FF24
:1089BC006420FFF709F8002001F052FF17480470FB
:1089CC0048F2442002F038F94FF47F40FFF73CF9AD
:1089DC00E720FFF7A9F9124A0021117038BD00BF3A
:1089EC00CA200020C9200020C1200020A020002087
:1089FC00B6200020BA200020B9200020C020002082
:108A0C00C8200020C4200020A2200020BC20002070
:108A1C00A320002050B8000888010020CB200020A3
:108A2C00B32000201FB5FFF7BDFCFFF7FDFB3E4B4D
:108A3C003E483F493F4A009301903F4B02910392BD
:108A4C003E493F4A3F4801F0F7FE6420FEF7BCFF69
:108A5C00002001F005FF3C4B3C49012000241C7018
:108A6C00087048F2442002F0E7F8394A1388012BC9
:108A7C0008D1FF2002F0C6F810210E2001F01AF9DF
:108A8C00002108E00E2010212246324B01F098F80C
:108A9C000028EED10DE02F4B0024CC5401311029CD
:108AAC00F9D10E20224601F0B9F829480480FFF7CD
:108ABC0085FD284CA17849B9FFF7EAFE0121234630
:108ACC0003F8021F0E20022201F0A8F8224A1378A4
:108ADC00A3B9204C207818B9204A012111700DE05F
:108AEC00607858B90146012201F080FF012123462C
:108AFC0003F8011F0E200A4601F090F8164B187867
:108B0C0010B916490A7832B94FF47F40FFF79CF838
:108B1C00E720FFF709F9124801F0B2F804B0BDE8FC
:108B2C001040FFF7C6BE00BFED82000801830008AD
:108B3C006D83000895830008A187000891870008C1
:108B4C0099870008A9870008C0200020CB200020AE
:108B5C0082010020A32000203C060020B32000202E
:108B6C00B420002038B5184B187860B317490A7830
:108B7C004AB3174C0123174823700168C72907D93A
:108B8C0000250560FCF7A4FFA84204DA257002E07A
:108B9C000268531C03601048017869B10F4B43F60F
:108BAC0097221868904204D900221A60084B1A7058
:108BBC0002E01968481C186005490878012802D0A1
:108BCC00074B01221A7038BDA2200020B6200020CD
:108BDC00BA200020C4200020B9200020BC20002096
:108BEC00B820002030B502200121062285B001F00A
:108BFC0053FC051E02DA4FF0FF341AE00021352237
:108C0C00082402238DF802108DF8032069461022E7
:108C1C008DF804408DF805408DF806408DF807401E
:108C2C00ADF8003001F08CFC041EE4DB284601F0AA
:108C3C0061FC204605B030BDF7B5634B634C18782A
:108C4C0010B963490A783AB3207858B36149624A3B
:108C5C005D4B00201870087010705C495F4A604BC7
:108C6C00087010705F4918705F4A604B0870107084
:108C7C005F4918705F4A604B087010601860FFF70E
:108C8C0083FB6420FEF7A0FE4FF47F40FEF7DCFF71
:108C9C00E720FFF749F805E0207818B901F0E0FD6E
:108CAC00012323705548017811B1FFF711FE1BE029
:108CBC00534D2A78C2B1484C2478ACB9214622468F
:108CCC00204601F093FE4F4802F0FAFB4E4E074649
:108CDC00304602F0F5FB00960190711F03203A46D6
:108CEC00234601F01FFE2C70484B1878012816D132
:108CFC0039490A78012A12D1364B187801280ED13D
:108D0C000324434802F0DCFB013C82B240490120C1
:108D1C0001F05CFD14F0FF04F3D13C490C702E4AB9
:108D2C001378002B4ED02A48017800294AD12B4ABF
:108D3C001378002B46D12E48017809B34FF47F00ED
:108D4C00FEF782FF2A4C227892B1E720FEF7ECFF67
:108D5C004FF4FA70FEF738FEE720FFF713F84FF4E4
:108D6C00FA70FEF731FE2078411ECAB22270E9E794
:108D7C00284B0E2003F8032F0121032200F04EFF95
:108D8C004FF6FF70FEF760FFE720FEF7CDFFFCF714
:108D9C0053FC002813DAFFF725FF0028144B01DAE7
:108DAC00022100E0032119701A781A4B0E2003F8E7
:108DBC00032F0121032200F031FF002000E00120ED
:108DCC00064B1870FEBD00BFB8200020CB20002041
:108DDC00B7200020A2200020C1200020B6200020B7
:108DEC00BA200020B9200020C8200020C02000207C
:108DFC00A1200020C4200020BC200020B320002093
:108E0C003C0600208B01002090010020CA2000208D
:108E1C0099010020A320002010B504460A48022125
:108E2C0002F07FF90028F9D00748214602F074F9C6
:108E3C000548012102F075F90028F9D0024802F02A
:108E4C006DF9C0B210BD00BF0038004070B5FFF71F
:108E5C00CDFA9F20FFF7E0FFFF20FFF7DDFF044670
:108E6C00FF20FFF7D9FF0546FF20FFF7D5FF2D02A6
:108E7C000646FFF7D9FA45EA0440304370BD08B501
:108E8C00FFF7B4FA0620FFF7C7FFBDE80840FFF76D
:108E9C00CBBA08B5FFF7AAFA0420FFF7BDFFBDE86F
:108EAC000840FFF7C1BA000008B5FFF7C5FAFFF795
:108EBC00F0FFFFF7CBFF104B984202D04C3B98428F
:108ECC0019D1FFF793FA8020FFF7A6FFFFF7ACFA52
:108EDC00FFF78CFA5020FFF79FFFFFF7A5FAFFF77B
:108EEC0085FA0120FFF798FF0020FFF795FFBDE8FA
:108EFC000840FFF799BA08BD8D25BF0008B5FFF7EC
:108F0C0075FA0520FFF788FFFF20FFF785FFC307E1
:108F1C00FAD4BDE80840FFF787BA70B50D4616467F
:108F2C000446FFF7ACFFFFF761FAAD20FFF774FFC3
:108F3C00C5F30740FFF770FFC5F30720FFF76CFF81
:108F4C00E8B2FFF769FF2078FFF766FF6078FFF75C
:108F5C0063FFFFF769FAFFF7D1FFA51C2C4602341B
:108F6C002B1BF01881B289B1FFF740FAAD20FFF747
:108F7C0053FF14F8020CFFF74FFF14F8010CFFF726
:108F8C004BFFFFF751FAFFF7B9FFE8E7FFF74CFA91
:108F9C00BDE87040FFF77DBF2DE9F84F11F0FF09D8
:108FAC0006460D4617464FEA12381DD1B8F1000F90
:108FBC0003D1304629463A4651E004465FFA89F21D
:108FCC00A81B904504EB000109D020464FF48052B9
:108FDC00FFF7A3FF04F5805409F10109EEE74FEA0E
:108FEC0008317018491939E0C9F10004E4B2B8F13C
:108FFC00000F0DD1D2B2A242DBD902EB09035FFA0A
:10900C0083F92246FFF789FF301961194A4626E099
:10901C00171B2246FFF781FFBFB24FEA17396519BC
:10902C0034195FFA89FB5FFA87FAA0460026F3B27F
:10903C00291B9B45414408D040464FF48052FFF712
:10904C006CFF08F580580136F1E74FEA093904EB5B
:10905C00090009EB0501BAF1000F04D0FAB2BDE822
:10906C00F84FFFF75ABFBDE8F88F10B50446FFF76D
:10907C0006FFFFF7BBF92020FFF7CEFEC4F3074035
:10908C00FFF7CAFEC4F30720FFF7C6FEE0B2FFF7F6
:10909C00C3FEFFF7C9F9BDE81040FFF72FBF000072
:1090AC003A4B82B01A6842F0010018605968384A8D
:1090BC000A405A60186820F0847121F480321A60DA
:1090CC00186820F4802119605A684FF41F0122F4AB
:1090DC00FE0000225860996000920192186840F4DA
:1090EC0080311960294B1A6802F400300190009904
:1090FC004A1C0092019818B90099B1F5A06FF1D1F2
:10910C001B6813F4003218BF012201920198012848
:10911C0005D0204B4FF000629A6002B070471E4998
:10912C000B6843F010020A60086820F003030B6020
:10913C000A68A1F5805342F0020008605968596032
:10914C005A685A60586840F4806159605A6822F431
:10915C007C105860596841F4E8125A60186840F065
:10916C00807119601868094A8101FBD5536823F096
:10917C0003015160506840F002035360034A516888
:10918C0001F00C000828F9D1C3E700BF0010024021
:10919C000000FFF800ED00E00020024008B50120BF
:1091AC00FFF7E4F9064B0749012200201A6018600A
:1091BC00086005494FF4E0520A801A6008BD00BFF0
:1091CC00405C0040445C00405C180020064B1A6870
:1091DC0090B240F0080119601A6890B240F0040196
:1091EC001960FFF7AFB900BF405C004010B5064CEA
:1091FC004FF6FB73226813402360FFF7A9F94FF475
:10920C003F40206010BD00BF405C00401F4B072852
:10921C0010B518BF18701A781C4C052A33D8DFE823
:10922C0002F003070C101823FFF7E0FF062202E000
:10923C00FFF7DCFF0422227010BD022159700320BD
:10924C0022E059784A1ED0B258705B78EBB90420F2
:10925C0017E00F4B186881B241F010021A600A2017
:10926C0005232370607010BD5878411ECAB25A7025
:10927C005B7853B906484FF6EF7201680A400260FA
:10928C000620024B00E00620187010BDCC200020F8
:10929C00405C004001700B0A0A0C090E437082708E
:1092AC00C170043070470170090A41700230704778
:1092BC0043185A78405C00EB022188B2704710B515
:1092CC0043189A78DC78415C120402EB04625878FB
:1092DC00521802EB002010BD73B544790023022C08
:1092EC0001930FD0032C19D0012C2BD1164D2869CA
:1092FC002E4620B1296901A888470246B8B9B16841
:10930C0001201BE0104DE8682E4620B1E96801A849
:10931C008847024658B9B16802200FE00A4D6A69C5
:10932C002E464AB16B6901A89847024620B1A9683C
:10933C002046BDF8043003E0B16803200022134638
:10934C0000F05EFB7CBD00BFC4210020072810B5D7
:10935C000CD801290AD8012404FA00F401FA00F00F
:10936C00034B1A6822EA040202431A6010BD00BFC4
:10937C00BC010020F0B5012187B00546FFF798FF2E
:10938C0000F48043044698B250B3B4F5824F27D111
:10939C0028460521FFF78CFF002607460735344683
:1093AC00BE4208D028460221FFF782FF013624185E
:1093BC000435B6B2F4E7744B188E21188AB21A86AB
:1093CC00D86B2418DC63D96B9A6B914240F0CE8039
:1093DC0093F84000002800F0C9809B69992033E085
:1093EC0024F4FF4121F07F0290B2002800F09B8012
:1093FC0048F2100294422AD00CD8B4F5004F40F237
:10940C00C08048F202039C4217D9991C8C4240F050
:10941C00B88012E048F2800084420ED005D848F2A1
:10942C004002944240F0AD8051E0B4F5024F04D0BC
:10943C00B4F5084F40F0A5806CE0534988690028CA
:10944C0000F094808B69204600210A4669E00023D5
:10945C00EA1851790DF803100133042BF8D1687A0E
:10946C002B7BAA7AE97A8DF804008DF807308DF8F9
:10947C0005208DF8061005F10D00002306AAD21860
:10948C00C15C0133042B02F8101CF7D105F111005B
:10949C00002306AAD218C15C0133042B02F80C1C61
:1094AC00F7D105F11500002300AAD218C15C0133D5
:1094BC00042B1174F8D1344928798A698DF8140079
:1094CC00002A53D08B6920466946152229E00535C0
:1094DC0000212846FFF7F3FE042100902846FFF7F1
:1094EC00EEFE082101902846FFF7E9FE0C210290C0
:1094FC002846FFF7E4FE102103902846FFF7DFFE15
:10950C00214B04909969002930D09B69204669460B
:10951C00142206E01C48826942B38369691D204607
:10952C000122984722E041F203039C4205D00C3300
:10953C009C4202D0591E8C421AD16C1D042120462B
:10954C00FFF7BDFE39301CD12D790F480021C562C3
:10955C002046FFF7B4FE042105462046FFF7AFFE78
:10956C00393003D128460121FFF7F0FE012009E034
:10957C00054A138899B28C4204D0B4F5805FF5D1BA
:10958C0000E0002007B0F0BDC421002038B50A4C23
:10959C00638898B208B9002038BD60680178042946
:1095AC00F9D1FFF7E7FE01280546F4D100226280CD
:1095BC00FEF70EF8284638BDC42100202DE9F047EF
:1095CC000446884691460025BC4B5A8890B2002828
:1095DC00FAD05E683178042940F07281304601215E
:1095EC00FFF766FE05463046FFF7C4FE002840F044
:1095FC005C8141F20703771D9D4253D85A1E954258
:10960C0080F0AC8040F20220854200F0A78014D894
:10961C000C2D09D8082D80F0A180002D00F045817B
:10962C00062D40F29B80DDE00D2D00F0948040F281
:10963C000127BD4240F039818DE041F20202954292
:10964C0018D8B5F5805F00F28980B5F5017F40F23E
:10965C00828040F207218D4240F02781337900212E
:10966C0004F8013B3846FFF72AFE01462046FFF777
:10967C0011FE1AE141F20400854200F0898040F2AB
:10968C00A08038460021FFF71AFE042120603846DE
:10969C00FFF715FE6060083406F10D07224606F14F
:1096AC001D016EE041F21100854254D02CD841F2DC
:1096BC000B02954252D01CD841F209018D424DD07B
:1096CC0000F28B8000213846FFF7F9FD0421206061
:1096DC003846FFF7F4FD082160603846FFF7EFFDD0
:1096EC000C21A0603846FFF7EAFD04F10C0AE0609B
:1096FC00DAE041F20F00854263D035D841F20D0219
:10970C00954240F0D28043E042F206018D4222D0D5
:10971C0008D8B5F5005F40F2C88042F204039D42C0
:10972C0019D983E042F208039D42C0F0BE80581C58
:10973C00854210D944F20B02954240F0B680717903
:10974C00DFF878A13846AAF830100121FFF7B0FDF8
:10975C00AAF83200A9E037792770A6E03846002134
:10976C00FFF7ADFD2060A0E000213846FFF7A7FD14
:10977C00A2464AF8040B04213846FFF7A0FD6060AE
:10978C0092E057F8043B8F4242F8043BF9D18CE04D
:10979C0000213846FFF793FD042120603846FFF77F
:1097AC008EFD082160603846FFF789FD04F1080A38
:1097BC00A060E46814F1390376D10121FFF7C6FDEE
:1097CC0072E000213846FFF77AFD0421206038460C
:1097DC00FFF775FD6060083467E0337923713F68EB
:1097EC00276062E038460021FFF769FD0421206004
:1097FC003846FFF764FD082160603846FFF758FDD6
:10980C000A21A0603846FFF753FDC4F80A000C3457
:10981C0006F11107224606F1350157F8043B8F4239
:10982C0042F8043BF9D1388810803EE00022B7188A
:10983C007879A0540132042AF9D106F109070023E2
:10984C00F95CE0180133042B0171F9D106F10D0715
:10985C000020395C2218013004281172F9D106F16C
:10986C0011070023F95CE2180133042B1173F9D1B1
:10987C0006F115000022875CA1180132042A0F742E
:10988C00F9D106F119000023C75CE1180133062B4E
:10989C000F75F9D106F11F000021475C62180131E8
:1098AC0020299776F9D100E05446044B188882B2EF
:1098BC00954225D10021198022E000BFC42100204F
:1098CC0030460321B778FFF7F3FC8246B8F1000F5E
:1098DC000CD00421701DFFF7F2FC0346C9F8000000
:1098EC0006F115014046DAB201F028FC7A1DB118D8
:1098FC002046C7EB0A0201F021FC0F490020C88664
:10990C000D4F00237B80FDF763FE3078042805D1D2
:10991C00B5F5805F02D13046FFF7DEFC3A8891B294
:10992C0000297FF451AE044BD88E80B200287FF40E
:10993C004BAEBDE8F08700BFC421002007284FF0D4
:10994C00010308D803FA00F004490A6810420CBF5E
:10995C000020012070471846704700BFBC01002052
:10996C00034B1880084600210A46FFF727BE00BFAC
:10997C00C421002010B5034B0124DC86BDE8104047
:10998C00FFF71CBEC421002038B503461546012242
:10999C004A710C46881D1946FFF785FC291D057078
:1099AC002046FDF7C5FE002038BD38B5BDF8145073
:1099BC000C469B18A071E81885B202216171E27106
:1099CC00294604F10800FFF76EFC6A1D204691B28F
:1099DC00FDF7AEFE002038BD38B59B180C469DB285
:1099EC0002216171A071E271294604F10800FFF7B0
:1099FC005AFC6A1D204691B2BDE83840FDF798BE6E
:109A0C002DE9F0471D4605F1020A032301F1070970
:109A1C001FFA8AFA88714B710C4648465146174614
:109A2C00FFF741FCB5F57A7F804613D82946FFF73E
:109A3C003AFC29464046FFF736FC394604F10B0048
:109A4C002A4601F07BFBA91D204689B2BDE8F047F0
:109A5C00FDF76EBE4FF47A76B5FBF6F10AEB4102D8
:109A6C0091B2FFF720FC31464046FFF71CFC39460B
:109A7C0004F10B00324601F061FBA5F57A75204626
:109A8C0040F2EE31ADB2BF19FDF752FEB5F57A7F5B
:109A9C0005D9A5F57A7085B24FF47A7601E02E4699
:109AAC000025A046394628F8056F4846324601F095
:109ABC0045FBB31C404699B2BF19FDF739FE002D8A
:109ACC00E4D1BDE8F0870000F7B51A4C1E46A46837
:109ADC00FF238DF807300025475D63190135042DF0
:109AEC005F72F9D100200D5C2318013004285D73DE
:109AFC00F9D10021505C6318013104295874F9D153
:109B0C0004F115000021FFF7C5FB0022B35C835460
:109B1C000132042AFAD12146142242F20100FFF745
:109B2C0033FF42F201000DF10701FFF719FF9DF918
:109B3C000700FEBDC42100202DE9F34106460C466A
:109B4C001E4831681546D0F808804A1E1F46FF2370
:109B5C00122A8DF8073008F1090001D8142333605C
:109B6C0021684A1E122A01D81423236029684A1E30
:109B7C00122A01D814232B6039684A1E122A01D8E4
:109B8C0014233B603168FFF785FB2168FFF782FBEC
:109B9C002968FFF77FFB3968FFF77CFB41461422ED
:109BAC0042F20900FFF7F0FE42F209000DF1070145
:109BBC00FFF7D6FE9DF90700BDE8FC81C42100200B
:109BCC002DE9F341864614480D46866871461F46BA
:109BDC0002ACFF2306F1090004F8013D9046FFF7A3
:109BEC0059FB2946FFF756FB40F201254146FFF78A
:109BFC0051FB0C2231462846FFF7C6FE284621466B
:109C0C00FFF7AEFE002138460A46FFF7B3FE9DF87B
:109C1C000700BDE8FC8100BFC42100202DE9F34101
:109C2C00864616480C4686687146984602AD4FF03B
:109C3C00FF3306F10A0045F8043D1746FFF72AFBEF
:109C4C000C21FFF727FB2146FFF724FB3946FFF7D2
:109C5C0021FB4146224606F11A0001F06FFA9020D2
:109C6C0031461022A3B2FFF7B7FE40F2022029467C
:109C7C00FFF776FE0198BDE8FC8100BFC4210020EF
:109C8C0037B50B4B40F2072504469968002228464D
:109C9C00FFF77AFE28466946FFF762FE9DF803003F
:109CAC009DF80410207061709DF800003EBD00BF4F
:109CBC00C421002037B50D4A034695680C4605F1C2
:109CCC0009001946FFF7E6FA214640F20324FFF794
:109CDC00E1FA294608222046FFF756FE20460DF1F0
:109CEC000601FFF73DFEBDF806003EBDC421002075
:109CFC002DE9F0430023CA5CC2540133102BFAD176
:109D0C000022334B467B991891F8018004789F19F7
:109D1C00F97A88EA0405847B85EA01081D194178E3
:109D2C00EF7A90F80CC04F40C17B80F810805D1822
:109D3C0095F80B908578634489EA050593F80B90A8
:109D4C00C378477489EA030390F80490FFB288EA59
:109D5C00090890F80590857487EA090790F8069031
:109D6C00EDB285EA090590F80790C374DBB283EA7B
:109D7C00090390F8089080F814805FFA88F888EA54
:109D8C00090890F809904775FFB287EA090790F81F
:109D9C000A908575EDB285EA090590F80B90C375AC
:109DAC00DBB283EA090388EA0C0C7E406C40594014
:109DBC00013280F8188047768576C37680F81CC00F
:109DCC0046778477C17710300A2A9AD1BDE8F083A0
:109DDC0061B8000810F0800F4FEA400018BF80F007
:109DEC001B00C0B2704700002DE9F04F037891F8CA
:109DFC00A0A004468AEA030A80F800A091F8A120EA
:109E0C004078A77882EA0005657091F8A260E07846
:109E1C0086EA0703A37091F8A32097B0059582EA10
:109E2C000005E57091F8A4902679069389EA060955
:109E3C0084F8049091F8A5706379079587EA03027A
:109E4C00627191F8A600A579E37980EA0506A671FE
:109E5C0091F8A7700C9287EA030B84F807B0227A6A
:109E6C0091F8A880607A88EA020884F8088091F852
:109E7C00A97008964740677291F8AA50A67AE07AC2
:109E8C0085EA0603A37291F8AB20267B82EA0005D3
:109E9C00E57291F8ACC009938CEA060C84F80CC0FE
:109EAC0091F8ADE0637BA27B8EEA030E84F80DE0A3
:109EBC000D9591F8AE50E07B5540A57391F8AF200D
:109ECC004B4B4240E2739A4491F890009AF80B6124
:109EDC0099444640267091F8940099F80BA1984447
:109EEC008AEA0006267191F8980098F80B919C4428
:109EFC0089EA000626729CF80BA191F89C009E44FE
:109F0C008AEA00062673DF199EF80B8197F80BC1BD
:109F1C0091F8910091F89D6088EA00098CEA06009E
:109F2C0060730C9FDDF814A0DE1996F80B0191F804
:109F3C009970DDF8208080EA0706667203EB0A0050
:109F4C0091F8956090F80B7184F8019087EA0600FF
:109F5C00607103EB0800DDF818E090F80B9109989C
:109F6C0003EB0E0703EB000E9EF80BC191F8920069
:109F7C0091F89A6097F80B718CEA000A77405D199A
:109F8C0091F89E6084F802A091F8960095F80B81E8
:109F9C00A772079F88EA000589EA0606A673A571D1
:109FAC00DE1996F80B0191F89F5003EB0B0791F813
:109FBC009360454097F80B019A1880EA06070D98B4
:109FCC00E7701E1896F80B7191F897004FF0090B7B
:109FDC0087EA0006E67191F89B3092F80B71E573F5
:109FEC0087EA0300E0720D46CDF840B002E000BFF6
:109FFC0061B8000894F80090A77887EA0900FFF789
:10A00C00E9FEFFF7E7FE94F80180E678824686EADF
:10A01C000800FFF7DFFEFFF7DDFE8AEA070380EAA0
:10A02C00080227797040A6798AEA09015FFA80F85C
:10A03C0086EA07005FFA82FB5FFA83FA5FFA81F91E
:10A04C0003970296FFF7C6FEFFF7C4FEE679677921
:10A05C00014686EA07000491FFF7BCFEFFF7BAFE43
:10A06C00039B049A94F808C082EA0301CBB20299CC
:10A07C0047404A40A17A7040C6B2059381EA0C0071
:10A08C00D3B20291CDF804C006930796FFF7A2FE57
:10A09C00FFF7A0FE637AE67A024686EA0300039392
:10A0AC000492FFF797FEFFF795FE049ADDF804C0C3
:10A0BC00039B82EA0C015FFA81FC80EA0301CBB2BC
:10A0CC00029909934A40D3B2CDF820C00A9394F870
:10A0DC000CC0A17B7040C6B281EA0C000291CDF895
:10A0EC0004C00B96FFF776FEFFF774FE637BE67BEE
:10A0FC00024686EA030003930492FFF76BFEFFF718
:10A10C0069FEDDF804C0049A039B82EA0C015FFA35
:10A11C0081FC80EA0301CBB2029970404A40C6B27E
:10A12C0088EA0A018BEA09000D93D3B20E930291CF
:10A13C00CDF830C00F9681EA0006FFF74BFE89EA96
:10A14C00000286EA020C5FFA8CFC8AEA0B0084F8A7
:10A15C0000C0CDF804C0FFF73DFE8BEA000386EA91
:10A16C00030B02995FFA8BFC84F801C00846CDF80A
:10A17C0044C0FFF72FFE8AEA000286EA020A5FFA61
:10A18C008AFB88EA090084F802B0CDF848B0FFF7E2
:10A19C0021FE88EA0000DDF818900599079A4640E0
:10A1AC00FFB2F6B282EA090887EA0100E67013965C
:10A1BC0088EA0006FFF70EFE059B584086EA000170
:10A1CC00CAB24846227178401492FFF703FE47400A
:10A1DC0086EA0703D8B2159060714046FFF7FAFD86
:10A1EC0089EA0001059B86EA01020798D7B258401C
:10A1FC00A7710697FFF7EEFD0799089A484046406D
:10A20C00F6B20A9F0596E67109980B9E50407E4067
:10A21C0086EA0007FFF7DEFDDDF820A08AEA0003DE
:10A22C0087EA030C5FFA8CF884F8088009990A987D
:10A23C004840FFF7CFFD099A504087EA000B5FFAC0
:10A24C008BF9304684F80990FFF7C4FD0A9E5246FC
:10A25C0086EA000387EA03010B985FFA81FB504002
:10A26C0084F80AB0FFF7B6FDDDF82CA00E998AEA47
:10A27C0000000C9E47400F9B0D98FFB24B40704066
:10A28C00E77283EA000A0293FFF7A4FD0C9A0D9B78
:10A29C0050408AEA00060E98F6B226735840FFF733
:10A2AC0099FD0D99029B81EA00028AEA0200C1B273
:10A2BC00617318460391FFF78DFD0E9A0C9B50406D
:10A2CC008AEA00010F98CAB2A27358400492FFF7B1
:10A2DC0081FD0F99514B48408AEA000C5FFA8CFAC9
:10A2EC00DDF804C084F80FA003EB0C0295F8800095
:10A2FC0092F80B11DDF850C081EA0002227003EBDA
:10A30C000C0195F8840091F80B219E1982EA00014A
:10A31C0003EB0802217195F8880092F80BC196F8AE
:10A32C000B218CEA0001217295F88C00039E82EAC5
:10A33C00000121739A1995F8811092F80B0103EB27
:10A34C00090680EA010295F88D0096F80B11DDF8EC
:10A35C0044C081EA000615996673581890F80B6191
:10A36C0095F88910DF1986EA0100607203EB0C0680
:10A37C0095F8850096F80B116270129A81EA000626
:10A38C0066719918DDF818C095F88A6091F80B0180
:10A39C0003EB0C0295F88E10704092F80B6103EBF6
:10A3AC000B02714092F80BC195F882608CEA0602A0
:10A3BC00049EA2709A1992F80B6195F8862056406B
:10A3CC00A671A0721398A173191895F88F2091F8A3
:10A3DC000B61DDF814C0724003EB0C0695F883108A
:10A3EC0096F80B0153444840E07095F8871097F8A5
:10A3FC000B014840E07195F88B0093F80B11E27358
:10A40C00109A81EA0003511E103D11F0FF00E37217
:10A41C0010907FF4EFAD17B0BDE8F08F61B8000875
:10A42C0038B5054C05462046FFF762FC2846214608
:10A43C00BDE83840FFF7D8BCCE20002003461021E1
:10A44C000C200022FFF7BCBB034610210C2000227D
:10A45C00FFF7E4BB38B505460E4CE36A4BB100F090
:10A46C0067FEE36A03600020E06200F061FE0068B2
:10A47C0038BD2846FFF762FA40B9228E91B2002906
:10A48C00EAD0238E5A1E91B2218638BD4FF0FF3090
:10A49C0038BD00BFC4210020F7B5034614480D4653
:10A4AC0086681946174602AC4FF0FF3206F10900D8
:10A4BC0044F8042DFEF7EEFE2946FEF7EBFE41F2C2
:10A4CC0001053946FEF7E6FE0C2231462846FFF719
:10A4DC005BFA21462846FFF743FA00F029FE019962
:10A4EC00016008460021FEF731FF0198FEBD00BF58
:10A4FC00C4210020F7B5054610484FF0FF3387689C
:10A50C0002AC294641F20B0607F1090044F8043D60
:10A51C00FEF7C0FE042239463046FFF735FA2146D5
:10A52C003046FFF71DFA00F003FE01990160284642
:10A53C000121FEF70BFF0198FEBD00BFC4210020D6
:10A54C0037B5034613484FF0FF3284680D4604F1CB
:10A55C00090019460192FEF79DFE0821FEF79AFEAE
:10A56C000821FEF797FE0023E95CC1540133082B48
:10A57C00FAD11422214641F20700FFF705FA01A98E
:10A58C0041F20700FFF7ECF900F0D2FD019A0260EE
:10A59C0010463EBDC42100202DE9FF411D46314B24
:10A5AC008646D3F808800F4608F109007146164616
:10A5BC000A9CFEF76FFE1421FEF76CFE1421FEF7C9
:10A5CC0069FE1421FEF766FE1421FEF763FED4F13A
:10A5DC00010138BF0021FEF75DFE0FB1396800E0C4
:10A5EC003946FEF757FE0EB1316800E03146FEF7F2
:10A5FC0051FE0DB1296800E02946FEF74BFE74B1FF
:10A60C00216839B9636841F287329342DCBF41F269
:10A61C0088336360FEF73EFE6168FEF73BFE2C223A
:10A62C00414641F20800FFF7AFF941F208006946D4
:10A63C00FFF796F9009B002B09DB0FB101983860EE
:10A64C000EB1029A326045B10399296005E000F021
:10A65C006FFD00994FF0FF330160184604B0BDE860
:10A66C00F08100BFC42100202DE9FF419846154B15
:10A67C0007469D6814460E4605F109003946FEF75B
:10A68C0009FE2146FEF706FE4146FEF703FEBDF825
:10A69C0030400C2229462046FFF776F9204601A9C6
:10A6AC00FFF75EF90298002804DD30460A990B9AF0
:10A6BC00FFF760F900F03CFD02990160084604B018
:10A6CC00BDE8F081C42100201FB500240094019442
:10A6DC0041F204040294FFF7C7FF04B010BD000060
:10A6EC002DE9F04F89B0039114469B46139E149D9F
:10A6FC000290FFF7AFFEDDF808C0002857D12D4BB4
:10A70C009A6B511C9963D3F80890812D09F10A03B7
:10A71C0007D0832D0AD104F1080A09F12208182761
:10A72C0004E009F11A0810270646129061461846F3
:10A73C00FEF7B0FD391FFEF7ADFD2146FEF7AAFD71
:10A74C005946FEF7A7FD832D05D15146FEF7A2FD14
:10A75C000821FEF79FFD0022A24205DA0398815CD6
:10A76C0008F802100132F7E7002CA8BFA044832D93
:10A77C000ED0129AB6B200920196E8B249463A4609
:10A78C00A3B2FFF712F9832D0BD141F20F000AE0AF
:10A79C000020B042EDDA12990B5C08F80030013061
:10A7AC00F7E741F2030005A9FFF7DAF8204609B0F4
:10A7BC00BDE8F08FC42100201FB500240094019443
:10A7CC0081240294FFF78CFF04B010BD202A73B5CE
:10A7DC0003460E46144622D8124A1946956805F1CE
:10A7EC000900FEF757FD0821FEF754FD2146FEF740
:10A7FC0051FD0022A24203DAB15C81540132F9E727
:10A80C0004F10C032946DAB241F21100FFF7BCF84F
:10A81C0041F2110001A9FFF7A3F8019801E04FF0F4
:10A82C00FF307CBDC4210020024B01225A805860AD
:10A83C00FEF7ACBEC421002010B5084CE1602261CB
:10A84C006361029B0399E361049A059B2162626236
:10A85C00A362A061012084F8400010BDC421002037
:10A86C0070B5224C054622480023A363E363238082
:10A87C0023866386A386E386E36263806360A060BD
:10A88C001C48FCF783FEE1698847A26A0646012052
:10A89C0090470EB3E16988470028FBD1134C002D7B
:10A8AC0014BF02250025A16801224D724FF480408F
:10A8BC00FFF76AF800214FF48040FFF751F8A168C8
:10A8CC00002244F20B00FFF75FF844F20B0000216A
:10A8DC00BDE87040FFF744B8E36998470028FBD007
:10A8EC00E06980470028FBD1D8E700BFC4210020D5
:10A8FC007818002035A8000838B5094C0020A36A48
:10A90C0098472546E869064C80470028FAD0A1688C
:10A91C0009B10022A260BDE83840FCF74BBE00BF75
:10A92C00C42100202DE9F04F83462F4885B0D0F884
:10A93C000890144600259A4688464FF0FF331C2198
:10A94C0009F1090001930F9E0E9F0295ADF80C5072
:10A95C00FEF7A0FC2146FEF79DFC5946FEF79AFC3B
:10A96C0004F11001FEF796FC3146FEF793FC2946E4
:10A97C00FEF799FCBAF1000F08D01AF805204255E1
:10A98C000135062DF9D10630002207E0534602AA04
:10A99C00995CC1540133062BF9D1F4E7A24204DAD5
:10A9AC0018F8021081540132F8E7002CA8BF0019E6
:10A9BC003EB100232FB1B34203DAFA5CC254013327
:10A9CC00F9E71C34A319DAB249460120FEF7DCFF83
:10A9DC0001A90120FEF7C4FF00F0AAFB0199016058
:10A9EC00084605B0BDE8F08FC4210020F7B503463A
:10A9FC000F480E4685681946174602AC4FF0FF32D9
:10AA0C0005F1090044F8042DFEF744FC3146FEF72D
:10AA1C0041FC3946FEF73EFC29460C220420FEF789
:10AA2C00B3FF04202146FEF79BFF0198FEBD00BF3B
:10AA3C00C42100202DE9F04F8346714885B0D0F831
:10AA4C0008900D4614465946002209F109009A4611
:10AA5C000E9F0F9E0292ADF80C20FEF71BFCBBF173
:10AA6C00030F00F2BE80DFE80BF0022F7676142184
:10AA7C00FEF710FC2146FEF70DFC0021FEF713FC3F
:10AA8C00BAF1000F07D000221AF8021081540132DB
:10AA9C00062AF9D106E0534602A95A5CC254013386
:10AAAC00062BF9D106303946FEF7F4FB4FF00008BF
:10AABC00A04506D015F8083000F8083008F1010858
:10AACC00F6E708F118008AE02021FEF7E3FB2146A7
