:020000040800F2
:1050000000500020158E0008918400089584000847
:10501000B9840008DD840008018500080000000054
:1050200000000000000000000000000025850008CE
:105030002785000800000000298500082B8500084E
:10504000658E0008658E0008658E00084D87000893
:10505000658E0008658E000889850008A98500080E
:10506000C9850008FD8500081D860008658E0008BA
:10507000658E0008658E0008658E0008A987000807
:10508000658E0008658E000839850008658E000869
:10509000AD870008658E0008658E00083D86000813
:1050A000658E0008658E0008658E0008058700087B
:1050B000658E0008658E0008658E00085985000819
:1050C00069850008658E0008658E000879850008EE
:1050D000658E0008658E000849850008658E000809
:1050E0008D86000869870008658E000800000000B2
:1050F00000000000000000000000000000000000B0
:0C51000000000000000000005FF808F153
:1051100081F0004102E000BF83F0004330B54FEA68
:1051200041044FEA430594EA050F08BF90EA020FD5
:105130001FBF54EA000C55EA020C7FEA645C7FEA68
:10514000655C00F0E2804FEA5454D4EB5555B8BF8B
:105150006D420CDD2C4480EA020281EA030382EAFC
:10516000000083EA010180EA020281EA0303362D8E
:1051700088BF30BD11F0004F4FEA01314FF4801C61
:105180004CEA113102D0404261EB410113F0004F73
:105190004FEA03334CEA133302D0524263EB43032A
:1051A00094EA050F00F0A780A4F10104D5F1200EC8
:1051B0000DDB02FA0EFC22FA05F2801841F1000123
:1051C00003FA0EF2801843FA05F359410EE0A5F1F7
:1051D00020050EF1200E012A03FA0EFC28BF4CF028
:1051E000020C43FA05F3C01851EBE37101F00045DE
:1051F00007D54FF0000EDCF1000C7EEB00006EEBEB
:105200000101B1F5801F1BD3B1F5001F0CD3490874
:105210005FEA30004FEA3C0C04F101044FEA4452CB
:1052200012F5800F80F09A80BCF1004F08BF5FEA52
:10523000500C50F1000041EB045141EA050130BD32
:105240005FEA4C0C404141EB010111F4801FA4F1D5
:105250000104E9D191F0000F04BF01460020B1FA2A
:1052600081F308BF2033A3F10B03B3F120020CDA62
:105270000C3208DD02F1140CC2F10C0201FA0CF040
:1052800021FA02F10CE002F11402D8BFC2F1200CA5
:1052900001FA02F120FA0CFCDCBF41EA0C0190405B
:1052A000E41AA2BF01EB0451294330BD6FEA0404A4
:1052B0001F3C1CDA0C340EDC04F11404C4F120028F
:1052C00020FA04F001FA02F340EA030021FA04F3A1
:1052D00045EA030130BDC4F10C04C4F1200220FAF8
:1052E00002F001FA04F340EA0300294630BD21FA36
:1052F00004F0294630BD94F0000F83F4801306BFFC
:1053000081F480110134013D4EE77FEA645C18BFEF
:105310007FEA655C29D094EA050F08BF90EA020F86
:1053200005D054EA000C04BF1946104630BD91EA7E
:10533000030F1EBF0021002030BD5FEA545C05D181
:105340004000494128BF41F0004130BD14F58004C0
:105350003CBF01F5801130BD01F0004545F0FE4134
:1053600041F470014FF0000030BD7FEA645C1ABF69
:10537000194610467FEA655C1CBF0B46024650EAA0
:10538000013406BF52EA033591EA030F41F40021CC
:1053900030BD00BF90F0000F04BF0021704730B552
:1053A0004FF4806404F132044FF000054FF0000127
:1053B00050E700BF90F0000F04BF0021704730B5E8
:1053C0004FF4806404F1320410F0004548BF4042BD
:1053D0004FF000013EE700BF42004FEAE2014FEA12
:1053E00031014FEA02701FBF12F07F4393F07F4FED
:1053F00081F06051704792F0000F14BF93F07F4F1F
:10540000704730B54FF4607401F0004521F0004161
:1054100020E700BF50EA010208BF704730B54FF0E7
:1054200000050AE050EA010208BF704730B511F0EC
:10543000004502D5404261EB41014FF4806404F124
:1054400032045FEA915C3FF4DCAE4FF003025FEAA6
:10545000DC0C18BF03325FEADC0C18BF033202EB2E
:10546000DC02C2F1200300FA03FC20FA02F001FA88
:1054700003FE40EA0E0021FA02F11444C1E600BF27
:1054800070B54FF0FF0C4CF4E06C1CEA11541DBFDA
:105490001CEA135594EA0C0F95EA0C0F00F0DEF8A5
:1054A0002C4481EA030621EA4C5123EA4C5350EA8A
:1054B000013518BF52EA033541F4801143F48013DB
:1054C00038D0A0FB02CE4FF00005E1FB02E506F06C
:1054D0000042E0FB03E54FF00006E1FB03569CF0C1
:1054E000000F18BF4EF0010EA4F1FF04B6F5007FC7
:1054F00064F5407404D25FEA4E0E6D4146EB060639
:1055000042EAC62141EA55514FEAC52040EA5E50C1
:105510004FEACE2EB4F1FD0C88BFBCF5E06F1ED86B
:10552000BEF1004F08BF5FEA500E50F1000041EBA2
:10553000045170BD06F0004646EA010140EA02004F
:1055400081EA0301B4EB5C04C2BFD4EB0C0541EA71
:10555000045170BD41F480114FF0000E013C00F386
:10556000AB8014F1360FDEBF002001F0004170BDAA
:10557000C4F10004203C35DA0C341BDC04F11404C3
:10558000C4F1200500FA05F320FA04F001FA05F24F
:1055900040EA020001F0004221F0004110EBD3701C
:1055A00021FA04F642EB06015EEA430E08BF20EA48
:1055B000D37070BDC4F10C04C4F1200500FA04F3EB
:1055C00020FA05F001FA04F240EA020001F000417D
:1055D00010EBD37041F100015EEA430E08BF20EAF0
:1055E000D37070BDC4F1200500FA05F24EEA020E38
:1055F00020FA04F301FA05F243EA020321FA04F067
:1056000001F0004121FA04F220EA020000EBD3701D
:105610005EEA430E08BF20EAD37070BD94F0000F1D
:105620000FD101F00046400041EB010111F4801F51
:1056300008BF013CF7D041EA060195F0000F18BF02
:10564000704703F00046520043EB030313F4801F3E
:1056500008BF013DF7D043EA0603704794EA0C0FF8
:105660000CEA135518BF95EA0C0F0CD050EA41060E
:1056700018BF52EA4306D1D181EA030101F000418B
:105680004FF0000070BD50EA410606BF10461946B3
:1056900052EA430619D094EA0C0F02D150EA0136BF
:1056A00013D195EA0C0F05D152EA03361CBF104600
:1056B00019460AD181EA030101F0004141F0FE419F
:1056C00041F470014FF0000070BD41F0FE4141F423
:1056D000780170BD70B54FF0FF0C4CF4E06C1CEA23
:1056E00011541DBF1CEA135594EA0C0F95EA0C0FD8
:1056F00000F0A7F8A4EB050481EA030E52EA033593
:105700004FEA013100F088804FEA03334FF08055B3
:1057100045EA131343EA12634FEA022245EA1115E0
:1057200045EA10654FEA00260EF000419D4208BF91
:10573000964244F1FD0404F5407402D25B084FEA3E
:105740003202B61A65EB03055B084FEA32024FF4EA
:1057500080104FF4002CB6EB020E75EB030E22BF47
:10576000B61A754640EA0C005B084FEA3202B6EB07
:10577000020E75EB030E22BFB61A754640EA5C00B6
:105780005B084FEA3202B6EB020E75EB030E22BF46
:10579000B61A754640EA9C005B084FEA3202B6EB47
:1057A000020E75EB030E22BFB61A754640EADC0006
:1057B00055EA060E18D04FEA051545EA16754FEA68
:1057C00006164FEAC30343EA52734FEAC2025FEA86
:1057D0001C1CC0D111F4801F0BD141EA00014FF015
:1057E00000004FF0004CB6E711F4801F04BF0143E6
:1057F0000020B4F1FD0C88BFBCF5E06F3FF6AFAE02
:10580000B5EB030C04BFB6EB020C5FEA500C50F191
:10581000000041EB045170BD0EF0004E4EEA113114
:1058200014EB5C04C2BFD4EB0C0541EA045170BD1B
:1058300041F480114FF0000E013C90E645EA060E5F
:105840008DE60CEA135594EA0C0F08BF95EA0C0F8D
:105850003FF43BAF94EA0C0F0AD150EA01347FF4D5
:1058600034AF95EA0C0F7FF425AF104619462CE7AC
:1058700095EA0C0F06D152EA03353FF4FDAE10460F
:10588000194622E750EA410618BF52EA43067FF460
:10589000C5AE50EA41047FF40DAF52EA43057FF4F0
:1058A000EBAE12E74FF0FF3C06E000BF4FF0010CFB
:1058B00002E000BF4FF0010C4DF804CD4FEA410C5F
:1058C0007FEA6C5C4FEA430C18BF7FEA6C5C1BD02C
:1058D00001B050EA410C0CBF52EA430C91EA030FAD
:1058E00002BF90EA020F0020704710F1000F91EA0A
:1058F000030F58BF994208BF90422CBFD8176FEAD8
:10590000E37040F0010070474FEA410C7FEA6C5CA5
:1059100002D150EA013C07D14FEA430C7FEA6C5CAC
:10592000D6D152EA033CD3D05DF8040B704700BFD8
:105930008446104662468C461946634600E000BF26
:1059400001B5FFF7B7FF002848BF10F1000F01BDF8
:105950004DF808EDFFF7F4FF0CBF012000205DF8C3
:1059600008FB00BF4DF808EDFFF7EAFF34BF012048
:1059700000205DF808FB00BF4DF808EDFFF7E0FFE1
:1059800094BF012000205DF808FB00BF4DF808ED32
:10599000FFF7CEFF94BF012000205DF808FB00BF99
:1059A0004DF808EDFFF7C4FF34BF012000205DF87B
:1059B00008FB00BF4FEA410212F5001215D211D5C3
:1059C0006FF47873B3EB625212D94FEAC12343F0FC
:1059D000004343EA505311F0004F23FA02F018BF7E
:1059E000404270474FF00000704750EA013005D147
:1059F00011F0004008BF6FF0004070474FF000000A
:105A0000704700BF4BB942B9002908BF002802D037
:105A10004FF0FF31084600F03BB882B0EC462DE96C
:105A2000005000F01DF8DDF804E002B00CBC704737
:105A30002DE9F0411646984604460D4600F02AF836
:105A400006FB01FCA6FB002300FB08C7FB18A21AFB
:105A500065EB0303069CC4E90023BDE8F08100BFA9
:105A60002DE9F041904606460F461D4600F070F9BC
:105A700000FB05F3A0FB084508FB0138069B4544E5
:105A8000341B67EB0505C3E90045BDE8F08100BFA5
:105A9000704700BF00292DE9F00F1D46C0F29D8020
:105AA0000024002DC0F2948080460F4694461E4686
:105AB000E3BB8A4255D9B2FA82F747B1C7F1200554
:105AC00020FA05F601FA07F1BA40B8403143170C45
:105AD000B1FBF7F61FFA82FC07FB16110CFB06F56B
:105AE000030C43EA01439D4208D9711E9B1880F0C4
:105AF00013819D4240F21081023E9B18591BB1FB5D
:105B0000F7F507FB15130CFB05FC80B240EA0341D7
:105B10008C4507D96B1E8A1880F00081944540F2AD
:105B2000FD80023D45EA0641002503E08B420CD989
:105B3000002529460A462B4614B1524263EB430323
:105B400010461946BDE8F00F7047B3FA83F5002DF3
:105B500040F087808B4201D38242EAD800250121A0
:105B6000E8E712B90126B6FBF2F2B2FA82F6002E8D
:105B700039D18E1A130C1FFA82FC0125B6FBF3F7FC
:105B800003FB17610CFB07F84FEA104949EA01468D
:105B9000B04506D9791EB61802D2B04500F2D380BE
:105BA0000F46C8EB0606B6FBF3F103FB11630CFBD3
:105BB00001FC80B240EA03439C4506D94E1E9A1868
:105BC00002D2944500F2C280314641EA0741B1E772
:105BD000E443524263EB430366E7404261EB410119
:105BE0004FF0FF345DE7B240C6F1200921FA09F712
:105BF00020FA09F901FA06F1130CB7FBF3F81FFAC2
:105C000082FC03FB18770CFB08F549EA01094FEA0F
:105C1000194141EA0747B040BD420AD9BF1808F10F
:105C2000FF3680F08E80BD4240F28B80A8F10208E2
:105C3000BF18791BB1FBF3F503FB15170CFB05F639
:105C40001FFA89F949EA07418E4206D96F1E891861
:105C500071D28E426FD9023D89188E1B45EA0845E4
:105C60008CE7C5F1200122FA01F306FA05F627FABE
:105C700001F207FA05F720FA01F11E434FEA16492F
:105C8000B2FBF9F81FFA86FA09FB18220AFB08FB97
:105C90000F433B0C43EA024293450CFA05FC08D93A
:105CA000921908F1FF314AD2934548D9A8F1020868
:105CB0009219CBEB0203B3FBF9F109FB11320AFB9A
:105CC00001FABFB247EA02439A4506D94A1E9B1918
:105CD00033D29A4531D902399B1941EA08410F0C58
:105CE0001FFA8CF808FB07F68AB24FEA1C4C08FB37
:105CF00002F80CFB02620CFB07FC02EB1842964216
:105D000088BF0CF5803CCAEB03030CEB124C6345D7
:105D10000ED305D000250DE70E46EFE61D4601E740
:105D200000FA05F01FFA88F808EB0245A842F1D204
:105D300001390025FEE63D468FE71146CDE788464E
:105D4000B7E7B04675E7023FB6182AE702393CE7E5
:105D50002DE9F007144605460E46002B3DD18A4238
:105D600049D9B2FA82F747B1C7F1200120FA01F20E
:105D700006FA07F6BC40BD401643220CB6FBF2F013
:105D8000A1B202FB106601FB00F32F0C47EA0646A6
:105D9000B34208D9471E361980F0FA80B34240F268
:105DA000F78002383619F61AB6FBF2F302FB1362DB
:105DB00001FB03F1ADB245EA0242914207D95E1EF2
:105DC000121980F0E780914240F2E480023B43EAFE
:105DD00000400021BDE8F00770478B4243D8B3FA7A
:105DE00083F4002C42D18B4202D3824200F2E18044
:105DF00000210120EEE712B90127B7FBF2F4B4FA53
:105E000084F2002A40F089800A1B230CA7B20121EA
:105E1000B2FBF3F603FB162207FB06F04FEA154C24
:105E20004CEA0242904207D9121906F1FF3C02D215
:105E3000904200F2D0806646121AB2FBF3F003FBE8
:105E4000102307FB00F7ADB245EA03439F4207D991
:105E5000421E1B1980F0A0809F4240F29D800238B4
:105E600040EA0640B6E700210846B3E7C4F1200641
:105E700022FA06F703FA04F321FA06F501FA04F10F
:105E800020FA06F63B434FEA134CB5FBFCF71FFA2A
:105E900083F80CFB175508FB07F946EA010A4FEA9D
:105EA0001A4141EA0545A94502FA04F204D97E1EC9
:105EB000ED18C0F081803746C9EB0501B1FBFCF657
:105EC0000CFB161508FB06F81FFA8AFA4AEA054188
:105ED000884503D9751EC91874D32E4646EA07466D
:105EE000370C1FFA82FC0CFB07F5120CB3B20CFB4B
:105EF00003FC02FB035302FB07F203EB1C439D422E
:105F000088BF02F58032C8EB010102EB13429142D7
:105F10004CD343D0304600215CE79440C2F12005C9
:105F200021FA05F620FA05F501FA02F1230CB6FB79
:105F3000F3FCA7B203FB1C6607FB0CF829430D0C0E
:105F400045EA0646B04500FA02F508D936190CF1C3
:105F5000FF303ED2B0453CD9ACF1020C3619C8EB4B
:105F60000602B2FBF3F003FB102607FB00F889B230
:105F700041EA0642904506D9461E121927D290459D
:105F800025D902381219C8EB020240EA0C413FE75A
:105F9000384608E733461AE7104661E700FA04F08E
:105FA0001FFA8CFC0CEB03439842B3D2701E002105
:105FB00010E7214620460DE7A9457FF67CAF023F5A
:105FC000ED1879E7884588D9023EC91886E730463A
:105FD000D9E78446C3E7023E12192DE7014B03605F
:105FE000704700BFD07B010870B5012188B004461E
:105FF00001F0ACFCA0F13005072D37D8032268462C
:10600000214601F0CBFC1C4904A801F025FC2046E8
:1060100004A901F089FC064604A801F0DBFB1EB1CF
:10602000ADB22846002110E0144904A801F014FC88
:10603000204604A901F078FC044604A801F0CAFB3C
:1060400074B10A35ADB22846314600F0EBFE684621
:1060500001F0ABFCC1B2284601F0FCF8012401E0DC
:106060006FF00104684601F0B5FB01E04FF0FF342A
:10607000204608B070BD00BFB0A60108B2A6010856
:106080007FB50121054601F061FCA0F13004072C29
:1060900023D81549684601F0DFFB2846694601F020
:1060A00043FC0646684601F095FB6EB90F49684609
:1060B00001F0D2FB2846694601F036FC05466846E9
:1060C00001F088FB65B10A34A4B22046012100F03A
:1060D000A9FE204601F03CF804E04FF0FF3001E05B
:1060E0006FF0010004B070BDB0A60108B2A60108AF
:1060F000F0B5012185B0044601F028FCA0F130067E
:10610000072E49D8684621460322072301F020FCC8
:106110006846264901F0DEFB0546684601F05AFB59
:106120007DB9684621460322062301F011FC68462A
:106130001F4901F0CFFB0746684601F04BFB0FB942
:106140002DE001251B49684601F086FB2046694683
:1061500001F0EAFB0746684601F03CFB1FB1B6B20E
:106160003046002110E01449684601F075FB2046D6
:10617000694601F0D9FB0446684601F02BFB8CB15F
:106180000A36B6B23046394600F04CFE3046294653
:1061900000F0CCFE012007E04FF0FF3004E06FF08C
:1061A000010001E06FF0020005B0F0BDB4A60108E7
:1061B000B9A60108B0A60108B2A601087FB5012161
:1061C000054601F0C3FBA0F13004072C23D8154984
:1061D000684601F041FB2846694601F0A5FB0646EA
:1061E000684601F0F7FA6EB90F49684601F034FBD2
:1061F0002846694601F098FB0546684601F0EAFA30
:1062000065B10A34A4B22046032100F00BFE2046FB
:1062100000F0D4FE04E04FF0FF3001E06FF0010029
:1062200004B070BDB0A60108B2A60108034B10B5BA
:106230000446036000F07CFA204610BDD07B0108C4
:1062400008B50948094900F075FB0948094900F0FB
:1062500071FB0948094900F06DFB09480949BDE88F
:10626000084000F067BB00BFBDA60108BD61000883
:10627000C9A60108F1600008D6A6010881600008DF
:10628000E1A60108E95F00087047000013B5084C5B
:10629000002100910A460B46204601F093F905497A
:1062A000054A204602B0BDE810400CF0F3B800BF2C
:1062B000500B0020DD5F0008B80C002010B5013144
:1062C000002393420ED0040F092C01D8303400E093
:1062D000373401F8014C01330024000101F8024B6E
:1062E000DBB2EEE710BD000010B54FF000604FF4D8
:1062F000A04106F06BF90124284B294821461C7067
:1063000006F02AFC05F02CFA04F004FF2146402098
:1063100006F0EAFC6FF07F4005F078F8E72005F022
:10632000F1F82048047004F03DFF7D2006F000FDE8
:1063300018B11D490C7006F00FFD40F6B83004F09E
:1063400099FF1A4C05F0D4FC05F010FF184801F035
:1063500087FE0122227001F019FF164B187818B938
:1063600015490A78002AF6D0144C2378002BF2D174
:106370000D4801780029EED10F4C2278012A01D076
:106380000F4B2BB90F490029E5D0FFF77DFFE2E75E
:10639000FFF756FF01202070F4E700BF141A002019
:1063A000000430007D190020D4230020981900201B
:1063B000AD6B00087B190020580B00207C190020D1
:1063C00041620008896200084D4B70B51A6812B12D
:1063D0001868411E19604B4C25782DB14A4C227823
:1063E000E2B14A4828BB19E0494C236813B123683D
:1063F000581E12E0474A107880B947490D786DB9A8
:10640000464B1A7852B9464E464D3078B0B1E72027
:1064100005F0F2F8297879B1142020603D4D2C78F0
:106420005CBB204605F0E6F940F6B73188421BD840
:1064300023E000F003FCF1E70120EEE7297849B101
:106440004FF6FF7004F0E2FF0125E72005F05AF84F
:106450003570E3E7E72005F083F8334B1A780AB18B
:106460003220DAE76420D8E7204605F0CBF92F493F
:106470000B787BB901222A700CE0002005F0BAF9F4
:1064800041F65733984205D9002005F0BBF928485A
:106490000122027025480178C1B91F4B1A78AAB1B0
:1064A000244847F22F53416899420CD9BFF34F8FCC
:1064B000214E2248F56805F4E06444EA0002F260E7
:1064C000BFF34F8FFEE74268511C41601C480368D0
:1064D000B3F57A7F0FD30023036006F09BFB042003
:1064E00006F034F94FF6FF71884208D00420BDE869
:1064F000704006F01DB90268511C016070BD70BD8E
:10650000DC230020F4190020EC0E00203D6C000874
:10651000D8230020781900207C1900207E19002043
:106520007D1900207B1900207A1900209119002084
:1065300082190020580B002000ED00E00400FA054D
:10654000E023002008B5094B186005F07BFB002014
:1065500005F0C0FB064804F001FE05F089FB05F0DC
:10656000A7FBBDE8084007F0DBBA00BFCC01002064
:10657000A0860100074B1868052808D106490A7A49
:10658000012A04D1887A0B7BC11AC8B27047002057
:10659000704700BF341A0020580B00200D4B10B577
:1065A0001868052813D10C4C217A01290FD1628972
:1065B000A389D01A012804D100210320217207F0F9
:1065C0001AFCA389E218591C907BA18110BD4FF0E1
:1065D000FF3010BD341A0020580B002008B50C4BBA
:1065E0001968052912D10B4B1A6D991881F85400BE
:1065F000501CB0F5807F08BF0020186505F0F2F947
:1066000020B16420BDE8084004F0A8BD08BD00BF6B
:10661000341A0020580B002070B5234A92F85431E8
:10662000012B3FD0D2F85801B0F5807F02D1002174
:10663000C2F85811D2F85831126D1B48934203D159
:10664000002180F8541170BD8CBFC3F58072C3EB7C
:106650000202154CC0F85C21D4F85C5199B2402D6F
:1066600007D94033403DC4F85831C4F85C51402646
:1066700006E0E8180023AEB2C4F85801C4F85C3153
:106680000A4A01255018C021324684F8545107F0B7
:1066900029FB2846314607F02FFC2846BDE870400C
:1066A00007F098BB70BD00BF580B0020AC0B00205A
:1066B000094B10B593E814000833186810180AD075
:1066C00008220649FFF7FAFD054920460422BDE8E5
:1066D0001040FFF7F3BD10BDE8F7FF1F7B0100205E
:1066E0008B01002038B50D460446AC4203D254F865
:1066F000043B9847F9E738BD08B507480749FFF755
:10670000F1FF07480749FFF7EDFF07480749BDE8D4
:106710000840FFF7E7BF00BF70AE010870AE010888
:1067200070AE0108B8AE0108B8AE0108B8AE0108F5
:106730000CF024B807B5064B052000936E21054ADE
:10674000002305F03DFE072005F08AFEFEE700BFAE
:10675000EDA60108507B010807B50B4A0B491368E9
:106760001818884210600CD9094A052000928B2124
:10677000084A002305F024FE082005F071FE0BF006
:10678000C3FE18460EBD00BF0000002000480020D8
:10679000F9A60108607B01084FF0FF307047012027
:1067A0007047FEE7014B1868704700BFBC0C002023
:1067B000064B0246582000FB013101F1080303CBD0
:1067C0001060516018689060704700BFBC0C0020DA
:1067D000014BD3F864017047BC0C0020064B024605
:1067E000142000FB013101F5B67303CB106051603A
:1067F00018689060704700BFBC0C00200E4B2DE95C
:10680000F041D3F8647180460024BC4211DA1425AB
:106810006543094E4146701900F5B6700C220DF023
:1068200019FA20B97519D5F86801BDE8F08101346D
:10683000EBE70020BDE8F081BC0C00202DE9F0471B
:1068400088B0814668460D4601F006F81E4B0024CC
:10685000D3F800A054452DDA55B3582666431A4F95
:10686000494607F1040808EB060004300C220DF03D
:10687000F1F9E8B928460DF0BDF906F110014028FC
:1068800034BF0246402208EB010029460CF012FBFF
:10689000BE19012286F85820694604A8746800F0E1
:1068A000FDFF04A8A047044604A800F093FF03E0FE
:1068B0000134CFE74FF0FF34684600F08BFF2046ED
:1068C00008B0BDE8F08700BFBC0C002038B5054615
:1068D000064C28B104F03CFE012384F8303238BD68
:1068E00004F0E4FD84F8305238BD00BFBC0C002039
:1068F000024B00221A6005F087BA00BF5C0B002033
:10690000034A044800231370036005F0BBBA00BFBC
:106910007C1900205C0B0020044B0549002001225B
:106920001A7008604FF4C02005F048BA7C190020A6
:106930005C0B00202DE9F84F04468946002941D020
:1069400000283FD0204B1D68042D3BD00027AF42CC
:106950001E4E4FF058080FDA08FB07F856F80810DB
:10696000494507D106EB0802101D21460C220DF007
:1069700071F938B30137EAE708FB05F8A6F1040A14
:106980000AEB080708F11000C7F804900021402224
:1069900030180CF015FC06EB0801081D0C22002134
:1069A0000CF00EFC2068616807F1080203C2A368BE
:1069B0000020013507F1040B87F8580013605437A5
:1069C00046F8045CBDE8F88FBC0C0020C00C002029
:1069D00010B5064C206802F0C1FE2368013303D0D5
:1069E000411E4842484110BD012010BD0400002056
:1069F000F0B5274B0646187887B00F46002843D1DC
:106A000024490A78002A3FD1FFF7E2FF0446002814
:106A10003AD1214D8DF80C002B688DF80D008DF8C2
:106A20000E008DF80F0006A9580901EB800203F053
:106A30001F01012000FA01F052F80C1C04940143DC
:106A400042F80C1C04A841F288320592009003A978
:106A5000581C2246234603F0FDFC002816DD2B6857
:106A600006A95D0901EB850050F80C5C03F01F02DC
:106A700045FA02F515F0010008D0184631463A46AD
:106A8000234603F087FD01E04FF0FF3007B0F0BD73
:106A900090190020911900200400002070B50B4BC4
:106AA000054618780C4670B909490A785AB9FFF7B3
:106AB0008FFF034638B90748294600682246BDE8DB
:106AC000704003F0E3BD4FF0FF3070BD901900201F
:106AD000911900200400002030B51E48ADF5797DE5
:106AE00007F07AFA002832D11B4B1C481C4D049346
:106AF0001C491D4A1D4B059009951D481D4D0691C9
:106B000007920A931C491D4A1D4B0B900E951D4878
:106B10001D4D1E4C0C910D921D491E4A0F931E4B8C
:106B20001090139515A85FAD1191129214930894CB
:106B300003900CAC029505F0B7F9284605F0BAF9B8
:106B400000940448154902AA04AB07F04CFA0DF56D
:106B5000797D30BDF00E00209D6A0008F1690008C3
:106B6000F16800081969000801690008CD6800088B
:106B7000CD7300083D680008A5670008B1670008EC
:106B8000D1670008DD670008C1BE0008E5BE000847
:106B9000D16D0008FD670008D5BE0008E8F7FF1FAB
:106BA000014808F030B800BFF00E002030B50220D8
:106BB00011228DB0014603F0CDFB051E28DB1549DF
:106BC00007A807F023FB022316200024ADF80C30A1
:106BD0008DF80E003321E0220123BB208DF81140F7
:106BE0008DF80F108DF810208DF812308DF81300ED
:106BF0000324102203A900910192002313222846A6
:106C000007A903F04DFD013CF3D1284603F0D0FB6A
:106C10000DB030BDE8F7FF1F10B5074CFFF75CFF64
:106C2000204607F0DCF9204607F038FD0446FFF760
:106C3000BDFF204610BD00BFF00E002038B5114C3E
:106C4000D4F8445A2DB1D4F8441A4B1EC4F8443A2F
:106C500038BDD4F8483A0C4A52F8230004F0FEFB41
:106C6000E72004F04FFC094A6420D4F8481AC4F81D
:106C7000440A50684B1C8342C4F8483AA8BFC4F881
:106C8000485A38BDBC0C0020747B01080400002069
:106C90007FB502200121062203F05CFB041E23DBEA
:106CA00000200822022335218DF802004FF4FA500B
:106CB000ADF800308DF803108DF804208DF8052014
:106CC0008DF806208DF8072001F0C2F969460646C6
:106CD0001022204603F092FB0546304601F0B8F939
:106CE000204603F065FB01E04FF0FF35284604B075
:106CF00070BD000010B5064C2068002805DB03F0CD
:106D000057FB4FF0FF33236010BD002010BD00BFC4
:106D10000400002038B5FFF7EDFF02200121062214
:106D200003F018FB164C0028206024DB154B1620BE
:106D300083F84E0A02223321E520A3F84C2A83F877
:106D40004F1AD02283F8520A042136254FF4FA5004
:106D500083F8505A83F8512A83F8531A01F078F9CE
:106D6000094905461022206803F048FB04462846DE
:106D700001F06EF901E04FF0FF34204638BD00BF4E
:106D800004000020BC0C0020081700200F4B2DE948
:106D9000F041D3F8647180460024BC4211DA142516
:106DA00065430A4E4146701900F5B6700C220CF08E
:106DB00051FF20B9751995F87801BDE8F0810134CB
:106DC000EBE74FF0FF30BDE8F08100BFBC0C0020C6
:106DD00008B5FFF7DBFF0138082803D8024B191864
:106DE000087F08BD022008BD747B010813B5094C5B
:106DF00000210B4600910A46204600F0E3FB2046A6
:106E00000549064A0BF046FB054802B0BDE81040B4
:106E100007F0D2B818170020DD5F0008B80C00207A
:106E2000F00E002014282DE9F34104460E4675D8D3
:106E3000FF2973D000F096FC28B10D2C6ED00F2CDA
:106E40006CD00E2C6AD000F051FB08B1012C65D932
:106E500000F0D2FE18B1A4F11203012B5ED9304D1F
:106E600020012F582F492A188F42B2F8048001D1EF
:106E7000042003E02C4B9F4203D10820012105F0A0
:106E80003FFFADF80480062E44D8DFE806F0041179
:106E9000181F26313C00224A102302EB0414032061
:106EA0000021A1738DF807308DF80600083431E019
:106EB00004218DF8071005EB0414012229E0482273
:106EC0008DF8072005EB0414022222E028208DF81B
:106ED000070005EB041403221BE0114B18220321C9
:106EE0008DF807208DF8061003EB0414042210E03F
:106EF0000B481C2103238DF807108DF8063000EB9A
:106F00000414052205E000208DF8070005EB0414A9
:106F10000622A273384601A905F0C4FDBDE8FC8134
:106F20000C00002000080140000C0140142870B53E
:106F300004460E463ED8204B03EB0010817B01290E
:106F400038D0022936D0032934D0062932D0FF297F
:106F500030D000F007FC30B10D2C2BD00F2C29D0F5
:106F60000E2C00D170BD00F0C1FA10B1012C00D878
:106F700070BD00F041FE20B1A4F11202012A00D838
:106F800070BD0D4D05EB0413987B042803D12046FA
:106F90000021FFF747FF012E05D1240128192959A7
:106FA00083880B6170BD2EB9240129192B598A8859
:106FB0005A6170BD70BD00BF0C000020142810B5D0
:106FC000044602D94FF0FF3010BD1A4B03EB0010FE
:106FD000817B0029F6D0FF29F4D000F0C3FB28B153
:106FE0000D2CEFD00F2CEDD00E2CEBD000F07EFA54
:106FF00008B1012CE6D900F0FFFD18B1A4F112028E
:10700000012ADFD90B4B03EB0410817B062908D141
:1070100093F850114A1ED3B2FD2BD3D82046FFF768
:1070200001FF0448240101198988005905F08AFDEF
:1070300010BD00BF0C000020F0B54FF4004091B02F
:1070400005F02AFE0120014605F04EFE01214FF415
:10705000C06005F055FE394805F08EFB384B3948C5
:107060000A2100248022059306904FF400530891D2
:107070004FF400754FF400662027304805A90A92A6
:107080000E930B950C960D97079409940F9405F0A9
:10709000EBFB2A48012105F007FC01254FF40027EE
:1070A0004FF460262848694600978DF804408DF813
:1070B0000540029603948DF8105005F091FA23488C
:1070C000694600978DF804408DF8054002960394B8
:1070D0008DF8105005F084FA1C48294605F01EFB77
:1070E0001948294605F0A9FA1748294605F09CFADF
:1070F000154805F0ABFA144805F0ADFA0028FAD1AE
:10710000114805F0ACFA104805F0AEFA0028FAD1A3
:107110000E48012105F088FA0C4805F097FA0B4853
:1071200005F099FA0028FAD1084805F098FA0748BE
:1071300005F09AFA0028FAD111B0F0BD080002401B
:107140004C24014024170020002401400028014065
:1071500030B509288BB0044601D80A34A4B200F037
:1071600001FB40B10D2C02D14FF0FF3067E00F2C36
:10717000FAD00E2CF8D000F0B9F900F03DFD18B1AE
:10718000A4F11203012BEFD9142CEDD82D4D05EBF2
:1071900004108279FF2AE7D095F85111914206D068
:1071A000837B0621204685F85031FFF73BFE95F89A
:1071B0005251012D05D1FFF73FFF224A002082F8EE
:1071C0005201204D05EB0414A17995F851318B4201
:1071D0000DD01D480122042305F053FAA1791B4864
:1071E0000122042305F04DFAA17985F851111648C2
:1071F000012105F03DFA022005F06AFB0028FAD0D3
:10720000022005F073FB0023114850F82320110CD5
:107210002DF8231050F8231000A800EB830201334F
:107220000A2B5180F0D1002002463DF800100230B8
:1072300028280A44F9D11423B2FBF3F188B20BB029
:1072400030BD00BF0C000020002401400028014098
:10725000241700202DE9F041142888B004460D467B
:1072600000F2A780544B03EB00108168002900F066
:10727000A08000F077FA40B10D2C00F09A800F2C1E
:1072800000F097800E2C00F0948000F02FF910B1E0
:10729000012C40F28E8000F0AFFC20B1A4F112026C
:1072A000012A40F28680444B03EB0410817B09B134
:1072B00004297ED1414E424A37684BF680316943FA
:1072C000B7FBF2F3581EFF2586B2012091FBF5F7BC
:1072D000014605F015FD04212046FFF7A3FD364ABF
:1072E000BFB202EB04139968B1F1804F02D10120C3
:1072F000014608E0334D0220A94203D032488142C2
:1073000003D10420012105F007FD2B4B4BF67F3202
:1073100003EB0415ADF80460A868002601A9ADF8D8
:107320000A60ADF80660ADF8082005F0C5FDADF8BF
:107330001860AE896021012005F10808ADF8101031
:10734000ADF81200ADF8167046B9A86804A905F0AA
:10735000FDFDA868082105F039FF1FE0042E08D1C3
:10736000A86804A905F036FEA868082105F036FFD4
:1073700014E0082E08D1A86804A905F06FFEA868DB
:10738000314605F035FF09E00C2E07D1A86804A9A5
:1073900005F0A6FEA868082105F032FF064A012183
:1073A00002EB0414A06805F005FFA068012105F0B8
:1073B000DEFE08B0BDE8F0810C000020BC02002019
:1073C00000366E01000400400008004004F0C4BD17
:1073D00013B5084C002100910A460B46204600F0E8
:1073E000F1F80549054A204602B0BDE810400BF00F
:1073F00051B800BF4C170020DD5F0008B80C00201A
:10740000024B18785978401A704700BF5417002073
:10741000064B5A781978914204D99818013280782D
:107420005A7070474FF0FF30704700BF541700206C
:10743000054B5A781978914202D99818807870478C
:107440004FF0FF30704700BF541700207047000016
:10745000014B0360704700BFE87B0108034B10B588
:1074600004460360FFF764F9204610BDE87B01087D
:10747000F8B5094B054693F82200164650B10C4664
:107480008F18BC4206D0296828468A6814F8011B68
:107490009047F6E73046F8BD5417002010B50C4B66
:1074A000012293F822408CB193F823401F2C02D97B
:1074B0004260002010BD93F824001C1884F82510A9
:1074C000411CC8B283F8240083F82300104610BD85
:1074D0005417002000224260024A4FF47A71816002
:1074E00002607047A87B010870477047014B93F812
:1074F000590070475417002073B50E4C002104F159
:1075000064050D4E0B4600910A46284600F05AF8D5
:107510006C343246094928460AF0BCFF2046FFF782
:10752000D9FF07492046324602B0BDE870400AF054
:10753000B1BF00BF54170020B80C0020DD5F000869
:107540005174000808B5034B53F8200000B1804780
:1075500008BD00BFD017002013B5084C00210091D2
:107560000A460B46204600F02DF80549054A2046FC
:1075700002B0BDE810400AF08DBF00BF1018002017
:10758000DD5F0008B80C00202DE9F041002407461B
:107590000E4625463B1919790A22304600F0AFF80D
:1075A0002E218046304600F078F801344044032C08
:1075B0000544EFD13046F9790A2200F0A0F82818E6
:1075C000BDE8F08130B58371044D9DF80C30044660
:1075D000056001714271C37130BD00BFD07B0108ED
:1075E00005480021054B017141718171C171044A47
:1075F000044903600AF04EBF18180020D07B010830
:10760000B80C0020DD5F000813B5084C0021009184
:107610000A460B462046FFF7D5FF0549054A204696
:1076200002B0BDE810400AF035BF00BF20180020AE
:10763000DD5F0008B80C0020014B0360704700BFFD
:10764000E87B0108F8B506460C468F180025BC42B9
:1076500007D0336830469A6814F8011B90472D18FC
:10766000F5E72846F8BD0000034B10B5044603605B
:10767000FFF75EF8204610BDE87B010838B50546E7
:107680000C46084641B10CF0B5FA2B680246DB689F
:1076900028462146984738BD38BD08B503689A6822
:1076A000904708BD70B500238AB08DF82430012AB8
:1076B00098BF0A220DF12303B1FBF2F505FB12116D
:1076C000CCB2092C1E4601D8303400E03734E4B285
:1076D00003F801492946002DEED13146FFF7CEFFD0
:1076E0000AB070BD10B5044622B90268C9B29268EA
:1076F000904710BDD2B2BDE81040FFF7D3BFFFF7EF
:10770000F1BF000013B5084C002100910A460B465A
:107710002046FFF757FF0549054A204602B0BDE85D
:1077200010400AF0B7BE00BF2C180020DD5F000833
:10773000B80C002013B5084C002100910A460B46F6
:107740002046FFF73FFF0549054A204602B0BDE845
:1077500010400AF09FBE00BF34180020DD5F000813
:10776000B80C0020014B587D704700BF3C1800202A
:107770007047000013B5084C002100910A460B46E3
:107780002046FFF71FFF0549054A204602B0BDE825
:1077900010400AF07FBE00BF54180020DD5F0008D3
:1077A000B80C002013B5084C002100910A460B4686
:1077B0002046FFF707FF0549054A204602B0BDE80D
:1077C00010400AF067BE00BF60180020DD5F0008AF
:1077D000B80C002010B5044600680AF0CFFF204620
:1077E00010BD10B50446006808B10AF0C7FF0023B9
:1077F0002360A360636010BD38B504460D46006881
:1078000001310BF09BFD10B184E82100012038BD4F
:10781000036810B5044613B14068884207D2204679
:10782000FFF7EAFF20B1A16809B9226811700120B1
:1078300010BD70B50E46114604461546FFF7E8FF29
:1078400018B92046FFF7CDFF04E0A5602068314657
:107850000CF072F9204670BD38B500230446036071
:107860004360836003730D4639B108460CF0C2F9DA
:10787000294602462046FFF7DCFF204638BD8842F5
:1078800010B50B46044607D0096819B19A68FFF78E
:10789000D0FF01E0FFF7A5FF204610BD002310B583
:1078A00004460360436083600373FFF7E8FF2046EC
:1078B00010BD38B505460C4641B108460CF09AF9A2
:1078C000214602462846FFF7B4FF01E0FFF789FF93
:1078D000284638BD826808B50B4612B919B901208F
:1078E00008BD11B90368187802E000680CF036F89A
:1078F000D0F1010038BF002008BD10B58B68846846
:10790000E41AA2420CD8006868B1096851B1801825
:107910001A460CF09FF9D0F1010038BF002010BDCD
:10792000002010BD084610BD82688B689A4202D3C1
:107930000022FFF7E2BF002070478368994203D21C
:10794000006810B1405C704700207047FFF7F5BF3A
:107950009A422DE9F04107460D4614461E4601D9CC
:107960003446164638460C49FFF776FFA86884422D
:107970000FD82968864228BF0646002211F80680E3
:107980008A552B6838461919FFF793FF286800F8C5
:1079900006803846BDE8F08117A9010810B58B684C
:1079A0000446FFF7D5FF204610BD006808B10AF075
:1079B000B3BD704713B5084C002100910A460B4631
:1079C0002046FFF7FFFD0549054A204602B0BDE805
:1079D00010400AF05FBD00BF68180020DD5F00089E
:1079E000B80C002013B5084C002100910A460B4644
:1079F0002046FFF7E7FD0549054A204602B0BDE8ED
:107A000010400AF047BD00BF70180020DD5F00087D
:107A1000B80C002013B5084C002100910A460B4613
:107A20002046FFF7CFFD0549054A204602B0BDE8D4
:107A300010400AF02FBD00BF78180020DD5F00085D
:107A4000B80C0020014B0360704700BFE87B0108C1
:107A50000369186C596C421A02F03F0070470369C1
:107A6000196C5A6C914202D0586C185C70474FF0F8
:107A7000FF3070470369196C5A6C914207D0586CFB
:107A8000596C185C4A1C02F03F01596470474FF072
:107A9000FF30704770B504460E46284840F2277103
:107AA00005F0EFFB20B963691A6C586C82422FD144
:107AB00061690D6C6B1C03F03F056069426C954277
:107AC0002DD11E4840F2277105F0DBFB0028F4D0D1
:107AD0001A48802105F0CFFB0028EED0002217487D
:107AE00040F2277105F0A5FB6069426C531C815C74
:107AF0004364124805F0B7FB6169486C00F03F022F
:107B00004A640E4840F22771012205F092FBD4E747
:107B10000A4840F22771012205F08BFBC8E7016C8F
:107B20004654636905481D640125257640F2277196
:107B30002A4605F07EFB284670BD00BF0044004089
:107B400010B50446237E13B90020207610BD0348EB
:107B5000802105F090FB0028F4D0F5E700440040B8
:107B6000034B10B504460360FEF7E2FD204610BD4E
:107B7000E87B010810B51E4840F2255105F081FB55
:107B800078B11B4805F073FB1A4BC0B25A6D511CFB
:107B900001F03F02996D8A4203D0596D5A65591818
:107BA0000875134840F2277105F06BFBF8B1114CD2
:107BB000D4F89C00D4F8A030984207D10C4840F289
:107BC00027710022BDE8104005F033BBD4F8A000B7
:107BD0002218431C92F85C100548C4F8A03005F048
:107BE00042FBD4F8A01001F03F00C4F8A00010BD83
:107BF0000044004080180020014B187C704700BFF3
:107C000080180020F7B5164C002504F1A406154F86
:107C10002B4629462A4600953046FFF7D3FC3A46C4
:107C2000304611490AF036FC04F114010F4804F102
:107C30005C02C4F8BC100E494FF47A73C4F8AC006F
:107C4000C4F8C02004F1AC003A46C4F8B050C4F8FF
:107C5000B43084F8C45003B0BDE8F0400AF01ABC58
:107C600080180020B80C0020DD5F0008007C0108AF
:107C7000457A000870474FF0FF307047014B0360B2
:107C8000704700BFE87B0108034B10B50446036052
:107C9000FEF74EFD204610BDE87B0108084608B5FA
:107CA000FEF79CFC012008BD08B5FEF763FC08BD8B
:107CB000FEF774BC00224260024A4FF47A71816080
:107CC00002607047287C01080846FEF73BBC0000B4
:107CD00037B50D4C00210D4D0B4600910A4620464C
:107CE000FFF770FC2A460A49204608340AF0D2FB06
:107CF0002046FFF7DFFF074920462A4603B0BDE8CC
:107D000030400AF0C7BB00BF48190020B80C002063
:107D1000DD5F00087D7C0008002303601846704783
:107D2000002303601846704700230360184670471D
:107D300048F20202904210B522D00EDC99285CD0A5
:107D4000511E88426FD1384C0123E370FFF73EFB90
:107D500000F5EA403030606010BD48F28003984280
:107D600007D0B0F5084F4CD048F2100290425AD1DB
:107D700031E02D480123002103704370817010BD54
:107D8000294CE27882B1FFF721FB284B00F5EA424B
:107D90000020303218704FF47F40626003F036FBF1
:107DA000E72003F0AFFB06E0207A10B1411E2172FC
:107DB00001E0012323761C498A7850B2421C01D18C
:107DC00001238B700022CA704A768A76CA760A77B7
:107DD0004A778A7710BD087D134B58B90122586045
:107DE0004FF47F405A7603F011FBE720BDE81040C6
:107DF00003F088BB0021597610BD0B490122CA77D8
:107E000010BD0846002101F044F80121044601F0AC
:107E100087F8074803689C4205D1034900220A7786
:107E20004A77CA768A7610BD60190020F4190020BE
:107E3000040000202DE9F04191F8008086B00C4646
:107E4000B8F1000F14BF90464FF0000806460BF043
:107E5000D1FE074620460BF0CDFE012518231E213A
:107E6000022201930291039205900023009504944D
:107E7000404631463A4602F041FD044B83F820006B
:107E800083F8215006B0BDE8F08100BF60190020E2
:107E90001FB54FF0000C0A234FF461514FF461629B
:107EA0008DE80E10054B44F620621A60684601A961
:107EB00002AA03AB01F056FD05B000BDF019002089
:107EC0001FB50023009301930293039301A8694611
:107ED00002AA03AB01F00EFD05B000BD30B5584D50
:107EE00000249FB0FF202C706C7085F82140EC704E
:107EF0006C76EC77AC76EC762C776C7703F086FAC0
:107F0000E72003F0FFFA21462246204602F0D2FC89
:107F10002B46012103F8094F0E200A4601F0A4FD6B
:107F2000474BD878012805D1642003F00FF901F000
:107F30001DF9F5E710210C2001F0E2FD414802F0A7
:107F4000B0F9414802F024FE012002F005FE684627
:107F50003E4900F02BFE3A4D297895F821200A433E
:107F60001ED195F82250002D5FD0FF2002F0A8FD11
:107F700000285AD11A24013C06D0E72003F0F0FA79
:107F8000322003F0E3F8F6E72D4D0E202B4603F8E0
:107F9000084F0121224601F067FD85F82240DAE70B
:107FA000E72003F0AFFA0E200121002205F10803BB
:107FB00001F02EFD2C781CB102F008FE85F820009F
:107FC0001F4C012194F820300022581C234603F84E
:107FD000080F0E2001F048FD00200146012202F0AA
:107FE00069FC01252346294603F8095F2A460E202D
:107FF00001F03AFD02F0E4FB642003F0A7F8002052
:1080000002F0A8FB48F2442084F8235002F072FDED
:108010004FF47F4003F0FAF9E72003F073FAFFF71B
:1080200037FF002121761FB030BDE72003F098FA1A
:10803000FA2003F08BF8684600F00CFE8BE700BFD7
:1080400060190020487C010860010020357E00088E
:10805000024B1A6818601046704700BFF0190020E4
:1080600030B53E4C85B0606203F01EFD03F05EFC4F
:108070003B4B3C483C493D4A009301903C4B0291AC
:1080800003923C493C4A3D4802F04CFB642003F01B
:108090005DF8002002F05EFB0025012348F2442039
:1080A000657784F8233002F025FD354801880129E1
:1080B0002FD00E2010212A4604F1080301F0A8FC5D
:1080C000102826D1254CA37893B9207A10B9012124
:1080D00021760DE0607A58B90146012202F0EAFBF0
:1080E0000121234603F8091F0E200A4601F0BCFCBB
:1080F0001A4B9A7850B2002827DC197E29B3214800
:1081000001F0E4FCFFF7DCFE05B0BDE83040FFF70E
:10811000BFBEFF2002F0D4FC00210E2001F0F0FCD5
:1081200010210E2001F0ECFC0021102216480BF06B
:1081300047F800220E201021134B01F095FC104A45
:108140000024148003F0F6FDBCE74FF47F4003F0F9
:108150005DF9E72003F0D6F9D1E700BF60190020F0
:10816000E5B90008F9B9000865BA00088DBA000839
:10817000297D0008197D0008217D0008317D000857
:10818000AE0200208819002068190020F7B5A34C22
:108190000023E36294F8300048B994F8311031B903
:1081A00062686AB3FFF712F96568A84228D39B4C4E
:1081B00094F82350B5B30025E57065606576656376
:1081C00084F8305084F82350A576E57625776577D6
:1081D000A57702F0F5FA642002F0B8FF237E3BB1E8
:1081E000284602F0B7FA012084F82300FFF776FE54
:1081F0004FF47F4003F00AF9E72003F083F911E020
:10820000864C94F823306BB9A07828B9FFF7DEF8D4
:1082100000F5EA4130316160002002F09BFA012252
:1082200084F823207D4D297E11B1FFF757FE06E02B
:10823000AA7854B2002C02DD6C7E002C6ED07748F8
:108240004178012914D1427E012A11D1C478012C30
:108250000ED1032472480BF0CDFC714982B201208B
:1082600002F02AFA631E13F0FF04F3D16B48447046
:108270006A4C94F8381031B9A37E002B67D1E27EA6
:10828000002A64D1E7E0627EF2B194F83130DBB9C4
:10829000A07E00286DD017E0234603F80B2F0E2098
:1082A0000121032201F0E0FB4FF6FF7003F0AEF86E
:1082B000E72003F027F9FEF72DFD0028574A7DDB64
:1082C0000023012453639476544CA27E002A00F0CC
:1082D000C280E17EB9B9FEF79FFC002811D002DA16
:1082E0004FF47F0007E0012801D14E4803E0022847
:1082F00003D14FF0FF1003F089F8E72003F002F9F3
:1083000001E00120E076FEF74BFC002840F0A3805E
:10831000424B18775877D87698769CE021462246CB
:1083200020466C6002F0C6FA3F480BF063FC3F4EFB
:10833000074630460BF05EFC234601900096032072
:10834000711F3A4602F052FAFF23AB7077E7FEF74F
:10835000D1FC3249002008774877C87688764FF4F8
:108360007F4003F053F8E72003B0BDE8F04003F08E
:10837000C9B8642002F0EAFE04F1390001F036FBCE
:10838000A17F002990D04FF47F0003F03FF8234CE9
:10839000A27F002A80D0E72003F0B4F84FF4FA70EF
:1083A00002F0D4FEE72003F0BBF84FF4FA7002F0BD
:1083B000CDFEA27F511EC8B2A077E8E792F8303018
:1083C000002B48D1546B611C022951630BD1012051
:1083D00082F83000164A01910092042040F269218F
:1083E000144A03F0EDFFFEF753FC00280B4B23DA91
:1083F000596B481C022858630CD1012283F83020A5
:108400000B4B01900093042040F27321094A002392
:1084100003F0D6FF0224014B0FE000BF60190020DB
:10842000630100200060FF006A0100206F0100204E
:108430000EA70108597C010803249C77074C0E20E5
:10844000A17F234603F80B1F0322012101F00CFB3F
:108450000020A07638E703B0F0BD00BF601900200F
:1084600013B5084C002100910A460B462046FFF741
:10847000A9F80549054A204602B0BDE810400AF0B7
:1084800009B800BFD4190020DD5F0008B80C002037
:108490007047000007B5064B052000935221054A9E
:1084A000002303F08DFF012003F0DAFFFEE700BF99
:1084B00041A70108707C010807B5064B0520009311
:1084C0006221054A002303F07BFF032003F0C8FF6D
:1084D000FEE700BF4BA70108897C010807B5064BE2
:1084E000052000937221054A002303F069FF042050
:1084F00003F0B6FFFEE700BF55A70108A27C010804
:1085000007B5064B052000938221054A002303F09E
:1085100057FF052003F0A4FFFEE700BF5EA7010898
:10852000BA7C010870477047704708B503F00CFD2E
:10853000BDE80840FDF748BF08B5024B0BB1AFF3EB
:10854000008008BD0000000008B5024B0BB1FFF72A
:1085500011FB08BD757B000808B5024B0BB1FEF797
:10856000C3FF08BDE974000808B5024B0BB1FEF764
:10857000BCFF08BDEB74000808B5024B0BB1FFF758
:10858000F7F808BD7177000808B5012004F0FAF982
:1085900038B1012004F006FA024B13B10020FEF7B7
:1085A000D1FF08BD4575000808B5022004F0EAF9BE
:1085B00038B1022004F0F6F9024B13B10120FEF7A6
:1085C000C1FF08BD4575000808B5042004F0DAF9BC
:1085D00078B1042004F0E6F90020064B014618802B
:1085E00003F04CF8044810210122BDE8084004F0D3
:1085F000D8BD08BD101A0020002C014008B5082085
:1086000004F0C0F938B1082004F0CCF9024B13B1E2
:108610000320FEF797FF08BD4575000808B5102038
:1086200004F0B0F938B1102004F0BCF9024B13B1DA
:108630000420FEF787FF08BD4575000808B5202017
:1086400004F0A0F938B1202004F0ACF90E4B13B1BE
:108650000520FEF777FF402004F094F938B1402060
:1086600004F0A0F9084810B10620FEF76BFF802047
:1086700004F088F938B1802004F094F9024911B16E
:108680000720FEF75FFF08BD4575000808B54FF4E9
:10869000005004F077F940B14FF4005004F082F933
:1086A000174B13B10D20FEF74DFF4FF4804004F03F
:1086B00069F940B14FF4804004F074F9104810B1EA
:1086C0000E20FEF73FFF4FF4004004F05BF940B18D
:1086D0004FF4004004F066F9094911B10F20FEF78C
:1086E00031FF4FF4006004F04DF938B14FF40060F1
:1086F00004F058F9BDE8084002F0B2BC08BD00BF64
:108700004575000808B50F48102104F083FDC0B17D
:108710000C48102104F089FD002003F05BF828B913
:10872000094B1A880A3290B2188008BD10210548FA
:10873000002204F036FD00200121BDE8084002F0CF
:108740009DBF08BD002C0140101A002008B5012073
:1087500004F056FB30B1012004F064FBBDE8084092
:1087600004F032BB08BD000008B5022004F048FB4D
:10877000B0B10C4B00224FF400301A7004F012F923
:10878000012004F071FA10B1012004F077FA04F02E
:108790001BFB022004F046FBBDE8084004F014BBBC
:1087A00008BD00BF9119002002F0CCBB00F062B8F8
:1087B00038B514490B78012B23D1134A13680BB930
:1087C0000B7038BD114C402B206881B205D9403068
:1087D000403B20601360402504E09DB2C318002098
:1087E000236010600A4A5018C0212A4605F07AFA20
:1087F0000120294605F080FB0120BDE8384005F046
:10880000E9BA38BDAC0C0020B40C0020B00C00203C
:10881000AC0B0020094908B50020094B0122088053
:1088200003201A7005F094FB064B02461880064898
:108830004FF48871BDE8084005F06BBA640B002066
:10884000600B0020620B0020660B0020074B1868AD
:10885000052809D1064B1A68511C052A196003D155
:1088600000201860FDF7D8BE704700BF341A002002
:10887000DC1900203A4A38B511683A4B88B23A4DB3
:1088800018801C882988214001F4007084B244B10A
:108890004FF6FF5515609A78511CC8B29870FFF7D3
:1088A000D5FF304C304B25881A882A4002F400410D
:1088B00088B225461C4608B105F04EF92A8823885F
:1088C000134003F4806188B230B1254B27494FF63D
:1088D000FF321A6048688047224A234B11881B8860
:1088E000194001F4005081B219B11D494DF6FF70D5
:1088F00008601288134003F4805398B230B1184ACC
:108900004EF6FF711160002003F016FD154B16495D
:1089100018880A88024002F4006398B260B11449D2
:108920000A7812B103F0E8FC02E0022003F004FD33
:108930000B4B4FF2FF7018600A490B480A880388F6
:10894000134003F480718AB242B1054B4FF6FF60C9
:1089500018600720BDE8384003F0EEBC38BD00BF0A
:10896000445C0040E0190020202400200402002084
:10897000D0020020034B987A10B1034905220A6007
:10898000704700BFFC230020341A0020014B042252
:108990001A607047341A0020034B1A78202A01D13C
:1089A00000201870704700BFE419002070470000D5
:1089B000212810B508D111480368197801F07F0209
:1089C000212A11D0022010BD2028FBD10B4B1968A1
:1089D0000A780B4902F07F030A4A212B0CBF0B4691
:1089E000002310700BB9EDE7074B044C20680024FE
:1089F0008361448220469847204610BD1C240020F5
:108A0000598A0008E4190020418A0008074B1968B8
:108A10000A7802F07F03212B05D1022801D1002022
:108A200070472228FBD00220704700BF1C24002082
:108A300009B1022070470128FBD8084670470000A2
:108A400020B9034B082219680A8270470148704711
:108A50001C240020CC01002020B9034B08221968F7
:108A60000A827047014870471C240020CC01002076
:108A7000054B1968CA78042A04D8044B03EBC201D9
:108A800004F0EABD002070471C240020D40100201F
:108A9000014904F0E1BD00BFF4010020014904F0E8
:108AA000DBBD00BFFC010020334A344BD17918688C
:108AB00010B5002441728472C472204605F03CF95E
:108AC00020464FF4007105F03FF91021204605F0D3
:108AD00047F94021204605F0E3F98021204605F0C2
:108AE000CFF9204605F098F9254B204693F86410FD
:108AF00005F010FA204605F07EF90120214605F028
:108B000023F90120C02105F0BBF90120202105F047
:108B100027F90120214605F040F902204FF4C061F9
:108B200005F012F902204FF4807105F0A9F9022036
:108B3000214605F032F90220202105F011F9032029
:108B4000214605F001F903204FF4887105F0A8F9DA
:108B50000320402105F0DEF903204FF4405105F0D9
:108B60001CF90320214605F0FBF8204604F086FF9F
:108B7000044A0120106010BD307D01081C24002033
:108B8000CC010020341A002010B5FDF791FD054BF3
:108B900000241868847203F097FB05F0EFF902498E
:108BA0000C6010BD1C240020341A002038B5044687
:108BB0000D46FFF77FF8204625614FF41651FFF769
:108BC00083F8204638BD70B506460D460024284679
:108BD0000BF010F8844208D2295D3046FFF75EF8AA
:108BE000012002F0B3FA0134F1E770BD2DE9F8433A
:108BF00004460F4690460D46C7EB05095FFA89F912
:108C00002046FFF751F80028FADD2046FFF750F81C
:108C1000C145C6B206D100232B7020460C49FFF790
:108C2000D2FF0AE00D2EF6D00A2EF4D020463146AF
:108C3000FFF734F805F8016BDEE72046FFF734F85C
:108C4000002803DD2046FFF733F8F6E7BDE8F88398
:108C500015A90108F0B585B00446FFF725F80028EE
:108C600040F39D802046FFF723F8C0B2772867D1F4
:108C700004F1140600212122304604F135050AF0E2
:108C80009FFA0021412228460AF09AFA04F1760759
:108C9000002284F8762020467A704249FFF793FF3D
:108CA000204631462022FFF7A1FF20463E49FFF72C
:108CB0008AFF394601222046FFF798FF94F8763064
:108CC000A3F130010329F0D8312B0BD120463749CD
:108CD000FFF779FF20463649FFF775FF20463549F3
:108CE000FFF771FF94F87600B0F1300708D0204606
:108CF0003149FFF768FF204629464022FFF776FFFB
:108D000020462E49FFF75FFF23693A463046294641
:108D1000984720462A49FFF756FF20462949FFF782
:108D200052FF20462849FFF74EFF20462749FFF70C
:108D30004AFF20462649FFF746FF2046254929E0FD
:108D400069282CD1244A01AB10685168002503C35F
:108D50009168204619602149FFF735FF01AEAE5DED
:108D6000300900F13001392988BF00F1570106F0C0
:108D70000F062046FEF792FF06F13001392988BF21
:108D800006F1570120460135FEF788FF0C2DE5D18D
:108D90001349204605B0BDE8F040FFF714BF05B009
:108DA000F0BD00BF69A7010870A701089DA70108D1
:108DB000D3A70108FEA7010844A801084FA801088D
:108DC00092A80108B2A80108E5A8010818A901089D
:108DD00057A9010888A90108E8F7FF1F9EA9010803
:108DE00015A9010813B5084C002100910A460B464D
:108DF0002046FEF7E7FB0549054A204602B0BDE8DC
:108E0000104009F047BB00BFE8190020DD5F0008F3
:108E1000B80C0020002100F004B80D4B5B58435003
:108E200004310C480C4B42189A42FFF4F6AF0B4A3F
:108E300000F003B8002342F8043B094B9A42FFF4C8
:108E4000F9AF03F0C3F9FDF757FCFDF74DFA704792
:108E5000B8AE010800000020500B0020500B00208D
:108E60002C240020FFF7FEBF01700B0A0A0C090E2C
:108E700043708270C170043070470170090A4170FC
:108E80000230704743185A78405C00EB022188B2E8
:108E9000704710B543189A78DC78415C120402EBF5
:108EA00004625878521802EB002010BD73B5447963
:108EB0000023022C01930FD0032C19D0012C2BD1AD
:108EC000164D28692E4620B1296901A88847024617
:108ED000B8B9B16801201BE0104DE8682E4620B1FA
:108EE000E96801A88847024658B9B16802200FE036
:108EF0000A4D6A692E464AB16B6901A89847024635
:108F000020B1A9682046BDF8043003E0B168032011
:108F10000022134600F08AFC7CBD00BF641B0020C9
:108F2000072830B512D8012910D8EFF3108472B693
:108F3000012505FA00F501FA00F0054B1A6822EA4E
:108F4000050202431A60E30700D462B630BD00BFD9
:108F50005C020020F0B5012187B00546FFF792FFC3
:108F600000F48043044698B250B3B4F5824F27D141
:108F700028460521FFF786FF0026074607353446B9
:108F8000BE4208D028460221FFF77CFF0136241894
:108F90000435B6B2F4E7744B188E21188AB21A86DB
:108FA000D86B2418DC63D96B9A6B914240F0CE8069
:108FB00093F84000002800F0C9809B69992033E0B5
:108FC00024F4FF4121F07F0290B2002800F09B8042
:108FD00048F2100294422AD00CD8B4F5004F40F267
:108FE000C08048F202039C4217D9991C8C4240F081
:108FF000B88012E048F2800084420ED005D848F2D2
:109000004002944240F0AD8051E0B4F5024F04D0EC
:10901000B4F5084F40F0A5806CE0534988690028FA
:1090200000F094808B69204600210A4669E0002305
:10903000EA1851790DF803100133042BF8D1687A3E
:109040002B7BAA7AE97A8DF804008DF807308DF829
:1090500005208DF8061005F10D00002306AAD21890
:10906000C15C0133042B02F8101CF7D105F111008B
:10907000002306AAD218C15C0133042B02F80C1C91
:10908000F7D105F11500002300AAD218C15C013305
:10909000042B1174F8D1344928798A698DF81400A9
:1090A000002A53D08B6920466946152229E00535F0
:1090B00000212846FFF7EDFE042100902846FFF727
:1090C000E8FE082101902846FFF7E3FE0C210290FC
:1090D0002846FFF7DEFE102103902846FFF7D9FE51
:1090E000214B04909969002930D09B69204669463C
:1090F000142206E01C48826942B38369691D204638
:109100000122984722E041F203039C4205D00C3330
:109110009C4202D0591E8C421AD16C1D042120465B
:10912000FFF7B7FE39301CD12D790F480021C562F9
:109130002046FFF7AEFE042105462046FFF7A9FEB4
:10914000393003D128460121FFF7EAFE012009E06A
:10915000054A138899B28C4204D0B4F5805FF5D1EA
:1091600000E0002007B0F0BD641B002070B5214B6B
:109170008CB05D88ADB2002D38D05C682678321F87
:10918000504250EB020636B12046FFF7E3FE011CC9
:1091900018BF012100E031460D4611BB002E25D03D
:1091A000144B93F841200ABB134800902178019199
:1091B00063780293A2780392E07804902179059174
:1091C00063790693A2790792E0790C4A0890217A94
:1091D00004200991637A40F213310A932B4603F07D
:1091E000EFF804480022428001F0C4FD28460CB08C
:1091F00070BD00BF641B0020AFA90108857D010878
:109200002DE9F0478AB004468946904602F0A4FE54
:1092100000250790B24F7B8898B2002840F0B780B5
:1092200002F09AFE08900899079BC81A0990099ABB
:10923000002A03DA0799089B58180990A94A13686D
:10924000002BE7D009999942E4D3A74D08980799D4
:10925000099A0095A24D019002910420F8210392F1
:109260000493A24A002303F0ABF82B88A04A9BB2D8
:109270008DE80C000420F9219C4A002303F0A0F89B
:10928000288841F2070281B2914224D8531E9942A4
:109290006CD240F20220814268D00DD80C2906D849
:1092A000082963D200294DD006295FD966E00D292F
:1092B00059D040F201230BE041F20202914258D80A
:1092C000B1F5805F52D8B1F5017F4CD940F2072348
:1092D000994237D147E041F21100814243D014D87E
:1092E00041F20B02914241D005D841F20903994263
:1092F0003CD03ED837E041F20F00814239D035D81A
:1093000041F20D0291421DD133E042F2060399422F
:1093100029D007D8B1F5005F14D942F20400814288
:1093200021D92EE0B1F5804F00F00E8205D8A1F5CD
:109330000052083A012A05D815E044F20B0399427D
:1093400000F0028266496B4A088840F2011183B23C
:109350008DE80C000520654A002303F031F80B204E
:1093600003F07EF8F0E1FF222270EDE14FF0FF31D3
:1093700005E04FF0FF3121606160E5E100212160EF
:10938000E2E1204600213A2209F01AFFDCE17E6882
:109390003278042A40F07D8130460121FFF772FDCA
:1093A00005463046FFF7D6FD002840F0688141F2BF
:1093B0000703771D9D4253D85A1E954280F0B8800E
:1093C00040F20220854200F0B38014D80C2D09D859
:1093D000082D80F0AD80002D00F05181062D40F267
:1093E000A780E9E00D2D00F0A08040F20127BD42EA
:1093F00040F0458199E041F20202954218D8B5F556
:10940000805F00F29580B5F5017F40F28E8040F2DA
:1094100007218D4240F033813379002104F8013B6C
:109420003846FFF736FD01462046FFF71DFD26E1D1
:1094300041F20400854200F0958040F2AC8038464D
:109440000021FFF726FD042120603846FFF721FDAB
:109450006060083406F10D07224606F11D017AE02E
:1094600041F21100854260D02CD841F20B029542A6
:109470005ED01CD841F209018D4259D000F297808C
:1094800000213846FFF705FD042120603846FFF72C
:1094900000FD082160603846FFF7FBFC0C21A0604E
:1094A0003846FFF7F6FC04F10C0AE060E6E041F212
:1094B0000F0085426FD041D841F20D02954240F035
:1094C000DE804FE042F206018D422ED014D8B5F571
:1094D000005F40F2D48042F204039D4225D98FE020
:1094E000641B0020F01900200BAA0108A37D0108CD
:1094F0004EAA010887AA010842F208039D42C0F063
:10950000BE80581C854210D944F20B02954240F0AF
:10951000B6807179DFF838A23846AAF830100121F8
:10952000FFF7B0FCAAF83200A9E037792770A6E06F
:1095300038460021FFF7ADFC2060A0E0002138464E
:10954000FFF7A7FCA2464AF8040B04213846FFF7B0
:10955000A0FC606092E057F8043B8F4242F8043B65
:10956000F9D18CE000213846FFF793FC04212060FC
:109570003846FFF78EFC082160603846FFF789FC0B
:1095800004F1080AA060E46814F1390376D10121DE
:10959000FFF7C6FC72E000213846FFF77AFC042191
:1095A00020603846FFF775FC6060083467E0337967
:1095B00023713F68276062E038460021FFF769FCAD
:1095C000042120603846FFF764FC082160603846BB
:1095D000FFF758FC0A21A0603846FFF753FCC4F897
:1095E0000A000C3406F11107224606F1350157F83E
:1095F000043B8F4242F8043BF9D1388810803EE0AA
:109600000022B7187879A0540132042AF9D106F162
:1096100009070023F95CE0180133042B0171F9D12B
:1096200006F10D070020395C221801300428117260
:10963000F9D106F111070023F95CE2180133042B7C
:109640001173F9D106F115000022875CA1180132CF
:10965000042A0F74F9D106F119000023C75CE11840
:109660000133062B0F75F9D106F11F000021475C6D
:109670006218013120299776F9D100E05446344B25
:10968000188882B2954246D100271F8083F8417026
:1096900041E0F98E8BB283B9F88E3F8880B2B9B2BF
:1096A0002C4F01920290039100970495042040F200
:1096B0000F21294A02F084FE2DE03046032196F85E
:1096C00002A0FFF7DFFB0746B9F1000F0BD0042122
:1096D000701DFFF7DEFB06F115010246C8F8000019
:1096E000484609F0E7FBCAEB07077B1EB3F5806F1E
:1096F00007D20AF10502B11820463A4609F0DAFB12
:1097000001E04FF0FF37B8F1000F01D0C8F800704A
:109710000F490020C8860E4F00237B8001F02AFBF2
:109720003078042805D1B5F5805F02D13046FFF7C7
:10973000BDFB3A8891B200297FF46CAD044BD88E02
:1097400082B2002A7FF466AD00200AB0BDE8F0873F
:10975000641B002097AA0108A37D010807284FF089
:1097600001030ED8EFF3108272B603FA00F0064937
:109770000B6818420CBF00200120D10702D462B64A
:1097800070471846704700BF5C020020034B1880EA
:10979000084600210A46FFF733BD00BF641B0020C6
:1097A00010B5034B0124DC86BDE81040FFF728BD4F
:1097B000641B002038B50346154601224A710C4649
:1097C000881D1946FFF759FB291D0570204601F039
:1097D0003FFB002038BD38B5BDF814500C469B182F
:1097E000A071E81885B202216171E271294604F185
:1097F0000800FFF742FB6A1D204691B201F028FBEA
:10980000002038BD38B59B180C469DB2022161710D
:10981000A071E271294604F10800FFF72EFB6A1DD2
:10982000204691B2BDE8384001F012BB2DE9F04767
:109830001D4605F1020A032301F107091FFA8AFAFE
:1098400088714B710C46484651461746FFF715FB89
:10985000B5F57A7F804613D82946FFF70EFB2946D7
:109860004046FFF70AFB394604F10B002A4609F08F
:1098700021FBA91D204689B2BDE8F04701F0E8BAF6
:109880004FF47A76B5FBF6F10AEB410291B2FFF79D
:10989000F4FA31464046FFF7F0FA394604F10B007E
:1098A000324609F007FBA5F57A75204640F2EE3105
:1098B000ADB2BF1901F0CCFAB5F57A7F05D9A5F59F
:1098C0007A7085B24FF47A7601E02E460025A046E4
:1098D000394628F8056F4846324609F0EBFAB31CC2
:1098E000404699B2BF1901F0B3FA002DE4D1BDE8AA
:1098F000F0870000F7B51A4C1E46A468FF238DF8C8
:1099000007300025475D63190135042D5F72F9D1D9
:1099100000200D5C2318013004285D73F9D100216B
:10992000505C6318013104295874F9D104F1150011
:109930000021FFF799FA0022B35C83540132042A14
:10994000FAD12146142242F20100FFF733FF42F21E
:1099500001000DF10701FFF719FF9DF90700FEBD9A
:10996000641B00202DE9F34106460C461E48316871
:109970001546D0F808804A1E1F46FF23122A8DF88C
:10998000073008F1090001D81423336021684A1E0A
:10999000122A01D81423236029684A1E122A01D8EA
:1099A00014232B6039684A1E122A01D814233B6005
:1099B0003168FFF759FA2168FFF756FA2968FFF76F
:1099C00053FA3968FFF750FA4146142242F209006F
:1099D000FFF7F0FE42F209000DF10701FFF7D6FE96
:1099E0009DF90700BDE8FC81641B002038B5074BDA
:1099F00042F205040546996820460022FFF7DAFE88
:109A000020462946BDE83840FFF7C0BE641B002051
:109A10002DE9F341864613480D46866871461F4678
:109A200002ACFF2306F1090004F8053D9046FFF75C
:109A30001BFA2946FFF718FA40F201254146FFF7C5
:109A400013FA0C2231462846FFF7B4FE2846214679
:109A5000FFF79CFE3846002101AAFFF7A1FE0198FE
:109A6000BDE8FC81641B00202DE9F34186461648C1
:109A70000C4686687146984602AD4FF0FF3306F1FA
:109A80000A0045F8043D1746FFF7EEF90C21FFF7F1
:109A9000EBF92146FFF7E8F93946FFF7E5F94146CA
:109AA000224606F11A0009F005FA902031461022EC
:109AB000A3B2FFF7A7FE40F202202946FFF766FE99
:109AC0000198BDE8FC8100BF641B002037B50B4B3B
:109AD00040F207250446996800222846FFF76AFEEF
:109AE00028466946FFF752FE9DF803009DF80410D2
:109AF000207061709DF800003EBD00BF641B002017
:109B000037B50D4A034695680C4605F1090019461C
:109B1000FFF7AAF9214640F20324FFF7A5F92946E9
:109B200008222046FFF746FE20460DF10601FFF70A
:109B30002DFEBDF806003EBD641B00202DE9F0435C
:109B40000023CA5CC2540133102BFAD10022334BDC
:109B5000467B991891F8018004789F19F97A88EA70
:109B60000405847B85EA01081D194178EF7A90F895
:109B70000CC04F40C17B80F810805D1895F80B90A9
:109B80008578634489EA050593F80B90C378477498
:109B900089EA030390F80490FFB288EA090890F874
:109BA0000590857487EA090790F80690EDB285EA7A
:109BB000090590F80790C374DBB283EA090390F8B3
:109BC000089080F814805FFA88F888EA090890F80D
:109BD00009904775FFB287EA090790F80A908575E2
:109BE000EDB285EA090590F80B90C375DBB283EA04
:109BF000090388EA0C0C7E406C405940013280F821
:109C0000188047768576C37680F81CC046778477BF
:109C1000C17710300A2A9AD1BDE8F083B57D0108DA
:109C200010F0800F4FEA400018BF80F01B00C0B258
:109C3000704700002DE9F04F037891F8A0A004468A
:109C40008AEA030A80F800A091F8A1204078A7785A
:109C500082EA0005657091F8A260E07886EA070361
:109C6000A37091F8A32097B0059582EA0005E570EE
:109C700091F8A4902679069389EA060984F804905D
:109C800091F8A5706379079587EA0302627191F8EC
:109C9000A600A579E37980EA0506A67191F8A77078
:109CA0000C9287EA030B84F807B0227A91F8A88017
:109CB000607A88EA020884F8088091F8A97008960A
:109CC0004740677291F8AA50A67AE07A85EA0603BF
:109CD000A37291F8AB20267B82EA0005E57291F829
:109CE000ACC009938CEA060C84F80CC091F8ADE086
:109CF000637BA27B8EEA030E84F80DE00D9591F84C
:109D0000AE50E07B5540A57391F8AF204B4B4240DD
:109D1000E2739A4491F890009AF80B619944464096
:109D2000267091F8940099F80BA198448AEA0006ED
:109D3000267191F8980098F80B919C4489EA0006E6
:109D400026729CF80BA191F89C009E448AEA0006BA
:109D50002673DF199EF80B8197F80BC191F89100DB
:109D600091F89D6088EA00098CEA060060730C9FF8
:109D7000DDF814A0DE1996F80B0191F89970DDF862
:109D8000208080EA0706667203EB0A0091F895606E
:109D900090F80B7184F8019087EA0600607103EB7C
:109DA0000800DDF818E090F80B91099803EB0E0716
:109DB00003EB000E9EF80BC191F8920091F89A60A7
:109DC00097F80B718CEA000A77405D1991F89E6054
:109DD00084F802A091F8960095F80B81A772079F6E
:109DE00088EA000589EA0606A673A571DE1996F8C9
:109DF0000B0191F89F5003EB0B0791F893604540DE
:109E000097F80B019A1880EA06070D98E7701E185C
:109E100096F80B7191F897004FF0090B87EA00064E
:109E2000E67191F89B3092F80B71E57387EA0300B5
:109E3000E0720D46CDF840B002E000BFB57D0108EC
:109E400094F80090A77887EA0900FFF7E9FEFFF78A
:109E5000E7FE94F80180E678824686EA0800FFF77C
:109E6000DFFEFFF7DDFE8AEA070380EA08022779B2
:109E70007040A6798AEA09015FFA80F886EA07004D
:109E80005FFA82FB5FFA83FA5FFA81F90397029621
:109E9000FFF7C6FEFFF7C4FEE6796779014686EA5A
:109EA00007000491FFF7BCFEFFF7BAFE039B049A7C
:109EB00094F808C082EA0301CBB2029947404A40B5
:109EC000A17A7040C6B2059381EA0C00D3B2029128
:109ED000CDF804C006930796FFF7A2FEFFF7A0FE99
:109EE000637AE67A024686EA030003930492FFF758
:109EF00097FEFFF795FE049ADDF804C0039B82EA03
:109F00000C015FFA81FC80EA0301CBB2029909934C
:109F10004A40D3B2CDF820C00A9394F80CC0A17B7C
:109F20007040C6B281EA0C000291CDF804C00B96D5
:109F3000FFF776FEFFF774FE637BE67B024686EA58
:109F4000030003930492FFF76BFEFFF769FEDDF851
:109F500004C0049A039B82EA0C015FFA81FC80EA48
:109F60000301CBB2029970404A40C6B288EA0A01A6
:109F70008BEA09000D93D3B20E930291CDF830C055
:109F80000F9681EA0006FFF74BFE89EA000286EA97
:109F9000020C5FFA8CFC8AEA0B0084F800C0CDF852
:109FA00004C0FFF73DFE8BEA000386EA030B02992B
:109FB0005FFA8BFC84F801C00846CDF844C0FFF777
:109FC0002FFE8AEA000286EA020A5FFA8AFB88EA22
:109FD000090084F802B0CDF848B0FFF721FE88EA06
:109FE0000000DDF818900599079A4640FFB2F6B2D6
:109FF00082EA090887EA0100E670139688EA0006FB
:10A00000FFF70EFE059B584086EA0001CAB248469B
:10A01000227178401492FFF703FE474086EA070357
:10A02000D8B2159060714046FFF7FAFD89EA000149
:10A03000059B86EA01020798D7B25840A771069798
:10A04000FFF7EEFD0799089A48404640F6B20A9F8E
:10A050000596E67109980B9E50407E4086EA0007FF
:10A06000FFF7DEFDDDF820A08AEA000387EA030C93
:10A070005FFA8CF884F8088009990A984840FFF73D
:10A08000CFFD099A504087EA000B5FFA8BF9304602
:10A0900084F80990FFF7C4FD0A9E524686EA000341
:10A0A00087EA03010B985FFA81FB504084F80AB0FD
:10A0B000FFF7B6FDDDF82CA00E998AEA00000C9E91
:10A0C00047400F9B0D98FFB24B407040E77283EA08
:10A0D000000A0293FFF7A4FD0C9A0D9B50408AEAF8
:10A0E00000060E98F6B226735840FFF799FD0D99B9
:10A0F000029B81EA00028AEA0200C1B2617318463B
:10A100000391FFF78DFD0E9A0C9B50408AEA0001E7
:10A110000F98CAB2A27358400492FFF781FD0F99BD
:10A12000514B48408AEA000C5FFA8CFADDF804C013
:10A1300084F80FA003EB0C0295F8800092F80B1145
:10A14000DDF850C081EA0002227003EB0C0195F8A3
:10A15000840091F80B219E1982EA000103EB0802AA
:10A16000217195F8880092F80BC196F80B218CEAC2
:10A170000001217295F88C00039E82EA0001217390
:10A180009A1995F8811092F80B0103EB090680EA01
:10A19000010295F88D0096F80B11DDF844C081EAB4
:10A1A000000615996673581890F80B6195F8891098
:10A1B000DF1986EA0100607203EB0C0695F8850052
:10A1C00096F80B116270129A81EA0006667199186E
:10A1D000DDF818C095F88A6091F80B0103EB0C02CA
:10A1E00095F88E10704092F80B6103EB0B027140F2
:10A1F00092F80BC195F882608CEA0602049EA27068
:10A200009A1992F80B6195F886205640A671A072B3
:10A210001398A173191895F88F2091F80B61DDF848
:10A2200014C0724003EB0C0695F8831096F80B01EE
:10A2300053444840E07095F8871097F80B01484068
:10A24000E07195F88B0093F80B11E273109A81EA94
:10A250000003511E103D11F0FF00E37210907FF4D7
:10A26000EFAD17B0BDE8F08FB57D010838B5054CEE
:10A2700005462046FFF762FC28462146BDE83840E7
:10A28000FFF7D8BC701A002008B510210346002241
:10A290000C20FFF7BDFB102814BF4FF0FF3000204B
:10A2A00008BD034610210C200022FFF7DDBB000093
:10A2B00030B58BB0054601F04FFE0790214CE36AA4
:10A2C0004BB108F037F9E36A03600020E06208F060
:10A2D00031F9006834E02846FFF740FA00282DD114
:10A2E00001F03AFE0890089A0798111A0991099B03
:10A2F000002B03DA0798089A11180991124B099854
:10A300001B6898420FD30898104C0799099A01903E
:10A310000291039204930094042091210C4A00239B
:10A3200002F04EF80AE007490A8E90B20028C5D024
:10A330000B8E5A1E90B20886002001E04FF0FF30CD
:10A340000BB030BD641B0020F0190020F4AA0108F6
:10A35000C07F0108F7B5034614480D4686681946C4
:10A36000174602AC4FF0FF3206F1090044F8042D05
:10A37000FEF77AFD2946FEF777FD41F201053946E1
:10A38000FEF772FD0C2231462846FFF713FA2146EC
:10A390002846FFF7FBF908F0CDF80199016008465F
:10A3A0000021FEF7BDFD0198FEBD00BF641B00202B
:10A3B000F7B5054610484FF0FF33876802AC2946D1
:10A3C00041F20B0607F1090044F8043DFEF74CFD8D
:10A3D000042239463046FFF7EDF921463046FFF7B3
:10A3E000D5F908F0A7F80199016028460121FEF788
:10A3F00097FD0198FEBD00BF641B002037B50346E2
:10A4000013484FF0FF3284680D4604F109001946E5
:10A410000192FEF729FD0821FEF726FD0821FEF72F
:10A4200023FD0023E95CC1540133082BFAD1142227
:10A43000214641F20700FFF7BDF901A941F20700EB
:10A44000FFF7A4F908F076F8019A026010463EBDC5
:10A45000641B00202DE9FF411D46314B8646D3F891
:10A4600008800F4608F10900714616460A9CFEF75F
:10A47000FBFC1421FEF7F8FC1421FEF7F5FC142177
:10A48000FEF7F2FC1421FEF7EFFCD4F1010138BF16
:10A490000021FEF7E9FC0FB1396800E03946FEF70C
:10A4A000E3FC0EB1316800E03146FEF7DDFC0DB192
:10A4B000296800E02946FEF7D7FC74B1216839B954
:10A4C000636841F287329342DCBF41F288336360B4
:10A4D000FEF7CAFC6168FEF7C7FC2C22414641F238
:10A4E0000800FFF767F941F208006946FFF74EF9E7
:10A4F000009B002B09DB0FB1019838600EB1029A66
:10A50000326045B10399296005E008F013F800991D
:10A510004FF0FF330160184604B0BDE8F08100BF82
:10A52000641B00202DE9FF419846194B86469E6822
:10A5300015460F4606F1090071460B9CFEF794FC88
:10A540002946FEF791FC4146FEF78EFCBDF83050DF
:10A550000C2231462846FFF72DF9284601A9FFF7BE
:10A5600015F9029800280ADD0A9938466A46FFF76D
:10A5700017F9009904B121600029D8BF029107F0B2
:10A58000D9FF029A0260104604B0BDE8F08100BF16
:10A59000641B00201FB500240094019441F20404C0
:10A5A0000294FFF7BFFF04B010BD00002DE9F04F8B
:10A5B00089B08A4616469B46149C0390FFF778FEA6
:10A5C000DDF80CC000285CD12F4B9A6B511C9963AD
:10A5D000D3F80880812C08F10A0307D0832C0CD112
:10A5E00006F1080908F12205182709E008F11A0503
:10A5F000814610271390129002E0054681460746D7
:10A6000061461846FEF730FC391FFEF72DFC314637
:10A61000FEF72AFC5946FEF727FC832C05D1494654
:10A62000FEF722FC0821FEF71FFC0023B34204DAE8
:10A630001AF80300E8540133F8E7002EA8BFAD195B
:10A64000832C0FD0139B129998B200910190414630
:10A65000E0B23A46B3B2FFF7BEF8832C0BD141F219
:10A660000F000AE00020139A9042EBDA129A115C74
:10A6700029540130F7E741F2030005A9FFF786F8F6
:10A68000069809B0BDE8F08F641B00201FB50024B8
:10A690000094019481240294FFF788FF04B010BD58
:10A6A0001FB5069C0094079C019483240294FFF735
:10A6B0007DFF04B010BD0000202A73B503460E468E
:10A6C000144622D8124A1946956805F10900FEF78A
:10A6D000CBFB0821FEF7C8FB2146FEF7C5FB002295
:10A6E000A24203DAB15C81540132F9E704F10C03B0
:10A6F0002946DAB241F21100FFF75CF841F211008D
:10A7000001A9FFF743F8019801E04FF0FF307CBD4D
:10A71000641B0020024B01225A805860FEF726BDC0
:10A72000641B002010B50A4CE16022616361029B4A
:10A730000399E361049A059B216262620021A3628E
:10A74000A061012084F8400084F8411010BD00BFD2
:10A75000641B002070B5174B174D002406461748A0
:10A76000AC63EC632C802C866C86AC86EC86EC6249
:10A770006C806C60AB6000F0C5FAA968A64214BF9B
:10A780000226264601224E724FF48040FFF712F84F
:10A7900021464FF48040FEF7F9FFA968224644F2B3
:10A7A0000B00FFF707F844F20B002146BDE87040AC
:10A7B000FEF7ECBFD01B0020641B002015A700088B
:10A7C00038B5094C0020A36A98472546E869064C2D
:10A7D00080470028FAD0A16809B10022A260BDE834
:10A7E000384000F0B7BA00BF641B00202DE9F04FDD
:10A7F00083462F4885B0D0F80890144600259A4625
:10A8000088464FF0FF331C2109F1090001930F9E88
:10A810000E9F0295ADF80C50FEF726FB2146FEF781
:10A8200023FB5946FEF720FB04F11001FEF71CFB49
:10A830003146FEF719FB2946FEF71FFBBAF1000F60
:10A8400008D01AF8052042550135062DF9D10630F9
:10A85000002207E0534602AA995CC1540133062B3B
:10A86000F9D1F4E7A24204DA18F802108154013257
:10A87000F8E7002CA8BF00193EB100232FB1B34266
:10A8800003DAFA5CC2540133F9E71C34A319DAB2D3
:10A8900049460120FEF78EFF01A90120FEF776FF51
:10A8A00007F048FE01990160084605B0BDE8F08F49
:10A8B000641B0020F7B503460F480E46856819460D
:10A8C000174602AC4FF0FF3205F1090044F8042DA1
:10A8D000FEF7CAFA3146FEF7C7FA3946FEF7C4FA60
:10A8E00029460C220420FEF765FF04202146FEF7CE
:10A8F0004DFF0198FEBD00BF641B00202DE9F04F05
:10A9000082466E4885B0D0F808800D461446514600
:10A91000002208F1090099460E9F0F9EDDF840B015
:10A920000292ADF80C20FEF79FFABAF1030F00F285
:10A93000B680DFE80AF0022A70701421FEF794FA5C
:10A940002146FEF791FA0021FEF797FAB9F1000FC0
:10A9500007D0002219F8021081540132062AF9D1D9
:10A9600006E04B4602A95A5CC2540133062BF9D1CA
:10A9700006303946FEF778FA0023A34203D0E95C9B
:10A98000C1540133F9E7183387E02021FEF76CFA50
:10A990002146FEF769FA0021FEF76FFAB9F1000FC0
:10A9A00007D0002219F8021081540132062AF9D189
:10A9B00006E04B4602AA995CC1540133062BF9D13B
:10A9C00039460630FEF750FA04F10C01FEF74CFA56
:10A9D0003146FEF749FA5946FEF746FA0022A242EE
:10A9E00003D0AF5C87540132F9E70019002204213B
:10A9F000129D8718AD180023B34205D015F803E067
:10AA000007F803E00133F7E701391A44F0D12434A1
:10AA100004EB830341E02821FEF726FA2146FEF7E6
:10AA200023FA0021FEF729FAB9F1000F07D000221E
:10AA300019F8021081540132062AF9D106E04B467A
:10AA400002A95A5CC2540133062BF9D139460630AB
:10AA5000FEF70AFA3146FEF707FA5946FEF704FAFE
:10AA60001199FEF701FA04F10801FEF7FDF91399B7
:10AA7000FEF7FAF90021A14203D06A5C4254013189
:10AA8000F9E70019002313998B4204D0129AD15C84
:10AA9000C1540133F7E72C34E3189BB200E00023E4
:10AAA0004146DAB20520FEF785FE052001A9FEF732
:10AAB0006DFE019805B0BDE8F08F00BF641B00205B
:10AAC00037B50B4B01469D6802AC05F10900FEF756
:10AAD000CBF94FF0FF3044F8040D2946042206203C
