:020000040800F2
:1050000000500020F57700081D6F00081F6F000892
:10501000216F0008236F0008256F000800000000C2
:10502000000000000000000000000000276F0008E2
:10503000296F0008000000002B6F00082D6F00088A
:105040004578000845780008457800084571000853
:105050004578000845780008816F0008A16F0008B6
:10506000C16F0008F56F000815700008457800084A
:10507000457800084578000845780008A1710008C7
:105080004578000845780008316F00084578000829
:10509000A5710008457800084578000835700008BB
:1050A000457800084578000845780008FD7000083C
:1050B000457800084578000845780008516F0008D9
:1050C000616F00084578000845780008716F000896
:1050D0004578000845780008416F000845780008C9
:1050E0008570000861710008457800080000000024
:1050F00000000000000000000000000000000000B0
:0C51000000000000000000005FF808F153
:1051100070B5012188B0044601F026FBA0F13005EE
:10512000072D37D803226846214601F045FB1C496C
:1051300004A801F09FFA204604A901F003FB0646EB
:1051400004A801F055FA1EB1ADB22846002110E0C6
:10515000144904A801F08EFA204604A901F0F2FADD
:10516000044604A801F044FA74B10A35ADB22846E9
:10517000314600F06BFE684601F025FBC1B22846BF
:1051800001F000F8012401E06FF00104684601F02D
:105190002FFA01E04FF0FF34204608B070BD00BF89
:1051A000384B01083A4B01087FB50121054601F053
:1051B000DBFAA0F13004072C23D81549684601F02A
:1051C00059FA2846694601F0BDFA0646684601F0DC
:1051D0000FFA6EB90F49684601F04CFA2846694645
:1051E00001F0B0FA0546684601F002FA65B10A34EA
:1051F000A4B22046012100F029FE204600F068FFFD
:1052000004E04FF0FF3001E06FF0010004B070BD2A
:10521000384B01083A4B0108F0B5012185B004462E
:1052200001F0A2FAA0F13006072E49D868462146BF
:105230000322072301F09AFA6846264901F058FA3A
:105240000546684601F0D4F97DB968462146032237
:10525000062301F08BFA68461F4901F049FA074618
:10526000684601F0C5F90FB92DE001251B496846D4
:1052700001F000FA2046694601F064FA07466846E4
:1052800001F0B6F91FB1B6B23046002110E0144962
:10529000684601F0EFF92046694601F053FA0446EA
:1052A000684601F0A5F98CB10A36B6B230463946E7
:1052B00000F0CCFD3046294600F04CFE012007E00E
:1052C0004FF0FF3004E06FF0010001E06FF00200EA
:1052D00005B0F0BD3C4B0108414B0108384B0108BB
:1052E0003A4B01087FB50121054601F03DFAA0F1D6
:1052F0003004072C23D81549684601F0BBF928462D
:10530000694601F01FFA0646684601F071F96EB968
:105310000F49684601F0AEF92846694601F012FAD5
:105320000546684601F064F965B10A34A4B2204626
:10533000032100F08BFD204600F054FE04E04FF006
:10534000FF3001E06FF0010004B070BD384B010880
:105350003A4B010808B50948094900F0B7FB09486C
:10536000094900F0B3FB0948094900F0AFFB0948BF
:105370000949BDE8084000F0A9BB00BF454B010842
:10538000E5520008514B0108195200085E4B010814
:10539000A9510008694B010811510008704700002D
:1053A00007B5002100910A460B46024801F06CF84F
:1053B0000EBD00BF200B002010B501310023934229
:1053C0000ED0040F092C01D8303400E0373401F836
:1053D000014C01330024000101F8024BDBB2EEE77F
:1053E00010BD000038B54FF000604FF4A04105F04B
:1053F000CFFB01243C4B3D4821461C7005F0B4FE18
:1054000004F036FD04F018FA2146402005F074FF40
:105410006FF07F4004F082FBE72004F0FBFB344890
:10542000047004F047FA7D2005F096FF18B1314969
:105430000C7005F0A5FF40F6B83004F0A3FA04F0B4
:10544000E1FF05F071F92C4801F0C4FB01F076FC96
:105450002A4A15786DB32A4C2378CBB900F024FC86
:10546000002811D002DA4FF47F0007E0012801D1B3
:10547000244803E0022803D14FF0FF1004F04EFB54
:10548000E72004F0C7FB03E01F49012020700870EB
:1054900000F0CEFB68B91D4A15780DB104F08EFB03
:1054A0001B4B13481649154A00241C7004700C70DD
:1054B0001470134D2C78002CC8D0154B1878002888
:1054C000C4D10C490D78002DC0D10F4C227822B1E7
:1054D000104B13B1FFF73EFF25700F4808B1FFF7DF
:1054E0005DFF00F099FCB1E7121A002000043000C3
:1054F0008F190020C82300203D5C00088C19002073
:105500008D1900200060FF00280B0020FC190020EE
:105510008E190020555300089D5300084D4B4E49ED
:105520005A6870B5501C58600C6814B10B685A1E4C
:105530000A604A48017829B149480178E1B1494CEB
:1055400034BB19E0484C236813B12268511E12E0A5
:10555000464A107880B946490B786BB9454A1078AD
:1055600050B9454E454D3178B9B1E72004F0CCFB38
:105570002B7883B1142121603C4B1C78002C34D152
:10558000204604F0BFFC40F6B73290421BD82CE016
:1055900000F09CFBF0E70121EDE72B784BB14FF6D3
:1055A000FF7004F0BBFA0124E72004F033FB3470F1
:1055B000E2E7E72004F05CFB314A107808B13221C1
:1055C000D9E76421D7E7204604F0A4FC2D4A1178DE
:1055D000C1B92D4803782BB1294A2848117803789E
:1055E0000B4230D00120214B0BE0002004F08AFC5C
:1055F00041F65731884205D9002004F08BFC234B3B
:10560000012018701F4A127872B91C49087858B1E5
:105610001F4B47F22F511868884217D91A600D4B5B
:10562000197809B900F0BAFB1A480268B2F57A7F16
:1056300005D300220260BDE8704005F0F3BD0368A9
:10564000591C016070BD00F0A9FBCBE71A68501C23
:105650001860E9E7280B0020D0230020FC19002067
:10566000B80E0020CD5C0008CC2300208A19002051
:105670008E190020901900208F1900208D1900200C
:105680008C190020A31900208B19002099190020E3
:1056900094190020D423002008B5064B186004F0AC
:1056A0005BFE04F06FFE04F08DFEBDE8084006F0DE
:1056B00011BD00BFD4010020074B1868052808D190
:1056C00006490A7A012A04D1887A0B7BC11AC8B22A
:1056D00070470020704700BF2C1A0020280B0020C4
:1056E0000D4B10B51868052813D10C4C217A0129EF
:1056F0000FD16289A389D01A012804D10021032087
:10570000217206F052FEA389E218591C907BA181F8
:1057100010BD4FF0FF3010BD2C1A0020280B0020C8
:10572000084B196805290BD1074B1A6D991881F898
:105730005400501CB0F5807F186501D100221A6515
:10574000704700BF2C1A0020280B002070B5234A98
:1057500092F85431012B3FD0D2F85801B0F5807F38
:1057600002D10021C2F85811D2F85831126D1B48ED
:10577000934203D1002180F8541170BD8CBFC3F552
:105780008072C3EB0202154CC0F85C21D4F85C5166
:1057900099B2402D07D94033403DC4F85831C4F880
:1057A0005C51402606E0E8180023AEB2C4F8580168
:1057B000C4F85C310A4A01255018C021324684F8E9
:1057C000545106F069FD2846314606F06FFE284622
:1057D000BDE8704006F0D8BD70BD00BF280B0020AA
:1057E0007C0B0020094B10B593E8140008331868AF
:1057F00010180AD008220649FFF7DEFD05492046A9
:105800000422BDE81040FFF7D7BD10BDE8F7FF1F29
:10581000830100209301002038B50D460446AC42B8
:1058200003D254F8043B9847F9E738BD08B5074858
:105830000749FFF7F1FF07480749FFF7EDFF074862
:105840000749BDE80840FFF7E7BF00BFE84E010881
:10585000E84E0108E84E0108304F0108304F0108BA
:10586000304F0108FEE70000054A08B513680549F6
:1058700018188842106001D90BF0F0F8184608BDDE
:1058800000000020004800204FF0FF30704701204A
:1058900070470000014B1868704700BF880C00205B
:1058A000064B0246582000FB013101F1080303CBEF
:1058B0001060516018689060704700BF880C00202D
:1058C000014BD3F864017047880C0020064B024658
:1058D000142000FB013101F5B67303CB1060516059
:1058E00018689060704700BF880C00200E4B2DE9AF
:1058F000F041D3F8647180460024BC4211DA1425CB
:105900006543094E4146701900F5B6700C220CF043
:10591000EFFA20B97519D5F86801BDE8F0810134B6
:10592000EBE70020BDE8F081880C00202DE9F0476E
:1059300088B0814668460D4600F09CFE1E4B002450
:10594000D3F800A054452DDA55B3582666431A4FB4
:10595000494607F1040808EB060004300C220CF05D
:10596000C7FAE8B928460CF093FA06F1100140286E
:1059700034BF0246402208EB010029460BF09AFC96
:10598000BE19012286F85820694604A8746800F000
:1059900093FE04A8A047044604A800F029FE03E0F3
:1059A0000134CFE74FF0FF34684600F021FE204677
:1059B00008B0BDE8F08700BF880C002038B5054668
:1059C000064C28B104F04CF9012384F8303238BD7C
:1059D00004F0F4F884F8305238BD00BF880C002081
:1059E000024B00221A7004F0D5BD00BF8E190020B2
:1059F000034B01224FF4C0201A7004F067BD00BFB2
:105A00008E1900202DE9F341264B07461878884669
:105A100018B925490D782E4615B14FF0FF303FE0FB
:105A2000224C0120D4F8343284F8385203F01F019C
:105A300000FA01F05A0984F8395284F83A5284F88D
:105A40003B5204EB8202D2F83812C4F83C520143B4
:105A5000C2F8381204F50F7041F28832C4F84022BF
:105A600004F50E7100902A46581C2B4603F05EF890
:105A7000002815DDD4F83432590904EB8104D4F838
:105A8000384203F01F0244FA02F414F0010007D078
:105A9000184639463346424603F0E0F8044B1E6090
:105AA000BDE8FC81A2190020A3190020880C002069
:105AB000941900200A4604490346D1F834021946D5
:105AC000002303F043B900BF880C00202DE9F84FF4
:105AD00004468946002941D000283FD0204B1D684C
:105AE000042D3BD00027AF421E4E4FF058080FDA6E
:105AF00008FB07F856F80810494507D106EB0802DD
:105B0000101D21460C220CF0F3F938B30137EAE7F7
:105B100008FB05F8A6F1040A0AEB080708F11000D3
:105B2000C7F804900021402230180BF049FD06EB25
:105B30000801081D0C2200210BF042FD206861685D
:105B400007F1080203C2A3680020013507F1040B26
:105B500087F858001360543746F8045CBDE8F88FA6
:105B6000880C00208C0C002030B51E48ADF5797DE6
:105B700006F02EFD002832D11B4B1C481C4D04930F
:105B80001C491D4A1D4B059009951D481D4D069148
:105B900007920A931C491D4A1D4B0B900E951D48F8
:105BA0001D4D1E4C0C910D921D491E4A0F931E4B0C
:105BB0001090139515A85FAD11911292149308944B
:105BC00003900CAC029504F0F7FC284604F0FAFCB4
:105BD00000940448154902AA04AB06F000FD0DF537
:105BE000797D30BDC80F0020B55A0008055A00085D
:105BF00019A50008F1590008E1590008BD5900082D
:105C0000FD6200082D59000895580008A1580008A9
:105C1000C1580008CD580008D1A50008F5A5000816
:105C2000FD5D0008ED580008E5A50008E8F7FF1F36
:105C3000014807F0CBBA00BFC80F002030B50220E2
:105C400011228DB0014602F0F1FE051E28DB154938
:105C500007A806F0CFFD022316200024ADF80C3073
:105C60008DF80E003321E0220123BB208DF8114076
:105C70008DF80F108DF810208DF812308DF813006C
:105C80000324102203A90091019200231322284625
:105C900007A903F065F8013CF3D1284602F0F4FEB1
:105CA0000DB030BDE8F7FF1F10B5074CFFF75CFFE4
:105CB000204606F090FC204606F0E4FF0446FFF77D
:105CC000BDFF204610BD00BFC80F002038B5114CE5
:105CD000D4F8505B2DB1D4F8501B4B1EC4F8503B88
:105CE00038BDD4F8543B0C4A52F8230003F03EFF71
:105CF000E72003F08FFF094A6420D4F8541BC4F84E
:105D0000500B10684B1C8342C4F8543BA8BFC4F826
:105D1000545B38BD880C00205C2101080400002081
:105D200010B5054CD4F8340202F0AEFE18B94FF0AD
:105D3000FF33C4F8343210BD880C002008B5FFF7DB
:105D4000EFFF02200121062202F070FE114B002815
:105D5000C3F834021ADB0221A3F8581B33211622A0
:105D600083F85B1BD02183F85A2B83F85D1B362206
:105D7000042183F85C2B83F85F1BE522064983F836
:105D80005E2B1022BDE8084002F0A4BE4FF0FF30A9
:105D900008BD00BF880C0020E0170020044B012242
:105DA00000205A801880D886024B1A70704700BFB6
:105DB0005C1B0020A21900200F4B2DE9F041D3F805
:105DC000647180460024BC4211DA142565430A4EF2
:105DD0004146701900F5B6700C220CF089F820B914
:105DE000751995F87801BDE8F0810134EBE74FF0C3
:105DF000FF30BDE8F08100BF880C002008B5FFF738
:105E0000DBFF0138082803D8024B1918087F08BDAA
:105E1000022008BD5C210108084B0022D3F848127B
:105E200003F513738A4208DA93F8500010B100208A
:105E300083F8500001325133F4E77047880C00209A
:105E4000014806F0B5BB00BFC80F002014282DE99B
:105E5000F34104460E4675D8FF2973D000F0A8FB25
:105E600028B10D2C6ED00F2C6CD00E2C6AD000F007
:105E7000BDFA08B1012C65D900F0FEFC18B1A4F1FF
:105E80001203012B5ED9304D20012F582F492A18BB
:105E90008F42B2F8048001D1042003E02C4B9F42D2
:105EA00003D10820012105F033FAADF80480062E55
:105EB00044D8DFE806F00411181F26313C00224ABE
:105EC000102302EB041403200021A1738DF8073086
:105ED0008DF80600083431E004218DF8071005EB39
:105EE0000414012229E048228DF8072005EB041450
:105EF000022222E028208DF8070005EB041403227B
:105F00001BE0114B182203218DF807208DF8061095
:105F100003EB0414042210E00B481C2103238DF82A
:105F200007108DF8063000EB0414052205E0002070
:105F30008DF8070005EB04140622A273384601A968
:105F400005F0B8F8BDE8FC8114000020000801400D
:105F5000000C0140142870B504460E463ED8204B74
:105F600003EB0010817B012938D0022936D00329A8
:105F700034D0062932D0FF2930D000F019FB30B1DF
:105F80000D2C2BD00F2C29D00E2C00D170BD00F081
:105F90002DFA10B1012C00D870BD00F06DFC20B1BD
:105FA000A4F11202012A00D870BD0D4D05EB0413B7
:105FB000987B042803D120460021FFF747FF012EDC
:105FC00005D124012819295983880B6170BD2EB988
:105FD000240129192B598A885A6170BD70BD00BFF0
:105FE00014000020142810B5044602D94FF0FF30E9
:105FF00010BD1A4B03EB0010817B0029F6D0FF295E
:10600000F4D000F0D5FA28B10D2CEFD00F2CEDD044
:106010000E2CEBD000F0EAF908B1012CE6D900F023
:106020002BFC18B1A4F11202012ADFD90B4B03EBB0
:106030000410817B062908D193F850114A1ED3B26F
:10604000FD2BD3D82046FFF701FF04482401011996
:106050008988005905F07EF810BD00BF14000020AB
:1060600010B54FF4004086B005F01EF901214FF441
:10607000007005F04DF9154804F094FD012400234B
:106080004FF46022114801A901938DF808308DF872
:106090000930039204938DF8144004F0B1FD0B48CD
:1060A000214604F0D1FD094804F0D7FD074804F06B
:1060B000D9FD0028FAD1054804F0D8FD034804F0C2
:1060C000DAFD0028FAD106B010BD00BF002401405F
:1060D000092838B5044601D80A34A4B200F068FA99
:1060E00040B10D2C02D14FF0FF3038BD0F2CFAD04B
:1060F0000E2CF8D000F07AF900F0BEFB18B1A4F134
:106100001203012BEFD9142CEDD81C4D05EB041014
:106110008279FF2AE7D095F85111914206D0837B0E
:106120000621204685F85031FFF790FE95F8525130
:10613000012D05D1FFF794FF104A002082F852018B
:106140000E4D05EB0414A17995F851318B4207D01F
:106150000B480122002304F09BFDA17985F8511121
:106160000748012104F08BFD0548022104F0E0FD01
:106170000028F9D0024804F0D8FD38BD14000020F2
:10618000002401402DE9F041142888B004460D4652
:1061900000F2A780544B03EB00108168002900F047
:1061A000A08000F005FA40B10D2C00F09A800F2C71
:1061B00000F097800E2C00F0948000F017F910B1D9
:1061C000012C40F28E8000F057FB20B1A4F11202A6
:1061D000012A40F28680444B03EB0410817B09B115
:1061E00004297ED1414E424A37684BF680316943DB
:1061F000B7FBF2F3581EFF2586B2012091FBF5F79D
:10620000014605F085F804212046FFF71FFE364AB7
:10621000BFB202EB04139968B1F1804F02D10120A3
:10622000014608E0334D0220A94203D032488142A2
:1062300003D10420012105F077F82B4B4BF67F3278
:1062400003EB0415ADF80460A868002601A9ADF8B9
:106250000A60ADF80660ADF8082005F041F9ADF828
:106260001860AE896021012005F10808ADF8101012
:10627000ADF81200ADF8167046B9A86804A905F08B
:1062800079F9A868082105F0B5FA1FE0042E08D1B5
:10629000A86804A905F0B2F9A868082105F0B2FAC7
:1062A00014E0082E08D1A86804A905F0EBF9A86845
:1062B000314605F0B1FA09E00C2E07D1A86804A90F
:1062C00005F022FAA868082105F0AEFA064A012175
:1062D00002EB0414A06805F081FAA068012105F022
:1062E0005AFA08B0BDE8F08114000020C402002072
:1062F00000366E010004004000080040014B1868A1
:10630000704700BF2C0B002007B5002100910A4602
:106310000B46024800F0B8F80EBD00BFFC17002085
:10632000024B18785978401A704700BF04180020B3
:10633000064B5A781978914204D99818013280781E
:106340005A7070474FF0FF30704700BF04180020AC
:10635000054B5A781978914202D99818807870477D
:106360004FF0FF30704700BF041800207047000056
:10637000F8B5094B054693F82200164650B10C4675
:106380008F18BC4206D0296828460A6814F8011BF9
:106390009047F6E73046F8BD0418002010B50C4BC6
:1063A000012293F822408CB193F823401F2C02D98C
:1063B0004260002010BD93F824001C1884F82510BA
:1063C000411CC8B283F8240083F82300104610BD96
:1063D0000418002000224260024A4FF47A71816062
:1063E000026070479021010870477047014B93F895
:1063F000590070470418002013B5084C0021009183
:1064000004F164000A460B4600F03EF804F16C000B
:1064100002B0BDE81040FFF7DDBF00BF0418002048
:1064200008B5034B53F8200000B1804708BD00BFFA
:106430008018002007B5002100910A460B4602484B
:1064400000F022F80EBD00BFC01800202DE9F04179
:10645000002407460E4625463B1919790A22304684
:1064600000F08CF82E218046304600F055F80134BB
:106470004044032C0544EFD13046F9790A2200F05C
:106480007DF82818BDE8F08130B58371044D9DF882
:106490000C300446056001714271C37130BD00BF0C
:1064A000B0210108044B054A00201A601871587188
:1064B0009871D871704700BFC8180020B02101083A
:1064C00007B5002100910A460B460248FFF7DCFFA2
:1064D0000EBD00BFD0180020F8B506460C468F1838
:1064E0000025BC4207D0336830461A6814F8011BF7
:1064F00090472D18F5E72846F8BD38B505460C46F7
:10650000084641B10BF0C4FC2B6802465B68284684
:106510002146984738BD38BD08B503681A689047CA
:1065200008BD70B500238AB08DF82430012A98BFC9
:106530000A220DF12303B1FBF2F505FB1211CCB2D7
:10654000092C1E4601D8303400E03734E4B203F899
:1065500001492946002DEED13146FFF7CEFF0AB0A2
:1065600070BD10B5044622B90268C9B212689047DE
:1065700010BDD2B2BDE81040FFF7D3BFFFF7F1BFA7
:1065800007B5002100910A460B460248FFF77CFF41
:106590000EBD00BFDC18002007B5002100910A469F
:1065A0000B460248FFF770FF0EBD00BFE418002045
:1065B000014B587D704700BFEC1800207047000069
:1065C00007B5002100910A460B460248FFF75CFF21
:1065D0000EBD00BF0419002007B5002100910A4636
:1065E0000B460248FFF750FF0EBD00BF10190020F8
:1065F00010B5044600680AF061FB204610BD10B5D6
:106600000446006808B10AF059FB00232360A36028
:10661000636010BD38B504460D46006801310BF0CB
:106620008DF810B184E82100012038BD036810B551
:10663000044613B14068884207D22046FFF7EAFFBC
:1066400020B1A16809B922681170012010BD70B590
:106650000E46114604461546FFF7E8FF18B92046D6
:10666000FFF7CDFF04E0A560206831460BF0B2FBD8
:10667000204670BD38B50023044603604360836044
:1066800003730D4639B108460BF002FC2946024659
:106690002046FFF7DCFF204638BD884210B50B4688
:1066A000044607D0096819B19A68FFF7D0FF01E0E6
:1066B000FFF7A5FF204610BD002310B50446036078
:1066C000436083600373FFF7E8FF204610BD38B5D1
:1066D00005460C4641B108460BF0DAFB214602465E
:1066E0002846FFF7B4FF01E0FFF789FF284638BDD1
:1066F000826808B50B4612B919B9012008BD11B955
:106700000368187802E000680BF076FAD0F1010017
:1067100038BF002008BD10B58B688468E41AA24217
:106720000CD8006868B1096851B180181A460BF09E
:10673000DFFBD0F1010038BF002010BD002010BDEC
:10674000084610BD82688B689A4202D30022FFF788
:10675000E2BF002070478368994203D2006810B1FD
:10676000405C704700207047FFF7F5BF9A422DE963
:10677000F04107460D4614461E4601D934461646DA
:1067800038460C49FFF776FFA86884420FD829687D
:10679000864228BF0646002211F806808A552B68DB
:1067A00038461919FFF793FF286800F80680384625
:1067B000BDE8F0812C4D010810B58B680446FFF749
:1067C000D5FF204610BD006808B10AF04FB97047E8
:1067D00007B5002100910A460B460248FFF754FE18
:1067E0000EBD00BF1819002007B5002100910A4610
:1067F0000B460248FFF748FE0EBD00BF20190020DF
:1068000007B5002100910A460B460248FFF73CFEFF
:106810000EBD00BF281900204FF0FF3070477047B1
:1068200008B5054805F019F80348802105F01DF862
:106830000028F9D0012008BD00440040202108B5FF
:10684000034805F012F8003018BF012008BD00BF52
:106850000044004008B5024805F003F808BD00BF39
:106860000044004000224260024A4FF47A71816085
:1068700002607047C0210108014B187C704700BFBF
:106880003019002013B5084C0021009104F11400C8
:106890000A460B46FFF7F8FD04F11C0002B0BDE804
:1068A0001040FFF7DFBF00BF3019002070474FF0E6
:1068B000FF307047084608B5FEF732FF012008BDDB
:1068C00008B5FEF7F9FE08BDFEF70ABF00224260D8
:1068D000024A4FF47A71816002607047E02101083A
:1068E0000846FEF7D9BE000013B5074C0021009101
:1068F00020460A460B46FFF7C7FD04F1080002B028
:10690000BDE81040FFF7E2BF5C19002000230360E0
:106910001846704700230360184670470023036041
:10692000184670472DE9F04191F8008086B00C467A
:10693000B8F1000F14BF90464FF0000806460BF068
:10694000A7FA074620460BF0A3FA012518231E21BB
:106950000222019302910392059000230095049472
:10696000404631463A4602F03BFB034B18705D70DF
:1069700006B0BDE8F08100BF7419002048F20203A0
:10698000984210B517D008DC992844D0591E884287
:1069900045D123480122427110BD48F210029042B5
:1069A00028D0703290423AD11D48012100238170D5
:1069B000C170037110BD1A4C627952B1194800229E
:1069C00002704FF47F4003F0A9F8E72003F022F9AA
:1069D00006E0A07910B1431EA37101E00121A17569
:1069E0000021217661716176E175A176E1762177EA
:1069F000216210BD0A7D0A4852B90123C3754FF4C4
:106A00007F4003F08BF8E720BDE8104003F002B9A7
:106A10000021C17510BD024B012183F8241010BD67
:106A200074190020FC1900201FB54FF03C0C0A23FC
:106A30004FF461514FF461628DE80E10684601A970
:106A400002AA03AB01F030FB05B000BD1FB5002367
:106A5000009301930293039301A8694602AA03AB32
:106A600001F0EAFA05B000BD30B5564D002497B0EC
:106A7000FF202C76AC706C76EC70AC766C70EC769B
:106A80006C71EC7585F824402C6203F047F8E72020
:106A900003F0C0F821462246204602F07DFA2B463C
:106AA000012103F8074F0E200A4601F081FB6B79A4
:106AB000012B05D1642002F0DBFE01F01FF8F6E7A0
:106AC00010210C2001F0C0FB3F4801F087FF3F4838
:106AD00002F0D6FB012002F0B7FB68463C4900F00B
:106AE00061FD384D6A78A87852EA00031ED195F806
:106AF0002540002C5CD0FF2002F05AFB002857D123
:106B00001A24013C06D0E72003F0B2F8322002F04C
:106B1000AFFEF6E72B4D0E202B4603F8064F012162
:106B2000224601F045FB85F82540DAE7E72003F02F
:106B300071F801210E200022AB1D01F00BFBA9789A
:106B400011B102F0BBFB28701E4C012123780022FA
:106B50005D1C234603F8065F0E2001F029FB002090
:106B60000146012202F018FA012523462A4603F8BD
:106B7000075F29460E2001F01BFB02F093F9642009
:106B800002F076FE002002F041F948F2442084F839
:106B9000265002F027FB4FF47F4002F0BFFFE720B2
:106BA00003F038F8FFF740FF0022A27517B030BDA0
:106BB000E72003F05DF8FA2002F05AFE684600F084
:106BC00045FD8EE774190020F821010868010020B6
:106BD0002569000830B5384C85B0A06203F0ECFAA6
:106BE00003F02CFA354B36483649374A009301906A
:106BF000364B029103923649364A374802F0F2F892
:106C0000642002F035FE002002F000F90025012387
:106C100048F24420E57684F8263002F0E3FA2F4863
:106C20000188012906D00E2010212A46A31D01F05B
:106C300091FAA8B1FF2002F0BBFA10210E2001F05A
:106C400003FB0021264B0024CC5401311029F9D13B
:106C500022460E2001F0ACFA204A148003F0F4FB27
:106C6000154C237993B9A07910B90121A1750DE0D4
:106C7000E07958B90146012202F08EF9012123463C
:106C800003F8071F0E200A4601F092FA0A4B1A7900
:106C90000AB9987D30B94FF47F4002F03FFFE720FA
:106CA00002F0B8FF0F4801F0B5FAFFF7CFFE05B0CC
:106CB000BDE83040FFF7B8BE74190020F5A0000809
:106CC00009A1000875A100089DA100081D69000820
:106CD0000D690008156900087D690008B6020020EA
:106CE0007A190020A019002030B5022001210622C7
:106CF00085B001F09BFE051E1ADB00213522082419
:106D000002238DF802108DF80320694610228DF8B9
:106D100004408DF805408DF806408DF80740ADF829
:106D2000003001F0D7FE0446284601F0ADFE01E038
:106D30004FF0FF34204605B030BD0000F7B56C4C75
:106D400094F82E202346002A51D194F82F000028D1
:106D50004DD194F8260020B902F058F8012184F8AA
:106D60002610634DA97D11B1FFF77EFE19E02A7947
:106D7000BAB1EC7DACB921462246204602F00CF9AE
:106D80005C480BF085F85C4E074630460BF080F807
:106D900000960190711F03203A46234602F098F8AE
:106DA0002C71534BD878012814D1D97D012911D1E8
:106DB0005A79012A0ED1032450480BF069F8013C9E
:106DC00082B24E49012001F0D7FF14F0FF04F3D145
:106DD000474BDC70464CE07D002800F0878094F83B
:106DE0002F10002940F08280227E7AB37EE093F853
:106DF0002650002DB5D0424C22780AB102F0DEFEBA
:106E00003B4C0025284684F82E50657184F82650A6
:106E1000E57525766576A576E5762577256203F016
:106E2000BDF9642002F024FDA37D3BB1284601F0AA
:106E3000EDFF012084F82600FFF716FE4FF47F4097
:106E400002F06CFEE72002F0E5FE8AE7642002F023
:106E50000FFD04F1300001F06BF9247F0CB34FF407
:106E60007F0002F05BFE224C207F90B1E72002F011
:106E7000D1FE4FF4FA7002F0FBFCE72002F0D8FEDE
:106E80004FF4FA7002F0F4FC237F591ECAB2227745
:106E9000E9E7234603F8090F01210E20032201F040
:106EA00087F94FF6FF7002F039FEE72002F0B2FEDC
:106EB000FEF744FF00280E4C16DA94F82E10A9B9FC
:106EC000FFF712FF002801DA022200E003222277F6
:106ED000074C0121207F234603F8090F03220E20CF
:106EE00001F066F9002300E001232376FEBD00BF18
:106EF000741900206B01002070010020790100202E
:106F0000FC19002007B5002100910A460B460248F3
:106F1000FFF7BAFA0EBD00BFE01900207047FEE788
:106F2000FEE7FEE7FEE7704770477047FEF7F6BAE8
:106F300008B5024B0BB1AFF3008008BD00000000A4
:106F400008B5024B0BB1AFF3008008BD0000000094
:106F500008B5024B0BB1FFF747FA08BDE96300081B
:106F600008B5024B0BB1FFF740FA08BDEB63000810
:106F700008B5024B0BB1FFF721FB08BDBD6500084A
:106F800008B5012004F006F838B1012004F012F829
:106F9000024B13B10020FFF743FA08BD216400083B
:106FA00008B5022003F0F6FF38B1022004F002F821
:106FB000024B13B10120FFF733FA08BD216400082A
:106FC00008B5042003F0E6FF78B1042003F0F2FFD7
:106FD0000020064B0146188002F0D8FE044810211C
:106FE0000122BDE8084004F0F0BB08BD0E1A0020E5
:106FF000002C014008B5082003F0CCFF38B1082070
:1070000003F0D8FF024B13B10320FFF709FA08BDC4
:107010002164000808B5102003F0BCFF38B110202F
:1070200003F0C8FF024B13B10420FFF7F9F908BDC4
:107030002164000808B5202003F0ACFF38B12020FF
:1070400003F0B8FF0E4B13B10520FFF7E9F940201C
:1070500003F0A0FF38B1402003F0ACFF084810B1A6
:107060000620FFF7DDF9802003F094FF38B180207F
:1070700003F0A0FF024911B10720FFF7D1F908BDC5
:107080002164000808B54FF4005003F083FF40B1BD
:107090004FF4005003F08EFF174B13B10D20FFF794
:1070A000BFF94FF4804003F075FF40B14FF48040CA
:1070B00003F080FF104810B10E20FFF7B1F94FF434
:1070C000004003F067FF40B14FF4004003F072FF4F
:1070D000094911B10F20FFF7A3F94FF4006003F045
:1070E00059FF38B14FF4006003F064FFBDE8084079
:1070F00002F036BB08BD00BF2164000808B50F4888
:10710000102104F09BFBC0B10C48102104F0A1FB3E
:10711000002002F0E7FE28B9094B1A880A3290B223
:10712000188008BD10210548002204F04EFB002005
:107130000121BDE8084002F029BE08BD002C014035
:107140000E1A002008B5012004F06EF930B10120BC
:1071500004F07CF9BDE8084004F04AB908BD00001D
:1071600008B5022004F060F9B0B10C4B00224FF4D6
:1071700000301A7003F01EFF012004F07DF810B1FA
:10718000012004F083F804F033F9022004F05EF9E2
:10719000BDE8084004F02CB908BD00BFA3190020C9
:1071A00002F06CBA00F062B838B514490B78012BC4
:1071B00023D1134A13680BB90B7038BD114C402B07
:1071C000206881B205D94030403B206013604025E3
:1071D00004E09DB2C3180020236010600A4A5018D2
:1071E000C0212A4605F058F80120294605F05EF92D
:1071F0000120BDE8384005F0C7B838BD7C0C002040
:10720000840C0020800C00207C0B0020094908B56C
:107210000020094B0122088003201A7005F072F942
:10722000064B0246188006484FF48871BDE80840B6
:1072300005F049B8340B0020300B0020320B002041
:10724000360B0020074B1868052809D1064B1A6831
:10725000511C052A196003D100201860FEF776BA88
:10726000704700BF2C1A0020E81900203A4A38B5B0
:1072700011683A4B88B23A4D18801C882988214001
:1072800001F4007084B244B14FF6FF5515609A784E
:10729000511CC8B29870FFF7D5FF304C304B258891
:1072A0001A882A4002F4004188B225461C4608B1DB
:1072B00004F02CFF2A882388134003F4806188B2ED
:1072C00030B1254B27494FF6FF321A604868804796
:1072D000224A234B11881B88194001F4005081B2C7
:1072E00019B11D494DF6FF7008601288134003F470
:1072F000805398B230B1184A4EF6FF7111600020E9
:1073000003F0C4FB154B164918880A88024002F4A2
:10731000006398B260B114490A7812B103F096FB89
:1073200002E0022003F0B2FB0B4B4FF2FF7018603B
:107330000A490B480A880388134003F480718AB213
:1073400042B1054B4FF6FF6018600720BDE838409A
:1073500003F09CBB38BD00BF445C0040EC1900202A
:10736000142400200C020020D8020020034B987A3D
:1073700010B1034905220A60704700BFF0230020C6
:107380002C1A0020014B04221A6070472C1A00208E
:10739000034B1A78202A01D100201870704700BFD3
:1073A000F019002070470000212810B508D11148BD
:1073B0000368197801F07F02212A11D0022010BD44
:1073C0002028FBD10B4B19680A780B4902F07F0388
:1073D0000A4A212B0CBF0B46002310700BB9EDE7B6
:1073E000074B044C20680024836144822046984760
:1073F000204610BD1024002051740008F019002010
:1074000039740008074B19680A7802F07F03212BB2
:1074100005D1022801D1002070472228FBD002208C
:10742000704700BF1024002009B1022070470128D6
:10743000FBD808467047000020B9034B08221968A2
:107440000A8270470148704710240020D4010020B0
:1074500020B9034B082219680A8270470148704717
:1074600010240020D4010020054B1968CA78042A92
:1074700004D8044B03EBC20104F0C8BB00207047E2
:1074800010240020DC010020014904F0BFBB00BF34
:10749000FC010020014904F0B9BB00BF0402002038
:1074A000334A344BD179186810B500244172847284
:1074B000C472204604F01AFF20464FF4007104F015
:1074C0001DFF1021204604F025FF4021204604F036
:1074D000C1FF8021204604F0ADFF204604F076FF76
:1074E000254B204693F8641004F0EEFF204604F08C
:1074F0005CFF0120214604F001FF0120C02104F0BF
:1075000099FF0120202104F005FF0120214604F00D
:107510001EFF02204FF4C06104F0F0FE02204FF481
:10752000807104F087FF0220214604F010FF022042
:10753000202104F0EFFE0320214604F0DFFE0320AB
:107540004FF4887104F086FF0320402104F0BCFF53
:1075500003204FF4405104F0FAFE0320214604F0CA
:10756000D9FE204604F064FD044A0120106010BDDD
:107570006522010810240020D40100202C1A0020CC
:1075800010B5FEF72FF9054B00241868847203F03C
:1075900045FA04F0CDFF02490C6010BD1024002014
:1075A0002C1A002038B504460D46FFF78FF9204607
:1075B00025614FF41651FFF793F9204638BD70B599
:1075C00006460D46002428460AF062FC844208D292
:1075D000295D3046FFF76EF9012002F049F90134C8
:1075E000F1E770BD2DE9F84304460F4690460D467D
:1075F000C7EB05095FFA89F92046FFF761F9002812
:10760000FADD2046FFF760F9C145C6B206D1002376
:107610002B7020460C49FFF7D2FF0AE00D2EF6D062
:107620000A2EF4D020463146FFF744F905F8016BE5
:10763000DEE72046FFF744F9002803DD2046FFF788
:1076400043F9F6E7BDE8F8832A4D0108F0B585B0A7
:107650000446FFF735F9002840F39D802046FFF7E8
:1076600033F9C0B2772867D104F114060021212232
:10767000304604F1350509F0A3FF002121222846F8
:1076800009F09EFF04F15607002284F85620204698
:107690007A704249FFF793FF204631462022FFF7D8
:1076A000A1FF20463E49FFF78AFF394601222046C6
:1076B000FFF798FF94F85630A3F130010329F0D872
:1076C000312B0BD120463749FFF779FF2046364949
:1076D000FFF775FF20463549FFF771FF94F8560014
:1076E000B0F1300708D020463149FFF768FF204647
:1076F00029462022FFF776FF20462E49FFF75FFF3D
:1077000023693A4630462946984720462A49FFF7DA
:1077100056FF20462949FFF752FF20462849FFF728
:107720004EFF20462749FFF74AFF20462649FFF72C
:1077300046FF2046254929E069282CD1244A01AB7F
:1077400010685168002503C39168204619602149DB
:10775000FFF735FF01AEAE5D300900F13001392988
:1077600088BF00F1570106F00F062046FFF7A2F888
:1077700006F13001392988BF06F15701204601354D
:10778000FFF798F80C2DE5D11349204605B0BDE868
:10779000F040FFF714BF05B0F0BD00BF7E4B0108FD
:1077A000854B0108B24B0108E84B0108134C010856
:1077B000594C0108644C0108A74C0108C74C01084A
:1077C000FA4C01082D4D01086C4D01089D4D010832
:1077D000E8F7FF1FB34D01082A4D010807B5002146
:1077E00000910A460B460248FEF74EFE0EBD00BF52
:1077F000F4190020002100F004B80D4B5B584350F1
:1078000004310C480C4B42189A42FFF4F6AF0B4A75
:1078100000F003B8002342F8043B094B9A42FFF4FE
:10782000F9AF03F07DF8FEF701F8FDF7DBFD7047D7
:10783000304F010800000020200B0020200B00200A
:1078400020240020FFF7FEBF73B544790023022CEB
:1078500001930FD0032C19D0012C2BD1164D286980
:107860002E4620B1296901A888470246B8B9B168F7
:1078700001201BE0104DE8682E4620B1E96801A800
:107880008847024658B9B16802200FE00A4D6A697C
:107890002E464AB16B6901A89847024620B1A968F3
:1078A0002046BDF8043003E0B168032000221346EF
:1078B00000F05EFB7CBD00BF5C1B0020072810B5FC
:1078C0000CD801290AD8012404FA00F401FA00F0C6
:1078D000034B1A6822EA040202431A6010BD00BF7B
:1078E00064020020F0B5012187B0054604F03EFE99
:1078F00000F48043044698B250B3B4F5824F27D1C8
:107900002846052104F032FE002607460735344696
:10791000BE4208D02846022104F028FE0136241871
:107920000435B6B2F4E7744B188E21188AB21A8661
:10793000D86B2418DC63D96B9A6B914240F0CE80EF
:1079400093F84000002800F0C9809B69992033E03B
:1079500024F4FF4121F07F0290B2002800F09B80C8
:1079600048F2100294422AD00CD8B4F5004F40F2ED
:10797000C08048F202039C4217D9991C8C4240F007
:10798000B88012E048F2800084420ED005D848F258
:107990004002944240F0AD8051E0B4F5024F04D073
:1079A000B4F5084F40F0A5806CE053498869002881
:1079B00000F094808B69204600210A4669E000238C
:1079C000EA1851790DF803100133042BF8D1687AC5
:1079D0002B7BAA7AE97A8DF804008DF807308DF8B0
:1079E00005208DF8061005F10D00002306AAD21817
:1079F000C15C0133042B02F8101CF7D105F1110012
:107A0000002306AAD218C15C0133042B02F80C1C17
:107A1000F7D105F11500002300AAD218C15C01338B
:107A2000042B1174F8D1344928798A698DF814002F
:107A3000002A53D08B6920466946152229E0053576
:107A40000021284604F099FD04210090284604F006
:107A500094FD08210190284604F08FFD0C2102902E
:107A6000284604F08AFD10210390284604F085FD85
:107A7000214B04909969002930D09B6920466946C2
:107A8000142206E01C48826942B38369691D2046BE
:107A90000122984722E041F203039C4205D00C33B7
:107AA0009C4202D0591E8C421AD16C1D04212046E2
:107AB00004F063FD39301CD12D790F480021C562D7
:107AC000204604F05AFD04210546204604F055FDE9
:107AD000393003D128460121FFF7F0FE012009E0EB
:107AE000054A138899B28C4204D0B4F5805FF5D171
:107AF00000E0002007B0F0BD5C1B002038B50A4C48
:107B0000638898B208B9002038BD606801780429FC
:107B1000F9D1FFF7E7FE01280546F4D10022628083
:107B200001F05AFC284638BD5C1B00202DE9F047C7
:107B30000446884691460025BC4B5A8890B20028DE
:107B4000FAD05E683178042940F072813046012114
:107B500004F00CFD05463046FFF7C4FE002840F057
:107B60005C8141F20703771D9D4253D85A1E95420E
:107B700080F0AC8040F20220854200F0A78014D84B
:107B80000C2D09D8082D80F0A180002D00F0458132
:107B9000062D40F29B80DDE00D2D00F0948040F238
:107BA0000127BD4240F039818DE041F20202954249
:107BB00018D8B5F5805F00F28980B5F5017F40F2F5
:107BC000828040F207218D4240F0278133790021E5
:107BD00004F8013B384604F0D0FC0146204604F08E
:107BE000B7FC1AE141F20400854200F0898040F2BE
:107BF000A0803846002104F0C0FC042120603846F3
:107C000004F0BBFC6060083406F10D07224606F163
:107C10001D016EE041F21100854254D02CD841F292
:107C20000B02954252D01CD841F209018D424DD031
:107C300000F28B800021384604F09FFC0421206074
:107C4000384604F09AFC08216060384604F095FC40
:107C50000C21A060384604F090FC04F10C0AE060AE
:107C6000DAE041F20F00854263D035D841F20D02CF
:107C7000954240F0D28043E042F206018D4222D08C
:107C800008D8B5F5005F40F2C88042F204039D4277
:107C900019D983E042F208039D42C0F0BE80581C0F
:107CA000854210D944F20B02954240F0B6807179BA
:107CB000DFF878A13846AAF83010012104F056FC0C
:107CC000AAF83200A9E037792770A6E038460021EB
:107CD00004F053FC2060A0E00021384604F04DFC85
:107CE000A2464AF8040B0421384604F046FC6060C2
:107CF00092E057F8043B8F4242F8043BF9D18CE004
:107D00000021384604F039FC04212060384604F094
:107D100034FC08216060384604F02FFC04F1080AA6
:107D2000A060E46814F1390376D10121FFF7C6FDA4
:107D300072E00021384604F020FC0421206038461F
:107D400004F01BFC6060083467E0337923713F68FE
:107D5000276062E03846002104F00FFC0421206017
:107D6000384604F00AFC08216060384604F0FEFB47
:107D70000A21A060384604F0F9FBC4F80A000C346C
:107D800006F11107224606F1350157F8043B8F42F0
:107D900042F8043BF9D1388810803EE00022B71841
:107DA0007879A0540132042AF9D106F10907002399
:107DB000F95CE0180133042B0171F9D106F10D07CC
:107DC0000020395C2218013004281172F9D106F123
:107DD00011070023F95CE2180133042B1173F9D168
:107DE00006F115000022875CA1180132042A0F74E5
:107DF000F9D106F119000023C75CE1180133062B05
:107E00000F75F9D106F11F000021475C621801319E
:107E100020299776F9D100E05446044B188882B2A5
:107E2000954225D10021198022E000BF5C1B002073
:107E300030460321B77804F099FB8246B8F1000F71
:107E40000CD00421701D04F098FB0346C9F8000013
:107E500006F115014046DAB209F02CFA7A1DB11884
:107E60002046C7EB0A0209F025FA0F490020C88610
:107E70000D4F00237B8001F0AFFA3078042805D144
:107E8000B5F5805F02D13046FFF7DEFC3A8891B24B
:107E900000297FF451AE044BD88E80B200287FF4C5
:107EA0004BAEBDE8F08700BF5C1B002007284FF0F9
:107EB000010308D803FA00F004490A6810420CBF15
:107EC0000020012070471846704700BF6402002060
:107ED000034B1880084600210A46FFF727BE00BF63
:107EE0005C1B002010B5034B0124DC86BDE810406C
:107EF000FFF71CBE5C1B002038B503461546012267
:107F00004A710C46881D194604F02BFB291D05708B
:107F1000204601F023FB002038BD38B5BDF81450D1
:107F20000C469B18A071E81885B202216171E271BC
:107F3000294604F1080004F014FB6A1D204691B2A2
:107F400001F00CFB002038BD38B59B180C469DB2E3
:107F500002216171A071E271294604F1080004F068
:107F600000FB6A1D204691B2BDE8384001F0F6BA28
:107F70002DE9F0471D4605F1020A032301F1070927
:107F80001FFA8AFA88714B710C46484651461746CB
:107F900004F0E7FAB5F57A7F804613D8294604F055
:107FA000E0FA2946404604F0DCFA394604F10B00B9
:107FB0002A4609F07FF9A91D204689B2BDE8F0479D
:107FC00001F0CCBA4FF47A76B5FBF6F10AEB410238
:107FD00091B204F0C6FA3146404604F0C2FA39467E
:107FE00004F10B00324609F065F9A5F57A752046D3
:107FF00040F2EE31ADB2BF1901F0B0FAB5F57A7FBB
:1080000005D9A5F57A7085B24FF47A7601E02E464F
:108010000025A046394628F8056F4846324609F043
:1080200049F9B31C404699B2BF1901F097FA002DE7
:10803000E4D1BDE8F0870000F7B51A4C1E46A468ED
:10804000FF238DF807300025475D63190135042DA6
:108050005F72F9D100200D5C2318013004285D7394
:10806000F9D10021505C6318013104295874F9D109
:1080700004F11500002104F06BFA0022B35C835474
:108080000132042AFAD12146142242F20100FFF7FC
:1080900033FF42F201000DF10701FFF719FF9DF9CF
:1080A0000700FEBD5C1B00202DE9F34106460C468F
:1080B0001E4831681546D0F808804A1E1F46FF2327
:1080C000122A8DF8073008F1090001D81423336013
:1080D00021684A1E122A01D81423236029684A1EE7
:1080E000122A01D814232B6039684A1E122A01D89B
:1080F00014233B60316804F02BFA216804F028FA5D
:10810000296804F025FA396804F022FA414614225D
:1081100042F20900FFF7F0FE42F209000DF10701FB
:10812000FFF7D6FE9DF90700BDE8FC815C1B00202F
:1081300038B5074B42F205040546996820460022EF
:10814000FFF7DAFE20462946BDE83840FFF7C0BEFB
:108150005C1B00202DE9F341864614480D468668D5
:1081600071461F4602ACFF2306F1090004F8013DE9
:10817000904604F0EDF9294604F0EAF940F20125B1
:10818000414604F0E5F90C2231462846FFF7B4FEDB
:1081900028462146FFF79CFE002138460A46FFF795
:1081A000A1FE9DF80700BDE8FC8100BF5C1B00201C
:1081B0002DE9F341864616480C4686687146984676
:1081C00002AD4FF0FF3306F10A0045F8043D1746B3
:1081D00004F0BEF90C2104F0BBF9214604F0B8F913
:1081E000394604F0B5F94146224606F11A0009F075
:1081F00061F8902031461022A3B2FFF7A5FE40F2AD
:1082000002202946FFF764FE0198BDE8FC8100BF0B
:108210005C1B002037B50B4B40F2072504469968DC
:1082200000222846FFF768FE28466946FFF750FE01
:108230009DF803009DF80410207061709DF8000007
:108240003EBD00BF5C1B002037B50D4A0346956854
:108250000C4605F10900194604F07AF9214640F26E
:10826000032404F075F9294608222046FFF744FE4E
:1082700020460DF10601FFF72BFEBDF806003EBDBE
:108280005C1B00202DE9F0430023CA5CC25401337B
:10829000102BFAD10022334B467B991891F80180BC
:1082A00004789F19F97A88EA0405847B85EA010835
:1082B0001D194178EF7A90F80CC04F40C17B80F8CF
:1082C00010805D1895F80B908578634489EA050560
:1082D00093F80B90C378477489EA030390F80490ED
:1082E000FFB288EA090890F80590857487EA0907C3
:1082F00090F80690EDB285EA090590F80790C374EE
:10830000DBB283EA090390F8089080F814805FFAE2
:1083100088F888EA090890F809904775FFB287EA5B
:10832000090790F80A908575EDB285EA090590F87D
:108330000B90C375DBB283EA090388EA0C0C7E401C
:108340006C405940013280F8188047768576C376B4
:1083500080F81CC046778477C17710300A2A9AD1FA
:10836000BDE8F083BA22010810F0800F4FEA400008
:1083700018BF80F01B00C0B2704700002DE9F04F1D
:10838000037891F8A0A004468AEA030A80F800A0C6
:1083900091F8A1204078A77882EA0005657091F8ED
:1083A000A260E07886EA0703A37091F8A32097B053
:1083B000059582EA0005E57091F8A4902679069368
:1083C00089EA060984F8049091F8A5706379079505
:1083D00087EA0302627191F8A600A579E37980EA41
:1083E0000506A67191F8A7700C9287EA030B84F832
:1083F00007B0227A91F8A880607A88EA020884F8A7
:10840000088091F8A97008964740677291F8AA50C1
:10841000A67AE07A85EA0603A37291F8AB20267B60
:1084200082EA0005E57291F8ACC009938CEA060C6B
:1084300084F80CC091F8ADE0637BA27B8EEA030E5A
:1084400084F80DE00D9591F8AE50E07B5540A57392
:1084500091F8AF204B4B4240E2739A4491F8900060
:108460009AF80B6199444640267091F8940099F867
:108470000BA198448AEA0006267191F8980098F8B2
:108480000B919C4489EA000626729CF80BA191F896
:108490009C009E448AEA00062673DF199EF80B8131
:1084A00097F80BC191F8910091F89D6088EA000956
:1084B0008CEA060060730C9FDDF814A0DE1996F8B4
:1084C0000B0191F89970DDF8208080EA070666724A
:1084D00003EB0A0091F8956090F80B7184F8019015
:1084E00087EA0600607103EB0800DDF818E090F8F9
:1084F0000B91099803EB0E0703EB000E9EF80BC1DE
:1085000091F8920091F89A6097F80B718CEA000A42
:1085100077405D1991F89E6084F802A091F896006A
:1085200095F80B81A772079F88EA000589EA06067D
:10853000A673A571DE1996F80B0191F89F5003EB15
:108540000B0791F89360454097F80B019A1880EA61
:1085500006070D98E7701E1896F80B7191F89700B2
:108560004FF0090B87EA0006E67191F89B3092F80C
:108570000B71E57387EA0300E0720D46CDF840B059
:1085800002E000BFBA22010894F80090A77887EAB9
:108590000900FFF7E9FEFFF7E7FE94F80180E678AF
:1085A000824686EA0800FFF7DFFEFFF7DDFE8AEA73
:1085B000070380EA080227797040A6798AEA090150
:1085C0005FFA80F886EA07005FFA82FB5FFA83FAB7
:1085D0005FFA81F903970296FFF7C6FEFFF7C4FE24
:1085E000E6796779014686EA07000491FFF7BCFE49
:1085F000FFF7BAFE039B049A94F808C082EA0301CD
:10860000CBB2029947404A40A17A7040C6B2059366
:1086100081EA0C00D3B20291CDF804C0069307960C
:10862000FFF7A2FEFFF7A0FE637AE67A024686EA2B
:10863000030003930492FFF797FEFFF795FE049A59
:10864000DDF804C0039B82EA0C015FFA81FC80EA3A
:108650000301CBB2029909934A40D3B2CDF820C0AE
:108660000A9394F80CC0A17B7040C6B281EA0C005A
:108670000291CDF804C00B96FFF776FEFFF774FE6B
:10868000637BE67B024686EA030003930492FFF7CE
:108690006BFEFFF769FEDDF804C0049A039B82EAD3
:1086A0000C015FFA81FC80EA0301CBB202997040B1
:1086B0004A40C6B288EA0A018BEA09000D93D3B298
:1086C0000E930291CDF830C00F9681EA0006FFF7B5
:1086D0004BFE89EA000286EA020C5FFA8CFC8AEA09
:1086E0000B0084F800C0CDF804C0FFF73DFE8BEA14
:1086F000000386EA030B02995FFA8BFC84F801C041
:108700000846CDF844C0FFF72FFE8AEA000286EA49
:10871000020A5FFA8AFB88EA090084F802B0CDF801
:1087200048B0FFF721FE88EA0000DDF818900599AF
:10873000079A4640FFB2F6B282EA090887EA0100CA
:10874000E670139688EA0006FFF70EFE059B584078
:1087500086EA0001CAB24846227178401492FFF7B7
:1087600003FE474086EA0703D8B215906071404681
:10877000FFF7FAFD89EA0001059B86EA01020798E6
:10878000D7B25840A7710697FFF7EEFD0799089AF0
:1087900048404640F6B20A9F0596E67109980B9E3E
:1087A00050407E4086EA0007FFF7DEFDDDF820A09E
:1087B0008AEA000387EA030C5FFA8CF884F80880E1
:1087C00009990A984840FFF7CFFD099A504087EA77
:1087D000000B5FFA8BF9304684F80990FFF7C4FD6F
:1087E0000A9E524686EA000387EA03010B985FFA65
:1087F00081FB504084F80AB0FFF7B6FDDDF82CA0ED
:108800000E998AEA00000C9E47400F9B0D98FFB21C
:108810004B407040E77283EA000A0293FFF7A4FD21
:108820000C9A0D9B50408AEA00060E98F6B2267309
:108830005840FFF799FD0D99029B81EA00028AEAF0
:108840000200C1B2617318460391FFF78DFD0E9AC5
:108850000C9B50408AEA00010F98CAB2A27358409C
:108860000492FFF781FD0F99514B48408AEA000CB2
:108870005FFA8CFADDF804C084F80FA003EB0C0259
:1088800095F8800092F80B11DDF850C081EA0002E3
:10889000227003EB0C0195F8840091F80B219E19CE
:1088A00082EA000103EB0802217195F8880092F832
:1088B0000BC196F80B218CEA0001217295F88C000F
:1088C000039E82EA000121739A1995F8811092F8AB
:1088D0000B0103EB090680EA010295F88D0096F87A
:1088E0000B11DDF844C081EA00061599667358182B
:1088F00090F80B6195F88910DF1986EA0100607223
:1089000003EB0C0695F8850096F80B116270129A2D
:1089100081EA000666719918DDF818C095F88A603A
:1089200091F80B0103EB0C0295F88E10704092F851
:108930000B6103EB0B02714092F80BC195F882605A
:108940008CEA0602049EA2709A1992F80B6195F8BF
:1089500086205640A671A0721398A173191895F835
:108960008F2091F80B61DDF814C0724003EB0C0608
:1089700095F8831096F80B0153444840E07095F841
:10898000871097F80B014840E07195F88B0093F839
:108990000B11E273109A81EA0003511E103D11F091
:1089A000FF00E37210907FF4EFAD17B0BDE8F08FD9
:1089B000BA22010838B5054C05462046FFF762FC8F
:1089C00028462146BDE83840FFF7D8BC681A002089
:1089D000034610210C200022FFF7BCBB03461021E8
:1089E0000C200022FFF7E4BB38B505460E4CE36AC5
:1089F0004BB108F03FF8E36A03600020E06208F042
:108A000039F8006838BD2846FFF750FA40B9228E81
:108A100091B20029EAD0238E5A1E91B2218638BD28
:108A20004FF0FF3038BD00BF5C1B0020F7B5034698
:108A300014480D4686681946174602AC4FF0FF32BF
:108A400006F1090044F8042D03F082FD294603F0E5
:108A50007FFD41F20105394603F07AFD0C223146D3
:108A60002846FFF749FA21462846FFF731FA08F071
:108A700001F80199016008460021FEF71FFF0198E7
:108A8000FEBD00BF5C1B0020F7B5054610484FF047
:108A9000FF33876802AC294641F20B0607F1090053
:108AA00044F8043D03F054FD042239463046FFF7F4
:108AB00023FA21463046FFF70BFA07F0DBFF019956
:108AC000016028460121FEF7F9FE0198FEBD00BFB6
:108AD0005C1B002037B5034613484FF0FF32846813
:108AE0000D4604F109001946019203F031FD0821F9
:108AF00003F02EFD082103F02BFD0023E95CC15497
:108B00000133082BFAD11422214641F20700FFF766
:108B1000F3F901A941F20700FFF7DAF907F0AAFF1C
:108B2000019A026010463EBD5C1B00202DE9FF410A
:108B30001D46314B8646D3F808800F4608F10900E0
:108B4000714616460A9C03F003FD142103F000FD54
:108B5000142103F0FDFC142103F0FAFC142103F0AE
:108B6000F7FCD4F1010138BF002103F0F1FC0FB193
:108B7000396800E0394603F0EBFC0EB1316800E0E3
:108B8000314603F0E5FC0DB1296800E0294603F009
:108B9000DFFC74B1216839B9636841F287329342CE
:108BA000DCBF41F28833636003F0D2FC616803F0FC
:108BB000CFFC2C22414641F20800FFF79DF941F21B
:108BC00008006946FFF784F9009B002B09DB0FB111
:108BD000019838600EB1029A326045B1039929605C
:108BE00005E007F047FF00994FF0FF33016018469A
:108BF00004B0BDE8F08100BF5C1B00202DE9FF41FF
:108C00009846154B07469D6814460E4605F1090027
:108C1000394603F09DFC214603F09AFC414603F0DF
:108C200097FCBDF830400C2229462046FFF764F936
:108C3000204601A9FFF74CF90298002804DD3046D0
:108C40000A990B9AFFF74EF907F014FF0299016099
:108C5000084604B0BDE8F0815C1B00201FB500246D
:108C60000094019441F204040294FFF7C7FF04B09A
:108C700010BD00002DE9F04F89B0039114469B46CA
:108C8000139E149D0290FFF7AFFEDDF808C0002888
:108C900057D12D4B9A6B511C9963D3F80890812DB5
:108CA00009F10A0307D0832D0AD104F1080A09F15A
:108CB0002208182704E009F11A0810270646129026
:108CC0006146184603F044FC391F03F041FC21467D
:108CD00003F03EFC594603F03BFC832D05D1514681
:108CE00003F036FC082103F033FC0022A24205DA2F
:108CF0000398815C08F802100132F7E7002CA8BF46
:108D0000A044832D0ED0129AB6B200920196E8B21A
:108D100049463A46A3B2FFF700F9832D0BD141F241
:108D20000F000AE00020B042EDDA12990B5C08F85F
:108D300000300130F7E741F2030005A9FFF7C8F85A
:108D4000204609B0BDE8F08F5C1B00201FB5002451
:108D50000094019481240294FFF78CFF04B010BDAD
:108D60001FB5069C0094079C019483240294FFF78E
:108D700081FF04B010BD0000202A73B503460E46E3
:108D8000144622D8124A1946956805F1090003F0E5
:108D9000DFFB082103F0DCFB214603F0D9FB0022B6
:108DA000A24203DAB15C81540132F9E704F10C0309
:108DB0002946DAB241F21100FFF79EF841F21100A4
:108DC00001A9FFF785F8019801E04FF0FF307CBD65
:108DD0005C1B0020024B01225A805860FEF78EBEB9
:108DE0005C1B002010B5084CE16022616361029BAE
:108DF0000399E361049A059B21626262A362A06108
:108E0000012084F8400010BD5C1B002070B5224C8E
:108E1000054622480023A363E363238023866386F9
:108E2000A386E386E36263806360A0601C4800F071
:108E3000B1FAE1698847A26A0646012090470EB35D
:108E4000E16988470028FBD1134C002D14BF02258F
:108E50000025A16801224D724FF48040FFF74CF8C5
:108E600000214FF48040FFF733F8A168002244F25C
:108E70000B00FFF741F844F20B000021BDE8704001
:108E8000FFF726B8E36998470028FBD0E0698047E0
:108E90000028FBD1D8E700BF5C1B0020C41B0020CA
:108EA000D58D000838B5094C0020A36A984725469F
:108EB000E869064C80470028FAD0A16809B1002271
:108EC000A260BDE8384000F079BA00BF5C1B00200A
:108ED0002DE9F04F83462F4885B0D0F8089014460E
:108EE00000259A4688464FF0FF331C2109F10900FE
:108EF00001930F9E0E9F0295ADF80C5003F028FBD6
:108F0000214603F025FB594603F022FB04F1100132
:108F100003F01EFB314603F01BFB294603F021FB47
:108F2000BAF1000F08D01AF8052042550135062D78
:108F3000F9D10630002207E0534602AA995CC154D9
:108F40000133062BF9D1F4E7A24204DA18F8021033
:108F500081540132F8E7002CA8BF00193EB100236C
:108F60002FB1B34203DAFA5CC2540133F9E71C347F
:108F7000A319DAB249460120FEF7BEFF01A901207C
:108F8000FEF7A6FF07F076FD01990160084605B0DF
:108F9000BDE8F08F5C1B0020F7B503460F480E4676
:108FA00085681946174602AC4FF0FF3205F10900FB
:108FB00044F8042D03F0CCFA314603F0C9FA3946DF
:108FC00003F0C6FA29460C220420FEF795FF042080
:108FD0002146FEF77DFF0198FEBD00BF5C1B00200F
:108FE0002DE9F04F8346714885B0D0F808900D46C2
:108FF00014465946002209F109009A460E9F0F9E19
:109000000292ADF80C2003F0A3FABBF1030F00F2BB
:10901000BE80DFE80BF0022F7676142103F098FA79
:10902000214603F095FA002103F09BFABAF1000FF4
:1090300007D000221AF8021081540132062AF9D111
:1090400006E0534602A95A5CC2540133062BF9D1FB
:109050000630394603F07CFA4FF00008A04506D0F0
:1090600015F8083000F8083008F10108F6E708F1B3
:1090700018008AE0202103F06BFA214603F068FA19
:10908000002103F06EFABAF1000F07D000221AF89F
:10909000021081540132062AF9D106E0534602AA91
:1090A000995CC1540133062BF9D13946063003F0DF
:1090B0004FFA04F10C0103F04BFA314603F048FA81
:1090C000109903F045FA0022A24203D0AF5C875406
:1090D0000132F9E7001900220421129D8718AD180A
:1090E0000023B34205D015F803E007F803E001338D
:1090F000F7E701391A44F0D104F1240C0CEB83009A
:1091000043E0282103F024FA214603F021FA00214C
:1091100003F027FABAF1000F07D000221AF8021064
:1091200081540132062AF9D106E0534602A95A5C5D
:10913000C2540133062BF9D13946063003F008FA40
:10914000314603F005FA109903F002FA119903F081
:10915000FFF904F1080103F0FBF9139903F0F8F9A2
:109160000021A14203D06A5C42540131F9E70019A1
:10917000002313998B4204D0129AD15CC15401335D
:10918000F7E704F12C0808EB03001FFA80F84946C2
:109190005FFA88F20520FEF7AFFE052001A9FEF771
:1091A00097FE019805B0BDE8F08F00BF5C1B002062
:1091B00037B50B4B01469D6802AC05F1090003F081
:1091C000C7F94FF0FF3044F8040D29460422062069
:1091D000FEF792FE06202146FEF77AFE01983EBD7C
:1091E0005C1B002037B548F2080248F20801024033
:1091F0008A42034613490BD10020934281F8400074
:109200001FD023F4004424F0080545F4004302E095
:10921000012081F840000B494FF0FF328D6802AC0D
:10922000194605F1090044F8042D03F091F9294687
:1092300004220820FEF760FE08202146FEF748FEC3
:1092400001983EBD5C1B002073B50C4B01469D6828
:109250004FF0FF3602AC05F10900019603F078F9F2
:1092600044F8046D294604220A20FEF745FE0A2030
:109270002146FEF72DFE01987CBD00BF5C1B00203F
:1092800007B50D4A4FF0FF330193916890B1542315
:109290004370037083704B7242788A728078032225
:1092A000C8720C20FEF728FE0C2001A9FEF710FE64
:1092B000019800E018460EBD5C1B00202DE9F0412E
:1092C000314886B0FFF784FB0546002858D12F4E61
:1092D0002A460D2043213346FEF73CFF0546002871
:1092E0004ED13778284907F1030808EB06042046D9
:1092F000FFF760FB3378F6187078102804D904F172
:1093000010002149FFF756FBE17F204A21B112F8F6
:1093100008301F2B04D101E012F80830013400E0BE
:109320002023107811188A78032A29D8DFE802F060
:10933000020E19190020012500950190029003905A
:109340000490059012493A46034616E001208DE844
:109350000900002302930393049405930C493A46B1
:109360000BE0012018211E2202258DE82700084964
:109370000593049403203A460023FFF731FE054687
:10938000284606B0BDE8F081A01B0020181B002075
:10939000191B002008B5064B002218600549064835
:1093A0009A601961DA80DA609A80036A984708BD8A
:1093B000B01B0020C41F00205C1B002008B5044B1C
:1093C0001A690AB10020186102494B6A984708BD22
:1093D000B01B00205C1B0020024B4FF480725A60CF
:1093E000704700BF00E100E008B5074B4FF4807202
:1093F000C3F8842000F076FE044902200A698860E0
:109400000B68501D984708BD00E100E0B01B00202C
:1094100070B50646002014460D4600F053FE012E9E
:10942000A4B207D130462946224600F0D3FD0020E1
:10943000124907E0124B01201969224600F0CAFDCB
:1094400000202946224600F0C5FD0E4802210122D7
:1094500001F03BFD012000F035FE0A4801F03DFD22
:109460000028FAD1084801F038FD0028FAD1074851
:10947000802102F02EF80028F9D170BD680200208A
:10948000B01B002058000240440002400038004059
:1094900003460A4601201946FFF7BABF70B50646D3
:1094A000002014460D4600F00DFE012EA4B207D197
:1094B00030462946224600F08DFD0020104907E085
:1094C000104B01201969224600F084FD0020294636
:1094D000224600F07FFD012000F0F4FD0A4801F073
:1094E000FCFC0028FAD1094801F0F7FC0028FAD169
:1094F0000748802101F0EDFF0028F9D170BD00BFC1
:1095000068020020B01B00205800024044000240C6
:109510000038004003460A4600201946FFF7BEBF48
:1095200038B504460D4600F0F9FE322000F0ACF9E3
:10953000214604220020FFF7B1FF322000F0A4F9F9
:109540000020211D2A1FFFF7A9FF034B02229A606A
:1095500000F0C8FD002038BDB01B0020F8B501F0B8
:109560000106044686F001000D1801230026237031
:10957000C5F307221B4BE67026716270A57005319A
:109580009D68081886B215B99A68012AFCD19968B5
:10959000144D012907D120463146FFF7C1FFA868C5
:1095A0000228FCD11CE0AF68022FFCD10E488021BC
:1095B00001F08FFF0028F9D10C4DE86980472F4654
:1095C0000028F9D0074D0323AB60EC60AE8000F0BB
:1095D000A5FEFA6990470028FBD0A9680229FCD1B2
:1095E0000020F8BDB01B0020003800405C1B0020AC
:1095F00070B5184E35696B79022B08D0042B25D134
:10960000287A441E14F0010F18BF044614E0681DA8
:10961000032102F0ABFFB0F5806F044608DB05F1D3
:109620000A004FF480610724FFF732FFB4600EE0B8
:10963000C30701D4441C00E024B105F10A00A1B223
:10964000FFF726FF034908228A6000E00024204635
:1096500070BD00BFB01B0020024B012019690A2217
:10966000FFF7D6BEB01B002008B5FFF7C1FF18B941
:10967000BDE80840FFF7B8BE08BD000070B5364C25
:109680004FF40030266901F02BFC05464FF40050E2
:1096900001F026FCA368062B0BD1002D5BD000281F
:1096A00059D04FF4083001F029FCBDE87040FFF7B5
:1096B000DBBFA16807291BD100284CD04FF408302C
:1096C00001F01CFC0321701D02F050FFA0F5806426
:1096D000A1B2214CCA0758BFA0F2FF31206958BF80
:1096E00089B200F20A40FFF7D3FE0823A36070BDE1
:1096F000A268082A09D100282DD04FF4083001F0C3
:10970000FDFBBDE87040FFF76FBEA068052811D1D2
:10971000002D20D01148802101F0DBFE0028F9D176
:109720004FF4083001F0EAFB00F0DCFC0A4A0221A9
:10973000916070BDA368042B0DD165B1A088E2686B
:109740000521A0F58063A16002F5806099B2BDE8B3
:109750007040FFF7DFBE70BDB01B00200038004036
:1097600008B5174BD8698047002827D1154B9A6850
:1097700012B90120986008BD9968022907D1062214
:109780009A6000F0CBFDBDE80840FFF765BF9A681E
:10979000032A13D19A88B2F5806F06D80521996003
:1097A000D968BDE80840FFF733BE04209860D86848
:1097B0004FF48061BDE80840FFF7ACBE08BD00BFB4
:1097C0005C1B0020B01B0020BFF34F8F054A064BE7
:1097D000D16801F4E06040EA0301D160BFF34F8F2C
:1097E000FEE700BF00ED00E00400FA050D4B0E4A55
:1097F000197839B9D88881B21187188981B29187CF
:109800009B8806E0D88981B21187188A81B2918736
:109810009B8906489BB29386FF21632202704170A8
:10982000704700BFFC190020002C0140700200208E
:109830004FF4407001F06EB90A4B4FF47A701A6819
:10984000094BB2FBF0F109484A1EF0215A6080F83A
:109850002310002207219A601960D02380F823305A
:10986000704700BFC402002010E000E000ED00E0FF
:1098700082B00190019A034B1A6018680028FCD14D
:1098800002B07047D023002013B50749074B019061
:109890000C68074901985A68B4FBF1F100FB0120FC
:1098A0005A689042FCD81CBDC4020020001000E0A1
:1098B00040420F0030B54FF4003085B001F07AFB24
:1098C00008204FF40033002501248DF80D00684472
:1098D00002938DF80C508DF80E4001F019FB032116
:1098E00001A88DF804108DF805108DF806508DF83C
:1098F000074001F019F9042329220DEB03008DF82C
:1099000004208DF805308DF806508DF8074001F0E1
:109910000BF9022001F0B0FC50B1022001F0B6FCBE
:1099200001F070FD24204FF6FF7101F007FA27E0E7
:10993000242001F011FA4AF2A551884201D101F028
:1099400087FC012001F0BAFC412001F005FD002850
:10995000FAD04FF4807001F0C1FC012001F0C6FC88
:1099600001F050FD01F044FD0320012101F010FD44
:1099700001F03EFD47F6FF7001F02AFD01F038FDD1
:1099800005B030BD10B5044645F2555001F038FC25
:10999000062001F03BFC42F21070844228BF0446CE
:1099A00028216143C1F30F2001F036FC01F03AFC9D
:1099B000BDE8104001F03EBC082814D8012908D1A8
:1099C0000B490C4A01EB8003596832F8100008611A
:1099D0000BE051B9064B074A03EB80014B6832F8A4
:1099E0001000586101E0FF2300E0002358B27047E7
:1099F00070020020C824010873B50E4E850073194B
:109A000004460121186901F083FC0B4B36F8140061
:109A100010215D19ADF804008DF807100322686865
:109A200001A98DF8062001F045FB20460021FFF733
:109A3000C3FF7CBDC82401087002002070B501215D
:109A400088B04FF4006001F063FC314B31481C6872
:109A500042F20F76B4FBF0F14A1E2F4C01A895B2EA
:109A600001F086FE01A801F083FE01A9ADF80450C3
:109A700020460025ADF80860ADF80A50ADF8065054
:109A800001F02EFD04A801F07CFE022060230126D7
:109A9000ADF8180004A92046ADF81030ADF81260FA
:109AA000ADF81650ADF81C5001F064FD2046294673
:109AB00001F0A0FE204604A901F0A0FD20462946A1
:109AC00001F0A0FE204604A901F0DCFD2046294655
:109AD00001F0A2FE204604A9ADF81050ADF81260C6
:109AE000ADF81650ADF8185001F00EFE204629468C
:109AF00001F09AFE2046314601F070FE20463146C4
:109B000001F049FE2046314601F051FE08B070BD1B
:109B1000C402002040420F00002C014030B5104923
:109B2000104B8C8D93F82420A5B26C1C5443C0F3C9
:109B300007435C430C4B250CDD808C8DA5B26C1C5F
:109B40005443C0F307256C43240C1C81898DC0B29B
:109B500089B2013148434243120C9A8030BD00BFA4
:109B6000002C014070020020FC19002030B5104983
:109B7000104B8C8D93F82420A5B26C1C5443C0F379
:109B800007435C430C4B250CDD818C8DA5B26C1C0E
:109B90005443C0F307256C43240C1C82898DC0B24A
:109BA00089B2013148434243120C9A8130BD00BF53
:109BB000002C014070020020FC190020024B002202
:109BC0001A70FFF713BE00BFFC19002037B50F4D08
:109BD000044605EB8003186B012105EB440501F0F9
:109BE00097FBB5F84000ADF804000CB9102100E077
:109BF0001821074B8DF8071003EB84040322A06A99
:109C000001A98DF8062001F055FA3EBDC8240108CF
:109C10007002002018B1E72807D1FFF7E7BD034B1A
:109C20004FF40052986A026170477047700200203A
:109C300058B1E7280FD1084A0023084813879387B3
:109C4000938601220370427005E0044B4FF40050EC
:109C5000996A486170477047002C014070020020EB
:109C6000024B0122E7201A70FFF7E2BFFC19002027
:109C700010B1E72840D106E020498B6ADA6882F407
:109C80000050D86070471E4A1E4B1178C1B9188F1A
:109C900080B208B1198702E0D1888AB21A879B8FF7
:109CA000184899B209B1002102E0154A138999B206
:109CB00081871449888E82B2C2B9114B988819E005
:109CC000188F81B209B1002001E0D28990B21887C3
:109CD0009B8F0C499AB20AB1002202E00848038A1D
:109CE0009AB28A870749888E83B20BB1002002E0BE
:109CF000034A908980B28886704700BF70020020B6
:109D0000FC190020002C014010B51D4A13780BB936
:109D1000012102E0632B01D1FF2151705178E72826
:109D20000B44DBB2137029D1164A6320147816490C
:109D30007CB9D488A4B25C43B4FBF0F4A4B20C8721
:109D40001489A4B25C43B4FBF0F4A4B28C8792886B
:109D50000EE0D489A4B25C43B4FBF0F4A4B20C8747
:109D6000148AA4B25C43B4FBF0F4A4B28C87928949
:109D700092B25343B3FBF0F398B2888610BD00BF94
:109D800070020020FC190020002C014073B5104C1B
:109D90000E4604EB400494F84C10054694F8480035
:109DA00001F014FAB4F85040204601F0EDF80948EB
:109DB0000023451995F83810684600948DF8043052
:109DC0008DF805108DF8066001F0A2F87CBD00BF8B
:109DD000C824010870020020F7B5224E8700F3194D
:109DE0000546586D0C4640F00100012101F090FA43
:109DF0001D4B06EB45065A1992F83A10B6F85C006E
:109E000002AADF198DF8031022F8080D6946F86BD5
:109E100001F050F9012C24D11021002213481B27F6
:109E200001F0D3FC05238DF8047001A800278DF8FC
:109E300005308DF806708DF8074000F075FEB6F815
:109E4000601006208DF8050001A88DF804108DF82B
:109E500006708DF8074000F067FE28462146FFF7A0
:109E600095FFFEBDC824010870020020002C0140AF
:109E70001A4B1B49DA6810B542F080700024D86094
:109E80004C600B684FF0C05043F001020A600121A2
:109E900001F04AFA012001F0D5F9FFF7C9FC0120D1
:109EA000014601F035FAE0B20134FFF7A5FD082CB8
:109EB000F9D1FFF7C3FD0020FFF788FE0120FFF76F
:109EC00085FE0220FFF782FE0320FFF77FFE0020C1
:109ED0000121BDE81040FFF77FBF00BFF0ED00E0BB
:109EE000001000E0054A064B02EB800103EB400244
:109EF000C86BB2F85C1001F02DB900BF70020020F1
:109F0000C8240108024B03EB4000418A88B2704725
:109F1000FC190020024B002203EB400042827047F4
:109F2000FC19002010B5082086B0012101F0F0F9DD
:109F3000264C4FF48040012101F0F6F9032018214E
:109F40004FF400538DF802008DF803102046694647
:109F5000ADF8003001F0AEF84FF4004220466946FB
:109F6000ADF8002001F0A6F804204FF480438DF8EE
:109F7000030069462046ADF8003001F09BF800214F
:109F8000ADF804104FF48272ADF80810ADF80A1065
:109F90004FF40070ADF81210A4F5544407210123CA
:109FA000ADF80620ADF80E000822ADF814102046DA
:109FB00001A9ADF80C30ADF8102001F051FA23885A
:109FC000034A98B2108006B010BD00BF000C0140DB
:109FD000DE23002070B5044601208CB00E460146F9
:109FE000154601F089F9124B002080224FF44051B0
:109FF000012C019302960590069207900890099013
:10A000000A910B9006D103900A48049500F0BAFE1D
:10A01000084807E04CB9102307480393049500F063
:10A02000B1FE054801A900F025FF0CB070BD00BFCE
:10A030000C380040440002405800024073B50F2322
:10A040000124002501A88DF804308DF805508DF805
:10A050000650174E8DF8074000F066FDFFF762FFCF
:10A0600020462A461349FFF7B5FF28462A461249DB
:10A07000124DFFF7AFFF30460221224600F025FFC8
:10A0800028462146224601F016FA22462846022199
:10A0900001F011FA2846214601F001FA214608484C
:10A0A00000F008FF3046214600F004FF7CBD00BFF1
:10A0B00058000240C41F0020C41B0020003800408C
:10A0C0004400024010B504462146044800F0F2FE68
:10A0D00003482146BDE8104000F0ECBE44000240B9
:10A0E0005800024002484FF4805101F039B800BFD7
:10A0F000000C014008B54FF40061024801F02AF855
:10A1000008BD00BF000C014030B5092085B0012119
:10A1100001F0FEF84FF400644823694614488DF8B6
:10A120000330ADF8004000F0C5FF0B21012001F025
:10A130004DF8204600F028FF0C2002940025012451
:10A140008DF80D0002A88DF80C508DF80E4000F02F
:10A15000DFFE282101A88DF804108DF805408DF848
:10A1600006508DF8074000F0DFFC05B030BD00BFA1
:10A17000000C01401FB52823002401A88DF80430ED
:10A180008DF8074000F0D0FC4FF40060029002A868
:10A190008DF80E4000F0BCFE1FBD000020B1054848
:10A1A0004FF4807100F0DCBF02484FF4807100F082
:10A1B000D9BF00BF000C014013B5082001210F4C8E
:10A1C00001F0A6F8032010214FF480538DF806000B
:10A1D0008DF80710204601A9ADF8043000F06AFFA1
:10A1E000FFF780FF4FF48072204601A9ADF80420EC
:10A1F00000F060FF0020FFF7D1FF1CBD000C014004
:10A2000010B50B4C238823F0400001040A0C228077
:10A21000FFF768FF074B188881B2074841F04002FA
:10A220004FF400712280BDE8104000F09BBF00BFDA
:10A2300000380040DC230020000C014002484FF4AD
:10A24000007100F08DBF00BF000C014070B5082008
:10A2500086B0012101F05CF82E4C01214FF48040C2
:10A2600001F062F818204FF4005303268DF8030024
:10A2700069462046ADF800308DF8026000F01AFF04
:10A280004FF40041ADF800102046694600F012FF7F
:10A2900004254FF4804220466946ADF800208DF831
:10A2A000035000F007FF4FF4007510232046694665
:10A2B0008DF80330A4F55444ADF800508DF80260D9
:10A2C00000F0F8FEFFF7BAFF00204FF48271082279
:10A2D000ADF80400ADF80610ADF80800ADF80A00BE
:10A2E000ADF80C00ADF812000723204601A9ADF827
:10A2F0001020ADF80E50ADF8143001F0B1F8208800
:10A30000054A81B211802046012101F0C8F806B04B
:10A3100070BD00BF000C0140DC23002010B50B4CC9
:10A32000238823F0400001040A0C2280FFF786FFF7
:10A33000074B188881B2074841F040024FF4805122
:10A340002280BDE8104000F00DBF00BF0038004083
:10A35000DE230020000C014007B50820012100F099
:10A36000D7FF032014214FF480638DF806008DF889
:10A370000710034801A9ADF8043000F09BFE0EBDA4
:10A38000000C0140002008B500F088FF4FF40000E9
:10A390000121BDE8084000F0C7BF0000014B0322C7
:10A3A0001A6070472C1A0020044B05489A7A0AB1AB
:10A3B000052100E001210160704700BFF02300206B
:10A3C0002C1A002007B5022014238DF80500002167
:10A3D000012201A88DF804308DF806108DF80720B1
:10A3E00000F0A2FB0EBD000020B105484FF48061D3
:10A3F00000F0B8BE02484FF4806100F0B1BE00BF6B
:10A40000000C01400A4B987D80B10A490A4B0A882A
:10A410000A48A3F844200188094AA3F84610108886
:10A420000849A3F848000A88A3F84A20704700BFEB
:10A43000FC190020004C000870020020024C0008AB
:10A44000044C0008064C000810B51A4B987D0028F3
:10A450002FD000F0B5FD342000F0C6FD164800F006
:10A460000BFE042824D1154C1348B4F8441000F016
:10A47000E7FD04281BD11248B4F8461000F0E0FDB7
:10A48000042813D10F48B4F8481000F0D9FD04286F
:10A490000BD10D48B4F84A1000F0D2FD042803D1C6
:10A4A000BDE8104000F098BDFEE7FEE7FEE7FEE7DE
:10A4B000FEE710BDFC190020004C000870020020CF
:10A4C000024C0008044C0008064C000838B505464C
:10A4D0004FF0FF10FFF722FBFFF788F90C4B002429
:10A4E000A3F84A40FFF7B0FF0A4820228562C26104
:10A4F0000462084C216AE369994207D205EB0130F6
:10A5000000F0F3F9206A421C2262F2E738BD00BF76
:10A5100070020020FC1900202DE9F04106460F468C
:10A520004FEA91080024444516D056F824201748D5
:10A53000174D0270C2F30721C2F30743EA62120EFD
:10A540004170C270A96A0422837000F065F9A86A9C
:10A550000134011DA962E6E7BB0711D056F824308B
:10A560000A480B4AC3F307214170C3F30741D36282
:10A57000037081701B0E916A0422C37000F04CF9C5
:10A58000E720BDE8F041FFF773BB00BFD8230020F0
:10A59000FC19002008B5074B0524A3F84840FFF735
:10A5A00053FF2820214600F0C9FB0020FFF71CFFC5
:10A5B000FFF70AF9700200204FF480514FF49372B4
:10A5C00000F07DB84FF400514FF4197200F077B8E5
:10A5D000034BB3F84A00421E514251EB0200704750
:10A5E00070020020024B0022A3F84A20FFF72CBF84
:10A5F0007002002070B50E46054600F0BDFBB308A2
:10A600002C461A46013A0434511C114905D054F81D
:10A61000040C90FAA0F00860F4E705EB83030868E7
:10A6200090FAA0F106F003069E19B3420ED013F87B
:10A63000014B0822614011F0010F4FEA510416BF8F
:10A64000044921466140013AF5D1EEE7C84370BDA7
:10A65000003002402083B8ED10B504460A480221BC
:10A6600000F037FF0028F9D00748214600F02CFF02
:10A670000548012100F02DFF0028F9D0024800F024
:10A6800025FFC0B210BD00BF0038004070B5FFF715
:10A69000B7FD9F20FFF7E0FFFF20FFF7DDFF044637
:10A6A000FF20FFF7D9FF0546FF20FFF7D5FF2D025A
:10A6B0000646FFF7C3FD45EA0440304370BD70B560
:10A6C0000C4615460646FFF79BFD0320FFF7C4FF27
:10A6D000C4F30740FFF7C0FFC4F30720FFF7BCFF38
:10A6E000E0B2FFF7B9FF3DB1FF20FFF7B5FF013D35
:10A6F00006F8010BADB2F6E7BDE87040FFF79EBD6E
:10A7000008B5FFF77DFD0620FFF7A6FFBDE808406E
:10A71000FFF794BD08B5FFF773FD0420FFF79CFF1A
:10A72000BDE80840FFF78ABD08B5FFF78FFDFFF7CA
:10A73000F1FFFFF7ABFF104B984202D04C3B984221
:10A7400019D1FFF75DFD8020FFF786FFFFF776FD4B
:10A75000FFF756FD5020FFF77FFFFFF76FFDFFF774
:10A760004FFD0120FFF778FF0020FFF775FFBDE8E0
:10A770000840FFF763BD08BD8D25BF0008B5FFF792
:10A780003FFD0520FFF768FFFF20FFF765FFC307C8
:10A79000FAD4BDE80840FFF751BD70B50D46164626
:10A7A0000446FFF7ADFFFFF72BFDAD20FFF754FF89
:10A7B000C5F30740FFF750FFC5F30720FFF74CFF35
:10A7C000E8B2FFF749FF2078FFF746FF6078FFF710
:10A7D00043FFFFF733FDFFF7D1FFA51C2C460234E2
:10A7E0002B1BF01881B289B1FFF70AFDAD20FFF7EE
:10A7F00033FF14F8020CFFF72FFF14F8010CFFF7DA
:10A800002BFFFFF71BFDFFF7B9FFE8E7FFF716FD8A
:10A81000BDE87040FFF77EBF2DE9F84F11F0FF094A
:10A8200006460D4617464FEA12381DD1B8F1000F03
:10A8300003D1304629463A4651E004465FFA89F290
:10A84000A81B904504EB000109D020464FF480522C
:10A85000FFF7A3FF04F5805409F10109EEE74FEA81
:10A8600008317018491939E0C9F10004E4B2B8F1AF
:10A87000000F0DD1D2B2A242DBD902EB09035FFA7D
:10A8800083F92246FFF789FF301961194A4626E00D
:10A89000171B2246FFF781FFBFB24FEA1739651930
:10A8A00034195FFA89FB5FFA87FAA0460026F3B2F3
:10A8B000291B9B45414408D040464FF48052FFF786
:10A8C0006CFF08F580580136F1E74FEA093904EBCF
:10A8D000090009EB0501BAF1000F04D0FAB2BDE896
:10A8E000F84FFFF75ABFBDE8F88F10B50446FFF7E1
:10A8F00007FFFFF785FC2020FFF7AEFEC4F30740FB
:10A90000FFF7AAFEC4F30720FFF7A6FEE0B2FFF7A9
:10A91000A3FEFFF793FCBDE81040FFF72FBF000038
:10A920003A4B82B01A6842F0010018605968384A00
:10A930000A405A60186820F0847121F480321A604D
:10A94000186820F4802119605A684FF41F0122F41E
:10A95000FE0000225860996000920192186840F44D
:10A9600080311960294B1A6802F400300190009977
:10A970004A1C0092019818B90099B1F5A06FF1D165
:10A980001B6813F4003218BF0122019201980128BC
:10A9900005D0204B4FF000629A6002B070471E490C
:10A9A0000B6843F010020A60086820F003030B6094
:10A9B0000A68A1F5805342F00200086059685960A6
:10A9C0005A685A60586840F4806159605A6822F4A5
:10A9D0007C105860596841F4E8125A60186840F0D9
:10A9E000807119601868094A8101FBD5536823F00A
:10A9F00003015160506840F002035360034A5168FC
:10AA000001F00C000828F9D1C3E700BF0010024094
:10AA10000000FFF800ED00E00020024008B5012032
:10AA2000FFF7E2FC064B0749012200201A6018607C
:10AA3000086005494FF4E0520A801A6008BD00BF63
:10AA4000405C0040445C004014240020064B1A681F
:10AA500090B240F0080119601A6890B240F0040109
:10AA60001960FFF79BBC00BF405C004010B5064C6E
:10AA70004FF6FB73226813402360FFF795FC4FF4F9
:10AA80003F40206010BD00BF405C00401F4B0728C6
:10AA900010B518BF18701A781C4C052A33D8DFE897
:10AAA00002F003070C101823FFF7E0FF062202E074
:10AAB000FFF7DCFF0422227010BD02215970032031
:10AAC00022E059784A1ED0B258705B78EBB9042066
:10AAD00017E00F4B186881B241F010021A600A208B
