:020000040800F2
:1050000000500020E97900080571000807710008C8
:10501000097100080B7100080D7100080000000004
:105020000000000000000000000000000F710008F8
:1050300011710008000000001371000815710008CC
:10504000397A0008397A0008397A0008397300087B
:10505000397A0008397A00087571000895710008DE
:10506000B5710008E971000809720008397A000872
:10507000397A0008397A0008397A000895730008EF
:10508000397A0008397A000825710008397A000851
:1050900099730008397A0008397A000829720008E3
:1050A000397A0008397A0008397A0008F172000864
:1050B000397A0008397A0008397A00084571000801
:1050C00055710008397A0008397A000865710008BE
:1050D000397A0008397A000835710008397A0008F1
:1050E0007972000855730008397A00080000000042
:1050F00000000000000000000000000000000000B0
:0C51000000000000000000005FF808F153
:1051100070B5012188B0044601F09EFBA0F1300576
:10512000072D37D803226846214601F0BDFB1C49F4
:1051300004A801F017FB204604A901F07BFB0646FA
:1051400004A801F0CDFA1EB1ADB22846002110E04E
:10515000144904A801F006FB204604A901F06AFBEB
:10516000044604A801F0BCFA74B10A35ADB2284671
:10517000314600F0E7FE684601F09DFBC1B22846CB
:1051800001F07CF8012401E06FF00104684601F0B1
:10519000A7FA01E04FF0FF34204608B070BD00BF11
:1051A000784D01087A4D01087FB50121054601F0CF
:1051B00053FBA0F13004072C23D81549684601F0B1
:1051C000D1FA2846694601F035FB0646684601F0EB
:1051D00087FA6EB90F49684601F0C4FA2846694655
:1051E00001F028FB0546684601F07AFA65B10A34F9
:1051F000A4B22046012100F0A5FE204600F0E4FF05
:1052000004E04FF0FF3001E06FF0010004B070BD2A
:10521000784D01087A4D0108F0B5012185B00446AA
:1052200001F01AFBA0F13006072E49D86846214646
:105230000322072301F012FB6846264901F0D0FA49
:105240000546684601F04CFA7DB9684621460322BE
:10525000062301F003FB68461F4901F0C1FA074627
:10526000684601F03DFA0FB92DE001251B4968465B
:1052700001F078FA2046694601F0DCFA07466846F4
:1052800001F02EFA1FB1B6B23046002110E01449E9
:10529000684601F067FA2046694601F0CBFA0446F9
:1052A000684601F01DFA8CB10A36B6B2304639466E
:1052B00000F048FE3046294600F0C8FE012007E015
:1052C0004FF0FF3004E06FF0010001E06FF00200EA
:1052D00005B0F0BD7C4D0108814D0108784D0108F5
:1052E0007A4D01087FB50121054601F0B5FAA0F11C
:1052F0003004072C23D81549684601F033FA2846B4
:10530000694601F097FA0646684601F0E9F96EB978
:105310000F49684601F026FA2846694601F08AFAE4
:105320000546684601F0DCF965B10A34A4B22046AE
:10533000032100F007FE204600F0D0FE04E04FF00D
:10534000FF3001E06FF0010004B070BD784D01083E
:105350007A4D010808B50948094900F0FFFB0948E2
:10536000094900F0FBFB0948094900F0F7FB09482F
:105370000949BDE8084000F0F1BB00BF854D0108B8
:10538000E5520008914D0108195200089E4D010890
:10539000A9510008A94D01081151000870470000EB
:1053A00007B5002100910A460B46024801F0E4F8D7
:1053B0000EBD00BF100B002010B501310023934239
:1053C0000ED0040F092C01D8303400E0373401F836
:1053D000014C01330024000101F8024BDBB2EEE77F
:1053E00010BD000010B54FF000604FF4A04105F073
:1053F00011FD0124284B294821461C7005F0F6FFB9
:1054000004F06AFE04F04CFB2146402006F0B6F89A
:105410006FF07F4004F0B6FCE72004F02FFD204839
:10542000047004F07BFB7D2006F0D8F818B11D490C
:105430000C7006F0E7F840F6B83004F0D7FB1A4CD1
:1054400005F014F905F0B2FA184801F057FC0122F2
:10545000227001F0DFFC164B187818B915490A784C
:10546000002AF6D0144C2378002BF2D10D48017895
:105470000029EED10F4C2278012A01D00F4B33B90D
:105480000F4909B1FFF78AFF00F042FDE1E7FFF79E
:1054900061FF01202070F3E70A1A002000043000A9
:1054A00081190020C82300209B190020D95C000826
:1054B0007F190020180B0020801900205553000888
:1054C0009D5300086F4B70B51A6812B11868411EE1
:1054D00019606D4C237833B16C490B78EBB16C4C8F
:1054E000002C35D119E06B4C226812B12068431EA4
:1054F00012E06948017881B9684B1A786AB968483E
:10550000017851B9674E684D337833B3E72004F022
:105510002FFD2A78FAB114232360644A6448127874
:105520004AB141684EF65F23994202D901210172C6
:1055300002E04468621C426057480478002C34D171
:10554000204604F013FE40F6B73398421BD82CE0F7
:1055500000F00AFCE1E70123DEE72A784AB14FF6C2
:10556000FF7004F00FFC0124E72004F087FC347086
:10557000D3E7E72004F0B0FC4E48017809B13223AC
:10558000CAE76423C8E7204604F0F8FD4A4B1A78BE
:10559000C2B94A49087828B1464B434A197810786D
:1055A00008426AD001213C480BE0002004F0DEFDF7
:1055B00041F65732904205D9002004F0DFFD404803
:1055C000012101703C4A1078002832D1384BD9684B
:1055D00019B1DA68511ED9602BE0304A117841B117
:1055E000196947F22F5081421DD81A69511C19615F
:1055F0001FE02D4802786AB1586947F22F52904255
:1056000004D959612F4B01221A7012E05969481CC4
:1056100058610EE02749087858B1986947F22F5130
:10562000884203D99A610120187202E09A69501CDD
:105630009861254B1868B0F57A7F04D30020186074
:1056400005F032FF02E01A68511C1960184B1A7AF3
:1056500062B1BFF34F8F1D4D1D4BEE6806F4E06441
:1056600044EA0302EA60BFF34F8FFEE7154908786A
:1056700038B1BDE8704000F00DBC124B012119702B
:1056800090E770BDD0230020F4190020C00E002048
:10569000695D0008CC2300207C19002080190020BF
:1056A00082190020811900207F190020641A00202F
:1056B000180B00207E1900209A1900207D19002067
:1056C0008F1900208C190020D423002000ED00E069
:1056D0000400FA0508B5094B186004F071FF0020BA
:1056E00004F0B6FF064804F003FA04F07FFF04F06C
:1056F0009DFFBDE8084006F02FBE00BFC801002096
:10570000A0860100074B1868052809D106490A7FC1
:10571000012A05D1887F91F82030C11AC8B270479C
:1057200000207047281A0020180B00200E4B10B5DF
:105730001868052814D10D4C217F012910D1E28B66
:10574000238CD01A012804D100210320217706F0F0
:105750006EFF238CE218591C92F82200218410BDA0
:105760004FF0FF3010BD00BF281A0020180B00209A
:10577000084B196805290BD1074B5A6E991881F807
:105780006800501CB0F5807F586601D100225A662F
:10579000704700BF281A0020180B002070B5234A5C
:1057A00092F86831012B3FD0D2F86C01B0F5807FC0
:1057B00002D10021C2F86C11D2F86C31526E1B4834
:1057C000934203D1002180F8681170BD8CBFC3F5EE
:1057D0008072C3EB0202154CC0F87021D4F87051EE
:1057E00099B2402D07D94033403DC4F86C31C4F81C
:1057F0007051402606E0E8180023AEB2C4F86C01F0
:10580000C4F870310A4A01255018C021324684F884
:10581000685106F083FE2846314606F089FF284687
:10582000BDE8704006F0F2BE70BD00BF180B00204E
:10583000800B0020094B10B593E81400083318685A
:1058400010180AD008220649FFF7B6FD0549204680
:105850000422BDE81040FFF7AFBD10BDE8F7FF1F01
:10586000770100208701002038B50D460446AC4280
:1058700003D254F8043B9847F9E738BD08B5074808
:105880000749FFF7F1FF07480749FFF7EDFF074812
:105890000749BDE80840FFF7E7BF00BF28510108EE
:1058A0002851010828510108705101087051010860
:1058B00070510108FEE70000054A08B51368054964
:1058C00018188842106001D90BF0FCF9184608BD81
:1058D00000000020004800204FF0FF3070470120FA
:1058E00070470000014B1868704700BF900C002003
:1058F000064B0246582000FB013101F1080303CB9F
:105900001060516018689060704700BF900C0020D4
:10591000014BD3F864017047900C0020064B0246FF
:10592000142000FB013101F5B67303CB1060516008
:1059300018689060704700BF900C00200E4B2DE956
:10594000F041D3F8647180460024BC4211DA14257A
:105950006543094E4146701900F5B6700C220CF0F3
:10596000FBFB20B97519D5F86801BDE8F081013459
:10597000EBE70020BDE8F081900C00202DE9F04716
:1059800088B0814668460D4600F0ECFE1E4B0024B0
:10599000D3F800A054452DDA55B3582666431A4F64
:1059A000494607F1040808EB060004300C220CF00D
:1059B000D3FBE8B928460CF09FFB06F11001402804
:1059C00034BF0246402208EB010029460BF0A6FD39
:1059D000BE19012286F85820694604A8746800F0B0
:1059E000E3FE04A8A047044604A800F079FE03E003
:1059F0000134CFE74FF0FF34684600F071FE2046D7
:105A000008B0BDE8F08700BF900C002038B505460F
:105A1000064C28B104F058FA012384F8303238BD1E
:105A200004F000FA84F8305238BD00BF900C00201A
:105A3000024B00221A6004F0A3BE00BF280B002016
:105A4000034A044800231370036004F0D7BE00BF6C
:105A500080190020280B0020044B0549002001225A
:105A60001A7008604FF4C02004F064BE8019002052
:105A7000280B0020F0B5264B0646187887B00F4655
:105A800018B924490C78254614B14FF0FF303DE099
:105A90008DF80C408DF80D408DF80E408DF80F40BC
:105AA0001D4C06A8D4F8343204955A0900EB820242
:105AB00003F01F01012000FA01F052F80C1C014311
:105AC00042F80C1C04A841F288320592009003A908
:105AD000581C2A462B4603F053F9002816DDD4F84B
:105AE000343206A95C0901EB840050F80C4C03F039
:105AF0001F0244FA02F414F0010007D018463146A0
:105B00002B463A4603F0D4F9044B1D6007B0F0BDB4
:105B10008C1900209A190020900C00202C0B0020DA
:105B200010B50A4609490346087810B9084C24788C
:105B300014B14FF0FF3010BD0649D1F834021946B8
:105B4000234603F037FA044A146010BD8C19002074
:105B50009A190020900C00202C0B00202DE9F84F02
:105B600004468946002941D000283FD0204B1D68BB
:105B7000042D3BD00027AF421E4E4FF058080FDADD
:105B800008FB07F856F80810494507D106EB08024C
:105B9000101D21460C220CF0DFFA38B30137EAE77A
:105BA00008FB05F8A6F1040A0AEB080708F1100043
:105BB000C7F804900021402230180BF035FE06EBA8
:105BC0000801081D0C2200210BF02EFE20686168E0
:105BD00007F1080203C2A3680020013507F1040B96
:105BE00087F858001360543746F8045CBDE8F88F16
:105BF000900C0020940C002030B5204BADF5797D41
:105C0000187820B91E4806F003FE002832D11D493D
:105C10001D4D1E4804911E4A1E4B1F4907950990B1
:105C20001E4D1F48059208930A911E4A1E4B1F499C
:105C30000C950E901E4D1F481F4C0B920D931F4A42
:105C40001F4B0F911F49119513905FAD15A810922E
:105C500012931491069403900CAC029504F0E0FDAD
:105C6000284604F0E3FD00940548174902AA04AB56
:105C700006F0D5FD0DF5797D30BD00BF9C190020E3
:105C8000C40F0020215B0008415A0008315A000867
:105C9000755A00085DA800080D5A0008E55800086C
:105CA0007D590008F5630008F158000811590008F3
:105CB000F55E000839A80008595A00081D59000867
:105CC0003D5900084DA80008E8F7FF1F014807F0FC
:105CD000B1BB00BFC40F002030B5022011228DB02F
:105CE000014602F0CDFF051E28DB154907A806F086
:105CF000A9FE022316200024ADF80C308DF80E000A
:105D00003321E0220123BB208DF811408DF80F10C4
:105D10008DF810208DF812308DF813000324102216
:105D200003A90091019200231322284607A903F03A
:105D30004BF9013CF3D1284602F0D0FF0DB030BD45
:105D4000E8F7FF1F10B5074CFFF756FF204606F097
:105D500062FD204607F0BEF80446FFF7BDFF20466F
:105D600010BD00BFC40F002038B5114CD4F8445BFF
:105D70002DB1D4F8441B4B1EC4F8443B38BDD4F8B5
:105D8000483B0C4A52F8230004F024F8E72004F0C2
:105D900075F8094A6420D4F8481BC4F8440B10680D
:105DA0004B1C8342C4F8483BA8BFC4F8485B38BDCD
:105DB000900C0020C42301080400002030B502200C
:105DC0000121062285B002F05BFF051E1ADB0021CF
:105DD0003522082402238DF802108DF8032069462D
:105DE00010228DF804408DF805408DF806408DF89E
:105DF0000740ADF8003002F097FF0446284602F055
:105E00006DFF01E04FF0FF34204605B030BD0000CB
:105E100010B5074C642003F05FFED4F8340202F0A2
:105E20005DFF18B94FF0FF33C4F8343210BD00BF26
:105E3000900C002008B5FFF7EBFF0220012106229D
:105E400002F01EFF114B0028C3F834021ADB0221B6
:105E5000A3F84C1B3321162283F84F1BD02183F863
:105E60004E2B83F8511B3622042183F8502B83F8E4
:105E7000531BE522064983F8522B1022BDE8084047
:105E800002F052BF4FF0FF3008BD00BF900C002061
:105E9000DC170020044B012200205A801880D8868D
:105EA000024B1A70704700BF5C1B00208C19002049
:105EB0000F4B2DE9F041D3F8647180460024BC42B9
:105EC00011DA142565430A4E4146701900F5B67083
:105ED0000C220CF041F920B9751995F87801BDE84C
:105EE000F0810134EBE74FF0FF30BDE8F08100BFF7
:105EF000900C002008B5FFF7DBFF0138082803D815
:105F0000024B1918087F08BD022008BDC4230108F0
:105F1000084B0022D3F83C1203F510738A4208DACA
:105F200093F8500010B1002083F850000132513333
:105F3000F4E77047900C0020014806F059BC00BF00
:105F4000C40F002014282DE9F34104460E4675D8ED
:105F5000FF2973D000F0A4FB28B10D2C6ED00F2CBC
:105F60006CD00E2C6AD000F0B9FA08B1012C65D9BA
:105F700000F0FAFC18B1A4F11203012B5ED9304DE8
:105F800020012F582F492A188F42B2F8048001D1DE
:105F9000042003E02C4B9F4203D10820012105F08F
:105FA000F9FAADF80480062E44D8DFE806F00411B3
:105FB000181F26313C00224A102302EB0414032050
:105FC0000021A1738DF807308DF80600083431E008
:105FD00004218DF8071005EB0414012229E0482262
:105FE0008DF8072005EB0414022222E028208DF80A
:105FF000070005EB041403221BE0114B18220321B8
:106000008DF807208DF8061003EB0414042210E02D
:106010000B481C2103238DF807108DF8063000EB88
:106020000414052205E000208DF8070005EB041498
:106030000622A273384601A905F07EF9BDE8FC816D
:106040000800002000080140000C0140142870B531
:1060500004460E463ED8204B03EB0010817B0129FD
:1060600038D0022936D0032934D0062932D0FF296E
:1060700030D000F015FB30B10D2C2BD00F2C29D0D7
:106080000E2C00D170BD00F029FA10B1012C00D8FF
:1060900070BD00F069FC20B1A4F11202012A00D801
:1060A00070BD0D4D05EB0413987B042803D12046E9
:1060B0000021FFF747FF012E05D124012819295996
:1060C00083880B6170BD2EB9240129192B598A8848
:1060D0005A6170BD70BD00BF08000020142810B5C3
:1060E000044602D94FF0FF3010BD1A4B03EB0010ED
:1060F000817B0029F6D0FF29F4D000F0D1FA28B135
:106100000D2CEFD00F2CEDD00E2CEBD000F0E6F9DB
:1061100008B1012CE6D900F027FC18B1A4F1120255
:10612000012ADFD90B4B03EB0410817B062908D130
:1061300093F850114A1ED3B2FD2BD3D82046FFF757
:1061400001FF0448240101198988005905F044F928
:1061500010BD00BF0800002010B54FF4004086B00D
:1061600005F0E4F901214FF4007005F013FA154829
:1061700004F05AFE012400234FF46022114801A9C3
:1061800001938DF808308DF80930039204938DF84F
:10619000144004F077FE0B48214604F097FE0948AE
:1061A00004F09DFE074804F09FFE0028FAD1054840
:1061B00004F09EFE034804F0A0FE0028FAD106B0C9
:1061C00010BD00BF00240140092838B5044601D89D
:1061D0000A34A4B200F064FA40B10D2C02D14FF0A1
:1061E000FF3038BD0F2CFAD00E2CF8D000F076F925
:1061F00000F0BAFB18B1A4F11203012BEFD9142C53
:10620000EDD81C4D05EB04108279FF2AE7D095F8F4
:106210005111914206D0837B0621204685F85031EA
:10622000FFF790FE95F85251012D05D1FFF794FF2D
:10623000104A002082F852010E4D05EB0414A1799A
:1062400095F851318B4207D00B480122002304F00E
:1062500061FEA17985F851110748012104F051FE32
:106260000548022104F0A6FE0028F9D0024804F0F7
:106270009EFE38BD08000020002401402DE9F041B9
:10628000142888B004460D4600F2A780544B03EB57
:1062900000108168002900F0A08000F001FA40B1F0
:1062A0000D2C00F09A800F2C00F097800E2C00F03F
:1062B000948000F013F910B1012C40F28E8000F0B0
:1062C00053FB20B1A4F11202012A40F28680444B14
:1062D00003EB0410817B09B104297ED1414E424A6F
:1062E00037684BF680316943B7FBF2F3581EFF2540
:1062F00086B2012091FBF5F7014605F04BF9042128
:106300002046FFF71FFE364ABFB202EB041399681E
:10631000B1F1804F02D10120014608E0334D022047
:10632000A94203D03248814203D10420012105F063
:106330003DF92B4B4BF67F3203EB0415ADF80460AF
:10634000A868002601A9ADF80A60ADF80660ADF8AE
:10635000082005F007FAADF81860AE896021012029
:1063600005F10808ADF81010ADF81200ADF8167080
:1063700046B9A86804A905F03FFAA868082105F005
:106380007BFB1FE0042E08D1A86804A905F078FA69
:10639000A868082105F078FB14E0082E08D1A86849
:1063A00004A905F0B1FAA868314605F077FB09E0C9
:1063B0000C2E07D1A86804A905F0E8FAA8680821FE
:1063C00005F074FB064A012102EB0414A06805F0F5
:1063D00047FBA068012105F020FB08B0BDE8F08173
:1063E00008000020B802002000366E0100040040C2
:1063F0000008004004F06CBA07B5002100910A467D
:106400000B46024800F0B8F80EBD00BFF0170020A0
:10641000024B18785978401A704700BFF8170020CF
:10642000064B5A781978914204D99818013280782D
:106430005A7070474FF0FF30704700BFF8170020C8
:10644000054B5A781978914202D99818807870478C
:106450004FF0FF30704700BFF81700207047000072
:10646000F8B5094B054693F82200164650B10C4684
:106470008F18BC4206D0296828460A6814F8011B08
:106480009047F6E73046F8BDF817002010B50C4BE2
:10649000012293F822408CB193F823401F2C02D99B
:1064A0004260002010BD93F824001C1884F82510C9
:1064B000411CC8B283F8240083F82300104610BDA5
:1064C000F817002000224260024A4FF47A7181607E
:1064D00002607047F823010870477047014B93F83A
:1064E00059007047F817002013B5084C002100919F
:1064F00004F164000A460B4600F03EF804F16C001B
:1065000002B0BDE81040FFF7DDBF00BFF817002064
:1065100008B5034B53F8200000B1804708BD00BF09
:106520007418002007B5002100910A460B46024866
:1065300000F022F80EBD00BFB41800202DE9F04194
:10654000002407460E4625463B1919790A22304693
:1065500000F08CF82E218046304600F055F80134CA
:106560004044032C0544EFD13046F9790A2200F06B
:106570007DF82818BDE8F08130B58371044D9DF891
:106580000C300446056001714271C37130BD00BF1B
:1065900018240108044B054A00201A60187158712C
:1065A0009871D871704700BFBC18002018240108EA
:1065B00007B5002100910A460B460248FFF7DCFFB1
:1065C0000EBD00BFC4180020F8B506460C468F1853
:1065D0000025BC4207D0336830461A6814F8011B06
:1065E00090472D18F5E72846F8BD38B505460C4606
:1065F000084641B10BF080FD2B6802465B682846D7
:106600002146984738BD38BD08B503681A689047D9
:1066100008BD70B500238AB08DF82430012A98BFD8
:106620000A220DF12303B1FBF2F505FB1211CCB2E6
:10663000092C1E4601D8303400E03734E4B203F8A8
:1066400001492946002DEED13146FFF7CEFF0AB0B1
:1066500070BD10B5044622B90268C9B212689047ED
:1066600010BDD2B2BDE81040FFF7D3BFFFF7F1BFB6
:1066700007B5002100910A460B460248FFF77CFF50
:106680000EBD00BFD018002007B5002100910A46BA
:106690000B460248FFF770FF0EBD00BFD818002060
:1066A000014B587D704700BFE01800207047000084
:1066B00007B5002100910A460B460248FFF75CFF30
:1066C0000EBD00BFF818002007B5002100910A4652
:1066D0000B460248FFF750FF0EBD00BF0419002013
:1066E00010B5044600680AF01DFC204610BD10B528
:1066F0000446006808B10AF015FC00232360A3607B
:10670000636010BD38B504460D46006801310BF0DA
:1067100049F910B184E82100012038BD036810B5A3
:10672000044613B14068884207D22046FFF7EAFFCB
:1067300020B1A16809B922681170012010BD70B59F
:106740000E46114604461546FFF7E8FF18B92046E5
:10675000FFF7CDFF04E0A560206831460BF06EFC2A
:10676000204670BD38B50023044603604360836053
:1067700003730D4639B108460BF0BEFC29460246AC
:106780002046FFF7DCFF204638BD884210B50B4697
:10679000044607D0096819B19A68FFF7D0FF01E0F5
:1067A000FFF7A5FF204610BD002310B50446036087
:1067B000436083600373FFF7E8FF204610BD38B5E0
:1067C00005460C4641B108460BF096FC21460246B0
:1067D0002846FFF7B4FF01E0FFF789FF284638BDE0
:1067E000826808B50B4612B919B9012008BD11B964
:1067F0000368187802E000680BF032FBD0F101006A
:1068000038BF002008BD10B58B688468E41AA24226
:106810000CD8006868B1096851B180181A460BF0AD
:106820009BFCD0F1010038BF002010BD002010BD3E
:10683000084610BD82688B689A4202D30022FFF797
:10684000E2BF002070478368994203D2006810B10C
:10685000405C704700207047FFF7F5BF9A422DE972
:10686000F04107460D4614461E4601D934461646E9
:1068700038460C49FFF776FFA86884420FD829688C
:10688000864228BF0646002211F806808A552B68EA
:1068900038461919FFF793FF286800F80680384634
:1068A000BDE8F0816C4F010810B58B680446FFF716
:1068B000D5FF204610BD006808B10AF00BBA70473A
:1068C00007B5002100910A460B460248FFF754FE27
:1068D0000EBD00BF0C19002007B5002100910A462B
:1068E0000B460248FFF748FE0EBD00BF14190020FA
:1068F00007B5002100910A460B460248FFF73CFE0F
:106900000EBD00BF1C1900204FF0FF3070477047CC
:1069100008B5054805F0E3F80348802105F0E7F8DD
:106920000028F9D0012008BD00440040202108B50E
:10693000034805F0DCF8003018BF012008BD00BF97
:106940000044004008B5024805F0CDF808BD00BF7E
:106950000044004000224260024A4FF47A71816094
:106960000260704728240108014B187C704700BF63
:106970002419002013B5084C0021009104F11400E3
:106980000A460B46FFF7F8FD04F11C0002B0BDE813
:106990001040FFF7DFBF00BF2419002070474FF001
:1069A000FF307047084608B5FEF7E2FE012008BD3B
:1069B00008B5FEF7A7FE08BDFEF7B8BE002242608C
:1069C000024A4FF47A7181600260704748240108DE
:1069D0000846FEF77FBE000013B5074C002100916A
:1069E00020460A460B46FFF7C7FD04F1080002B037
:1069F000BDE81040FFF7E2BF5019002000230360FC
:106A00001846704700230360184670470023036050
:106A10001846704748F20203984210B51CD008DCB3
:106A2000992848D0591E88425BD12E480122C27055
:106A300010BD48F28002904207D0B0F5084F3ED01A
:106A400048F2100398424CD124E0264B012100204B
:106A500019705970987010BD224CE27852B1224BD7
:106A600000224FF47F401A7003F08CF9E72003F006
:106A700005FA06E0237913B1581E207101E00121C7
:106A800021750021E1706175A175E175217661764E
:106A9000A17610BD087D134950B901234FF47F4002
:106AA0004B7503F06FF9E720BDE8104003F0E6B93D
:106AB00000224A7510BD0B4B0121D97610BD0A7812
:106AC000072A0ED8074B012198180177074800685C
:106AD000824206D100221A765A76DA759A7583F8C0
:106AE000241010BD68190020F4190020C40E0020E5
:106AF0002DE9F04191F8008086B00C46B8F1000F06
:106B000014BF90464FF0000806460BF0F5FA074612
:106B100020460BF0F1FA012518231E2102220193D1
:106B2000029103920590002300950494404631465B
:106B30003A4602F089FB044B83F8250083F826507F
:106B400006B0BDE8F08100BF681900201FB54FF006
:106B50003C0C0A234FF461514FF461628DE80E1032
:106B6000684601A902AA03AB01F0C8FB05B000BD4D
:106B70001FB50023009301930293039301A8694674
:106B800002AA03AB01F082FB05B000BD30B5574D42
:106B900000249FB0FF202C706C7085F82640EC70AC
:106BA0006C75EC76AC75EC752C766C7603F0EAF8C7
:106BB000E72003F063F921462246204602F020FB3D
:106BC0002B46012103F8054F0E200A4601F01AFC5E
:106BD000464BD878012805D1642002F07DFF01F0F2
:106BE000A9F8F5E710210C2001F058FC404802F00C
:106BF0001FF8404802F078FC012002F059FC68467A
:106C00003D4900F0C9FD394D297895F826200A4301
:106C10001ED195F82750002D5ED0FF2002F0FCFB1E
:106C2000002859D11A24013C06D0E72003F054F97A
:106C3000322002F051FFF6E72C4D0E202B4603F8D0
:106C4000044F0121224601F0DDFB85F82740DAE7F9
:106C5000E72003F013F90E20012100222B1D01F083
:106C6000A3FB2C781CB102F05DFC85F825001F4CBD
:106C7000012194F825300022581C234603F8040F04
:106C80000E2001F0BFFB00200146012202F0B8FAFD
:106C900001252346294603F8055F2A460E2001F008
:106CA000B1FB02F033FA642002F016FF002002F07C
:106CB000E1F948F2442084F8285002F0C7FB4FF471
:106CC0007F4003F05FF8E72003F0D8F8FFF73EFFBE
:106CD000002121751FB030BDE72003F0FDF8FA2038
:106CE00002F0FAFE684600F0ABFD8CE76819002060
:106CF000602401085C010020F16A000830B5394CBD
:106D000085B0E06203F08CFB03F0CCFA364B3748D9
:106D10003749384A00930190374B02910392374923
:106D2000374A384802F092F9642002F0D5FE00207C
:106D300002F0A0F90025012348F24420657684F88A
:106D4000283002F083FB30480188012906D00E204C
:106D500010212A46231D01F027FBA8B1FF2002F0D5
:106D60005BFB10210E2001F099FB0021274B002432
:106D7000CC5401311029F9D122460E2001F042FBFA
:106D8000214A148003F094FC164CA37893B920791F
:106D900010B9012121750DE0607958B90146012231
:106DA00002F02EFA0121234603F8051F0E200A46A1
:106DB00001F028FB0B4B9A785AB9187D48B114485A
:106DC00001F052FBFFF7D4FE05B0BDE83040FFF7FD
:106DD000BDBE4FF47F4002F0D5FFE72003F04EF830
:106DE000EDE700BF681900205DA3000871A300084B
:106DF000DDA3000805A400080D6A0008FD6900086D
:106E0000056A0008156A0008AA0200206C19002013
:106E1000981900202DE9F341A94C94F82420234629
:106E2000002A40F0C68094F83200002840F0C1806B
:106E300094F8280020B902F01DF9012184F82810E7
:106E40009F4C217D11B1FFF7A1FE06E0A27822B18F
:106E5000667D3546002E00F0DB80994B587801287E
:106E600014D15C7D012C11D1D97801290ED10324D4
:106E700094480BF041F9934982B2012002F0B0F836
:106E8000621E12F0FF04F3D18D4B5C708C4C94F8B1
:106E9000330040B9A37D002B40F0D180E17D002973
:106EA00040F0CD801EE188490A68002A40F01A812E
:106EB000637DA3B394F8320088BBA17D002900F064
:106EC000D0802CE0234603F8072F0E200121032257
:106ED00001F098FA4FF6FF7002F054FFE72002F03D
:106EE000CDFFFEF7A7FF0028754C80F2E38094F8F1
:106EF0002420002A40F0F680FEF760FF002880F290
:106F0000D7800223A3766E4C0121A07E234603F88E
:106F1000070F03220E2001F075FA0021A175684CBD
:106F2000A27D002A00F0DE80E37D4BBBFEF70AFF66
:106F300000281FD002DA4FF47F0007E0012801D1BA
:106F4000624803E0022803D14FF0FF1002F01AFF5D
:106F5000E72002F093FF5A4890F83430591CCAB227
:106F600080F8342090F8340047F230514143564BBA
:106F7000196005E0564A0121E17584F8340010607B
:106F8000FEF7A4FE002840F0AD80524A107808B108
:106F900002F048FF4A4900234D4A0B764B76CB75E9
:106FA0008B751068002800F09D80012381F8243043
:106FB00098E093F82840002C3FF442AF454D2A78E2
:106FC0000AB102F02FFF3E4C00252846E57065759A
:106FD00084F8245084F82850A575E57525766576E3
:106FE000A57603F00FFA642002F076FD237D3BB115
:106FF000284602F03FF8012084F82800FFF7C6FD7C
:107000004FF47F4002F0BEFEE72002F037FF17E7A3
:1070100031463246304602F0F3F82F480BF06CF858
:107020002E4F804638460BF067F800970190791F85
:1070300003204246334602F07FF8A6700DE7FEF7C4
:10704000E7FE1F48002202764276C27582754FF431
:107050007F4002F097FEE72002B0BDE8F04102F069
:107060000DBF642002F038FD04F1350001F08AF90B
:10707000A47E002C3FF42EAF4FF47F0002F082FE7E
:107080000F4CA27E002A3FF41DAFE72002F0F6FE6F
:107090004FF4FA7002F020FDE72002F0FDFE4FF4FD
:1070A000FA7002F019FDA17E4A1ED0B2A076E7E781
:1070B000032327E70A4901230020A37508602EE770
:1070C000681900205F010020240B00200060FF00F1
:1070D0002C0B0020F4190020660100206B01002019
:1070E000300B002002B0BDE8F08100BF07B50021E1
:1070F00000910A460B460248FFF73EFA0EBD00BF5C
:10710000D81900207047FEE7FEE7FEE7FEE770476C
:107110007047704708B503F0D3FBBDE80840FEF7A1
:10712000D1B9000008B5024B0BB1AFF3008008BD28
:107130000000000008B5024B0BB1AFF3008008BDA2
:107140000000000008B5024B0BB1FFF7C5F908BD00
:10715000D964000808B5024B0BB1FFF7BEF908BDB2
:10716000DB64000808B5024B0BB1FFF79FFA08BDBE
:10717000AD66000808B5012004F04EF838B10120D2
:1071800004F05AF8024B13B10020FFF7C1F908BD13
:107190001165000808B5022004F03EF838B102205D
:1071A00004F04AF8024B13B10120FFF7B1F908BD12
:1071B0001165000808B5042004F02EF878B1042009
:1071C00004F03AF80020064B0146188002F012FF46
:1071D000044810210122BDE8084004F038BC08BD75
:1071E000061A0020002C014008B5082004F014F80D
:1071F00038B1082004F020F8024B13B10320FFF748
:1072000087F908BD1165000808B5102004F004F8DE
:1072100038B1102004F010F8024B13B10420FFF72E
:1072200077F908BD1165000808B5202003F0F4FFC8
:1072300038B1202004F000F80E4B13B10520FFF701
:1072400067F9402003F0E8FF38B1402003F0F4FF75
:10725000084810B10620FFF75BF9802003F0DCFF3F
:1072600038B1802003F0E8FF024911B10720FFF791
:107270004FF908BD1165000808B54FF4005003F040
:10728000CBFF40B14FF4005003F0D6FF174B13B1C2
:107290000D20FFF73DF94FF4804003F0BDFF40B1F2
:1072A0004FF4804003F0C8FF104810B10E20FFF7E4
:1072B0002FF94FF4004003F0AFFF40B14FF400400E
:1072C00003F0BAFF094911B10F20FFF721F94FF47C
:1072D000006003F0A1FF38B14FF4006003F0ACFF91
:1072E000BDE8084002F070BB08BD00BF1165000892
:1072F00008B50F48102104F0E3FBC0B10C48102181
:1073000004F0E9FB002002F021FF28B9094B1A889C
:107310000A3290B2188008BD10210548002204F0FE
:1073200096FB00200121BDE8084002F063BE08BDC5
:10733000002C0140061A002008B5012004F0B6F91F
:1073400030B1012004F0C4F9BDE8084004F092B95E
:1073500008BD000008B5022004F0A8F9B0B10C4B3C
:1073600000224FF400301A7003F066FF012004F091
:10737000C5F810B1012004F0CBF804F07BF902202D
:1073800004F0A6F9BDE8084004F074B908BD00BFD8
:107390009A19002002F0A6BA00F062B838B5144974
:1073A0000B78012B23D1134A13680BB90B7038BD2E
:1073B000114C402B206881B205D94030403B206001
:1073C0001360402504E09DB2C318002023601060C4
:1073D0000A4A5018C0212A4605F0A0F80120294683
:1073E00005F0A6F90120BDE8384005F00FB938BD19
:1073F000800C0020880C0020840C0020800B0020D2
:10740000094908B50020094B0122088003201A70A1
:1074100005F0BAF9064B0246188006484FF4887109
:10742000BDE8084005F091B8380B0020340B00206F
:10743000360B00203A0B0020074B1868052809D1AD
:10744000064B1A68511C052A196003D100201860E8
:10745000FEF7A4B9704700BF281A0020E0190020E9
:107460003A4A38B511683A4B88B23A4D18801C88B0
:107470002988214001F4007084B244B14FF6FF55D1
:1074800015609A78511CC8B29870FFF7D5FF304C40
:10749000304B25881A882A4002F4004188B22546DC
:1074A0001C4608B104F074FF2A882388134003F4B3
:1074B000806188B230B1254B27494FF6FF321A6000
:1074C00048688047224A234B11881B88194001F4E1
:1074D000005081B219B11D494DF6FF700860128845
:1074E000134003F4805398B230B1184A4EF6FF713E
:1074F0001160002003F00CFC154B164918880A880F
:10750000024002F4006398B260B114490A7812B1E3
:1075100003F0DEFB02E0022003F0FAFB0B4B4FF21C
:10752000FF7018600A490B480A880388134003F467
:1075300080718AB242B1054B4FF6FF601860072098
:10754000BDE8384003F0E4BB38BD00BF445C0040F8
:10755000E41900201424002000020020CC020020A6
:10756000034B987A10B1034905220A60704700BFA7
:10757000F0230020281A0020014B04221A607047D3
:10758000281A0020034B1A78202A01D100201870F5
:10759000704700BFE819002070470000212810B58F
:1075A00008D111480368197801F07F02212A11D00F
:1075B000022010BD2028FBD10B4B19680A780B491B
:1075C00002F07F030A4A212B0CBF0B4600231070E8
:1075D0000BB9EDE7074B044C20680024836144821B
:1075E00020469847204610BD10240020457600080C
:1075F000E81900202D760008074B19680A7802F078
:107600007F03212B05D1022801D1002070472228B9
:10761000FBD00220704700BF1024002009B10220D7
:1076200070470128FBD808467047000020B9034B7B
:10763000082219680A827047014870471024002008
:10764000C801002020B9034B082219680A8270473C
:107650000148704710240020C8010020054B19681C
:10766000CA78042A04D8044B03EBC20104F010BC0E
:107670000020704710240020D0010020014904F0B0
:1076800007BC00BFF0010020014904F001BC00BFAD
:10769000F8010020334A344BD179186810B5002422
:1076A00041728472C472204604F062FF20464FF497
:1076B000007104F065FF1021204604F06DFF4021A9
:1076C000204605F009F88021204604F0F5FF204609
:1076D00004F0BEFF254B204693F8641005F036F801
:1076E000204604F0A4FF0120214604F049FF0120B8
:1076F000C02104F0E1FF0120202104F04DFF012012
:10770000214604F066FF02204FF4C06104F038FF08
:1077100002204FF4807104F0CFFF0220214604F0D4
:1077200058FF0220202104F037FF0320214604F0F7
:1077300027FF03204FF4887104F0CEFF032040217F
:1077400005F004F803204FF4405104F042FF0320F9
:10775000214604F021FF204604F0ACFD044A01203C
:10776000106010BDCD24010810240020C8010020A5
:10777000281A002010B5FEF75DF8054B00241868A4
:10778000847203F08DFA05F015F802490C6010BD03
:1077900010240020281A002038B504460D46FFF7B3
:1077A0000DF9204625614FF41651FFF711F92046D7
:1077B00038BD70B506460D46002428460AF09CFCEC
:1077C000844208D2295D3046FFF7ECF8012002F030
:1077D00083F90134F1E770BD2DE9F84304460F4603
:1077E00090460D46C7EB05095FFA89F92046FFF779
:1077F000DFF80028FADD2046FFF7DEF8C145C6B203
:1078000006D100232B7020460C49FFF7D2FF0AE077
:107810000D2EF6D00A2EF4D020463146FFF7C2F8DE
:1078200005F8016BDEE72046FFF7C2F8002803DD0C
:107830002046FFF7C1F8F6E7BDE8F8836A4F010874
:10784000F0B585B00446FFF7B3F8002840F39D80FB
:107850002046FFF7B1F8C0B2772867D104F11406CB
:1078600000212122304604F1350509F0DDFF002119
:107870004122284609F0D8FF04F17607002284F857
:10788000762020467A704249FFF793FF2046314622
:107890002022FFF7A1FF20463E49FFF78AFF394625
:1078A00001222046FFF798FF94F87630A3F13001CB
:1078B0000329F0D8312B0BD120463749FFF779FF48
:1078C00020463649FFF775FF20463549FFF771FF1F
:1078D00094F87600B0F1300708D020463149FFF720
:1078E00068FF204629464022FFF776FF20462E49B2
:1078F000FFF75FFF23693A463046294698472046FE
:107900002A49FFF756FF20462949FFF752FF204634
:107910002849FFF74EFF20462749FFF74AFF204638
:107920002649FFF746FF2046254929E069282CD142
:10793000244A01AB10685168002503C391682046B2
:1079400019602149FFF735FF01AEAE5D300900F146
:107950003001392988BF00F1570106F00F06204693
:10796000FFF720F806F13001392988BF06F15701E9
:1079700020460135FFF716F80C2DE5D113492046B6
:1079800005B0BDE8F040FFF714BF05B0F0BD00BF83
:10799000BE4D0108C54D0108F24D0108284E0108F1
:1079A000534E0108994E0108A44E0108E74E010804
:1079B000074F01083A4F01086D4F0108AC4F01080D
:1079C000DD4F0108E8F7FF1FF34F01086A4F010878
:1079D00007B5002100910A460B460248FEF7CCFD90
:1079E0000EBD00BFEC190020002100F004B80D4BC3
:1079F0005B58435004310C480C4B42189A42FFF438
:107A0000F6AF0B4A00F003B8002342F8043B094BE1
:107A10009A42FFF4F9AF03F0C5F8FDF72FFFFDF729
:107A2000E1FC70477051010800000020100B00209D
:107A3000100B002020240020FFF7FEBF01700B0A6E
:107A40000A0C090E43708270C170043070470170D7
:107A5000090A41700230704743185A78405C00EBC5
:107A6000022188B2704710B543189A78DC78415CDF
:107A7000120402EB04625878521802EB002010BD89
:107A800073B544790023022C01930FD0032C19D035
:107A9000012C2BD1164D28692E4620B1296901A849
:107AA00088470246B8B9B16801201BE0104DE8686C
:107AB0002E4620B1E96801A88847024658B9B16846
:107AC00002200FE00A4D6A692E464AB16B6901A88F
:107AD0009847024620B1A9682046BDF8043003E06B
:107AE000B16803200022134600F06CFB7CBD00BF90
:107AF0005C1B0020072810B50CD801290AD80124E6
:107B000004FA00F401FA00F0034B1A6822EA0402B6
:107B100002431A6010BD00BF58020020F0B50121D9
:107B200087B00546FFF798FF00F48043044698B2FB
:107B300050B3B4F5824F27D128460521FFF78CFFBB
:107B40000026074607353446BE4208D028460221A3
:107B5000FFF782FF013624180435B6B2F4E7744B00
:107B6000188E21188AB21A86D86B2418DC63D96B58
:107B70009A6B914240F0CE8093F84000002800F0CC
:107B8000C9809B69992033E024F4FF4121F07F02F2
:107B900090B2002800F09B8048F2100294422AD054
:107BA0000CD8B4F5004F40F2C08048F202039C426A
:107BB00017D9991C8C4240F0B88012E048F280003E
:107BC00084420ED005D848F24002944240F0AD8085
:107BD00051E0B4F5024F04D0B4F5084F40F0A58051
:107BE0006CE053498869002800F094808B69204636
:107BF00000210A4669E00023EA1851790DF80310C4
:107C00000133042BF8D1687A2B7BAA7AE97A8DF8B4
:107C100004008DF807308DF805208DF8061005F169
:107C20000D00002306AAD218C15C0133042B02F810
:107C3000101CF7D105F11100002306AAD218C15C6F
:107C40000133042B02F80C1CF7D105F115000023B9
:107C500000AAD218C15C0133042B1174F8D1344945
:107C600028798A698DF81400002A53D08B69204640
:107C70006946152229E0053500212846FFF7F3FE65
:107C8000042100902846FFF7EEFE082101902846C7
:107C9000FFF7E9FE0C2102902846FFF7E4FE1021D1
:107CA00003902846FFF7DFFE214B049099690029D5
:107CB00030D09B6920466946142206E01C48826940
:107CC00042B38369691D20460122984722E041F2B0
:107CD00003039C4205D00C339C4202D0591E8C42B7
:107CE0001AD16C1D04212046FFF7BDFE39301CD18E
:107CF0002D790F480021C5622046FFF7B4FE04210C
:107D000005462046FFF7AFFE393003D12846012152
:107D1000FFF7F0FE012009E0054A138899B28C4272
:107D200004D0B4F5805FF5D100E0002007B0F0BDCD
:107D30005C1B002038B50A4C638898B208B9002053
:107D400038BD606801780429F9D1FFF7E7FE012802
:107D50000546F4D10022628001F072FC284638BD4D
:107D60005C1B00202DE9F04704468846914600251B
:107D7000BC4B5A8890B20028FAD05E68317804294A
:107D800040F0728130460121FFF766FE054630461D
:107D9000FFF7C4FE002840F05C8141F20703771D25
:107DA0009D4253D85A1E954280F0AC8040F202208A
:107DB000854200F0A78014D80C2D09D8082D80F03A
:107DC000A180002D00F04581062D40F29B80DDE072
:107DD0000D2D00F0948040F20127BD4240F0398122
:107DE0008DE041F20202954218D8B5F5805F00F2AD
:107DF0008980B5F5017F40F2828040F207218D42F3
:107E000040F027813379002104F8013B3846FFF721
:107E10002AFE01462046FFF711FE1AE141F2040056
:107E2000854200F0898040F2A08038460021FFF7AB
:107E30001AFE042120603846FFF715FE6060083402
:107E400006F10D07224606F11D016EE041F2110018
:107E5000854254D02CD841F20B02954252D01CD806
:107E600041F209018D424DD000F28B80002138464D
:107E7000FFF7F9FD042120603846FFF7F4FD0821E3
:107E800060603846FFF7EFFD0C21A0603846FFF731
:107E9000EAFD04F10C0AE060DAE041F20F008542ED
:107EA00063D035D841F20D02954240F0D28043E0D4
:107EB00042F206018D4222D008D8B5F5005F40F2AB
:107EC000C88042F204039D4219D983E042F20803BC
:107ED0009D42C0F0BE80581C854210D944F20B026E
:107EE000954240F0B6807179DFF878A13846AAF85B
:107EF00030100121FFF7B0FDAAF83200A9E0377970
:107F00002770A6E038460021FFF7ADFD2060A0E015
:107F100000213846FFF7A7FDA2464AF8040B0421CA
:107F20003846FFF7A0FD606092E057F8043B8F42AF
:107F300042F8043BF9D18CE000213846FFF793FD6D
:107F4000042120603846FFF78EFD08216060384626
:107F5000FFF789FD04F1080AA060E46814F1390311
:107F600076D10121FFF7C6FD72E000213846FFF708
:107F70007AFD042120603846FFF775FD6060083403
:107F800067E0337923713F68276062E0384600215B
:107F9000FFF769FD042120603846FFF764FD0821E2
:107FA00060603846FFF758FD0A21A0603846FFF7A9
:107FB00053FDC4F80A000C3406F11107224606F1FD
:107FC000350157F8043B8F4242F8043BF9D1388819
:107FD00010803EE00022B7187879A0540132042ABC
:107FE000F9D106F109070023F95CE0180133042BED
:107FF0000171F9D106F10D070020395C221801301A
:1080000004281172F9D106F111070023F95CE21876
:108010000133042B1173F9D106F115000022875C9E
:10802000A1180132042A0F74F9D106F119000023B6
:10803000C75CE1180133062B0F75F9D106F11F005B
:108040000021475C6218013120299776F9D100E0C0
:108050005446044B188882B2954225D100211980DC
:1080600022E000BF5C1B002030460321B778FFF7F9
:10807000F3FC8246B8F1000F0CD00421701DFFF70D
:10808000F2FC0346C9F8000006F115014046DAB2D9
:1080900009F044FA7A1DB1182046C7EB0A0209F02C
:1080A0003DFA0F490020C8860D4F00237B8001F068
:1080B000C7FA3078042805D1B5F5805F02D1304683
:1080C000FFF7DEFC3A8891B200297FF451AE044BF1
:1080D000D88E80B200287FF44BAEBDE8F08700BF99
:1080E0005C1B002007284FF0010308D803FA00F0BA
:1080F00004490A6810420CBF00200120704718464E
:10810000704700BF58020020064B10B5064C18807F
:1081100001202070084600210A46FFF723FE0021B7
:10812000217010BD5C1B0020641A002038B5054C7E
:108130000123E386044C1D462370FFF713FE002045
:10814000207038BD5C1B0020641A002038B503463F
:10815000154601224A710C46881D1946FFF777FC27
:10816000291D0570204601F02DFB002038BD38B5D3
:10817000BDF814500C469B18A071E81885B2022176
:108180006171E271294604F10800FFF760FC6A1D85
:10819000204691B201F016FB002038BD38B59B187F
:1081A0000C469DB202216171A071E271294604F171
:1081B0000800FFF74CFC6A1D204691B2BDE838402C
:1081C00001F000BB2DE9F0471D4605F1020A03232B
:1081D00001F107091FFA8AFA88714B710C4648466B
:1081E00051461746FFF733FCB5F57A7F804613D822
:1081F0002946FFF72CFC29464046FFF728FC394664
:1082000004F10B002A4609F089F9A91D204689B21C
:10821000BDE8F04701F0D6BA4FF47A76B5FBF6F137
:108220000AEB410291B2FFF712FC31464046FFF7DC
:108230000EFC394604F10B00324609F06FF9A5F542
:108240007A75204640F2EE31ADB2BF1901F0BAFAAC
:10825000B5F57A7F05D9A5F57A7085B24FF47A76AF
:1082600001E02E460025A046394628F8056F48460D
:10827000324609F053F9B31C404699B2BF1901F0D8
:10828000A1FA002DE4D1BDE8F0870000F7B51A4C43
:108290001E46A468FF238DF807300025475D63194B
:1082A0000135042D5F72F9D100200D5C23180130D7
:1082B00004285D73F9D10021505C63180131042951
:1082C0005874F9D104F115000021FFF7B7FB002223
:1082D000B35C83540132042AFAD12146142242F2BB
:1082E0000100FFF733FF42F201000DF10701FFF734
:1082F0000BFF9DF90700FEBD5C1B00202DE9F3413B
:1083000006460C461E4831681546D0F808804A1EBD
:108310001F46FF23122A8DF8073008F1090001D803
:108320001423336021684A1E122A01D814232360C3
:1083300029684A1E122A01D814232B6039684A1E64
:10834000122A01D814233B603168FFF777FB2168BC
:10835000FFF774FB2968FFF771FB3968FFF76EFBC5
:108360004146142242F20900FFF7F0FE42F20900F2
:108370000DF10701FFF7C8FE9DF90700BDE8FC817C
:108380005C1B002038B5074B42F20504054699688E
:1083900020460022FFF7DAFE20462946BDE8384095
:1083A000FFF7B2BE5C1B00202DE9F341864614485E
:1083B0000D46866871461F4602ACFF2306F1090090
:1083C00004F8013D9046FFF739FB2946FFF736FBDD
:1083D00040F201254146FFF731FB0C223146284689
:1083E000FFF7B4FE28462146FFF78EFE00213846EF
:1083F0000A46FFF79BFE9DF80700BDE8FC8100BF21
:108400005C1B00202DE9F341864616480C46866821
:108410007146984602AD4FF0FF3306F10A0045F869
:10842000043D1746FFF70AFB0C21FFF707FB214627
:10843000FFF704FB3946FFF701FB4146224606F1F0
:108440001A0009F06BF8902031461022A3B2FFF712
:10845000A5FE40F202202946FFF756FE0198BDE82E
:10846000FC8100BF5C1B002037B50B4B40F2072599
:108470000446996800222846FFF768FE28466946A8
:10848000FFF742FE9DF803009DF804102070617014
:108490009DF800003EBD00BF5C1B002037B50D4AB3
:1084A000034695680C4605F109001946FFF7C6FA20
:1084B000214640F20324FFF7C1FA2946082220464C
:1084C000FFF744FE20460DF10601FFF71DFEBDF843
:1084D00006003EBD5C1B00202DE9F0430023CA5C72
:1084E000C2540133102BFAD10022334B467B99182A
:1084F00091F8018004789F19F97A88EA0405847B51
:1085000085EA01081D194178EF7A90F80CC04F40B8
:10851000C17B80F810805D1895F80B9085786344D6
:1085200089EA050593F80B90C378477489EA030339
:1085300090F80490FFB288EA090890F805908574D5
:1085400087EA090790F80690EDB285EA090590F8E8
:108550000790C374DBB283EA090390F8089080F8AF
:1085600014805FFA88F888EA090890F8099047753E
:10857000FFB287EA090790F80A908575EDB285EA9F
:10858000090590F80B90C375DBB283EA090388EA0A
:108590000C0C7E406C405940013280F818804776C0
:1085A0008576C37680F81CC046778477C177103013
:1085B0000A2A9AD1BDE8F0832225010810F0800F25
:1085C0004FEA400018BF80F01B00C0B270470000A7
:1085D0002DE9F04F037891F8A0A004468AEA030A37
:1085E00080F800A091F8A1204078A77882EA0005E1
:1085F000657091F8A260E07886EA0703A37091F8AD
:10860000A32097B0059582EA0005E57091F8A49043
:108610002679069389EA060984F8049091F8A570F2
:108620006379079587EA0302627191F8A600A5793C
:10863000E37980EA0506A67191F8A7700C9287EAA3
:10864000030B84F807B0227A91F8A880607A88EA50
:10865000020884F8088091F8A9700896474067726C
:1086600091F8AA50A67AE07A85EA0603A37291F8F7
:10867000AB20267B82EA0005E57291F8ACC0099335
:108680008CEA060C84F80CC091F8ADE0637BA27B09
:108690008EEA030E84F80DE00D9591F8AE50E07B64
:1086A0005540A57391F8AF204B4B4240E2739A447A
:1086B00091F890009AF80B6199444640267091F821
:1086C000940099F80BA198448AEA0006267191F863
:1086D000980098F80B919C4489EA000626729CF851
:1086E0000BA191F89C009E448AEA00062673DF19CC
:1086F0009EF80B8197F80BC191F8910091F89D605D
:1087000088EA00098CEA060060730C9FDDF814A06B
:10871000DE1996F80B0191F89970DDF8208080EA57
:108720000706667203EB0A0091F8956090F80B71EA
:1087300084F8019087EA0600607103EB0800DDF819
:1087400018E090F80B91099803EB0E0703EB000E6D
:108750009EF80BC191F8920091F89A6097F80B710E
:108760008CEA000A77405D1991F89E6084F802A0B7
:1087700091F8960095F80B81A772079F88EA00058B
:1087800089EA0606A673A571DE1996F80B0191F821
:108790009F5003EB0B0791F89360454097F80B014E
:1087A0009A1880EA06070D98E7701E1896F80B7164
:1087B00091F897004FF0090B87EA0006E67191F8EF
:1087C0009B3092F80B71E57387EA0300E0720D4667
:1087D000CDF840B002E000BF2225010894F80090D7
:1087E000A77887EA0900FFF7E9FEFFF7E7FE94F8AC
:1087F0000180E678824686EA0800FFF7DFFEFFF791
:10880000DDFE8AEA070380EA080227797040A6792C
:108810008AEA09015FFA80F886EA07005FFA82FBBC
:108820005FFA83FA5FFA81F903970296FFF7C6FEB3
:10883000FFF7C4FEE6796779014686EA07000491EE
:10884000FFF7BCFEFFF7BAFE039B049A94F808C03A
:1088500082EA0301CBB2029947404A40A17A7040B4
:10886000C6B2059381EA0C00D3B20291CDF804C0E0
:1088700006930796FFF7A2FEFFF7A0FE637AE67A5B
:10888000024686EA030003930492FFF797FEFFF780
:1088900095FE049ADDF804C0039B82EA0C015FFA9E
:1088A00081FC80EA0301CBB2029909934A40D3B21A
:1088B000CDF820C00A9394F80CC0A17B7040C6B2DA
:1088C00081EA0C000291CDF804C00B96FFF776FE0A
:1088D000FFF774FE637BE67B024686EA03000393A0
:1088E0000492FFF76BFEFFF769FEDDF804C0049AFF
:1088F000039B82EA0C015FFA81FC80EA0301CBB2A0
:10890000029970404A40C6B288EA0A018BEA09001F
:108910000D93D3B20E930291CDF830C00F9681EA39
:108920000006FFF74BFE89EA000286EA020C5FFAB6
:108930008CFC8AEA0B0084F800C0CDF804C0FFF775
:108940003DFE8BEA000386EA030B02995FFA8BFC7B
:1089500084F801C00846CDF844C0FFF72FFE8AEA2C
:10896000000286EA020A5FFA8AFB88EA090084F8B4
:1089700002B0CDF848B0FFF721FE88EA0000DDF82C
:1089800018900599079A4640FFB2F6B282EA0908A4
:1089900087EA0100E670139688EA0006FFF70EFEEC
:1089A000059B584086EA0001CAB2484622717840C9
:1089B0001492FFF703FE474086EA0703D8B21590EA
:1089C00060714046FFF7FAFD89EA0001059B86EADF
:1089D00001020798D7B25840A7710697FFF7EEFD3E
:1089E0000799089A48404640F6B20A9F0596E671F4
:1089F00009980B9E50407E4086EA0007FFF7DEFD97
:108A0000DDF820A08AEA000387EA030C5FFA8CF8FD
:108A100084F8088009990A984840FFF7CFFD099A21
:108A2000504087EA000B5FFA8BF9304684F80990D2
:108A3000FFF7C4FD0A9E524686EA000387EA030157
:108A40000B985FFA81FB504084F80AB0FFF7B6FD3F
:108A5000DDF82CA00E998AEA00000C9E47400F9B7F
:108A60000D98FFB24B407040E77283EA000A029310
:108A7000FFF7A4FD0C9A0D9B50408AEA00060E9861
:108A8000F6B226735840FFF799FD0D99029B81EAD3
:108A900000028AEA0200C1B2617318460391FFF72F
:108AA0008DFD0E9A0C9B50408AEA00010F98CAB2C5
:108AB000A27358400492FFF781FD0F99514B484033
:108AC0008AEA000C5FFA8CFADDF804C084F80FA083
:108AD00003EB0C0295F8800092F80B11DDF850C002
:108AE00081EA0002227003EB0C0195F8840091F8F2
:108AF0000B219E1982EA000103EB0802217195F80F
:108B0000880092F80BC196F80B218CEA00012172C3
:108B100095F88C00039E82EA000121739A1995F85A
:108B2000811092F80B0103EB090680EA010295F827
:108B30008D0096F80B11DDF844C081EA0006159906
:108B40006673581890F80B6195F88910DF1986EA5A
:108B50000100607203EB0C0695F8850096F80B1186
:108B60006270129A81EA000666719918DDF818C0E1
:108B700095F88A6091F80B0103EB0C0295F88E10C2
:108B8000704092F80B6103EB0B02714092F80BC13D
:108B900095F882608CEA0602049EA2709A1992F8F7
:108BA0000B6195F886205640A671A0721398A173A8
:108BB000191895F88F2091F80B61DDF814C07240F8
:108BC00003EB0C0695F8831096F80B0153444840CC
:108BD000E07095F8871097F80B014840E07195F820
:108BE0008B0093F80B11E273109A81EA0003511E77
:108BF000103D11F0FF00E37210907FF4EFAD17B05D
:108C0000BDE8F08F2225010838B5054C0546204601
:108C1000FFF762FC28462146BDE83840FFF7D8BC84
:108C2000651A0020034610210C200022FFF7BCBB70
:108C3000034610210C200022FFF7E4BB38B505469F
:108C40000E4CE36A4BB108F049F8E36A0360002078
:108C5000E06208F043F8006838BD2846FFF742FAA2
:108C600040B9228E91B20029EAD0238E5A1E91B2C9
:108C7000218638BD4FF0FF3038BD00BF5C1B00209F
:108C8000F7B5034614480D4686681946174602ACE8
:108C90004FF0FF3206F1090044F8042DFEF7CEFE36
:108CA0002946FEF7CBFE41F201053946FEF7C6FE26
:108CB0000C2231462846FFF749FA21462846FFF79D
:108CC00023FA08F00BF80199016008460021FEF72D
:108CD00011FF0198FEBD00BF5C1B0020F7B50546E3
:108CE00010484FF0FF33876802AC294641F20B066B
:108CF00007F1090044F8043DFEF7A0FE04223946BE
:108D00003046FFF723FA21463046FFF7FDF907F01A
:108D1000E5FF0199016028460121FEF7EBFE01986D
:108D2000FEBD00BF5C1B002037B5034613484FF063
:108D3000FF3284680D4604F1090019460192FEF7DE
:108D40007DFE0821FEF77AFE0821FEF777FE00235C
:108D5000E95CC1540133082BFAD11422214641F2B7
:108D60000700FFF7F3F901A941F20700FFF7CCF97B
:108D700007F0B4FF019A026010463EBD5C1B002064
:108D80002DE9FF411D46314B8646D3F808800F463A
:108D900008F10900714616460A9CFEF74FFE1421A1
:108DA000FEF74CFE1421FEF749FE1421FEF746FEA5
:108DB0001421FEF743FED4F1010138BF0021FEF774
:108DC0003DFE0FB1396800E03946FEF737FE0EB1BF
:108DD000316800E03146FEF731FE0DB1296800E050
:108DE0002946FEF72BFE74B1216839B9636841F258
:108DF00087329342DCBF41F288336360FEF71EFE88
:108E00006168FEF71BFE2C22414641F20800FFF785
:108E10009DF941F208006946FFF776F9009B002BA7
:108E200009DB0FB1019838600EB1029A326045B18A
:108E30000399296005E007F051FF00994FF0FF33D7
:108E40000160184604B0BDE8F08100BF5C1B002043
:108E50002DE9FF419846154B07469D6814460E467E
:108E600005F109003946FEF7E9FD2146FEF7E6FD6A
:108E70004146FEF7E3FDBDF830400C22294620466E
:108E8000FFF764F9204601A9FFF73EF90298002890
:108E900004DD30460A990B9AFFF748F907F01EFFE8
:108EA00002990160084604B0BDE8F0815C1B002017
:108EB0001FB500240094019441F204040294FFF7CA
:108EC000C7FF04B010BD00002DE9F04FDFF8E090BF
:108ED00089B01446012289F8002003919B46139E15
:108EE000149D0290FFF7AAFEDDF808C0002859D1B2
:108EF0002E4B89F80000996B4A1C9A63D3F80890AE
:108F0000812D09F10A0307D0832D0AD104F1080A43
:108F100009F12208182704E009F11A08102706466B
:108F2000129061461846FEF789FD391FFEF786FD4F
:108F30002146FEF783FD5946FEF780FD832D05D1BE
:108F40005146FEF77BFD0821FEF778FD0022A24284
:108F500005DA0398815C08F802100132F7E7002C6B
:108F6000A8BFA044832D0ED01299B6B200910196ED
:108F7000E8B249463A46A3B2FFF7F9F8832D0BD180
:108F800041F20F000AE00020B042EDDA129A135CC1
:108F900008F800300130F7E741F2030005A9FFF7B8
:108FA000B3F8204609B0BDE8F08F00BF5C1B00207D
:108FB000641A00201FB500240094019481240294B7
:108FC000FFF782FF04B010BD1FB5069C0094079CFC
:108FD000019483240294FFF777FF04B010BD0000D2
:108FE000202A73B503460E46144622D8124A194663
:108FF000956805F10900FEF721FD0821FEF71EFD29
:109000002146FEF71BFD0022A24203DAB15C815427
:109010000132F9E704F10C032946DAB241F21100FA
:10902000FFF794F841F2110001A9FFF76DF80198DC
:1090300001E04FF0FF307CBD5C1B0020024B0122A1
:109040005A805860FEF776BE5C1B002010B5084CB5
:10905000E16022616361029B0399E361049A059BCD
:1090600021626262A362A061012084F8400010BD09
:109070005C1B002070B5224C054622480023A363E8
:10908000E363238023866386A386E386E3626380AB
:109090006360A0601C4800F0B1FAE1698847A26AE9
:1090A0000646012090470EB3E16988470028FBD1AE
:1090B000134C002D14BF02250025A16801224D721A
:1090C0004FF48040FFF742F800214FF48040FFF753
:1090D0001BF8A168002244F20B00FFF737F844F2B6
:1090E0000B000021BDE87040FFF70EB8E369984718
:1090F0000028FBD0E06980470028FBD1D8E700BFFB
:109100005C1B0020C41B00203D90000838B5094CB2
:109110000020A36A98472546E869064C8047002846
:10912000FAD0A16809B10022A260BDE8384000F081
:1091300079BA00BF5C1B00202DE9F04F83462F4811
:1091400085B0D0F80890144600259A4688464FF01E
:10915000FF331C2109F1090001930F9E0E9F029518
:10916000ADF80C50FEF76AFC2146FEF767FC594645
:10917000FEF764FC04F11001FEF760FC3146FEF7D7
:109180005DFC2946FEF763FCBAF1000F08D01AF81F
:10919000052042550135062DF9D10630002207E0A1
:1091A000534602AA995CC1540133062BF9D1F4E766
:1091B000A24204DA18F8021081540132F8E7002CB8
:1091C000A8BF00193EB100232FB1B34203DAFA5C05
:1091D000C2540133F9E71C34A319DAB2494601201D
:1091E000FEF7B4FF01A90120FEF78EFF07F076FD20
:1091F00001990160084605B0BDE8F08F5C1B0020B6
:10920000F7B503460F480E4685681946174602AC67
:109210004FF0FF3205F1090044F8042DFEF70EFC73
:109220003146FEF70BFC3946FEF708FC29460C22B6
:109230000420FEF78BFF04202146FEF765FF01980E
:10924000FEBD00BF5C1B00202DE9F04F8346714836
:1092500085B0D0F808900D4614465946002209F111
:1092600009009A460E9F0F9E0292ADF80C20FEF761
:10927000E5FBBBF1030F00F2BE80DFE80BF0022F2D
:1092800076761421FEF7DAFB2146FEF7D7FB0021A4
:10929000FEF7DDFBBAF1000F07D000221AF802102A
:1092A00081540132062AF9D106E0534602A95A5CDC
:1092B000C2540133062BF9D106303946FEF7BEFB06
:1092C0004FF00008A04506D015F8083000F8083027
:1092D00008F10108F6E708F118008AE02021FEF7FE
:1092E000ADFB2146FEF7AAFB0021FEF7B0FBBAF169
:1092F000000F07D000221AF8021081540132062A0A
:10930000F9D106E0534602AA995CC1540133062BF9
:10931000F9D139460630FEF791FB04F10C01FEF756
:109320008DFB3146FEF78AFB1099FEF787FB002282
:10933000A24203D0AF5C87540132F9E70019002242
:109340000421129D8718AD180023B34205D015F8EB
:1093500003E007F803E00133F7E701391A44F0D1DD
:1093600004F1240C0CEB830043E02821FEF766FB9C
:109370002146FEF763FB0021FEF769FBBAF1000FFF
:1093800007D000221AF8021081540132062AF9D1BE
:1093900006E0534602A95A5CC2540133062BF9D1A8
:1093A00039460630FEF74AFB3146FEF747FB109977
:1093B000FEF744FB1199FEF741FB04F10801FEF7AB
:1093C0003DFB1399FEF73AFB0021A14203D06A5CF2
:1093D00042540131F9E70019002313998B4204D05C
:1093E000129AD15CC1540133F7E704F12C0808EB61
:1093F00003001FFA80F849465FFA88F20520FEF75D
:10940000A5FE052001A9FEF77FFE019805B0BDE885
:10941000F08F00BF5C1B002037B50B4B01469D68E9
:1094200002AC05F10900FEF709FB4FF0FF3044F8EC
:10943000040D294604220620FEF788FE0620214658
:10944000FEF762FE01983EBD5C1B002037B548F276
:10945000080248F2080102408A42034613490BD130
:109460000020934281F840001FD023F4004424F0F0
:10947000080545F4004302E0012081F840000B4953
:109480004FF0FF328D6802AC194605F1090044F82F
:10949000042DFEF7D3FA294604220820FEF756FED3
:1094A00008202146FEF730FE01983EBD5C1B0020DF
:1094B00073B50C4B01469D684FF0FF3602AC05F1C9
:1094C00009000196FEF7BAFA44F8046D2946042211
:1094D0000A20FEF73BFE0A202146FEF715FE019802
:1094E0007CBD00BF5C1B002007B50D4A4FF0FF3369
:1094F0000193916890B154234370037083704B7251
:1095000042788A7280780322C8720C20FEF71EFE11
:109510000C2001A9FEF7F8FD019800E018460EBDE9
:109520005C1B00202DE9F041314886B0FFF77AFB43
:109530000546002858D12F4E2A460D204321334698
:10954000FEF732FF054600284ED13778284907F14B
:10955000030808EB06042046FFF756FB3378F6189D
:109560007078102804D904F110002149FFF74CFB52
:10957000E17F204A21B112F808301F2B04D101E00D
:1095800012F80830013400E02023107811188A788E
:10959000032A29D8DFE802F0020E1919002001255C
:1095A00000950190029003900490059012493A466C
:1095B000034616E001208DE809000023029303937F
:1095C000049405930C493A460BE0012018211E2211
:1095D00002258DE8270008490593049403203A46A4
:1095E0000023FFF731FE0546284606B0BDE8F081AE
:1095F000A01B0020181B0020191B002008B5064BDB
:1096000000221860054906489A601961DA80DA601C
:109610009A80036A984708BDB01B0020C41F002031
:109620005C1B002008B5044B1A690AB100201861C0
:1096300002494B6A984708BDB01B00205C1B002004
:10964000024B4FF480725A60704700BF00E100E0A7
:1096500008B5074B4FF48072C3F8842000F076FE03
:10966000044902200A6988600B68501D984708BDAC
:1096700000E100E0B01B002070B506460020144653
:109680000D4600F053FE012EA4B207D13046294604
:10969000224600F0D3FD0020124907E0124B0120C2
:1096A0001969224600F0CAFD00202946224600F032
:1096B000C5FD0E480221012201F049FD012000F004
:1096C00035FE0A4801F04BFD0028FAD1084801F0A8
:1096D00046FD0028FAD10748802102F03CF8002816
:1096E000F9D170BD5C020020B01B00205800024080
:1096F000440002400038004003460A460120194653
:10970000FFF7BABF70B50646002014460D4600F0BC
:109710000DFE012EA4B207D130462946224600F0A4
:109720008DFD0020104907E0104B012019692246E9
:1097300000F084FD00202946224600F07FFD012034
:1097400000F0F4FD0A4801F00AFD0028FAD10948AA
:1097500001F005FD0028FAD10748802101F0FBFF48
:109760000028F9D170BD00BF5C020020B01B0020B2
:1097700058000240440002400038004003460A46B8
:1097800000201946FFF7BEBF38B504460D4600F06D
:10979000F9FE322000F0ACF9214604220020FFF748
:1097A000B1FF322000F0A4F90020211D2A1FFFF78D
:1097B000A9FF034B02229A6000F0C8FD002038BDCB
:1097C000B01B0020F8B501F00106044686F0010048
:1097D0000D18012300262370C5F307221B4BE670EA
:1097E00026716270A57005319D68081886B215B99A
:1097F0009A68012AFCD19968144D012907D12046A5
:109800003146FFF7C1FFA8680228FCD11CE0AF6811
:10981000022FFCD10E48802101F09DFF0028F9D1D4
:109820000C4DE86980472F460028F9D0074D0323E7
:10983000AB60EC60AE8000F0A5FEFA6990470028AE
:10984000FBD0A9680229FCD10020F8BDB01B002084
:10985000003800405C1B002070B5184E35696B79EC
:10986000022B08D0042B25D1287A441E14F0010FB6
:1098700018BF044614E0681D0321FEF7EDF8B0F5AB
:10988000806F044608DB05F10A004FF4806107246D
:10989000FFF732FFB4600EE0C30701D4441C00E0C0
:1098A00024B105F10A00A1B2FFF726FF03490822FF
:1098B0008A6000E00024204670BD00BFB01B00207D
:1098C000024B012019690A22FFF7D6BEB01B002007
:1098D00008B5FFF7C1FF18B9BDE80840FFF7B8BEEB
:1098E00008BD000070B5364C4FF40030266901F019
:1098F00039FC05464FF4005001F034FCA368062BF8
:109900000BD1002D5BD0002859D04FF4083001F066
:1099100037FCBDE87040FFF7DBBFA16807291BD10A
:1099200000284CD04FF4083001F02AFC0321701DB0
:10993000FEF792F8A0F58064A1B2214CCA0758BF87
:10994000A0F2FF31206958BF89B200F20A40FFF748
:10995000D3FE0823A36070BDA268082A09D100289D
:109960002DD04FF4083001F00BFCBDE87040FFF73C
:109970006FBEA068052811D1002D20D0114880218C
:1099800001F0E9FE0028F9D14FF4083001F0F8FBAE
:1099900000F0DCFC0A4A0221916070BDA368042B30
:1099A0000DD165B1A088E2680521A0F58063A160B2
:1099B00002F5806099B2BDE87040FFF7DFBE70BD70
:1099C000B01B00200038004008B5174BD86980470D
:1099D000002827D1154B9A6812B90120986008BD5C
:1099E0009968022907D106229A6000F0CBFDBDE8F4
:1099F0000840FFF765BF9A68032A13D19A88B2F529
:109A0000806F06D805219960D968BDE80840FFF746
:109A100033BE04209860D8684FF48061BDE80840E8
:109A2000FFF7ACBE08BD00BF5C1B0020B01B0020D0
:109A3000BFF34F8F054A064BD16801F4E06040EA5E
:109A40000301D160BFF34F8FFEE700BF00ED00E0E0
:109A50000400FA050D4B0E4A197839B9D88881B23D
:109A60001187188981B291879B8806E0D88981B2D5
:109A70001187188A81B291879B8906489BB2938689
:109A8000FF21632202704170704700BFF41900206B
:109A9000002C0140640200204FF4407001F07CB9BA
:109AA0000A4B4FF47A701A68094BB2FBF0F109487F
:109AB0004A1EF0215A6080F82310002207219A6084
:109AC0001960D02380F82330704700BFB80200200F
:109AD00010E000E000ED00E082B00190019A034B3D
:109AE0001A6018680028FCD102B07047D02300200B
:109AF00013B50749074B01900C68074901985A684C
:109B0000B4FBF1F100FB01205A689042FCD81CBD67
:109B1000B8020020001000E040420F0030B54FF4C2
:109B2000003085B001F088FB08204FF40033002599
:109B300001248DF80D00684402938DF80C508DF8C7
:109B40000E4001F027FB032101A88DF804108DF8C9
:109B500005108DF806508DF8074001F027F9042311
:109B600029220DEB03008DF804208DF805308DF8C7
:109B700006508DF8074001F019F9022001F0BEFCF3
:109B800050B1022001F0C4FC01F07EFD24204FF60C
:109B9000FF7101F015FA27E0242001F01FFA4AF2C4
:109BA000A551884201D101F095FC012001F0C8FCCB
:109BB000412001F013FD0028FAD04FF4807001F02D
:109BC000CFFC012001F0D4FC01F05EFD01F052FD5C
:109BD0000320012101F01EFD01F04CFD47F6FF704E
:109BE00001F038FD01F046FD05B030BD10B504466A
:109BF00045F2555001F046FC062001F049FC42F2C6
:109C00001070844228BF044628216143C1F30F200D
:109C100001F044FC01F048FCBDE8104001F04CBCF0
:109C2000082814D8012908D10B490C4A01EB8003FC
:109C3000596832F8100008610BE051B9064B074A29
:109C400003EB80014B6832F81000586101E0FF23FC
:109C500000E0002358B2704764020020302701085A
:109C600073B50E4E8500731904460121186901F081
:109C700091FC0B4B36F8140010215D19ADF804006F
:109C80008DF807100322686801A98DF8062001F0FD
:109C900053FB20460021FFF7C3FF7CBD302701089E
:109CA0006402002070B5012188B04FF4006001F01B
:109CB00071FC314B31481C686026B4FBF0F1304C2C
:109CC00001A88DB201F096FE01A801F093FE42F2C8
:109CD0000F7201A9ADF8045020460025ADF8082008
:109CE000ADF80A50ADF8065001F03CFD04A801F0B3
:109CF0008AFE0223ADF810602046012604A9ADF8C3
:109D00001830ADF81260ADF81650ADF81C5001F0E7
:109D100073FD2046294601F0AFFE204604A901F05C
:109D2000AFFD2046294601F0AFFE204604A901F010
:109D3000EBFD2046294601F0B1FE204604A9ADF80E
:109D40001050ADF81260ADF81650ADF8185001F093
:109D50001DFE2046294601F0A9FE2046314601F0AD
:109D60007FFE2046314601F058FE2046314601F084
:109D700060FE08B070BD00BFB802002040420F0076
:109D8000002C014030B51049104B8C8D93F82420E5
:109D9000A5B26C1C5443C0F307435C430C4B250C29
:109DA000DD808C8DA5B26C1C5443C0F307256C4339
:109DB000240C1C81898DC0B289B2013148434243D1
:109DC000120C9A8030BD00BF002C014064020020BC
:109DD000F419002030B51049104B8C8D93F82420D5
:109DE000A5B26C1C5443C0F307435C430C4B250CD9
:109DF000DD818C8DA5B26C1C5443C0F307256C43E8
:109E0000240C1C82898DC0B289B20131484342437F
:109E1000120C9A8130BD00BF002C0140640200206A
:109E2000F4190020024B00221A70FFF713BE00BF86
:109E3000F419002037B50F4D044605EB8003186B6D
:109E4000012105EB440501F0A5FBB5F84000ADF894
:109E500004000CB9102100E01821074B8DF8071001
:109E600003EB84040322A06A01A98DF8062001F007
:109E700063FA3EBD302701086402002018B1E728CC
:109E800007D1FFF7E7BD034B4FF40052986A026118
:109E9000704770476402002058B1E7280FD1084A84
:109EA000002308481387938793860122037042702A
:109EB00005E0044B4FF40050996A486170477047C1
:109EC000002C014064020020024B0122E7201A709E
:109ED000FFF7E2BFF419002010B1E72840D106E0F7
:109EE00020498B6ADA6882F40050D86070471E4AB5
:109EF0001E4B1178C1B9188F80B208B1198702E0E2
:109F0000D1888AB21A879B8F184899B209B100216B
:109F100002E0154A138999B281871449888E82B26A
:109F2000C2B9114B988819E0188F81B209B100208D
:109F300001E0D28990B218879B8F0C499AB20AB17E
:109F4000002202E00848038A9AB28A870749888E6D
:109F500083B20BB1002002E0034A908980B2888668
:109F6000704700BF64020020F4190020002C01405B
:109F700010B51D4A13780BB9012102E0632B01D102
:109F8000FF2151705178E7280B44DBB2137029D1BF
:109F9000164A6320147816497CB9D488A4B25C436D
:109FA000B4FBF0F4A4B20C871489A4B25C43B4FBF4
:109FB000F0F4A4B28C8792880EE0D489A4B25C43FA
:109FC000B4FBF0F4A4B20C87148AA4B25C43B4FBD3
:109FD000F0F4A4B28C87928992B25343B3FBF0F3AE
:109FE00098B2888610BD00BF64020020F4190020DA
:109FF000002C014073B5104C0E4604EB400494F85D
:10A000004C10054694F8480001F022FAB4F850408C
:10A01000204601F0FBF809480023451995F838104F
:10A02000684600948DF804308DF805108DF80660B0
:10A0300001F0B0F87CBD00BF3027010864020020A9
:10A04000F7B5224E8700F3190546586D0C4640F0CF
:10A050000100012101F09EFA1D4B06EB45065A193D
:10A0600092F83A10B6F85C0002AADF198DF80310D6
:10A0700022F8080D6946F86B01F05EF9012C24D135
:10A080001021002213481B2701F0E1FC05238DF865
:10A09000047001A800278DF805308DF806708DF842
:10A0A000074000F083FEB6F8601006208DF805002A
:10A0B00001A88DF804108DF806708DF8074000F0A7
:10A0C00075FE28462146FFF795FFFEBD30270108A3
:10A0D00064020020002C01401A4B1B49DA6810B5BD
:10A0E00042F080700024D8604C600B684FF0C05084
:10A0F00043F001020A60012101F058FA012001F049
:10A10000E3F9FFF7C9FC0120014601F043FAE0B290
:10A110000134FFF7A5FD082CF9D1FFF7C3FD00209E
:10A12000FFF788FE0120FFF785FE0220FFF782FE81
:10A130000320FFF77FFE00200121BDE81040FFF75C
:10A140007FBF00BFF0ED00E0001000E0054A064BC5
:10A1500002EB800103EB4002C86BB2F85C1001F027
:10A160003BB900BF6402002030270108024B03EB1B
:10A170004000418A88B27047F4190020024B002247
:10A1800003EB400042827047F419002010B508200C
:10A1900086B0012101F0FEF9264C4FF480400121E8
:10A1A00001F004FA032018214FF400538DF8020047
:10A1B0008DF8031020466946ADF8003001F0BCF878
:10A1C0004FF4004220466946ADF8002001F0B4F893
:10A1D00004204FF480438DF8030069462046ADF813
:10A1E000003001F0A9F80021ADF804104FF482729C
:10A1F000ADF80810ADF80A104FF40070ADF8121069
:10A20000A4F5544407210123ADF80620ADF80E0053
:10A210000822ADF81410204601A9ADF80C30ADF8B5
:10A22000102001F05FFA2388034A98B2108006B02C
:10A2300010BD00BF000C0140DE23002070B50446B5
:10A2400001208CB00E460146154601F097F9124BDD
:10A25000002080224FF44051012C0193029605907A
:10A2600006920790089009900A910B9006D10390EE
:10A270000A48049500F0C8FE084807E04CB91023CE
:10A2800007480393049500F0BFFE054801A900F0BC
:10A2900033FF0CB070BD00BF0C38004044000240DA
:10A2A0005800024073B50F230124002501A88DF842
:10A2B00004308DF805508DF80650174E8DF8074084
:10A2C00000F074FDFFF762FF20462A461349FFF7AE
:10A2D000B5FF28462A461249124DFFF7AFFF304618
:10A2E0000221224600F033FF28462146224601F093
:10A2F00024FA22462846022101F01FFA2846214668
:10A3000001F00FFA2146084800F016FF30462146BA
:10A3100000F012FF7CBD00BF58000240C41F0020A7
:10A32000C41B0020003800404400024010B5044621
:10A330002146044800F000FF03482146BDE81040D4
:10A3400000F0FABE440002405800024002484FF4B8
:10A35000805101F047B800BF000C014008B54FF430
:10A360000061024801F038F808BD00BF000C014050
:10A3700030B5092085B0012101F00CF94FF40064DB
:10A380004823694614488DF80330ADF8004000F0CA
:10A39000D3FF0B21012001F05BF8204600F036FFCF
:10A3A0000C200294002501248DF80D0002A88DF8E0
:10A3B0000C508DF80E4000F0EDFE282101A88DF81C
:10A3C00004108DF805408DF806508DF8074000F018
:10A3D000EDFC05B030BD00BF000C01401FB52823C7
:10A3E000002401A88DF804308DF8074000F0DEFC51
:10A3F0004FF40060029002A88DF80E4000F0CAFEF3
:10A400001FBD000020B105484FF4807100F0EABF85
:10A4100002484FF4807100F0E7BF00BF000C01401C
:10A4200013B5082001210F4C01F0B4F803201021CE
:10A430004FF480538DF806008DF80710204601A9CF
:10A44000ADF8043000F078FFFFF780FF4FF4807222
:10A45000204601A9ADF8042000F06EFF0020FFF7B0
:10A46000D1FF1CBD000C014010B50B4C238823F01C
:10A47000400001040A0C2280FFF768FF074B188890
:10A4800081B2074841F040024FF400712280BDE8DC
:10A49000104000F0A9BF00BF00380040DC230020BE
:10A4A000000C014002484FF4007100F09BBF00BF58
:10A4B000000C014070B5082086B0012101F06AF857
:10A4C0002E4C01214FF4804001F070F818204FF419
:10A4D000005303268DF8030069462046ADF800308E
:10A4E0008DF8026000F028FF4FF40041ADF8001035
:10A4F0002046694600F020FF04254FF480422046A4
:10A500006946ADF800208DF8035000F015FF4FF4B8
:10A5100000751023204669468DF80330A4F5544495
:10A52000ADF800508DF8026000F006FFFFF7BAFFAB
:10A5300000204FF482710822ADF80400ADF8061037
:10A54000ADF80800ADF80A00ADF80C00ADF8120047
:10A550000723204601A9ADF81020ADF80E50ADF844
:10A56000143001F0BFF82088054A81B211802046DE
:10A57000012101F0D6F806B070BD00BF000C01400B
:10A58000DC23002010B50B4C238823F0400001048D
:10A590000A0C2280FFF786FF074B188881B2074814
:10A5A00041F040024FF480512280BDE8104000F09D
:10A5B0001BBF00BF00380040DE230020000C01401C
:10A5C00007B50820012100F0E5FF032014214FF416
:10A5D00080638DF806008DF80710034801A9ADF8D7
:10A5E000043000F0A9FE0EBD000C0140002008B5AB
:10A5F00000F096FF4FF400000121BDE8084000F094
:10A60000D5BF0000014B03221A607047281A0020B2
:10A61000044B05489A7A0AB1052100E00121016046
:10A62000704700BFF0230020281A002007B5022041
:10A6300014238DF805000021012201A88DF80430B3
:10A640008DF806108DF8072000F0B0FB0EBD00005D
:10A6500020B105484FF4806100F0C6BE02484FF4B7
:10A66000806100F0BFBE00BF000C01400A4B987D26
:10A6700080B10A490A4B0A880A48A3F84420018895
:10A68000094AA3F8461010880849A3F848000A8828
:10A69000A3F84A20704700BFF4190020004C0008BE
:10A6A00064020020024C0008044C0008064C00081C
:10A6B00010B51A4B987D00282FD000F0C3FD342030
:10A6C00000F0D4FD164800F019FE042824D1154CE2
:10A6D0001348B4F8441000F0F5FD04281BD11248CB
:10A6E000B4F8461000F0EEFD042813D10F48B4F87A
:10A6F000481000F0E7FD04280BD10D48B4F84A10CB
:10A7000000F0E0FD042803D1BDE8104000F0A6BD34
:10A71000FEE7FEE7FEE7FEE7FEE710BDF4190020C6
:10A72000004C000864020020024C0008044C0008A1
:10A73000064C000838B505464FF0FF10FFF722FB26
:10A74000FFF788F90C4B0024A3F84A40FFF7B0FF4D
:10A750000A4820228562C2610462084C216AE369CA
:10A76000994207D205EB013000F001FA206A421C41
:10A770002262F2E738BD00BF64020020F419002015
:10A780002DE9F04106460F464FEA91080024444562
:10A7900016D056F824201748174D0270C2F307212F
:10A7A000C2F30743EA62120E4170C270A96A042222
:10A7B000837000F073F9A86A0134011DA962E6E70D
:10A7C000BB0711D056F824300A480B4AC3F30721BF
:10A7D0004170C3F30741D362037081701B0E916A0D
:10A7E0000422C37000F05AF9E720BDE8F041FFF7FA
:10A7F00073BB00BFD8230020F419002008B5074B15
:10A800000524A3F84840FFF753FF2820214600F015
:10A81000D7FB0020FFF71CFFFFF70AF964020020B6
:10A820004FF480514FF4937200F08BB84FF4005105
:10A830004FF4197200F085B8034BB3F84A00421E7A
:10A84000514251EB0200704764020020024B00228B
:10A85000A3F84A20FFF72CBF6402002070B50E4613
:10A86000054600F0CBFBB3082C461A46013A0434E7
:10A87000511C114905D054F8040C90FAA0F008605E
:10A88000F4E705EB8303086890FAA0F106F00306ED
:10A890009E19B3420ED013F8014B0822614011F00B
:10A8A000010F4FEA510416BF044921466140013AA5
:10A8B000F5D1EEE7C84370BD003002402083B8ED0B
:10A8C000024B1A6B501C1863704700BFF41900202C
:10A8D000014B186B704700BFF419002010B50446F7
:10A8E0000A48022100F037FF0028F9D00748214626
:10A8F00000F02CFF0548012100F02DFF0028F9D0C1
:10A90000024800F025FFC0B210BD00BF0038004073
:10A9100070B5FFF7A9FD9F20FFF7E0FFFF20FFF7CD
:10A92000DDFF0446FF20FFF7D9FF0546FF20FFF7B4
:10A93000D5FF2D020646FFF7B5FD45EA044030433A
:10A9400070BD70B50C4615460646FFF78DFD032019
:10A95000FFF7C4FFC4F30740FFF7C0FFC4F30720AD
:10A96000FFF7BCFFE0B2FFF7B9FF3DB1FF20FFF7F3
:10A97000B5FF013D06F8010BADB2F6E7BDE870404A
:10A98000FFF790BD08B5FFF76FFD0620FFF7A6FFA4
:10A99000BDE80840FFF786BD08B5FFF765FD042058
:10A9A000FFF79CFFBDE80840FFF77CBD08B5FFF747
:10A9B00081FDFFF7F1FFFFF7ABFF104B984202D08C
:10A9C0004C3B984219D1FFF74FFD8020FFF786FFDF
:10A9D000FFF768FDFFF748FD5020FFF77FFFFFF707
:10A9E00061FDFFF741FD0120FFF778FF0020FFF731
:10A9F00075FFBDE80840FFF755BD08BD8D25BF00B8
:10AA000008B5FFF731FD0520FFF768FFFF20FFF7CE
:10AA100065FFC307FAD4BDE80840FFF743BD70B532
:10AA20000D4616460446FFF7ADFFFFF71DFDAD20AE
:10AA3000FFF754FFC5F30740FFF750FFC5F30720AA
:10AA4000FFF74CFFE8B2FFF749FF2078FFF746FF1A
:10AA50006078FFF743FFFFF725FDFFF7D1FFA51C47
:10AA60002C4602342B1BF01881B289B1FFF7FCFC95
:10AA7000AD20FFF733FF14F8020CFFF72FFF14F897
:10AA8000010CFFF72BFFFFF70DFDFFF7B9FFE8E71C
:10AA9000FFF708FDBDE87040FFF77EBF2DE9F84FD6
:10AAA00011F0FF0906460D4617464FEA12381DD130
:10AAB000B8F1000F03D1304629463A4651E004462A
:10AAC0005FFA89F2A81B904504EB000109D02046EB
:10AAD0004FF48052FFF7A3FF04F5805409F10109F8
